:100000000C9463000C940D1A0C943A1A0C944D1035
:100010000C9471100C9495100C948B000C948B0024
:100020000C948B000C94A40E0C948B000C94EC1D7F
:100030000C948B000C948B000C948B000C948B0014
:100040000C94B01A0C948B000C9435160C948B0005
:100050000C948B000C948B000C948B000C948B00F4
:100060000C948B000C948B000000000024002700EF
:100070002A0000000000250028002B0000000000DE
:1000800023002600290004040404040404040202DA
:100090000202020203030303030301020408102007
:1000A0004080010204081020010204081020000012
:1000B0000007000201000003040600000000000029
:1000C00000006211D81711241FBECFEFD8E0DEBFA9
:1000D000CDBF12E0A0E0B1E0E2E2FFE302C0059094
:1000E0000D92AC3AB107D9F714E0ACEAB2E001C026
:1000F0001D92AC38B107E1F710E0C6ECD0E004C0C7
:100100002297FE010E94711FC23CD107C9F70E94CD
:100110002F120C948F1F0C940000EF92FF920F93FC
:100120001F937B018C0120E030E040E05FE40E94FF
:10013000690488238CF0C801B70120E030E040E07A
:100140005FE40E9405020E9457059B01AC0120500C
:1001500030404040504806C0C801B7010E945705D2
:100160009B01AC01B901CA011F910F91FF90EF9063
:100170000895A0E0B0E0EFEBF0E00C94381FDC0154
:100180002B01FA019C91923008F439C1EB0188816E
:10019000823008F433C1943069F4843009F02FC1FF
:1001A00011969C9111978981981709F428C1A0E9AB
:1001B000B1E025C1843009F421C18230A9F4923024
:1001C00009F01DC19A01AD0188E0EA010990AE0174
:1001D000E90109929E018150C1F7E20189811196DE
:1001E0009C918923818308C1923009F407C112963A
:1001F0002D903C901397EB018A819B811496AD90D2
:10020000BD90CD90DC901797EC80FD800E811F8112
:100210009101281B390BB90137FF04C066277727E6
:10022000621B730B603271050CF061C0121613066D
:100230006CF537014801062E04C096948794779494
:1002400067940A94D2F721E030E040E050E004C027
:10025000220F331F441F551F6A95D2F7215030409B
:10026000404050402E213F2140235123211531058C
:100270004105510521F021E030E040E050E07901F6
:100280008A01E628F728082919293CC0232BD1F137
:10029000260E371E35014601062E04C0969487941B
:1002A000779467940A94D2F721E030E040E050E080
:1002B00004C0220F331F441F551F6A95D2F72150E7
:1002C0003040404050402A213B214C215D212115E6
:1002D00031054105510521F021E030E040E050E0DA
:1002E00059016A01A628B728C828D9280BC0821549
:1002F00093052CF01C01AA24BB24650103C0EE2445
:10030000FF24870111969C91D20111968C91981728
:1003100009F445C0992339F0A80197012A193B092E
:100320004C095D0906C0A60195012E193F09400B35
:10033000510B57FD08C011823382228224833583FA
:10034000468357831DC081E08183338222828827C0
:100350009927DC01821B930BA40BB50B8483958337
:10036000A683B7830DC0220F331F441F551F24835C
:100370003583468357838281938101979383828358
:100380002481358146815781DA01C9010197A1098C
:10039000B1098F5F9F4FAF4FBF4328F30BC09183CD
:1003A00033822282EA0CFB1C0C1D1D1DE482F582A7
:1003B0000683178383E080832481358146815781BA
:1003C00057FF1AC0C901AA2797FDA095BA2F8170BF
:1003D0009070A070B0705695479537952795822BF1
:1003E000932BA42BB52B84839583A683B78382811B
:1003F0009381019693838283DF0101C0D201CD01F5
:10040000CDB7DEB7E2E10C94541FA0E2B0E0EBE020
:10041000F2E00C94441F69837A838B839C832D8341
:100420003E834F835887E9E0EE2EF12CEC0EFD1E43
:10043000CE010196B7010E9449078E010F5E1F4F42
:10044000CE010596B8010E9449078A8991E0892763
:100450008A8BC701B801AE01475E5F4F0E94B900A9
:100460000E947306A096E6E00C94601FA0E2B0E044
:10047000ECE3F2E00C94441F69837A838B839C83C2
:100480002D833E834F835887F9E0EF2EF12CEC0E3D
:10049000FD1ECE010196B7010E9449078E010F5E35
:1004A0001F4FCE010596B8010E944907C701B80148
:1004B000AE01475E5F4F0E94B9000E947306A0968E
:1004C000E6E00C94601FA0E2B0E0E9E6F2E00C94F4
:1004D000381F69837A838B839C832D833E834F836C
:1004E0005887CE010196BE01675F7F4F0E94490782
:1004F000CE010596BE016F5E7F4F0E944907998528
:10050000923088F089898230C8F0943019F48230B2
:1005100051F404C0843029F4923081F480E991E0F0
:10052000C6C0923049F420E09A858A89981321E068
:100530002A87CE010996BBC0823049F420E09A8513
:100540008A89981321E02A8BCE014196B0C02D8470
:100550003E844F8458886D887E888F88988CEE24DE
:10056000FF248701AA24BB24650140E050E060E03D
:1005700070E0E0E0F0E0C10181709070892BE9F05B
:10058000E60CF71C081D191D9A01AB012A0D3B1D35
:100590004C1D5D1D80E090E0A0E0B0E0E614F704A3
:1005A0000805190520F481E090E0A0E0B0E0BA0170
:1005B000A901480F591F6A1F7B1FAA0CBB1CCC1C2A
:1005C000DD1C97FE08C081E090E0A0E0B0E0A82A22
:1005D000B92ACA2ADB2A3196E032F10549F0660CC5
:1005E000771C881C991C5694479437942794C3CF42
:1005F000FA85EA892B893C898B859C85280F391FD0
:100600002E5F3F4F17C0CA0181709070892B61F037
:1006100016950795F794E79480E090E0A0E0B0E8A5
:10062000E82AF92A0A2B1B2B76956795579547954B
:100630002F5F3F4F77FDE7CF0CC0440F551F661F5C
:10064000771F17FD4160EE0CFF1C001F111F21508A
:100650003040403090E0590790E0690790E4790716
:1006600060F32B8F3C8FDB01CA018F779070A070F5
:10067000B07080349105A105B10561F447FD0AC051
:10068000E114F1040105110529F0405C5F4F6F4F43
:100690007F4F40781A8EFE1711F081E08A8F4D8FC0
:1006A0005E8F6F8F78A383E0898FCE0149960E9479
:1006B0007306A096E2E10C94541FA8E1B0E0E3E6D3
:1006C000F3E00C94401F69837A838B839C832D8392
:1006D0003E834F835887B9E0EB2EF12CEC0EFD1EC4
:1006E000CE010196B7010E9449078E010F5E1F4F90
:1006F000CE010596B8010E9449072985223008F4E9
:100700007EC03989323010F4B8017CC08A859A895C
:1007100089278A87243011F0223031F4231709F019
:100720006EC060E971E06EC0343039F41D861E86FB
:100730001F86188A1C861B8604C0323021F484E090
:100740008987B7015FC02B853C858B899C89281BD5
:10075000390B3C872B87ED84FE840F851889AD8883
:10076000BE88CF88D88CEA14FB040C051D0540F424
:10077000EE0CFF1C001F111F215030403C872B87BF
:1007800020E030E040E050E080E090E0A0E0B0E425
:1007900060E070E0EA14FB040C051D0540F0282B16
:1007A000392B4A2B5B2BEA18FB080C091D09B6955F
:1007B000A79597958795EE0CFF1C001F111F6F5F83
:1007C0007F4F6F31710531F7DA01C9018F77907072
:1007D000A070B07080349105A105B10561F427FDCA
:1007E0000AC0E114F1040105110529F0205C3F4F16
:1007F0004F4F5F4F20782D873E874F87588BBE0124
:10080000675F7F4FCB010E9473066896EAE00C9405
:100810005C1FA8E1B0E0EFE0F4E00C94441F6983B2
:100820007A838B839C832D833E834F83588789E013
:10083000E82EF12CEC0EFD1ECE010196B7010E94B0
:1008400049078E010F5E1F4FCE010596B8010E9429
:1008500049078985823040F08989823028F0C701B4
:10086000B8010E94C10701C081E06896E6E00C94DF
:10087000601FA8E1B0E0EFE3F4E00C94441F69834B
:100880007A838B839C832D833E834F83588789E0B3
:10089000E82EF12CEC0EFD1ECE010196B7010E9450
:1008A00049078E010F5E1F4FCE010596B8010E94C9
:1008B00049078985823040F08989823028F0C70154
:1008C000B8010E94C10701C08FEF6896E6E00C9462
:1008D000601FA8E1B0E0EFE6F4E00C94441F6983E8
:1008E0007A838B839C832D833E834F83588789E053
:1008F000E82EF12CEC0EFD1ECE010196B7010E94F0
:1009000049078E010F5E1F4FCE010596B8010E9468
:1009100049078985823040F08989823028F0C701F3
:10092000B8010E94C10701C08FEF6896E6E00C9401
:10093000601FA8E1B0E0EFE9F4E00C94441F698384
:100940007A838B839C832D833E834F83588789E0F2
:10095000E82EF12CEC0EFD1ECE010196B7010E948F
:1009600049078E010F5E1F4FCE010596B8010E9408
:1009700049078985823040F08989823028F0C70193
:10098000B8010E94C10701C081E06896E6E00C94BE
:10099000601FA8E1B0E0EFECF4E00C94441F698321
:1009A0007A838B839C832D833E834F83588789E092
:1009B000E82EF12CEC0EFD1ECE010196B7010E942F
:1009C00049078E010F5E1F4FCE010596B8010E94A8
:1009D00049078985823040F08989823028F0C70133
:1009E000B8010E94C10701C081E06896E6E00C945E
:1009F000601FA8E0B0E0EFEFF4E00C94411F9B0112
:100A0000AC0183E08983DA01C9018827B7FD8395AA
:100A10009927AA27BB27B82E211531054105510575
:100A200019F482E089833AC08823A9F0203080E05D
:100A3000380780E0480780E8580729F460E070E054
:100A400080E09FEC30C0EE24FF248701E21AF30A15
:100A5000040B150B02C079018A018EE1C82ED12C3E
:100A6000DC82CB82ED82FE820F831887C801B7013A
:100A70000E94240601971816190684F4082E04C053
:100A8000EE0CFF1C001F111F0A94D2F7ED82FE82AC
:100A90000F831887C81AD90ADC82CB82BA82CE01AA
:100AA00001960E9473062896E9E00C945D1FACE065
:100AB000B0E0EDE5F5E00C94481F69837A838B8301
:100AC0009C83CE010196BE016B5F7F4F0E94490758
:100AD0008D81823061F1823050F1843021F48E8139
:100AE000882351F12EC02F81388537FD20C06E81BB
:100AF0002F3131051CF06623F9F023C08EE190E020
:100B0000821B930B29853A854B855C8504C05695DD
:100B10004795379527958A95D2F76623B1F050957A
:100B20004095309521953F4F4F4F5F4F0EC020E0CD
:100B300030E040E050E009C02FEF3FEF4FEF5FE7BC
:100B400004C020E030E040E050E8B901CA012C9632
:100B5000E2E00C94641FA8E0B0E0E1EBF5E00C9457
:100B6000401F7B018C01611571058105910519F408
:100B700082E0898360C083E089838EE1C82ED12C16
:100B8000DC82CB82ED82FE820F831887C801B70119
:100B90000E942406FC013197F7FF3BC02227332730
:100BA0002E1B3F0B57016801022E04C0D694C79438
:100BB000B794A7940A94D2F740E050E060E070E068
:100BC00081E090E0A0E0B0E004C0880F991FAA1F68
:100BD000BB1F2A95D2F70197A109B1098E219F2148
:100BE000A023B1230097A105B10521F041E050E019
:100BF00060E070E04A295B296C297D294D835E8382
:100C00006F8378878EE190E08E1B9F0B9C838B8394
:100C100012C0309781F00E2E04C0EE0CFF1C001F96
:100C2000111F0A94D2F7ED82FE820F831887CE1A25
:100C3000DF0ADC82CB821A82CE0101960E94730603
:100C40002896EAE00C945C1FEF92FF920F931F939B
:100C50007B018C0180E0E81680E0F80681E008075F
:100C600080E0180788F48FEFE816F10401051105FC
:100C700031F028F088E090E0A0E0B0E017C080E01C
:100C800090E0A0E0B0E012C080E0E81680E0F80656
:100C900080E0080781E0180728F088E190E0A0E0F4
:100CA000B0E004C080E190E0A0E0B0E020E230E0FD
:100CB00040E050E0281B390B4A0B5B0B04C0169533
:100CC0000795F794E7948A95D2F7F701E856FE4F17
:100CD0008081281B310941095109C9011F910F91D8
:100CE000FF90EF900895DF92EF92FF920F931F9382
:100CF000FC01E480F58006811781D18080818230FB
:100D000058F480E090E0A0E1B0E0E82AF92A0A2B4C
:100D10001B2BEFEFF0E0A6C0843009F49EC08230B8
:100D200019F4E0E0F0E09BC0E114F10401051105C5
:100D300019F4E0E0F0E096C0628173819FEF6238C1
:100D400079070CF05BC022E83FEF261B370B2A31F6
:100D500031052CF020E030E040E050E02AC0B8013E
:100D6000A701022E04C076956795579547950A947A
:100D7000D2F781E090E0A0E0B0E004C0880F991FB6
:100D8000AA1FBB1F2A95D2F70197A109B1098E218D
:100D90009F21A023B1230097A105B10521F081E097
:100DA00090E0A0E0B0E09A01AB01282B392B4A2B50
:100DB0005B2BDA01C9018F779070A070B07080341E
:100DC0009105A105B10539F427FF09C0205C3F4F0B
:100DD0004F4F5F4F04C0215C3F4F4F4F5F4FE0E0EC
:100DE000F0E02030A0E03A07A0E04A07A0E45A076C
:100DF00010F0E1E0F0E079018A0127C06038710568
:100E000064F5FB01E158FF4FD801C7018F7790705F
:100E1000A070B07080349105A105B10539F4E7FEEA
:100E20000DC080E490E0A0E0B0E004C08FE390E06B
:100E3000A0E0B0E0E80EF91E0A1F1B1F17FF05C057
:100E400016950795F794E794319687E016950795E0
:100E5000F794E7948A95D1F705C0EFEFF0E0EE2420
:100E6000FF2487016E2F679566276795902F9F77E0
:100E7000D794DD24D7948E2F8695492F462B582F53
:100E80005D29B701CA011F910F91FF90EF90DF908C
:100E90000895FC01DB01408151812281622F6F772F
:100EA00070E0221F2227221F9381892F880F822B17
:100EB000282F30E0991F9927991F11969C9311971D
:100EC00021153105A9F5411551056105710511F48B
:100ED00082E037C082E89FEF13969C938E9312971F
:100EE0009A01AB0167E0220F331F441F551F6A951B
:100EF000D1F783E08C930DC0220F331F441F551F81
:100F000012968D919C911397019713969C938E93B3
:100F10001297203080E0380780E0480780E45807C7
:100F200058F314962D933D934D935C931797089522
:100F30002F3F310579F4411551056105710519F40B
:100F400084E08C93089564FF03C081E08C9312C009
:100F50001C9210C02F57304013963C932E9312973B
:100F600083E08C9387E0440F551F661F771F8A9597
:100F7000D1F7706414964D935D936D937C9317979E
:100F800008951F93DC01FB019C91923008F447C047
:100F90008081823008F443C0943051F411961C9142
:100FA000843099F58181682F70E0611B71093FC021
:100FB000843021F0923031F48230B9F1818188237C
:100FC00089F12DC011961C9111978230F1F0818129
:100FD0001817D9F412962D913C9113978281938121
:100FE0008217930794F028173907BCF014968D9157
:100FF0009D910D90BC91A02D248135814681578112
:10100000281739074A075B0718F4112341F00AC073
:1010100082179307A407B50740F4112319F061E084
:1010200070E005C06FEF7FEF02C060E070E0CB01C1
:101030001F910895AF92BF92CF92DF92EF92FF92ED
:101040000F931F93DF93CF930F92CDB7DEB78C0131
:10105000962F603108F09FE0F80185819817D9F04C
:101060007801AA24BB24C92EDD24B6010A2C02C0B3
:10107000759567950A94E2F76170F70181917F0198
:1010800099830E94D51B0894A11CB11C9981F4E09E
:10109000AF16B10451F7F80195830F90CF91DF910E
:1010A0001F910F91FF90EF90DF90CF90BF90AF9086
:1010B00008950F931F938C010E941A08F8018481F0
:1010C0000E948D1B1F910F910895EF920F931F9314
:1010D000CF93DF93EC01688349832A830B83EC82EF
:1010E00000E010E0FE01E00FF11F808161E00E944E
:1010F000AF1B0F5F1F4F04301105A1F78C8160E01B
:101100000E94AF1B8C8160E00E94D51BCE0160E085
:101110000E941A08DF91CF911F910F91EF900895CF
:10112000FC017283618315A2108281E083831482A3
:101130001582168217820895AF92BF92CF92DF92E6
:10114000EF92FF920F931F937A018B010E94F81A7E
:101150005B016C01AE0CBF1CC01ED11E0E94F81AB0
:101160006A157B058C059D05A0F486E494E00E9439
:101170006317892B71F4F2CF86E494E00E949117F3
:101180001F910F91FF90EF90DF90CF90BF90AF90A5
:10119000089586E494E00E946317892B69F780E044
:1011A000EFCF2F923F924F925F926F927F928F92EA
:1011B0009F92AF92BF92CF92DF92EF92FF920F93E6
:1011C0001F93DF93CF93CDB7DEB72C970FB6F8946C
:1011D000DEBF0FBECDBF9C878B87FC010180F281F3
:1011E000E02DFA83E9832488358846885788C20130
:1011F000B10120E030E048EC52E40E9463027B0140
:101200008C0120E030E040E050E00E9439041816E4
:101210001CF4C801B70108C0C201B10120E030E0F0
:1012200048EC52EC0E9463020E948D0069877A8725
:10123000E981FA8160AC71AC82AC93ACC401B301BA
:1012400020E030E048EC52E40E9463027B018C0114
:1012500020E030E040E050E00E94390418161CF411
:10126000C801B70108C0C401B30120E030E048EC78
:1012700052EC0E9463020E948D006F837887E9819F
:10128000FA81A280B380C480D580C601B50120E078
:1012900030E040E050E00E94390418163CF4C601EA
:1012A000B50120E030E04AE754E406C0C601B501CC
:1012B00020E030E04AE754EC0E9463020E948D0077
:1012C0006D837E83E981FA81E680F7800085118550
:1012D000C801B70120E030E040E050E00E9439044E
:1012E00018163CF4C801B70120E030E04AE754E4A6
:1012F00006C0C801B70120E030E04AE754EC0E9484
:1013000063020E948D006B837C83C401B30120E0E3
:1013100030E040E050E00E946904982E9094991CBF
:101320009924991C990CC601B50120E030E040E0F9
:1013300050E00E946904D82ED094DD1CDD24DD1C11
:10134000DD0CDD0CC801B70120E030E040E050E0EA
:101350000E946904082F0095001F0027001F000F3E
:10136000000F000F89819A810E94CA1020E030E0AE
:1013700048EC52E40E9463020E9457055B01EB8532
:10138000FC85818192810E94B91020E030E048EC18
:1013900052E40E9463020E9457057B01EB85FC85A5
:1013A000818192810A960E94A91C882EEB85FC857A
:1013B000818192810D960E94A91CC82E8CE3EB8539
:1013C000FC85848B8A85858B9985968B8885878B10
:1013D0009F81908F8E81818F9D81928F8C81838F51
:1013E0009B81948F10E0C201B10120E030E040E029
:1013F00050E00E94690488230CF011E0912A9D2896
:10140000902AEB85FC85958E8B2D992787FD9A95E3
:10141000868FA78E8F2D992787FD9A9580A3E1A2AD
:1014200082A2C3A28EE384A37496FC87EB8786E432
:1014300094E0BF0141E150E00E942A182C960FB6BB
:10144000F894DEBF0FBECDBFCF91DF911F910F91FA
:10145000FF90EF90DF90CF90BF90AF909F908F90D4
:101460007F906F905F904F903F902F900895AF9234
:10147000BF92CF92DF92EF92FF920F931F93DF9371
:10148000CF93CDB7DEB760970FB6F894DEBF0FBE2F
:10149000CDBF5C018C01045F1F4FC80160E071E0AB
:1014A0000E94751F009791F0C5014AEF50E060E07F
:1014B00070E00E949C08D50113961C921397882314
:1014C00009F481C381E013968C937DC3C80163E066
:1014D00071E00E94751F009709F44BC08E010F5FE9
:1014E0001F4FB5E0EB2EF12CEC0EFD1EC5014AEFAF
:1014F00050E060E070E00E949C08F80181938F0149
:10150000EE15FF0599F7D50111960D911C911297D3
:10151000798160E02A8130E0622B732B882777FD88
:101520008095982F0E94F9042DEC3CEC4CEC5DE387
:101530000E946302F801608B718B828B938B7B819D
:1015400060E02C8130E0622B732B882777FD80953B
:10155000982F0E94F9042DEC3CEC4CEC5DE30E94CA
:101560006302D801D4966D937D938D939C93D79706
:101570002AC3C80168E071E00E94751F009749F115
:10158000C50144E650E060E070E00E949C08182F1E
:10159000C50144E650E060E070E00E949C08082F1E
:1015A000F501818192810A96153B08F014EB612FB9
:1015B00070E00E94FE1CD50111968D919C911297AE
:1015C0000D96602F053B08F064EB70E00E94FE1C56
:1015D000FAC2C8016DE071E00E94751F009709F41E
:1015E000A4C08E010B5F1F4FA1E1EA2EF12CEC0E7F
:1015F000FD1EC5014AEF50E060E070E00E949C08CB
:10160000F80181938F01EE15FF0599F7D501119629
:101610000D911C9112977D8160E02E8130E0622B4C
:10162000732B882777FD8095982F0E94F9042AE074
:1016300037ED43E25CE30E946302F80160A771A703
:1016400082A793A77F8160E0288530E0622B732B0F
:10165000882777FD8095982F0E94F9042AE037EDBE
:1016600043E25CE30E946302D8019C966D937D93F4
:101670008D939C939F97798560E02A8530E0622B5B
:10168000732B882777FD8095982F0E94F9042AE014
:1016900037ED43E25CE30E946302F80160AB71AB9B
:1016A00082AB93AB045B1F4F7B8560E02C8530E001
:1016B000622B732B882777FD8095982F0E94F90461
:1016C0002AE037ED43E25CE30E946302D8016D93A8
:1016D0007D938D939D938D017D8560E02E8530E017
:1016E000622B732B882777FD8095982F0E94F90431
:1016F0002AE037ED43E25CE30E946302F801619364
:101700007193819391938F017F8560E0288930E008
:10171000622B732B882777FD8095982F0E94F90400
:101720002AE037ED43E25CE34CC0C80162E171E0BE
:101730000E94751F009709F44DC08E010F5F1F4F67
:10174000F5E0EF2EF12CEC0EFD1EC5014AEF50E046
:1017500060E070E00E949C08F80181938F01EE1513
:10176000FF0599F7D50111960D911C911297085A12
:101770001F4F798160E02A8130E0622B732B88272C
:1017800077FD8095982F0E94F9042CEA35EC47E20A
:1017900057E30E946302F8016193719381939193DF
:1017A0008F017B8160E02C8130E0622B732B8827D6
:1017B00077FD8095982F0E94F9042CEA35EC47E2DA
:1017C00057E30E946302D8016D937D938D939C93A0
:1017D0001397F9C1C80168E171E00E94751F009775
:1017E00009F489C086E494E06EE171E00E94491832
:1017F000D5011196ED91FC91129740A551A562A5D6
:1018000073A586E494E02AE030E00E94DC1986E4C7
:1018100094E06AE271E00E944918D5011196ED91B9
:10182000FC91129744A555A566A577A586E494E09A
:101830002AE030E00E94DC1986E494E06AE271E07C
:101840000E944918D5011196ED91FC91129740A97B
:1018500051A962A973A986E494E02AE030E00E94CD
:10186000DC1986E494E06DE271E00E944918D5012C
:101870001196ED91FC911297E45BFF4F40815181ED
:101880006281738186E494E02AE030E00E94DC19F2
:1018900086E494E06AE271E00E944918D50111964D
:1018A000ED91FC911297E05BFF4F40815181628185
:1018B000738186E494E02AE030E00E94DC1986E43B
:1018C00094E06AE271E00E944918D5011196ED9109
:1018D000FC911297EC5AFF4F4081518162817381D4
:1018E00086E494E02AE030E00E94DC1986E494E08B
:1018F0006CE371E05FC1C80160E471E00E94751F94
:101900000097F1F0F501C180D280D60154966D9117
:101910007D918D919C91579720E030E040E251E419
:101920000E9463020E9457057B018C01F60160ADA5
:1019300071AD82AD93AD20E030E040E251E425C0CE
:10194000C80165E471E00E94751F009709F445C065
:10195000F501C180D280D60112966D917D918D9155
:101960009C91159720E030E048EC52E40E9463021D
:101970000E9457057B018C01F60166817781808585
:10198000918520E030E048EC52E40E9463020E941E
:1019900057052CE3D50154962C9354972F2D3327BC
:1019A00027FD3A9555962C9355975696EC92569757
:1019B000472F552747FD5A9557964C93579758965A
:1019C0006C9358972E0D240F260F2F7759962C9332
:1019D00059978EE35A968C933BC0C8016AE471E034
:1019E0000E94751F0097E1F1F501818192810E94AB
:1019F000CA1020E030E048EC52E40E9463020E94EA
:101A000057057B018C01D50111968D919C91129700
:101A10000E94B91020E030E048EC52E40E946302DA
:101A20000E9457052CE3F501248B2F2D332727FD2A
:101A30003A95258BE68A472F552747FD5A95478BC0
:101A4000608F2E0D240F260F2F77218F8EE3828F2C
:101A5000B5016C5E7F4F86E494E047E050E030C013
:101A6000C8016FE471E00E94751F009761F1D50114
:101A700011968D919C9112970A960E94A91C182F7D
:101A8000F501818192810D960E94A91C9CE3D501EC
:101A900054969C93549755961C93559756968C93B1
:101AA0005697810F8F7757968C9357978EE358965A
:101AB0008C93B5016C5E7F4F86E494E045E050E086
:101AC0000E942A1880C0C80164E571E00E94751F59
:101AD000009751F0D5011196ED91FC911297408934
:101AE00051896289738932C0C80169E571E00E9439
:101AF000751F009751F0D5011196ED91FC91129749
:101B000044A955A966A977A921C0C8016EE571E06D
:101B10000E94751F009751F0D5011196ED91FC912F
:101B20001297448955896689778910C0C80163E690
:101B300071E00E94751F009781F0D5011196ED911B
:101B4000FC91129740AD51AD62AD73AD86E494E067
:101B50002AE030E00E94DF1936C0C80168E671E073
:101B60000E94751F009749F1F501818192810E94C1
:101B7000CA10AB01BC0186E494E02AE030E00E9488
:101B8000DC1986E494E06DE671E00E944918D50105
:101B900011968D919C9112970E94B910AB01BC01D6
:101BA00086E494E02AE030E00E94DC1986E494E0C8
:101BB00066E771E00E94491806C086E494E06EE78B
:101BC00071E00E944519F50115A280E090E294872A
:101BD0008F5F31968830D9F760960FB6F894DEBFE4
:101BE0000FBECDBFCF91DF911F910F91FF90EF906E
:101BF000DF90CF90BF90AF900895EF92FF920F9338
:101C00001F93CF93DF93EC018B818823F1F1E8845C
:101C1000F9840A851B850E94F81AE61AF70A080B50
:101C2000190B25E6E216F1040105110570F1CE014C
:101C30000E94D1082AC00E94F81A6C837D838E838B
:101C40009F8386E494E00E9491178A3349F41DA291
:101C5000FE0180E014878F5F31968830D9F716C077
:101C6000813219F09DA1973048F08DA1FE01E80F57
:101C7000F11D1486CE010E94370A08C0FE01E90F4B
:101C8000F11D84879F5F9DA301C010E286E494E06C
:101C90000E946317892B79F60E94F81AE0E02C81E4
:101CA0003D814E815F81621B730B840B950B695ED6
:101CB00073408040904008F4E1E0E883DF91CF91E9
:101CC0001F910F91FF90EF9008958091B202909133
:101CD000B302A091B402B091B5020196A11DB11D4D
:101CE0008093B2029093B302A093B402B093B50272
:101CF0002091B2023091B3024091B4025091B502EA
:101D00008091AC029091AD02A091AE02B091AF0271
:101D1000281739074A075B07B0F08091B60288237D
:101D200091F481E08093B6021092B2021092B30255
:101D30001092B4021092B502E091B002F091B1029B
:101D400009951092B60208951F920F920FB60F9246
:101D500011242F933F934F935F936F937F938F93B0
:101D60009F93AF93BF93EF93FF938091B7029091AE
:101D7000B8028093B2000E94650EFF91EF91BF916F
:101D8000AF919F918F917F916F915F914F913F9113
:101D90002F910F900FBE0F901F901895EF92FF920A
:101DA0000F931F93FC0143832483E186F28603870C
:101DB000148781E08283718360831F910F91FF906C
:101DC000EF9008950F931F93CF93DF93EC018A81D7
:101DD000882361F0888199816B810E9459088C0168
:101DE000888199816C810E94590807C08B810E946B
:101DF0008D1B8C018C810E948D1B081B190BB80157
:101E0000882777FD8095982F0E94F90429853A85C7
:101E10004B855C850E9463022D813E814F815885F0
:101E20000E940502DF91CF911F910F910895AF920B
:101E3000BF92CF92DF92EF92FF920F931F93CF93B7
:101E4000DF93EC017B01442309F056C080E090E071
:101E5000A0E0B0E08D839E83AF83B887CC24DD24DF
:101E60003AC08A81882361F0888199816B810E94C0
:101E700059088C01888199816C810E94590807C09A
:101E80008B810E948D1B8C018C810E948D1B081BF5
:101E9000190BB801882777FD8095982F0E94F904C7
:101EA00029853A854B855C850E9463029B01AC01C4
:101EB0006D817E818F8198850E9436026D837E833D
:101EC0008F83988761E070E080E090E00E942C1B97
:101ED0000894C11CD11CCE14DF0418F2B70180E0B5
:101EE00090E00E94AB059B01AC016D817E818F81EA
:101EF00098850E945D034FC080E090E00E94AB0592
:101F00005B016C010894E108F108B70180E090E002
:101F10000E94AB05A60195010E945D039B01AC01E7
:101F20006D817E818F8198850E9463026D837E839F
:101F30008F8398878A81882361F0888199816B815A
:101F40000E9459088C01888199816C810E945908EE
:101F500007C08B810E948D1B8C018C810E948D1B80
:101F6000081B190BB801882777FD8095982F0E94D0
:101F7000F90429853A854B855C850E946302A60198
:101F800095010E945D039B01AC016D817E818F8173
:101F900098850E9436026D837E838F839887DF91B8
:101FA000CF911F910F91FF90EF90DF90CF90BF9056
:101FB000AF9008950F931F93CF93DF93FC01818916
:101FC000A481B5819381082F027081FF05C08C9197
:101FD000892309F454C004C08C91892309F04FC0AF
:101FE0008185928520E001972FEF8F3F9207D9F7E7
:101FF000C385D485A481B581738160E031E040E080
:1020000050E010E0CE01212F01972FEF8F3F920774
:10201000D9F78C91872311F0632B03C0832F809510
:102020006823330F4F5F5F4F4830510559F785855F
:10203000968520E001972FEF8F3F9207D9F7011186
:1020400060958091FB022091FC0290E001968F73D5
:10205000907030E08217930779F0E091FB02F0E096
:10206000E554FD4F60838091FB0290E001968F73F1
:1020700090708093FB0203C081898160818BDF9126
:10208000CF911F910F9108958091B9029091BA025A
:10209000009711F00E94DA0F08951F920F920FB669
:1020A0000F9211242F933F934F935F936F937F93DE
:1020B0008F939F93AF93BF93EF93FF930E9444102E
:1020C000FF91EF91BF91AF919F918F917F916F9110
:1020D0005F914F913F912F910F900FBE0F901F90E6
:1020E00018951F920F920FB60F9211242F933F93C2
:1020F0004F935F936F937F938F939F93AF93BF9310
:10210000EF93FF930E944410FF91EF91BF91AF9125
:102110009F918F917F916F915F914F913F912F91FF
:102120000F900FBE0F901F9018951F920F920FB631
:102130000F9211242F933F934F935F936F937F934D
:102140008F939F93AF93BF93EF93FF930E9444109D
:10215000FF91EF91BF91AF919F918F917F916F917F
:102160005F914F913F912F910F900FBE0F901F9055
:102170001895FC0181810E948D1BA0E0B0E0BC019C
:10218000CD010E94AB0524E739EB48E05EE30E94F5
:1021900063020895FC0180810E948D1BA0E0B0E0E5
:1021A000BC01CD010E94AB0520E030E04DE95DE3CC
:1021B0000E9463020895CF93DF93EC016623A1F0A0
:1021C000442391F068834983862F60E00E94AF1B0F
:1021D000898160E00E94AF1B888160E00E94D51B6E
:1021E000898160E00E94D51BDF91CF910895DF9334
:1021F000CF9300D0CDB7DEB7CE01019660E040E0CE
:102200000E94DB100F900F90CF91DF91089589B15C
:1022100090E024E0969587952A95E1F78170809368
:1022200079032091690330916A0340916B035091C7
:102230006C0380917903882329F481E090E0A0E089
:10224000B0E004C08FEF9FEFAFEFBFEF820F931F9F
:10225000A41FB51F8093690390936A03A0936B0337
:10226000B0936C03089584B58F7D84BD89B190E0EF
:1022700035E0969587953A95E1F7817080937A03DA
:1022800020916D0330916E0340916F035091700364
:1022900080917A03882329F481E090E0A0E0B0E007
:1022A00004C08FEF9FEFAFEFBFEF820F931FA41F0C
:1022B000B51F80936D0390936E03A0936F03B0934B
:1022C00070030895AF92BF92CF92DF92EF92FF9288
:1022D0000F931F9359E0C52E53E0D52EC6010E94DF
:1022E000F710C6010A960E94291CC6010D960E948D
:1022F000291C4FE7A42E43E0B42EC5016AE04BE051
:102300002CE00DE0EE240E94650885E893E0B5011D
:102310004EE02FE00F2EF8E5EF2EF0EAFF2EFBE067
:102320000F2FFDE31F2FF02D0E94CE0E86E993E0C4
:102330000E94291C89E993E00E94291C8CE993E002
:10234000B6010E9490081F910F91FF90EF90DF90CF
:10235000CF90BF90AF9008959F92AF92BF92CF92CF
:10236000DF92EF92FF920F931F93962E803829F4FD
:1023700021E83FEF4FEF5FEF06C0282F332727FDFF
:102380003095432F532F00D000D088EE93E0A0E08B
:10239000B0E0EDB7FEB781839283A383B483CA0113
:1023A000B90121E83FEF4FEF5FEFBFE7EB2EF12CD4
:1023B000012D112DA0EDAA2EA7E0BA2EC12CD12CF3
:1023C0000E94671A9B01AC010F900F900F900F9025
:1023D00086E993E0B9010E94431CF0E89F1629F4B6
:1023E00021E83FEF4FEF5FEF06C0292D332727FD90
:1023F0003095432F532F00D000D080ED97E0A0E020
:10240000B0E0EDB7FEB781839283A383B483CA01A2
:10241000B90121E83FEF4FEF5FEFFFE7EF2EF12C1F
:10242000012D112DE8EEAE2EE3E0BE2EC12CD12CF5
:102430000E94671A9B01AC010F900F900F900F90B4
:1024400089E993E0B9010E94431C1F910F91FF900D
:10245000EF90DF90CF90BF90AF909F9008952F9214
:102460003F924F925F926F927F928F929F92AF9224
:10247000BF92CF92DF92EF92FF920F931F93DF9361
:10248000CF93CDB7DEB72C970FB6F894DEBF0FBE53
:10249000CDBF0E94521B86E494E040E052EC61E024
:1024A00070E00E94721689E093E061E042E00E94D1
:1024B000DB1083E193E06AE570E00E94FE1C83E19B
:1024C00093E068E070E00E94E51D86E193E06AE534
:1024D00070E00E94FE1C86E193E069E070E00E94DB
:1024E000E51D80E060E00E94AC1186E993E067E0C2
:1024F00070E00E94E51D89E993E066E070E00E94CB
:10250000E51D0F2EFAE9EF2EF9E9FF2EF9E90F2F5D
:10251000FEE31F2FF02DE0923103F092320300937F
:102520003303109334032DEC3CEC4CE45DE3209337
:10253000350330933603409337035093380380E0DC
:1025400090E0A0E0B0E08093390390933A03A09329
:102550003B03B0933C03E0925503F0925603009383
:102560005703109358032093590330935A03409311
:102570005B0350935C0380935D0390935E03A09391
:102580005F03B09360038FE09DEBA2E0BBE3809319
:10259000610390936203A0936303B09364038093F9
:1025A000650390936603A0936703B093680383E089
:1025B000898385E08A8382E08B8384E08C837E013B
:1025C0000894E11CF11C05E0C02ED12CCC0EDD1EC0
:1025D000D7011D917D01812F60E00E94AF1B812FEB
:1025E00060E00E94D51BEC14FD0491F780E067E0E9
:1025F00071E143E050E00E94EA1981E063E371E198
:1026000043E050E00E94EA1981E161E00E94AF1BC3
:1026100081E161E00E94D51B85E893E068EE73E0FC
:1026200040E00E94170F8CE993E00E94FD0D0E948C
:10263000F81A60930103709302038093030390934D
:102640000403209105033091060340910703509144
:102650000803621773078407950748F180919C036C
:10266000882381F066B170E013E0769567951A953E
:10267000E1F7E1E0F0E06E277F27617081E10E94E1
:10268000D51B01C043988091010390910203A09152
:102690000303B09104038C509E4FAF4FBF4F809304
:1026A000050390930603A0930703B09308032091BA
:1026B000FD023091FE024091FF02509100036091B3
:1026C0000103709102038091030390910403621748
:1026D00073078407950708F4A6CF6C597F4F8F4F77
:1026E0009F4F621B730B840B950B0E94AB052FE66B
:1026F00032E143E85AE30E9463021B012C0185E8A2
:1027000093E00E94E20E7B018C0160930B037093B7
:102710000C0380930D0390930E03C201B10120912D
:1027200092033091930340919403509195030E943A
:1027300063029B01AC0160910F03709110038091C3
:102740001103909112030E94360260930F0370935D
:1027500010038093110390931203C801B70120E086
:1027600030E040E050E00E94390418165CF4C801E3
:10277000B7012FE632E143E85AE30E94C904181674
:1027800094F10AC0C801B7012FE632E143E85AEBE1
:102790000E94690488233CF16091190370911A0327
:1027A00080911B0390911C0320E030E040E050E05A
:1027B0000E9409048823B9F460913D0370913E039F
:1027C00080913F039091400320E030E040E050E0F2
:1027D0000E940904882339F485E893E068EE73E0E9
:1027E00041E00E94170F6091690370916A03809124
:1027F0006B0390916C0320917103309172034091AF
:10280000730350917403621B730B840B950B0E942E
:10281000F9042FE03DEB42E05BE30E946302A2017A
:1028200091010E945D035B016C0160931D03709335
:102830001E0380931F039093200360916D0370919A
:102840006E0380916F039091700320917503309116
:1028500076034091770350917803621B730B840BCE
:10286000950B0E94F9042FE03DEB42E05BE30E94F0
:102870006302A20191010E945D037B018C016093C0
:1028800041037093420380934303909344038091E8
:10289000690390916A03A0916B03B0916C038093DC
:1028A000710390937203A0937303B09374038091A8
:1028B0006D0390916E03A0916F03B09170038093AC
:1028C000750390937603A0937703B0937803609198
:1028D000190370911A0380911B0390911C03A601A8
:1028E00095010E94050269877A878B879C87609390
:1028F0002D0370932E0380932F03909330036091E8
:102900003D0370913E0380913F0390914003A801E5
:1029100097010E9405026D837E838F839887609361
:10292000510370935203809353039093540369852A
:102930007A858B859C85A20191010E94630220917A
:1029400025033091260340912703509128030E94CC
:1029500036025B016C016D817E818F819885A201B9
:1029600091010E9463022091490330914A034091F2
:102970004B0350914C030E9436023B014C01C601AF
:10298000B50120E030E04EEF52EC0E94990488231C
:102990005CF40F2EF0E0AF2EF0E0BF2EFEEFCF2E56
:1029A000F2ECDF2EF02D14C0C601B50120E030E0BE
:1029B0004EEF52E40E943904181654F40F2EF0E042
:1029C000AF2EF0E0BF2EFEEFCF2EF2E4DF2EF02D83
:1029D000A0922503B0922603C0922703D092280329
:1029E000C401B30120E030E04EEF52EC0E949904A4
:1029F00088235CF40F2EF0E06F2EF0E07F2EFEEFC8
:102A00008F2EF2EC9F2EF02D14C0C401B30120E0F4
:102A100030E04EEF52E40E943904181654F40F2EA1
:102A2000F0E06F2EF0E07F2EFEEF8F2EF2E49F2E6F
:102A3000F02D6092490370924A0380924B0390926A
:102A40004C0369857A858B859C8520913103309173
:102A5000320340913303509134030E9463027B019F
:102A60008C01C601B50120913503309136034091A8
:102A70003703509138030E9463029B01AC01C801E7
:102A8000B7010E9436027B018C0169857A858B85AE
:102A90009C852091290330912A0340912B0350916A
:102AA0002C030E9405022091390330913A03409192
:102AB0003B0350913C030E946302A20191010E94DA
:102AC0005D039B01AC01C801B7010E9436025B01A6
:102AD0006C016093210370932203809323039093EE
:102AE00024036D817E818F819885209155033091DB
:102AF000560340915703509158030E9463027B0193
:102B00008C01C401B3012091590330915A034091C3
:102B10005B0350915C030E9463029B01AC01C801FE
:102B2000B7010E9436027B018C016D817E818F810D
:102B3000988520914D0330914E0340914F03509161
:102B400050030E94050220915D0330915E03409185
:102B50005F03509160030E946302A20191010E94F1
:102B60005D039B01AC01C801B7010E9436027B01E5
:102B70008C016093450370934603809347039093C1
:102B8000480389859A85AB85BC85809329039093FA
:102B90002A03A0932B03B0932C038D819E81AF81D8
:102BA000B88580934D0390934E03A0934F03B09349
:102BB000500360917D0370917E03882777FD809597
:102BC000982F0E94F904A80197010E9436020E94E2
:102BD0005705162F072F60917B0370917C03882780
:102BE00077FD8095982F0E94F904A60195010E9417
:102BF00036020E9457056038710514F06FE770E0E7
:102C00009FEF6138790714F461E87FEF70937C03DC
:102C100060937B03812F902F9C012038310514F0A5
:102C20002FE730E0AFEF21383A0714F421E83FEF07
:102C300030937E0320937D03862F622F0E94AC1178
:102C40008091010390910203A0910303B0910403CA
:102C50008C599F4FAF4FBF4F8093FD029093FE0260
:102C6000A093FF02B0930003DECC1F920F920FB629
:102C70000F9211242F933F934F935F936F937F9302
:102C80008F939F93AF93BF93EF93FF934091C600B1
:102C9000E0914204F0914304CF01019660E870E0B6
:102CA0000E94E81E9C0180914404909145042817DD
:102CB000390739F0EE53FC4F40833093430420939F
:102CC0004204FF91EF91BF91AF919F918F917F91BE
:102CD0006F915F914F913F912F910F900FBE0F9089
:102CE0001F9018955F926F927F928F929F92AF92F2
:102CF000BF92CF92DF92EF92FF920F931F93CF93E9
:102D0000DF93EC015A016B0181E4A81682E4B80656
:102D10008FE0C80680E0D80608F077C060E874E865
:102D20008EE190E0A60195010E94FB1E39014A0147
:102D300008946108710881089108969487947794A3
:102D40006794A40193012F5F3F4F4F4F5F4F74E093
:102D5000220F331F441F551F7A95D1F760E074E2AC
:102D600084EF90E00E94FB1ECA01B9012FEF30E012
:102D700040E050E00E94A91EA60195010E94FB1EA2
:102D80008FEF90E0821B930B181619061CF4522E3D
:102D9000509402C0522E539460E079E08DE390E0AD
:102DA000A60195010E94FB1E21503040404050403A
:102DB00056954795379527952F5F3F4F4F4F5F4F5C
:102DC00093E0220F331F441F551F9A95D1F760E0FF
:102DD00074E284EF90E00E94FB1ECA01B9012FEF5C
:102DE00030E040E050E00E94A91EA60195010E943B
:102DF000FB1E8FEF90E0821B930B1816190614F43C
:102E0000209501C02F5F2515F0F4E885F98581E054
:102E100090E00A8802C0880F991F0A94E2F7808325
:102E200060E079E08DE390E0A60195010E94FB1E31
:102E30002150304040405040569547953795279552
:102E4000822F232F05C0E885F9851082862D272D36
:102E5000EC81FD812083EE81FF818083EA85FB8503
:102E6000208141E050E0CA010E8402C0880F991F02
:102E70000A94E2F7282B2083EA85FB852081CA018A
:102E80000F8402C0880F991F0A94E2F7282B208331
:102E9000EA85FB858081088802C0440F551F0A948B
:102EA000E2F7842B8083DF91CF911F910F91FF90E8
:102EB000EF90DF90CF90BF90AF909F908F907F90DA
:102EC0006F905F900895DC011296ED91FC9113973D
:102ED000E058FF4F8191919180589F4F208131811F
:102EE000821B930B60E870E00E94E81E0895DC01ED
:102EF0001296ED91FC911397EE57FF4F208131818F
:102F000092918291E058F0408217930719F42FEFC5
:102F10003FEF05C0E20FF31F8081282F30E0C90189
:102F20000895CF93DF93DC011296ED91FC911397F6
:102F3000EF01CE57DF4F48815981E058FF4F808124
:102F40009181E058F0408417950719F42FEF3FEF77
:102F50000CC0E40FF51F2081CA01019660E870E003
:102F60000E94E81E9983888330E0C901DF91CF91E8
:102F70000895DC011296ED91FC911397EE57FF4FE7
:102F800080819181929382930895FC01A085B185FF
:102F900021898C9190E0022E02C0959587950A9424
:102FA000E2F780FFF6CF0484F585E02D6083089575
:102FB0008DE992E0909347048093460482EC93E07D
:102FC000909349048093480485EC90E090934B04DF
:102FD00080934A0484EC90E090934D0480934C04D9
:102FE00080EC90E090934F0480934E0481EC90E04D
:102FF000909351048093500486EC90E09093530496
:103000008093520484E08093540483E080935504B9
:1030100087E08093560485E08093570481E0809395
:10302000580408950F931F93CF93DF938C01EB0106
:1030300009C02196D801ED91FC910190F081E02D1D
:10304000C801099568816623A1F7DF91CF911F918F
:103050000F910895EF92FF920F931F93CF93DF93F9
:103060008C017B01EA010CC0D7016D917D01D80173
:10307000ED91FC910190F081E02DC8010995219717
:10308000209791F7DF91CF911F910F91FF90EF90D3
:103090000895DC01ED91FC910280F381E02D09950A
:1030A00008952F923F924F925F926F927F928F92EC
:1030B0009F92AF92BF92CF92DF92EF92FF920F93C7
:1030C0001F93DF93CF93CDB7DEB7A0970FB6F894D9
:1030D000DEBF0FBECDBF1C016A017B01411551054A
:1030E0006105710549F440E350E060E070E020E0E4
:1030F00030E00E94F81854C0882499245401422ECC
:1031000055246624772401E010E00C0F1D1F080DE4
:10311000191DC701B601A30192010E94FB1EF8010F
:1031200060830894811C911CA11CB11CC701B601CD
:10313000A30192010E94FB1EC901DA016C017D010D
:10314000C114D104E104F104F1F681E0E82EF12C80
:10315000EC0EFD1EE80CF91C3E010894611C711C6C
:10316000D501C4010197A109B1096C01C818D9089A
:1031700014C0F601EE0DFF1D40814A3010F4405D91
:1031800001C0495C50E060E070E0C10120E030E047
:103190000E94F8180894E108F1086E147F0449F7BA
:1031A000A0960FB6F894DEBF0FBECDBFCF91DF91D2
:1031B0001F910F91FF90EF90DF90CF90BF90AF9055
:1031C0009F908F907F906F905F904F903F902F9047
:1031D0000895DC012115310541F4ED91FC91019038
:1031E000F081E02D642F099508950E9451180895EB
:1031F000EF92FF920F931F93CF93DF93EC017A012D
:103200008B012115310541F4E881F9810190F081AC
:10321000E02D642F09951BC02A303105B1F477FFEA
:1032200010C04DE250E060E070E020E030E00E942D
:10323000F81810950095F094E094E11CF11C011D24
:10324000111DCE01B801A7012AE00E945118DF919B
:10325000CF911F910F91FF90EF9008950F931F93BF
:103260008C014DE050E060E070E020E030E00E9432
:10327000F818C8014AE050E060E070E020E030E07B
:103280000E94F8181F910F9108950F931F938C01BE
:103290000E944918C8010E942E191F910F9108958C
:1032A0009F92AF92BF92CF92DF92EF92FF920F93D5
:1032B0001F93CF93DF93EC017A018B01922ECB0108
:1032C000BA0120E030E040E050E00E9499048823F9
:1032D0006CF4CE014DE250E060E070E020E030E0C0
:1032E0000E94F81817FB109517F9109520E030E0B0
:1032F00040E05FE3AA240BC0CA01B90120E030E03E
:1033000040E251E40E945D039B01AC01A394A91427
:1033100098F3C801B7010E9436025B016C010E945C
:103320008D007B018C01CE01B801A7012AE030E0BD
:103330000E94E918992029F0CE016EE871E00E9400
:103340004918C801B7010E94AB059B01AC01C60139
:10335000B5010E94050222C020E030E040E251E4C5
:103360000E9463027B018C010E9457055B016C0186
:10337000CC24B7FCC094DC2CCE01B601A5012AE018
:1033800030E00E94F818C601B5010E94F9049B01C3
:10339000AC01C801B7010E9405029A949920E1F698
:1033A000DF91CF911F910F91FF90EF90DF90CF9021
:1033B000BF90AF909F9008950E94501908950F9369
:1033C0001F938C010E945019C8010E942E191F9151
:1033D0000F910895823000F5E82FF0E0EE0FFF1F07
:1033E000E75AFB4F71836083882319F08130A1F481
:1033F00008C0809169008C7F842B80936900E89AD3
:10340000089580916900440F551F440F551F837F15
:10341000842B80936900E99A08951F920F920FB64A
:103420000F9211242F933F934F935F936F937F934A
:103430008F939F93AF93BF93EF93FF938091590422
:1034400090915A04892B29F0E0915904F0915A0483
:103450000995FF91EF91BF91AF919F918F917F91CE
:103460006F915F914F913F912F910F900FBE0F90F1
:103470001F9018951F920F920FB60F9211242F9341
:103480003F934F935F936F937F938F939F93AF93EC
:10349000BF93EF93FF9380915B0490915C04892B21
:1034A00029F0E0915B04F0915C040995FF91EF91A4
:1034B000BF91AF919F918F917F916F915F914F914C
:1034C0003F912F910F900FBE0F901F9018952F9244
:1034D0003F924F925F926F927F928F929F92AF92A4
:1034E000BF92CF92DF92EF92FF920F931F93DF93E1
:1034F000CF93CDB7DEB73B014C0119012A016D898D
:103500007E898F89988D6A197B098C099D09621AB9
:10351000730A840A950AA40193010E94A91EE21865
:10352000F30804091509A80197010E941D1F2A0D1F
:103530003B1D4C1D5D1DB901CA01CF91DF911F914B
:103540000F91FF90EF90DF90CF90BF90AF909F9042
:103550008F907F906F905F904F903F902F90089545
:103560001F920F920FB60F9211242F933F938F93B8
:103570009F93AF93BF938091610490916204A09157
:103580006304B0916404309165040196A11DB11DDE
:10359000232F2D5F2D3720F02D570196A11DB11D32
:1035A000209365048093610490936204A093630464
:1035B000B093640480915D0490915E04A0915F04D7
:1035C000B09160040196A11DB11D80935D0490939C
:1035D0005E04A0935F04B0936004BF91AF919F918C
:1035E0008F913F912F910F900FBE0F901F901895C4
:1035F0008FB7F89420916104309162044091630484
:10360000509164048FBFB901CA0108959FB7F8941F
:1036100020915D0430915E0440915F0450916004FC
:1036200086B5A89B06C08F3F21F02F5F3F4F4F4FBD
:103630005F4F9FBF542F432F322F2227280F311D5A
:10364000411D511D82E0220F331F441F551F8A95D3
:10365000D1F7B901CA010895EF92FF920F931F931A
:10366000CF93DF937B018C010E94061BEB010EC000
:103670000E94061B6C1B7D0B685E7340C8F30894A8
:10368000E108F10801091109C851DC4FE114F10406
:103690000105110569F7DF91CF911F910F91FF90FF
:1036A000EF900895789484B5826084BD84B581607C
:1036B00084BD85B5826085BD85B5816085BDEEE63A
:1036C000F0E0808181608083E1E8F0E01082808119
:1036D00082608083808181608083E0E8F0E0808187
:1036E00081608083E1EBF0E0808184608083E0EBA7
:1036F000F0E0808181608083EAE7F0E0808184608F
:1037000080838081826080838081816080838081EA
:10371000806880831092C1000895982F8E3008F041
:103720009E509770809198028295880F880F807CB8
:10373000892B80937C0080917A00806480937A004A
:1037400080917A0086FDFCCF20917800409179002D
:10375000942F80E030E0282B392BC9010895482FA1
:1037600050E0CA0186569F4FFC0124914A575F4F93
:10377000FA0184918823C1F0E82FF0E0EE0FFF1FDB
:10378000E859FF4FA591B491662341F49FB7F8948F
:103790008C91209582238C939FBF08959FB7F894B6
:1037A0008C91822B8C939FBF0895482F50E0CA01C3
:1037B00082559F4FFC012491CA0186569F4FFC0100
:1037C00034914A575F4FFA019491992309F440C00C
:1037D000222331F1233021F4809180008F7705C0BE
:1037E000243031F4809180008F7D8093800018C058
:1037F000213019F484B58F7704C0223021F484B5C8
:103800008F7D84BD0DC0263021F48091B0008F776C
:1038100005C0273029F48091B0008F7D8093B000DF
:10382000E92FF0E0EE0FFF1FEE58FF4FA591B49186
:10383000662341F49FB7F8948C91309583238C9341
:103840009FBF08959FB7F8948C91832B8C939FBF53
:103850000895FC01809166048C3090F480838F5F22
:1038600080936604815090E0FC01EE0FFF1FE80F8B
:10387000F91FE959FB4F88EB9BE092838183089500
:103880008FEF80830895FC0120812C3008F041C027
:103890008181992787FD909548E850E0481B590B96
:1038A000440F551F440F551F6417750784F082811C
:1038B000992787FD909548E552E0481B590B440F26
:1038C000551F440F551F641775070CF4AB01425088
:1038D0005040CA01AA2797FDA095BA2F44E0880F4F
:1038E000991FAA1FBB1F4A95D1F733E0B695A7953C
:1038F000979587953A95D1F74FB7F89430E0F9014D
:10390000EE0FFF1FE20FF31FE959FB4F92838183F4
:103910004FBF0895FC0180818F3F19F420E030E013
:1039200016C090E0FC01EE0FFF1FE80FF91FE959E8
:10393000FB4F2181328183E0220F331F8A95E1F70B
:10394000B4E036952795BA95E1F72E5F3F4FC90150
:103950000895AF92BF92CF92DF92EF92FF920F93B2
:103960001F938C010E948A1C00D000D00196AA27C8
:1039700097FDA095BA2FF8016181772767FD7095B3
:1039800028E830E0261B370B220F331F220F331F8E
:10399000442737FD4095542F6281772767FD709546
:1039A000E8E5EE2EE2E0FE2EE61AF70AEE0CFF1C2A
:1039B000EE0CFF1C0027F7FC0095102F64EBA62EE1
:1039C000B12CC12CD12CEDB7FEB7A182B282C3823B
:1039D000D482BC01CD01AA24BB2465010E94671AD0
:1039E0000F900F900F900F90CB011F910F91FF90B0
:1039F000EF90DF90CF90BF90AF900895AF92BF92BD
:103A0000CF92DF92EF92FF920F931F93CF93DF93AA
:103A1000EC019B0182E0603278070CF048C077FF30
:103A200003C020E030E005C0653B710514F024EBD5
:103A300030E000D000D0B901882777FD8095982F1D
:103A40002981332727FD3095B8E8AB2EB12CA21A77
:103A5000B30AAA0CBB1CAA0CBB1CCC24B7FCC09498
:103A6000DC2CEA81FF27E7FDF09528E532E02E1BEC
:103A70003F0B220F331F220F331F442737FD409582
:103A8000542FEDB7FEB7218332834383548320E064
:103A900030E040E050E0E4EBEE2EF12C012D112D52
:103AA0000E94671A9B010F900F900F900F90CE010C
:103AB000B9010E94431CDF91CF911F910F91FF909C
:103AC000EF90DF90CF90BF90AF900895CF92DF92AC
:103AD000EF92FF921F93CF93DF93EC01162F7A01A1
:103AE000690188818C3008F064C0862F61E00E94F3
:103AF000AF1B888190E0FC01EE0FFF1FE80FF91F5C
:103B0000E959FB4F1F738081807C812B808380E289
:103B100092E08E199F0964E070E00E94E81E6983BC
:103B200080E699E08C199D0964E070E00E94E81E2F
:103B30006A83A8818A2F6CE00E94C81E682F90E0DB
:103B4000AC01440F551F480F591F440F551F440F18
:103B5000551F20E030E0C901840F951FFC01EE0FD6
:103B6000FF1FE80FF91FE959FB4F808186FD15C043
:103B70002F5F3F4F2C30310571F724C01092800029
:103B800082E0809381001092850010928400B19AA7
:103B900080916F00826080936F008A2F90E0FC011B
:103BA000EE0FFF1FE80FF91FE959FB4F808180647A
:103BB00080838881DF91CF911F91FF90EF90DF90FC
:103BC000CF9008956623D1F2E8CF40E252E020E69C
:103BD00039E00E94661D08951F920F920FB60F9252
:103BE00011242F933F934F935F936F937F938F9302
:103BF0009F93AF93BF93EF93FF9380918B0487FFC5
:103C000005C010928500109284002BC020918B0477
:103C1000332727FD30958091660490E028173907F7
:103C200004F580918B04992787FD9095FC01EE0F98
:103C3000FF1FE80FF91FE959FB4F808186FF11C074
:103C400080918B04992787FD9095FC01EE0FFF1F53
:103C5000E80FF91FE959FB4F80818F7360E00E94E4
:103C6000D51B80918B048F5F80938B0420918B04F4
:103C7000332727FD30958091660490E02817390797
:103C80000CF04EC080918B048C300CF049C0209118
:103C900084003091850080918B04992787FD909551
:103CA000FC01EE0FFF1FE80FF91FE959FB4F81815F
:103CB0009281280F391F30938900209388008091CA
:103CC0008B04992787FD9095FC01EE0FFF1FE80FED
:103CD000F91FE959FB4F808186FF2AC080918B0430
:103CE000992787FD9095FC01EE0FFF1FE80FF91F44
:103CF000E959FB4F80818F7361E00E94D51B18C08A
:103D000080E49CE905C08091840090918500049630
:103D100090938900809388008FEF80938B0408C074
:103D2000809184009091850084549C4948F3EBCFA6
:103D3000FF91EF91BF91AF919F918F917F916F9183
:103D40005F914F913F912F910F900FBE0F901F9059
:103D50001895629FD001739FF001829FE00DF11DC5
:103D6000649FE00DF11D929FF00D839FF00D749FF5
:103D7000F00D659FF00D9927729FB00DE11DF91FA1
:103D8000639FB00DE11DF91FBD01CF0111240895FE
:103D9000991B79E004C0991F961708F0961B881F9D
:103DA0007A95C9F780950895AA1BBB1B51E107C0FE
:103DB000AA1FBB1FA617B70710F0A61BB70B881FBB
:103DC000991F5A95A9F780959095BC01CD0108954A
:103DD00097FB092E07260AD077FD04D0E5DF06D031
:103DE00000201AF4709561957F4F0895F6F790952D
:103DF00081959F4F0895A1E21A2EAA1BBB1BFD01BE
:103E00000DC0AA1FBB1FEE1FFF1FA217B307E407B9
:103E1000F50720F0A21BB30BE40BF50B661F771F11
:103E2000881F991F1A9469F76095709580959095F1
:103E30009B01AC01BD01CF01089597FB092E05261A
:103E40000ED057FD04D0D7DF0AD0001C38F45095AF
:103E50004095309521953F4F4F4F5F4F0895F6F7AE
:103E600090958095709561957F4F8F4F9F4F0895E6
:103E70002F923F924F925F926F927F928F929F927A
:103E8000AF92BF92CF92DF92EF92FF920F931F9368
:103E9000CF93DF93CDB7DEB7CA1BDB0B0FB6F89419
:103EA000DEBF0FBECDBF09942A88398848885F8459
:103EB0006E847D848C849B84AA84B984C884DF80CA
:103EC000EE80FD800C811B81AA81B981CE0FD11DAE
:103ED0000FB6F894DEBF0FBECDBFED010895EE0F13
:103EE000FF1F0590F491E02D0994FB01519155239A
:103EF000A9F0BF01DC014D9145174111E1F759F4DB
:103F0000CD010190002049F04D9140154111C9F3B8
:103F1000FB014111EFCF81E090E001970895F89403
:023F2000FFCFD1
:103F220073730073445256007353455200735049E1
:103F3200440073434F4E56006750494448006C6535
:103F42006674205049443A205B002C20005D2072A8
:103F520069676874205049443A205B005D0D0A008D
:103F620067454E43006747595200674254590067FC
:103F720053455200674C5350006752535000674CF0
:103F82004D530067524D5300674241540020766FF3
:103F92006C74732C200020616D70730D0A00494E01
:103FA20056414C494420434F4D4D414E44002E0052
:103FB20000000000000000000001020203030303EE
:103FC20004040404040404040505050505050505A7
:103FD2000505050505050505060606060606060687
:103FE200060606060606060606060606060606066F
:103FF2000606060606060606070707070707070757
:10400200070707070707070707070707070707073E
:10401200070707070707070707070707070707072E
:10402200070707070707070707070707070707071E
:104032000707070707070707080808080808080806
:1040420008080808080808080808080808080808EE
:1040520008080808080808080808080808080808DE
:1040620008080808080808080808080808080808CE
:1040720008080808080808080808080808080808BE
:1040820008080808080808080808080808080808AE
:10409200080808080808080808080808080808089E
:1040A200080808080808080808080808080808088E
:1040B20008080808080808080100000000C51712CF
:0C40C200182A1863179117B91777170018
:00000001FF
