:100000000C9463000C94A6180C94D3180C940E0F47
:100010000C94320F0C94560F0C948B000C948B00A4
:100020000C948B000C94650D0C948B000C94851C27
:100030000C948B000C948B000C948B000C948B0014
:100040000C9449190C948B000C94A9140C948B00FB
:100050000C948B000C948B000C948B000C948B00F4
:100060000C948B000C948B000000000024002700EF
:100070002A0000000000250028002B0000000000DE
:1000800023002600290004040404040404040202DA
:100090000202020203030303030301020408102007
:1000A0004080010204081020010204081020000012
:1000B0000007000201000003040600000000000029
:1000C000000013104C1611241FBECFEFD8E0DEBF86
:1000D000CDBF12E0A0E0B1E0E4E5FCE302C0059092
:1000E0000D92AC39B107D9F714E0ACE9B2E001C028
:1000F0001D92AF34B107E1F710E0C6ECD0E004C0C8
:100100002297FE010E940A1EC23CD107C9F70E9435
:1001100017110C94281E0C940000EF92FF920F937D
:100120001F937B018C0120E030E040E05FE40E94FF
:10013000690488238CF0C801B70120E030E040E07A
:100140005FE40E9405020E9457059B01AC0120500C
:1001500030404040504806C0C801B7010E945705D2
:100160009B01AC01B901CA011F910F91FF90EF9063
:100170000895A0E0B0E0EFEBF0E00C94D11DDC01BD
:100180002B01FA019C91923008F439C1EB0188816E
:10019000823008F433C1943069F4843009F02FC1FF
:1001A00011969C9111978981981709F428C1A8E6A6
:1001B000B1E025C1843009F421C18230A9F4923024
:1001C00009F01DC19A01AD0188E0EA010990AE0174
:1001D000E90109929E018150C1F7E20189811196DE
:1001E0009C918923818308C1923009F407C112963A
:1001F0002D903C901397EB018A819B811496AD90D2
:10020000BD90CD90DC901797EC80FD800E811F8112
:100210009101281B390BB90137FF04C066277727E6
:10022000621B730B603271050CF061C0121613066D
:100230006CF537014801062E04C096948794779494
:1002400067940A94D2F721E030E040E050E004C027
:10025000220F331F441F551F6A95D2F7215030409B
:10026000404050402E213F2140235123211531058C
:100270004105510521F021E030E040E050E07901F6
:100280008A01E628F728082919293CC0232BD1F137
:10029000260E371E35014601062E04C0969487941B
:1002A000779467940A94D2F721E030E040E050E080
:1002B00004C0220F331F441F551F6A95D2F72150E7
:1002C0003040404050402A213B214C215D212115E6
:1002D00031054105510521F021E030E040E050E0DA
:1002E00059016A01A628B728C828D9280BC0821549
:1002F00093052CF01C01AA24BB24650103C0EE2445
:10030000FF24870111969C91D20111968C91981728
:1003100009F445C0992339F0A80197012A193B092E
:100320004C095D0906C0A60195012E193F09400B35
:10033000510B57FD08C011823382228224833583FA
:10034000468357831DC081E08183338222828827C0
:100350009927DC01821B930BA40BB50B8483958337
:10036000A683B7830DC0220F331F441F551F24835C
:100370003583468357838281938101979383828358
:100380002481358146815781DA01C9010197A1098C
:10039000B1098F5F9F4FAF4FBF4328F30BC09183CD
:1003A00033822282EA0CFB1C0C1D1D1DE482F582A7
:1003B0000683178383E080832481358146815781BA
:1003C00057FF1AC0C901AA2797FDA095BA2F8170BF
:1003D0009070A070B0705695479537952795822BF1
:1003E000932BA42BB52B84839583A683B78382811B
:1003F0009381019693838283DF0101C0D201CD01F5
:10040000CDB7DEB7E2E10C94ED1DA0E2B0E0EBE089
:10041000F2E00C94DD1D69837A838B839C832D83AA
:100420003E834F835887E9E0EE2EF12CEC0EFD1E43
:10043000CE010196B7010E9449078E010F5E1F4F42
:10044000CE010596B8010E9449078A8991E0892763
:100450008A8BC701B801AE01475E5F4F0E94B900A9
:100460000E947306A096E6E00C94F91DA0E2B0E0AD
:10047000ECE3F2E00C94DD1D69837A838B839C832B
:100480002D833E834F835887F9E0EF2EF12CEC0E3D
:10049000FD1ECE010196B7010E9449078E010F5E35
:1004A0001F4FCE010596B8010E944907C701B80148
:1004B000AE01475E5F4F0E94B9000E947306A0968E
:1004C000E6E00C94F91DA0E2B0E0E9E6F2E00C945D
:1004D000D11D69837A838B839C832D833E834F83D5
:1004E0005887CE010196BE01675F7F4F0E94490782
:1004F000CE010596BE016F5E7F4F0E944907998528
:10050000923088F089898230C8F0943019F48230B2
:1005100051F404C0843029F4923081F488E691E0EB
:10052000C6C0923049F420E09A858A89981321E068
:100530002A87CE010996BBC0823049F420E09A8513
:100540008A89981321E02A8BCE014196B0C02D8470
:100550003E844F8458886D887E888F88988CEE24DE
:10056000FF248701AA24BB24650140E050E060E03D
:1005700070E0E0E0F0E0C10181709070892BE9F05B
:10058000E60CF71C081D191D9A01AB012A0D3B1D35
:100590004C1D5D1D80E090E0A0E0B0E0E614F704A3
:1005A0000805190520F481E090E0A0E0B0E0BA0170
:1005B000A901480F591F6A1F7B1FAA0CBB1CCC1C2A
:1005C000DD1C97FE08C081E090E0A0E0B0E0A82A22
:1005D000B92ACA2ADB2A3196E032F10549F0660CC5
:1005E000771C881C991C5694479437942794C3CF42
:1005F000FA85EA892B893C898B859C85280F391FD0
:100600002E5F3F4F17C0CA0181709070892B61F037
:1006100016950795F794E79480E090E0A0E0B0E8A5
:10062000E82AF92A0A2B1B2B76956795579547954B
:100630002F5F3F4F77FDE7CF0CC0440F551F661F5C
:10064000771F17FD4160EE0CFF1C001F111F21508A
:100650003040403090E0590790E0690790E4790716
:1006600060F32B8F3C8FDB01CA018F779070A070F5
:10067000B07080349105A105B10561F447FD0AC051
:10068000E114F1040105110529F0405C5F4F6F4F43
:100690007F4F40781A8EFE1711F081E08A8F4D8FC0
:1006A0005E8F6F8F78A383E0898FCE0149960E9479
:1006B0007306A096E2E10C94ED1DA8E1B0E0E3E63C
:1006C000F3E00C94D91D69837A838B839C832D83FB
:1006D0003E834F835887B9E0EB2EF12CEC0EFD1EC4
:1006E000CE010196B7010E9449078E010F5E1F4F90
:1006F000CE010596B8010E9449072985223008F4E9
:100700007EC03989323010F4B8017CC08A859A895C
:1007100089278A87243011F0223031F4231709F019
:100720006EC068E671E06EC0343039F41D861E86F6
:100730001F86188A1C861B8604C0323021F484E090
:100740008987B7015FC02B853C858B899C89281BD5
:10075000390B3C872B87ED84FE840F851889AD8883
:10076000BE88CF88D88CEA14FB040C051D0540F424
:10077000EE0CFF1C001F111F215030403C872B87BF
:1007800020E030E040E050E080E090E0A0E0B0E425
:1007900060E070E0EA14FB040C051D0540F0282B16
:1007A000392B4A2B5B2BEA18FB080C091D09B6955F
:1007B000A79597958795EE0CFF1C001F111F6F5F83
:1007C0007F4F6F31710531F7DA01C9018F77907072
:1007D000A070B07080349105A105B10561F427FDCA
:1007E0000AC0E114F1040105110529F0205C3F4F16
:1007F0004F4F5F4F20782D873E874F87588BBE0124
:10080000675F7F4FCB010E9473066896EAE00C9405
:10081000F51DA8E1B0E0EFE0F4E00C94DD1D698384
:100820007A838B839C832D833E834F83588789E013
:10083000E82EF12CEC0EFD1ECE010196B7010E94B0
:1008400049078E010F5E1F4FCE010596B8010E9429
:1008500049078985823040F08989823028F0C701B4
:10086000B8010E94C10701C081E06896E6E00C94DF
:10087000F91DA8E1B0E0EFE3F4E00C94DD1D69831D
:100880007A838B839C832D833E834F83588789E0B3
:10089000E82EF12CEC0EFD1ECE010196B7010E9450
:1008A00049078E010F5E1F4FCE010596B8010E94C9
:1008B00049078985823040F08989823028F0C70154
:1008C000B8010E94C10701C08FEF6896E6E00C9462
:1008D000F91DA8E1B0E0EFE6F4E00C94DD1D6983BA
:1008E0007A838B839C832D833E834F83588789E053
:1008F000E82EF12CEC0EFD1ECE010196B7010E94F0
:1009000049078E010F5E1F4FCE010596B8010E9468
:1009100049078985823040F08989823028F0C701F3
:10092000B8010E94C10701C08FEF6896E6E00C9401
:10093000F91DA8E1B0E0EFE9F4E00C94DD1D698356
:100940007A838B839C832D833E834F83588789E0F2
:10095000E82EF12CEC0EFD1ECE010196B7010E948F
:1009600049078E010F5E1F4FCE010596B8010E9408
:1009700049078985823040F08989823028F0C70193
:10098000B8010E94C10701C081E06896E6E00C94BE
:10099000F91DA8E1B0E0EFECF4E00C94DD1D6983F3
:1009A0007A838B839C832D833E834F83588789E092
:1009B000E82EF12CEC0EFD1ECE010196B7010E942F
:1009C00049078E010F5E1F4FCE010596B8010E94A8
:1009D00049078985823040F08989823028F0C70133
:1009E000B8010E94C10701C081E06896E6E00C945E
:1009F000F91DA8E0B0E0EFEFF4E00C94DA1D9B01E4
:100A0000AC0183E08983DA01C9018827B7FD8395AA
:100A10009927AA27BB27B82E211531054105510575
:100A200019F482E089833AC08823A9F0203080E05D
:100A3000380780E0480780E8580729F460E070E054
:100A400080E09FEC30C0EE24FF248701E21AF30A15
:100A5000040B150B02C079018A018EE1C82ED12C3E
:100A6000DC82CB82ED82FE820F831887C801B7013A
:100A70000E94240601971816190684F4082E04C053
:100A8000EE0CFF1C001F111F0A94D2F7ED82FE82AC
:100A90000F831887C81AD90ADC82CB82BA82CE01AA
:100AA00001960E9473062896E9E00C94F61DACE0CE
:100AB000B0E0EDE5F5E00C94E11D69837A838B836A
:100AC0009C83CE010196BE016B5F7F4F0E94490758
:100AD0008D81823061F1823050F1843021F48E8139
:100AE000882351F12EC02F81388537FD20C06E81BB
:100AF0002F3131051CF06623F9F023C08EE190E020
:100B0000821B930B29853A854B855C8504C05695DD
:100B10004795379527958A95D2F76623B1F050957A
:100B20004095309521953F4F4F4F5F4F0EC020E0CD
:100B300030E040E050E009C02FEF3FEF4FEF5FE7BC
:100B400004C020E030E040E050E8B901CA012C9632
:100B5000E2E00C94FD1DA8E0B0E0E1EBF5E00C94C0
:100B6000D91D7B018C01611571058105910519F471
:100B700082E0898360C083E089838EE1C82ED12C16
:100B8000DC82CB82ED82FE820F831887C801B70119
:100B90000E942406FC013197F7FF3BC02227332730
:100BA0002E1B3F0B57016801022E04C0D694C79438
:100BB000B794A7940A94D2F740E050E060E070E068
:100BC00081E090E0A0E0B0E004C0880F991FAA1F68
:100BD000BB1F2A95D2F70197A109B1098E219F2148
:100BE000A023B1230097A105B10521F041E050E019
:100BF00060E070E04A295B296C297D294D835E8382
:100C00006F8378878EE190E08E1B9F0B9C838B8394
:100C100012C0309781F00E2E04C0EE0CFF1C001F96
:100C2000111F0A94D2F7ED82FE820F831887CE1A25
:100C3000DF0ADC82CB821A82CE0101960E94730603
:100C40002896EAE00C94F51DEF92FF920F931F9304
:100C50007B018C0180E0E81680E0F80681E008075F
:100C600080E0180788F48FEFE816F10401051105FC
:100C700031F028F088E090E0A0E0B0E017C080E01C
:100C800090E0A0E0B0E012C080E0E81680E0F80656
:100C900080E0080781E0180728F088E190E0A0E0F4
:100CA000B0E004C080E190E0A0E0B0E020E230E0FD
:100CB00040E050E0281B390B4A0B5B0B04C0169533
:100CC0000795F794E7948A95D2F7F701E059FE4F1C
:100CD0008081281B310941095109C9011F910F91D8
:100CE000FF90EF900895DF92EF92FF920F931F9382
:100CF000FC01E480F58006811781D18080818230FB
:100D000058F480E090E0A0E1B0E0E82AF92A0A2B4C
:100D10001B2BEFEFF0E0A6C0843009F49EC08230B8
:100D200019F4E0E0F0E09BC0E114F10401051105C5
:100D300019F4E0E0F0E096C0628173819FEF6238C1
:100D400079070CF05BC022E83FEF261B370B2A31F6
:100D500031052CF020E030E040E050E02AC0B8013E
:100D6000A701022E04C076956795579547950A947A
:100D7000D2F781E090E0A0E0B0E004C0880F991FB6
:100D8000AA1FBB1F2A95D2F70197A109B1098E218D
:100D90009F21A023B1230097A105B10521F081E097
:100DA00090E0A0E0B0E09A01AB01282B392B4A2B50
:100DB0005B2BDA01C9018F779070A070B07080341E
:100DC0009105A105B10539F427FF09C0205C3F4F0B
:100DD0004F4F5F4F04C0215C3F4F4F4F5F4FE0E0EC
:100DE000F0E02030A0E03A07A0E04A07A0E45A076C
:100DF00010F0E1E0F0E079018A0127C06038710568
:100E000064F5FB01E158FF4FD801C7018F7790705F
:100E1000A070B07080349105A105B10539F4E7FEEA
:100E20000DC080E490E0A0E0B0E004C08FE390E06B
:100E3000A0E0B0E0E80EF91E0A1F1B1F17FF05C057
:100E400016950795F794E794319687E016950795E0
:100E5000F794E7948A95D1F705C0EFEFF0E0EE2420
:100E6000FF2487016E2F679566276795902F9F77E0
:100E7000D794DD24D7948E2F8695492F462B582F53
:100E80005D29B701CA011F910F91FF90EF90DF908C
:100E90000895FC01DB01408151812281622F6F772F
:100EA00070E0221F2227221F9381892F880F822B17
:100EB000282F30E0991F9927991F11969C9311971D
:100EC00021153105A9F5411551056105710511F48B
:100ED00082E037C082E89FEF13969C938E9312971F
:100EE0009A01AB0167E0220F331F441F551F6A951B
:100EF000D1F783E08C930DC0220F331F441F551F81
:100F000012968D919C911397019713969C938E93B3
:100F10001297203080E0380780E0480780E45807C7
:100F200058F314962D933D934D935C931797089522
:100F30002F3F310579F4411551056105710519F40B
:100F400084E08C93089564FF03C081E08C9312C009
:100F50001C9210C02F57304013963C932E9312973B
:100F600083E08C9387E0440F551F661F771F8A9597
:100F7000D1F7706414964D935D936D937C9317979E
:100F800008951F93DC01FB019C91923008F447C047
:100F90008081823008F443C0943051F411961C9142
:100FA000843099F58181682F70E0611B71093FC021
:100FB000843021F0923031F48230B9F1818188237C
:100FC00089F12DC011961C9111978230F1F0818129
:100FD0001817D9F412962D913C9113978281938121
:100FE0008217930794F028173907BCF014968D9157
:100FF0009D910D90BC91A02D248135814681578112
:10100000281739074A075B0718F4112341F00AC073
:1010100082179307A407B50740F4112319F061E084
:1010200070E005C06FEF7FEF02C060E070E0CB01C1
:101030001F910895AF92BF92CF92DF92EF92FF92ED
:101040000F931F93DF93CF930F92CDB7DEB78C0131
:10105000962F603108F09FE0F80185819817D9F04C
:101060007801AA24BB24C92EDD24B6010A2C02C0B3
:10107000759567950A94E2F76170F70181917F0198
:1010800099830E946E1A0894A11CB11C9981F4E006
:10109000AF16B10451F7F80195830F90CF91DF910E
:1010A0001F910F91FF90EF90DF90CF90BF90AF9086
:1010B00008950F931F938C010E941A08F8018481F0
:1010C0000E94261A1F910F910895EF920F931F937C
:1010D000CF93DF93EC01688349832A830B83EC82EF
:1010E00000E010E0FE01E00FF11F808161E00E944E
:1010F000481A0F5F1F4F04301105A1F78C8160E083
:101100000E94481A8C8160E00E946E1ACE0160E055
:101110000E941A08DF91CF911F910F91EF900895CF
:101120008F929F92AF92BF92CF92DF92EF92FF92F7
:101130000F931F93DF93CF93CDB7DEB7FC0173837B
:101140006283558344833783268311870087B7865C
:10115000A686F58AE48AD78AC68A938682868F8590
:101160009889958784878B899C89918B808B8989C5
:101170009A89938B828B14A281E081831082108ED6
:10118000118E128E138ECF91DF911F910F91FF90D0
:10119000EF90DF90CF90BF90AF909F908F90089589
:1011A000AF92BF92CF92DF92EF92FF920F931F9375
:1011B0007A018B010E9491195B016C01AE0CBF1C7E
:1011C000C01ED11E0E9491196A157B058C059D05D4
:1011D000A0F489E094E00E94D715892B71F4F2CF36
:1011E00089E094E00E9405161F910F91FF90EF9007
:1011F000DF90CF90BF90AF90089589E094E00E9477
:10120000D715892B69F780E0EFCF2F923F924F924D
:101210005F926F927F928F929F92AF92BF92CF9286
:10122000DF92EF92FF920F931F93DF93CF9300D043
:1012300000D0CDB7DEB73C0109E014E0C80160E0A2
:1012400071E00E94BD16D3011696ED91FC9117979F
:10125000608171818281938120E030E040E251E43D
:101260000E9463020E9457057A836983D30118960E
:10127000ED91FC911997608171818281938120E0C9
:1012800030E040E251E40E9463020E9457051B01D6
:10129000F301868597850E948B0F20E030E048ECB3
:1012A00052E40E9463020E9457057C836B83D30142
:1012B0001E968D919C911F970E947A0F20E030E03E
:1012C00048EC52E40E9463020E9457056B017C01C6
:1012D000D3011296ED91FC91139760817181828107
:1012E000938120E030E040E251E40E9463020E94DA
:1012F00057054B015C01D3011496ED91FC911597B4
:10130000608171818281938120E030E040E251E48C
:101310000E9463020E9457052B013C01E981FA817A
:101320006F2F772767FD7A95C80140E050E00E9453
:101330006C17C801698140E050E00E946C17632D72
:10134000772767FD7A95C80140E050E00E946C174E
:10135000C801622D40E050E00E946C178B819C8197
:10136000692F772767FD7A95C80140E050E00E9419
:101370006C17C8016B8140E050E00E946C176D2D26
:10138000772767FD7A95C80140E050E00E946C170E
:10139000C8016C2D40E050E00E946C17692D772742
:1013A00067FD7A95C80140E050E00E946C17C801C3
:1013B000682D40E050E00E946C17652D772767FD8F
:1013C0007A95C80140E050E00E946C17C801642D76
:1013D00040E050E00E946C17C80162E071E00E949A
:1013E000BD160F900F900F900F90CF91DF911F912E
:1013F0000F91FF90EF90DF90CF90BF90AF909F90B4
:101400008F907F906F905F904F903F902F900895B6
:101410008F929F92AF92BF92CF92DF92EF92FF9204
:101420000F931F93DF93CF9300D000D0CDB7DEB7DB
:101430004C018C01045E1F4FC80164E071E00E9402
:101440000E1E009709F44FC08E010F5F1F4F25E05D
:10145000E22EF12CEC0EFD1EC4014AEF50E060E0DC
:1014600070E00E94D008D8018D938D01AE15BF05A4
:1014700099F7F40102811381798160E02A8130E0DB
:10148000622B732B882777FD8095982F0E94F90493
:101490002DEC3CEC4CEC5DE30E946302D8016D93B3
:1014A0007D938D939C931397F401048115817B8127
:1014B00060E02C8130E0622B732B882777FD8095CC
:1014C000982F0E94F9042DEC3CEC4CEC5DE30E945B
:1014D0006302D8016D937D938D939C93139781E064
:1014E000F40181834EC2C80169E071E00E940E1EC2
:1014F000009709F1D4011696ED91FC911797608140
:1015000071818281938120E030E040E251E40E94C9
:1015100063020E9457057B018C01D4011896ED915E
:10152000FC911997608171818281938120E030E084
:1015300040E251E428C0C8016EE071E00E940E1E36
:10154000009709F44BC0D4011A96ED91FC911B97BA
:10155000608171818281938120E030E048EC52E427
:101560000E9463020E9457057B018C01D4011C96E6
:10157000ED91FC911D97608171818281938120E0C2
:1015800030E048EC52E40E9463020E9457055B0180
:101590006C0189E094E060E071E00E94BD166F2D5F
:1015A000772767FD7A9589E094E040E050E00E945B
:1015B0006C1789E094E06E2D40E050E00E946C17BB
:1015C0006B2D772767FD7A9589E094E040E050E045
:1015D0000E946C1789E094E06A2D56C1C80163E14E
:1015E00071E00E940E1E009709F445C0F401868543
:1015F00097850E948B0F20E030E048EC52E40E9477
:1016000063020E9457055B016C01D4011E968D9107
:101610009C911F970E947A0F20E030E048EC52E442
:101620000E9463020E9457057B018C0189E094E0CF
:1016300060E071E00E94BD166B2D772767FD7A95FB
:1016400089E094E040E050E00E946C1789E094E06B
:101650006A2D40E050E00E946C176F2D772767FDE0
:101660007A9589E094E040E050E00E946C1789E0B0
:1016700094E06E2D09C1C80168E171E00E940E1E60
:10168000009729F1F401828993890E94421B182F47
:10169000D40150968D919C9151970E94421B082F26
:1016A00089E094E060E071E00E94BD1689E094E07A
:1016B000612F70E040E050E00E94B41789E094E0B0
:1016C000602F70E040E050E00E94B417E1C0C80114
:1016D0006DE171E00E940E1E009739F1C40144E6ED
:1016E00050E060E070E00E94D008182FC40144E68A
:1016F00050E060E070E00E94D008082FF401828979
:101700009389153B08F014EB612F70E00E94971B42
:10171000D40150968D919C915197602F053B08F014
:1017200064EB70E00E94971B2CC1C80162E271E07B
:101730000E940E1E009721F0C4010E94050921C1DC
:10174000C80167E271E00E940E1E009709F4A7C06D
:1017500089E094E060E071E00E94BD16D4015496E7
:10176000ED91FC9155972081318142815381252F44
:10177000552727FD5095352F452F89E094E0622F9E
:1017800040E050E00E946C17D4015496ED91FC911A
:10179000559720813181428153819A01552737FD28
:1017A0005095452F89E094E0622F40E050E00E9480
:1017B0006C17D4015496ED91FC915597208131819D
:1017C00042815381232F342F452F552747FD5A95AA
:1017D00089E094E0622F40E050E00E946C17D40151
:1017E0005496ED91FC91559789E094E0608140E03A
:1017F00050E00E946C17D4015696ED91FC915797DA
:101800002081318142815381252F552727FD509515
:10181000352F452F89E094E0622F40E050E00E9490
:101820006C17D4015696ED91FC9157972081318128
:10183000428153819A01552737FD5095452F89E004
:1018400094E0622F40E050E00E946C17D40156965D
:10185000ED91FC9157972081318142815381232F53
:10186000342F452F552747FD5A9589E094E0622F84
:1018700040E050E00E946C17D4015696ED91FC9127
:10188000579789E094E0608140E050E00E946C1737
:1018900089E094E062E071E00E94BD1672C0C80168
:1018A0006CE271E00E940E1E009731F0D401129696
:1018B000ED91FC91139726C0C80161E371E00E948D
:1018C0000E1E009731F0D4011496ED91FC911597FE
:1018D00019C0C80166E371E00E940E1E009731F046
:1018E000D4011696ED91FC9117970CC0C8016BE3DB
:1018F00071E00E940E1E009781F0D4011896ED91C0
:10190000FC911997408151816281738189E094E053
:101910002AE030E00E94781834C0C80160E471E029
:101920000E940E1E009739F1F401868597850E946A
:101930008B0FAB01BC0189E094E02AE030E00E940B
:10194000751889E094E065E471E00E94BD16D40149
:101950001E968D919C911F970E947A0FAB01BC013E
:1019600089E094E02AE030E00E94751889E094E074
:101970006EE471E091CF89E094E066E571E00E9449
:10198000DE17F40114A280E090E2948F8F5F31960D
:101990008830D9F70F900F900F900F90CF91DF9173
:1019A0001F910F91FF90EF90DF90CF90BF90AF907D
:1019B0009F908F9008951F93CF93DF93EC0110E2D7
:1019C00029C00E949119688F798F8A8F9B8F89E037
:1019D00094E00E9405168A3349F41CA2FE0180E0BF
:1019E000148F8F5F31968830D9F714C0813219F087
:1019F0009CA1973048F08CA1FE01E80FF11D148ED8
:101A0000CE010E94080A06C0FE01E90FF11D848F75
:101A10009F5F9CA389E094E00E94D715892B89F6EB
:101A20000E949119E0E0288D398D4A8D5B8D621BF3
:101A3000730B840B950B695E73408040904008F4F3
:101A4000E1E0E883DF91CF911F9108958091A20298
:101A50009091A302A091A402B091A5020196A11DAC
:101A6000B11D8093A2029093A302A093A402B0930D
:101A7000A5022091A2023091A3024091A4025091AC
:101A8000A50280919C0290919D02A0919E02B0912E
:101A90009F02281739074A075B07B0F08091A6021A
:101AA000882391F481E08093A6021092A202109202
:101AB000A3021092A4021092A502E091A002F0915C
:101AC000A10209951092A60208951F920F920FB6D7
:101AD0000F9211242F933F934F935F936F937F93B4
:101AE0008F939F93AF93BF93EF93FF938091A70240
:101AF0009091A8028093B2000E94260DFF91EF9171
:101B0000BF91AF919F918F917F916F915F914F9115
:101B10003F912F910F900FBE0F901F901895EF924D
:101B2000FF920F931F93FC0143832483E186F28687
:101B30000387148781E08283718360831F910F91F3
:101B4000FF90EF9008950F931F93CF93DF93EC01D5
:101B50008A81882361F0888199816B810E9459086C
:101B60008C01888199816C810E94590807C08B8102
:101B70000E94261A8C018C810E94261A081B190BC0
:101B8000B801882777FD8095982F0E94F904298550
:101B90003A854B855C850E9463022D813E814F8191
:101BA00058850E940502DF91CF911F910F910895F2
:101BB000AF92BF92CF92DF92EF92FF920F931F935B
:101BC000CF93DF93EC017B01442309F056C080E002
:101BD00090E0A0E0B0E08D839E83AF83B887CC24F3
:101BE000DD243AC08A81882361F0888199816B81E4
:101BF0000E9459088C01888199816C810E94590842
:101C000007C08B810E94261A8C018C810E94261AA3
:101C1000081B190BB801882777FD8095982F0E9423
:101C2000F90429853A854B855C850E9463029B01F6
:101C3000AC016D817E818F8198850E9436026D8313
:101C40007E838F83988761E070E080E090E00E945F
:101C5000C5190894C11CD11CCE14DF0418F2B701B9
:101C600080E090E00E94AB059B01AC016D817E811C
:101C70008F8198850E945D034FC080E090E00E94B4
:101C8000AB055B016C010894E108F108B70180E045
:101C900090E00E94AB05A60195010E945D039B01A7
:101CA000AC016D817E818F8198850E9463026D8376
:101CB0007E838F8398878A81882361F088819981C8
:101CC0006B810E9459088C01888199816C810E94E6
:101CD000590807C08B810E94261A8C018C810E94B2
:101CE000261A081B190BB801882777FD8095982FB5
:101CF0000E94F90429853A854B855C850E94630220
:101D0000A60195010E945D039B01AC016D817E815E
:101D10008F8198850E9436026D837E838F8398879A
:101D2000DF91CF911F910F91FF90EF90DF90CF90B7
:101D3000BF90AF9008950F931F93CF93DF93FC0153
:101D40008189A481B5819381082F027081FF05C02C
:101D50008C91892309F454C004C08C91892309F023
:101D60004FC08185928520E001972FEF8F3F92072A
:101D7000D9F7C385D485A481B581738160E031E052
:101D800040E050E010E0CE01212F01972FEF8F3F70
:101D90009207D9F78C91872311F0632B03C0832F0F
:101DA00080956823330F4F5F5F4F4830510559F7D7
:101DB0008585968520E001972FEF8F3F9207D9F711
:101DC000011160958091EB022091EC0290E0019668
:101DD0008F73907030E08217930779F0E091EB02F7
:101DE000F0E0E555FD4F60838091EB0290E00196B5
:101DF0008F7390708093EB0203C081898160818B27
:101E0000DF91CF911F910F9108958091A902909138
:101E1000AA02009711F00E949B0E08951F920F9244
:101E20000FB60F9211242F933F934F935F936F93AD
:101E30007F938F939F93AF93BF93EF93FF930E94F2
:101E4000050FFF91EF91BF91AF919F918F917F917E
:101E50006F915F914F913F912F910F900FBE0F9017
:101E60001F9018951F920F920FB60F9211242F9367
:101E70003F934F935F936F937F938F939F93AF9312
:101E8000BF93EF93FF930E94050FFF91EF91BF91D6
:101E9000AF919F918F917F916F915F914F913F9102
:101EA0002F910F900FBE0F901F9018951F920F92B9
:101EB0000FB60F9211242F933F934F935F936F931D
:101EC0007F938F939F93AF93BF93EF93FF930E9462
:101ED000050FFF91EF91BF91AF919F918F917F91EE
:101EE0006F915F914F913F912F910F900FBE0F9087
:101EF0001F901895FC0181810E94261AA0E0B0E095
:101F0000BC01CD010E94AB0524E739EB48E05EE35C
:101F10000E9463020895FC0180810E94261AA0E0BD
:101F2000B0E0BC01CD010E94AB0520E030E04DE9FE
:101F30005DE30E94630208950F931F938C01862F27
:101F4000F8016083418360E00E94481AF8018181B2
:101F500060E00E94481AF801808160E00E946E1AD9
:101F6000F801818160E00E946E1A1F910F9108951F
:101F700089B190E024E0969587952A95E1F78170E4
:101F80008093310320912103309122034091230358
:101F90005091240380913103882329F481E090E05B
:101FA000A0E0B0E004C08FEF9FEFAFEFBFEF820F74
:101FB000931FA41FB51F8093210390932203A09326
:101FC0002303B0932403089584B58F7D84BD89B124
:101FD00090E035E0969587953A95E1F7817080938A
:101FE000320320912503309126034091270350911D
:101FF000280380913203882329F481E090E0A0E057
:10200000B0E004C08FEF9FEFAFEFBFEF820F931FE1
:10201000A41FB51F8093250390932603A093270345
:10202000B093280308958F929F92AF92BF92CF9260
:10203000DF92EF92FF920F931F9307E3C02E03E00E
:10204000D02EC6016AE04BE02CE00DE0EE240E94A9
:1020500065081DE3A12E13E0B12EC50161E042E049
:102060000E949C0F8FE393E0B6014EE02FE00F2E0D
:10207000F8E5EF2EF0EAFF2EFBE00F2FFDE31F2F18
:10208000F02D0E948F0DB4E5EB2EB3E0FB2EC701BF
:102090000E94C21A07E513E0C8010E94C21A8AE52D
:1020A00093E00E94C21A8DE593E00E94C21A00D00C
:1020B00000D000D0EDB7FEB731968CE493E0ADB719
:1020C000BEB712969C938E931197F382E28215838A
:1020D000048380E693E069EF72E04DEF52E021E087
:1020E00033E005E013E0A1E2EA2EA3E0FA2EF5E2E8
:1020F000CF2EF3E0DF2EE0E58E2EE3E09E2E0E9451
:1021000090088DB79EB706960FB6F8949EBF0FBE87
:102110008DBF1F910F91FF90EF90DF90CF90BF90F8
:10212000AF909F908F9008959F92AF92BF92CF9261
:10213000DF92EF92FF920F931F93962E803829F42F
:1021400021E83FEF4FEF5FEF06C0282F332727FD31
:102150003095432F532F00D000D088EE93E0A0E0BD
:10216000B0E0EDB7FEB781839283A383B483CA0145
:10217000B90121E83FEF4FEF5FEFBFE7EB2EF12C06
:10218000012D112DA0EDAA2EA7E0BA2EC12CD12C25
:102190000E9400199B01AC010F900F900F900F90BF
:1021A0008AE593E0B9010E94DC1AF0E89F1629F451
:1021B00021E83FEF4FEF5FEF06C0292D332727FDC2
:1021C0003095432F532F00D000D080ED97E0A0E052
:1021D000B0E0EDB7FEB781839283A383B483CA01D5
:1021E000B90121E83FEF4FEF5FEFFFE7EF2EF12C52
:1021F000012D112DE8EEAE2EE3E0BE2EC12CD12C28
:102200000E9400199B01AC010F900F900F900F904E
:102210008DE593E0B9010E94DC1A1F910F91FF90A8
:10222000EF90DF90CF90BF90AF909F9008952F9246
:102230003F924F925F926F927F928F929F92AF9256
:10224000BF92CF92DF92EF92FF920F931F93DF9393
:10225000CF93CDB7DEB728970FB6F894DEBF0FBE89
:10226000CDBF0E94EB1989E094E040E052EC61E0C0
:1022700070E00E94E61484E593E06AE570E00E9455
:10228000971B87E593E06AE570E00E94971B84E561
:1022900093E068E070E00E947E1C87E593E069E0CF
:1022A00070E00E947E1C80E060E00E9494108AE54D
:1022B00093E067E070E00E947E1C8DE593E066E0AD
:1022C00070E00E947E1C83E0898385E08A8382E03F
:1022D0008B8384E08C837E010894E11CF11C05E073
:1022E000C02ED12CCC0EDD1ED7011D917D01812F7A
:1022F00060E00E94481A812F60E00E946E1AEC1480
:10230000FD0491F780E068EB7FE043E050E00E943D
:10231000831881E064EE7FE043E050E00E94831880
:1023200081E161E00E94481A81E161E00E946E1A39
:102330008FE393E068EE73E040E00E94D80D80E602
:1023400093E00E94DB0C0E9491196093F10270935C
:10235000F2028093F3029093F4022091F5023091FF
:10236000F6024091F7025091F80262177307840752
:10237000950748F180916003882381F066B170E091
:1023800013E0769567951A95E1F7E1E0F0E06E27A6
:102390007F27617081E10E946E1A01C0439880918D
:1023A000F1029091F202A091F302B091F4028C50EC
:1023B0009E4FAF4FBF4F8093F5029093F602A093CC
:1023C000F702B093F8022091ED023091EE024091B5
:1023D000EF025091F0026091F1027091F20280914F
:1023E000F3029091F402621773078407950708F4CB
:1023F000A6CF6C597F4F8F4F9F4F621B730B840B7F
:10240000950B0E94AB052FE632E143E85AE30E94A8
:1024100063023B014C018FE393E00E94A30D7B011B
:102420008C016093500370935103809352039093F7
:102430005303A40193010E9463029B01AC016091CC
:102440004C0370914D0380914E0390914F030E9475
:10245000360260934C0370934D0380934E03909328
:102460004F03C801B70120E030E040E050E00E9497
:10247000390418165CF4C801B7012FE632E143E8CD
:102480005AE30E94C904181694F10AC0C801B701A2
:102490002FE632E143E85AEB0E94690488233CF1BD
:1024A0006091F9027091FA028091FB029091FC0216
:1024B00020E030E040E050E00E9409048823B9F4B5
:1024C0006091FD027091FE028091FF0290910003E5
:1024D00020E030E040E050E00E940904882339F415
:1024E0008FE393E068EE73E041E00E94D80D6091C5
:1024F000F9027091FA028091FB029091FC02209106
:1025000001033091020340910303509104030E94A0
:1025100005026D837E838F8398876091FD027091A1
:10252000FE028091FF0290910003209105033091FB
:10253000060340910703509108030E9405021B0106
:102540002C016091210370912203809123039091CB
:1025500024032091290330912A0340912B035091A9
:102560002C03621B730B840B950B0E94F90420E76C
:102570003CE34BE85BE30E946302A40193010E94E9
:102580005D036093010370930203809303039093B0
:102590000403609125037091260380912703909195
:1025A000280320912D0330912E0340912F03509149
:1025B0003003621B730B840B950B0E94F90420E718
:1025C0003CE34BE85BE30E946302A40193010E9499
:1025D0005D03609305037093060380930703909354
:1025E00008038091210390912203A0912303B091CD
:1025F00024038093290390932A03A0932B03B09381
:102600002C038091250390912603A0912703B0917C
:10261000280380932D0390932E03A0932F03B09350
:1026200030036D817E818F819885A40193010E9482
:1026300063022091090330910A0340910B035091EA
:102640000C030E9436025B016C01C201B101A401BE
:1026500093010E94630220910D0330910E0340917B
:102660000F03509110030E9436023B014C01C6013A
:10267000B50120E030E04EEF52EC0E94990488232F
:102680005CF40F2EF0E0AF2EF0E0BF2EFEEFCF2E69
:10269000F2ECDF2EF02D14C0C601B50120E030E0D1
:1026A0004EEF52E40E943904181654F40F2EF0E055
:1026B000AF2EF0E0BF2EFEEFCF2EF2E4DF2EF02D96
:1026C000A0920903B0920A03C0920B03D0920C03AC
:1026D000C401B30120E030E04EEF52EC0E949904B7
:1026E00088235CF40F2EF0E06F2EF0E07F2EFEEFDB
:1026F0008F2EF2EC9F2EF02D14C0C401B30120E008
:1027000030E04EEF52E40E943904181654F40F2EB4
:10271000F0E06F2EF0E07F2EFEEF8F2EF2E49F2E82
:10272000F02D60920D0370920E0380920F03909231
:1027300010036D817E818F81988520917002309188
:10274000710240917202509173020E9463027B01F8
:102750008C01C601B501209174023091750240913F
:102760007602509177020E9463029B01AC01C8017E
:10277000B7010E9436027B018C016D817E818F81C1
:1027800098852091110330911203409113035091C9
:1027900014030E9405022DEC3CEC4CEC5DE30E941E
:1027A0005D03209178023091790240917A02509134
:1027B0007B020E9463029B01AC01C801B7010E9429
:1027C00036025B016C016093190370931A038093C6
:1027D0001B0390931C03C201B10120917C02309134
:1027E0007D0240917E0250917F020E9463027B0134
:1027F0008C01C401B301209180023091810240918B
:102800008202509183020E9463029B01AC01C801C5
:10281000B7010E9436027B018C01C201B1012091F7
:1028200015033091160340911703509118030E942D
:1028300005022DEC3CEC4CEC5DE30E945D03209125
:1028400084023091850240918602509187020E9455
:1028500063029B01AC01C801B7010E9436027B01F3
:102860008C0160931D0370931E0380931F0390934C
:1028700020038D819E81AF81B88580931103909351
:102880001203A0931303B093140320921503309204
:10289000160340921703509218036091350370910C
:1028A0003603882777FD8095982F0E94F904A801A8
:1028B00097010E9436020E945705162F072F60913C
:1028C000330370913403882777FD8095982F0E94F9
:1028D000F904A60195010E9436020E94570560384E
:1028E000710514F06FE770E09FEF6138790714F419
:1028F00061E87FEF7093340360933303812F902F4F
:102900009C012038310514F02FE730E0AFEF21387B
:102910003A0714F421E83FEF309336032093350350
:10292000862F622F0E9494108091F1029091F20202
:10293000A091F302B091F4028C599F4FAF4FBF4F5B
:102940008093ED029093EE02A093EF02B093F00219
:10295000F6CC1F920F920FB60F9211242F933F9334
:102960004F935F936F937F938F939F93AF93BF9397
:10297000EF93FF934091C600E0910504F0910604A7
:10298000CF01019660E870E00E94811D9C0180915A
:102990000704909108042817390739F0EB57FC4FCA
:1029A00040833093060420930504FF91EF91BF917B
:1029B000AF919F918F917F916F915F914F913F91D7
:1029C0002F910F900FBE0F901F9018955F926F92EE
:1029D0007F928F929F92AF92BF92CF92DF92EF92AF
:1029E000FF920F931F93CF93DF93EC015A016B017A
:1029F00081E4A81682E4B8068FE0C80680E0D80615
:102A000008F077C060E874E88EE190E0A6019501D7
:102A10000E94941D39014A010894610871088108D7
:102A200091089694879477946794A40193012F5FFB
:102A30003F4F4F4F5F4F74E0220F331F441F551F0E
:102A40007A95D1F760E074E284EF90E00E94941DE3
:102A5000CA01B9012FEF30E040E050E00E94421D72
:102A6000A60195010E94941D8FEF90E0821B930BAD
:102A7000181619061CF4522E509402C0522E53946C
:102A800060E079E08DE390E0A60195010E94941D3D
:102A900021503040404050405695479537952795F6
:102AA0002F5F3F4F4F4F5F4F93E0220F331F441F65
:102AB000551F9A95D1F760E074E284EF90E00E9490
:102AC000941DCA01B9012FEF30E040E050E00E94B0
:102AD000421DA60195010E94941D8FEF90E0821B7C
:102AE000930B1816190614F4209501C02F5F2515B5
:102AF000F0F4E885F98581E090E00A8802C0880F4B
:102B0000991F0A94E2F7808360E079E08DE390E01A
:102B1000A60195010E94941D215030404040504034
:102B20005695479537952795822F232F05C0E88521
:102B3000F9851082862D272DEC81FD812083EE8181
:102B4000FF818083EA85FB85208141E050E0CA0156
:102B50000E8402C0880F991F0A94E2F7282B208365
:102B6000EA85FB852081CA010F8402C0880F991F66
:102B70000A94E2F7282B2083EA85FB858081088868
:102B800002C0440F551F0A94E2F7842B8083DF9123
:102B9000CF911F910F91FF90EF90DF90CF90BF905A
:102BA000AF909F908F907F906F905F900895DC0121
:102BB0001296ED91FC911397E058FF4F81919191FE
:102BC00080589F4F20813181821B930B60E870E019
:102BD0000E94811D0895DC011296ED91FC911397DE
:102BE000EE57FF4F2081318192918291E058F04061
:102BF0008217930719F42FEF3FEF05C0E20FF31F81
:102C00008081282F30E0C9010895CF93DF93DC0144
:102C10001296ED91FC911397EF01CE57DF4F48814B
:102C20005981E058FF4F80819181E058F04084172E
:102C3000950719F42FEF3FEF0CC0E40FF51F20812B
:102C4000CA01019660E870E00E94811D9983888323
:102C500030E0C901DF91CF910895DC011296ED912A
:102C6000FC911397EE57FF4F80819181929382934D
:102C70000895FC01A085B18521898C9190E0022EF8
:102C800002C0959587950A94E2F780FFF6CF0484F9
:102C9000F585E02D608308958DE892E090930A0415
:102CA0008093090485E893E090930C0480930B04CF
:102CB00085EC90E090930E0480930D0484EC90E0FA
:102CC0009093100480930F0480EC90E09093120492
:102CD0008093110481EC90E090931404809313048A
:102CE00086EC90E0909316048093150484E0809322
:102CF000170483E08093180487E08093190485E02B
:102D000080931A0481E080931B0408950F931F930E
:102D1000CF93DF938C01EB0109C02196D801ED918F
:102D2000FC910190F081E02DC8010995688166232E
:102D3000A1F7DF91CF911F910F910895EF92FF922C
:102D40000F931F93CF93DF938C017B01EA010CC09B
:102D5000D7016D917D01D801ED91FC910190F08139
:102D6000E02DC80109952197209791F7DF91CF9128
:102D70001F910F91FF90EF900895DC01ED91FC9170
:102D80000280F381E02D099508952F923F924F9292
:102D90005F926F927F928F929F92AF92BF92CF92EB
:102DA000DF92EF92FF920F931F93DF93CF93CDB7F4
:102DB000DEB7A0970FB6F894DEBF0FBECDBF1C01E3
:102DC0006A017B01411551056105710549F440E334
:102DD00050E060E070E020E030E00E947E1754C0D8
:102DE000882499245401422E55246624772401E036
:102DF00010E00C0F1D1F080D191DC701B601A3011E
:102E000092010E94941DF80160830894811C911C1A
:102E1000A11CB11CC701B601A30192010E94941D1F
:102E2000C901DA016C017D01C114D104E104F1048E
:102E3000F1F681E0E82EF12CEC0EFD1EE80CF91CF9
:102E40003E010894611C711CD501C4010197A109C0
:102E5000B1096C01C818D90814C0F601EE0DFF1DA8
:102E600040814A3010F4405D01C0495C50E060E0B0
:102E700070E0C10120E030E00E947E170894E10874
:102E8000F1086E147F0449F7A0960FB6F894DEBFE0
:102E90000FBECDBFCF91DF911F910F91FF90EF90AB
:102EA000DF90CF90BF90AF909F908F907F906F906A
:102EB0005F904F903F902F900895DC0121153105D0
:102EC00041F4ED91FC910190F081E02D642F099582
:102ED00008950E94C5160895EF92FF920F931F93D5
:102EE0009A01E62EFF2400E010E0B801A7010E943D
:102EF0005D171F910F91FF90EF900895EF92FF9251
:102F00000F931F93CF93DF93EC017A018B0121156F
:102F1000310541F4E881F9810190F081E02D642FC1
:102F200009951BC02A303105B1F477FF10C04DE27E
:102F300050E060E070E020E030E00E947E171095E5
:102F40000095F094E094E11CF11C011D111DCE01CF
:102F5000B801A7012AE00E94C516DF91CF911F9109
:102F60000F91FF90EF900895EF92FF920F931F93B0
:102F70007B019A010027F7FC0095102FB801A701EB
:102F80000E947E171F910F91FF90EF9008950F936D
:102F90001F938C014DE050E060E070E020E030E0F5
:102FA0000E947E17C8014AE050E060E070E020E037
:102FB00030E00E947E171F910F9108950F931F9389
:102FC0008C010E94BD16C8010E94C7171F910F9166
:102FD00008959F92AF92BF92CF92DF92EF92FF92AD
:102FE0000F931F93CF93DF93EC017A018B01922E05
:102FF000CB01BA0120E030E040E050E00E949904AB
:1030000088236CF4CE014DE250E060E070E020E0F7
:1030100030E00E947E1717FB109517F9109520E0FD
:1030200030E040E05FE3AA240BC0CA01B90120E010
:1030300030E040E251E40E945D039B01AC01A394A7
:10304000A91498F3C801B7010E9436025B016C0114
:103050000E948D007B018C01CE01B801A7012AE0FE
:1030600030E00E945D17992029F0CE0166E671E0FC
:103070000E94BD16C801B7010E94AB059B01AC01BF
:10308000C601B5010E94050222C020E030E040E206
:1030900051E40E9463027B018C010E9457055B0191
:1030A0006C01CC24B7FCC094DC2CCE01B601A50188
:1030B0002AE030E00E947E17C601B5010E94F904A3
:1030C0009B01AC01C801B7010E9405029A949920A6
:1030D000E1F6DF91CF911F910F91FF90EF90DF907C
:1030E000CF90BF90AF909F9008950E94E9170895E8
:1030F0000F931F938C010E94E917C8010E94C71704
:103100001F910F910895823000F5E82FF0E0EE0F47
:10311000FF1FE45EFB4F71836083882319F08130C9
:10312000A1F408C0809169008C7F842B8093690092
:10313000E89A089580916900440F551F440F551F68
:10314000837F842B80936900E99A08951F920F92E0
:103150000FB60F9211242F933F934F935F936F936A
:103160007F938F939F93AF93BF93EF93FF93809140
:103170001C0490911D04892B29F0E0911C04F0910E
:103180001D040995FF91EF91BF91AF919F918F9190
:103190007F916F915F914F913F912F910F900FBE53
:1031A0000F901F9018951F920F920FB60F92112437
:1031B0002F933F934F935F936F937F938F939F933F
:1031C000AF93BF93EF93FF9380911E0490911F04E0
:1031D000892B29F0E0911E04F0911F040995FF91BD
:1031E000EF91BF91AF919F918F917F916F915F917F
:1031F0004F913F912F910F900FBE0F901F901895F8
:103200002F923F924F925F926F927F928F929F92F6
:10321000AF92BF92CF92DF92EF92FF920F931F93E4
:10322000DF93CF93CDB7DEB73B014C0119012A01E3
:103230006D897E898F89988D6A197B098C099D0912
:10324000621A730A840A950AA40193010E94421D1E
:10325000E218F30804091509A80197010E94B61D98
:103260002A0D3B1D4C1D5D1DB901CA01CF91DF9197
:103270001F910F91FF90EF90DF90CF90BF90AF9094
:103280009F908F907F906F905F904F903F902F9086
:1032900008951F920F920FB60F9211242F933F9310
:1032A0008F939F93AF93BF938091240490912504B3
:1032B000A0912604B0912704309128040196A11D05
:1032C000B11D232F2D5F2D3720F02D570196A11D05
:1032D000B11D209328048093240490932504A09387
:1032E0002604B09327048091200490912104A0919A
:1032F0002204B09123040196A11DB11D80932004E6
:1033000090932104A0932204B0932304BF91AF9122
:103310009F918F913F912F910F900FBE0F901F9013
:1033200018958FB7F894209124043091250440918A
:103330002604509127048FBFB901CA0108959FB791
:10334000F89420912004309121044091220450915E
:10335000230486B5A89B06C08F3F21F02F5F3F4F07
:103360004F4F5F4F9FBF542F432F322F2227280FDD
:10337000311D411D511D82E0220F331F441F551F77
:103380008A95D1F7B901CA010895EF92FF920F9380
:103390001F93CF93DF937B018C010E949F19EB0158
:1033A0000EC00E949F196C1B7D0B685E7340C8F3B2
:1033B0000894E108F10801091109C851DC4FE11432
:1033C000F1040105110569F7DF91CF911F910F916C
:1033D000FF90EF900895789484B5826084BD84B5A1
:1033E000816084BD85B5826085BD85B5816085BD00
:1033F000EEE6F0E0808181608083E1E8F0E0108219
:10340000808182608083808181608083E0E8F0E059
:10341000808181608083E1EBF0E080818460808343
:10342000E0EBF0E0808181608083EAE7F0E080817A
:1034300084608083808182608083808181608083DA
:103440008081806880831092C1000895982F8E300B
:1034500008F09E509770809188028295880F880F9F
:10346000807C892B80937C0080917A00806480939B
:103470007A0080917A0086FDFCCF209178004091FF
:103480007900942F80E030E0282B392BC901089572
:10349000482F50E0CA0186569F4FFC0124914A579D
:1034A0005F4FFA0184918823C1F0E82FF0E0EE0F1E
:1034B000FF1FE859FF4FA591B491662341F49FB7D0
:1034C000F8948C91209582238C939FBF08959FB789
:1034D000F8948C91822B8C939FBF0895482F50E0D5
:1034E000CA0182559F4FFC012491CA0186569F4F05
:1034F000FC0134914A575F4FFA019491992309F4E2
:1035000040C0222331F1233021F4809180008F7755
:1035100005C0243031F4809180008F7D809380003D
:1035200018C0213019F484B58F7704C0223021F4FB
:1035300084B58F7D84BD0DC0263021F48091B0000C
:103540008F7705C0273029F48091B0008F7D80935C
:10355000B000E92FF0E0EE0FFF1FEE58FF4FA591EE
:10356000B491662341F49FB7F8948C9130958323EE
:103570008C939FBF08959FB7F8948C91832B8C9365
:103580009FBF0895FC01809129048C3090F48083C2
:103590008F5F80932904815090E0FC01EE0FFF1FA4
:1035A000E80FF91FE65DFB4F88EB9BE09283818378
:1035B00008958FEF80830895FC0120812C3008F05E
:1035C00041C08181992787FD909548E850E0481BCC
:1035D000590B440F551F440F551F6417750784F08E
:1035E0008281992787FD909548E552E0481B590B49
:1035F000440F551F440F551F641775070CF4AB019A
:1036000042505040CA01AA2797FDA095BA2F44E026
:10361000880F991FAA1FBB1F4A95D1F733E0B695B3
:10362000A795979587953A95D1F74FB7F89430E0DD
:10363000F901EE0FFF1FE20FF31FE65DFB4F9283D0
:1036400081834FBF0895FC0180818F3F19F420E0F2
:1036500030E016C090E0FC01EE0FFF1FE80FF91FED
:10366000E65DFB4F2181328183E0220F331F8A9573
:10367000E1F7B4E036952795BA95E1F72E5F3F4F15
:10368000C9010895AF92BF92CF92DF92EF92FF925D
:103690000F931F938C010E94231B00D000D0019632
:1036A000AA2797FDA095BA2FF8016181772767FDBA
:1036B000709528E830E0261B370B220F331F220FAE
:1036C000331F442737FD4095542F6281772767FDCC
:1036D0007095E8E5EE2EE2E0FE2EE61AF70AEE0C13
:1036E000FF1CEE0CFF1C0027F7FC0095102F64EB6D
:1036F000A62EB12CC12CD12CEDB7FEB7A182B2827F
:10370000C382D482BC01CD01AA24BB2465010E94DE
:1037100000190F900F900F900F90CB011F910F91F8
:10372000FF90EF90DF90CF90BF90AF900895AF9251
:10373000BF92CF92DF92EF92FF920F931F93CF939E
:10374000DF93EC019B0182E0603278070CF048C007
:1037500077FF03C020E030E005C0653B710514F041
:1037600024EB30E000D000D0B901882777FD8095A8
:10377000982F2981332727FD3095B8E8AB2EB12C3F
:10378000A21AB30AAA0CBB1CAA0CBB1CCC24B7FC03
:10379000C094DC2CEA81FF27E7FDF09528E532E0B4
:1037A0002E1B3F0B220F331F220F331F442737FDE1
:1037B0004095542FEDB7FEB7218332834383548362
:1037C00020E030E040E050E0E4EBEE2EF12C012D63
:1037D000112D0E9400199B010F900F900F900F90D8
:1037E000CE01B9010E94DC1ADF91CF911F910F9198
:1037F000FF90EF90DF90CF90BF90AF900895CF9261
:10380000DF92EF92FF921F93CF93DF93EC01162F7D
:103810007A01690188818C3008F064C0862F61E0EC
:103820000E94481A888190E0FC01EE0FFF1FE80F0C
:10383000F91FE65DFB4F1F738081807C812B8083A5
:1038400080E292E08E199F0964E070E00E94811D81
:10385000698380E699E08C199D0964E070E00E941C
:10386000811D6A83A8818A2F6CE00E94611D682FE8
:1038700090E0AC01440F551F480F591F440F551FCE
:10388000440F551F20E030E0C901840F951FFC0153
:10389000EE0FFF1FE80FF91FE65DFB4F808186FDED
:1038A00015C02F5F3F4F2C30310571F724C01092A7
:1038B000800082E080938100109285001092840045
:1038C000B19A80916F00826080936F008A2F90E0A0
:1038D000FC01EE0FFF1FE80FF91FE65DFB4F808133
:1038E000806480838881DF91CF911F91FF90EF905A
:1038F000DF90CF9008956623D1F2E8CF40E252E006
:1039000020E639E00E94FF1B08951F920F920FB628
:103910000F9211242F933F934F935F936F937F9355
:103920008F939F93AF93BF93EF93FF9380914E0438
:1039300087FF05C010928500109284002BC0209153
:103940004E04332727FD30958091290490E02817F5
:10395000390704F580914E04992787FD9095FC0165
:10396000EE0FFF1FE80FF91FE65DFB4F808186FF1A
:1039700011C080914E04992787FD9095FC01EE0FB0
:10398000FF1FE80FF91FE65DFB4F80818F7360E03A
:103990000E946E1A80914E048F5F80934E04209196
:1039A0004E04332727FD30958091290490E0281795
:1039B00039070CF04EC080914E048C300CF049C099
:1039C000209184003091850080914E04992787FDD5
:1039D0009095FC01EE0FFF1FE80FF91FE65DFB4F0E
:1039E00081819281280F391F3093890020938800AC
:1039F00080914E04992787FD9095FC01EE0FFF1FE3
:103A0000E80FF91FE65DFB4F808186FF2AC0809199
:103A10004E04992787FD9095FC01EE0FFF1FE80FDC
:103A2000F91FE65DFB4F80818F7361E00E946E1A83
:103A300018C080E49CE905C08091840090918500C5
:103A4000049690938900809388008FEF80934E04B2
:103A500008C0809184009091850084549C4948F36B
:103A6000EBCFFF91EF91BF91AF919F918F917F919C
:103A70006F915F914F913F912F910F900FBE0F90DB
:103A80001F901895629FD001739FF001829FE00DF7
:103A9000F11D649FE00DF11D929FF00D839FF00DCD
:103AA000749FF00D659FF00D9927729FB00DE11D79
:103AB000F91F639FB00DE11DF91FBD01CF01112456
:103AC0000895991B79E004C0991F961708F0961B7A
:103AD000881F7A95C9F780950895AA1BBB1B51E1F1
:103AE00007C0AA1FBB1FA617B70710F0A61BB70B6E
:103AF000881F991F5A95A9F780959095BC01CD0113
:103B0000089597FB092E07260AD077FD04D0E5DF3C
:103B100006D000201AF4709561957F4F0895F6F74E
:103B2000909581959F4F0895A1E21A2EAA1BBB1B69
:103B3000FD010DC0AA1FBB1FEE1FFF1FA217B30779
:103B4000E407F50720F0A21BB30BE40BF50B661F8F
:103B5000771F881F991F1A9469F760957095809553
:103B600090959B01AC01BD01CF01089597FB092EF3
:103B700005260ED057FD04D0D7DF0AD0001C38F43C
:103B800050954095309521953F4F4F4F5F4F089589
:103B9000F6F790958095709561957F4F8F4F9F4F69
:103BA00008952F923F924F925F926F927F928F92E1
:103BB0009F92AF92BF92CF92DF92EF92FF920F93BC
:103BC0001F93CF93DF93CDB7DEB7CA1BDB0B0FB6C6
:103BD000F894DEBF0FBECDBF09942A883988488883
:103BE0005F846E847D848C849B84AA84B984C88419
:103BF000DF80EE80FD800C811B81AA81B981CE0F10
:103C0000D11D0FB6F894DEBF0FBECDBFED010895F4
:103C1000EE0FFF1F0590F491E02D0994FB015191E7
:103C20005523A9F0BF01DC014D9145174111E1F782
:103C300059F4CD010190002049F04D9140154111FA
:103C4000C9F3FB014111EFCF81E090E001970895A6
:043C5000F894FFCF16
:103C54003C003E00734452560067454E430067479C
:103C640059520067425459006753455200735345F3
:103C740052006753454E0067434E5400674C5350FF
:103C8400006752535000674C4D530067524D530028
:103C9400674241540020766F6C74732C20002061BD
:103CA4006D70730D0A00494E56414C494420434FF0
:103CB4004D4D414E44002E00000000000000000065
:103CC40000010202030303030404040404040404BF
:103CD4000505050505050505050505050505050590
:103CE4000606060606060606060606060606060670
:103CF4000606060606060606060606060606060660
:103D0400070707070707070707070707070707073F
:103D1400070707070707070707070707070707072F
:103D2400070707070707070707070707070707071F
:103D3400070707070707070707070707070707070F
:103D440008080808080808080808080808080808EF
:103D540008080808080808080808080808080808DF
:103D640008080808080808080808080808080808CF
:103D740008080808080808080808080808080808BF
:103D840008080808080808080808080808080808AF
:103D9400080808080808080808080808080808089F
:103DA400080808080808080808080808080808088F
:103DB400080808080808080808080808080808087F
:103DC4009A99993ECDCC4C3D000000009A99993EB9
:103DD400CDCC4C3D000000000100000000391686E7
:0C3DE400169E16D71505162D16EB1500BF
:00000001FF
