:100000000C9463000C94F1170C941E180C947E0E43
:100010000C94A20E0C94C60E0C948B000C948B00C6
:100020000C948B000C94D50C0C948B000C94D01B6E
:100030000C948B000C948B000C948B000C948B0014
:100040000C9494180C948B000C9419140C948B0041
:100050000C948B000C948B000C948B000C948B00F4
:100060000C948B000C948B000000000024002700EF
:100070002A0000000000250028002B0000000000DE
:1000800023002600290004040404040404040202DA
:100090000202020203030303030301020408102007
:1000A0004080010204081020010204081020000012
:1000B0000007000201000003040600000000000029
:1000C0000000830FBC1511241FBECFEFD8E0DEBFA8
:1000D000CDBF12E0A0E0B1E0EAEEFAE302C0059085
:1000E0000D92A239B107D9F714E0A2E9B2E001C03C
:1000F0001D92A835B107E1F710E0C6ECD0E004C0CE
:100100002297FE010E94551DC23CD107C9F70E94EB
:1001100087100C94731D0C940000EF92FF920F93C4
:100120001F937B018C0120E030E040E05FE40E94FF
:10013000690488238CF0C801B70120E030E040E07A
:100140005FE40E9405020E9457059B01AC0120500C
:1001500030404040504806C0C801B7010E945705D2
:100160009B01AC01B901CA011F910F91FF90EF9063
:100170000895A0E0B0E0EFEBF0E00C941C1DDC0172
:100180002B01FA019C91923008F439C1EB0188816E
:10019000823008F433C1943069F4843009F02FC1FF
:1001A00011969C9111978981981709F428C1AFE5A0
:1001B000B1E025C1843009F421C18230A9F4923024
:1001C00009F01DC19A01AD0188E0EA010990AE0174
:1001D000E90109929E018150C1F7E20189811196DE
:1001E0009C918923818308C1923009F407C112963A
:1001F0002D903C901397EB018A819B811496AD90D2
:10020000BD90CD90DC901797EC80FD800E811F8112
:100210009101281B390BB90137FF04C066277727E6
:10022000621B730B603271050CF061C0121613066D
:100230006CF537014801062E04C096948794779494
:1002400067940A94D2F721E030E040E050E004C027
:10025000220F331F441F551F6A95D2F7215030409B
:10026000404050402E213F2140235123211531058C
:100270004105510521F021E030E040E050E07901F6
:100280008A01E628F728082919293CC0232BD1F137
:10029000260E371E35014601062E04C0969487941B
:1002A000779467940A94D2F721E030E040E050E080
:1002B00004C0220F331F441F551F6A95D2F72150E7
:1002C0003040404050402A213B214C215D212115E6
:1002D00031054105510521F021E030E040E050E0DA
:1002E00059016A01A628B728C828D9280BC0821549
:1002F00093052CF01C01AA24BB24650103C0EE2445
:10030000FF24870111969C91D20111968C91981728
:1003100009F445C0992339F0A80197012A193B092E
:100320004C095D0906C0A60195012E193F09400B35
:10033000510B57FD08C011823382228224833583FA
:10034000468357831DC081E08183338222828827C0
:100350009927DC01821B930BA40BB50B8483958337
:10036000A683B7830DC0220F331F441F551F24835C
:100370003583468357838281938101979383828358
:100380002481358146815781DA01C9010197A1098C
:10039000B1098F5F9F4FAF4FBF4328F30BC09183CD
:1003A00033822282EA0CFB1C0C1D1D1DE482F582A7
:1003B0000683178383E080832481358146815781BA
:1003C00057FF1AC0C901AA2797FDA095BA2F8170BF
:1003D0009070A070B0705695479537952795822BF1
:1003E000932BA42BB52B84839583A683B78382811B
:1003F0009381019693838283DF0101C0D201CD01F5
:10040000CDB7DEB7E2E10C94381DA0E2B0E0EBE03E
:10041000F2E00C94281D69837A838B839C832D835F
:100420003E834F835887E9E0EE2EF12CEC0EFD1E43
:10043000CE010196B7010E9449078E010F5E1F4F42
:10044000CE010596B8010E9449078A8991E0892763
:100450008A8BC701B801AE01475E5F4F0E94B900A9
:100460000E947306A096E6E00C94441DA0E2B0E062
:10047000ECE3F2E00C94281D69837A838B839C83E0
:100480002D833E834F835887F9E0EF2EF12CEC0E3D
:10049000FD1ECE010196B7010E9449078E010F5E35
:1004A0001F4FCE010596B8010E944907C701B80148
:1004B000AE01475E5F4F0E94B9000E947306A0968E
:1004C000E6E00C94441DA0E2B0E0E9E6F2E00C9412
:1004D0001C1D69837A838B839C832D833E834F838A
:1004E0005887CE010196BE01675F7F4F0E94490782
:1004F000CE010596BE016F5E7F4F0E944907998528
:10050000923088F089898230C8F0943019F48230B2
:1005100051F404C0843029F4923081F48FE591E0E5
:10052000C6C0923049F420E09A858A89981321E068
:100530002A87CE010996BBC0823049F420E09A8513
:100540008A89981321E02A8BCE014196B0C02D8470
:100550003E844F8458886D887E888F88988CEE24DE
:10056000FF248701AA24BB24650140E050E060E03D
:1005700070E0E0E0F0E0C10181709070892BE9F05B
:10058000E60CF71C081D191D9A01AB012A0D3B1D35
:100590004C1D5D1D80E090E0A0E0B0E0E614F704A3
:1005A0000805190520F481E090E0A0E0B0E0BA0170
:1005B000A901480F591F6A1F7B1FAA0CBB1CCC1C2A
:1005C000DD1C97FE08C081E090E0A0E0B0E0A82A22
:1005D000B92ACA2ADB2A3196E032F10549F0660CC5
:1005E000771C881C991C5694479437942794C3CF42
:1005F000FA85EA892B893C898B859C85280F391FD0
:100600002E5F3F4F17C0CA0181709070892B61F037
:1006100016950795F794E79480E090E0A0E0B0E8A5
:10062000E82AF92A0A2B1B2B76956795579547954B
:100630002F5F3F4F77FDE7CF0CC0440F551F661F5C
:10064000771F17FD4160EE0CFF1C001F111F21508A
:100650003040403090E0590790E0690790E4790716
:1006600060F32B8F3C8FDB01CA018F779070A070F5
:10067000B07080349105A105B10561F447FD0AC051
:10068000E114F1040105110529F0405C5F4F6F4F43
:100690007F4F40781A8EFE1711F081E08A8F4D8FC0
:1006A0005E8F6F8F78A383E0898FCE0149960E9479
:1006B0007306A096E2E10C94381DA8E1B0E0E3E6F1
:1006C000F3E00C94241D69837A838B839C832D83B0
:1006D0003E834F835887B9E0EB2EF12CEC0EFD1EC4
:1006E000CE010196B7010E9449078E010F5E1F4F90
:1006F000CE010596B8010E9449072985223008F4E9
:100700007EC03989323010F4B8017CC08A859A895C
:1007100089278A87243011F0223031F4231709F019
:100720006EC06FE571E06EC0343039F41D861E86F0
:100730001F86188A1C861B8604C0323021F484E090
:100740008987B7015FC02B853C858B899C89281BD5
:10075000390B3C872B87ED84FE840F851889AD8883
:10076000BE88CF88D88CEA14FB040C051D0540F424
:10077000EE0CFF1C001F111F215030403C872B87BF
:1007800020E030E040E050E080E090E0A0E0B0E425
:1007900060E070E0EA14FB040C051D0540F0282B16
:1007A000392B4A2B5B2BEA18FB080C091D09B6955F
:1007B000A79597958795EE0CFF1C001F111F6F5F83
:1007C0007F4F6F31710531F7DA01C9018F77907072
:1007D000A070B07080349105A105B10561F427FDCA
:1007E0000AC0E114F1040105110529F0205C3F4F16
:1007F0004F4F5F4F20782D873E874F87588BBE0124
:10080000675F7F4FCB010E9473066896EAE00C9405
:10081000401DA8E1B0E0EFE0F4E00C94281D6983EE
:100820007A838B839C832D833E834F83588789E013
:10083000E82EF12CEC0EFD1ECE010196B7010E94B0
:1008400049078E010F5E1F4FCE010596B8010E9429
:1008500049078985823040F08989823028F0C701B4
:10086000B8010E94C10701C081E06896E6E00C94DF
:10087000441DA8E1B0E0EFE3F4E00C94281D698387
:100880007A838B839C832D833E834F83588789E0B3
:10089000E82EF12CEC0EFD1ECE010196B7010E9450
:1008A00049078E010F5E1F4FCE010596B8010E94C9
:1008B00049078985823040F08989823028F0C70154
:1008C000B8010E94C10701C08FEF6896E6E00C9462
:1008D000441DA8E1B0E0EFE6F4E00C94281D698324
:1008E0007A838B839C832D833E834F83588789E053
:1008F000E82EF12CEC0EFD1ECE010196B7010E94F0
:1009000049078E010F5E1F4FCE010596B8010E9468
:1009100049078985823040F08989823028F0C701F3
:10092000B8010E94C10701C08FEF6896E6E00C9401
:10093000441DA8E1B0E0EFE9F4E00C94281D6983C0
:100940007A838B839C832D833E834F83588789E0F2
:10095000E82EF12CEC0EFD1ECE010196B7010E948F
:1009600049078E010F5E1F4FCE010596B8010E9408
:1009700049078985823040F08989823028F0C70193
:10098000B8010E94C10701C081E06896E6E00C94BE
:10099000441DA8E1B0E0EFECF4E00C94281D69835D
:1009A0007A838B839C832D833E834F83588789E092
:1009B000E82EF12CEC0EFD1ECE010196B7010E942F
:1009C00049078E010F5E1F4FCE010596B8010E94A8
:1009D00049078985823040F08989823028F0C70133
:1009E000B8010E94C10701C081E06896E6E00C945E
:1009F000441DA8E0B0E0EFEFF4E00C94251D9B014E
:100A0000AC0183E08983DA01C9018827B7FD8395AA
:100A10009927AA27BB27B82E211531054105510575
:100A200019F482E089833AC08823A9F0203080E05D
:100A3000380780E0480780E8580729F460E070E054
:100A400080E09FEC30C0EE24FF248701E21AF30A15
:100A5000040B150B02C079018A018EE1C82ED12C3E
:100A6000DC82CB82ED82FE820F831887C801B7013A
:100A70000E94240601971816190684F4082E04C053
:100A8000EE0CFF1C001F111F0A94D2F7ED82FE82AC
:100A90000F831887C81AD90ADC82CB82BA82CE01AA
:100AA00001960E9473062896E9E00C94411DACE083
:100AB000B0E0EDE5F5E00C942C1D69837A838B831F
:100AC0009C83CE010196BE016B5F7F4F0E94490758
:100AD0008D81823061F1823050F1843021F48E8139
:100AE000882351F12EC02F81388537FD20C06E81BB
:100AF0002F3131051CF06623F9F023C08EE190E020
:100B0000821B930B29853A854B855C8504C05695DD
:100B10004795379527958A95D2F76623B1F050957A
:100B20004095309521953F4F4F4F5F4F0EC020E0CD
:100B300030E040E050E009C02FEF3FEF4FEF5FE7BC
:100B400004C020E030E040E050E8B901CA012C9632
:100B5000E2E00C94481DA8E0B0E0E1EBF5E00C9475
:100B6000241D7B018C01611571058105910519F426
:100B700082E0898360C083E089838EE1C82ED12C16
:100B8000DC82CB82ED82FE820F831887C801B70119
:100B90000E942406FC013197F7FF3BC02227332730
:100BA0002E1B3F0B57016801022E04C0D694C79438
:100BB000B794A7940A94D2F740E050E060E070E068
:100BC00081E090E0A0E0B0E004C0880F991FAA1F68
:100BD000BB1F2A95D2F70197A109B1098E219F2148
:100BE000A023B1230097A105B10521F041E050E019
:100BF00060E070E04A295B296C297D294D835E8382
:100C00006F8378878EE190E08E1B9F0B9C838B8394
:100C100012C0309781F00E2E04C0EE0CFF1C001F96
:100C2000111F0A94D2F7ED82FE820F831887CE1A25
:100C3000DF0ADC82CB821A82CE0101960E94730603
:100C40002896EAE00C94401DEF92FF920F931F93B9
:100C50007B018C0180E0E81680E0F80681E008075F
:100C600080E0180788F48FEFE816F10401051105FC
:100C700031F028F088E090E0A0E0B0E017C080E01C
:100C800090E0A0E0B0E012C080E0E81680E0F80656
:100C900080E0080781E0180728F088E190E0A0E0F4
:100CA000B0E004C080E190E0A0E0B0E020E230E0FD
:100CB00040E050E0281B390B4A0B5B0B04C0169533
:100CC0000795F794E7948A95D2F7F701E959FE4F13
:100CD0008081281B310941095109C9011F910F91D8
:100CE000FF90EF900895DF92EF92FF920F931F9382
:100CF000FC01E480F58006811781D18080818230FB
:100D000058F480E090E0A0E1B0E0E82AF92A0A2B4C
:100D10001B2BEFEFF0E0A6C0843009F49EC08230B8
:100D200019F4E0E0F0E09BC0E114F10401051105C5
:100D300019F4E0E0F0E096C0628173819FEF6238C1
:100D400079070CF05BC022E83FEF261B370B2A31F6
:100D500031052CF020E030E040E050E02AC0B8013E
:100D6000A701022E04C076956795579547950A947A
:100D7000D2F781E090E0A0E0B0E004C0880F991FB6
:100D8000AA1FBB1F2A95D2F70197A109B1098E218D
:100D90009F21A023B1230097A105B10521F081E097
:100DA00090E0A0E0B0E09A01AB01282B392B4A2B50
:100DB0005B2BDA01C9018F779070A070B07080341E
:100DC0009105A105B10539F427FF09C0205C3F4F0B
:100DD0004F4F5F4F04C0215C3F4F4F4F5F4FE0E0EC
:100DE000F0E02030A0E03A07A0E04A07A0E45A076C
:100DF00010F0E1E0F0E079018A0127C06038710568
:100E000064F5FB01E158FF4FD801C7018F7790705F
:100E1000A070B07080349105A105B10539F4E7FEEA
:100E20000DC080E490E0A0E0B0E004C08FE390E06B
:100E3000A0E0B0E0E80EF91E0A1F1B1F17FF05C057
:100E400016950795F794E794319687E016950795E0
:100E5000F794E7948A95D1F705C0EFEFF0E0EE2420
:100E6000FF2487016E2F679566276795902F9F77E0
:100E7000D794DD24D7948E2F8695492F462B582F53
:100E80005D29B701CA011F910F91FF90EF90DF908C
:100E90000895FC01DB01408151812281622F6F772F
:100EA00070E0221F2227221F9381892F880F822B17
:100EB000282F30E0991F9927991F11969C9311971D
:100EC00021153105A9F5411551056105710511F48B
:100ED00082E037C082E89FEF13969C938E9312971F
:100EE0009A01AB0167E0220F331F441F551F6A951B
:100EF000D1F783E08C930DC0220F331F441F551F81
:100F000012968D919C911397019713969C938E93B3
:100F10001297203080E0380780E0480780E45807C7
:100F200058F314962D933D934D935C931797089522
:100F30002F3F310579F4411551056105710519F40B
:100F400084E08C93089564FF03C081E08C9312C009
:100F50001C9210C02F57304013963C932E9312973B
:100F600083E08C9387E0440F551F661F771F8A9597
:100F7000D1F7706414964D935D936D937C9317979E
:100F800008951F93DC01FB019C91923008F447C047
:100F90008081823008F443C0943051F411961C9142
:100FA000843099F58181682F70E0611B71093FC021
:100FB000843021F0923031F48230B9F1818188237C
:100FC00089F12DC011961C9111978230F1F0818129
:100FD0001817D9F412962D913C9113978281938121
:100FE0008217930794F028173907BCF014968D9157
:100FF0009D910D90BC91A02D248135814681578112
:10100000281739074A075B0718F4112341F00AC073
:1010100082179307A407B50740F4112319F061E084
:1010200070E005C06FEF7FEF02C060E070E0CB01C1
:101030001F910895AF92BF92CF92DF92EF92FF92ED
:101040000F931F93DF93CF930F92CDB7DEB78C0131
:10105000962F603108F09FE0F80185819817D9F04C
:101060007801AA24BB24C92EDD24B6010A2C02C0B3
:10107000759567950A94E2F76170F70181917F0198
:1010800099830E94B9190894A11CB11C9981F4E0BC
:10109000AF16B10451F7F80195830F90CF91DF910E
:1010A0001F910F91FF90EF90DF90CF90BF90AF9086
:1010B00008950F931F938C010E941A08F8018481F0
:1010C0000E9471191F910F910895EF920F931F9332
:1010D000CF93DF93EC01688349832A830B83EC82EF
:1010E00000E010E0FE01E00FF11F808161E00E944E
:1010F00093190F5F1F4F04301105A1F78C8160E039
:101100000E9493198C8160E00E94B919CE0160E0C1
:101110000E941A08DF91CF911F910F91EF900895CF
:101120008F929F92AF92BF92CF92DF92EF92FF92F7
:101130000F931F93DF93CF93CDB7DEB7FC0172837C
:101140006183548343833683258310870783B68660
:10115000A586F48AE38AD68AC58A928681868F8597
:101160009889948783878B899C89908B87878989C5
:101170009A89928B818B17AA1082178A108E118EF2
:10118000128ECF91DF911F910F91FF90EF90DF9022
:10119000CF90BF90AF909F908F900895AF92BF92E5
:1011A000CF92DF92EF92FF920F931F937A018B0100
:1011B0000E94DC185B016C01AE0CBF1CC01ED11E6E
:1011C0000E94DC186A157B058C059D05A0F482E160
:1011D00094E00E944715892B71F4F2CF82E194E0EC
:1011E0000E9475151F910F91FF90EF90DF90CF90A7
:1011F000BF90AF90089582E194E00E944715892B3B
:1012000069F780E0EFCF3F924F925F926F927F92AB
:101210008F929F92AF92BF92CF92DF92EF92FF9206
:101220000F931F93DF93CF9300D000D000D0CDB7A2
:10123000DEB78C01DC011596ED91FC91169760816B
:1012400071818281938120E030E040E251E40E948C
:1012500063020E9457057C836B83D8011796ED913A
:10126000FC911897608171818281938120E030E048
:1012700040E251E40E9463020E9457057A83698329
:10128000F801858596850E94FB0E20E030E048EC51
:1012900052E40E9463020E9457057E836D83D80149
:1012A0001D968D919C911E970E94EA0E20E030E0E1
:1012B00048EC52E40E9463020E9457052B013C0156
:1012C000D8011996ED91FC911A9760817181828104
:1012D000938120E030E048EC52E40E9463020E94D7
:1012E00057054B015C01D8011B96ED91FC911C97B1
:1012F000608171818281938120E030E048EC52E48A
:101300000E9463020E9457056B017C01F8018189EC
:1013100092890E948D1A382ED8011F968D919C912A
:1013200050970E948D1AEB81FC812F2F332727FDC8
:101330003A95D80197962C939797EB819896EC93D2
:10134000989749815A81252F332727FD3A959996F9
:101350002C9399979A964C939A97292D332727FD8A
:101360003A959B962C939B979C968C929C972D2DAF
:10137000332727FD3A959D962C939D979E96CC9268
:10138000AD81BE812B2F332727FD3A95F80127A782
:101390004D8140AB252D332727FD3A9521AB42AA3D
:1013A00033AA84AB8DE085AB8AE086AB095D1F4F25
:1013B00082E194E0B80140E150E00E940E162696CA
:1013C0000FB6F894DEBF0FBECDBFCF91DF911F9156
:1013D0000F91FF90EF90DF90CF90BF90AF909F90D4
:1013E0008F907F906F905F904F903F900895CF9235
:1013F000DF92EF92FF920F931F93DF93CF93CDB7BE
:10140000DEB72F970FB6F894DEBF0FBECDBF6C01CD
:101410008C01015E1F4FC80160E071E00E94591D00
:10142000009709F44CC08E010F5F1F4FA5E0EA2E14
:10143000F12CEC0EFD1EC6014AEF50E060E070E0BA
:101440000E94CE08D8018D938D01AE15BF0599F786
:10145000F60101811281798160E02A8130E0622BFE
:10146000732B882777FD8095982F0E94F9042DEC27
:101470003CEC4CEC5DE30E946302D8016D937D93DC
:101480008D939C931397F601038114817B8160E017
:101490002C8130E0622B732B882777FD8095982F65
:1014A0000E94F9042DEC3CEC4CEC5DE30E946302DD
:1014B000D8016D937D938D939C931397BAC1C80106
:1014C00065E071E00E94591D009709F1D60115965B
:1014D000ED91FC911697608171818281938120E06A
:1014E00030E040E251E40E9463020E9457057B0114
:1014F0008C01D6011796ED91FC911897608171814E
:101500008281938120E030E040E251E428C0C801AC
:101510006AE071E00E94591D009709F441C0D601AC
:101520001996ED91FC911A97608171818281938166
:1015300020E030E048EC52E40E9463020E9457052C
:101540007B018C01D6011B96ED91FC911C9760816B
:1015500071818281938120E030E048EC52E40E9466
:1015600063020E9457052CE32D832F2D332727FD7F
:101570003A952E83EF82472F552747FD5A95488786
:1015800069872E0D240F260F2F772A878EE38B87EE
:1015900082E194E0BE016B5F7F4F47E050E0D2C034
:1015A000C8016FE071E00E94591D0097B9F0F60183
:1015B000858596850E94FB0E20E030E048EC52E4E1
:1015C0000E9463020E9457057B018C01D6011D9683
:1015D0008D919C911E970E94EA0EBDCFC80164E1D7
:1015E00071E00E94591D0097F1F0F60181899289FE
:1015F0000E948D1A182FD6011F968D919C9150979D
:101600000E948D1A9CE39D831E838F83810F8F77A9
:1016100088878EE3898782E194E0BE016B5F7F4F0C
:1016200045E050E08FC0C80169E171E00E94591D9A
:10163000009739F1C60144E650E060E070E00E9496
:10164000CE08182FC60144E650E060E070E00E942A
:10165000CE08082FF60181899289153B08F014EB1A
:10166000612F70E00E94E21AD6011F968D919C9125
:101670005097602F053B08F064EB70E00E94E21A7F
:10168000D8C0C8016EE171E00E94591D009709F4AD
:101690005CC08CE38D83D6015396ED91FC915497F9
:1016A00080819181A281B3818B2FBB2787FDB0956B
:1016B0009B2FAB2F8E8380819181A281B381CD013D
:1016C000BB2797FDB095AB2F8F8380819181A2813D
:1016D000B381892F9A2FAB2FBB27A7FDBA95888797
:1016E00080818987D6015596ED91FC91569780812E
:1016F0009181A281B3818B2FBB2787FDB0959B2F52
:10170000AB2F8A8780819181A281B381CD01BB27D4
:1017100097FDB095AB2F8B8780819181A281B3819A
:10172000892F9A2FAB2FBB27A7FDBA958C87808175
:101730008D878EE38E8782E194E0BE016B5F7F4FE1
:101740004AE050E00E940E1674C0C80163E271E0E6
:101750000E94591D009731F0D6011196ED91FC9130
:10176000129726C0C80168E271E00E94591D0097D7
:1017700031F0D6011396ED91FC91149719C0C80170
:101780006DE271E00E94591D009731F0D601159667
:10179000ED91FC9116970CC0C80162E371E00E94C4
:1017A000591D009781F0D6011796ED91FC9118977D
:1017B000408151816281738182E194E02AE030E0CE
:1017C0000E94C31736C0C80167E371E00E94591D2B
:1017D000009749F1F601858596850E94FB0EAB01C5
:1017E000BC0182E194E02AE030E00E94C01782E16F
:1017F00094E06CE371E00E942D16D6011D968D9148
:101800009C911E970E94EA0EAB01BC0182E194E01C
:101810002AE030E00E94C01782E194E065E471E0C4
:101820000E942D1606C082E194E06DE471E00E94F2
:101830002917F60117AA80E090E2978F8F5F319603
:101840008830D9F72F960FB6F894DEBF0FBECDBF04
:10185000CF91DF911F910F91FF90EF90DF90CF908C
:101860000895EF92FF920F931F93CF93DF93EC01B4
:10187000EB8CFC8C0D8D1E8D0E94DC18E61AF70A8D
:10188000080B190B23E3E216F1040105110570F1B1
:10189000CE010E9403092AC00E94DC186F8B788F4A
:1018A000898F9A8F82E194E00E9475158A3349F4FA
:1018B0001FAAFE0180E0178F8F5F31968830D9F71D
:1018C00016C0813219F09FA9973048F08FA9FE0108
:1018D000E80FF11D178ECE010E94F70908C0FE0126
:1018E000E90FF11D878F9F5F9FAB01C010E282E17E
:1018F00094E00E944715892B79F60E94DC18E0E0FD
:101900002F89388D498D5A8D621B730B840B950B73
:10191000695E73408040904008F4E1E0E883DF9125
:10192000CF911F910F91FF90EF90089580919802B1
:1019300090919902A0919A02B0919B020196A11DEB
:10194000B11D8093980290939902A0939A02B0934C
:101950009B02209198023091990240919A025091F5
:101960009B028091920290919302A0919402B09177
:101970009502281739074A075B07B0F080919C024F
:10198000882391F481E080939C0210929802109237
:10199000990210929A0210929B02E0919602F091A5
:1019A0009702099510929C0208951F920F920FB60C
:1019B0000F9211242F933F934F935F936F937F93D5
:1019C0008F939F93AF93BF93EF93FF9380919D026B
:1019D00090919E028093B2000E94960CFF91EF912D
:1019E000BF91AF919F918F917F916F915F914F9137
:1019F0003F912F910F900FBE0F901F901895EF926F
:101A0000FF920F931F93FC0143832483E186F286A8
:101A10000387148781E08283718360831F910F9114
:101A2000FF90EF9008950F931F93CF93DF93EC01F6
:101A30008A81882361F0888199816B810E9459088D
:101A40008C01888199816C810E94590807C08B8123
:101A50000E9471198C018C810E947119081B190B4D
:101A6000B801882777FD8095982F0E94F904298571
:101A70003A854B855C850E9463022D813E814F81B2
:101A800058850E940502DF91CF911F910F91089513
:101A9000AF92BF92CF92DF92EF92FF920F931F937C
:101AA000CF93DF93EC017B01442309F056C080E023
:101AB00090E0A0E0B0E08D839E83AF83B887CC2414
:101AC000DD243AC08A81882361F0888199816B8105
:101AD0000E9459088C01888199816C810E94590863
:101AE00007C08B810E9471198C018C810E94711931
:101AF000081B190BB801882777FD8095982F0E9445
:101B0000F90429853A854B855C850E9463029B0117
:101B1000AC016D817E818F8198850E9436026D8334
:101B20007E838F83988761E070E080E090E00E9480
:101B300010190894C11CD11CCE14DF0418F2B7018F
:101B400080E090E00E94AB059B01AC016D817E813D
:101B50008F8198850E945D034FC080E090E00E94D5
:101B6000AB055B016C010894E108F108B70180E066
:101B700090E00E94AB05A60195010E945D039B01C8
:101B8000AC016D817E818F8198850E9463026D8397
:101B90007E838F8398878A81882361F088819981E9
:101BA0006B810E9459088C01888199816C810E9407
:101BB000590807C08B810E9471198C018C810E9489
:101BC0007119081B190BB801882777FD8095982F8C
:101BD0000E94F90429853A854B855C850E94630241
:101BE000A60195010E945D039B01AC016D817E8180
:101BF0008F8198850E9436026D837E838F839887BC
:101C0000DF91CF911F910F91FF90EF90DF90CF90D8
:101C1000BF90AF9008950F931F93CF93DF93FC0174
:101C20008189A481B5819381082F027081FF05C04D
:101C30008C91892309F454C004C08C91892309F044
:101C40004FC08185928520E001972FEF8F3F92074B
:101C5000D9F7C385D485A481B581738160E031E073
:101C600040E050E010E0CE01212F01972FEF8F3F91
:101C70009207D9F78C91872311F0632B03C0832F30
:101C800080956823330F4F5F5F4F4830510559F7F8
:101C90008585968520E001972FEF8F3F9207D9F732
:101CA000011160958091E1022091E20290E001969D
:101CB0008F73907030E08217930779F0E091E10222
:101CC000F0E0EF55FD4F60838091E10290E00196D6
:101CD0008F7390708093E10203C081898160818B52
:101CE000DF91CF911F910F91089580919F02909164
:101CF000A002009711F00E940B0E08951F920F9200
:101D00000FB60F9211242F933F934F935F936F93CE
:101D10007F938F939F93AF93BF93EF93FF930E9413
:101D2000750EFF91EF91BF91AF919F918F917F9130
:101D30006F915F914F913F912F910F900FBE0F9038
:101D40001F9018951F920F920FB60F9211242F9388
:101D50003F934F935F936F937F938F939F93AF9333
:101D6000BF93EF93FF930E94750EFF91EF91BF9188
:101D7000AF919F918F917F916F915F914F913F9123
:101D80002F910F900FBE0F901F9018951F920F92DA
:101D90000FB60F9211242F933F934F935F936F933E
:101DA0007F938F939F93AF93BF93EF93FF930E9483
:101DB000750EFF91EF91BF91AF919F918F917F91A0
:101DC0006F915F914F913F912F910F900FBE0F90A8
:101DD0001F901895FC0181810E947119A0E0B0E06C
:101DE000BC01CD010E94AB0524E739EB48E05EE37E
:101DF0000E9463020895FC0180810E947119A0E095
:101E0000B0E0BC01CD010E94AB0520E030E04DE91F
:101E10005DE30E94630208950F931F938C01862F48
:101E2000F8016083418360E00E949319F801818189
:101E300060E00E949319F801808160E00E94B91966
:101E4000F801818160E00E94B9191F910F910895F6
:101E500089B190E024E0969587952A95E1F7817005
:101E600080932703209117033091180340911903A1
:101E700050911A0380912703882329F481E090E090
:101E8000A0E0B0E004C08FEF9FEFAFEFBFEF820F95
:101E9000931FA41FB51F8093170390931803A0935B
:101EA0001903B0931A03089584B58F7D84BD89B159
:101EB00090E035E0969587953A95E1F781708093AB
:101EC000280320911B0330911C0340911D03509166
:101ED0001E0380912803882329F481E090E0A0E08C
:101EE000B0E004C08FEF9FEFAFEFBFEF820F931F03
:101EF000A41FB51F80931B0390931C03A0931D0385
:101F0000B0931E0308958F929F92AF92BF92CF928B
:101F1000DF92EF92FF920F931F930DE2C02E03E02A
:101F2000D02EC6016AE04BE02CE00DE0EE240E94CA
:101F3000650813E3A12E13E0B12EC50161E042E074
:101F40000E940C0F85E393E0B6014EE02FE00F2EC8
:101F5000F8E5EF2EF0EAFF2EFBE00F2FFDE31F2F39
:101F6000F02D0E94FF0CBAE4EB2EB3E0FB2EC7016C
:101F70000E940D1A0DE413E0C8010E940D1A80E5BD
:101F800093E00E940D1A83E593E00E940D1A00D0A1
:101F900000D000D0EDB7FEB7319682E493E0ADB744
:101FA000BEB712969C938E931197F382E2821583AB
:101FB000048386E593E06FEE72E043EF52E027EF93
:101FC00032E00BEF12E0A7E1EA2EA3E0FA2EFBE1EC
:101FD000CF2EF3E0DF2EE6E48E2EE3E09E2E0E946D
:101FE00090088DB79EB706960FB6F8949EBF0FBEA9
:101FF0008DBF1F910F91FF90EF90DF90CF90BF901A
:10200000AF909F908F9008959F92AF92BF92CF9282
:10201000DF92EF92FF920F931F93962E803829F450
:1020200021E83FEF4FEF5FEF06C0282F332727FD52
:102030003095432F532F00D000D088EE93E0A0E0DE
:10204000B0E0EDB7FEB781839283A383B483CA0166
:10205000B90121E83FEF4FEF5FEFBFE7EB2EF12C27
:10206000012D112DA0EDAA2EA7E0BA2EC12CD12C46
:102070000E944B189B01AC010F900F900F900F9096
:1020800080E593E0B9010E94271AF0E89F1629F431
:1020900021E83FEF4FEF5FEF06C0292D332727FDE3
:1020A0003095432F532F00D000D080ED97E0A0E073
:1020B000B0E0EDB7FEB781839283A383B483CA01F6
:1020C000B90121E83FEF4FEF5FEFFFE7EF2EF12C73
:1020D000012D112DE8EEAE2EE3E0BE2EC12CD12C49
:1020E0000E944B189B01AC010F900F900F900F9026
:1020F00083E593E0B9010E94271A1F910F91FF9089
:10210000EF90DF90CF90BF90AF909F9008952F9267
:102110003F924F925F926F927F928F929F92AF9277
:10212000BF92CF92DF92EF92FF920F931F93DF93B4
:10213000CF93CDB7DEB728970FB6F894DEBF0FBEAA
:10214000CDBF0E94361982E194E040E052EC61E09C
:1021500070E00E9456148AE493E06AE570E00E9401
:10216000E21A8DE493E06AE570E00E94E21A8AE4E4
:1021700093E068E070E00E94C91B8DE493E069E0A1
:1021800070E00E94C91B80E060E00E94041080E5BE
:1021900093E067E070E00E94C91B83E593E066E08E
:1021A00070E00E94C91B83E0898385E08A8382E016
:1021B0008B8384E08C837E010894E11CF11C05E094
:1021C000C02ED12CCC0EDD1ED7011D917D01812F9B
:1021D00060E00E949319812F60E00E94B919EC140D
:1021E000FD0491F780E068E27FE043E050E00E9468
:1021F000CE1781E064E57FE043E050E00E94CE1717
:1022000081E161E00E94931981E161E00E94B919C6
:1022100085E393E068EE73E040E00E94480D86E5B8
:1022200093E00E94310C0E94DC186093E7027093E7
:10223000E8028093E9029093EA022091EB02309148
:10224000EC024091ED025091EE0262177307840791
:10225000950748F180915603882381F066B170E0BC
:1022600013E0769567951A95E1F7E1E0F0E06E27C7
:102270007F27617081E10E94B91901C04398809164
:10228000E7029091E802A091E902B091EA028C5035
:102290009E4FAF4FBF4F8093EB029093EC02A09301
:1022A000ED02B093EE022091E3023091E4024091FE
:1022B000E5025091E6026091E7027091E802809198
:1022C000E9029091EA02621773078407950708F400
:1022D000A6CF6C597F4F8F4F9F4F621B730B840BA0
:1022E000950B0E94AB052FE632E143E85AE30E94CA
:1022F00063023B014C0185E393E00E94130D7B01D7
:102300008C01609346037093470380934803909336
:102310004903A40193010E9463029B01AC016091F7
:1023200042037091430380914403909145030E94BE
:102330003602609342037093430380934403909367
:102340004503C801B70120E030E040E050E00E94C2
:10235000390418165CF4C801B7012FE632E143E8EE
:102360005AE30E94C904181694F10AC0C801B701C3
:102370002FE632E143E85AEB0E94690488233CF1DE
:102380006091EF027091F0028091F1029091F2025F
:1023900020E030E040E050E00E9409048823B9F4D6
:1023A0006091F3027091F4028091F5029091F6022F
:1023B00020E030E040E050E00E940904882339F436
:1023C00085E393E068EE73E041E00E94480D609180
:1023D000EF027091F0028091F1029091F20220914F
:1023E000F7023091F8024091F9025091FA020E94EE
:1023F00005026D837E838F8398876091F3027091CD
:10240000F4028091F5029091F6022091FB02309146
:10241000FC024091FD025091FE020E9405021B0148
:102420002C0160911703709118038091190390910A
:102430001A0320911F0330912003409121035091F2
:102440002203621B730B840B950B0E94F90420E797
:102450003CE34BE85BE30E946302A40193010E940A
:102460005D036093F7027093F8028093F9029093F2
:10247000FA0260911B0370911C0380911D039091DF
:102480001E03209123033091240340912503509192
:102490002603621B730B840B950B0E94F90420E743
:1024A0003CE34BE85BE30E946302A40193010E94BA
:1024B0005D036093FB027093FC028093FD02909396
:1024C000FE028091170390911803A0911903B09117
:1024D0001A0380931F0390932003A0932103B093CA
:1024E000220380911B0390911C03A0911D03B091C6
:1024F0001E038093230390932403A0932503B0939A
:1025000026036D817E818F819885A40193010E94AD
:1025100063022091FF02309100034091010350912A
:1025200002030E9436025B016C01C201B101A401E9
:1025300093010E94630220910303309104034091B0
:102540000503509106030E9436023B014C01C6016F
:10255000B50120E030E04EEF52EC0E949904882350
:102560005CF40F2EF0E0AF2EF0E0BF2EFEEFCF2E8A
:10257000F2ECDF2EF02D14C0C601B50120E030E0F2
:102580004EEF52E40E943904181654F40F2EF0E076
:10259000AF2EF0E0BF2EFEEFCF2EF2E4DF2EF02DB7
:1025A000A092FF02B0920003C0920103D0920203F6
:1025B000C401B30120E030E04EEF52EC0E949904D8
:1025C00088235CF40F2EF0E06F2EF0E07F2EFEEFFC
:1025D0008F2EF2EC9F2EF02D14C0C401B30120E029
:1025E00030E04EEF52E40E943904181654F40F2ED6
:1025F000F0E06F2EF0E07F2EFEEF8F2EF2E49F2EA4
:10260000F02D609203037092040380920503909270
:1026100006036D817E818F819885209167023091BC
:1026200068024091690250916A020E9463027B0134
:102630008C01C601B50120916B0230916C02409172
:102640006D0250916E020E9463029B01AC01C801B1
:10265000B7010E9436027B018C016D817E818F81E2
:102660009885209107033091080340910903509108
:102670000A030E9405022DEC3CEC4CEC5DE30E9449
:102680005D0320916F023091700240917102509170
:1026900072020E9463029B01AC01C801B7010E9453
:1026A00036025B016C0160930F03709310038093FB
:1026B000110390931203C201B10120917302309172
:1026C000740240917502509176020E9463027B0170
:1026D0008C01C401B30120917702309178024091BE
:1026E000790250917A020E9463029B01AC01C801F9
:1026F000B7010E9436027B018C01C201B101209119
:102700000B0330910C0340910D0350910E030E9476
:1027100005022DEC3CEC4CEC5DE30E945D03209146
:102720007B0230917C0240917D0250917E020E949A
:1027300063029B01AC01C801B7010E9436027B0114
:102740008C0160931303709314038093150390938B
:1027500016038D819E81AF81B88580930703909386
:102760000803A0930903B0930A0320920B0330924D
:102770000C0340920D0350920E0360912B03709155
:102780002C03882777FD8095982F0E94F904A801D3
:1027900097010E9436020E945705162F072F60915D
:1027A000290370912A03882777FD8095982F0E942E
:1027B000F904A60195010E9436020E94570560386F
:1027C000710514F06FE770E09FEF6138790714F43A
:1027D00061E87FEF70932A0360932903812F902F84
:1027E0009C012038310514F02FE730E0AFEF21389D
:1027F0003A0714F421E83FEF30932C0320932B0386
:10280000862F622F0E9404108091E7029091E802C7
:10281000A091E902B091EA028C599F4FAF4FBF4F90
:102820008093E3029093E402A093E502B093E60262
:10283000F6CC1F920F920FB60F9211242F933F9355
:102840004F935F936F937F938F939F93AF93BF93B8
:10285000EF93FF934091C600E0910E04F0910F04B6
:10286000CF01019660E870E00E94CC1C9C01809131
:102870001004909111042817390739F0E257FC4FE2
:10288000408330930F0420930E04FF91EF91BF918A
:10289000AF919F918F917F916F915F914F913F91F8
:1028A0002F910F900FBE0F901F9018955F926F920F
:1028B0007F928F929F92AF92BF92CF92DF92EF92D0
:1028C000FF920F931F93CF93DF93EC015A016B019B
:1028D00081E4A81682E4B8068FE0C80680E0D80636
:1028E00008F077C060E874E88EE190E0A6019501F9
:1028F0000E94DF1C39014A010894610871088108AF
:1029000091089694879477946794A40193012F5F1C
:102910003F4F4F4F5F4F74E0220F331F441F551F2F
:102920007A95D1F760E074E284EF90E00E94DF1CBA
:10293000CA01B9012FEF30E040E050E00E948D1C49
:10294000A60195010E94DF1C8FEF90E0821B930B84
:10295000181619061CF4522E509402C0522E53948D
:1029600060E079E08DE390E0A60195010E94DF1C14
:102970002150304040405040569547953795279517
:102980002F5F3F4F4F4F5F4F93E0220F331F441F86
:10299000551F9A95D1F760E074E284EF90E00E94B1
:1029A000DF1CCA01B9012FEF30E040E050E00E9487
:1029B0008D1CA60195010E94DF1C8FEF90E0821B09
:1029C000930B1816190614F4209501C02F5F2515D6
:1029D000F0F4E885F98581E090E00A8802C0880F6C
:1029E000991F0A94E2F7808360E079E08DE390E03C
:1029F000A60195010E94DF1C21503040404050400C
:102A00005695479537952795822F232F05C0E88542
:102A1000F9851082862D272DEC81FD812083EE81A2
:102A2000FF818083EA85FB85208141E050E0CA0177
:102A30000E8402C0880F991F0A94E2F7282B208386
:102A4000EA85FB852081CA010F8402C0880F991F87
:102A50000A94E2F7282B2083EA85FB858081088889
:102A600002C0440F551F0A94E2F7842B8083DF9144
:102A7000CF911F910F91FF90EF90DF90CF90BF907B
:102A8000AF909F908F907F906F905F900895DC0142
:102A90001296ED91FC911397E058FF4F819191911F
:102AA00080589F4F20813181821B930B60E870E03A
:102AB0000E94CC1C0895DC011296ED91FC911397B5
:102AC000EE57FF4F2081318192918291E058F04082
:102AD0008217930719F42FEF3FEF05C0E20FF31FA2
:102AE0008081282F30E0C9010895CF93DF93DC0166
:102AF0001296ED91FC911397EF01CE57DF4F48816D
:102B00005981E058FF4F80819181E058F04084174F
:102B1000950719F42FEF3FEF0CC0E40FF51F20814C
:102B2000CA01019660E870E00E94CC1C99838883FA
:102B300030E0C901DF91CF910895DC011296ED914B
:102B4000FC911397EE57FF4F80819181929382936E
:102B50000895FC01A085B18521898C9190E0022E19
:102B600002C0959587950A94E2F780FFF6CF04841A
:102B7000F585E02D6083089584E892E09093130436
:102B8000809312048EE893E09093150480931404CC
:102B900085EC90E0909317048093160484EC90E009
:102BA000909319048093180480EC90E090931B0498
:102BB00080931A0481EC90E090931D0480931C0490
:102BC00086EC90E090931F0480931E0484E0809331
:102BD000200483E08093210487E08093220485E031
:102BE0008093230481E08093240408950F931F931E
:102BF000CF93DF938C01EB0109C02196D801ED91B1
:102C0000FC910190F081E02DC8010995688166234F
:102C1000A1F7DF91CF911F910F910895EF92FF924D
:102C20000F931F93CF93DF938C017B01EA010CC0BC
:102C3000D7016D917D01D801ED91FC910190F0815A
:102C4000E02DC80109952197209791F7DF91CF9149
:102C50001F910F91FF90EF900895DC01ED91FC9191
:102C60000280F381E02D099508952F923F924F92B3
:102C70005F926F927F928F929F92AF92BF92CF920C
:102C8000DF92EF92FF920F931F93DF93CF93CDB715
:102C9000DEB7A0970FB6F894DEBF0FBECDBF1C0104
:102CA0006A017B01411551056105710549F440E355
:102CB00050E060E070E020E030E00E94DC1654C09C
:102CC000882499245401422E55246624772401E057
:102CD00010E00C0F1D1F080D191DC701B601A3013F
:102CE00092010E94DF1CF80160830894811C911CF2
:102CF000A11CB11CC701B601A30192010E94DF1CF7
:102D0000C901DA016C017D01C114D104E104F104AF
:102D1000F1F681E0E82EF12CEC0EFD1EE80CF91C1A
:102D20003E010894611C711CD501C4010197A109E1
:102D3000B1096C01C818D90814C0F601EE0DFF1DC9
:102D400040814A3010F4405D01C0495C50E060E0D1
:102D500070E0C10120E030E00E94DC160894E10838
:102D6000F1086E147F0449F7A0960FB6F894DEBF01
:102D70000FBECDBFCF91DF911F910F91FF90EF90CC
:102D8000DF90CF90BF90AF909F908F907F906F908B
:102D90005F904F903F902F900895DC0121153105F1
:102DA00041F4ED91FC910190F081E02D642F0995A3
:102DB00008950E9435160895EF92FF920F931F9386
:102DC000CF93DF93EC017A018B012115310541F49A
:102DD000E881F9810190F081E02D642F09951BC0F5
:102DE0002A303105B1F477FF10C04DE250E060E0C9
:102DF00070E020E030E00E94DC1610950095F09421
:102E0000E094E11CF11C011D111DCE01B801A701C8
:102E10002AE00E943516DF91CF911F910F91FF900C
:102E2000EF9008950F931F938C014DE050E060E008
:102E300070E020E030E00E94DC16C8014AE050E07B
:102E400060E070E020E030E00E94DC161F910F91FE
:102E500008950F931F938C010E942D16C8010E94A4
:102E600012171F910F9108959F92AF92BF92CF9228
:102E7000DF92EF92FF920F931F93CF93DF93EC01BA
:102E80007A018B01922ECB01BA0120E030E040E0C4
:102E900050E00E94990488236CF4CE014DE250E08A
:102EA00060E070E020E030E00E94DC1617FB109537
:102EB00017F9109520E030E040E05FE3AA240BC052
:102EC000CA01B90120E030E040E251E40E945D0314
:102ED0009B01AC01A394A91498F3C801B7010E9407
:102EE00036025B016C010E948D007B018C01CE01DA
:102EF000B801A7012AE030E00E94CD16992029F000
:102F0000CE016DE571E00E942D16C801B7010E9447
:102F1000AB059B01AC01C601B5010E94050222C0B0
:102F200020E030E040E251E40E9463027B018C012A
:102F30000E9457055B016C01CC24B7FCC094DC2CCB
:102F4000CE01B601A5012AE030E00E94DC16C601E0
:102F5000B5010E94F9049B01AC01C801B7010E94B0
:102F600005029A949920E1F6DF91CF911F910F917C
:102F7000FF90EF90DF90CF90BF90AF909F9008951B
:102F80000E94341708950F931F938C010E943417E9
:102F9000C8010E9412171F910F910895823000F509
:102FA000E82FF0E0EE0FFF1FEB5DFB4F71836083B6
:102FB000882319F08130A1F408C0809169008C7FCA
:102FC000842B80936900E89A089580916900440FEA
:102FD000551F440F551F837F842B80936900E99A06
:102FE00008951F920F920FB60F9211242F933F93C3
:102FF0004F935F936F937F938F939F93AF93BF9301
:10300000EF93FF938091250490912604892B29F05A
:10301000E0912504F09126040995FF91EF91BF916D
:10302000AF919F918F917F916F915F914F913F9160
:103030002F910F900FBE0F901F9018951F920F9217
:103040000FB60F9211242F933F934F935F936F937B
:103050007F938F939F93AF93BF93EF93FF93809151
:10306000270490912804892B29F0E0912704F091FE
:1030700028040995FF91EF91BF91AF919F918F9196
:103080007F916F915F914F913F912F910F900FBE64
:103090000F901F9018952F923F924F925F926F92D0
:1030A0007F928F929F92AF92BF92CF92DF92EF92D8
:1030B000FF920F931F93DF93CF93CDB7DEB73B0102
:1030C0004C0119012A016D897E898F89988D6A19B1
:1030D0007B098C099D09621A730A840A950AA40166
:1030E00093010E948D1CE218F30804091509A80138
:1030F00097010E94011D2A0D3B1D4C1D5D1DB9014C
:10310000CA01CF91DF911F910F91FF90EF90DF9057
:10311000CF90BF90AF909F908F907F906F905F9077
:103120004F903F902F9008951F920F920FB60F92DD
:1031300011242F933F938F939F93AF93BF938091CD
:103140002D0490912E04A0912F04B0913004309161
:1031500031040196A11DB11D232F2D5F2D3720F0C5
:103160002D570196A11DB11D2093310480932D048C
:1031700090932E04A0932F04B093300480912904DF
:1031800090912A04A0912B04B0912C040196A11DCA
:10319000B11D8093290490932A04A0932B04B0932B
:1031A0002C04BF91AF919F918F913F912F910F90E0
:1031B0000FBE0F901F9018958FB7F89420912D0493
:1031C00030912E0440912F04509130048FBFB901EB
:1031D000CA0108959FB7F8942091290430912A04D8
:1031E00040912B0450912C0486B5A89B06C08F3FBC
:1031F00021F02F5F3F4F4F4F5F4F9FBF542F432F03
:10320000322F2227280F311D411D511D82E0220F30
:10321000331F441F551F8A95D1F7B901CA0108957C
:10322000EF92FF920F931F93CF93DF937B018C015B
:103230000E94EA18EB010EC00E94EA186C1B7D0B7D
:10324000685E7340C8F30894E108F10801091109A8
:10325000C851DC4FE114F1040105110569F7DF9154
:10326000CF911F910F91FF90EF900895789484B5BE
:10327000826084BD84B5816084BD85B5826085BD72
:1032800085B5816085BDEEE6F0E080818160808358
:10329000E1E8F0E01082808182608083808181603B
:1032A0008083E0E8F0E0808181608083E1EBF0E002
:1032B000808184608083E0EBF0E0808181608083A6
:1032C000EAE7F0E08081846080838081826080838F
:1032D0008081816080838081806880831092C100BA
:1032E0000895982F8E3008F09E50977080917F023D
:1032F0008295880F880F807C892B80937C00809139
:103300007A00806480937A0080917A0086FDFCCFF9
:103310002091780040917900942F80E030E0282BB4
:10332000392BC9010895482F50E0CA0186569F4F96
:10333000FC0124914A575F4FFA0184918823C1F020
:10334000E82FF0E0EE0FFF1FE859FF4FA591B49171
:10335000662341F49FB7F8948C91209582238C9337
:103360009FBF08959FB7F8948C91822B8C939FBF39
:103370000895482F50E0CA0182559F4FFC012491C7
:10338000CA0186569F4FFC0134914A575F4FFA019C
:103390009491992309F440C0222331F1233021F480
:1033A000809180008F7705C0243031F480918000B7
:1033B0008F7D8093800018C0213019F484B58F77F9
:1033C00004C0223021F484B58F7D84BD0DC0263029
:1033D00021F48091B0008F7705C0273029F48091C7
:1033E000B0008F7D8093B000E92FF0E0EE0FFF1F5B
:1033F000EE58FF4FA591B491662341F49FB7F8941E
:103400008C91309583238C939FBF08959FB7F89438
:103410008C91832B8C939FBF0895FC018091320483
:103420008C3090F480838F5F80933204815090E0E1
:10343000FC01EE0FFF1FE80FF91FED5CFB4F88EB5F
:103440009BE09283818308958FEF80830895FC0130
:1034500020812C3008F041C08181992787FD90950B
:1034600048E850E0481B590B440F551F440F551FA7
:103470006417750784F08281992787FD909548E548
:1034800052E0481B590B440F551F440F551F64173A
:1034900075070CF4AB0142505040CA01AA2797FDB2
:1034A000A095BA2F44E0880F991FAA1FBB1F4A9509
:1034B000D1F733E0B695A795979587953A95D1F7CB
:1034C0004FB7F89430E0F901EE0FFF1FE20FF31F42
:1034D000ED5CFB4F928381834FBF0895FC01808197
:1034E0008F3F19F420E030E016C090E0FC01EE0FB1
:1034F000FF1FE80FF91FED5CFB4F2181328183E054
:10350000220F331F8A95E1F7B4E036952795BA95D7
:10351000E1F72E5F3F4FC9010895AF92BF92CF925E
:10352000DF92EF92FF920F931F938C010E946E1A0D
:1035300000D000D00196AA2797FDA095BA2FF801D8
:103540006181772767FD709528E830E0261B370BEF
:10355000220F331F220F331F442737FD4095542F6E
:103560006281772767FD7095E8E5EE2EE2E0FE2E9A
:10357000E61AF70AEE0CFF1CEE0CFF1C0027F7FC06
:103580000095102F64EBA62EB12CC12CD12CEDB7D9
:10359000FEB7A182B282C382D482BC01CD01AA242B
:1035A000BB2465010E944B180F900F900F900F9055
:1035B000CB011F910F91FF90EF90DF90CF90BF90C4
:1035C000AF900895AF92BF92CF92DF92EF92FF92A9
:1035D0000F931F93CF93DF93EC019B0182E0603246
:1035E00078070CF048C077FF03C020E030E005C04A
:1035F000653B710514F024EB30E000D000D0B90138
:10360000882777FD8095982F2981332727FD3095CE
:10361000B8E8AB2EB12CA21AB30AAA0CBB1CAA0C98
:10362000BB1CCC24B7FCC094DC2CEA81FF27E7FD4F
:10363000F09528E532E02E1B3F0B220F331F220F9F
:10364000331F442737FD4095542FEDB7FEB7218334
:1036500032834383548320E030E040E050E0E4EBE9
:10366000EE2EF12C012D112D0E944B189B010F9075
:103670000F900F900F90CE01B9010E94271ADF9191
:10368000CF911F910F91FF90EF90DF90CF90BF905F
:10369000AF900895CF92DF92EF92FF921F93CF9356
:1036A000DF93EC01162F7A01690188818C3008F0D4
:1036B00064C0862F61E00E949319888190E0FC012C
:1036C000EE0FFF1FE80FF91FED5CFB4F1F738081AA
:1036D000807C812B808380E292E08E199F0964E0D8
:1036E00070E00E94CC1C698380E699E08C199D09EA
:1036F00064E070E00E94CC1C6A83A8818A2F6CE091
:103700000E94AC1C682F90E0AC01440F551F480F7D
:10371000591F440F551F440F551F20E030E0C901C9
:10372000840F951FFC01EE0FFF1FE80FF91FED5CE2
:10373000FB4F808186FD15C02F5F3F4F2C30310538
:1037400071F724C01092800082E080938100109273
:10375000850010928400B19A80916F0082608093FE
:103760006F008A2F90E0FC01EE0FFF1FE80FF91F9A
:10377000ED5CFB4F8081806480838881DF91CF91F5
:103780001F91FF90EF90DF90CF9008956623D1F2C4
:10379000E8CF40E252E020E639E00E944A1B08955B
:1037A0001F920F920FB60F9211242F933F934F93B6
:1037B0005F936F937F938F939F93AF93BF93EF9399
:1037C000FF938091570487FF05C0109285001092E7
:1037D00084002BC020915704332727FD309580911A
:1037E000320490E02817390704F58091570499278F
:1037F00087FD9095FC01EE0FFF1FE80FF91FED5CB0
:10380000FB4F808186FF11C080915704992787FD67
:103810009095FC01EE0FFF1FE80FF91FED5CFB4FC9
:1038200080818F7360E00E94B919809157048F5F87
:103830008093570420915704332727FD30958091BA
:10384000320490E0281739070CF04EC080915704DD
:103850008C300CF049C0209184003091850080911B
:103860005704992787FD9095FC01EE0FFF1FE80F85
:10387000F91FED5CFB4F81819281280F391F309336
:1038800089002093880080915704992787FD90959F
:10389000FC01EE0FFF1FE80FF91FED5CFB4F80816D
:1038A00086FF2AC080915704992787FD9095FC01D7
:1038B000EE0FFF1FE80FF91FED5CFB4F80818F7348
:1038C00061E00E94B91918C080E49CE905C08091AC
:1038D00084009091850004969093890080938800DD
:1038E0008FEF8093570408C08091840090918500E9
:1038F00084549C4948F3EBCFFF91EF91BF91AF9176
:103900009F918F917F916F915F914F913F912F91F7
:103910000F900FBE0F901F901895629FD001739F5C
:10392000F001829FE00DF11D649FE00DF11D929F5B
:10393000F00D839FF00D749FF00D659FF00D99279A
:10394000729FB00DE11DF91F639FB00DE11DF91FBE
:10395000BD01CF0111240895991B79E004C0991F7E
:10396000961708F0961B881F7A95C9F780950895D9
:10397000AA1BBB1B51E107C0AA1FBB1FA617B70795
:1039800010F0A61BB70B881F991F5A95A9F78095B1
:103990009095BC01CD01089597FB092E07260AD00A
:1039A00077FD04D0E5DF06D000201AF4709561950C
:1039B0007F4F0895F6F7909581959F4F0895A1E266
:1039C0001A2EAA1BBB1BFD010DC0AA1FBB1FEE1F99
:1039D000FF1FA217B307E407F50720F0A21BB30BE4
:1039E000E40BF50B661F771F881F991F1A9469F760
:1039F00060957095809590959B01AC01BD01CF01BC
:103A0000089597FB092E05260ED057FD04D0D7DF69
:103A10000AD0001C38F450954095309521953F4FC1
:103A20004F4F5F4F0895F6F790958095709561958B
:103A30007F4F8F4F9F4F08952F923F924F925F92EB
:103A40006F927F928F929F92AF92BF92CF92DF92AE
:103A5000EF92FF920F931F93CF93DF93CDB7DEB713
:103A6000CA1BDB0B0FB6F894DEBF0FBECDBF0994A7
:103A70002A88398848885F846E847D848C849B84FE
:103A8000AA84B984C884DF80EE80FD800C811B810C
:103A9000AA81B981CE0FD11D0FB6F894DEBF0FBE3B
:103AA000CDBFED010895EE0FFF1F0590F491E02DBD
:103AB0000994FB0151915523A9F0BF01DC014D91FF
:103AC00045174111E1F759F4CD010190002049F06B
:103AD0004D9140154111C9F3FB014111EFCF81E038
:0A3AE00090E001970895F894FFCFDD
:103AEA00734452560067454E430067475952006770
:103AFA004254590067534552007353455200674375
:103B0A004E5400674C5350006752535000674C4D57
:103B1A00530067524D5300674241540020766F6C40
:103B2A0074732C200020616D70730D0A00494E5683
:103B3A00414C494420434F4D4D414E44002E000014
:103B4A000000000000000000010202030303030456
:103B5A000404040404040405050505050505050512
:103B6A0005050505050505060606060606060606F2
:103B7A0006060606060606060606060606060606DB
:103B8A0006060606060606070707070707070707C2
:103B9A0007070707070707070707070707070707AB
:103BAA00070707070707070707070707070707079B
:103BBA00070707070707070707070707070707078B
:103BCA000707070707070708080808080808080872
:103BDA00080808080808080808080808080808085B
:103BEA00080808080808080808080808080808084B
:103BFA00080808080808080808080808080808083B
:103C0A00080808080808080808080808080808082A
:103C1A00080808080808080808080808080808081A
:103C2A00080808080808080808080808080808080A
:103C3A0008080808080808080808080808080808FA
:103C4A00080808080808089A99993ECDCC4C3D0006
:103C5A000000009A99993ECDCC4C3D00000000012D
:103C6A0000000000A915F6150E16471575159D15C5
:023C7A005B15D8
:00000001FF
