:100000000C9463000C94961A0C94C31A0C94471128
:100010000C946B110C948F110C948B000C948B002E
:100020000C948B000C949E0F0C948B000C94751EFA
:100030000C948B000C948B000C948B000C948B0014
:100040000C94391B0C948B000C94BE160C948B00F2
:100050000C948B000C948B000C948B000C948B00F4
:100060000C948B000C948B000000000024002700EF
:100070002A0000000000250028002B0000000000DE
:1000800023002600290004040404040404040202DA
:100090000202020203030303030301020408102007
:1000A0004080010204081020010204081020000012
:1000B0000007000201000003040600000000000029
:1000C0000000A612611811241FBECFEFD8E0DEBFDA
:1000D000CDBF12E0A0E0B1E0E4E3F0E402C005909F
:1000E0000D92A03BB107D9F714E0A0EBB2E001C03C
:1000F0001D92A53DB107E1F710E0C6ECD0E004C0C9
:100100002297FE010E94FA1FC23CD107C9F70E9444
:10011000FD130C9418200C940000EF92FF920F93A3
:100120001F937B018C0120E030E040E05FE40E94FF
:10013000690488238CF0C801B70120E030E040E07A
:100140005FE40E9405020E9457059B01AC0120500C
:1001500030404040504806C0C801B7010E945705D2
:100160009B01AC01B901CA011F910F91FF90EF9063
:100170000895A0E0B0E0EFEBF0E00C94C11FDC01CB
:100180002B01FA019C91923008F439C1EB0188816E
:10019000823008F433C1943069F4843009F02FC1FF
:1001A00011969C9111978981981709F428C1A5E9A6
:1001B000B1E025C1843009F421C18230A9F4923024
:1001C00009F01DC19A01AD0188E0EA010990AE0174
:1001D000E90109929E018150C1F7E20189811196DE
:1001E0009C918923818308C1923009F407C112963A
:1001F0002D903C901397EB018A819B811496AD90D2
:10020000BD90CD90DC901797EC80FD800E811F8112
:100210009101281B390BB90137FF04C066277727E6
:10022000621B730B603271050CF061C0121613066D
:100230006CF537014801062E04C096948794779494
:1002400067940A94D2F721E030E040E050E004C027
:10025000220F331F441F551F6A95D2F7215030409B
:10026000404050402E213F2140235123211531058C
:100270004105510521F021E030E040E050E07901F6
:100280008A01E628F728082919293CC0232BD1F137
:10029000260E371E35014601062E04C0969487941B
:1002A000779467940A94D2F721E030E040E050E080
:1002B00004C0220F331F441F551F6A95D2F72150E7
:1002C0003040404050402A213B214C215D212115E6
:1002D00031054105510521F021E030E040E050E0DA
:1002E00059016A01A628B728C828D9280BC0821549
:1002F00093052CF01C01AA24BB24650103C0EE2445
:10030000FF24870111969C91D20111968C91981728
:1003100009F445C0992339F0A80197012A193B092E
:100320004C095D0906C0A60195012E193F09400B35
:10033000510B57FD08C011823382228224833583FA
:10034000468357831DC081E08183338222828827C0
:100350009927DC01821B930BA40BB50B8483958337
:10036000A683B7830DC0220F331F441F551F24835C
:100370003583468357838281938101979383828358
:100380002481358146815781DA01C9010197A1098C
:10039000B1098F5F9F4FAF4FBF4328F30BC09183CD
:1003A00033822282EA0CFB1C0C1D1D1DE482F582A7
:1003B0000683178383E080832481358146815781BA
:1003C00057FF1AC0C901AA2797FDA095BA2F8170BF
:1003D0009070A070B0705695479537952795822BF1
:1003E000932BA42BB52B84839583A683B78382811B
:1003F0009381019693838283DF0101C0D201CD01F5
:10040000CDB7DEB7E2E10C94DD1FA0E2B0E0EBE097
:10041000F2E00C94CD1F69837A838B839C832D83B8
:100420003E834F835887E9E0EE2EF12CEC0EFD1E43
:10043000CE010196B7010E9449078E010F5E1F4F42
:10044000CE010596B8010E9449078A8991E0892763
:100450008A8BC701B801AE01475E5F4F0E94B900A9
:100460000E947306A096E6E00C94E91FA0E2B0E0BB
:10047000ECE3F2E00C94CD1F69837A838B839C8339
:100480002D833E834F835887F9E0EF2EF12CEC0E3D
:10049000FD1ECE010196B7010E9449078E010F5E35
:1004A0001F4FCE010596B8010E944907C701B80148
:1004B000AE01475E5F4F0E94B9000E947306A0968E
:1004C000E6E00C94E91FA0E2B0E0E9E6F2E00C946B
:1004D000C11F69837A838B839C832D833E834F83E3
:1004E0005887CE010196BE01675F7F4F0E94490782
:1004F000CE010596BE016F5E7F4F0E944907998528
:10050000923088F089898230C8F0943019F48230B2
:1005100051F404C0843029F4923081F485E991E0EB
:10052000C6C0923049F420E09A858A89981321E068
:100530002A87CE010996BBC0823049F420E09A8513
:100540008A89981321E02A8BCE014196B0C02D8470
:100550003E844F8458886D887E888F88988CEE24DE
:10056000FF248701AA24BB24650140E050E060E03D
:1005700070E0E0E0F0E0C10181709070892BE9F05B
:10058000E60CF71C081D191D9A01AB012A0D3B1D35
:100590004C1D5D1D80E090E0A0E0B0E0E614F704A3
:1005A0000805190520F481E090E0A0E0B0E0BA0170
:1005B000A901480F591F6A1F7B1FAA0CBB1CCC1C2A
:1005C000DD1C97FE08C081E090E0A0E0B0E0A82A22
:1005D000B92ACA2ADB2A3196E032F10549F0660CC5
:1005E000771C881C991C5694479437942794C3CF42
:1005F000FA85EA892B893C898B859C85280F391FD0
:100600002E5F3F4F17C0CA0181709070892B61F037
:1006100016950795F794E79480E090E0A0E0B0E8A5
:10062000E82AF92A0A2B1B2B76956795579547954B
:100630002F5F3F4F77FDE7CF0CC0440F551F661F5C
:10064000771F17FD4160EE0CFF1C001F111F21508A
:100650003040403090E0590790E0690790E4790716
:1006600060F32B8F3C8FDB01CA018F779070A070F5
:10067000B07080349105A105B10561F447FD0AC051
:10068000E114F1040105110529F0405C5F4F6F4F43
:100690007F4F40781A8EFE1711F081E08A8F4D8FC0
:1006A0005E8F6F8F78A383E0898FCE0149960E9479
:1006B0007306A096E2E10C94DD1FA8E1B0E0E3E64A
:1006C000F3E00C94C91F69837A838B839C832D8309
:1006D0003E834F835887B9E0EB2EF12CEC0EFD1EC4
:1006E000CE010196B7010E9449078E010F5E1F4F90
:1006F000CE010596B8010E9449072985223008F4E9
:100700007EC03989323010F4B8017CC08A859A895C
:1007100089278A87243011F0223031F4231709F019
:100720006EC065E971E06EC0343039F41D861E86F6
:100730001F86188A1C861B8604C0323021F484E090
:100740008987B7015FC02B853C858B899C89281BD5
:10075000390B3C872B87ED84FE840F851889AD8883
:10076000BE88CF88D88CEA14FB040C051D0540F424
:10077000EE0CFF1C001F111F215030403C872B87BF
:1007800020E030E040E050E080E090E0A0E0B0E425
:1007900060E070E0EA14FB040C051D0540F0282B16
:1007A000392B4A2B5B2BEA18FB080C091D09B6955F
:1007B000A79597958795EE0CFF1C001F111F6F5F83
:1007C0007F4F6F31710531F7DA01C9018F77907072
:1007D000A070B07080349105A105B10561F427FDCA
:1007E0000AC0E114F1040105110529F0205C3F4F16
:1007F0004F4F5F4F20782D873E874F87588BBE0124
:10080000675F7F4FCB010E9473066896EAE00C9405
:10081000E51FA8E1B0E0EFE0F4E00C94CD1F6983A0
:100820007A838B839C832D833E834F83588789E013
:10083000E82EF12CEC0EFD1ECE010196B7010E94B0
:1008400049078E010F5E1F4FCE010596B8010E9429
:1008500049078985823040F08989823028F0C701B4
:10086000B8010E94C10701C081E06896E6E00C94DF
:10087000E91FA8E1B0E0EFE3F4E00C94CD1F698339
:100880007A838B839C832D833E834F83588789E0B3
:10089000E82EF12CEC0EFD1ECE010196B7010E9450
:1008A00049078E010F5E1F4FCE010596B8010E94C9
:1008B00049078985823040F08989823028F0C70154
:1008C000B8010E94C10701C08FEF6896E6E00C9462
:1008D000E91FA8E1B0E0EFE6F4E00C94CD1F6983D6
:1008E0007A838B839C832D833E834F83588789E053
:1008F000E82EF12CEC0EFD1ECE010196B7010E94F0
:1009000049078E010F5E1F4FCE010596B8010E9468
:1009100049078985823040F08989823028F0C701F3
:10092000B8010E94C10701C08FEF6896E6E00C9401
:10093000E91FA8E1B0E0EFE9F4E00C94CD1F698372
:100940007A838B839C832D833E834F83588789E0F2
:10095000E82EF12CEC0EFD1ECE010196B7010E948F
:1009600049078E010F5E1F4FCE010596B8010E9408
:1009700049078985823040F08989823028F0C70193
:10098000B8010E94C10701C081E06896E6E00C94BE
:10099000E91FA8E1B0E0EFECF4E00C94CD1F69830F
:1009A0007A838B839C832D833E834F83588789E092
:1009B000E82EF12CEC0EFD1ECE010196B7010E942F
:1009C00049078E010F5E1F4FCE010596B8010E94A8
:1009D00049078985823040F08989823028F0C70133
:1009E000B8010E94C10701C081E06896E6E00C945E
:1009F000E91FA8E0B0E0EFEFF4E00C94CA1F9B0100
:100A0000AC0183E08983DA01C9018827B7FD8395AA
:100A10009927AA27BB27B82E211531054105510575
:100A200019F482E089833AC08823A9F0203080E05D
:100A3000380780E0480780E8580729F460E070E054
:100A400080E09FEC30C0EE24FF248701E21AF30A15
:100A5000040B150B02C079018A018EE1C82ED12C3E
:100A6000DC82CB82ED82FE820F831887C801B7013A
:100A70000E94240601971816190684F4082E04C053
:100A8000EE0CFF1C001F111F0A94D2F7ED82FE82AC
:100A90000F831887C81AD90ADC82CB82BA82CE01AA
:100AA00001960E9473062896E9E00C94E61FACE0DC
:100AB000B0E0EDE5F5E00C94D11F69837A838B8378
:100AC0009C83CE010196BE016B5F7F4F0E94490758
:100AD0008D81823061F1823050F1843021F48E8139
:100AE000882351F12EC02F81388537FD20C06E81BB
:100AF0002F3131051CF06623F9F023C08EE190E020
:100B0000821B930B29853A854B855C8504C05695DD
:100B10004795379527958A95D2F76623B1F050957A
:100B20004095309521953F4F4F4F5F4F0EC020E0CD
:100B300030E040E050E009C02FEF3FEF4FEF5FE7BC
:100B400004C020E030E040E050E8B901CA012C9632
:100B5000E2E00C94ED1FA8E0B0E0E1EBF5E00C94CE
:100B6000C91F7B018C01611571058105910519F47F
:100B700082E0898360C083E089838EE1C82ED12C16
:100B8000DC82CB82ED82FE820F831887C801B70119
:100B90000E942406FC013197F7FF3BC02227332730
:100BA0002E1B3F0B57016801022E04C0D694C79438
:100BB000B794A7940A94D2F740E050E060E070E068
:100BC00081E090E0A0E0B0E004C0880F991FAA1F68
:100BD000BB1F2A95D2F70197A109B1098E219F2148
:100BE000A023B1230097A105B10521F041E050E019
:100BF00060E070E04A295B296C297D294D835E8382
:100C00006F8378878EE190E08E1B9F0B9C838B8394
:100C100012C0309781F00E2E04C0EE0CFF1C001F96
:100C2000111F0A94D2F7ED82FE820F831887CE1A25
:100C3000DF0ADC82CB821A82CE0101960E94730603
:100C40002896EAE00C94E51FEF92FF920F931F9312
:100C50007B018C0180E0E81680E0F80681E008075F
:100C600080E0180788F48FEFE816F10401051105FC
:100C700031F028F088E090E0A0E0B0E017C080E01C
:100C800090E0A0E0B0E012C080E0E81680E0F80656
:100C900080E0080781E0180728F088E190E0A0E0F4
:100CA000B0E004C080E190E0A0E0B0E020E230E0FD
:100CB00040E050E0281B390B4A0B5B0B04C0169533
:100CC0000795F794E7948A95D2F7F701E356FE4F1C
:100CD0008081281B310941095109C9011F910F91D8
:100CE000FF90EF900895DF92EF92FF920F931F9382
:100CF000FC01E480F58006811781D18080818230FB
:100D000058F480E090E0A0E1B0E0E82AF92A0A2B4C
:100D10001B2BEFEFF0E0A6C0843009F49EC08230B8
:100D200019F4E0E0F0E09BC0E114F10401051105C5
:100D300019F4E0E0F0E096C0628173819FEF6238C1
:100D400079070CF05BC022E83FEF261B370B2A31F6
:100D500031052CF020E030E040E050E02AC0B8013E
:100D6000A701022E04C076956795579547950A947A
:100D7000D2F781E090E0A0E0B0E004C0880F991FB6
:100D8000AA1FBB1F2A95D2F70197A109B1098E218D
:100D90009F21A023B1230097A105B10521F081E097
:100DA00090E0A0E0B0E09A01AB01282B392B4A2B50
:100DB0005B2BDA01C9018F779070A070B07080341E
:100DC0009105A105B10539F427FF09C0205C3F4F0B
:100DD0004F4F5F4F04C0215C3F4F4F4F5F4FE0E0EC
:100DE000F0E02030A0E03A07A0E04A07A0E45A076C
:100DF00010F0E1E0F0E079018A0127C06038710568
:100E000064F5FB01E158FF4FD801C7018F7790705F
:100E1000A070B07080349105A105B10539F4E7FEEA
:100E20000DC080E490E0A0E0B0E004C08FE390E06B
:100E3000A0E0B0E0E80EF91E0A1F1B1F17FF05C057
:100E400016950795F794E794319687E016950795E0
:100E5000F794E7948A95D1F705C0EFEFF0E0EE2420
:100E6000FF2487016E2F679566276795902F9F77E0
:100E7000D794DD24D7948E2F8695492F462B582F53
:100E80005D29B701CA011F910F91FF90EF90DF908C
:100E90000895FC01DB01408151812281622F6F772F
:100EA00070E0221F2227221F9381892F880F822B17
:100EB000282F30E0991F9927991F11969C9311971D
:100EC00021153105A9F5411551056105710511F48B
:100ED00082E037C082E89FEF13969C938E9312971F
:100EE0009A01AB0167E0220F331F441F551F6A951B
:100EF000D1F783E08C930DC0220F331F441F551F81
:100F000012968D919C911397019713969C938E93B3
:100F10001297203080E0380780E0480780E45807C7
:100F200058F314962D933D934D935C931797089522
:100F30002F3F310579F4411551056105710519F40B
:100F400084E08C93089564FF03C081E08C9312C009
:100F50001C9210C02F57304013963C932E9312973B
:100F600083E08C9387E0440F551F661F771F8A9597
:100F7000D1F7706414964D935D936D937C9317979E
:100F800008951F93DC01FB019C91923008F447C047
:100F90008081823008F443C0943051F411961C9142
:100FA000843099F58181682F70E0611B71093FC021
:100FB000843021F0923031F48230B9F1818188237C
:100FC00089F12DC011961C9111978230F1F0818129
:100FD0001817D9F412962D913C9113978281938121
:100FE0008217930794F028173907BCF014968D9157
:100FF0009D910D90BC91A02D248135814681578112
:10100000281739074A075B0718F4112341F00AC073
:1010100082179307A407B50740F4112319F061E084
:1010200070E005C06FEF7FEF02C060E070E0CB01C1
:101030001F910895AF92BF92CF92DF92EF92FF92ED
:101040000F931F93DF93CF930F92CDB7DEB78C0131
:10105000962F603108F09FE0F80185819817D9F04C
:101060007801AA24BB24C92EDD24B6010A2C02C0B3
:10107000759567950A94E2F76170F70181917F0198
:1010800099830E945E1C0894A11CB11C9981F4E014
:10109000AF16B10451F7F80195830F90CF91DF910E
:1010A0001F910F91FF90EF90DF90CF90BF90AF9086
:1010B00008950F931F938C010E941A08F8018481F0
:1010C0000E94161C1F910F910895EF920F931F938A
:1010D000CF93DF93EC01688349832A830B83EC82EF
:1010E00000E010E0FE01E00FF11F808161E00E944E
:1010F000381C0F5F1F4F04301105A1F78C8160E091
:101100000E94381C8C8160E00E945E1CCE0160E071
:101110000E941A08DF91CF911F910F91EF900895CF
:10112000FC017283618317A6108281E0838314829D
:101130001582168217820895AF92BF92CF92DF92E6
:10114000EF92FF920F931F937A018B010E94811BF4
:101150005B016C01AE0CBF1CC01ED11E0E94811B26
:101160006A157B058C059D05A0F48FE894E00E942C
:10117000EC17892B71F4F2CF8FE894E00E941A18D3
:101180001F910F91FF90EF90DF90CF90BF90AF90A5
:1011900008958FE894E00E94EC17892B69F780E0AE
:1011A000EFCFEF92FF920F931F93CF93DF93EC015A
:1011B0008CE38C8B8EE38EA709811A810F581F4F09
:1011C000F801608171818281938120E030E048ECF8
:1011D00052E40E94630220E030E040E050E00E94D0
:1011E0003904181654F4F801608171818281938169
:1011F00020E030E048EC52E409C0F80160817181E0
:101200008281938120E030E048EC52EC0E9463023E
:101210000E948D007F8B6E8B09811A8106571F4FAC
:10122000F801608171818281938120E030E048EC97
:1012300052E40E94630220E030E040E050E00E946F
:101240003904181654F4F801608171818281938108
:1012500020E030E048EC52E409C0F801608171817F
:101260008281938120E030E048EC52EC0E946302DE
:101270000E948D00798F688FE981FA81EE56FF4FC9
:1012800080818A8F329680818B8FF49780819181C3
:10129000A281B381181619061A061B062CF42081A8
:1012A0003181428153810BC080819181A281B381C0
:1012B00022273327A901281B390B4A0B5B0B2C8FE4
:1012C0003D8F4E8F5F8FE981FA81E758FF4F808114
:1012D0009181A281B381181619061A061B062CF4F7
:1012E00020813181428153810BC080819181A28113
:1012F000B38122273327A901281B390B4A0B5B0B2B
:1013000028A339A34AA35BA3E981FA81E280F38091
:1013100004811581C801B70120E030E040E050E0D1
:101320000E94390418163CF4C801B70120E030E0EF
:101330004AE754E406C0C801B70120E030E04AE7BC
:1013400054EC0E9463020E948D007DA36CA3E9818E
:10135000FA81E680F78000851185C801B70120E099
:1013600030E040E050E00E94390418163CF4C80117
:10137000B70120E030E04AE754E406C0C801B701F5
:1013800020E030E04AE754EC0E9463020E948D00A6
:101390007FA36EA389819A810E94C41120E030E06E
:1013A00048EC52E40E9463020E94570579A768A79F
:1013B00089819A810E94B31120E030E048EC52E428
:1013C0000E9463020E9457057BA76AA789819A81C0
:1013D0000A960E94321D8CA789819A810D960E94DF
:1013E000321D8DA71D8AE981FA81EF58FF4F608178
:1013F00071818281938100E020E030E040E050E0A4
:101400000E94690488230CF001E00D8BE980FA80CA
:101410002AE830E0E20EF31EF701608171818281DB
:10142000938126E73FEFE20EF31E20E030E040E03C
:1014300050E00E946904182F1095111F1127111FE9
:10144000110F102B1D8BF7016281738184819581AF
:1014500020E030E040E050E00E946904082F009551
:10146000001F0027001F000F000F012B0D8BF7013D
:10147000668177818085918520E030E040E050E012
:101480000E9469048095881F8827881F880F880F0D
:10149000880F802B8D8B20E630E0E20EF31EF701E3
:1014A000208131814281538120953095409550951E
:1014B000222757FD23953327442755272295207F40
:1014C000282B2D8B89E190E0E80EF91EF701808131
:1014D0009181A281B38180959095A095B095882740
:1014E000B7FD83959927AA27BB278295880F807E11
:1014F000822B8D8B2C8928AB89AB8F898AAB8E8907
:101500008BAB898D8CAB888D8DAB8A8D8EAB8B8DA3
:101510008FAB8C8D9D8DAE8DBF8D2B2F33274427A8
:10152000552728AF9D014427552729AF892F9A2F8A
:10153000AB2FBB278AAF8C8D8BAF88A199A1AAA1B5
:10154000BBA12B2F3327442755272CAF9D014427C0
:1015500055272DAF892F9A2FAB2FBB278EAF88A190
:101560008FAF8DA1C05CDF4F8883C054D0408CA169
:10157000CF5BDF4F8883C154D0408FA1CE5BDF4F5C
:101580008883C254D0408EA1CD5BDF4F8883C35483
:10159000D04088A599A5892F990F990BCC5BDF4F77
:1015A0008883C454D04088A5CB5BDF4F8883C55463
:1015B000D0408AA59BA5892F990F990BCA5BDF4F55
:1015C0008883C654D0408AA5C95BDF4F8883C7543F
:1015D000D0408DA5C85BDF4F8883C854D0408CA510
:1015E000C75BDF4F8883C954D0408EA5C65BDF4FF1
:1015F00088836A978FE894E0BE014BE150E00E9437
:10160000B318DF91CF911F910F91FF90EF90089544
:10161000AF92BF92CF92DF92EF92FF920F931F9300
:10162000DF93CF93CDB7DEB760970FB6F894DEBFE8
:101630000FBECDBF5C018C01045F1F4FC80160E08D
:1016400071E00E94FE1F009791F0C5014AEF50E043
:1016500060E070E00E949C08D50113961C921397DD
:10166000882309F4AAC381E013968C93A6C3C8010A
:1016700063E071E00E94FE1F009709F44BC08E01E9
:101680000F5F1F4F75E0E72EF12CEC0EFD1EC5011C
:101690004AEF50E060E070E00E949C08F8018193FE
:1016A0008F01EE15FF0599F7D50111960D911C914B
:1016B0001297798160E02A8130E0622B732B8827B2
:1016C00077FD8095982F0E94F9042DEC3CEC4CECB2
:1016D0005DE30E946302F801608B718B828B938BB8
:1016E0007B8160E02C8130E0622B732B882777FDB3
:1016F0008095982F0E94F9042DEC3CEC4CEC5DE3B6
:101700000E946302D801D8966D937D938D939C932C
:10171000DB9753C3C80168E071E00E94FE1F009789
:1017200049F1C50144E650E060E070E00E949C0889
:10173000182FC50144E650E060E070E00E949C086C
:10174000082FF501818192810A96153B08F014EB70
:10175000612F70E00E94871DD50111968D919C919B
:1017600012970D96602F053B08F064EB70E00E9425
:10177000871D23C3C8016DE071E00E94FE1F009722
:1017800009F4A4C08E010B5F1F4F61E1E62EF12C1E
:10179000EC0EFD1EC5014AEF50E060E070E00E94D3
:1017A0009C08F80181938F01EE15FF0599F7D5018B
:1017B00011960D911C9112977D8160E02E8130E091
:1017C000622B732B882777FD8095982F0E94F90450
:1017D0002AE037ED43E25CE30E946302F80160A770
:1017E00071A782A793A77F8160E0288530E0622BF4
:1017F000732B882777FD8095982F0E94F9042AE0A3
:1018000037ED43E25CE30E946302D8019C966D933E
:101810007D938D939C939F97798560E02A8530E036
:10182000622B732B882777FD8095982F0E94F904EF
:101830002AE037ED43E25CE30E946302F80160AB0B
:1018400071AB82AB93AB005B1F4F7B8560E02C8557
:1018500030E0622B732B882777FD8095982F0E94AC
:10186000F9042AE037ED43E25CE30E946302D80109
:101870006D937D938D939D938D017D8560E02E8585
:1018800030E0622B732B882777FD8095982F0E947C
:10189000F9042AE037ED43E25CE30E946302F801B9
:1018A00061937193819391938F017F8560E0288983
:1018B00030E0622B732B882777FD8095982F0E944C
:1018C000F9042AE037ED43E25CE34DC0C80162E170
:1018D00071E00E94FE1F009709F44EC08E010F5F59
:1018E0001F4F55E0E52EF12CEC0EFD1EC5014AEF11
:1018F00050E060E070E00E949C08F80181938F0145
:10190000EE15FF0599F7D50111960D911C911297CF
:101910000B581F4F798160E02A8130E0622B732BD6
:10192000882777FD8095982F0E94F90427E137EBEF
:1019300041ED58E30E946302F80160837183828362
:101940009383075E1F4F7B8160E02C8130E0622B28
:10195000732B882777FD8095982F0E94F90427E143
:1019600037EB41ED58E30E946302D8016D937D93FC
:101970008D939C93139721C2C80168E171E00E9486
:10198000FE1F009709F1C5014AEF50E060E070E0EA
:101990000E949C08082FC5014AEF50E060E070E00B
:1019A0000E949C08D5011196ED91FC911297EE567C
:1019B000FF4F112707FD109501931193992787FD7C
:1019C000909591838083F9C1C8016DE171E00E9417
:1019D000FE1F009709F489C08FE894E063E271E08C
:1019E0000E94D218D5011196ED91FC91129740A555
:1019F00051A562A573A58FE894E02AE030E00E942B
:101A0000651A8FE894E06FE271E00E94D218D50168
:101A10001196ED91FC91129744A555A566A577A561
:101A20008FE894E02AE030E00E94651A8FE894E0A5
:101A30006FE271E00E94D218D5011196ED91FC91F0
:101A4000129740A951A962A973A98FE894E02AE0EE
:101A500030E00E94651A8FE894E062E371E00E9432
:101A6000D218D5011196ED91FC911297E05BFF4FD2
:101A700040815181628173818FE894E02AE030E0F7
:101A80000E94651A8FE894E06FE271E00E94D2181C
:101A9000D5011196ED91FC911297EC5AFF4F4081C0
:101AA0005181628173818FE894E02AE030E00E94E6
:101AB000651A8FE894E06FE271E00E94D218D501B8
:101AC0001196ED91FC911297E85AFF4F4081518198
:101AD000628173818FE894E02AE030E00E94651A09
:101AE0008FE894E061E471E05FC1C80165E471E0F2
:101AF0000E94FE1F0097F1F0F501C180D280D6014F
:101B000054966D917D918D919C91579720E030E096
:101B100040E251E40E9463020E9457057B018C0160
:101B2000F60164AD75AD86AD97AD20E030E040E2E2
:101B300051E425C0C8016AE471E00E94FE1F0097CD
:101B400009F445C0F501C180D280D60112966D918D
:101B50007D918D919C91159720E030E048EC52E406
:101B60000E9463020E9457057B018C01F601668189
:101B700077818085918520E030E048EC52E40E9436
:101B800063020E9457052CE3D501D0962C93D09781
:101B90002F2D332727FD3A95D1962C93D197D296A6
:101BA000EC92D297472F552747FD5A95D3964C93E1
:101BB000D397D4966C93D4972E0D240F260F2F779E
:101BC000D5962C93D5978EE3D6968C933BC0C801BF
:101BD0006FE471E00E94FE1F0097E1F1F501818141
:101BE00092810E94C41120E030E048EC52E40E944F
:101BF00063020E9457057B018C01D50111968D91DE
:101C00009C9112970E94B31120E030E048EC52E41E
:101C10000E9463020E9457052CE3F50120AB2F2D93
:101C2000332727FD3A9521ABE2AA472F552747FDD9
:101C30005A9543AB64AB2E0D240F260F2F7725AB9F
:101C40008EE386ABB501605D7F4F8FE894E047E09F
:101C500050E030C0C80164E571E00E94FE1F0097AB
:101C600061F1D50111968D919C9112970A960E946F
:101C7000321D182FF501818192810D960E94321D2F
:101C80009CE3D501D0969C93D097D1961C93D19785
:101C9000D2968C93D297810F8F77D3968C93D397CC
:101CA0008EE3D4968C93B501605D7F4F8FE894E00E
:101CB00045E050E00E94B31880C0C80169E571E0BA
:101CC0000E94FE1F009751F0D5011196ED91FC91F5
:101CD0001297408951896289738932C0C8016EE5C3
:101CE00071E00E94FE1F009751F0D5011196ED9111
:101CF000FC91129740AD51AD62AD73AD21C0C801EA
:101D000063E671E00E94FE1F009751F0D501119625
:101D1000ED91FC911297448955896689778910C0A5
:101D2000C80168E671E00E94FE1F009781F0D501AE
:101D30001196ED91FC91129744AD55AD66AD77AD1E
:101D40008FE894E02AE030E00E94681A36C0C801AB
:101D50006DE671E00E94FE1F009749F1F501818157
:101D600092810E94C411AB01BC018FE894E02AE08B
:101D700030E00E94651A8FE894E062E771E00E940B
:101D8000D218D50111968D919C9112970E94B31192
:101D9000AB01BC018FE894E02AE030E00E94651AB4
:101DA0008FE894E06BE771E00E94D21806C08FE8DC
:101DB00094E063E871E00E94CE19F50117A680E077
:101DC00090E294878F5F31968830D9F760960FB68E
:101DD000F894DEBF0FBECDBFCF91DF911F910F9161
:101DE000FF90EF90DF90CF90BF90AF900895EF926B
:101DF000FF920F931F93CF93DF93EC018B81882386
:101E0000F1F1E884F9840A851B850E94811BE61A9A
:101E1000F70A080B190B29E2E216F1040105110576
:101E200070F1CE010E94D1082AC00E94811B6C83F0
:101E30007D838E839F838FE894E00E941A188A33F3
:101E400049F41FA6FE0180E014878F5F3196883029
:101E5000D9F716C0813219F09FA5973048F08FA5A9
:101E6000FE01E80FF11D1486CE010E94080B08C088
:101E7000FE01E90FF11D84879F5F9FA701C010E25B
:101E80008FE894E00E94EC17892B79F60E94811B61
:101E9000E0E02C813D814E815F81621B730B840BDE
:101EA000950B695E73408040904008F4E1E0E88360
:101EB000DF91CF911F910F91FF90EF900895809146
:101EC000B6029091B702A091B802B091B902019602
:101ED000A11DB11D8093B6029093B702A093B802E2
:101EE000B093B9022091B6023091B7024091B80286
:101EF0005091B9028091B0029091B102A091B202CA
:101F0000B091B302281739074A075B07B0F08091F8
:101F1000BA02882391F481E08093BA021092B6024B
:101F20001092B7021092B8021092B902E091B40276
:101F3000F091B50209951092BA0208951F920F927E
:101F40000FB60F9211242F933F934F935F936F938C
:101F50007F938F939F93AF93BF93EF93FF93809162
:101F6000BB029091BC028093B2000E945F0FFF9170
:101F7000EF91BF91AF919F918F917F916F915F9101
:101F80004F913F912F910F900FBE0F901F9018957A
:101F9000EF92FF920F931F93FC0143832483E1860A
:101FA000F2860387148781E08283718360831F91A7
:101FB0000F91FF90EF9008950F931F93CF93DF93AE
:101FC000EC018A81882361F0888199816B810E946C
:101FD00059088C01888199816C810E94590807C039
:101FE0008B810E94161C8C018C810E94161C081B80
:101FF000190BB801882777FD8095982F0E94F90466
:1020000029853A854B855C850E9463022D813E813E
:102010004F8158850E940502DF91CF911F910F914A
:102020000895AF92BF92CF92DF92EF92FF920F93FB
:102030001F93CF93DF93EC017B01442309F056C03B
:1020400080E090E0A0E0B0E08D839E83AF83B8870E
:10205000CC24DD243AC08A81882361F0888199816B
:102060006B810E9459088C01888199816C810E9442
:10207000590807C08B810E94161C8C018C810E941C
:10208000161C081B190BB801882777FD8095982F1F
:102090000E94F90429853A854B855C850E9463027C
:1020A0009B01AC016D817E818F8198850E943602F3
:1020B0006D837E838F83988761E070E080E090E09D
:1020C0000E94B51B0894C11CD11CCE14DF0418F269
:1020D000B70180E090E00E94AB059B01AC016D81EF
:1020E0007E818F8198850E945D034FC080E090E0E3
:1020F0000E94AB055B016C010894E108F108B7018F
:1021000080E090E00E94AB05A60195010E945D036E
:102110009B01AC016D817E818F8198850E94630255
:102120006D837E838F8398878A81882361F088817D
:1021300099816B810E9459088C01888199816C81F9
:102140000E94590807C08B810E94161C8C018C814B
:102150000E94161C081B190BB801882777FD809573
:10216000982F0E94F90429853A854B855C850E9449
:102170006302A60195010E945D039B01AC016D8184
:102180007E818F8198850E9436026D837E838F8346
:102190009887DF91CF911F910F91FF90EF90DF9083
:1021A000CF90BF90AF9008950F931F93CF93DF937D
:1021B000FC018189A481B5819381082F027081FF80
:1021C00005C08C91892309F454C004C08C918923E3
:1021D00009F04FC08185928520E001972FEF8F3F56
:1021E0009207D9F7C385D485A481B581738160E056
:1021F00031E040E050E010E0CE01212F01972FEFB9
:102200008F3F9207D9F78C91872311F0632B03C07E
:10221000832F80956823330F4F5F5F4F4830510500
:1022200059F78585968520E001972FEF8F3F92071C
:10223000D9F7011160958091FF022091000390E091
:1022400001968F73907030E08217930779F0E091D8
:10225000FF02F0E0E154FD4F60838091FF0290E0C7
:1022600001968F7390708093FF0203C08189816013
:10227000818BDF91CF911F910F9108958091BD02C5
:102280009091BE02009711F00E94D41008951F9201
:102290000F920FB60F9211242F933F934F935F939A
:1022A0006F937F938F939F93AF93BF93EF93FF931E
:1022B0000E943E11FF91EF91BF91AF919F918F913D
:1022C0007F916F915F914F913F912F910F900FBE32
:1022D0000F901F9018951F920F920FB60F92112416
:1022E0002F933F934F935F936F937F938F939F931E
:1022F000AF93BF93EF93FF930E943E11FF91EF9135
:10230000BF91AF919F918F917F916F915F914F910D
:102310003F912F910F900FBE0F901F9018951F9215
:102320000F920FB60F9211242F933F934F935F9309
:102330006F937F938F939F93AF93BF93EF93FF938D
:102340000E943E11FF91EF91BF91AF919F918F91AC
:102350007F916F915F914F913F912F910F900FBEA1
:102360000F901F901895FC0181810E94161CA0E01F
:10237000B0E0BC01CD010E94AB0524E739EB48E099
:102380005EE30E9463020895FC0180810E94161C96
:10239000A0E0B0E0BC01CD010E94AB0520E030E040
:1023A0004DE95DE30E9463020895CF93DF93EC0152
:1023B0006623A1F0442391F068834983862F60E06F
:1023C0000E94381C898160E00E94381C888160E08E
:1023D0000E945E1C898160E00E945E1CDF91CF91AB
:1023E0000895DF93CF9300D0CDB7DEB7CE0101962D
:1023F00060E040E00E94D5110F900F90CF91DF91E7
:1024000008952F923F924F925F926F927F928F9298
:102410009F92AF92BF92CF92DF92EF92FF920F9373
:102420001F93CF93DF93EC011A012B01688179810F
:102430008A819B812C813D814E815F810E940502B2
:102440006C8B7D8B8E8B9F8BA20191010E9463020E
:102450002C853D854E855F850E9436027B018C016F
:102460006C877D878E879F876CA07DA08EA09FA0A4
:1024700064015301D7FAD094D7F8D094A6019501FE
:102480000E94990488231CF4350146010AC0C80142
:10249000B701A40193010E943904181614F0370102
:1024A00048016C867D868E869F86AC88BD88CE88E6
:1024B000DF88C601B501288D398D4A8D5B8D0E945C
:1024C00063027B018C01C401B3012C8D3D8D4E8DC7
:1024D0005F8D0E9463029B01AC01C801B7010E949D
:1024E000360228A139A14AA15BA10E9436027B01D4
:1024F0008C01C601B501288939894A895B890E9406
:102500000502A20191010E945D039B01AC01C8017B
:10251000B7010E943602688779878A879B87A88AD5
:10252000B98ACA8ADB8ADF91CF911F910F91FF9000
:10253000EF90DF90CF90BF90AF909F908F907F9063
:102540006F905F904F903F902F900895AF92BF9201
:10255000CF92DF92EF92FF920F931F939DE0C92ECF
:1025600093E0D92EC6010E94F111C6010A960E947D
:10257000B21CC6010D960E94B21C83EAA82E83E00D
:10258000B82EC5016AE04BE02CE00DE0EE240E947D
:10259000650889EA93E0B5014EE02FE00F2EF8E5DB
:1025A000EF2EF0EAFF2EFBE00F2FFDE31F2FF02DA3
:1025B0000E94C80F8AEB93E00E94B21C8DEB93E05F
:1025C0000E94B21C80EC93E0B6010E9490081F911B
:1025D0000F91FF90EF90DF90CF90BF90AF90089554
:1025E00084B58F7D84BD89B18295869587708095ED
:1025F00081708093960320918603309187034091E8
:1026000088035091890380919603882329F48FEFE2
:102610009FEFAFEFBFEF04C081E090E0A0E0B0E03B
:10262000820F931FA41FB51F809386039093870387
:10263000A0938803B093890380918E0390918F03B8
:10264000A0919003B0919103809392039093930390
:10265000A0939403B09395030E948F1B60938E0305
:1026600070938F038093900390939103089589B1A1
:1026700082958F708095817080937D0320916D038A
:1026800030916E0340916F035091700380917D03F0
:10269000882329F48FEF9FEFAFEFBFEF04C081E0F5
:1026A00090E0A0E0B0E0820F931FA41FB51F8093BD
:1026B0006D0390936E03A0936F03B09370038091AA
:1026C000750390917603A0917703B091780380937E
:1026D000790390937A03A0937B03B0937C030E94C9
:1026E0008F1B6093750370937603809377039093A9
:1026F000780308959F92AF92BF92CF92DF92EF92AC
:10270000FF920F931F93962E803829F421E83FEF14
:102710004FEF5FEF06C0282F332727FD3095432F5B
:10272000532F00D000D088EE93E0A0E0B0E0EDB7EA
:10273000FEB781839283A383B483CA01B90121E8E0
:102740003FEF4FEF5FEFBFE7EB2EF12C012D112D87
:10275000A0EDAA2EA7E0BA2EC12CD12C0E94F01A0F
:102760009B01AC010F900F900F900F908AEB93E0BC
:10277000B9010E94CC1CF0E89F1629F421E83FEF34
:102780004FEF5FEF06C0292D332727FD3095432FEC
:10279000532F00D000D080ED97E0A0E0B0E0EDB77F
:1027A000FEB781839283A383B483CA01B90121E870
:1027B0003FEF4FEF5FEFFFE7EF2EF12C012D112DD3
:1027C000E8EEAE2EE3E0BE2EC12CD12C0E94F01A12
:1027D0009B01AC010F900F900F900F908DEB93E049
:1027E000B9010E94CC1C1F910F91FF90EF90DF90D8
:1027F000CF90BF90AF909F9008958F929F92AF928D
:10280000BF92CF92DF92EF92FF920F931F93DF93CD
:10281000CF9300D000D0CDB7DEB70E94DB1B8FE88E
:1028200094E040E052EC61E070E00E94FB168DE025
:1028300093E061E042E00E94D51187E193E06AE510
:1028400070E00E94871D87E193E068E070E00E94DD
:102850006E1E8AE193E06AE570E00E94871D8AE1BE
:1028600093E069E070E00E946E1E80E060E00E94EC
:102870007A138AEB93E067E070E00E946E1E8DEBA6
:1028800093E066E070E00E946E1E0F2EFAE9AF2E14
:10289000F9E9BF2EF9E9CF2EFEE3DF2EF02DA0924D
:1028A0003503B0923603C0923703D09238030F2E0F
:1028B000FDECEF2EFCECFF2EFCE40F2FFDE31F2FB1
:1028C000F02DE0923903F0923A0300933B0310930A
:1028D0003C0320E030E040E050E020933D033093A3
:1028E0003E0340933F035093400380E090E0AEEFFF
:1028F000B2E48093410390934203A0934303B093C7
:102900004403A0925D03B0925E03C0925F03D09235
:102910006003E0926103F0926203009363031093FB
:1029200064032093650330936603409367035093D9
:1029300068038093690390936A03A0936B03B09339
:102940006C038FE692E1A3E8BBE38093820390934C
:102950008303A0938403B093850380939B03909398
:102960009C03A0939D03B0939E0383E0898385E03D
:102970008A8382E08B8384E08C837E010894E11C4F
:10298000F11C85E0C82ED12CCC0EDD1EF701119173
:102990007F01812F60E00E94381C812F60E00E943F
:1029A0005E1CEC14FD0491F780E067E373E143E003
:1029B00050E00E94731A81E060EF72E143E050E062
:1029C0000E94731A81E161E00E94381C81E161E09C
:1029D0000E945E1C89EA93E068EE73E040E00E948A
:1029E000111001E0802E912C80EC93E00E94F70EF4
:1029F0000E94811B60930503709306038093070375
:102A0000909308032091090330910A0340910B032E
:102A100050910C03621773078407950738F1809172
:102A2000C003882371F066B170E013E07695679576
:102A30001A95E1F768257925617081E10E945E1C95
:102A400001C043988091050390910603A09107036C
:102A5000B09108038C509E4FAF4FBF4F8093090336
:102A600090930A03A0930B03B0930C0320910103EE
:102A700030910203409103035091040360910503D8
:102A80007091060380910703909108036217730702
:102A90008407950708F4A8CF6C597F4F8F4F9F4F3D
:102AA000621B730B840B950B0E94AB052FE632E182
:102AB00043E85AE30E9463025B016C0189EA93E0F8
:102AC0000E94DC0F7B018C0160930F037093100355
:102AD0008093110390931203C601B5012091B603B0
:102AE0003091B7034091B8035091B9030E9463023B
:102AF0009B01AC0160911303709114038091150345
:102B0000909116030E94360260931303709314038E
:102B10008093150390931603C801B70120E030E0BD
:102B200040E050E00E94390418165CF4C801B70177
:102B30002FE632E143E85AE30E94C904181694F1E3
:102B40000AC0C801B7012FE632E143E85AEB0E9400
:102B5000690488233CF160911D0370911E038091EC
:102B60001F039091200320E030E040E050E00E94FD
:102B700009048823B9F4609145037091460380915C
:102B800047039091480320E030E040E050E00E948D
:102B90000904882339F489EA93E068EE73E041E0A0
:102BA0000E94111060916D0370916E0380916F030C
:102BB00090917003209171033091720340917303DF
:102BC00050917403621B730B840B950B0E94F904E4
:102BD00020918203309183034091840350918503B7
:102BE0000E946302A60195010E945D0360937E032B
:102BF00070937F0380938003909381036091860399
:102C000070918703809188039091890320918A03B2
:102C100030918B0340918C0350918D03621B730B99
:102C2000840B950B0E94F90420919B0330919C0327
:102C300040919D0350919E030E946302A60195015D
:102C40000E945D03609397037093980380939903A8
:102C500090939A0380916D0390916E03A0916F03FE
:102C6000B09170038093710390937203A0937303E8
:102C7000B09374038091860390918703A091880399
:102C8000B091890380938A0390938B03A0938C0364
:102C9000B0938D038DE193E0B601A5010E9401126E
:102CA00085E493E0B601A5010E9401126091A103A1
:102CB0007091A203882777FD8095982F0E94F904D0
:102CC00020914D0330914E0340914F03509150039A
:102CD0000E9436020E945705162F072F60919F030E
:102CE0007091A003882777FD8095982F0E94F904A2
:102CF000209125033091260340912703509128030A
:102D00000E9436020E9457056038710514F06FE783
:102D100070E0FFEF61387F0714F461E87FEF709394
:102D2000A00360939F03812F902F9C0120383105D1
:102D300014F02FE730E08FEF2138380714F421E842
:102D40003FEF3093A2032093A103862F622F0E94AE
:102D50007A138091050390910603A0910703B09127
:102D600008038C599F4FAF4FBF4F8093010390933F
:102D70000203A0930303B093040336CE1F920F9275
:102D80000FB60F9211242F933F934F935F936F933E
:102D90007F938F939F93AF93BF93EF93FF93409154
:102DA000C600E0918B04F0918C04CF01019660E89D
:102DB00070E00E94711F9C0180918D0490918E049F
:102DC0002817390739F0E55FFB4F408330938C04B7
:102DD00020938B04FF91EF91BF91AF919F918F91C1
:102DE0007F916F915F914F913F912F910F900FBE07
:102DF0000F901F9018955F926F927F928F929F9283
:102E0000AF92BF92CF92DF92EF92FF920F931F93F8
:102E1000CF93DF93EC015A016B0181E4A81682E4A1
:102E2000B8068FE0C80680E0D80608F077C060E8F2
:102E300074E88EE190E0A60195010E94841F39019B
:102E40004A01089461087108810891089694879452
:102E500077946794A40193012F5F3F4F4F4F5F4FCB
:102E600074E0220F331F441F551F7A95D1F760E09D
:102E700074E284EF90E00E94841FCA01B9012FEF31
:102E800030E040E050E00E94321FA60195010E9410
:102E9000841F8FEF90E0821B930B181619061CF409
:102EA000522E509402C0522E539460E079E08DE38C
:102EB00090E0A60195010E94841F215030404040BF
:102EC000504056954795379527952F5F3F4F4F4F69
:102ED0005F4F93E0220F331F441F551F9A95D1F780
:102EE00060E074E284EF90E00E94841FCA01B9019F
:102EF0002FEF30E040E050E00E94321FA601950124
:102F00000E94841F8FEF90E0821B930B1816190606
:102F100014F4209501C02F5F2515F0F4E885F9859C
:102F200081E090E00A8802C0880F991F0A94E2F7B6
:102F3000808360E079E08DE390E0A60195010E9436
:102F4000841F21503040404050405695479537955A
:102F50002795822F232F05C0E885F9851082862DBD
:102F6000272DEC81FD812083EE81FF818083EA851E
:102F7000FB85208141E050E0CA010E8402C0880F29
:102F8000991F0A94E2F7282B2083EA85FB8520818C
:102F9000CA010F8402C0880F991F0A94E2F7282BF8
:102FA0002083EA85FB858081088802C0440F551F75
:102FB0000A94E2F7842B8083DF91CF911F910F91C8
:102FC000FF90EF90DF90CF90BF90AF909F908F9049
:102FD0007F906F905F900895DC011296ED91FC91C7
:102FE0001397E058FF4F8191919180589F4F208116
:102FF0003181821B930B60E870E00E94711F08957D
:10300000DC011296ED91FC911397EE57FF4F208152
:10301000318192918291E058F0408217930719F420
:103020002FEF3FEF05C0E20FF31F8081282F30E024
:10303000C9010895CF93DF93DC011296ED91FC91C5
:103040001397EF01CE57DF4F48815981E058FF4F6A
:1030500080819181E058F0408417950719F42FEF93
:103060003FEF0CC0E40FF51F2081CA01019660E814
:1030700070E00E94711F9983888330E0C901DF915D
:10308000CF910895DC011296ED91FC911397EE57C4
:10309000FF4F80819181929382930895FC01A085D6
:1030A000B18521898C9190E0022E02C0959587957B
:1030B0000A94E2F780FFF6CF0484F585E02D608363
:1030C000089582EA92E09093900480938F048BE0BD
:1030D00094E0909392048093910485EC90E0909317
:1030E00094048093930484EC90E0909396048093EE
:1030F000950480EC90E0909398048093970481EC81
:1031000090E090939A048093990486EC90E09093D9
:103110009C0480939B0484E080939D0483E08093CF
:103120009E0487E080939F0485E08093A00481E063
:103130008093A10408950F931F93CF93DF938C0185
:10314000EB0109C02196D801ED91FC910190F0812D
:10315000E02DC801099568816623A1F7DF91CF9121
:103160001F910F910895EF92FF920F931F93CF93AA
:10317000DF938C017B01EA010CC0D7016D917D01C9
:10318000D801ED91FC910190F081E02DC8010995E5
:103190002197209791F7DF91CF911F910F91FF9089
:1031A000EF900895DC01ED91FC910280F381E02D18
:1031B000099508952F923F924F925F926F927F925E
:1031C0008F929F92AF92BF92CF92DF92EF92FF9237
:1031D0000F931F93DF93CF93CDB7DEB7A0970FB6B2
:1031E000F894DEBF0FBECDBF1C016A017B01411503
:1031F00051056105710549F440E350E060E070E07D
:1032000020E030E00E94811954C0882499245401A0
:10321000422E55246624772401E010E00C0F1D1F78
:10322000080D191DC701B601A30192010E94841F58
:10323000F80160830894811C911CA11CB11CC7017A
:10324000B601A30192010E94841FC901DA016C0139
:103250007D01C114D104E104F104F1F681E0E82E0E
:10326000F12CEC0EFD1EE80CF91C3E010894611CCB
:10327000711CD501C4010197A109B1096C01C818DD
:10328000D90814C0F601EE0DFF1D40814A3010F43C
:10329000405D01C0495C50E060E070E0C10120E0A9
:1032A00030E00E9481190894E108F1086E147F044F
:1032B00049F7A0960FB6F894DEBF0FBECDBFCF91F1
:1032C000DF911F910F91FF90EF90DF90CF90BF9013
:1032D000AF909F908F907F906F905F904F903F90B6
:1032E0002F900895DC012115310541F4ED91FC91F9
:1032F0000190F081E02D642F099508950E94DA185D
:103300000895EF92FF920F931F93CF93DF93EC01F9
:103310007A018B012115310541F4E881F981019091
:10332000F081E02D642F09951BC02A303105B1F4DE
:1033300077FF10C04DE250E060E070E020E030E048
:103340000E94811910950095F094E094E11CF11C05
:10335000011D111DCE01B801A7012AE00E94DA1853
:10336000DF91CF911F910F91FF90EF9008950F93F0
:103370001F938C014DE050E060E070E020E030E011
:103380000E948119C8014AE050E060E070E020E04E
:1033900030E00E9481191F910F9108950F931F93A0
:1033A0008C010E94D218C8010E94B7191F910F9179
:1033B00008959F92AF92BF92CF92DF92EF92FF92C9
:1033C0000F931F93CF93DF93EC017A018B01922E21
:1033D000CB01BA0120E030E040E050E00E949904C7
:1033E00088236CF4CE014DE250E060E070E020E014
:1033F00030E00E94811917FB109517F9109520E015
:1034000030E040E05FE3AA240BC0CA01B90120E02C
:1034100030E040E251E40E945D039B01AC01A394C3
:10342000A91498F3C801B7010E9436025B016C0130
:103430000E948D007B018C01CE01B801A7012AE01A
:1034400030E00E947219992029F0CE0163E971E001
:103450000E94D218C801B7010E94AB059B01AC01C4
:10346000C601B5010E94050222C020E030E040E222
:1034700051E40E9463027B018C010E9457055B01AD
:103480006C01CC24B7FCC094DC2CCE01B601A501A4
:103490002AE030E00E948119C601B5010E94F904BA
:1034A0009B01AC01C801B7010E9405029A949920C2
:1034B000E1F6DF91CF911F910F91FF90EF90DF9098
:1034C000CF90BF90AF909F9008950E94D919089512
:1034D0000F931F938C010E94D919C8010E94B7193C
:1034E0001F910F910895823000F5E82FF0E0EE0F64
:1034F000FF1FEE55FB4F71836083882319F08130E5
:10350000A1F408C0809169008C7F842B80936900AE
:10351000E89A089580916900440F551F440F551F84
:10352000837F842B80936900E99A08951F920F92FC
:103530000FB60F9211242F933F934F935F936F9386
:103540007F938F939F93AF93BF93EF93FF9380915C
:10355000A2049091A304892B29F0E091A204F09198
:10356000A3040995FF91EF91BF91AF919F918F9126
:103570007F916F915F914F913F912F910F900FBE6F
:103580000F901F9018951F920F920FB60F92112453
:103590002F933F934F935F936F937F938F939F935B
:1035A000AF93BF93EF93FF938091A4049091A504F0
:1035B000892B29F0E091A404F091A5040995FF91CD
:1035C000EF91BF91AF919F918F917F916F915F919B
:1035D0004F913F912F910F900FBE0F901F90189514
:1035E0002F923F924F925F926F927F928F929F9213
:1035F000AF92BF92CF92DF92EF92FF920F931F9301
:10360000DF93CF93CDB7DEB73B014C0119012A01FF
:103610006D897E898F89988D6A197B098C099D092E
:10362000621A730A840A950AA40193010E94321F48
:10363000E218F30804091509A80197010E94A61FC2
:103640002A0D3B1D4C1D5D1DB901CA01CF91DF91B3
:103650001F910F91FF90EF90DF90CF90BF90AF90B0
:103660009F908F907F906F905F904F903F902F90A2
:1036700008951F920F920FB60F9211242F933F932C
:103680008F939F93AF93BF938091AA049091AB04C3
:10369000A091AC04B091AD043091AE040196A11D8F
:1036A000B11D232F2D5F2D3720F02D570196A11D21
:1036B000B11D2093AE048093AA049093AB04A09311
:1036C000AC04B093AD048091A6049091A704A0919E
:1036D000A804B091A9040196A11DB11D8093A60470
:1036E0009093A704A093A804B093A904BF91AF91AD
:1036F0009F918F913F912F910F900FBE0F901F9030
:1037000018958FB7F8942091AA043091AB0440919A
:10371000AC045091AD048FBFB901CA0108959FB7A1
:10372000F8942091A6043091A7044091A8045091E8
:10373000A90486B5A89B06C08F3F21F02F5F3F4F9D
:103740004F4F5F4F9FBF542F432F322F2227280FF9
:10375000311D411D511D82E0220F331F441F551F93
:103760008A95D1F7B901CA010895EF92FF920F939C
:103770001F93CF93DF937B018C010E948F1BEB0182
:103780000EC00E948F1B6C1B7D0B685E7340C8F3DC
:103790000894E108F10801091109C851DC4FE1144E
:1037A000F1040105110569F7DF91CF911F910F9188
:1037B000FF90EF900895789484B5826084BD84B5BD
:1037C000816084BD85B5826085BD85B5816085BD1C
:1037D000EEE6F0E0808181608083E1E8F0E0108235
:1037E000808182608083808181608083E0E8F0E076
:1037F000808181608083E1EBF0E080818460808360
:10380000E0EBF0E0808181608083EAE7F0E0808196
:1038100084608083808182608083808181608083F6
:103820008081806880831092C1000895982F8E3027
:1038300008F09E50977080919D028295880F880FA6
:10384000807C892B80937C0080917A0080648093B7
:103850007A0080917A0086FDFCCF2091780040911B
:103860007900942F80E030E0282B392BC90108958E
:10387000482F50E0CA0186569F4FFC0124914A57B9
:103880005F4FFA0184918823C1F0E82FF0E0EE0F3A
:10389000FF1FE859FF4FA591B491662341F49FB7EC
:1038A000F8948C91209582238C939FBF08959FB7A5
:1038B000F8948C91822B8C939FBF0895482F50E0F1
:1038C000CA0182559F4FFC012491CA0186569F4F21
:1038D000FC0134914A575F4FFA019491992309F4FE
:1038E00040C0222331F1233021F4809180008F7772
:1038F00005C0243031F4809180008F7D809380005A
:1039000018C0213019F484B58F7704C0223021F417
:1039100084B58F7D84BD0DC0263021F48091B00028
:103920008F7705C0273029F48091B0008F7D809378
:10393000B000E92FF0E0EE0FFF1FEE58FF4FA5910A
:10394000B491662341F49FB7F8948C91309583230A
:103950008C939FBF08959FB7F8948C91832B8C9381
:103960009FBF0895FC018091AF048C3090F4808358
:103970008F5F8093AF04815090E0FC01EE0FFF1F3A
:10398000E80FF91FE055FB4F88EB9BE092838183A2
:1039900008958FEF80830895FC0120812C3008F07A
:1039A00041C08181992787FD909548E850E0481BE8
:1039B000590B440F551F440F551F6417750784F0AA
:1039C0008281992787FD909548E552E0481B590B65
:1039D000440F551F440F551F641775070CF4AB01B6
:1039E00042505040CA01AA2797FDA095BA2F44E043
:1039F000880F991FAA1FBB1F4A95D1F733E0B695D0
:103A0000A795979587953A95D1F74FB7F89430E0F9
:103A1000F901EE0FFF1FE20FF31FE055FB4F9283FA
:103A200081834FBF0895FC0180818F3F19F420E00E
:103A300030E016C090E0FC01EE0FFF1FE80FF91F09
:103A4000E055FB4F2181328183E0220F331F8A959D
:103A5000E1F7B4E036952795BA95E1F72E5F3F4F31
:103A6000C9010895AF92BF92CF92DF92EF92FF9279
:103A70000F931F938C010E94131D00D000D001965C
:103A8000AA2797FDA095BA2FF8016181772767FDD6
:103A9000709528E830E0261B370B220F331F220FCA
:103AA000331F442737FD4095542F6281772767FDE8
:103AB0007095E8E5EE2EE2E0FE2EE61AF70AEE0C2F
:103AC000FF1CEE0CFF1C0027F7FC0095102F64EB89
:103AD000A62EB12CC12CD12CEDB7FEB7A182B2829B
:103AE000C382D482BC01CD01AA24BB2465010E94FB
:103AF000F01A0F900F900F900F90CB011F910F9124
:103B0000FF90EF90DF90CF90BF90AF900895AF926D
:103B1000BF92CF92DF92EF92FF920F931F93CF93BA
:103B2000DF93EC019B0182E0603278070CF048C023
:103B300077FF03C020E030E005C0653B710514F05D
:103B400024EB30E000D000D0B901882777FD8095C4
:103B5000982F2981332727FD3095B8E8AB2EB12C5B
:103B6000A21AB30AAA0CBB1CAA0CBB1CCC24B7FC1F
:103B7000C094DC2CEA81FF27E7FDF09528E532E0D0
:103B80002E1B3F0B220F331F220F331F442737FDFD
:103B90004095542FEDB7FEB721833283438354837E
:103BA00020E030E040E050E0E4EBEE2EF12C012D7F
:103BB000112D0E94F01A9B010F900F900F900F9003
:103BC000CE01B9010E94CC1CDF91CF911F910F91C2
:103BD000FF90EF90DF90CF90BF90AF900895CF927D
:103BE000DF92EF92FF921F93CF93DF93EC01162F9A
:103BF0007A01690188818C3008F064C0862F61E009
:103C00000E94381C888190E0FC01EE0FFF1FE80F36
:103C1000F91FE055FB4F1F738081807C812B8083CF
:103C200080E292E08E199F0964E070E00E94711FAB
:103C3000698380E699E08C199D0964E070E00E9438
:103C4000711F6A83A8818A2F6CE00E94511F682F20
:103C500090E0AC01440F551F480F591F440F551FEA
:103C6000440F551F20E030E0C901840F951FFC016F
:103C7000EE0FFF1FE80FF91FE055FB4F808186FD17
:103C800015C02F5F3F4F2C30310571F724C01092C3
:103C9000800082E080938100109285001092840061
:103CA000B19A80916F00826080936F008A2F90E0BC
:103CB000FC01EE0FFF1FE80FF91FE055FB4F80815D
:103CC000806480838881DF91CF911F91FF90EF9076
:103CD000DF90CF9008956623D1F2E8CF40E252E022
:103CE00020E639E00E94EF1D08951F920F920FB653
:103CF0000F9211242F933F934F935F936F937F9372
:103D00008F939F93AF93BF93EF93FF938091D404CE
:103D100087FF05C010928500109284002BC020916F
:103D2000D404332727FD30958091AF0490E0281705
:103D3000390704F58091D404992787FD9095FC01FB
:103D4000EE0FFF1FE80FF91FE055FB4F808186FF44
:103D500011C08091D404992787FD9095FC01EE0F46
:103D6000FF1FE80FF91FE055FB4F80818F7360E064
:103D70000E945E1C8091D4048F5F8093D4042091B4
:103D8000D404332727FD30958091AF0490E02817A5
:103D900039070CF04EC08091D4048C300CF049C02F
:103DA00020918400309185008091D404992787FD6B
:103DB0009095FC01EE0FFF1FE80FF91FE055FB4F38
:103DC00081819281280F391F3093890020938800C8
:103DD0008091D404992787FD9095FC01EE0FFF1F79
:103DE000E80FF91FE055FB4F808186FF2AC08091C4
:103DF000D404992787FD9095FC01EE0FFF1FE80F73
:103E0000F91FE055FB4F80818F7361E00E945E1CBB
:103E100018C080E49CE905C08091840090918500E1
:103E2000049690938900809388008FEF8093D40448
:103E300008C0809184009091850084549C4948F387
:103E4000EBCFFF91EF91BF91AF919F918F917F91B8
:103E50006F915F914F913F912F910F900FBE0F90F7
:103E60001F901895629FD001739FF001829FE00D13
:103E7000F11D649FE00DF11D929FF00D839FF00DE9
:103E8000749FF00D659FF00D9927729FB00DE11D95
:103E9000F91F639FB00DE11DF91FBD01CF01112472
:103EA0000895991B79E004C0991F961708F0961B96
:103EB000881F7A95C9F780950895AA1BBB1B51E10D
:103EC00007C0AA1FBB1FA617B70710F0A61BB70B8A
:103ED000881F991F5A95A9F780959095BC01CD012F
:103EE000089597FB092E07260AD077FD04D0E5DF59
:103EF00006D000201AF4709561957F4F0895F6F76B
:103F0000909581959F4F0895A1E21A2EAA1BBB1B85
:103F1000FD010DC0AA1FBB1FEE1FFF1FA217B30795
:103F2000E407F50720F0A21BB30BE40BF50B661FAB
:103F3000771F881F991F1A9469F76095709580956F
:103F400090959B01AC01BD01CF01089597FB092E0F
:103F500005260ED057FD04D0D7DF0AD0001C38F458
:103F600050954095309521953F4F4F4F5F4F0895A5
:103F7000F6F790958095709561957F4F8F4F9F4F85
:103F800008952F923F924F925F926F927F928F92FD
:103F90009F92AF92BF92CF92DF92EF92FF920F93D8
:103FA0001F93CF93DF93CDB7DEB7CA1BDB0B0FB6E2
:103FB000F894DEBF0FBECDBF09942A88398848889F
:103FC0005F846E847D848C849B84AA84B984C88435
:103FD000DF80EE80FD800C811B81AA81B981CE0F2C
:103FE000D11D0FB6F894DEBF0FBECDBFED01089511
:103FF000EE0FFF1F0590F491E02D0994FB01519104
:104000005523A9F0BF01DC014D9145174111E1F79E
:1040100059F4CD010190002049F04D914015411116
:10402000C9F3FB014111EFCF81E090E001970895C2
:04403000F894FFCF32
:1040340073730073445256007353455200735049CE
:10404400440073434F4E5600734D4F54006750491C
:104054004448006C656674205049443A205B002C47
:1040640020005D207269676874205049443A205BDF
:10407400005D0D0A0067454E4300674759520067CB
:10408400425459006753455200674C5350006752DD
:10409400535000674C4D530067524D5300674241E3
:1040A400540020766F6C74732C200020616D707343
:1040B4000D0A00494E56414C494420434F4D4D4151
:1040C4004E44002E00000000000000000000010229
:1040D400020303030304040404040404040505059F
:1040E4000505050505050505050505050506060679
:1040F400060606060606060606060606060606065C
:104104000606060606060606060606060607070748
:10411400070707070707070707070707070707072B
:10412400070707070707070707070707070707071B
:10413400070707070707070707070707070707070B
:1041440007070707070707070707070707080808F8
:1041540008080808080808080808080808080808DB
:1041640008080808080808080808080808080808CB
:1041740008080808080808080808080808080808BB
:1041840008080808080808080808080808080808AB
:10419400080808080808080808080808080808089B
:1041A400080808080808080808080808080808088B
:1041B400080808080808080808080808080808087B
:1041C4000808080808080808080808080801000082
:1041D40000004E189B18B318EC171A184218001850
:00000001FF
