:100000000C9463000C94B71B0C94E41B0C944711E4
:100010000C946B110C948F110C948B000C948B002E
:100020000C948B000C949E0F0C948B000C94C01FAE
:100030000C948B000C948B000C948B000C948B0014
:100040000C945A1C0C948B000C94D4170C948B00B9
:100050000C948B000C948B000C948B000C948B00F4
:100060000C948B000C948B000000000024002700EF
:100070002A0000000000250028002B0000000000DE
:1000800023002600290004040404040404040202DA
:100090000202020203030303030301020408102007
:1000A0004080010204081020010204081020000012
:1000B0000007000201000003040600000000000029
:1000C0000000ED13771911241FBECFEFD8E0DEBF7B
:1000D000CDBF12E0A0E0B1E0EAECF2E402C005908E
:1000E0000D92AE3BB107D9F714E0AEEBB2E001C020
:1000F0001D92A73EB107E1F710E0C6ECD0E004C0C6
:100100002297FE010E944521C23CD107C9F70E94F7
:1001100035140C9463210C940000EF92FF920F931E
:100120001F937B018C0120E030E040E05FE40E94FF
:10013000690488238CF0C801B70120E030E040E07A
:100140005FE40E9405020E9457059B01AC0120500C
:1001500030404040504806C0C801B7010E945705D2
:100160009B01AC01B901CA011F910F91FF90EF9063
:100170000895A0E0B0E0EFEBF0E00C940C21DC017E
:100180002B01FA019C91923008F439C1EB0188816E
:10019000823008F433C1943069F4843009F02FC1FF
:1001A00011969C9111978981981709F428C1ACE99F
:1001B000B1E025C1843009F421C18230A9F4923024
:1001C00009F01DC19A01AD0188E0EA010990AE0174
:1001D000E90109929E018150C1F7E20189811196DE
:1001E0009C918923818308C1923009F407C112963A
:1001F0002D903C901397EB018A819B811496AD90D2
:10020000BD90CD90DC901797EC80FD800E811F8112
:100210009101281B390BB90137FF04C066277727E6
:10022000621B730B603271050CF061C0121613066D
:100230006CF537014801062E04C096948794779494
:1002400067940A94D2F721E030E040E050E004C027
:10025000220F331F441F551F6A95D2F7215030409B
:10026000404050402E213F2140235123211531058C
:100270004105510521F021E030E040E050E07901F6
:100280008A01E628F728082919293CC0232BD1F137
:10029000260E371E35014601062E04C0969487941B
:1002A000779467940A94D2F721E030E040E050E080
:1002B00004C0220F331F441F551F6A95D2F72150E7
:1002C0003040404050402A213B214C215D212115E6
:1002D00031054105510521F021E030E040E050E0DA
:1002E00059016A01A628B728C828D9280BC0821549
:1002F00093052CF01C01AA24BB24650103C0EE2445
:10030000FF24870111969C91D20111968C91981728
:1003100009F445C0992339F0A80197012A193B092E
:100320004C095D0906C0A60195012E193F09400B35
:10033000510B57FD08C011823382228224833583FA
:10034000468357831DC081E08183338222828827C0
:100350009927DC01821B930BA40BB50B8483958337
:10036000A683B7830DC0220F331F441F551F24835C
:100370003583468357838281938101979383828358
:100380002481358146815781DA01C9010197A1098C
:10039000B1098F5F9F4FAF4FBF4328F30BC09183CD
:1003A00033822282EA0CFB1C0C1D1D1DE482F582A7
:1003B0000683178383E080832481358146815781BA
:1003C00057FF1AC0C901AA2797FDA095BA2F8170BF
:1003D0009070A070B0705695479537952795822BF1
:1003E000932BA42BB52B84839583A683B78382811B
:1003F0009381019693838283DF0101C0D201CD01F5
:10040000CDB7DEB7E2E10C942821A0E2B0E0EBE04A
:10041000F2E00C94182169837A838B839C832D836B
:100420003E834F835887E9E0EE2EF12CEC0EFD1E43
:10043000CE010196B7010E9449078E010F5E1F4F42
:10044000CE010596B8010E9449078A8991E0892763
:100450008A8BC701B801AE01475E5F4F0E94B900A9
:100460000E947306A096E6E00C943421A0E2B0E06E
:10047000ECE3F2E00C94182169837A838B839C83EC
:100480002D833E834F835887F9E0EF2EF12CEC0E3D
:10049000FD1ECE010196B7010E9449078E010F5E35
:1004A0001F4FCE010596B8010E944907C701B80148
:1004B000AE01475E5F4F0E94B9000E947306A0968E
:1004C000E6E00C943421A0E2B0E0E9E6F2E00C941E
:1004D0000C2169837A838B839C832D833E834F8396
:1004E0005887CE010196BE01675F7F4F0E94490782
:1004F000CE010596BE016F5E7F4F0E944907998528
:10050000923088F089898230C8F0943019F48230B2
:1005100051F404C0843029F4923081F48CE991E0E4
:10052000C6C0923049F420E09A858A89981321E068
:100530002A87CE010996BBC0823049F420E09A8513
:100540008A89981321E02A8BCE014196B0C02D8470
:100550003E844F8458886D887E888F88988CEE24DE
:10056000FF248701AA24BB24650140E050E060E03D
:1005700070E0E0E0F0E0C10181709070892BE9F05B
:10058000E60CF71C081D191D9A01AB012A0D3B1D35
:100590004C1D5D1D80E090E0A0E0B0E0E614F704A3
:1005A0000805190520F481E090E0A0E0B0E0BA0170
:1005B000A901480F591F6A1F7B1FAA0CBB1CCC1C2A
:1005C000DD1C97FE08C081E090E0A0E0B0E0A82A22
:1005D000B92ACA2ADB2A3196E032F10549F0660CC5
:1005E000771C881C991C5694479437942794C3CF42
:1005F000FA85EA892B893C898B859C85280F391FD0
:100600002E5F3F4F17C0CA0181709070892B61F037
:1006100016950795F794E79480E090E0A0E0B0E8A5
:10062000E82AF92A0A2B1B2B76956795579547954B
:100630002F5F3F4F77FDE7CF0CC0440F551F661F5C
:10064000771F17FD4160EE0CFF1C001F111F21508A
:100650003040403090E0590790E0690790E4790716
:1006600060F32B8F3C8FDB01CA018F779070A070F5
:10067000B07080349105A105B10561F447FD0AC051
:10068000E114F1040105110529F0405C5F4F6F4F43
:100690007F4F40781A8EFE1711F081E08A8F4D8FC0
:1006A0005E8F6F8F78A383E0898FCE0149960E9479
:1006B0007306A096E2E10C942821A8E1B0E0E3E6FD
:1006C000F3E00C94142169837A838B839C832D83BC
:1006D0003E834F835887B9E0EB2EF12CEC0EFD1EC4
:1006E000CE010196B7010E9449078E010F5E1F4F90
:1006F000CE010596B8010E9449072985223008F4E9
:100700007EC03989323010F4B8017CC08A859A895C
:1007100089278A87243011F0223031F4231709F019
:100720006EC06CE971E06EC0343039F41D861E86EF
:100730001F86188A1C861B8604C0323021F484E090
:100740008987B7015FC02B853C858B899C89281BD5
:10075000390B3C872B87ED84FE840F851889AD8883
:10076000BE88CF88D88CEA14FB040C051D0540F424
:10077000EE0CFF1C001F111F215030403C872B87BF
:1007800020E030E040E050E080E090E0A0E0B0E425
:1007900060E070E0EA14FB040C051D0540F0282B16
:1007A000392B4A2B5B2BEA18FB080C091D09B6955F
:1007B000A79597958795EE0CFF1C001F111F6F5F83
:1007C0007F4F6F31710531F7DA01C9018F77907072
:1007D000A070B07080349105A105B10561F427FDCA
:1007E0000AC0E114F1040105110529F0205C3F4F16
:1007F0004F4F5F4F20782D873E874F87588BBE0124
:10080000675F7F4FCB010E9473066896EAE00C9405
:100810003021A8E1B0E0EFE0F4E00C941821698306
:100820007A838B839C832D833E834F83588789E013
:10083000E82EF12CEC0EFD1ECE010196B7010E94B0
:1008400049078E010F5E1F4FCE010596B8010E9429
:1008500049078985823040F08989823028F0C701B4
:10086000B8010E94C10701C081E06896E6E00C94DF
:100870003421A8E1B0E0EFE3F4E00C94182169839F
:100880007A838B839C832D833E834F83588789E0B3
:10089000E82EF12CEC0EFD1ECE010196B7010E9450
:1008A00049078E010F5E1F4FCE010596B8010E94C9
:1008B00049078985823040F08989823028F0C70154
:1008C000B8010E94C10701C08FEF6896E6E00C9462
:1008D0003421A8E1B0E0EFE6F4E00C94182169833C
:1008E0007A838B839C832D833E834F83588789E053
:1008F000E82EF12CEC0EFD1ECE010196B7010E94F0
:1009000049078E010F5E1F4FCE010596B8010E9468
:1009100049078985823040F08989823028F0C701F3
:10092000B8010E94C10701C08FEF6896E6E00C9401
:100930003421A8E1B0E0EFE9F4E00C9418216983D8
:100940007A838B839C832D833E834F83588789E0F2
:10095000E82EF12CEC0EFD1ECE010196B7010E948F
:1009600049078E010F5E1F4FCE010596B8010E9408
:1009700049078985823040F08989823028F0C70193
:10098000B8010E94C10701C081E06896E6E00C94BE
:100990003421A8E1B0E0EFECF4E00C941821698375
:1009A0007A838B839C832D833E834F83588789E092
:1009B000E82EF12CEC0EFD1ECE010196B7010E942F
:1009C00049078E010F5E1F4FCE010596B8010E94A8
:1009D00049078985823040F08989823028F0C70133
:1009E000B8010E94C10701C081E06896E6E00C945E
:1009F0003421A8E0B0E0EFEFF4E00C9415219B0166
:100A0000AC0183E08983DA01C9018827B7FD8395AA
:100A10009927AA27BB27B82E211531054105510575
:100A200019F482E089833AC08823A9F0203080E05D
:100A3000380780E0480780E8580729F460E070E054
:100A400080E09FEC30C0EE24FF248701E21AF30A15
:100A5000040B150B02C079018A018EE1C82ED12C3E
:100A6000DC82CB82ED82FE820F831887C801B7013A
:100A70000E94240601971816190684F4082E04C053
:100A8000EE0CFF1C001F111F0A94D2F7ED82FE82AC
:100A90000F831887C81AD90ADC82CB82BA82CE01AA
:100AA00001960E9473062896E9E00C943121ACE08F
:100AB000B0E0EDE5F5E00C941C2169837A838B832B
:100AC0009C83CE010196BE016B5F7F4F0E94490758
:100AD0008D81823061F1823050F1843021F48E8139
:100AE000882351F12EC02F81388537FD20C06E81BB
:100AF0002F3131051CF06623F9F023C08EE190E020
:100B0000821B930B29853A854B855C8504C05695DD
:100B10004795379527958A95D2F76623B1F050957A
:100B20004095309521953F4F4F4F5F4F0EC020E0CD
:100B300030E040E050E009C02FEF3FEF4FEF5FE7BC
:100B400004C020E030E040E050E8B901CA012C9632
:100B5000E2E00C943821A8E0B0E0E1EBF5E00C9481
:100B600014217B018C01611571058105910519F432
:100B700082E0898360C083E089838EE1C82ED12C16
:100B8000DC82CB82ED82FE820F831887C801B70119
:100B90000E942406FC013197F7FF3BC02227332730
:100BA0002E1B3F0B57016801022E04C0D694C79438
:100BB000B794A7940A94D2F740E050E060E070E068
:100BC00081E090E0A0E0B0E004C0880F991FAA1F68
:100BD000BB1F2A95D2F70197A109B1098E219F2148
:100BE000A023B1230097A105B10521F041E050E019
:100BF00060E070E04A295B296C297D294D835E8382
:100C00006F8378878EE190E08E1B9F0B9C838B8394
:100C100012C0309781F00E2E04C0EE0CFF1C001F96
:100C2000111F0A94D2F7ED82FE820F831887CE1A25
:100C3000DF0ADC82CB821A82CE0101960E94730603
:100C40002896EAE00C943021EF92FF920F931F93C5
:100C50007B018C0180E0E81680E0F80681E008075F
:100C600080E0180788F48FEFE816F10401051105FC
:100C700031F028F088E090E0A0E0B0E017C080E01C
:100C800090E0A0E0B0E012C080E0E81680E0F80656
:100C900080E0080781E0180728F088E190E0A0E0F4
:100CA000B0E004C080E190E0A0E0B0E020E230E0FD
:100CB00040E050E0281B390B4A0B5B0B04C0169533
:100CC0000795F794E7948A95D2F7F701EC55FE4F14
:100CD0008081281B310941095109C9011F910F91D8
:100CE000FF90EF900895DF92EF92FF920F931F9382
:100CF000FC01E480F58006811781D18080818230FB
:100D000058F480E090E0A0E1B0E0E82AF92A0A2B4C
:100D10001B2BEFEFF0E0A6C0843009F49EC08230B8
:100D200019F4E0E0F0E09BC0E114F10401051105C5
:100D300019F4E0E0F0E096C0628173819FEF6238C1
:100D400079070CF05BC022E83FEF261B370B2A31F6
:100D500031052CF020E030E040E050E02AC0B8013E
:100D6000A701022E04C076956795579547950A947A
:100D7000D2F781E090E0A0E0B0E004C0880F991FB6
:100D8000AA1FBB1F2A95D2F70197A109B1098E218D
:100D90009F21A023B1230097A105B10521F081E097
:100DA00090E0A0E0B0E09A01AB01282B392B4A2B50
:100DB0005B2BDA01C9018F779070A070B07080341E
:100DC0009105A105B10539F427FF09C0205C3F4F0B
:100DD0004F4F5F4F04C0215C3F4F4F4F5F4FE0E0EC
:100DE000F0E02030A0E03A07A0E04A07A0E45A076C
:100DF00010F0E1E0F0E079018A0127C06038710568
:100E000064F5FB01E158FF4FD801C7018F7790705F
:100E1000A070B07080349105A105B10539F4E7FEEA
:100E20000DC080E490E0A0E0B0E004C08FE390E06B
:100E3000A0E0B0E0E80EF91E0A1F1B1F17FF05C057
:100E400016950795F794E794319687E016950795E0
:100E5000F794E7948A95D1F705C0EFEFF0E0EE2420
:100E6000FF2487016E2F679566276795902F9F77E0
:100E7000D794DD24D7948E2F8695492F462B582F53
:100E80005D29B701CA011F910F91FF90EF90DF908C
:100E90000895FC01DB01408151812281622F6F772F
:100EA00070E0221F2227221F9381892F880F822B17
:100EB000282F30E0991F9927991F11969C9311971D
:100EC00021153105A9F5411551056105710511F48B
:100ED00082E037C082E89FEF13969C938E9312971F
:100EE0009A01AB0167E0220F331F441F551F6A951B
:100EF000D1F783E08C930DC0220F331F441F551F81
:100F000012968D919C911397019713969C938E93B3
:100F10001297203080E0380780E0480780E45807C7
:100F200058F314962D933D934D935C931797089522
:100F30002F3F310579F4411551056105710519F40B
:100F400084E08C93089564FF03C081E08C9312C009
:100F50001C9210C02F57304013963C932E9312973B
:100F600083E08C9387E0440F551F661F771F8A9597
:100F7000D1F7706414964D935D936D937C9317979E
:100F800008951F93DC01FB019C91923008F447C047
:100F90008081823008F443C0943051F411961C9142
:100FA000843099F58181682F70E0611B71093FC021
:100FB000843021F0923031F48230B9F1818188237C
:100FC00089F12DC011961C9111978230F1F0818129
:100FD0001817D9F412962D913C9113978281938121
:100FE0008217930794F028173907BCF014968D9157
:100FF0009D910D90BC91A02D248135814681578112
:10100000281739074A075B0718F4112341F00AC073
:1010100082179307A407B50740F4112319F061E084
:1010200070E005C06FEF7FEF02C060E070E0CB01C1
:101030001F910895AF92BF92CF92DF92EF92FF92ED
:101040000F931F93DF93CF930F92CDB7DEB78C0131
:10105000962F603108F09FE0F80185819817D9F04C
:101060007801AA24BB24C92EDD24B6010A2C02C0B3
:10107000759567950A94E2F76170F70181917F0198
:1010800099830E947F1D0894A11CB11C9981F4E0F2
:10109000AF16B10451F7F80195830F90CF91DF910E
:1010A0001F910F91FF90EF90DF90CF90BF90AF9086
:1010B00008950F931F938C010E941A08F8018481F0
:1010C0000E94371D1F910F910895EF920F931F9368
:1010D000CF93DF93EC01688349832A830B83EC82EF
:1010E00000E010E0FE01E00FF11F808161E00E944E
:1010F000591D0F5F1F4F04301105A1F78C8160E06F
:101100000E94591D8C8160E00E947F1DCE0160E02D
:101110000E941A08DF91CF911F910F91EF900895CF
:10112000FC017283618317A6108281E0838314829D
:101130001582168217820895AF92BF92CF92DF92E6
:10114000EF92FF920F931F937A018B010E94A21CD2
:101150005B016C01AE0CBF1CC01ED11E0E94A21C04
:101160006A157B058C059D05A0F481EA94E00E9438
:101170000219892B71F4F2CF81EA94E00E943019B0
:101180001F910F91FF90EF90DF90CF90BF90AF90A5
:10119000089581EA94E00E940219892B69F780E0A2
:1011A000EFCFEF92FF920F931F93CF93DF93EC015A
:1011B0008CE38C8B8EE38EA709811A810F581F4F09
:1011C000F801608171818281938120E030E048ECF8
:1011D00052E40E94630220E030E040E050E00E94D0
:1011E0003904181654F4F801608171818281938169
:1011F00020E030E048EC52E409C0F80160817181E0
:101200008281938120E030E048EC52EC0E9463023E
:101210000E948D007F8B6E8B09811A8106571F4FAC
:10122000F801608171818281938120E030E048EC97
:1012300052E40E94630220E030E040E050E00E946F
:101240003904181654F4F801608171818281938108
:1012500020E030E048EC52E409C0F801608171817F
:101260008281938120E030E048EC52EC0E946302DE
:101270000E948D00798F688FE981FA81EE56FF4FC9
:1012800080818A8F329680818B8FF49780819181C3
:10129000A281B381181619061A061B062CF42081A8
:1012A0003181428153810BC080819181A281B381C0
:1012B00022273327A901281B390B4A0B5B0B2C8FE4
:1012C0003D8F4E8F5F8FE981FA81E758FF4F808114
:1012D0009181A281B381181619061A061B062CF4F7
:1012E00020813181428153810BC080819181A28113
:1012F000B38122273327A901281B390B4A0B5B0B2B
:1013000028A339A34AA35BA3E981FA81E280F38091
:1013100004811581C801B70120E030E040E050E0D1
:101320000E94390418163CF4C801B70120E030E0EF
:101330004AE754E406C0C801B70120E030E04AE7BC
:1013400054EC0E9463020E948D007DA36CA3E9818E
:10135000FA81E680F78000851185C801B70120E099
:1013600030E040E050E00E94390418163CF4C80117
:10137000B70120E030E04AE754E406C0C801B701F5
:1013800020E030E04AE754EC0E9463020E948D00A6
:101390007FA36EA389819A810E94C41120E030E06E
:1013A00048EC52E40E9463020E94570579A768A79F
:1013B00089819A810E94B31120E030E048EC52E428
:1013C0000E9463020E9457057BA76AA789819A81C0
:1013D0000A960E947D1E8CA789819A810D960E9493
:1013E0007D1E8DA71D8AE981FA81EF58FF4F60812C
:1013F00071818281938100E020E030E040E050E0A4
:101400000E94690488230CF001E00D8BE980FA80CA
:101410002AE830E0E20EF31EF701608171818281DB
:10142000938126E73FEFE20EF31E20E030E040E03C
:1014300050E00E946904182F1095111F1127111FE9
:10144000110F102B1D8BF7016281738184819581AF
:1014500020E030E040E050E00E946904082F009551
:10146000001F0027001F000F000F012B0D8BF7013D
:10147000668177818085918520E030E040E050E012
:101480000E9469048095881F8827881F880F880F0D
:10149000880F802B8D8B20E630E0E20EF31EF701E3
:1014A000208131814281538120953095409550951E
:1014B000222757FD23953327442755272295207F40
:1014C000282B2D8B89E190E0E80EF91EF701808131
:1014D0009181A281B38180959095A095B095882740
:1014E000B7FD83959927AA27BB278295880F807E11
:1014F000822B8D8B2C8928AB89AB8F898AAB8E8907
:101500008BAB898D8CAB888D8DAB8A8D8EAB8B8DA3
:101510008FAB8C8D9D8DAE8DBF8D2B2F33274427A8
:10152000552728AF9D014427552729AF892F9A2F8A
:10153000AB2FBB278AAF8C8D8BAF88A199A1AAA1B5
:10154000BBA12B2F3327442755272CAF9D014427C0
:1015500055272DAF892F9A2FAB2FBB278EAF88A190
:101560008FAF8DA1C05CDF4F8883C054D0408CA169
:10157000CF5BDF4F8883C154D0408FA1CE5BDF4F5C
:101580008883C254D0408EA1CD5BDF4F8883C35483
:10159000D04088A599A5892F990F990BCC5BDF4F77
:1015A0008883C454D04088A5CB5BDF4F8883C55463
:1015B000D0408AA59BA5892F990F990BCA5BDF4F55
:1015C0008883C654D0408AA5C95BDF4F8883C7543F
:1015D000D0408DA5C85BDF4F8883C854D0408CA510
:1015E000C75BDF4F8883C954D0408EA5C65BDF4FF1
:1015F00088836A9781EA94E0BE014BE150E00E9443
:10160000C919DF91CF911F910F91FF90EF9008952D
:10161000AF92BF92CF92DF92EF92FF920F931F9300
:10162000DF93CF93CDB7DEB760970FB6F894DEBFE8
:101630000FBECDBF5C018C01045F1F4FC80160E08D
:1016400071E00E944921009791F0C5014AEF50E0F6
:1016500060E070E00E949C08D50113961C921397DD
:10166000882309F4AAC381E013968C93A6C3C8010A
:1016700063E071E00E944921009709F44BC08E019C
:101680000F5F1F4F75E0E72EF12CEC0EFD1EC5011C
:101690004AEF50E060E070E00E949C08F8018193FE
:1016A0008F01EE15FF0599F7D50111960D911C914B
:1016B0001297798160E02A8130E0622B732B8827B2
:1016C00077FD8095982F0E94F9042DEC3CEC4CECB2
:1016D0005DE30E946302F801608B718B828B938BB8
:1016E0007B8160E02C8130E0622B732B882777FDB3
:1016F0008095982F0E94F9042DEC3CEC4CEC5DE3B6
:101700000E946302D801D8966D937D938D939C932C
:10171000DB9753C3C80168E071E00E94492100973C
:1017200049F1C50144E650E060E070E00E949C0889
:10173000182FC50144E650E060E070E00E949C086C
:10174000082FF501818192810A96153B08F014EB70
:10175000612F70E00E94D21ED50111968D919C914F
:1017600012970D96602F053B08F064EB70E00E9425
:10177000D21E23C3C8016DE071E00E944921009789
:1017800009F4A4C08E010B5F1F4F61E1E62EF12C1E
:10179000EC0EFD1EC5014AEF50E060E070E00E94D3
:1017A0009C08F80181938F01EE15FF0599F7D5018B
:1017B00011960D911C9112977D8160E02E8130E091
:1017C000622B732B882777FD8095982F0E94F90450
:1017D0002AE037ED43E25CE30E946302F80160A770
:1017E00071A782A793A77F8160E0288530E0622BF4
:1017F000732B882777FD8095982F0E94F9042AE0A3
:1018000037ED43E25CE30E946302D8019C966D933E
:101810007D938D939C939F97798560E02A8530E036
:10182000622B732B882777FD8095982F0E94F904EF
:101830002AE037ED43E25CE30E946302F80160AB0B
:1018400071AB82AB93AB005B1F4F7B8560E02C8557
:1018500030E0622B732B882777FD8095982F0E94AC
:10186000F9042AE037ED43E25CE30E946302D80109
:101870006D937D938D939D938D017D8560E02E8585
:1018800030E0622B732B882777FD8095982F0E947C
:10189000F9042AE037ED43E25CE30E946302F801B9
:1018A00061937193819391938F017F8560E0288983
:1018B00030E0622B732B882777FD8095982F0E944C
:1018C000F9042AE037ED43E25CE34DC0C80162E170
:1018D00071E00E944921009709F44EC08E010F5F0C
:1018E0001F4F55E0E52EF12CEC0EFD1EC5014AEF11
:1018F00050E060E070E00E949C08F80181938F0145
:10190000EE15FF0599F7D50111960D911C911297CF
:101910000B581F4F798160E02A8130E0622B732BD6
:10192000882777FD8095982F0E94F90427E137EBEF
:1019300041ED58E30E946302F80160837183828362
:101940009383075E1F4F7B8160E02C8130E0622B28
:10195000732B882777FD8095982F0E94F90427E143
:1019600037EB41ED58E30E946302D8016D937D93FC
:101970008D939C93139721C2C80168E171E00E9486
:101980004921009709F1C5014AEF50E060E070E09D
:101990000E949C08082FC5014AEF50E060E070E00B
:1019A0000E949C08D5011196ED91FC911297EE567C
:1019B000FF4F112707FD109501931193992787FD7C
:1019C000909591838083F9C1C8016DE171E00E9417
:1019D0004921009709F489C081EA94E063E271E04B
:1019E0000E94E819D5011196ED91FC91129740A53E
:1019F00051A562A573A581EA94E02AE030E00E9437
:101A0000861B81EA94E06FE271E00E94E819D5013B
:101A10001196ED91FC91129744A555A566A577A561
:101A200081EA94E02AE030E00E94861B81EA94E09B
:101A30006FE271E00E94E819D5011196ED91FC91D9
:101A4000129740A951A962A973A981EA94E02AE0FA
:101A500030E00E94861B81EA94E062E371E00E941C
:101A6000E819D5011196ED91FC911297E05BFF4FBB
:101A7000408151816281738181EA94E02AE030E003
:101A80000E94861B81EA94E06FE271E00E94E819EF
:101A9000D5011196ED91FC911297EC5AFF4F4081C0
:101AA00051816281738181EA94E02AE030E00E94F2
:101AB000861B81EA94E06FE271E00E94E819D5018B
:101AC0001196ED91FC911297E85AFF4F4081518198
:101AD0006281738181EA94E02AE030E00E94861BF3
:101AE00081EA94E061E471E05FC1C80165E471E0FE
:101AF0000E9449210097F1F0F501C180D280D60102
:101B000054966D917D918D919C91579720E030E096
:101B100040E251E40E9463020E9457057B018C0160
:101B2000F60164AD75AD86AD97AD20E030E040E2E2
:101B300051E425C0C8016AE471E00E944921009780
:101B400009F445C0F501C180D280D60112966D918D
:101B50007D918D919C91159720E030E048EC52E406
:101B60000E9463020E9457057B018C01F601668189
:101B700077818085918520E030E048EC52E40E9436
:101B800063020E9457052CE3D501D0962C93D09781
:101B90002F2D332727FD3A95D1962C93D197D296A6
:101BA000EC92D297472F552747FD5A95D3964C93E1
:101BB000D397D4966C93D4972E0D240F260F2F779E
:101BC000D5962C93D5978EE3D6968C933BC0C801BF
:101BD0006FE471E00E9449210097E1F1F5018181F4
:101BE00092810E94C41120E030E048EC52E40E944F
:101BF00063020E9457057B018C01D50111968D91DE
:101C00009C9112970E94B31120E030E048EC52E41E
:101C10000E9463020E9457052CE3F50120AB2F2D93
:101C2000332727FD3A9521ABE2AA472F552747FDD9
:101C30005A9543AB64AB2E0D240F260F2F7725AB9F
:101C40008EE386ABB501605D7F4F81EA94E047E0AB
:101C500050E030C0C80164E571E00E94492100975E
:101C600061F1D50111968D919C9112970A960E946F
:101C70007D1E182FF501818192810D960E947D1E97
:101C80009CE3D501D0969C93D097D1961C93D19785
:101C9000D2968C93D297810F8F77D3968C93D397CC
:101CA0008EE3D4968C93B501605D7F4F81EA94E01A
:101CB00045E050E00E94C91980C0C80169E571E0A3
:101CC0000E944921009751F0D5011196ED91FC91A8
:101CD0001297408951896289738932C0C8016EE5C3
:101CE00071E00E944921009751F0D5011196ED91C4
:101CF000FC91129740AD51AD62AD73AD21C0C801EA
:101D000063E671E00E944921009751F0D5011196D8
:101D1000ED91FC911297448955896689778910C0A5
:101D2000C80168E671E00E944921009781F0D50161
:101D30001196ED91FC91129744AD55AD66AD77AD1E
:101D400081EA94E02AE030E00E94891B36C0C80195
:101D50006DE671E00E944921009749F1F50181810A
:101D600092810E94C411AB01BC0181EA94E02AE097
:101D700030E00E94861B81EA94E062E771E00E94F5
:101D8000E819D50111968D919C9112970E94B3117B
:101D9000AB01BC0181EA94E02AE030E00E94861B9E
:101DA00081EA94E06BE771E00E94E81906C081EADD
:101DB00094E063E871E00E94EF1AF50117A680E055
:101DC00090E294878F5F31968830D9F760960FB68E
:101DD000F894DEBF0FBECDBFCF91DF911F910F9161
:101DE000FF90EF90DF90CF90BF90AF900895EF926B
:101DF000FF920F931F93CF93DF93EC018B81882386
:101E0000F1F1E884F9840A851B850E94A21CE61A78
:101E1000F70A080B190B29E2E216F1040105110576
:101E200070F1CE010E94D1082AC00E94A21C6C83CE
:101E30007D838E839F8381EA94E00E9430198A33E8
:101E400049F41FA6FE0180E014878F5F3196883029
:101E5000D9F716C0813219F09FA5973048F08FA5A9
:101E6000FE01E80FF11D1486CE010E94080B08C088
:101E7000FE01E90FF11D84879F5F9FA701C010E25B
:101E800081EA94E00E940219892B79F60E94A21C33
:101E9000E0E02C813D814E815F81621B730B840BDE
:101EA000950B695E73408040904008F4E1E0E88360
:101EB000DF91CF911F910F91FF90EF900895809146
:101EC000C4029091C502A091C602B091C7020196CA
:101ED000A11DB11D8093C4029093C502A093C602B8
:101EE000B093C7022091C4023091C5024091C6024E
:101EF0005091C7028091BE029091BF02A091C00292
:101F0000B091C102281739074A075B07B0F08091EA
:101F1000C802882391F481E08093C8021092C40221
:101F20001092C5021092C6021092C702E091C2023E
:101F3000F091C30209951092C80208951F920F9262
:101F40000FB60F9211242F933F934F935F936F938C
:101F50007F938F939F93AF93BF93EF93FF93809162
:101F6000C9029091CA028093B2000E945F0FFF9154
:101F7000EF91BF91AF919F918F917F916F915F9101
:101F80004F913F912F910F900FBE0F901F9018957A
:101F9000EF92FF920F931F93FC0143832483E1860A
:101FA000F2860387148781E08283718360831F91A7
:101FB0000F91FF90EF9008950F931F93CF93DF93AE
:101FC000EC018A81882361F0888199816B810E946C
:101FD00059088C01888199816C810E94590807C039
:101FE0008B810E94371D8C018C810E94371D081B3C
:101FF000190BB801882777FD8095982F0E94F90466
:1020000029853A854B855C850E9463022D813E813E
:102010004F8158850E940502DF91CF911F910F914A
:102020000895AF92BF92CF92DF92EF92FF920F93FB
:102030001F93CF93DF93EC017B01442309F056C03B
:1020400080E090E0A0E0B0E08D839E83AF83B8870E
:10205000CC24DD243AC08A81882361F0888199816B
:102060006B810E9459088C01888199816C810E9442
:10207000590807C08B810E94371D8C018C810E94FA
:10208000371D081B190BB801882777FD8095982FFD
:102090000E94F90429853A854B855C850E9463027C
:1020A0009B01AC016D817E818F8198850E943602F3
:1020B0006D837E838F83988761E070E080E090E09D
:1020C0000E94D61C0894C11CD11CCE14DF0418F247
:1020D000B70180E090E00E94AB059B01AC016D81EF
:1020E0007E818F8198850E945D034FC080E090E0E3
:1020F0000E94AB055B016C010894E108F108B7018F
:1021000080E090E00E94AB05A60195010E945D036E
:102110009B01AC016D817E818F8198850E94630255
:102120006D837E838F8398878A81882361F088817D
:1021300099816B810E9459088C01888199816C81F9
:102140000E94590807C08B810E94371D8C018C8129
:102150000E94371D081B190BB801882777FD809551
:10216000982F0E94F90429853A854B855C850E9449
:102170006302A60195010E945D039B01AC016D8184
:102180007E818F8198850E9436026D837E838F8346
:102190009887DF91CF911F910F91FF90EF90DF9083
:1021A000CF90BF90AF9008950F931F93CF93DF937D
:1021B000FC018189A481B5819381082F027081FF80
:1021C00005C08C91892309F454C004C08C918923E3
:1021D00009F04FC08185928520E001972FEF8F3F56
:1021E0009207D9F7C385D485A481B581738160E056
:1021F00031E040E050E010E0CE01212F01972FEFB9
:102200008F3F9207D9F78C91872311F0632B03C07E
:10221000832F80956823330F4F5F5F4F4830510500
:1022200059F78585968520E001972FEF8F3F92071C
:10223000D9F70111609580910D0320910E0390E074
:1022400001968F73907030E08217930779F0E091D8
:102250000D03F0E0E353FD4F608380910D0390E0A8
:1022600001968F73907080930D0303C08189816004
:10227000818BDF91CF911F910F9108958091CB02B7
:102280009091CC02009711F00E94D41008951F92F3
:102290000F920FB60F9211242F933F934F935F939A
:1022A0006F937F938F939F93AF93BF93EF93FF931E
:1022B0000E943E11FF91EF91BF91AF919F918F913D
:1022C0007F916F915F914F913F912F910F900FBE32
:1022D0000F901F9018951F920F920FB60F92112416
:1022E0002F933F934F935F936F937F938F939F931E
:1022F000AF93BF93EF93FF930E943E11FF91EF9135
:10230000BF91AF919F918F917F916F915F914F910D
:102310003F912F910F900FBE0F901F9018951F9215
:102320000F920FB60F9211242F933F934F935F9309
:102330006F937F938F939F93AF93BF93EF93FF938D
:102340000E943E11FF91EF91BF91AF919F918F91AC
:102350007F916F915F914F913F912F910F900FBEA1
:102360000F901F901895FC0181810E94371DA0E0FD
:10237000B0E0BC01CD010E94AB0524E739EB48E099
:102380005EE30E9463020895FC0180810E94371D74
:10239000A0E0B0E0BC01CD010E94AB0520E030E040
:1023A0004DE95DE30E9463020895CF93DF93EC0152
:1023B0006623A1F0442391F068834983862F60E06F
:1023C0000E94591D898160E00E94591D888160E04A
:1023D0000E947F1D898160E00E947F1DDF91CF9167
:1023E0000895DF93CF9300D0CDB7DEB7CE0101962D
:1023F00060E040E00E94D5110F900F90CF91DF91E7
:102400000895FC01A081B1812D913C916AEAF90106
:1024100009950895EF92FF920F931F938C01F62E6A
:10242000E42EDC01ED91FC9111970190F081E02DFB
:1024300012966C910995D801ED91FC910190F08173
:10244000E02DC8016F2D0995D801ED91FC91019007
:10245000F081E02DC8016E2D0995D801ED91FC9118
:10246000119712968C91F80EFE0CBFE7FB2201909B
:10247000F081E02DC8016F2D09951F910F91FF90FC
:10248000EF90089547FD4FE70E940A120895FC015E
:10249000262F332727FD30953683258367FD03C01C
:1024A00060E0422F05C044275527421B530B61E0D3
:1024B0000E9442120895FC01262F332727FD3095F4
:1024C0003483238367FD03C064E0422F05C04427A3
:1024D0005527421B530B65E00E9442120895EF926C
:1024E000FF920F931F938C01F62EE42E0E9401128F
:1024F000C8016F2D0E945B12C8016E2D0E94471209
:102500001F910F91FF90EF9008950F93DC0122230C
:1025100019F4EFEFFFEF02C0E1E0F0E0002319F45F
:102520002FEF3FEF02C021E030E0862F992787FD93
:102530009095E89FB001E99F700DF89F700D1124F0
:10254000842F992787FD9095289FA001299F500DE2
:10255000389F500D1124CD010E946F120F910895E4
:102560000F931F93CF93DF93DC011FB7F894189656
:10257000ED91FC911997908117968C911797809502
:102580008923808387E790E020E001972FEF8F3F3A
:102590009207D9F731E040E050E070E0C2E7D0E0C8
:1025A00000E0832F90E0862397231896ED91FC910D
:1025B000199717962C911797892B21F08081822BE0
:1025C000808304C08081209528232083CE01202F82
:1025D00001972FEF8F3F9207D9F7330F4F5F5F4F70
:1025E00048305105F1F61896ED91FC9119978081CC
:1025F00017969C91892B80831FBF82E790E020E093
:1026000001972FEF8F3F9207D9F7DF91CF911F915D
:102610000F910895FF920F931F938C01F42E89EA76
:1026200092E0D80111969C938E9312966C93842F0E
:1026300061E00E94591D8F2D61E00E947F1D8F2D4A
:1026400090E0FC01E656FF4FE491D8011796EC9319
:1026500017978A579F4FFC014491E42FF0E0EE0F4B
:10266000FF1FEE58FF4F8591949119969C938E937E
:10267000189782E790E020E001972FEF8F3F9207B5
:10268000D9F7C8010E9401121F910F91FF90089580
:102690002F923F924F925F926F927F928F929F9272
:1026A000AF92BF92CF92DF92EF92FF920F931F9360
:1026B000CF93DF93EC011A012B01688179818A8124
:1026C0009B812C813D814E815F810E9405026C8B34
:1026D0007D8B8E8B9F8BA20191010E9463022C85C2
:1026E0003D854E855F850E9436027B018C016C879B
:1026F0007D878E879F876CA07DA08EA09FA06401A0
:102700005301D7FAD094D7F8D094A60195010E942E
:10271000990488231CF4350146010AC0C801B70199
:10272000A40193010E943904181614F037014801DE
:102730006C867D868E869F86AC88BD88CE88DF8835
:10274000C601B501288D398D4A8D5B8D0E946302CB
:102750007B018C01C401B3012C8D3D8D4E8D5F8DAD
:102760000E9463029B01AC01C801B7010E943602BE
:102770007B018C01C601B501288939894A895B89A9
:102780000E94050228A139A14AA15BA10E9463020F
:10279000A20191010E945D039B01AC01C801B70138
:1027A0000E943602688779878A879B87A88AB98AB8
:1027B000CA8ADB8ADF91CF911F910F91FF90EF9032
:1027C000DF90CF90BF90AF909F908F907F906F9051
:1027D0005F904F903F902F900895AF92BF92CF920D
:1027E000DF92EF92FF920F931F939BE1C92E93E02C
:1027F000D92EC6010E94F111C6010A960E94D31D6E
:10280000C6010D960E94D31D81EBA82E83E0B82E41
:10281000C5016AE04BE02CE00DE0EE240E94650863
:1028200087EB93E0B5014EE02FE00F2EF8E5EF2E99
:10283000F0EAFF2EFBE00F2FFDE31F2FF02D0E948B
:10284000C80F88EC93E060E846E00E940A1382ED2E
:1028500093E0B6010E9490081F910F91FF90EF90B6
:10286000DF90CF90BF90AF9008954F925F926F929C
:102870007F928F929F92AF92BF92CF92DF92EF9210
:10288000FF920F931F93DF93CF9300D000D0CDB76B
:10289000DEB70E94FC1C81EA94E040E052EC61E06B
:1028A00070E00E9411188BE193E061E042E00E9429
:1028B000D51185E293E06AE570E00E94D21E85E2C0
:1028C00093E068E070E00E94B91F88E293E06AE557
:1028D00070E00E94D21E88E293E069E070E00E94FE
:1028E000B91F0F2EFAE9AF2EF9E9BF2EF9E1CF2E6D
:1028F000FFE3DF2EF02DA0924303B0924403C09279
:102900004503D09246030F2EFDECEF2EFCECFF2E7C
:10291000FCEC0F2FFDE31F2FF02DE0924703F09208
:1029200048030093490310934A0320E030E040E05D
:1029300050E020934B0330934C0340934D0350934E
:102940004E0380E090E0AEEFB2E480934F039093AB
:102950005003A0935103B0935203A0926B03B09223
:102960006C03C0926D03D0926E03E0926F03F092FD
:1029700070030093710310937203209373033093D9
:102980007403409375035093760380937703909379
:102990007803A0937903B0937A038FE692E1A3E8DA
:1029A000BBE38093900390939103A0939203B09321
:1029B00093038093A9039093AA03A093AB03B093CE
:1029C000AC0383E0898385E08A8382E08B8384E0A3
:1029D0008C837E010894E11CF11C45E0C42ED12CAF
:1029E000CC0EDD1EF70111917F01812F60E00E9466
:1029F000591D812F60E00E947F1DEC14FD0491F7AA
:102A000080E061E977E143E050E00E94941B81E0BF
:102A10006AE477E143E050E00E94941B81E161E0C9
:102A20000E94591D81E161E00E947F1D87EB93E0C8
:102A300068EE73E040E00E941110662477244301A1
:102A400031E0432E512C82ED93E00E94F70E0E945C
:102A5000A21C609313037093140380931503909347
:102A600016032091170330911803409119035091D8
:102A70001A03621773078407950738F18091D20310
:102A8000882371F066B170E023E0769567952A950A
:102A9000E1F764257525617081E10E947F1D01C009
:102AA00043988091130390911403A0911503B09162
:102AB00016038C509E4FAF4FBF4F809317039093D8
:102AC0001803A0931903B0931A0320910F033091B8
:102AD00010034091110350911203809113039091C0
:102AE0001403A0911503B091160382179307A4074E
:102AF000B50708F4C9C181EA94E063E971E00E9476
:102B0000E81981EA94E0B401A3012AE030E00E94D0
:102B1000E41A60911303709114038091150390914E
:102B200016036C597F4F8F4F9F4F20910F033091A9
:102B300010034091110350911203621B730B840B1D
:102B4000950B0E94AB052FE632E143E85AE30E9461
:102B500063025B016C0187EB93E00E94DC0F7B0159
:102B60008C0160931D0370931E0380931F03909349
:102B70002003C601B5012091C4033091C5034091E3
:102B8000C6035091C7030E9463029B01AC01609190
:102B900021037091220380912303909124030E94CA
:102BA0003602609321037093220380932303909352
:102BB0002403C801B70120E030E040E050E00E946B
:102BC000390418165CF4C801B7012FE632E143E876
:102BD0005AE30E94C904181694F10AC0C801B7014B
:102BE0002FE632E143E85AEB0E94690488233CF166
:102BF00060912B0370912C0380912D0390912E03F3
:102C000020E030E040E050E00E9409048823B9F45D
:102C10006091530370915403809155039091560332
:102C200020E030E040E050E00E940904882339F4BD
:102C300087EB93E068EE73E041E00E941110609131
:102C40007B0370917C0380917D0390917E032091A2
:102C50007F03309180034091810350918203621B76
:102C6000730B840B950B0E94F90420919003309113
:102C7000910340919203509193030E946302A60135
:102C800095010E945D0360938C0370938D03809384
:102C90008E0390938F0360919403709195038091BC
:102CA0009603909197032091980330919903409156
:102CB0009A0350919B03621B730B840B950B0E942C
:102CC000F9042091A9033091AA034091AB035091DC
:102CD000AC030E946302A60195010E945D0360930C
:102CE000A5037093A6038093A7039093A8038091F4
:102CF0007B0390917C03A0917D03B0917E03809330
:102D00007F0390938003A0938103B093820380910B
:102D1000940390919503A0919603B09197038093AB
:102D2000980390939903A0939A03B0939B03809187
:102D30008C0390918D03A0918E03B0918F038093AB
:102D40002F0390933003A0933103B093320380910B
:102D5000A5039091A603A091A703B091A803809327
:102D6000570390935803A0935903B0935A038BE2EF
:102D700093E0B601A5010E94481383E593E0B601F4
:102D8000A5010E9448136091AF037091B00388279A
:102D900077FD8095982F0E94F90420915B03309174
:102DA0005C0340915D0350915E030E9436020E94D5
:102DB0005705162F072F6091AD037091AE0388273A
:102DC00077FD8095982F0E94F9042091330330916C
:102DD000340340913503509136030E9436020E941D
:102DE00057056038710514F06FE770E0FFEF613848
:102DF0007F0714F461E87FEF7093AE036093AD0337
:102E0000812F902F9C012038310514F02FE730E0FE
:102E10008FEF2138380714F421E83FEF3093B003E7
:102E20002093AF0385E293E00E94ED1D88E293E0DA
:102E30000E94ED1D88EC93E06091AD034091AF03DB
:102E400020E001E00E94851285E293E068E070E0F6
:102E50000E94B91F88E293E069E070E00E94B91F08
:102E60008091130390911403A0911503B091160360
:102E70008C599F4FAF4FBF4F80930F039093100318
:102E8000A0931103B09312030894611C711C811C60
:102E9000911CD9CD84B58F7D84BD89B182958695ED
:102EA0008770809581708093A40320919403309162
:102EB000950340919603509197038091A403882332
:102EC00029F48FEF9FEFAFEFBFEF04C081E090E0F8
:102ED000A0E0B0E0820F931FA41FB51F809394035E
:102EE00090939503A0939603B093970380919C03CE
:102EF00090919D03A0919E03B0919F038093A003A6
:102F00009093A103A093A203B093A3030E94B01CCB
:102F100060939C0370939D0380939E0390939F0303
:102F2000089589B182958F708095817080938B030D
:102F300020917B0330917C0340917D0350917E036F
:102F400080918B03882329F48FEF9FEFAFEFBFEFC2
:102F500004C081E090E0A0E0B0E0820F931FA41FC6
:102F6000B51F80937B0390937C03A0937D03B09364
:102F70007E038091830390918403A0918503B09197
:102F800086038093870390938803A0938903B0936B
:102F90008A030E94B01C6093830370938403809320
:102FA00085039093860308951F920F920FB60F9298
:102FB00011242F933F934F935F936F937F938F933E
:102FC0009F93AF93BF93EF93FF934091C600E0911F
:102FD0009D04F0919E04CF01019660E870E00E948C
:102FE000BC209C0180919F049091A0042817390770
:102FF00039F0E35EFB4F408330939E0420939D04A1
:10300000FF91EF91BF91AF919F918F917F916F91C0
:103010005F914F913F912F910F900FBE0F901F9096
:1030200018955F926F927F928F929F92AF92BF920C
:10303000CF92DF92EF92FF920F931F93CF93DF9384
:10304000EC015A016B0181E4A81682E4B8068FE016
:10305000C80680E0D80608F077C060E874E88EE122
:1030600090E0A60195010E94CF2039014A01089401
:103070006108710881089108969487947794679401
:10308000A40193012F5F3F4F4F4F5F4F74E0220F1A
:10309000331F441F551F7A95D1F760E074E284EF27
:1030A00090E00E94CF20CA01B9012FEF30E040E04C
:1030B00050E00E947D20A60195010E94CF208FEF55
:1030C00090E0821B930B181619061CF4522E509494
:1030D00002C0522E539460E079E08DE390E0A601A7
:1030E00095010E94CF2021503040404050405695DD
:1030F0004795379527952F5F3F4F4F4F5F4F93E091
:10310000220F331F441F551F9A95D1F760E074E2D8
:1031100084EF90E00E94CF20CA01B9012FEF30E088
:1031200040E050E00E947D20A60195010E94CF2042
:103130008FEF90E0821B930B1816190614F420955C
:1031400001C02F5F2515F0F4E885F98581E090E056
:103150000A8802C0880F991F0A94E2F7808360E012
:1031600079E08DE390E0A60195010E94CF202150E7
:103170003040404050405695479537952795822FCF
:10318000232F05C0E885F9851082862D272DEC8137
:10319000FD812083EE81FF818083EA85FB8520818C
:1031A00041E050E0CA010E8402C0880F991F0A94C2
:1031B000E2F7282B2083EA85FB852081CA010F8452
:1031C00002C0880F991F0A94E2F7282B2083EA8512
:1031D000FB858081088802C0440F551F0A94E2F7DE
:1031E000842B8083DF91CF911F910F91FF90EF90FF
:1031F000DF90CF90BF90AF909F908F907F906F9017
:103200005F900895DC011296ED91FC911397E058C0
:10321000FF4F8191919180589F4F20813181821B76
:10322000930B60E870E00E94BC200895DC011296C8
:10323000ED91FC911397EE57FF4F208131819291D0
:103240008291E058F0408217930719F42FEF3FEF77
:1032500005C0E20FF31F8081282F30E0C9010895D7
:10326000CF93DF93DC011296ED91FC911397EF0160
:10327000CE57DF4F48815981E058FF4F80819181BF
:10328000E058F0408417950719F42FEF3FEF0CC07A
:10329000E40FF51F2081CA01019660E870E00E94EA
:1032A000BC209983888330E0C901DF91CF910895D4
:1032B000DC011296ED91FC911397EE57FF4F808140
:1032C0009181929382930895FC01A085B185218913
:1032D0008C9190E0022E02C0959587950A94E2F7B2
:1032E00080FFF6CF0484F585E02D608308958FEA92
:1032F00092E09093A2048093A1048DE194E09093D6
:10330000A4048093A30485EC90E09093A60480939A
:10331000A50484EC90E09093A8048093A70480EC2B
:1033200090E09093AA048093A90481EC90E090939C
:10333000AC048093AB0486EC90E09093AE04809351
:10334000AD0484E08093AF0483E08093B00487E011
:103350008093B10485E08093B20481E08093B3044C
:1033600008950F931F93CF93DF938C01EB0109C056
:103370002196D801ED91FC910190F081E02DC801DA
:10338000099568816623A1F7DF91CF911F910F9175
:103390000895EF92FF920F931F93CF93DF938C01C9
:1033A0007B01EA010CC0D7016D917D01D801ED913F
:1033B000FC910190F081E02DC8010995219720979B
:1033C00091F7DF91CF911F910F91FF90EF900895AA
:1033D000DC01ED91FC910280F381E02D09950895C7
:1033E0002F923F924F925F926F927F928F929F9215
:1033F000AF92BF92CF92DF92EF92FF920F931F9303
:10340000DF93CF93CDB7DEB7A0970FB6F894DEBFAA
:103410000FBECDBF1C016A017B014115510561053D
:10342000710549F440E350E060E070E020E030E0F6
:103430000E94971A54C0882499245401422E55247E
:103440006624772401E010E00C0F1D1F080D191DE4
:10345000C701B601A30192010E94CF20F801608349
:103460000894811C911CA11CB11CC701B601A301C9
:1034700092010E94CF20C901DA016C017D01C114C3
:10348000D104E104F104F1F681E0E82EF12CEC0E18
:10349000FD1EE80CF91C3E010894611C711CD5014D
:1034A000C4010197A109B1096C01C818D90814C059
:1034B000F601EE0DFF1D40814A3010F4405D01C061
:1034C000495C50E060E070E0C10120E030E00E9423
:1034D000971A0894E108F1086E147F0449F7A09642
:1034E0000FB6F894DEBF0FBECDBFCF91DF911F9115
:1034F0000F91FF90EF90DF90CF90BF90AF909F9093
:103500008F907F906F905F904F903F902F90089595
:10351000DC012115310541F4ED91FC910190F08120
:10352000E02D642F099508950E94F0190895EF92F7
:10353000FF920F931F93CF93DF93EC017A018B01DE
:103540002115310541F4E881F9810190F081E02DE8
:10355000642F09951BC02A303105B1F477FF10C0E4
:103560004DE250E060E070E020E030E00E94971A09
:1035700010950095F094E094E11CF11C011D111DC3
:10358000CE01B801A7012AE00E94F019DF91CF9186
:103590001F910F91FF90EF9008950F931F938C014F
:1035A0004DE050E060E070E020E030E00E94971ACB
:1035B000C8014AE050E060E070E020E030E00E94A6
:1035C000971A1F910F9108950F931F938C010E94DA
:1035D000881AC8010E94CD1A1F910F9108950F9368
:1035E0001F938C010E94E819C8010E94CD1A1F91F7
:1035F0000F9108959F92AF92BF92CF92DF92EF9278
:10360000FF920F931F93CF93DF93EC017A018B010D
:10361000922ECB01BA0120E030E040E050E00E9461
:10362000990488236CF4CE014DE250E060E070E034
:1036300020E030E00E94971A17FB109517F91095BB
:1036400020E030E040E05FE3AA240BC0CA01B901EA
:1036500020E030E040E251E40E945D039B01AC01B8
:10366000A394A91498F3C801B7010E9436025B0124
:103670006C010E948D007B018C01CE01B801A70175
:103680002AE030E00E94881A992029F0CE016AE9E8
:1036900071E00E94E819C801B7010E94AB059B01C7
:1036A000AC01C601B5010E94050222C020E030E055
:1036B00040E251E40E9463027B018C010E945705A5
:1036C0005B016C01CC24B7FCC094DC2CCE01B601AC
:1036D000A5012AE030E00E94971AC601B5010E94B8
:1036E000F9049B01AC01C801B7010E9405029A943C
:1036F0009920E1F6DF91CF911F910F91FF90EF900C
:10370000DF90CF90BF90AF909F9008950E94FA1ADB
:1037100008950F931F938C010E94FA1AC8010E940A
:10372000CD1A1F910F910895823000F5E82FF0E037
:10373000EE0FFF1FEC54FB4F71836083882319F059
:103740008130A1F408C0809169008C7F842B809324
:103750006900E89A089580916900440F551F440F4D
:10376000551F837F842B80936900E99A08951F92E7
:103770000F920FB60F9211242F933F934F935F93A5
:103780006F937F938F939F93AF93BF93EF93FF9329
:103790008091B4049091B504892B29F0E091B40490
:1037A000F091B5040995FF91EF91BF91AF919F9171
:1037B0008F917F916F915F914F913F912F910F90DA
:1037C0000FBE0F901F9018951F920F920FB60F9279
:1037D00011242F933F934F935F936F937F938F9316
:1037E0009F93AF93BF93EF93FF938091B604909113
:1037F000B704892B29F0E091B604F091B70409953C
:10380000FF91EF91BF91AF919F918F917F916F91B8
:103810005F914F913F912F910F900FBE0F901F908E
:1038200018952F923F924F925F926F927F928F9254
:103830009F92AF92BF92CF92DF92EF92FF920F933F
:103840001F93DF93CF93CDB7DEB73B014C01190136
:103850002A016D897E898F89988D6A197B098C0967
:103860009D09621A730A840A950AA40193010E94B1
:103870007D20E218F30804091509A80197010E94A8
:10388000F1202A0D3B1D4C1D5D1DB901CA01CF91D0
:10389000DF911F910F91FF90EF90DF90CF90BF903D
:1038A000AF909F908F907F906F905F904F903F90E0
:1038B0002F9008951F920F920FB60F9211242F93FD
:1038C0003F938F939F93AF93BF938091BC0490914C
:1038D000BD04A091BE04B091BF043091C004019614
:1038E000A11DB11D232F2D5F2D3720F02D570196DF
:1038F000A11DB11D2093C0048093BC049093BD040E
:10390000A093BE04B093BF048091B8049091B90411
:10391000A091BA04B091BB040196A11DB11D809382
:10392000B8049093B904A093BA04B093BB04BF91B8
:10393000AF919F918F913F912F910F900FBE0F905C
:103940001F9018958FB7F8942091BC043091BD0456
:103950004091BE045091BF048FBFB901CA010895C0
:103960009FB7F8942091B8043091B9044091BA04FB
:103970005091BB0486B5A89B06C08F3F21F02F5FF6
:103980003F4F4F4F5F4F9FBF542F432F322F222760
:10399000280F311D411D511D82E0220F331F441F8E
:1039A000551F8A95D1F7B901CA010895EF92FF9288
:1039B0000F931F93CF93DF937B018C010E94B01C68
:1039C000EB010EC00E94B01C6C1B7D0B685E734047
:1039D000C8F30894E108F10801091109C851DC4F46
:1039E000E114F1040105110569F7DF91CF911F91F1
:1039F0000F91FF90EF900895789484B5826084BD14
:103A000084B5816084BD85B5826085BD85B58160E2
:103A100085BDEEE6F0E0808181608083E1E8F0E042
:103A20001082808182608083808181608083E0E871
:103A3000F0E0808181608083E1EBF0E08081846050
:103A40008083E0EBF0E0808181608083EAE7F0E052
:103A500080818460808380818260808380818160B6
:103A600080838081806880831092C1000895982FA0
:103A70008E3008F09E5097708091A4028295880F36
:103A8000880F807C892B80937C0080917A008064F1
:103A900080937A0080917A0086FDFCCF2091780097
:103AA00040917900942F80E030E0282B392BC90118
:103AB0000895482F50E0CA0186569F4FFC0124917B
:103AC0004A575F4FFA0184918823C1F0E82FF0E054
:103AD000EE0FFF1FE859FF4FA591B491662341F403
:103AE0009FB7F8948C91209582238C939FBF089563
:103AF0009FB7F8948C91822B8C939FBF0895482F89
:103B000050E0CA0182559F4FFC012491CA0186569C
:103B10009F4FFC0134914A575F4FFA0194919923CA
:103B200009F440C0222331F1233021F48091800038
:103B30008F7705C0243031F4809180008F7D809391
:103B4000800018C0213019F484B58F7704C022306A
:103B500021F484B58F7D84BD0DC0263021F4809181
:103B6000B0008F7705C0273029F48091B0008F7D99
:103B70008093B000E92FF0E0EE0FFF1FEE58FF4FEB
:103B8000A591B491662341F49FB7F8948C91309538
:103B900083238C939FBF08959FB7F8948C91832BB8
:103BA0008C939FBF0895FC018091C1048C3090F4E8
:103BB00080838F5F8093C104815090E0FC01EE0F01
:103BC000FF1FE80FF91FEE53FB4F88EB9BE092833A
:103BD000818308958FEF80830895DC018C9190E0BC
:103BE000FC01EE0FFF1FE80FF91FEE53FB4F808122
:103BF0008F7B80838C916CE00E949C209CE0899F4D
:103C0000A001112420E030E0C901840F951FFC01C0
:103C1000EE0FFF1FE80FF91FEE53FB4F808186FD6B
:103C200005C02F5F3F4F2C30310571F70895FC011F
:103C300020812C3008F041C08181992787FD909523
:103C400048E850E0481B590B440F551F440F551FBF
:103C50006417750784F08281992787FD909548E560
:103C600052E0481B590B440F551F440F551F641752
:103C700075070CF4AB0142505040CA01AA2797FDCA
:103C8000A095BA2F44E0880F991FAA1FBB1F4A9521
:103C9000D1F733E0B695A795979587953A95D1F7E3
:103CA0004FB7F89430E0F901EE0FFF1FE20FF31F5A
:103CB000EE53FB4F928381834FBF0895FC018081B7
:103CC0008F3F19F420E030E016C090E0FC01EE0FC9
:103CD000FF1FE80FF91FEE53FB4F2181328183E074
:103CE000220F331F8A95E1F7B4E036952795BA95F0
:103CF000E1F72E5F3F4FC9010895AF92BF92CF9277
:103D0000DF92EF92FF920F931F938C010E945E1E31
:103D100000D000D00196AA2797FDA095BA2FF801F0
:103D20006181772767FD709528E830E0261B370B07
:103D3000220F331F220F331F442737FD4095542F86
:103D40006281772767FD7095E8E5EE2EE2E0FE2EB2
:103D5000E61AF70AEE0CFF1CEE0CFF1C0027F7FC1E
:103D60000095102F64EBA62EB12CC12CD12CEDB7F1
:103D7000FEB7A182B282C382D482BC01CD01AA2443
:103D8000BB2465010E94111C0F900F900F900F90A3
:103D9000CB011F910F91FF90EF90DF90CF90BF90DC
:103DA000AF900895AF92BF92CF92DF92EF92FF92C1
:103DB0000F931F93CF93DF93EC019B0182E060325E
:103DC00078070CF048C077FF03C020E030E005C062
:103DD000653B710514F024EB30E000D000D0B90150
:103DE000882777FD8095982F2981332727FD3095E7
:103DF000B8E8AB2EB12CA21AB30AAA0CBB1CAA0CB1
:103E0000BB1CCC24B7FCC094DC2CEA81FF27E7FD67
:103E1000F09528E532E02E1B3F0B220F331F220FB7
:103E2000331F442737FD4095542FEDB7FEB721834C
:103E300032834383548320E030E040E050E0E4EB01
:103E4000EE2EF12C012D112D0E94111C9B010F90C3
:103E50000F900F900F90CE01B9010E94171EDF91B5
:103E6000CF911F910F91FF90EF90DF90CF90BF9077
:103E7000AF900895CF92DF92EF92FF921F93CF936E
:103E8000DF93EC01162F7A01690188818C3008F0EC
:103E900064C0862F61E00E94591D888190E0FC017A
:103EA000EE0FFF1FE80FF91FEE53FB4F1F738081CA
:103EB000807C812B808380E292E08E199F0964E0F0
:103EC00070E00E94BC20698380E699E08C199D090E
:103ED00064E070E00E94BC206A83A8818A2F6CE0B5
:103EE0000E949C20682F90E0AC01440F551F480FA2
:103EF000591F440F551F440F551F20E030E0C901E2
:103F0000840F951FFC01EE0FFF1FE80FF91FEE5302
:103F1000FB4F808186FD15C02F5F3F4F2C30310550
:103F200071F724C01092800082E08093810010928B
:103F3000850010928400B19A80916F008260809316
:103F40006F008A2F90E0FC01EE0FFF1FE80FF91FB2
:103F5000EE53FB4F8081806480838881DF91CF9115
:103F60001F91FF90EF90DF90CF9008956623D1F2DC
:103F7000E8CF40E252E020E639E00E943A1F08957F
:103F80001F920F920FB60F9211242F933F934F93CE
:103F90005F936F937F938F939F93AF93BF93EF93B1
:103FA000FF938091E60487FF05C010928500109270
:103FB00084002BC02091E604332727FD30958091A3
:103FC000C10490E02817390704F58091E604992789
:103FD00087FD9095FC01EE0FFF1FE80FF91FEE53D0
:103FE000FB4F808186FF11C08091E604992787FDF1
:103FF0009095FC01EE0FFF1FE80FF91FEE53FB4FEA
:1040000080818F7360E00E947F1D8091E6048F5F46
:104010008093E6042091E604332727FD30958091B4
:10402000C10490E0281739070CF04EC08091E604D7
:104030008C300CF049C02091840030918500809133
:10404000E604992787FD9095FC01EE0FFF1FE80F0E
:10405000F91FEE53FB4F81819281280F391F309356
:104060008900209388008091E604992787FD909528
:10407000FC01EE0FFF1FE80FF91FEE53FB4F80818D
:1040800086FF2AC08091E604992787FD9095FC0160
:10409000EE0FFF1FE80FF91FEE53FB4F80818F7368
:1040A00061E00E947F1D18C080E49CE905C08091FA
:1040B00084009091850004969093890080938800F5
:1040C0008FEF8093E60408C0809184009091850072
:1040D00084549C4948F3EBCFFF91EF91BF91AF918E
:1040E0009F918F917F916F915F914F913F912F9110
:1040F0000F900FBE0F901F901895629FD001739F75
:10410000F001829FE00DF11D649FE00DF11D929F73
:10411000F00D839FF00D749FF00D659FF00D9927B2
:10412000729FB00DE11DF91F639FB00DE11DF91FD6
:10413000BD01CF0111240895991B79E004C0991F96
:10414000961708F0961B881F7A95C9F780950895F1
:10415000AA1BBB1B51E107C0AA1FBB1FA617B707AD
:1041600010F0A61BB70B881F991F5A95A9F78095C9
:104170009095BC01CD01089597FB092E07260AD022
:1041800077FD04D0E5DF06D000201AF47095619524
:104190007F4F0895F6F7909581959F4F0895A1E27E
:1041A0001A2EAA1BBB1BFD010DC0AA1FBB1FEE1FB1
:1041B000FF1FA217B307E407F50720F0A21BB30BFC
:1041C000E40BF50B661F771F881F991F1A9469F778
:1041D00060957095809590959B01AC01BD01CF01D4
:1041E000089597FB092E05260ED057FD04D0D7DF82
:1041F0000AD0001C38F450954095309521953F4FDA
:104200004F4F5F4F0895F6F79095809570956195A3
:104210007F4F8F4F9F4F08952F923F924F925F9203
:104220006F927F928F929F92AF92BF92CF92DF92C6
:10423000EF92FF920F931F93CF93DF93CDB7DEB72B
:10424000CA1BDB0B0FB6F894DEBF0FBECDBF0994BF
:104250002A88398848885F846E847D848C849B8416
:10426000AA84B984C884DF80EE80FD800C811B8124
:10427000AA81B981CE0FD11D0FB6F894DEBF0FBE53
:10428000CDBFED010895EE0FFF1F0590F491E02DD5
:104290000994FB0151915523A9F0BF01DC014D9117
:1042A00045174111E1F759F4CD010190002049F083
:1042B0004D9140154111C9F3FB014111EFCF81E050
:0A42C00090E001970895F894FFCFF5
:1042CA007373007344525600735345520073504936
:1042DA00440073434F4E5600734D4F540067504984
:1042EA004448006C656674205049443A205B002CAF
:1042FA0020005D207269676874205049443A205B47
:10430A00005D0D0A0067454E430067475952006732
:10431A00425459006753455200674C535000675244
:10432A00535000674C4D530067524D53006742414A
:10433A00540020766F6C74732C200020616D7073AA
:10434A000D0A00494E56414C494420434F4D4D41B8
:10435A004E44004C6F6F703A20002E00000000009F
:10436A000000000000010202030303030404040422
:10437A0004040404050505050505050505050505E7
:10438A0005050505060606060606060606060606C7
:10439A0006060606060606060606060606060606B3
:1043AA000606060607070707070707070707070797
:1043BA000707070707070707070707070707070783
:1043CA000707070707070707070707070707070773
:1043DA000707070707070707070707070707070763
:1043EA000707070708080808080808080808080847
:1043FA000808080808080808080808080808080833
:10440A000808080808080808080808080808080822
:10441A000808080808080808080808080808080812
:10442A000808080808080808080808080808080802
:10443A0008080808080808080808080808080808F2
:10444A0008080808080808080808080808080808E2
:10445A0008080808080808080808080808080808D2
:10446A00080808080100000000B0120000000064FB
:0E447A0019B119C9190219301958191619006B
:00000001FF
