:100000000C9461000C9473000C9473000C947300B6
:100010000C9473000C9473000C9473000C94730094
:100020000C9473000C9473000C9473000C94730084
:100030000C9473000C9473000C9473000C94730074
:100040000C9496000C9473000C9473000C94730041
:100050000C9473000C9473000C9473000C94730054
:100060000C9473000C94730000000000240027001F
:100070002A0000000000250028002B0000000000DE
:1000800023002600290004040404040404040202DA
:100090000202020203030303030301020408102007
:1000A0004080010204081020010204081020000012
:1000B0000007000201000003040600000000000029
:1000C000000011241FBECFEFD8E0DEBFCDBF11E08E
:1000D000A0E0B1E001C01D92A930B107E1F70E9494
:1000E0008F000C94DF010C9400008DE061E00E9411
:1000F0008B0168EE73E080E090E00E9404018DE0E7
:1001000060E00E948B0168EE73E080E090E00E9466
:10011000040108958DE061E00E94650108950E9448
:100120002A010E948A000E947500FDCF1F920F9243
:100130000FB60F9211242F933F938F939F93AF93FA
:10014000BF938091040190910501A0910601B091A7
:100150000701309108010196A11DB11D232F2D5FCC
:100160002D3720F02D570196A11DB11D20930801B8
:100170008093040190930501A0930601B0930701B9
:100180008091000190910101A0910201B0910301C1
:100190000196A11DB11D8093000190930101A093D0
:1001A0000201B0930301BF91AF919F918F913F9155
:1001B0002F910F900FBE0F901F9018959FB7F89436
:1001C0002091000130910101409102015091030101
:1001D00086B5A89B06C08F3F21F02F5F3F4F4F4F42
:1001E0005F4F9FBF542F432F322F2227280F311DDF
:1001F000411D511D82E0220F331F441F551F8A9558
:10020000D1F7B901CA010895EF92FF920F931F939E
:10021000CF93DF937B018C010E94DE00EB010EC0C7
:100220000E94DE006C1B7D0B685E7340C8F308946F
:10023000E108F10801091109C851DC4FE114F1048A
:100240000105110569F7DF91CF911F910F91FF9083
:10025000EF900895789484B5826084BD84B5816000
:1002600084BD85B5826085BD85B5816085BDEEE6BE
:10027000F0E0808181608083E1E8F0E0108280819D
:1002800082608083808181608083E0E8F0E080810B
:1002900081608083E1EBF0E0808184608083E0EB2B
:1002A000F0E0808181608083EAE7F0E08081846013
:1002B000808380818260808380818160808380816F
:1002C000806880831092C1000895482F50E0CA01D1
:1002D00086569F4FFC0124914A575F4FFA01849143
:1002E0008823C1F0E82FF0E0EE0FFF1FE859FF4F21
:1002F000A591B491662341F49FB7F8948C91209511
:1003000082238C939FBF08959FB7F8948C91822B82
:100310008C939FBF0895482F50E0CA0182559F4F8C
:10032000FC012491CA0186569F4FFC0134914A5723
:100330005F4FFA019491992309F440C0222331F1CF
:10034000233021F4809180008F7705C0243031F470
:10035000809180008F7D8093800018C0213019F437
:1003600084B58F7704C0223021F484B58F7D84BD9D
:100370000DC0263021F48091B0008F7705C0273062
:1003800029F48091B0008F7D8093B000E92FF0E0D8
:10039000EE0FFF1FEE58FF4FA591B491662341F475
:1003A0009FB7F8948C91309583238C939FBF0895C9
:1003B0009FB7F8948C91832B8C939FBF0895F894EA
:0203C000FFCF6D
:00000001FF
