:100000000C9404010C94FA2F0C942B300C945C305B
:100010000C948D300C94BE300C94EF300C94203145
:100020000C9451310C9435010C9435010C9435012C
:100030000C9435010C9435010C9435010C94FB089B
:100040000C9435010C947D340C9435010C943501DD
:100050000C9435010C9435010C9435010C94CB3182
:100060000C9435010C94E12C0C9435010C94350161
:100070000C9435010C9435010C9435010C94350128
:100080000C94AA340C9435010C9435010C94350170
:100090000C940D2D0C9435010C9435010C94350104
:1000A0000C9435010C9435010C94D7340C94350123
:1000B0000C9435010C9435010C9435010C940435E5
:1000C0000C9435010C9435010C9435010C94392DA8
:1000D0000C9435010C9435010C94652D0C9435016C
:1000E0000C94350100002100240027002A002D0077
:1000F0003000330001010000040107010A01000083
:100100002200250028002B002E00310034000201BF
:100110000000050108010B0100002000230026005B
:1001200029002C002F00320000010000030106010D
:10013000090105050505070508080808020202026D
:100140000A0A080804040404010101010101010173
:100150000303030303030303040707070C0C0C0C3E
:100160000C0C0C0C02020202060606060606060627
:100170000B0B0B0B0B0B0B0B0102102020080810B4
:100180002040102040800201020108040201010207
:1001900004081020408080402010080402018004E0
:1001A000020180402010080402010804020101023B
:1001B0000408102040800102040810204080000044
:1001C000090A02080B0C0D070603040100000000D9
:1001D000000000000000000000000000000000001F
:1001E00000000000000000000000100F0E000000E2
:1001F00000000000000000000000000000000000FF
:1002000000000000752A782E11241FBECFEFD1E226
:10021000DEBFCDBF00E00CBF17E0A0E0B2E0E2E837
:10022000F2E700E00BBF02C007900D92A838B107BB
:10023000D9F711E1A8E8B7E001C01D92AC39B107C8
:10024000E1F712E0C8E0D2E000E006C02297010921
:10025000FE010BBF0E942637C430D10780E008079B
:10026000A9F70E94EC260C943F390C940000A0E002
:10027000B0E0EDE3F1E00C94F336FC01EA0180819B
:10028000823008F438C1DB019C91923008F430C10F
:10029000843059F4943009F02EC1918111968C91DB
:1002A0001197981709F021C126C1943009F420C193
:1002B0009230B1F4823009F01EC1CA01AF0128E0CA
:1002C000DA010D90AD01DC010D92CD012150C1F795
:1002D000DB0111968C9111979181892389830AC141
:1002E000823009F405C1C280D380DB0112966D9083
:1002F0007C90139724813581468157811496ED9027
:10030000FD900D911C911797C601861997095C0104
:1003100097FF04C0AA24BB24A81AB90AB0E2AB16FE
:10032000B1040CF061C0181619066CF537014801CC
:100330000A2C04C096948794779467940A94D2F711
:1003400081E090E0A0E0B0E00A2C04C0880F991F83
:10035000AA1FBB1F0A94D2F70197A109B1098E21E8
:100360009F21A023B123EE24FF248701E39400976B
:10037000A105B10519F4EE24FF248701E628F7282A
:10038000082919293CC00097D1F1CA0CDB1C39019E
:100390004A010A2C04C096948794779467940A942F
:1003A000D2F781E090E0A0E0B0E00A2C04C0880F12
:1003B000991FAA1FBB1F0A94D2F70197A109B1097F
:1003C00082239323A423B52321E030E040E050E0D2
:1003D0000097A105B10519F420E030E0A901262914
:1003E0003729482959290BC06C147D0424F4EE24C4
:1003F000FF24870104C0630120E030E0A90181816E
:10040000FB019181891709F445C0882349F0D8017F
:10041000C701821B930BA40BB50B9C01AD0104C05B
:100420002E193F09400B510B57FD04C01982DB8286
:10043000CA820BC081E08983DB82CA8250954095D5
:10044000309521953F4F4F4F5F4F2C833D834E8317
:100450005F830DC0880F991FAA1FBB1F8C839D83CC
:10046000AE83BF838A819B8101979B838A838C8122
:100470009D81AE81BF819C01AD0121503040404043
:1004800050402F3FEFEF3E07EFEF4E07EFE35E07E1
:1004900008F30BC08983DB82CA822E0D3F1D401FEB
:1004A000511F2C833D834E835F8383E088832C819F
:1004B0003D814E815F8157FF1DC0DA01C901817006
:1004C0009070A070B0705695479537952795822B00
:1004D000932BA42BB52B8C839D83AE83BF838A8102
:1004E0009B8101969B838A8305C0E1E5F5E003C00B
:1004F000FB0101C0FE01CF01CDB7DEB7EEE00C94E9
:100500000F37A0E2B0E0E7E8F2E00C94FB36698335
:100510007A838B839C832D833E834F83588789E026
:10052000E82EF12CEC0EFD1ECE010196B7010E94C3
:10053000C9078E010F5E1F4FCE010596B8010E94BC
:10054000C907C701B801AE01475E5F4F0E9437017E
:100550000E94FB06A096E6E00C941737A0E2B0E0FC
:10056000E4EBF2E00C94FB3669837A838B839C8303
:100570002D833E834F8358878E01075F1F4FCE0127
:100580000196B8010E94C90791E1E92EF12CEC0E09
:10059000FD1ECE010596B7010E94C9078A8991E028
:1005A00089278A8BC801B701AE01475E5F4F0E9461
:1005B00037010E94FB06A096E6E00C941737A0E2F4
:1005C000B0E0E5EEF2E00C94EF3669837A838B833A
:1005D0009C832D833E834F835887CE010196BE01B5
:1005E000675F7F4F0E94C907CE010596BE016F5E0F
:1005F0007F4F0E94C9079985923078F089898230AF
:10060000C0F0943019F4823041F4CBC0843019F436
:10061000923079F4C6C0923051F481E02A859A89EB
:10062000291709F480E08A87CE010996BCC0823080
:1006300051F481E02A859A89291709F480E08A8B90
:10064000CE014196B0C06D847E848F849888ED88F9
:10065000FE880F89188DE0E2F0E080E090E0DC0198
:10066000AA24BB24650120E030E0A901B301617038
:10067000707061157105D1F02E0D3F1D401F511F87
:1006800015012601280E391E4A1E5B1E81E090E0EE
:10069000A0E0B0E02E153F054007510718F080E0BC
:1006A00090E0DC01820D931DA41DB51DAA0CBB1C9E
:1006B000CC1CDD1C17FF09C061E0262E312C412C1B
:1006C000512CA228B328C428D528319749F0EE0C24
:1006D000FF1C001F111F9694879477946794C6CFD0
:1006E0006B897C89EB85FC856E0F7F1F6E5F7F4F6A
:1006F0007C8F6B8F61E0EA857A89E71709F460E007
:100700006A8F6B8D7C8D10C0FC01E170F0703097AA
:1007100029F056954795379527955068B695A79532
:10072000979587956F5F7F4FB7FDEECF0CC0880F11
:10073000991FAA1FBB1F57FD8160220F331F441F43
:10074000551F615070408030E0E09E07E0E0AE074A
:10075000E0E4BE0760F36B8F7C8F6FE7E62EF12C31
:10076000012D112DE822F9220A231B2360E4E6164D
:10077000F1040105110561F487FD0AC02115310559
:100780004105510529F0805C9F4FAF4FBF4F8078E6
:100790008D8F9E8FAF8FB8A383E0898FCE0149964E
:1007A00002C081E595E00E94FB06A096E2E10C9470
:1007B0000B37A8E1B0E0EFEDF3E00C94F736698376
:1007C0007A838B839C832D833E834F8358878E014E
:1007D000075F1F4FCE010196B8010E94C90781E152
:1007E000E82EF12CEC0EFD1ECE010596B7010E94FD
:1007F000C9079985923008F483C08989823008F44A
:100800007BC02A853A8923272A87943011F09230B9
:1008100021F4981709F06CC071C0843039F41D863A
:100820001E861F86188A1C861B866AC0823019F4B1
:1008300084E0898765C08B859C852B893C89821BD8
:10084000930B9C878B872D853E854F855889ED8836
:10085000FE880F89188D2E153F054007510738F483
:10086000220F331F441F551F01979C878B876FE111
:1008700070E0A12CB12CC12CA0E4DA2E80E090E035
:10088000DC012E153F054007510740F08A299B29BE
:10089000AC29BD292E193F09400B510BD694C794A2
:1008A000B794A794220F331F441F551F6150704007
:1008B00041F76FE7E62EF12C012D112DE822F922E8
:1008C0000A231B2360E4E616F1040105110561F417
:1008D00087FD0AC0211531054105510529F0805CCD
:1008E0009F4FAF4FBF4F80788D879E87AF87B88B64
:1008F0008E01075F1F4F04C0870102C001E515E0AC
:10090000C8010E94FB066896EAE00C941337A8E140
:10091000B0E0EDE8F4E00C94FB3669837A838B83D6
:100920009C832D833E834F8358878E01075F1F4F23
:10093000CE010196B8010E94C90781E1E82EF12C91
:10094000EC0EFD1ECE010596B7010E94C9078985F0
:10095000823040F08989823028F0C801B7010E94B6
:10096000320801C081E06896E6E00C941737A8E1F0
:10097000B0E0EDEBF4E00C94FB3669837A838B8373
:100980009C832D833E834F8358878E01075F1F4FC3
:10099000CE010196B8010E94C90781E1E82EF12C31
:1009A000EC0EFD1ECE010596B7010E94C907898590
:1009B000823040F08989823028F0C801B7010E9456
:1009C000320801C08FEF6896E6E00C941737A8E173
:1009D000B0E0EDEEF4E00C94FB3669837A838B8310
:1009E0009C832D833E834F8358878E01075F1F4F63
:1009F000CE010196B8010E94C90781E1E82EF12CD1
:100A0000EC0EFD1ECE010596B7010E94C90789852F
:100A1000823040F08989823028F0C801B7010E94F5
:100A2000320801C08FEF6896E6E00C941737A8E112
:100A3000B0E0EDE1F5E00C94FB3669837A838B83BB
:100A40009C832D833E834F8358878E01075F1F4F02
:100A5000CE010196B8010E94C90781E1E82EF12C70
:100A6000EC0EFD1ECE010596B7010E94C9078985CF
:100A7000823040F08989823028F0C801B7010E9495
:100A8000320801C081E06896E6E00C941737A8E1CF
:100A9000B0E0EDE4F5E00C94FB3669837A838B8358
:100AA0009C832D833E834F8358878E01075F1F4FA2
:100AB000CE010196B8010E94C90781E1E82EF12C10
:100AC000EC0EFD1ECE010596B7010E94C90789856F
:100AD000823040F08989823028F0C801B7010E9435
:100AE000320801C081E06896E6E00C941737A8E070
:100AF000B0E0EDE7F5E00C94FB367B018C0183E080
:100B00008983D801C7018827B7FD83959927AA272C
:100B1000BB27282F8A83E114F1040105110519F47C
:100B200082E0898337C08EE190E09C838B8322230F
:100B300089F080E0E81680E0F80680E0080780E8A9
:100B4000180769F110950095F094E094E11CF11CF0
:100B5000011D111DED82FE820F831887C801B701A8
:100B60000E94A1069C01215030401216130694F4F5
:100B7000022E04C0EE0CFF1C001F111F0A94D2F7B6
:100B8000ED82FE820F8318878EE190E0821B930B2B
:100B90009C838B83CE0101960E94FB0604C060E01B
:100BA00070E080E09FEC2896E6E00C941737ACE00C
:100BB000B0E0EDEDF5E00C94FF3669837A838B832A
:100BC0009C83CE010196BE016B5F7F4F0E94C907D7
:100BD0008D81823081F1823070F1843021F48E81F8
:100BE000882369F10AC02F81388537FD24C06E81C2
:100BF0002F3131053CF0662311F120E030E040E078
:100C000050E821C08EE190E0821B930B29853A8544
:100C10004B855C8504C056954795379527958A95F1
:100C2000D2F7662381F050954095309521953F4F3E
:100C30004F4F5F4F08C020E030E0A90104C02FEF04
:100C40003FEF4FEF5FE7B901CA012C96E2E00C9449
:100C50001B37A8E0B0E0EFE2F6E00C94F9367B0138
:100C60008C011A82611571058105910519F482E0E4
:100C700089835FC083E089838EE1C82ED12CDC821A
:100C8000CB82ED82FE820F831887C801B7010E94D4
:100C9000A106FC013197F7FF3AC0AA27BB27AE1B7C
:100CA000BF0B21E030E040E050E00A2E04C0220FEC
:100CB000331F441F551F0A94D2F721503040404043
:100CC00050402E213F214023512361E070E080E01D
:100CD00090E0211531054105510519F460E070E0FF
:100CE000CB0104C016950795F794E794AA95D2F71F
:100CF000E62AF72A082B192BED82FE820F8318872C
:100D00008EE190E08E1B9F0B9C838B8312C03097EB
:100D100081F00E2E04C0EE0CFF1C001F111F0A9460
:100D2000D2F7ED82FE820F831887CE1ADF0ADC82AB
:100D3000CB82CE0101960E94FB062896E8E00C9437
:100D40001537AF92BF92CF92DF92EF92FF920F933F
:100D50001F937B018C0180E0E81680E0F80681E0BB
:100D6000080780E0180758F4EFEFEE16F1040105CC
:100D7000110509F090F480E090E0DC0117C0F0E08C
:100D8000EF16F0E0FF06F0E00F07F1E01F0750F468
:100D900080E190E0A0E0B0E009C088E090E0A0E051
:100DA000B0E004C088E190E0A0E0B0E020E230E0F4
:100DB00040E050E0281B390B4A0B5B0B57016801E0
:100DC00004C0D694C794B794A7948A95D2F7D60155
:100DD000C501875A9A4FFC018081281B31094109BE
:100DE0005109C9011F910F91FF90EF90DF90CF90B3
:100DF000BF90AF900895EF92FF920F931F93CF9300
:100E0000DF93FC0124813581468157816181808196
:100E1000823020F44061EFEFF0E0A3C0843009F4A9
:100E20009BC0823009F492C021153105410551055E
:100E300009F48FC00280F381E02D8FEFE238F807CC
:100E40000CF05AC0C2E8DFEFCE1BDF0BCA31D10570
:100E50006CF579018A010C2E04C016950795F7945C
:100E6000E7940A94D2F781E090E0A0E0B0E00C2E85
:100E700004C0880F991FAA1FBB1F0A94D2F70197BD
:100E8000A109B10982239323A423B52321E030E0F3
:100E900040E050E00097A105B10519F420E030E0F2
:100EA000A9012E293F29402B512B03C020E030E01F
:100EB000A901DA01C9018F779070A070B0708034F9
:100EC0009105A105B10539F427FF09C0205C3F4F0A
:100ED0004F4F5F4F04C0215C3F4F4F4F5F4FE1E0EA
:100EE000F0E0203080E0380780E0480780E45807D1
:100EF00028F5E0E0F0E022C0E038F1056CF5E158BB
:100F0000FF4FDA01C9018F779070A070B070803404
:100F10009105A105B10539F427FF09C0205C3F4FB9
:100F20004F4F5F4F04C0215C3F4F4F4F5F4F57FF04
:100F300005C05695479537952795319687E0569584
:100F40004795379527958A95D1F70BC0E0E0F0E0FB
:100F500005C0E0E0F0E005C0EFEFF0E020E030E0B9
:100F6000A9018E2F879588278795942F9F7767955E
:100F700066276795E695E22EA92FA82BFE2FF62B64
:100F8000622F732F8A2F9F2FCDB7DEB7E6E00C9428
:100F90001737DC01FB012C9111963C9111971296A9
:100FA0008C911297482F4F7750E0982F991F9927CF
:100FB000991F13966C911397862F880F892B90E0B9
:100FC000661F6627661F6183009739F52115310575
:100FD0004105510511F482E029C082E89FEF938317
:100FE000828367E0220F331F441F551F6A95D1F794
:100FF00083E0808309C0220F331F441F551F828165
:101000009381019793838283203080E0380780E0CA
:10101000480780E4580778F320C08F3F910579F4A2
:10102000211531054105510519F484E080830895A7
:1010300044FF03C081E0808310C010820EC08F5730
:1010400090409383828383E0808387E0220F331F65
:10105000441F551F8A95D1F75064248335834683F6
:1010600057830895FC01DB019081923008F449C058
:101070008C91823008F445C0943051F46181843001
:10108000B1F511962C91119730E0261B310941C022
:10109000843021F0923041F48230B1F111968C917C
:1010A00011978823A1F12DC06181823001F1119641
:1010B0008C9111976817D9F42281338112968D9102
:1010C0009C9113978217930794F028173907BCF067
:1010D000248135814681578114968D919D910D9083
:1010E000BC91A02D82179307A407B50718F46623B7
:1010F00041F00DC0281739074A075B0728F466231B
:1011000031F021E030E005C020E030E002C02FEFF8
:101110003FEFC9010895CF92DF92EF92FF920F93B4
:101120001F93CF93DF93EC016B01FB016081718111
:101130008281938120E03AEC4AE95BE30E94B23677
:101140007B018C0188819981AA81BB81820F931FC9
:10115000A41FB51F88839983AA83BB83F601E0820D
:10116000F18202831383DF91CF911F910F91FF9042
:10117000EF90DF90CF90089580918E0790918F0728
:10118000A0919007B09191070196A11DB11D809388
:101190008E0790938F07A0939007B09391072091AB
:1011A0008E0730918F074091900750919107809161
:1011B000880790918907A0918A07B0918B0728171B
:1011C00039074A075B07B0F080919207882391F4B2
:1011D00081E08093920710928E0710928F071092F1
:1011E000900710929107E0918C07F0918D07199567
:1011F0001092920708951F920F920FB60F920BB69E
:101200000F9211242F933F934F935F936F937F938C
:101210008F939F93AF93BF93EF93FF930E94BC086C
:10122000FF91EF91BF91AF919F918F917F916F91BE
:101230005F914F913F912F910F900BBE0F900FBE7A
:101240000F901F901895FC01718360830895DC0155
:10125000ED91FC91119744835583668377830895BC
:10126000DC01ED91FC9111975085418532852385F4
:10127000652F742F832F922F08952F923F924F92B4
:101280005F926F927F928F929F92AF92BF92CF9216
:10129000DF92EF92FF920F931F93CF93DF931A0188
:1012A0002B01FC01C081D181688179818A819B8178
:1012B0002C813D814E815F810E94AE02162F072F47
:1012C000B82EA92EA8019501852F942FA32FB22FF8
:1012D0008C8B9D8BAE8BBF8B652F742F832F922FA2
:1012E000A20191010E94DF022C853D854E855F851C
:1012F0000E948102962E872E782E692EA4019301DA
:10130000852F942FA32FB22F8C879D87AE87BF8701
:10131000CCA0DDA0EEA0FFA0652F742F832F922F0D
:10132000A70196010E94B704181684F0F7FAF0940A
:10133000F7F8F094A4019301652F742F832F922F57
:10134000A70196010E94170587FF04C0CC86DD86A1
:10135000EE86FF86A8019501652F702F832F9A2DA9
:10136000288D398D4A8D5B8D0E94DF026B017C01D7
:101370006C8D7D8D8E8D9F8D2C853D854E855F85F9
:101380000E94DF029B01AC01C701B6010E948102ED
:101390006B017C01A8019501652F702F832F9A2D79
:1013A000288939894A895B890E94AE0228A139A11E
:1013B0004AA15BA10E94DF02A20191010E94D90310
:1013C0009B01AC01C701B6010E9481026887798741
:1013D0008A879B87A8019501852F902FA32FBA2D6F
:1013E000888B998BAA8BBB8BDF91CF911F910F912B
:1013F000FF90EF90DF90CF90BF90AF909F908F9035
:101400007F906F905F904F903F902F900895CF9373
:10141000DF93EC01842F6115710511F4188204C06B
:1014200091E098837A8369838823B1F02223A1F025
:101430008B832C839881992379F460E00E94033395
:101440008C8160E00E9403338B8160E00E9427332F
:101450008C8160E00E942733DF91CF910895362F71
:10146000242F60E070E0432F0E94070A0895DF9365
:10147000CF9300D00F920F92CDB7DEB7CE01019679
:1014800060E040E00E942F0A0F900F900F900F90A5
:101490000F90CF91DF910895FC018081882339F06E
:1014A0008181928163810E94690DBC0105C08381A5
:1014B0000E94D032682F792F80E090E00E942906A8
:1014C00020E030E04DE95DE30E94DF020895FC0179
:1014D0008081882339F08181928164810E94690D25
:1014E000BC0105C084810E94D032682F792F80E032
:1014F00090E00E94290624E739EB48E05EE30E9471
:10150000DF0208950F931F93CF93DF93EC01862F93
:101510006B834C8309871A872B873C871A8260E08C
:101520000E9403338C8160E00E9403338B8160E072
:101530000E9427338C8160E00E942733DF91CF9196
:101540001F910F910895AF92BF92CF92DF92EF92C9
:10155000FF920F931F93CF93DF93EC017B01442302
:1015600009F05AC080E090E0DC018D839E83AF8358
:10157000B887CC24DD243EC08A81882381F088810D
:1015800099816B810E94690D082F192F888199819B
:101590006C810E94690D282F392FC90107C08B81EA
:1015A0000E94D0328C018C810E94D032081B190B12
:1015B000B801882777FD8095982F0E9477052985A7
:1015C0003A854B855C850E94DF029B01AC016D81F1
:1015D0007E818F8198850E9481026D837E838F83B7
:1015E000988761E070E080E090E00E9447320894C4
:1015F000C11CD11CCE14DF0408F4BECFB70180E0BB
:1016000090E00E9429069B01AC016D817E818F8153
:1016100098850E94D90353C080E090E00E9429067B
:101620005B016C010894E108F108B70180E090E0EB
:101630000E942906A60195010E94D9039B01AC01D5
:101640006D817E818F8198850E94DF026D837E830C
:101650008F8398878A81882381F0888199816B8123
:101660000E94690D082F192F888199816C810E9431
:10167000690D282F392FC90107C08B810E94D032F4
:101680008C018C810E94D032081B190BB80188276D
:1016900077FD8095982F0E94770529853A854B859F
:1016A0005C850E94DF02A60195010E94D9039B017F
:1016B000AC016D817E818F8198850E9481026D834E
:1016C0007E838F839887DF91CF911F910F91FF9039
:1016D000EF90DF90CF90BF90AF9008950F931F933E
:1016E000CF93DF93EC018A81882381F088819981EF
:1016F0006B810E94690D082F192F888199816C8157
:101700000E94690D282F392FC90107C08B810E94C3
:10171000D0328C018C810E94D032081B190BB80189
:10172000882777FD8095982F0E94770529853A852F
:101730004B855C850E94DF022D813E814F8158855B
:101740000E94AE02DF91CF911F910F910895EF9209
:10175000FF920F931F93CF93DF93EB0179018A01DF
:101760000E946E0B688379838A839B83A80197010B
:101770000E94DF029B01AC016C817D818E819F8183
:101780000E9481026C837D838E839F83DF91CF9142
:101790001F910F91FF90EF900895CF93DF93EC018D
:1017A000CA0123E736E0398328835D834C836E8347
:1017B00021E02A8340E05BE460E070E00E94912D2C
:1017C0001B82DF91CF91089520E001972FEF8F3F8B
:1017D0009207D9F70895CF92DF92EF92FF920F937D
:1017E0001F93DF93CF930F92CDB7DEB76C01DC016F
:1017F00012968C911297882309F046C0EFB6F894A0
:101800001C96ED91FC911D9790811B968C91809573
:101810008923808387E790E069830E94E40B08E0D6
:1018200010E0FF24F39469819F2D9623D6011C9626
:10183000ED91FC911D971B968C911B97992321F09C
:101840009081982B908304C0908180958923808318
:1018500082E790E069830E94E40BFF0C0150104086
:1018600069810115110501F7D6011C96ED91FC91D6
:101870001D9780811B969C91892B8083EFBE82E708
:1018800090E00E94E40B0AC0F60184819581DC019E
:10189000ED91FC910190F081E02D19950F90CF9181
:1018A000DF911F910F91FF90EF90DF90CF900895FF
:1018B00021E0DC0113962C931397ED91FC910280AB
:1018C000F381E02D6AEA19950895FC0113820895C9
:1018D000FC01838108950F931F93CF93DF93EC0155
:1018E000162F042F8B81882319F1E881F98102805A
:1018F000F381E02DCE016E811995E881F981028096
:10190000F381E02DCE01612F1995E881F9810280E4
:10191000F381E02DCE01602F1995E881F9816E8168
:10192000610F600F6F770280F381E02DCE01199572
:10193000DF91CF911F910F91089547FD4FE70E94CE
:101940006B0C0895462F552747FD5095FC01528793
:10195000418767FD07C057FF03C0509541955F4F12
:1019600060E006C057FF03C0509541955F4F61E0AE
:101970000E949D0C0895462F552747FD5095FC0168
:101980005087478367FD07C057FF03C050954195B7
:101990005F4F64E006C057FF03C0509541955F4F0D
:1019A00065E00E949D0C08950F931F93DF93CF93E2
:1019B0000F920F92CDB7DEB78C014A8369830E94E4
:1019C000580CC80169810E94BB0CC8014A81642F70
:1019D0000E94A20C0F900F90CF91DF911F910F9159
:1019E00008950F93222311F021E001C02FEF269FCD
:1019F000602D1124002311F021E001C02FEF249F5E
:101A0000402D11240E94D40C0F9108950F93FB01D7
:101A1000608171812FEF6138720734F06038710591
:101A200024F06FE770E001C061E8428153812FEF3D
:101A30004138520734F04038510524F04FE750E068
:101A400001C041E8248105810E94F10C0F910895A5
:101A5000AF92BF92CF92DF92EF92FF920F931F93BC
:101A6000DF93CF930F92CDB7DEB78C01962F603105
:101A700008F09FE0F80185819817E9F07801AA2421
:101A8000BB24C92EDD2496010A2C02C0359527956A
:101A90000A94E2F721703070F70181917F01622F83
:101AA00099830E9427330894A11CB11C9981F4E00A
:101AB000AF16B10441F7F80195830F90CF91DF91F4
:101AC0001F910F91FF90EF90DF90CF90BF90AF905C
:101AD0000895CF93DF93EC010E94280D8C810E9422
:101AE000D032DF91CF910895FC01862F4383962F4A
:101AF0009651983058F1262F2A50243050F1285210
:101B0000243038F12C5E283038F1245F243038F14D
:101B1000663229F1643030F1653021F124522830E9
:101B200020F1215F233020F1643011F12F5D24304A
:101B300010F1603101F16131F1F028502230F0F004
:101B400020532830F0F428E031E01DC022E230E0DC
:101B50001AC025E230E017C028E230E014C02BE2C2
:101B600030E011C02EE230E00EC021E330E00BC0C7
:101B700024E330E008C022E031E005C025E031E098
:101B800002C02BE031E031832083282F27502330FF
:101B900018F4982F935053C0282F2A50243018F44B
:101BA000982F96504CC0983008F449C0982F9E51F9
:101BB000983010F495E205C0982F9752933018F49E
:101BC00099E2981B3CC0982F9A52983010F491E3F8
:101BD000F8CF982F9253943010F495E3F2CF982FCA
:101BE0009653983060F19850983048F18823E1F08E
:101BF0008F30D1F08131C1F08531B1F08130B1F059
:101C00008E30A1F0803191F0843181F0833181F008
:101C1000975C923078F0823169F0823069F09E5F93
:101C2000923060F495E00BC090E009C091E007C0ED
:101C300092E005C093E003C094E001C097E0928376
:101C400061E00E9403330895DC0113968C91139791
:101C5000ED91FC91119712963C911297882361F0B7
:101C6000208181E090E002C0880F991F3A95E2F749
:101C70008095822380830895208181E090E002C0D6
:101C8000880F991F3A95E2F7282B20830895DC01ED
:101C900013968C911397ED91FC91119712963C91AC
:101CA0001297882359F0208181E090E002C0880FCC
:101CB000991F3A95E2F7282B20830895208181E02F
:101CC00090E002C0880F991F3A95E2F78095822331
:101CD00080830895FC01DB0182818C9383811196BE
:101CE0008C931197848112968C9312978581139609
:101CF0008C931397868114968C93149787811596ED
:101D00008C931597808516968C93169781851796D8
:101D10008C93179788E090E00895EF92FF920F93CD
:101D20001F93FC01DB012C9130E040E050E0628128
:101D3000738184819581262B372B482B592B228345
:101D400033834483558311966C91119770E080E042
:101D500090E0982F872F762F6627622B732B842B8A
:101D6000952B628373838483958312962C911297AB
:101D700030E040E050E0A90133272227262B372B03
:101D8000482B592B228333834483558313966C91BC
:101D9000139770E080E090E0962F882777276627DA
:101DA000622B732B842B952B62837383848395839F
:101DB00014962C91149730E040E050E066817781D2
:101DC00080859185262B372B482B592B26833783EB
:101DD000408751871596EC901597FF2400E010E09E
:101DE000102F0F2DFE2CEE24E22AF32A042B152BA4
:101DF000E682F7820087118716962C91169730E0BD
:101E000040E050E0A901332722272E293F29402B0B
:101E1000512B268337834087518717968C9190E00A
:101E2000A0E0B0E0B82FAA2799278827822B932B10
:101E3000A42BB52B86839783A087B18788E090E099
:101E40001F910F91FF90EF90089580E092E0089528
:101E50008EE092E00895AF92BF92CF92DF92EF9220
:101E6000FF920F931F93CF93DF935C01FB0180815F
:101E700090E0D50112962D913C911397822B932BD4
:101E800013969C938E931297318120E0822B932B93
:101E900013969C938E93129782819381A481B5812E
:101EA0008B010B5F1F4FE80166E070E026E0C22E59
:101EB000D12CE12CF12CC80ED91EEA1EFB1E04C049
:101EC000298129936F5F7F4F9B0140E050E02C15E3
:101ED0003D054E055F05A0F3AC014A5F5F4F4E0F15
:101EE0005F1F9A0121503040E9011882E5011D83EE
:101EF0000C83EA01C880D980EA80FB80BC01665F60
:101F00007F4FEC012996CE0FDF1F8B01CB01AA2753
:101F100097FDA095BA2F8C0D9D1DAE1DBF1D04C051
:101F2000298129930F5F1F4F980140E050E0281747
:101F300039074A075B07A0F3EB01CC0DDD1D9F01BC
:101F40002C0F3D1FC9010197DC011C9261507040AC
:101F50006E0F7F1FD50117967C936E931697D9014C
:101F6000CD90DD90ED90FC90BE016C5F7F4F23968D
:101F7000CE0FDF1F8B01CB01AA2797FDA095BA2FAB
:101F80008C0D9D1DAE1DBF1D04C0298129930F5FBF
:101F90001F4F980140E050E0281739074A075B07B8
:101FA000A0F3C60ED71EDF01AC0DBD1DED012197BC
:101FB0001882615070406E0F7F1FE5017987688736
:101FC00011962C91119730E040E050E0542F432FB0
:101FD000322F222712966C91129770E080E090E0E9
:101FE000CB0177276627262B372B482B592B6C9153
:101FF00070E080E090E0262B372B482B592B13966E
:102000008C9190E0A0E0B0E0B82FAA27992788270C
:10201000282B392B4A2B5B2BF501228733874487EA
:10202000558784E090E0C80ED91EC601DF91CF919C
:102030001F910F91FF90EF90DF90CF90BF90AF90E6
:1020400008958FE292E0089588E492E00895AF92B7
:10205000BF92CF92DF92EF92FF920F931F93CF9395
:10206000DF93FC01DB0182819C91892B8283119695
:10207000ED90FD900D911C9114976C5F7F4FEB01DB
:1020800085E090E035E0A32EB12CC12CD12CAE0C14
:10209000BF1CC01ED11E03C02981299301969C013B
:1020A00040E050E02A153B054C055D05A8F397017B
:1020B0002B5F3F4FA20FB31F11971C927483638352
:1020C000C901DF91CF911F910F91FF90EF90DF90A9
:1020D000CF90BF90AF90089589E692E008958CE785
:1020E00092E0089581EB96E008958DE992E00895DD
:1020F000FC01DB0182818C93838111968C93119773
:1021000082E090E00895FC01DB018C9182831196BE
:102110008C911197838382E090E008958EEB92E09A
:1021200008958CEC92E00895AF92BF92CF92DF9227
:10213000EF92FF920F931F93CF93DF93FC01DB018C
:102140002C9130E040E050E0628173818481958180
:10215000262B372B482B592B2283338344835583DB
:1021600011966C91119770E080E090E0982F872F86
:10217000762F6627622B732B842B952B62837383B8
:102180008483958312962C91129730E040E050E0C2
:10219000A90133272227262B372B482B592B2283A3
:1021A00033834483558313966C91139770E080E0DA
:1021B00090E0962F882777276627622B732B842B36
:1021C000952B628373838483958314962C91149743
:1021D00030E040E050E06681778180859185262B54
:1021E000372B482B592B26833783408751871596E9
:1021F0006C91159770E080E090E0982F872F762FF4
:102200006627622B732B842B952B668377838087BD
:10221000918716962C91169730E040E050E0A90186
:1022200033272227262B372B482B592B26833783FE
:102230004087518717966C91179770E080E090E087
:10224000962F882777276627622B732B842B952B55
:10225000668377838087918718962C91189730E052
:1022600040E050E06285738584859585262B372B69
:10227000482B592B228733874487558719966C91B1
:10228000199770E080E090E0982F872F762F6627CF
:10229000622B732B842B952B62877387848795879A
:1022A0001A962C911A9730E040E050E0A9013327AC
:1022B0002227262B372B482B592B228733874487FD
:1022C00055871B966C911B9770E080E090E0962FED
:1022D000882777276627622B732B842B952B6287A1
:1022E0007387848795871C96ED90FD900D911C91C6
:1022F0001F97BD01615F7F4FEB0180E190E040E1FE
:10230000A42EB12CC12CD12CAE0CBF1CC01ED11ED2
:1023100003C02981299301969C0140E050E02A15D1
:102320003B054C055D05A8F39701205F3F4FA20FC9
:10233000B31F11971C9277876687C901DF91CF91F0
:102340001F910F91FF90EF90DF90CF90BF90AF90D3
:1023500008958DEE92E008958DEF92E00895EF924A
:10236000FF920F931F93CF93DF938C01EB010296A3
:102370000E9494107C01DE01A80FB91F11966C9188
:10238000119770E080E090E0982F872F762F6627D6
:102390002C9130E040E050E0622B732B842B952B86
:1023A00012962C91129730E040E050E0A9013327BB
:1023B0002227262B372B482B592B13968C9190E0F4
:1023C000A0E0B0E0B82FAA2799278827822B932B6B
:1023D000A42BB52BF801828B938BA48BB58BF701C3
:1023E0003496CE0FDF1F698170E080E090E0982F77
:1023F000872F762F6627288130E040E050E0622B5F
:10240000732B842B952B2A8130E040E050E0A9010A
:1024100033272227262B372B482B592B8B8190E0F3
:10242000A0E0B0E0B82FAA2799278827822B932B0A
:10243000A42BB52BE8018E8B9F8BA88FB98F349678
:10244000CF01DF91CF911F910F91FF90EF900895F1
:102450008EE193E008958BE293E00895EF92FF926E
:102460000F931F93CF93DF938C01EB0102960E9491
:1024700094107C01DE01A80FB91F11966C91119781
:1024800070E080E090E0982F872F762F66272C91C0
:1024900030E040E050E0622B732B842B952B12969A
:1024A0002C91129730E040E050E0A9013327222719
:1024B000262B372B482B592B13968C9190E0A0E0BC
:1024C000B0E0B82FAA2799278827822B932BA42B1B
:1024D000B52BF801828B938BA48BB58BF7013496C7
:1024E000CE0FDF1F698170E080E090E0982F872F8A
:1024F000762F6627288130E040E050E0622B732B76
:10250000842B952B2A8130E040E050E0A90133274D
:102510002227262B372B482B592B8B8190E0A0E0CC
:10252000B0E0B82FAA2799278827822B932BA42BBA
:10253000B52BE8018E8B9F8BA88FB98F3496CF0176
:10254000DF91CF911F910F91FF90EF9008958CE450
:1025500093E008958AE593E00895CF92DF92EF9299
:10256000FF920F931F93CF93DF936C01EB010296C1
:102570000E949410DC01FE01E80FF91F618170E0F8
:1025800080E090E0982F872F762F6627208130E01B
:1025900040E050E0622B732B842B952B228130E09E
:1025A00040E050E0A90133272227262B372B482B68
:1025B000592B638170E080E090E0962F8827772781
:1025C0006627622B732B842B952BF601628B738B02
:1025D000848B958B1496FE01EA0FFB1F618170E0DE
:1025E00080E090E0982F872F762F6627208130E0BB
:1025F00040E050E0622B732B842B952B228130E03E
:1026000040E050E0A90133272227262B372B482B07
:10261000592B638170E080E090E0962F8827772720
:102620006627622B732B842B952BF601668B778B99
:10263000808F918FBD016C5F7F4FFE01E60FF71F0A
:10264000218130E040E050E0542F432F322F2227E9
:10265000828190E0A0E0B0E0DC0199278827282B58
:10266000392B4A2B5B2BE080FF2400E010E02E2961
:102670003F29402B512B838190E0A0E0B0E0B82FA0
:10268000AA2799278827282B392B4A2B5B2BF60161
:10269000228F338F448F558F6C5F7F4FFE01E60F83
:1026A000F71F218130E040E050E0542F432F322FBC
:1026B0002227828190E0A0E0B0E0DC019927882702
:1026C000282B392B4A2B5B2B808190E0A0E0B0E0D7
:1026D000282B392B4A2B5B2B838190E0A0E0B0E0C4
:1026E000B82FAA2799278827282B392B4A2B5B2B11
:1026F000F601268F378F40A351A36C5F7F4FFE01F9
:10270000E60FF71F218130E040E050E0542F432FC7
:10271000322F2227828190E0A0E0B0E0DC019927EF
:102720008827282B392B4A2B5B2B808190E0A0E057
:10273000B0E0282B392B4A2B5B2B838190E0A0E063
:10274000B0E0B82FAA2799278827282B392B4A2BA6
:102750005B2BF60122A333A344A355A36C5F7F4FE9
:10276000FE01E60FF71F218130E040E050E0542FDA
:10277000432F322F2227828190E0A0E0B0E0DC01DD
:1027800099278827282B392B4A2B5B2B808190E0B7
:10279000A0E0B0E0282B392B4A2B5B2B838190E003
:1027A000A0E0B0E0B82FAA2799278827282B392B3B
:1027B0004A2B5B2BF60126A337A340A751A7DB01C9
:1027C0001496FE01EA0FFB1F618170E080E090E04B
:1027D000982F872F762F6627208130E040E050E049
:1027E000622B732B842B952B228130E040E050E04C
:1027F000A90133272227262B372B482B592B6381FE
:1028000070E080E090E0962F882777276627622B7C
:10281000732B842B952BF60162A773A784A795A72A
:102820001496CA0FDB1F698170E080E090E0982F5A
:10283000872F762F6627288130E040E050E0622B1A
:10284000732B842B952B2A8130E040E050E0A901C6
:1028500033272227262B372B482B592B6B8170E0EF
:1028600080E090E0962F882777276627622B732BCE
:10287000842B952B66A777A780AB91AB1496CD01DF
:10288000DF91CF911F910F91FF90EF90DF90CF904C
:1028900008958BE793E0089589E893E008950F93F6
:1028A0001F93CF93DF938C01EB0102960E9494104B
:1028B000DC01FE01E80FF91F618170E080E090E02B
:1028C000982F872F762F6627208130E040E050E058
:1028D000622B732B842B952B228130E040E050E05B
:1028E000A90133272227262B372B482B592B63810D
:1028F00070E080E090E0962F882777276627622B8C
:10290000732B842B952BF801628B738B848B958BA7
:102910001496FE01EA0FFB1F618170E080E090E0F9
:10292000982F872F762F6627208130E040E050E0F7
:10293000622B732B842B952B228130E040E050E0FA
:10294000A90133272227262B372B482B592B6381AC
:1029500070E080E090E0962F882777276627622B2B
:10296000732B842B952BF801668B778B808F918F3F
:102970001496FE01EA0FFB1F618170E080E090E099
:10298000982F872F762F6627208130E040E050E097
:10299000622B732B842B952B228130E040E050E09A
:1029A000A90133272227262B372B482B592B63814C
:1029B00070E080E090E0962F882777276627622BCB
:1029C000732B842B952BF801628F738F848F958FD7
:1029D0001496FE01EA0FFB1F618170E080E090E039
:1029E000982F872F762F6627208130E040E050E037
:1029F000622B732B842B952B228130E040E050E03A
:102A0000A90133272227262B372B482B592B6381EB
:102A100070E080E090E0962F882777276627622B6A
:102A2000732B842B952BF801668F778F80A391A34E
:102A30001496FE01EA0FFB1F618170E080E090E0D8
:102A4000982F872F762F6627208130E040E050E0D6
:102A5000622B732B842B952B228130E040E050E0D9
:102A6000A90133272227262B372B482B592B63818B
:102A700070E080E090E0962F882777276627622B0A
:102A8000732B842B952BF80162A373A384A395A3C6
:102A90001496FE01EA0FFB1F618170E080E090E078
:102AA000982F872F762F6627208130E040E050E076
:102AB000622B732B842B952B228130E040E050E079
:102AC000A90133272227262B372B482B592B63812B
:102AD00070E080E090E0962F882777276627622BAA
:102AE000732B842B952BF80166A377A380A791A75E
:102AF0001496FE01EA0FFB1F618170E080E090E018
:102B0000982F872F762F6627208130E040E050E015
:102B1000622B732B842B952B228130E040E050E018
:102B2000A90133272227262B372B482B592B6381CA
:102B300070E080E090E0962F882777276627622B49
:102B4000732B842B952BF80162A773A784A795A7F5
:102B50001496CA0FDB1F698170E080E090E0982F27
:102B6000872F762F6627288130E040E050E0622BE7
:102B7000732B842B952B2A8130E040E050E0A90193
:102B800033272227262B372B482B592B6B8170E0BC
:102B900080E090E0962F882777276627622B732B9B
:102BA000842B952B66A777A780AB91AB1496CD01AC
:102BB000DF91CF911F910F9108958AEA93E00895D4
:102BC00089EB93E008958F929F92AF92BF92CF923C
:102BD000DF92EF92FF920F931F93CF93DF93FC014D
:102BE0004B01DB01ED90FD900D911C916D5F7F4FCE
:102BF000DB0184E090E024E0A22EB12CC12CD12C8A
:102C0000AE0CBF1CC01ED11E05C011962C91119791
:102C10002D9301969C0140E050E02A153B054C05A0
:102C20005D0598F387010C5F1F4FE401C00FD11FB2
:102C3000DE0111971C9273836283888190E0A0E08B
:102C4000B0E02481358146815781822B932BA42BC0
:102C5000B52B84839583A683B783298130E040E038
:102C600050E0542F432F322F2227282B392B4A2B69
:102C70005B2B24833583468357838A8190E0A0E0D1
:102C8000B0E0DC0199278827822B932BA42BB52B4E
:102C900084839583A683B7832B8130E040E050E0A6
:102CA000522F442733272227282B392B4A2B5B2BE3
:102CB0002483358346835783B8016C5F7F4FE401DB
:102CC000C60FD71F888190E0A0E0B0E02085318555
:102CD00042855385822B932BA42BB52B808791871C
:102CE000A287B387298130E040E050E0542F432F82
:102CF000322F2227282B392B4A2B5B2B2087318719
:102D0000428753878A8190E0A0E0B0E0DC019927F8
:102D10008827822B932BA42BB52B80879187A287A2
:102D2000B3872B8130E040E050E0522F4427332717
:102D30002227282B392B4A2B5B2B20873187428770
:102D400053876C5F7F4FCB01DF91CF911F910F9124
:102D5000FF90EF90DF90CF90BF90AF909F908F90BB
:102D600008958AED93E0089587EF93E00895CF9258
:102D7000DF92EF92FF920F931F93DF93CF930F9207
:102D80000F92CDB7DEB76C018B01DC0112968C91EE
:102D90001297FB01808311821282138220E034E0BB
:102DA000E32EF12C3CE018C0239FA0011124F60172
:102DB00087859089840F951FFC0140815181FA011C
:102DC00040815181BD0129833A83FA011995E80EAA
:102DD000F91E29812F5F3A81D60112968C91D80174
:102DE000AE0DBF1D281700F3F60181898C938289EF
:102DF00011968C931197838912968C9312978489DC
:102E000013968C93139797012C5F3F4FC9010F9036
:102E10000F90CF91DF911F910F91FF90EF90DF9076
:102E2000CF90089588E194E0089582E394E00895B6
:102E30000F931F93CF93DF938C01EB0102960E94B7
:102E4000B716FE01E80FF91FD80157962C91579736
:102E500020839C012F5F3F4FFE01E20FF31F108282
:102E60002F5F3F4FFE01E20FF31F10822F5F3F4F96
:102E7000FE01E20FF31F10822F5F3F4FFC013496DB
:102E8000EC0FFD1F80E00AC0E801A98DBA8DA80FE4
:102E9000B11D9C9191932F5F3F4F8F5FD801579643
:102EA0009C915797891780F3C901DF91CF911F91AA
:102EB0000F91089583E594E008958CE694E00895D9
:102EC000EF92FF920F931F93CF93DF938C01EB014F
:102ED00002960E9494107C01DE01A80FB91F119682
:102EE0006C91119770E080E090E0982F872F762FFB
:102EF00066272C9130E040E050E0622B732B842B4E
:102F0000952B12962C91129730E040E050E0A901E9
:102F100033272227262B372B482B592B13968C919E
:102F200090E0A0E0B0E0B82FAA2799278827822B4D
:102F3000932BA42BB52BF801828B938BA48BB58B91
:102F4000F7013496CE0FDF1F698170E080E090E0DA
:102F5000982F872F762F6627288130E040E050E0B9
:102F6000622B732B842B952B2A8130E040E050E0BC
:102F7000A90133272227262B372B482B592B8B814E
:102F800090E0A0E0B0E0B82FAA2799278827822BED
:102F9000932BA42BB52BE8018E8B9F8BA88FB98F19
:102FA0003496CF01DF91CF911F910F91FF90EF9059
:102FB00008958DE894E0089588E994E00895CF930A
:102FC000DF93EC016A897B898C899D8920E030E060
:102FD00048EC52E40E94DF026093A8077093A907AF
:102FE0008093AA079093AB076E897F89888D998D0E
:102FF00020E030E048EC52E40E94DF026093D0070A
:103000007093D1078093D2079093D307DF91CF912C
:103010000895CF93DF93EC018A899B89AC89BD89A0
:103020008093C0079093C107A093C207B093C307D2
:103030008E899F89A88DB98D8093C4079093C50709
:10304000A093C607B093C7078A8D9B8DAC8DBD8DAD
:103050008093C8079093C907A093CA07B093CB0782
:103060006E8D7F8D88A199A120E030E048EC52E47C
:103070000E94DF0260930D0870930E0880930F0882
:10308000909310088AA19BA1ACA1BDA18093E807F1
:103090009093E907A093EA07B093EB078EA19FA155
:1030A000A8A5B9A58093EC079093ED07A093EE0730
:1030B000B093EF078AA59BA5ACA5BDA58093F007AB
:1030C0009093F107A093F207B093F3076EA57FA545
:1030D00088A999A920E030E048EC52E40E94DF0280
:1030E00060932608709327088093280890932908F6
:1030F000DF91CF910895FC0182818093360883810E
:103100008093FA0D0895FC01EE57FB4F80810895DE
:10311000FC0183A194A1089583E594E008958CE6D1
:1031200094E008950F931F93CF93DF93EC018C01EC
:103130000A5F1F4FC8010E948310EA85FB85C80102
:103140001995DF91CF911F910F910895FC0184850E
:10315000958508958EEB92E008958CEC92E00895A9
:103160000F931F93CF93DF93EC018C010A5F1F4FE6
:10317000C8010E944F14E8ADF9ADC8011995DF915F
:10318000CF911F910F910895FC0182AD93AD0895E9
:103190008AEA93E0089589EB93E008950F931F93D3
:1031A000CF93DF93EC018C010A5F1F4FC8010E948F
:1031B000AF11E8A1F9A1C8011995DF91CF911F9135
:1031C0000F910895FC0182A193A108958EE193E0EF
:1031D00008958BE293E008958F929F92AF92BF92F1
:1031E000CF92DF92EF92FF920F931F93CF93DF93D3
:1031F000EC018B018A81DB018C938B8111968C937E
:103200006C817D81DB01FD0101900020E9F73197A0
:10321000EA1BFB0B9F0140E050E0D80112962D9372
:103220003D934D935C93159798012A5F3F4FC901D9
:10323000AF010E943639F8012281338186E0E82E01
:10324000F12CE20EF31EE00EF11E6E817F81DB0198
:10325000FD0101900020E9F73197EA1BFB0B5F01AC
:10326000CC24DD24D701AD92BD92CD92DC92139790
:10327000BAE0CB2ED12CC20ED31E98012C0D3D1DD1
:10328000C901AF010E943639F701208131812C0D2F
:103290003D1D6801C20ED31E68857985DB01FD01E5
:1032A00001900020E9F73197EA1BFB0B4F01AA249C
:1032B000BB24D6018D929D92AD92BC921397A4E04F
:1032C000EA2EF12CE20EF31E98012E0D3F1DC901CE
:1032D000AF010E943639F601208131812E0D3F1D4C
:1032E0005A854B859C858D85F801E20FF31F50832D
:1032F0004183928383832C5F3F4FC901DF91CF913C
:103300001F910F91FF90EF90DF90CF90BF90AF9003
:103310009F908F900895CF93DF93FC01EB01828102
:10332000888363817481DB01FD0101900020E9F74E
:103330003197EA1BFB0BCF01A0E0B0E089839A83B1
:10334000AB83BC839E012B5F3F4FC901AF010E943D
:10335000363929813A812B5F3F4FC901DF91CF91E7
:1033600008956F927F928F929F92AF92BF92CF9269
:10337000DF92FF920F931F93CF93DF938C01EB01AA
:10338000DC0112968C911297888319821A821B8213
:103390006B0140E024E030E021C0842F90E0880FF2
:1033A000991F880F991FF801A781B085A80FB91F31
:1033B0006C9111965C91119712969C9112971396AD
:1033C0008C91D6016C9311965C93119712969C93F5
:1033D000129713968C932C5F3F4F4F5FE4E0F0E021
:1033E000CE0EDF1ED80112968C9112974817A8F2C4
:1033F000FE01E20FF31F19968C9180832F5F3F4FE0
:10340000DE01A20FB31F1C922F5F3F4FDE01A20F00
:10341000B31F1C922F5F3F4FDE01A20FB31F1C9200
:103420002F5F3F4F6F0140E021C0842F90E0880F55
:10343000991F880F991FF801A685B785A80FB91F96
:103440006C9111965C91119712969C91129713961C
:103450008C91D6016C9311965C93119712969C9364
:10346000129713968C932C5F3F4F4F5FE4E0F0E090
:10347000CE0EDF1ED80119968C9119974817A8F225
:10348000FE01E20FF31F50968C91509780832F5FBF
:103490003F4FFE01E20FF31F10822F5F3F4FFE01EF
:1034A000E20FF31F10822F5F3F4FFE01E20FF31F69
:1034B00010822F5F3F4FFF2433C05E01A20EB31E68
:1034C0008F2D90E0880F991FD8015396ED91FC91B4
:1034D0005497E80FF91F60817181DB01FD010190B4
:1034E0000020E9F73197EA1BFB0B3F018824992460
:1034F000D5016D927D928D929C92139794E0C92E86
:10350000D12CC20ED31E9E012C0D3D1DC901AF0151
:103510000E943639F501208131812C0D3D1DF39437
:10352000D80150968C915097F81638F2C901DF9166
:10353000CF911F910F91FF90DF90CF90BF90AF90F0
:103540009F908F907F906F900895CF93DF93FC01B1
:10355000EB01828188838381898384818A83858149
:103560008B8386818C8387818D8380858E83818503
:103570008F83828588878385898784858A878585E7
:103580008B8766857785DB01FD0101900020E9F7D7
:103590003197EA1BFB0BCF01A0E0B0E08C879D8741
:1035A000AE87BF879E01205F3F4FC901AF010E94D8
:1035B00036392C853D85205F3F4FC901DF91CF9182
:1035C00008950F931F93CF93DF93EC018B01029625
:1035D0000E94A51A9C015A894B899C898D89F80102
:1035E000E20FF31F50834183928383832C5F3F4F0D
:1035F0005E894F89988D898DF801E20FF31F508302
:103600004183928383832C5F3F4F5A8D4B8D9C8DDA
:103610008D8DF801E20FF31F5083418392838383E2
:103620002C5F3F4F5E8D4F8D98A189A1F801E20F6D
:10363000F31F50834183928383832C5F3F4F5AA1B2
:103640004BA19CA18DA1F801E20FF31F5083418390
:10365000928383832C5F3F4F5EA14FA198A589A5DC
:10366000F801E20FF31F50834183928383832C5F21
:103670003F4F5AA54BA59CA58DA5F801E20FF31F5E
:1036800050834183928383832C5F3F4F5EA54FA578
:1036900098A989A9F801E20FF31F5083418392830F
:1036A00083832C5F3F4FC901DF91CF911F910F9111
:1036B00008950F931F93CF93DF93EC018B01029634
:1036C0000E94A51A9C015A894B899C898D89F80111
:1036D000E20FF31F50834183928383832C5F3F4F1C
:1036E0005E894F89988D898DF801E20FF31F508311
:1036F0004183928383832C5F3F4F5A8D4B8D9C8DEA
:103700008D8DF801E20FF31F5083418392838383F1
:103710002C5F3F4F5E8D4F8D98A189A1F801E20F7C
:10372000F31F50834183928383832C5F3F4F5AA1C1
:103730004BA19CA18DA1F801E20FF31F508341839F
:10374000928383832C5F3F4F5EA14FA198A589A5EB
:10375000F801E20FF31F50834183928383832C5F30
:103760003F4F5AA54BA59CA58DA5F801E20FF31F6D
:1037700050834183928383832C5F3F4F5EA54FA587
:1037800098A989A9F801E20FF31F5083418392831E
:1037900083832C5F3F4FC901DF91CF911F910F9120
:1037A00008950F931F93CF93DF93EC018B01029643
:1037B0000E94A51A9C015A894B899C898D89F80120
:1037C000E20FF31F50834183928383832C5F3F4F2B
:1037D0005E894F89988D898DF801E20FF31F508320
:1037E0004183928383832C5F3F4FC901DF91CF9147
:1037F0001F910F9108950F931F93CF93DF93EC01C7
:103800008B0102960E94A51A9C015A894B899C89BA
:103810008D89F801E20FF31F5083418392838383E4
:103820002C5F3F4F5E894F89988D898DF801E20F9B
:10383000F31F50834183928383832C5F3F4FC901E1
:10384000DF91CF911F910F9108950F931F93CF9305
:10385000DF93EC018B0102960E94A51A9C015A8904
:103860004B899C898D89F801E20FF31F50834183B6
:10387000928383832C5F3F4F5E894F89988D898D1A
:10388000F801E20FF31F50834183928383832C5FFF
:103890003F4FC901DF91CF911F910F9108950F9371
:1038A0001F93CF93DF93EC018B016A817B81DB0156
:1038B000FD0101900020E9F73197EA1BFB0B9F0106
:1038C00040E050E0D8012D933D934D935D93CD01A1
:1038D000AF010E943639F801208131812C5F3F4FC2
:1038E000E20FF31F8C8180838D8181838E8182839F
:1038F0008F8183832C5F3F4FF801E20FF31F888590
:103900008083898581838A8582838B8583832C5FED
:103910003F4FC901DF91CF911F910F9108956F9291
:103920007F928F929F92AF92BF92CF92DF92EF924F
:10393000FF920F931F93CF93DF93EC015B01DB01A9
:103940000C918A81801760F4602F70E0660F771FFA
:10395000660F771F8F8198850E945D388F839887C7
:103960000A83F50160E034E0C32ED12C8E010D5F97
:103970001F4F45C0818190E0A0E0B0E0BA2FA92F91
:10398000982F8827228130E040E050E0A9013327BA
:103990002227822B932BA42BB52B208130E040E0F3
:1039A00050E0822B932BA42BB52B238130E040E0F9
:1039B00050E0522F442733272227822B932BA42B0E
:1039C000B52B8B839C83AD83BE8384E090E0C80ECF
:1039D000D91E862F90E0880F991F880F991F2F817D
:1039E0003885280F391FD8016D907D908D909C905F
:1039F000D9016D927D928D929C9213976F5F349650
:103A00008A81681708F4B6CF85010C0D1D1DF801D9
:103A100080808985881560F4682D70E0660F771FB7
:103A2000660F771F8E859F850E945D388E879F87E2
:103A300084E090E0C80ED91E8986F80160E08E010E
:103A4000065F1F4F45C0208130E040E050E081819B
:103A500090E0A0E0B0E0BA2FA92F982F8827822B02
:103A6000932BA42BB52B228130E040E050E0A9013C
:103A700033272227282B392B4A2B5B2B838190E07D
:103A8000A0E0B0E0B82FAA2799278827822B932B94
:103A9000A42BB52B8A879B87AC87BD87A4E0B0E0B9
:103AA000CA0EDB1E862F90E0880F991F880F991F82
:103AB0002E853F85280F391FD8016D907D908D9000
:103AC0009C90D9016D927D928D929C9213976F5F1D
:103AD00034968985681708F4B6CFF501EC0DFD1D05
:103AE00000818889801750F4602F70E0660F771F7F
:103AF0008B899C890E945D388B8B9C8BF601349658
:103B0000088B7724A1E18A2E912C8C0E9D1E41C03A
:103B1000D501AE0FBF1FCD90DD90ED90FC90DF0181
:103B200014963396EA0DFB1D8D019D01442737FD48
:103B30004095542F2C0D3D1D4E1D5F1D04C08181ED
:103B400081930F5F1F4FB80180E090E06217730709
:103B500084079507A0F3CA0EDB1EC5018C0D9D1DC1
:103B60000197FC0110821197AA0DBB1DBA8BA98B7E
:103B7000F601872D90E0880F991F2B893C89280F2B
:103B8000391FD4018D919C91D90111969C938E93EC
:103B900073948889781608F4BBCFCF01DF91CF9159
:103BA0001F910F91FF90EF90DF90CF90BF90AF905B
:103BB0009F908F907F906F900895AF92BF92CF9219
:103BC000DF92EF92FF920F931F93DF93CF930F92A9
:103BD0000F92CDB7DEB75C018B01DB01EC90FC01ED
:103BE00082818E1578F46CE0FE2DF69FB0011124D1
:103BF000D5011F968D919C9150970E945D38F501DB
:103C00008787908BD5011296EC92129720E094E072
:103C1000C92ED12C83E0E82EF12CEA0CFB1C3CE0F1
:103C20001AC0C70129833A830E94E315C80ED91E22
:103C300029813A81239FC0011124D5011F96ED915E
:103C4000FC915097E80FF91FD7018CE00D9001927D
:103C50008150E1F72F5FF5018281B8016C0D7D1D68
:103C60002817F8F2DB018C9190E0A0E0B0E0218908
:103C7000328943895489822B932BA42BB52B818BBA
:103C8000928BA38BB48BFB01218130E040E050E0AC
:103C9000542F432F322F2227282B392B4A2B5B2BD3
:103CA000D50151962D933D934D935C93549782810A
:103CB00090E0A0E0B0E0DC0199278827822B932BCD
:103CC000A42BB52BF501818B928BA38BB48BFB01BD
:103CD000238130E040E050E0522F44273327222751
:103CE000282B392B4A2B5B2BD50151962D933D93D5
:103CF0004D935C93549796012C5F3F4FC9010F90F1
:103D00000F90CF91DF911F910F91FF90EF90DF9077
:103D1000CF90BF90AF900895DF92EF92FF920F93F4
:103D20001F93CF93DF93EC018B0102960E94DD1D60
:103D30007C01F801E80FF91FD0808F898D1540F4C0
:103D4000898D9A8D6D2D70E00E945D38898F9A8FD4
:103D500097012C5F3F4FDF8A020F131F40E0CE0117
:103D6000489610C0D8016D918D01588D562B588FF3
:103D70002F5F3F4FE98DFA8DE40FF11DDC015C915F
:103D800050834F5F5F89451768F3C901DF91CF9179
:103D90001F910F91FF90EF90DF9008950F931F9365
:103DA000CF93DF93EC018C010A5F1F4FC8010E9483
:103DB0008C1EE9A1FAA1C8011995DF91CF911F913D
:103DC0000F9108950F931F93CF93DF938C01C0E061
:103DD000D0E0D80157968C915797C817B0F4C230ED
:103DE000D10599F0CE01880F991F8C0F9D1F599610
:103DF000ED91FC915A97EC0FFD1F6081805D974F0C
:103E000070E00E9490352196E4CFDF91CF911F9111
:103E10000F910895CF93DF93FC01AB0186819781C9
:103E2000EC01A881B98164817581ED91FC911995AE
:103E3000DF91CF910895FC014281538164817581A6
:103E4000808191810E94912D0895CF93DF93EC01A1
:103E5000288139814A815B818889882329F081E022
:103E600090E0A0E0B0E004C08FEF9FEFAFEFBFEFB6
:103E7000820F931FA41FB51F88839983AA83BB83D6
:103E800088859985AA85BB858C879D87AE87BF87E6
:103E90000E942132688779878A879B87DF91CF913B
:103EA000089589B190E0817090708093210881E13C
:103EB00098E00E94251F089581E04A9980E0809350
:103EC000080888EF97E00E94251F0895EF92FF925F
:103ED0000F931F93CF93DF93EC017A018B016881DD
:103EE00079818A819B812C813D814E815F81621B1A
:103EF000730B840B950B0E9477052D893E894F89A2
:103F0000588D0E94DF02A80197010E94D9039B01EE
:103F1000AC01298B3A8B4B8B5C8B88819981AA8170
:103F2000BB818C839D83AE83BF83DF91CF911F9133
:103F30000F91FF90EF900895CF93DF93EC010E94D3
:103F4000370ACE018B569F4F0E943135CE018856DD
:103F50009F4F0E943135DF91CF910895CF92DF922C
:103F6000EF92FF920F931F93DF93CF93CDB7DEB7FE
:103F700060970FB6F894DEBF0FBECDBF6C010E94F4
:103F8000133228EE33E040E050E00E94B2367B016D
:103F90008C01F60184859585A685B785820F931FD0
:103FA000A41FB51F89839A83AB83BC83C801B70163
:103FB00020E432E44FE050E00E946C36F6012089A4
:103FC000318942895389620F731F841F951F6D8346
:103FD0007E838F8398877E010894E11CF11CC701C2
:103FE000BE016B5F7F4F0E948B08DE011996F701BF
:103FF00088E001900D928150E1F729853A854B8543
:104000005C856D857E858F85988960960FB6F8945E
:10401000DEBF0FBECDBFCF91DF911F910F91FF90FB
:10402000EF90DF90CF9008950F931F93CF93DF937E
:104030008091F20D9091F30DA091F40DB091F50DDA
:104040000196A11DB11D8093F20D9093F30DA093E5
:10405000F40DB093F50D88E498E00E94680C80930D
:10406000010D8091FA0D8093020D83E09DE06FEFCA
:104070007CE00E940A1FC091E60DD091E70D80E31D
:1040800098E00E9413368883C091E60DD091E70D29
:1040900083E398E00E941336898388EE9DE06DECFF
:1040A0007DE00E940A1F0FE516E010931E0D00939D
:1040B0001D0DC5E1DDE08AE598E00E94AE1F20936A
:1040C000150D39834A835B836C837D838E839F8345
:1040D0008091F20D9091F30DA091F40DB091F50D3A
:1040E0008093110D9093120DA093130DB093140DA6
:1040F0006091090870910A0880910B0890910C0852
:1041000020E030E048EC52E40E94D90360931F0D98
:104110007093200D8093210D9093220D8091F807CC
:104120009091F907A091FA07B091FB078093270DB2
:104130009093280DA093290DB0932A0D6091B0079C
:104140007091B1078091B2079091B3070E94D70593
:1041500060932F0D7093300D8093310D9093320D3D
:1041600060910D0870910E0880910F0890911008D1
:1041700020E030E048EC52E40E94D9036093370D10
:104180007093380D8093390D90933A0D6091220809
:1041900070912308809124089091250820E030E058
:1041A00048EC52E40E94D9036093230D7093240DD0
:1041B0008093250D9093260D8091110890911208FF
:1041C000A0911308B091140880932B0D90932C0D9F
:1041D000A0932D0DB0932E0D6091D8077091D90743
:1041E0008091DA079091DB070E94D7056093330D29
:1041F0007093340D8093350D9093360D60912608A1
:1042000070912708809128089091290820E030E0DB
:1042100048EC52E40E94D90360933B0D70933C0D2F
:1042200080933D0D90933E0D8FE39DE0BE0168505D
:1042300070400E940A1F1093960D0093950DCDE8D3
:10424000DDE08AE598E00E94AE1F20938D0D398352
:104250004A835B836C837D838E839F838091F20D81
:104260009091F30DA091F40DB091F50D8093890D0F
:1042700090938A0DA0938B0DB0938C0D8091A00725
:104280009091A107A091A207B091A3078093970DE9
:104290009093980DA093990DB0939A0D8091A407D7
:1042A0009091A507A091A607B091A70780939B0DB9
:1042B00090939C0DA0939D0DB0939E0D8FE99DE072
:1042C000BE01685070400E940A1F8091FA0D882339
:1042D00009F4B6C010935A0D0093590DC1E5DDE005
:1042E0008AE598E00E94AE1F2093510D39834A83DE
:1042F0005B836C837D838E839F838091F20D90918D
:10430000F30DA091F40DB091F50D80934D0D9093A8
:104310004E0DA0934F0DB093500D8091C00790911A
:10432000C107A091C207B091C30780935B0D909322
:104330005C0DA0935D0DB0935E0D8091C4079091CC
:10434000C507A091C607B091C70780935F0D9093F2
:10435000600DA093610DB093620D8091C80790919C
:10436000C907A091CA07B091CB078093630D9093C2
:10437000640DA093650DB093660D60910D0870916A
:104380000E0880910F089091100820E030E048EC72
:1043900052E40E94D9036093670D7093680D809377
:1043A000690D90936A0D8091E8079091E907A091BB
:1043B000EA07B091EB0780936B0D90936C0DA0937F
:1043C0006D0DB0936E0D8091EC079091ED07A0916B
:1043D000EE07B091EF0780936F0D9093700DA0934F
:1043E000710DB093720D8091F0079091F107A0913B
:1043F000F207B091F3078093730D9093740DA0931F
:10440000750DB093760D6091260870912708809104
:1044100028089091290820E030E048EC52E40E94FE
:10442000D9036093770D7093780D8093790D9093F5
:104430007A0D8BE79DE0BE01685070400E940A1F14
:104440008FE596E09093BA0D8093B90DC1EBDDE056
:104450008AE598E00E94AE1F2093B10D39834A830C
:104460005B836C837D838E839F838091F20D90911B
:10447000F30DA091F40DB091F50D8093AD0D9093D7
:10448000AE0DA093AF0DB093B00D8BE997E00E94F5
:104490004C0A6093BB0D7093BC0D8093BD0D90933F
:1044A000BE0D8BE997E00E94670A6093BF0D709381
:1044B000C00D8093C10D9093C20D83EC9DE0BE01B1
:1044C000685070400E940A1FDF91CF911F910F9199
:1044D0000895DB01FC01EC5EFB4F20E030E04191F0
:1044E000519141155105A9F4F901E65FFD4FEE0F19
:1044F000FF1FE80FF91FB183A08323583F4F159684
:104500003C932E93149717969C938E93169781E065
:1045100008952F5F3F4F2931310509F780E0089555
:10452000FC01EA5BFB4F20E030E0419151914115E5
:10453000510581F4F901ED5DFD4FEE0FFF1FE80F0E
:10454000F91F718360832C593F4FFB013383228312
:1045500081E008952F5F3F4F2931310531F780E029
:104560000895FC01EA5BFB4F20E030E0419151915E
:104570004115510581F4F901ED5DFD4FEE0FFF1F6F
:10458000E80FF91F718360832C593F4FFB01338380
:10459000228381E008952F5F3F4F2931310531F7A4
:1045A00080E00895FC01EA5BFB4F20E030E04191A0
:1045B00051914115510581F4F901ED5DFD4FEE0F6B
:1045C000FF1FE80FF91F718360832C593F4FFB01D8
:1045D0003383228381E008952F5F3F4F29313105D6
:1045E00031F780E00895FC01EA5BFB4F20E030E00A
:1045F000419151914115510581F4F901ED5DFD4F56
:10460000EE0FFF1FE80FF91F718360832C593F4F96
:10461000FB013383228381E008952F5F3F4F2931CF
:10462000310531F780E008950F931F93DF93CF9307
:10463000CDB7DEB72A970FB6F894DEBF0FBECDBF59
:104640008C0181E996E09A8389831B821C821D82FA
:104650001E821F82188619861A86D801ED91FC9158
:104660000190F081E02DC8016AE070E0AE014F5F7B
:104670005F4F19950E941332F80160877187828716
:1046800093872A960FB6F894DEBF0FBECDBFCF91A9
:10469000DF911F910F9108954F925F926F927F92D9
:1046A0008F929F92AF92BF92CF92DF92EF92FF9242
:1046B0000F931F93DF93CF93CDB7DEB72E970FB62F
:1046C000F894DEBF0FBECDBF8C01FC01EE57FB4F4F
:1046D00081E0808385E896E09A838983A4E1EA2ECD
:1046E000A4E0FA2EE00EF11EF6E46F2EF4E07F2E29
:1046F000600E711E812CE2E09E2EA12CB12C6E0169
:104700000894C11CD11CD701ED91FC9111973097F1
:10471000A9F1848195819C838B83808191819E8383
:104720008D8382819381DC01ED91FC910480F58180
:10473000E02D199598878F83D701ED91FC918281A7
:104740009381DC01ED91FC910680F781E02D1995B4
:104750009A8789878B869C86AD86BE86F801808184
:104760009181F701A081B18118966D917C91199783
:10477000DC01ED91FC91C801A6011995E2E0F0E0A1
:10478000EE0EFF1EE614F70409F0BDCF76E4E72E27
:1047900074E0F72EE00EF11E68E7462E64E0562E18
:1047A000400E511E812C52E0952EA12CB12C6E0191
:1047B0000894C11CD11CF701A081B1811097D1F1DF
:1047C00012968D919C9113979C838B8314968D9157
:1047D0009C9115979E838D83ED91FC911197048098
:1047E000F581E02DCD01199598878F83D7018D91A3
:1047F0009C91DC01ED91FC910680F781E02D1995EB
:104800009A8789878B869C86AD86BE86D801ED9176
:10481000FC9160807180F70180819181DC01ED91D4
:10482000FC910280F381E02D1995BC01C801A6011D
:10483000F3011995E2E0F0E0EE0EFF1EE414F5043A
:1048400009F0B9CF2E960FB6F894DEBF0FBECDBFDC
:10485000CF91DF911F910F91FF90EF90DF90CF905C
:10486000BF90AF909F908F907F906F905F904F9090
:104870000895CF92DF92EF92FF920F931F93CF9301
:10488000DF93EC016B010E941332F601E080F180AE
:10489000028113810894E108F1080109110928EE49
:1048A00033E040E050E00E94B236E21AF30A040B13
:1048B000150BEC86FD860E871F87F601E480F580D8
:1048C0000681178120E03AEC4AE95BE3E20EF31E31
:1048D000041F151F20E432E44FE050E00E946C36C4
:1048E000E61AF70A080B190BE88AF98A0A8B1B8B60
:1048F000BE01605F7F4FCE010C960E948B08DF9156
:10490000CF911F910F91FF90EF90DF90CF9008957E
:10491000AF92BF92CF92DF92EF92FF920F931F93CD
:10492000DF93CF93CDB7DEB72A970FB6F894DEBFEB
:104930000FBECDBF5C016B0181E996E09A8389834C
:104940001B821C821D821E821F82188619861A866F
:104950000E9413327B018C01F50180859185A2852F
:10496000B385E81AF90A0A0B1B0BCE010196B601B2
:104970000E948D0EC801B70128EE33E040E050E000
:104980000E94B2367B018C018B819C81AD81BE81FE
:10499000820F931FA41FB51F8B839C83AD83BE839F
:1049A000C801B70120E432E44FE050E00E946C36C9
:1049B0009B01AC018F819885A985BA85820F931FD1
:1049C000A41FB51F8F839887A987BA87C501BE0129
:1049D0006D5F7F4F0E9439240E941332F501E95721
:1049E000FB4F60837183828393832A960FB6F8947A
:1049F000DEBF0FBECDBFCF91DF911F910F91FF9012
:104A0000EF90DF90CF90BF90AF9008952F923F929C
:104A10004F925F926F927F928F929F92AF92BF92CE
:104A2000CF92DF92EF92FF920F931F93DF93CF937A
:104A3000CDB7DEB72C970FB6F894DEBF0FBECDBF53
:104A40009C878B870E9413326B017C01EB85FC8570
:104A5000E957FB4F80819181A281B381A701960123
:104A6000281B390B4A0B5B0BDA01C901893F3AE27B
:104A7000930730E0A30730E0B30728F0EB85FC850F
:104A8000EE57FB4F1082EB85FC85E858FB4F808189
:104A90009181009781F0AB85BC85A557BB4F8D9167
:104AA0009D910D90BC91A02D8C159D05AE05BF0567
:104AB00010F411821082E0E86E2EE4E07E2E4B8529
:104AC0005C85640E751E8A0108581B4F7CE7872E93
:104AD00074E0972E840E951E64E1462E512C440EF0
:104AE000551E40575B4F5A8349838B859C85815760
:104AF0009B4F9C838B833AE7A32E34E0B32EAB8588
:104B0000BC85AA0EBB1E2EE7222E24E0322E2A0ED2
:104B10003B1EA557BB4FBE83AD83A70196012C5EFC
:104B20003F4F4F4F5F4F2F83388749875A87C801C0
:104B30000B851C859C878B87D80112968D919C9143
:104B40001397DC01ED91FC910084F185E02D19951E
:104B50009C0197FDFCC0F30180819181820F931F1E
:104B600091838083AB85BC854D915C9111974630D4
:104B70005105B9F4F10180819181F801E80FF91F25
:104B8000248B0196D10111969C938E93F50180811F
:104B90009181019791838083009771F6E7E0F0E0BF
:104BA0004AC041155105A9F42F3F310529F6E1E02E
:104BB000F0E0AB85BC85ED93FC932F81388549856A
:104BC0005A85AD81BE812D933D934D935C93139790
:104BD000B3CF4130510581F42F3F310539F422E044
:104BE00030E0EB85FC8531832083A6CFAB85BC8587
:104BF00011961C921E92A0CF4230510571F4F4011F
:104C000031832083E3E0F0E0AB85BC85ED93FC933A
:104C1000D30111963C932E938FCF4330510589F4E5
:104C2000322F2227F40180819181280F391F31838F
:104C30002083E4E0F0E0AB85BC851196FC93EE9315
:104C40007BCF4430510551F4D50111963C932E93FE
:104C5000F10111821082E5E0F0E0EDCF4530510521
:104C6000D1F4322F2227D5018D919C911197280FD5
:104C7000391F11963C932E9346E050E0EB85FC855E
:104C8000518340832115310509F056CF87E090E02C
:104C90009183808351CF4730510509F04DCFAB85CB
:104CA000BC8511961C921E9260E071E00E949F36B6
:104CB0008F3F910509F040CFD401ED91FC91119700
:104CC0003097E1F41C870B87C8010E9414238B8561
:104CD0009C850E944C23EB85FC85ED57FB4FC082E1
:104CE000D182E282F382EB85FC85E957FB4FC082DB
:104CF000D182E282F3822FEF3FEF54C0EA30F10518
:104D000029F4C801B2010E94882416CFE630F105CB
:104D100051F489819A81B2010E948F1C21E0EB81BC
:104D2000FC81208309CFE154FE4FEE0FFF1FE00FFF
:104D3000F11F80819181009709F4FECEDC01ED9195
:104D4000FC910190F081E02DB2011995F5CE1C8700
:104D50000B87F801EE57FB4F8081882309F10D572F
:104D60001B4FF80180819181A281B381A701960137
:104D7000281B390B4A0B5B0BDA01C901853C39E072
:104D8000930730E0A30730E0B30750F08B859C8594
:104D90000E941423D801CD92DD92ED92FC921397DC
:104DA00020E030E0C9012C960FB6F894DEBF0FBEAC
:104DB000CDBFCF91DF911F910F91FF90EF90DF90CA
:104DC000CF90BF90AF909F908F907F906F905F90AB
:104DD0004F903F902F900895AF92BF92CF92DF9265
:104DE000EF92FF920F931F93DF93CF9300D00F9218
:104DF000CDB7DEB70E946E328CE598E00E941B1F93
:104E00001092D30C1092D20C1092D50C1092D40C9C
:104E10001092D90C1092D80C1092D70C1092D60C7C
:104E20008AE598E063E07DE00E9469228AE598E0E7
:104E30006FE37DE00E9469228AE598E06BE77DE000
:104E40000E9469228AE598E06FE97DE00E9469226C
:104E50008AE598E063EC7DE00E94692282E090E0C0
:104E60000E942A378093E60D9093E70D82E08093AD
:104E7000E40D8AE598E068EE7DE00E9469228AE50B
:104E800098E06BE57EE00E9490228AE598E06FE171
:104E90007EE00E94B1228AE598E06BEF7DE00E94FF
:104EA000D2228AE598E069E67EE00E94F3228BE94F
:104EB00097E060E070E04AE02BE00E94070A0F2EC6
:104EC000FAE9EF2EF9E9FF2EF9E10F2FFFE31F2F8B
:104ED000F02DE092C007F092C1070093C207109333
:104EE000C3072DEC3CEC4CEC5DE32093C4073093FE
:104EF000C5074093C6075093C70780E090E0DC01E8
:104F00008093C8079093C907A093CA07B093CB07B3
:104F10000F2EF0E0AF2EF0E0BF2EFEEFCF2EF2E42A
:104F2000DF2EF02DA092CC07B092CD07C092CE0715
:104F3000D092CF07E092E807F092E9070093EA07E2
:104F40001093EB072093EC073093ED074093EE07A7
:104F50005093EF078093F0079093F107A093F20727
:104F6000B093F307A092F407B092F507C092F6074A
:104F7000D092F7078FE692E1A3E8BBE380930D0898
:104F800090930E08A0930F08B09310088093260802
:104F900090932708A0932808B093290810922E0810
:104FA00010922F081092360884E1898385E18A8364
:104FB00082E18B8383E18C838E010F5F1F4FF5E0CD
:104FC000EF2EF12CEC0EFD1ED801AD908D018A2D37
:104FD00060E00E9403338A2D60E00E9427330E15A3
:104FE0001F0591F785E06CE57FE143E050E00E940A
:104FF000802F83E061E57FE143E050E00E94802F55
:105000008BE398E068EE73E040E00E94A30A8DE035
:1050100061E00E940333AA24BB2465010E9413327D
:1050200060939707709398078093990790939A07D6
:1050300088E498E00E94680C882309F0A5C180915B
:105040003608882309F4A0C186E598E00E94240E62
:10505000A114B104C104D10481F4A0909707B090C9
:105060009807C0909907D0909A0780ED97E0A0E04C
:10507000B0E0A80EB91ECA1EDB1E80919707909162
:105080009807A0919907B0919A078A159B05AC05DE
:10509000BD05A0F088E498E00E94580CAA24BB2427
:1050A00065010CC080913608882341F488E498E0BB
:1050B0000E94650C86E598E00E94470E2091F60D4F
:1050C0003091F70D4091F80D5091F90D80919707AF
:1050D00090919807A0919907B0919A07821793072A
:1050E000A407B507D0F00E9414208DE06091DC0C7D
:1050F0000E9427338091F60D9091F70DA091F80D45
:10510000B091F90DC296A11DB11D8093F60D90933B
:10511000F70DA093F80DB093F90D209193073091FE
:105120009407409195075091960760919707709169
:1051300098078091990790919A07621773078407DF
:10514000950708F416C16C597F4F8F4F9F4F621B14
:10515000730B840B950B0E9429062FE632E143E87E
:105160005AE30E94DF02F62E072F182FE92E8BE359
:1051700098E060EA77E02F2D302F412F5E2D0E94BE
:10518000A70B88EF97E04F2D502F612F7E2D0E94A7
:10519000661F81E198E04F2D502F612F7E2D0E94D8
:1051A000661F80913608882309F4CFC04091090812
:1051B00050910A0860910B0870910C0887E398E001
:1051C0000E942709409122085091230860912408E9
:1051D0007091250889E398E00E94270987E398E009
:1051E0004F2D502F612F7E2D0E943D0989E398E0BD
:1051F0004F2D502F612F7E2D0E943D09E090A0077A
:10520000F090A1070091A2071091A307C801B70170
:1052100020E030E0A9010E94B70418165CF4C80130
:10522000B7012FE632E143E85AE30E94470518161A
:105230005CF42FC0C801B7012FE632E143E85AEB16
:105240000E94E70487FD25C06091090870910A0853
:1052500080910B0890910C0820E030E0A9010E9499
:1052600087048823B1F4609122087091230880910B
:1052700024089091250820E030E0A9010E948704CD
:10528000882339F48BE398E068EE73E041E00E94F4
:10529000A30A60912A0870912B08882777FD8095D2
:1052A000982F0E9477057B018C0187E398E00E948C
:1052B00030099B01AC01C801B7010E9481020E9424
:1052C000D70570932B0860932A0860912C08709181
:1052D0002D08882777FD8095982F0E9477057B0100
:1052E0008C0189E398E00E9430099B01AC01809118
:1052F0002A0890912B088038910514F08FE790E0F0
:10530000AFEF81389A0714F481E89FEF90932B0850
:1053100080932A08C801B7010E9481020E94D70524
:105320006038710514F06FE770E0BFEF61387B07FC
:1053300014F461E87FEF70932D0860932C0888E4E3
:1053400098E06AE278E00E94060D809193079091C0
:105350009407A0919507B09196078C599F4FAF4F36
:10536000BF4F8093930790939407A0939507B093B2
:1053700096078091DC0C882311F4109236088AE598
:1053800098E00E9406254ACE88E498E00E94680CC6
:10539000882309F087CE92CEDF93CF9300D00F926F
:1053A0000F92CDB7DEB72DE936E03A8329836B83C0
:1053B0005D834C83DC01ED91FC910190F081E02D47
:1053C00067E070E0AE014F5F5F4F19950F900F904F
:1053D0000F900F900F90CF91DF910895AB0163E094
:1053E0000E94CC290895CF92DF92EF92FF920F9303
:1053F0001F93CF93DF93EC01E62ECA01FE01EE5717
:10540000FB4F2081222309F464C0DA01ED91FC9165
:105410009E01265E3D4F0190F081E02DB901199566
:10542000FE01EC5EFD4F2FEF2083FE01EB5EFD4F92
:105430002083FE01EA5EFD4FE082DE01A95EBD4FE2
:105440001C92DE01A85EBD4F8C93DE01A75EBD4FAE
:105450001C9242E050E020E030E0BC016B5F7F4FE7
:1054600005C0A1912A0F311D4F5F5F4F641775076B
:10547000C4F7FE01E80FF91FE65EFD4F209520837B
:105480008C01095F1F4FB2E001301B07E4F4A4E177
:10549000CA2EA2E0DA2ECC0EDD1EEE24FF240FC0B1
:1054A0008A819B81F60161916F01DC01ED91FC9194
:1054B0000190F081E02D19950894E11CF11CE01693
:1054C000F10674F308C0CE0169EB74E00E94EE2986
:1054D00003C000E010E0C801DF91CF911F910F9150
:1054E000FF90EF90DF90CF9008950F931F93CF938D
:1054F000DF93CBE9D7E0CE010E949C1FBE01635F22
:105500007F4F87E398E00E942309BE016B5C7F4FC9
:1055100089E398E00E9423098BE398E069E048E082
:1055200008E510EA2BE03DE30E94820A88E498E057
:1055300060E847ED50E10E94CD0B86E598E06AE215
:1055400040E00E94740D8BE796E090935B08809397
:105550005A088EE990E190935D0880935C0880E0A2
:1055600091EEA0E0B0E080935E0890935F08A09376
:105570006008B09361081092DC0C89EA96E0909381
:10558000EB0C8093EA0CA1EDB6E0B093000DA09374
:10559000FF0C82EF94E09093040D8093030D8FEF46
:1055A0009CE09093060D8093050D10920C0D1092C7
:1055B0000B0D8DED96E090930E0D80930D0D89EE01
:1055C00096E09093100D80930F0D1092150D109290
:1055D000160D1092170D1092180D1092190D1092B1
:1055E0001A0D10921B0D10921C0D2AEF34E030930F
:1055F000400D20933F0D2DE03DE03093420D209370
:10560000410D1092480D1092470DC5EFD6E0D09392
:105610004A0DC093490D90934C0D80934B0D109201
:10562000510D1092520D1092530D1092540D109274
:10563000550D1092560D1092570D1092580D23E0F3
:1056400035E030937C0D20937B0D29E43DE03093D1
:105650007E0D20937D0D1092840D1092830D21E01C
:1056600037E03093860D2093850D9093880D8093BD
:10567000870D10928D0D10928E0D10928F0D10923D
:10568000900D1092910D1092920D1092930D109218
:10569000940D21E135E03093A00D20939F0D25E876
:1056A0003DE03093A20D2093A10D1092A80D109211
:1056B000A70D2DE037E03093AA0D2093A90D90930C
:1056C000AC0D8093AB0D1092B10D1092B20D1092F3
:1056D000B30D1092B40D1092B50D1092B60D10923C
:1056E000B70D1092B80D2AE135E03093C40D209328
:1056F000C30D29EA3DE03093C60D2093C50D1092ED
:10570000CC0D1092CB0DE9E1F7E0F093CE0DE093D4
:10571000CD0D65E277E07093D00D6093CF0D41E33E
:1057200057E05093D30D4093D20D28E235E03093EB
:10573000E90D2093E80D2DEC3DE03093EB0D209327
:10574000EA0D1092F10D1092F00D2DE337E0309339
:10575000FC0D2093FB0D29E437E03093020E2093DB
:10576000010E9093040E8093030E1092090E109276
:105770000A0E10920B0E10920C0E10920D0E10923B
:105780000E0E10920F0E1092100E2FED37E1309387
:105790001C0E20931B0E21E030E030931E0E209350
:1057A0001D0E04E315E01093000E0093FF0D05E5B8
:1057B00017E01093200E00931F0ED093260EC09377
:1057C000250E9093280E8093270E10922D0E109286
:1057D0002E0E10922F0E1092300E1092310E10924B
:1057E000320E1092330E1092340E89E098E19093AD
:1057F000580E8093570E30935A0E2093590E8AE319
:1058000095E09093240E8093230E81E697E0909389
:105810005C0E80935B0EB093620EA093610E8BE7DB
:1058200098E19093660E8093650E3093680E2093F6
:10583000670E83E495E09093600E80935F0E8DE693
:1058400097E090936A0E8093690EF093700EE09348
:105850006F0E7093720E6093710E5093750E40939D
:10586000740E82EE9EE190938B0E80938A0E30939D
:105870008D0E20938C0E8AE495E090936E0E8093AB
:105880006D0EDF91CF911F910F910895FC01228140
:105890003381F901E058FF4F8081918180589F4FFB
:1058A0002E573F4FF90120813181821B930B60E815
:1058B00070E00E949F360895FC0182819381FC0173
:1058C000EE57FF4F20813181FC01E058FF4F4081AE
:1058D00051814217530731F0820F931FFC01208141
:1058E00030E002C02FEF3FEFC9010895DC011296AE
:1058F0002D913C911397F901EE57FF4F80819181D3
:10590000D901A058BF4F4D915C9111974817590785
:1059100069F0280F391FD9012C91019660E870E0D9
:105920000E949F369183808330E002C02FEF3FEFCB
:10593000C9010895DC0112968D919C911397FC0189
:10594000E058FF4F8E579F4FDC018D919C9111972E
:10595000918380830895FC01A085B18521898C9174
:1059600090E0022E02C0959587950A94E2F780FF99
:10597000F6CF0484F585E02D608308951F93CF93BF
:10598000DF93182F9B01EB01C058DF4FE881F981AD
:10599000CF01019660E870E00E949F36AC01D9010A
:1059A000AE57BF4F8D919C9111974817590729F019
:1059B000E20FF31F108359834883DF91CF911F912A
:1059C00008951F920F920FB60F920BB60F921124EB
:1059D0002F933F934F935F936F937F938F939F93F7
:1059E000AF93BF93EF93FF938091C6006EE87EE084
:1059F0000E94BE2CFF91EF91BF91AF919F918F912B
:105A00007F916F915F914F913F912F910F900BBEBE
:105A10000F900FBE0F901F9018951F920F920FB608
:105A20000F920BB60F9211242F933F934F935F93D6
:105A30006F937F938F939F93AF93BF93EF93FF9356
:105A40008091CE0062E17FE00E94BE2CFF91EF9139
:105A5000BF91AF919F918F917F916F915F914F9186
:105A60003F912F910F900BBE0F900FBE0F901F9084
:105A700018951F920F920FB60F920BB60F9211242A
:105A80002F933F934F935F936F937F938F939F9346
:105A9000AF93BF93EF93FF938091D60066E97FE0C9
:105AA0000E94BE2CFF91EF91BF91AF919F918F917A
:105AB0007F916F915F914F913F912F910F900BBE0E
:105AC0000F900FBE0F901F9018951F920F920FB658
:105AD0000F920BB60F9211242F933F934F935F9326
