:100000000C9406010C9437010C9437010C943701C1
:100010000C9437010C9437010C9437010C94370180
:100020000C9437010C9437010C9437010C94370170
:100030000C9437010C9437010C9437010C94A901EE
:100040000C9437010C94B1320C9437010C943701A5
:100050000C9437010C9437010C9437010C94F92E51
:100060000C9437010C94322B0C94062C0C94370111
:100070000C9437010C9437010C9437010C94370120
:100080000C94DE320C9437010C9437010C94370138
:100090000C945F2B0C94512C0C9437010C948935E3
:1000A0000C9437010C9437010C940B330C943701EA
:1000B0000C9437010C9437010C9437010C943833AD
:1000C0000C9437010C9437010C9437010C948C2B51
:1000D0000C949C2C0C9437010C94B92B0C94E72CA9
:1000E0000C94370100002100240027002A002D0075
:1000F0003000330001010000040107010A01000083
:100100002200250028002B002E00310034000201BF
:100110000000050108010B0100002000230026005B
:1001200029002C002F00320000010000030106010D
:10013000090105050505070508080808020202026D
:100140000A0A080804040404010101010101010173
:100150000303030303030303040707070C0C0C0C3E
:100160000C0C0C0C02020202060606060606060627
:100170000B0B0B0B0B0B0B0B0102102020080810B4
:100180002040102040800201020108040201010207
:1001900004081020408080402010080402018004E0
:1001A000020180402010080402010804020101023B
:1001B0000408102040800102040810204080000044
:1001C000090A02080B0C0D070603040100000000D9
:1001D000000000000000000000000000000000001F
:1001E0000000000000000000000011100F000000DF
:1001F00000000000000000000000000000000000FF
:10020000000000006F2AB02DD331742A11241FBEC4
:10021000CFEFD1E2DEBFCDBF00E00CBF16E0A0E023
:10022000B2E0EEE5F7E700E00BBF02C007900D92E9
:10023000AC35B107D9F711E1ACE5B6E001C01D92CC
:10024000A336B107E1F712E0CAE0D2E000E006C051
:1002500022970109FE010BBF0E94993BC430D107D0
:1002600080E00807A9F70E9462250C94EF380C94EF
:100270000000CF92DF92EF92FF920F931F93CF93E4
:10028000DF93EC016B01FB016081718182819381BD
:1002900020E03AEC4AE95BE30E945C3B7B018C0185
:1002A00088819981AA81BB81820F931FA41FB51FEA
:1002B00088839983AA83BB83F601E082F18202835B
:1002C0001383DF91CF911F910F91FF90EF90DF90FB
:1002D000CF9008958091620690916306A091640684
:1002E000B09165060196A11DB11D809362069093A1
:1002F0006306A0936406B093650620916206309170
:100300006306409164065091650680915C06909169
:100310005D06A0915E06B0915F06281739074A076F
:100320005B07B0F080916606882391F481E08093AA
:10033000660610926206109263061092640610928E
:100340006506E0916006F0916106199510926606C7
:1003500008951F920F920FB60F920BB60F921124B1
:100360002F933F934F935F936F937F938F939F93BD
:10037000AF93BF93EF93FF930E946A01FF91EF91B8
:10038000BF91AF919F918F917F916F915F914F91AD
:100390003F912F910F900BBE0F900FBE0F901F90AB
:1003A0001895EF92FF921F93DF93CF930F92CDB7E3
:1003B000DEB7162F82E5E82E80E1F82EC70169E648
:1003C00070E049830E94C031C701612F0E946B31E8
:1003D000C7014981642F0E946B31C7010E94C3315C
:1003E0000F90CF91DF911F91FF90EF900895CF92E2
:1003F000DF92EF92FF920F931F93CF93DF93EC0165
:1004000082E590E169E670E00E94C03182E590E10A
:1004100068EA0E946B3182E590E10E94C33182E577
:1004200090E169E670E046E050E00E94B33182E579
:1004300090E10E940B3186309105CCF382E590E18A
:100440000E941431D82E82E590E10E941431C82E0A
:1004500082E590E10E941431F82E82E590E10E943D
:100460001431E82E82E590E10E941431182F82E5C4
:1004700090E10E941431082F3C2D20E06D2D70E09A
:10048000622B732B882777FD8095982F0E94FF3968
:10049000688379838A839B839E2D80E06F2D70E033
:1004A000682B792B882777FD8095982F0E94FF393C
:1004B0006C837D838E839F83902F80E0612F70E01B
:1004C000682B792B882777FD8095982F0E94FF391C
:1004D000688779878A879B87DF91CF911F910F91DA
:1004E000FF90EF90DF90CF900895FC0180E090E0C6
:1004F000A7E0B4E4808F918FA28FB38F80E090E06B
:10050000AAEFB3E4848F958FA68FB78F80E090E039
:10051000A4E3B3E480A391A3A2A3B3A320E030E0BB
:1005200042E054EC24A335A346A357A320E030E8CF
:100530004EE054EC20A731A742A753A720E030E8B3
:1005400040E454EC24A735A746A757A783E080AB27
:1005500088E181AB0895EF92FF921F93DF93CF93D1
:100560000F92CDB7DEB7FC01162F82E5E82E80E1B1
:10057000F82EC70161A949830E94B631C701612FD6
:100580000E946B31C7014981642F0E946B31C70102
:100590000E94C3310F90CF91DF911F91FF90EF9098
:1005A0000895EF92FF921F93DF93CF930F92CDB7F1
:1005B000DEB7162F92E5E92E90E1F92EC7016EE124
:1005C00070E049830E94C031C701612F0E946B31E6
:1005D000C7014981642F0E946B31C7010E94C3315A
:1005E0000F90CF91DF911F91FF90EF9008951F938F
:1005F000CF93DF93FC01EB0177FF30C02FEF6D3F0E
:100600007207C9F03FEF6E3F73072CF48FEF6C3F1A
:10061000780721F514C02FEF6E3F720741F03FEFCE
:100620006F3F7307D9F480A9882369F412C080A9A9
:10063000882361F411C080A9882359F404C080A9DB
:10064000882351F403C0C7E0D0E008C0C8E0D0E080
:1006500005C0C5E0D0E002C0C6E0D0E082E590E190
:100660006EE170E00E94C03182E590E16C2F0E9443
:100670006B3182E590E10E94C33182E590E16EE149
:1006800070E041E050E00E94B33182E590E10E94C9
:100690001431182F82E590E10E94C331812FDF9140
:1006A000CF911F910895CF92DF92EF92FF920F9317
:1006B0001F93CF93DF93EC0182E590E169A90E943B
:1006C000B63182E590E168EA0E946B3182E590E103
:1006D0000E94C33182E590E169A946E00E94A631FB
:1006E00082E590E10E940B3186309105CCF382E5E2
:1006F00090E10E941431D82E82E590E10E941431DD
:10070000C82E82E590E10E941431F82E82E590E136
:100710000E941431E82E82E590E10E941431182FD6
:1007200082E590E10E941431082F3C2D20E06D2DD0
:1007300070E0622B732B44E0759567954A95E1F75D
:10074000882777FD8095982F0E94FF3968837983E9
:100750008A839B839E2D80E06F2D70E0682B792B20
:1007600034E0759567953A95E1F7882777FD809590
:10077000982F0E94FF396C837D838E839F83902FF7
:1007800080E0612F70E0682B792B24E075956795E8
:100790002A95E1F7882777FD8095982F0E94FF39E9
:1007A000688779878A879B87DF91CF911F910F9107
:1007B000FF90EF90DF90CF90089582E590E168E19F
:1007C00070E00E94C03182E590E160E20E946B31EE
:1007D00082E590E10E94C33182E590E168E170E03A
:1007E00041E050E00E94B33182E590E10E940B317C
:1007F000009731F082E590E10E94143180E0089585
:1008000081E00895CF93DF93EC0168AB623018F07C
:10081000623071F40AC0442331F0413031F00E945B
:10082000DD03813011F088E101C089E189AB15C099
:100830000E94DD03813029F489E189AB82E088AB35
:100840000CC088E189ABCE016FE070E00E94F70236
:1008500091E08C3309F090E098ABDF91CF9108954F
:10086000CF93DF93EC01842F6115710511F4188289
:1008700004C091E098837A8369838823B1F02223AE
:10088000A1F08B832C839881992379F460E00E94F6
:10089000AF308C8160E00E94AF308B8160E00E94BD
:1008A000D3308C8160E00E94D330DF91CF910895E6
:1008B000362F242F60E070E0432F0E94300408950B
:1008C000DF93CF9300D00F920F92CDB7DEB7CE015A
:1008D000019660E040E00E9458040F900F900F9046
:1008E0000F900F90CF91DF910895FC0180818823B4
:1008F00039F08181928163810E94F107BC0105C0BA
:1009000083810E940830682F792F80E090E00E9458
:10091000FD3920E030E04DE95DE30E94B33A0895EF
:10092000FC018081882339F08181928164810E9459
:10093000F107BC0105C084810E940830682F792F1F
:1009400080E090E00E94FD3924E739EB48E05EE367
:100950000E94B33A0895FC01CB01BA01A901918329
:1009600080830E94322D08950895FC018081918139
:100970000895CF92DF92EF92FF920F931F93DF9330
:10098000CF930F92CDB7DEB7ED84FE84CF84FE0106
:100990007096DD2420E010C08F010E5F1F4F608134
:1009A000260FDC01ED91FC910190F081E02D29836F
:1009B0001995D394F8012981D7018D919C911197B4
:1009C000DC1450F3DC01ED91FC91622F6F77019004
:1009D000F081E02D19950F90CF91DF911F910F912C
:1009E000FF90EF90DF90CF9008952DB73EB729503C
:1009F00030400FB6F8943EBF0FBE2DBFEDB7FEB727
:100A00003196ADB7BEB712969C938E93119783E043
:100A100082836383148282E090E096838583478398
:100A200010860E94B9042DB73EB7275F3F4F0FB61F
:100A3000F8943EBF0FBE2DBF08952DB73EB7295085
:100A400030400FB6F8943EBF0FBE2DBFEDB7FEB7D6
:100A50003196ADB7BEB712969C938E93119783E0F3
:100A60008283638314828AE190E09683858347833F
:100A700010860E94B9042DB73EB7275F3F4F0FB6CF
:100A8000F8943EBF0FBE2DBF08957F928F929F9224
:100A9000AF92BF92CF92DF92EF92FF920F931F938C
:100AA000DF93CF93CDB7DEB779898A887B889C881E
:100AB000ADB7BEB797970FB6F894BEBF0FBEADBF28
:100AC000EDB7FEB7319612969C938E93119782E103
:100AD0008283638314828CE190E0968385835783BD
:100AE00010864187128633871486258716861787D6
:100AF000108A018B128AF38A148AE58A168AD78AA9
:100B0000108EC18E128EB38E148EA58E168E978E79
:100B100010A271A212A283A214A275A316A20E940F
:100B2000B904EDB7FEB7B7960FB6F894FEBF0FBE87
:100B3000EDBFCF91DF911F910F91FF90EF90DF906C
:100B4000CF90BF90AF909F908F907F9008957F92AD
:100B50008F929F92AF92BF92CF92DF92EF92FF92CD
:100B60000F931F93DF93CF93CDB7DEB779898A8830
:100B70007B889C88ADB7BEB797970FB6F894BEBF79
:100B80000FBEADBFEDB7FEB7319612969C938E9314
:100B9000119782E18283638314828DE190E09683D2
:100BA000858357831086418712863387148625876D
:100BB00016861787108A018B128AF38A148AE58AAF
:100BC000168AD78A108EC18E128EB38E148EA58E81
:100BD000168E978E10A271A212A283A214A275A3E0
:100BE00016A20E94B904EDB7FEB7B7960FB6F894F7
:100BF000FEBF0FBEEDBFCF91DF911F910F91FF9010
:100C0000EF90DF90CF90BF90AF909F908F907F90AC
:100C10000895ADB7BEB71F970FB6F894BEBF0FBE0D
:100C2000ADBFEDB7FEB7319612969C938E93119798
:100C300086E082836383148282E290E096838583D8
:100C40005783108641871286338714862587168638
:100C50000E94B904EDB7FEB73F960FB6F894FEBFF9
:100C60000FBEEDBF0895ADB7BEB71F970FB6F8948E
:100C7000BEBF0FBEADBFEDB7FEB7319612969C93C7
:100C80008E93119786E082836383148283E290E0DF
:100C9000968385835783108641871286338714860F
:100CA000258716860E94B904EDB7FEB73F960FB6AA
:100CB000F894FEBF0FBEEDBF0895ADB7BEB71F9746
:100CC0000FB6F894BEBF0FBEADBFEDB7FEB73196FD
:100CD00012969C938E93119786E08283638314828D
:100CE00084E290E09683858357831086418712863D
:100CF00033871486258716860E94B904EDB7FEB7A0
:100D00003F960FB6F894FEBF0FBEEDBF0895AF92A9
:100D1000BF92CF92DF92EF92FF920F931F93CF93E8
:100D2000DF93EC017A018B010E94412F5B016C0182
:100D300088819981DC01ED91FC910284F385E02D9D
:100D4000199515C088819981DC01ED91FC91048091
:100D5000F581E02D1995009751F088819981DC018A
:100D6000ED91FC910680F781E02D19950CC00E9451
:100D7000412F6A197B098C099D09E616F7060807B9
:100D8000190700F780E0DF91CF911F910F91FF903D
:100D9000EF90DF90CF90BF90AF9008953F924F9229
:100DA0005F926F927F928F929F92AF92BF92CF92FB
:100DB000DF92EF92FF920F931F93CF93DF93EC019B
:100DC000362E642E2901680188819981DC01ED911C
:100DD000FC910190F081E02D199588819981DC01C9
:100DE000ED91FC910190F081E02D662D199588819F
:100DF0009981DC01ED91FC910284F385E02D199538
:100E0000CE0142E350E060E070E00E948706B82E19
:100E1000E82EFF2400E010E01E2D0027FF24EE2422
:100E2000CE0142E350E060E070E00E948706982E19
:100E3000CE0142E350E060E070E00E948706882E19
:100E4000CE0142E350E060E070E00E948706782E19
:100E5000892D90E0A0E0B0E0DC0199278827E82AFE
:100E6000F92A0A2B1B2B872D90E0A0E0B0E0E82A9E
:100E7000F92A0A2B1B2B882D90E0A0E0B0E0BA2FB6
:100E8000A92F982F8827E82AF92A0A2B1B2BCE0195
:100E900042E350E060E070E00E948706A82E411413
:100EA000510411F0F2018083CE0142E350E060E092
:100EB00070E00E948706C114D10491F0630C6B0CA2
:100EC000690C680C670C6A0C7724FFE76F227724A3
:100ED00090E021E06816790609F020E0D6012C9315
:100EE000B701C801DF91CF911F910F91FF90EF9053
:100EF000DF90CF90BF90AF909F908F907F906F903A
:100F00005F904F903F9008950F931F93FA018901CE
:100F10004FE19F010E94CE061F910F9108950F93FC
:100F20001F93FA0189014EE19F010E94CE061F9195
:100F30000F9108950F931F93FA01890141E19F01D9
:100F40000E94CE061F910F9108950F931F93FA01EF
:100F5000890140E19F010E94CE061F910F910895E3
:100F6000AF92BF92CF92DF92EF92FF920F931F93B7
:100F7000DF93CF930F92CDB7DEB78C01962F603100
:100F800008F09FE0F80185819817E9F07801AA241C
:100F9000BB24C92EDD2496010A2C02C03595279565
:100FA0000A94E2F721703070F70181917F01622F7E
:100FB00099830E94D3300894A11CB11C9981F4E05C
:100FC000AF16B10441F7F80195830F90CF91DF91EF
:100FD0001F910F91FF90EF90DF90CF90BF90AF9057
:100FE0000895CF93DF93EC010E94B0078C810E949B
:100FF0000830DF91CF9108958EBD0DB407FEFDCF6F
:101000008EB50895CF93DF93EC01888161E00E9453
:10101000AF308A8161E00E94AF308C8161E00E9434
:10102000AF308E8161E00E94AF308A8160E00E9423
:10103000D3308C8161E00E94D330DF91CF9108954D
:101040000F931F93FC017183608353834283358325
:101050002483178306830E9402080E94A03481E043
:101060000E94BF341F910F910895CF93DF93EC013D
:101070008A8161E00E94D3308AE090E00E949C2F38
:101080008A8160E00E94D330DF91CF910895AF92C2
:10109000BF92CF92DF92EF92FF920F931F93CF9365
:1010A000DF93EC01882777FD8095982F637070702F
:1010B00080709070FAE0660F771F881F991FFA956D
:1010C000D1F7580175010027F7FC0095102FEFEFBD
:1010D000AE2EE3E0BE2EC12CD12CEA20FB200C2149
:1010E0001D21E62AF72A082B192B9AE0EE0CFF1C8B
:1010F000001F111F9A95D1F7662757FD6095762F2F
:10110000537060707070E42AF52A062B172B8AE062
:10111000EE0CFF1C001F111F8A95D1F7442737FDE5
:101120004095542F337040705070E22AF32A042BFC
:10113000152B8C8160E00E94D330812F0E94FC0728
:10114000802F0E94FC078F2D0E94FC078E2D0E948D
:10115000FC07CE010E943508DF91CF911F910F91BE
:10116000FF90EF90DF90CF90BF90AF9008950F93D6
:101170001F93E62FF72F64E0E030F60714F0EFEF4F
:10118000F3E0642F752F44E06030740714F06FEFC4
:1011900073E0022F132F24E00030120714F00FEF3A
:1011A00013E0AF01F7FF02C040E050E09B0177FF82
:1011B00002C020E030E017FF02C000E010E060E075
:1011C00070E00E9447081F910F9108950F931F939D
:1011D0008B0161E070E0A80198010E9447081F910F
:1011E0000F910895FC01862F4383962F96519830D6
:1011F00058F1262F2A50243050F12852243038F14B
:101200002C5E283038F1245F243038F1663229F121
:10121000643030F1653021F12452283020F1215F13
:10122000233020F1643011F12F5D243010F1603152
:1012300001F16131F1F028502230F0F020532830D4
:10124000F0F428E031E01DC022E230E01AC025E2CF
:1012500030E017C028E230E014C02BE230E011C0CB
:101260002EE230E00EC021E330E00BC024E330E09A
:1012700008C022E031E005C025E031E002C02BE0EB
:1012800031E031832083282F2750233018F4982F02
:10129000935053C0282F2A50243018F4982F96507A
:1012A0004CC0983008F449C0982F9E51983010F4E3
:1012B00095E205C0982F9752933018F499E2981B45
:1012C0003CC0982F9A52983010F491E3F8CF982FA1
:1012D0009253943010F495E3F2CF982F96539830B0
:1012E00060F19850983048F18823E1F08F30D1F0C8
:1012F0008131C1F08531B1F08130B1F08E30A1F093
:10130000803191F0843181F0833181F0975C9230AB
:1013100078F0823169F0823069F09E5F923060F43B
:1013200095E00BC090E009C091E007C092E005C0D5
:1013300093E003C094E001C097E0928361E00E94D3
:10134000AF300895FC018381A081B181328188236F
:1013500069F02C9181E090E002C0880F991F3A95C6
:10136000E2F7809582238C93148208952C9181E07A
:1013700090E002C0880F991F3A95E2F7282B2C9332
:1013800081E084830895FC018381A081B181328151
:10139000882369F02C9181E090E002C0880F991FAA
:1013A0003A95E2F7282B2C9381E0848308952C91C1
:1013B00081E090E002C0880F991F3A95E2F780958E
:1013C00082238C9314820895FC0184810895FC018A
:1013D000DB0182818C93838111968C931197848198
:1013E00012968C931297858113968C93139786810E
:1013F00014968C931497878115968C9315978085F6
:1014000016968C931697818517968C93179788E07C
:1014100090E00895EF92FF920F931F93FC01DB0180
:101420002C9130E040E050E06281738184819581AD
:10143000262B372B482B592B228333834483558308
:1014400011966C91119770E080E090E0982F872FB3
:10145000762F6627622B732B842B952B62837383E5
:101460008483958312962C91129730E040E050E0EF
:10147000A90133272227262B372B482B592B2283D0
:1014800033834483558313966C91139770E080E007
:1014900090E0962F882777276627622B732B842B63
:1014A000952B628373838483958314962C91149770
:1014B00030E040E050E06681778180859185262B81
:1014C000372B482B592B2683378340875187159616
:1014D000EC901597FF2400E010E0102F0F2DFE2C4C
:1014E000EE24E22AF32A042B152BE682F7820087EA
:1014F000118716962C91169730E040E050E0A90134
:10150000332722272E293F29402B512B268337832F
:101510004087518717968C9190E0A0E0B0E0B82FFB
:10152000AA2799278827822B932BA42BB52B868358
:101530009783A087B18788E090E01F910F91FF907B
:10154000EF90089580E092E008958EE092E0089593
:10155000AF92BF92CF92DF92EF92FF920F931F93C1
:10156000CF93DF935C01FB01808190E0D50112965F
:101570002D913C911397822B932B13969C938E93D2
:101580001297318120E0822B932B13969C938E939C
:10159000129782819381A481B5818B010B5F1F4FCC
:1015A000E80166E070E026E0C22ED12CE12CF12C9F
:1015B000C80ED91EEA1EFB1E04C0298129936F5F45
:1015C0007F4F9B0140E050E02C153D054E055F0527
:1015D000A0F3AC014A5F5F4F4E0F5F1F9A0121508D
:1015E0003040E9011882E5011D830C83EA01C880BF
:1015F000D980EA80FB80BC01665F7F4FEC012996B1
:10160000CE0FDF1F8B01CB01AA2797FDA095BA2F24
:101610008C0D9D1DAE1DBF1D04C0298129930F5F38
:101620001F4F980140E050E0281739074A075B0731
:10163000A0F3EB01CC0DDD1D9F012C0F3D1FC90157
:101640000197DC011C92615070406E0F7F1FD50125
:1016500017967C936E931697D901CD90DD90ED90FF
:10166000FC90BE016C5F7F4F2396CE0FDF1F8B0176
:10167000CB01AA2797FDA095BA2F8C0D9D1DAE1DFD
:10168000BF1D04C0298129930F5F1F4F980140E0BF
:1016900050E0281739074A075B07A0F3C60ED71E8C
:1016A000DF01AC0DBD1DED01219718826150704026
:1016B0006E0F7F1FE5017987688711962C9111972E
:1016C00030E040E050E0542F432F322F2227129673
:1016D0006C91129770E080E090E0CB01772766274D
:1016E000262B372B482B592B6C9170E080E090E033
:1016F000262B372B482B592B13968C9190E0A0E08A
:10170000B0E0B82FAA2799278827282B392B4A2BF6
:101710005B2BF501228733874487558784E090E06F
:10172000C80ED91EC601DF91CF911F910F91FF9076
:10173000EF90DF90CF90BF90AF9008958FE292E04E
:10174000089588E492E00895AF92BF92CF92DF921D
:10175000EF92FF920F931F93CF93DF93FC01DB0176
:1017600082819C91892B82831196ED90FD900D9141
:101770001C9114976C5F7F4FEB0185E090E035E0A2
:10178000A32EB12CC12CD12CAE0CBF1CC01ED11E5F
:1017900003C02981299301969C0140E050E02A155D
:1017A0003B054C055D05A8F397012B5F3F4FA20F4A
:1017B000B31F11971C9274836383C901DF91CF918A
:1017C0001F910F91FF90EF90DF90CF90BF90AF905F
:1017D000089589E692E008958CE792E0089580E903
:1017E00095E008958DE992E00895FC01DB01828186
:1017F0008C93838111968C93119782E090E00895E9
:10180000FC01DB018C91828311968C91119783836B
:1018100082E090E008958EEB92E0089581ED92E0F1
:101820000895AF92BF92CF92DF92EF92FF920F9303
:101830001F93CF93DF93FC01DB012C9130E040E05C
:1018400050E06281738184819581262B372B482B50
:10185000592B228333834483558311966C911197BE
:1018600070E080E090E0982F872F762F6627622B1C
:10187000732B842B952B62837383848395831296B9
:101880002C91129730E040E050E0A9013327222745
:10189000262B372B482B592B2283338344835583A4
:1018A00013966C91139770E080E090E0962F882754
:1018B00077276627622B732B842B952B6283738388
:1018C0008483958314962C91149730E040E050E087
:1018D0006681778180859185262B372B482B592B64
:1018E000268337834087518715966C91159770E052
:1018F00080E090E0982F872F762F6627622B732B3E
:10190000842B952B668377838087918716962C91FD
:10191000169730E040E050E0A90133272227262B1C
:10192000372B482B592B26833783408751871796AF
:101930006C91179770E080E090E0962F88277727CA
:101940006627622B732B842B952B66837783808786
:10195000918718962C91189730E040E050E062850E
:10196000738584859585262B372B482B592B228709
:1019700033874487558719966C91199770E080E0FA
:1019800090E0982F872F762F6627622B732B842B5E
:10199000952B62877387848795871A962C911A975F
:1019A00030E040E050E0A90133272227262B372BD7
:1019B000482B592B22873387448755871B966C9178
:1019C0001B9770E080E090E0962F882777276627A6
:1019D000622B732B842B952B628773878487958763
:1019E0001C96ED90FD900D911C911F97BD01615FBC
:1019F0007F4FEB0180E190E040E1A42EB12CC12C9F
:101A0000D12CAE0CBF1CC01ED11E03C0298129934E
:101A100001969C0140E050E02A153B054C055D0510
:101A2000A8F39701205F3F4FA20FB31F11971C929D
:101A300077876687C901DF91CF911F910F91FF9042
:101A4000EF90DF90CF90BF90AF90089582EF92E03B
:101A5000089582E093E00895EF92FF920F931F9311
:101A6000CF93DF938C01EB0102960E94110C7C0155
:101A7000DE01A80FB91F11966C91119770E080E0FC
:101A800090E0982F872F762F66272C9130E040E04A
:101A900050E0622B732B842B952B12962C9112976E
:101AA00030E040E050E0A90133272227262B372BD6
:101AB000482B592B13968C9190E0A0E0B0E0B82F02
:101AC000AA2799278827822B932BA42BB52BF801C3
:101AD000828B938BA48BB58BF7013496CE0FDF1FCF
:101AE000698170E080E090E0982F872F762F66273D
:101AF000288130E040E050E0622B732B842B952B43
:101B00002A8130E040E050E0A90133272227262B2C
:101B1000372B482B592B8B8190E0A0E0B0E0B82FF9
:101B2000AA2799278827822B932BA42BB52BE80172
:101B30008E8B9F8BA88FB98F3496CF01DF91CF9179
:101B40001F910F91FF90EF90089583E293E0089525
:101B500085E393E00895EF92FF920F931F93CF9345
:101B6000DF938C01EB0102960E94110C7C01DE01D7
:101B7000A80FB91F11966C91119770E080E090E06A
:101B8000982F872F762F66272C9130E040E050E089
:101B9000622B732B842B952B12962C91129730E08D
:101BA00040E050E0A90133272227262B372B482B72
:101BB000592B13968C9190E0A0E0B0E0B82FAA27A3
:101BC00099278827822B932BA42BB52BF801828B86
:101BD000938BA48BB58BF7013496CE0FDF1F6981F1
:101BE00070E080E090E0982F872F762F662728817D
:101BF00030E040E050E0622B732B842B952B2A8140
:101C000030E040E050E0A90133272227262B372B74
:101C1000482B592B8B8190E0A0E0B0E0B82FAA2789
:101C200099278827822B932BA42BB52BE8018E8B29
:101C30009F8BA88FB98F3496CF01DF91CF911F91E1
:101C40000F91FF90EF90089586E593E0089589E65F
:101C500093E00895CF92DF92EF92FF920F931F933C
:101C6000CF93DF936C01EB0102960E94110CDC0113
:101C7000FE01E80FF91F618170E080E090E0982F8D
:101C8000872F762F6627208130E040E050E0622BDE
:101C9000732B842B952B228130E040E050E0A9018A
:101CA00033272227262B372B482B592B638170E0B3
:101CB00080E090E0962F882777276627622B732B8A
:101CC000842B952BF601628B738B848B958B1496EA
:101CD000FE01EA0FFB1F618170E080E090E0982F29
:101CE000872F762F6627208130E040E050E0622B7E
:101CF000732B842B952B228130E040E050E0A9012A
:101D000033272227262B372B482B592B638170E052
:101D100080E090E0962F882777276627622B732B29
:101D2000842B952BF601668B778B808F918FBD016D
:101D30006C5F7F4FFE01E60FF71F218130E040E02E
:101D400050E0542F432F322F2227828190E0A0E0D1
:101D5000B0E0DC0199278827282B392B4A2B5B2BF5
:101D6000E080FF2400E010E02E293F29402B512B7A
:101D7000838190E0A0E0B0E0B82FAA2799278827B8
:101D8000282B392B4A2B5B2BF601228F338F448F64
:101D9000558F6C5F7F4FFE01E60FF71F218130E00A
:101DA00040E050E0542F432F322F2227828190E0D1
:101DB000A0E0B0E0DC0199278827282B392B4A2B9B
:101DC0005B2B808190E0A0E0B0E0282B392B4A2BE0
:101DD0005B2B838190E0A0E0B0E0B82FAA27992781
:101DE0008827282B392B4A2B5B2BF601268F378F20
:101DF00040A351A36C5F7F4FFE01E60FF71F2181C7
:101E000030E040E050E0542F432F322F22278281D0
:101E100090E0A0E0B0E0DC0199278827282B392B3F
:101E20004A2B5B2B808190E0A0E0B0E0282B392B7F
:101E30004A2B5B2B838190E0A0E0B0E0B82FAA276B
:101E400099278827282B392B4A2B5B2BF60122A3B5
:101E500033A344A355A36C5F7F4FFE01E60FF71F2A
:101E6000218130E040E050E0542F432F322F2227D1
:101E7000828190E0A0E0B0E0DC0199278827282B40
:101E8000392B4A2B5B2B808190E0A0E0B0E0282B1F
:101E9000392B4A2B5B2B838190E0A0E0B0E0B82F78
:101EA000AA2799278827282B392B4A2B5B2BF60149
:101EB00026A337A340A751A7DB011496FE01EA0F22
:101EC000FB1F618170E080E090E0982F872F762FD4
:101ED0006627208130E040E050E0622B732B842B9A
:101EE000952B228130E040E050E0A90133272227E2
:101EF000262B372B482B592B638170E080E090E034
:101F0000962F882777276627622B732B842B952B98
:101F1000F60162A773A784A795A71496CA0FDB1FC3
:101F2000698170E080E090E0982F872F762F6627F8
:101F3000288130E040E050E0622B732B842B952BFE
:101F40002A8130E040E050E0A90133272227262BE8
:101F5000372B482B592B6B8170E080E090E0962F57
:101F6000882777276627622B732B842B952B66A7F0
:101F700077A780AB91AB1496CD01DF91CF911F91E4
:101F80000F91FF90EF90DF90CF9008958AE893E053
:101F900008958DE993E008950F931F93CF93DF93F6
:101FA0008C01EB0102960E94110CDC01FE01E80F8E
:101FB000F91F618170E080E090E0982F872F762FE5
:101FC0006627208130E040E050E0622B732B842BA9
:101FD000952B228130E040E050E0A90133272227F1
:101FE000262B372B482B592B638170E080E090E043
:101FF000962F882777276627622B732B842B952BA8
:10200000F801628B738B848B958B1496FE01EA0F1B
:10201000FB1F618170E080E090E0982F872F762F82
:102020006627208130E040E050E0622B732B842B48
:10203000952B228130E040E050E0A9013327222790
:10204000262B372B482B592B638170E080E090E0E2
:10205000962F882777276627622B732B842B952B47
:10206000F801668B778B808F918F1496FE01EA0FB3
:10207000FB1F618170E080E090E0982F872F762F22
:102080006627208130E040E050E0622B732B842BE8
:10209000952B228130E040E050E0A9013327222730
:1020A000262B372B482B592B638170E080E090E082
:1020B000962F882777276627622B732B842B952BE7
:1020C000F801628F738F848F958F1496FE01EA0F4B
:1020D000FB1F618170E080E090E0982F872F762FC2
:1020E0006627208130E040E050E0622B732B842B88
:1020F000952B228130E040E050E0A90133272227D0
:10210000262B372B482B592B638170E080E090E021
:10211000962F882777276627622B732B842B952B86
:10212000F801668F778F80A391A31496FE01EA0FC2
:10213000FB1F618170E080E090E0982F872F762F61
:102140006627208130E040E050E0622B732B842B27
:10215000952B228130E040E050E0A901332722276F
:10216000262B372B482B592B638170E080E090E0C1
:10217000962F882777276627622B732B842B952B26
:10218000F80162A373A384A395A3BD016C5F7F4F85
:10219000FE01E60FF71F218130E040E050E0542FB0
:1021A000432F322F2227808190E0A0E0B0E0282B3F
:1021B000392B4A2B5B2B828190E0A0E0B0E0DC0160
:1021C00099278827822B932BA42BB52B238130E0D2
:1021D00040E050E0522F442733272227282B392B69
:1021E0004A2B5B2BF80126A337A340A751A7DB019D
:1021F0001496FE01EA0FFB1F618170E080E090E021
:10220000982F872F762F6627208130E040E050E01E
:10221000622B732B842B952B228130E040E050E021
:10222000A90133272227262B372B482B592B6381D3
:1022300070E080E090E0962F882777276627622B52
:10224000732B842B952BF80162A773A784A795A7FE
:102250001496FE01EA0FFB1F618170E080E090E0C0
:10226000982F872F762F6627208130E040E050E0BE
:10227000622B732B842B952B228130E040E050E0C1
:10228000A90133272227262B372B482B592B638173
:1022900070E080E090E0962F882777276627622BF2
:1022A000732B842B952BF80166A777A780AB91AB96
:1022B0001496FE01EA0FFB1F618170E080E090E060
:1022C000982F872F762F6627208130E040E050E05E
:1022D000622B732B842B952B228130E040E050E061
:1022E000A90133272227262B372B482B592B638113
:1022F00070E080E090E0962F882777276627622B92
:10230000732B842B952BF80162AB73AB84AB95AB2D
:102310001496CA0FDB1F698170E080E090E0982F6F
:10232000872F762F6627288130E040E050E0622B2F
:10233000732B842B952B2A8130E040E050E0A901DB
:1023400033272227262B372B482B592B6B8170E004
:1023500080E090E0962F882777276627622B732BE3
:10236000842B952B66AB77AB80AF91AF1496CD01E4
:10237000DF91CF911F910F9108958EEB93E0089517
:1023800086ED93E008958F929F92AF92BF92CF9285
:10239000DF92EF92FF920F931F93CF93DF93FC0195
:1023A0004B01DB01ED90FD900D911C916D5F7F4F16
:1023B000DB0184E090E024E0A22EB12CC12CD12CD2
:1023C000AE0CBF1CC01ED11E05C011962C911197DA
:1023D0002D9301969C0140E050E02A153B054C05E9
:1023E0005D0598F387010C5F1F4FE401C00FD11FFB
:1023F000DE0111971C9273836283888190E0A0E0D4
:10240000B0E02481358146815781822B932BA42B08
:10241000B52B84839583A683B783298130E040E080
:1024200050E0542F432F322F2227282B392B4A2BB1
:102430005B2B24833583468357838A8190E0A0E019
:10244000B0E0DC0199278827822B932BA42BB52B96
:1024500084839583A683B7832B8130E040E050E0EE
:10246000522F442733272227282B392B4A2B5B2B2B
:102470002483358346835783B8016C5F7F4FE40123
:10248000C60FD71F888190E0A0E0B0E0208531859D
:1024900042855385822B932BA42BB52B8087918764
:1024A000A287B387298130E040E050E0542F432FCA
:1024B000322F2227282B392B4A2B5B2B2087318761
:1024C000428753878A8190E0A0E0B0E0DC01992741
:1024D0008827822B932BA42BB52B80879187A287EB
:1024E000B3872B8130E040E050E0522F4427332760
:1024F0002227282B392B4A2B5B2B208731874287B9
:1025000053876C5F7F4FCB01DF91CF911F910F916C
:10251000FF90EF90DF90CF90BF90AF909F908F9003
:10252000089587EF93E0089584E194E00895CF92B1
:10253000DF92EF92FF920F931F93DF93CF930F924F
:102540000F92CDB7DEB76C018B01DC0112968C9136
:102550001297FB01808311821282138220E034E003
:10256000E32EF12C3CE018C0239FA0011124F601BA
:1025700087859089840F951FFC0140815181FA0164
:1025800040815181BD0129833A83FA011995E80EF2
:10259000F91E29812F5F3A81D60112968C91D801BC
:1025A000AE0DBF1D281700F3F60181898C93828937
:1025B00011968C931197838912968C931297848924
:1025C00013968C93139797012C5F3F4FC9010F907F
:1025D0000F90CF91DF911F910F91FF90EF90DF90BF
:1025E000CF90089585E394E008958FE494E00895F2
:1025F0000F931F93CF93DF938C01EB0102960E9400
:102600009712FE01E80FF91FD80157962C915797A2
:1026100020839C012F5F3F4FFE01E20FF31F1082CA
:102620002F5F3F4FFE01E20FF31F10822F5F3F4FDE
:10263000FE01E20FF31F10822F5F3F4FFC01349623
:10264000EC0FFD1F80E00AC0E801A98DBA8DA80F2C
:10265000B11D9C9191932F5F3F4F8F5FD80157968B
:102660009C915797891780F3C901DF91CF911F91F2
:102670000F91089580E794E0089589E894E0089523
:10268000CF93DF93EC016A897B898C899D892091A6
:102690001A0730911B0740911C0750911D070E949B
:1026A00064390E94CC396093030D7093040D8093BC
:1026B000050D9093060D6E897F89888D998D2091E7
:1026C00032073091330740913407509135070E940B
:1026D00064390E94CC396093070D7093080D809384
:1026E000090D90930A0DDF91CF910895FC0182812D
:1026F00080936E0783818093020D0895FC01EE574D
:10270000FB4F80810895FC0183A194A1089580E787
:1027100094E0089589E894E008950F931F93CF9370
:10272000DF93EC018C010A5F1F4FC8010E94000C6F
:10273000EA85FB85C8011995DF91CF911F910F9113
:102740000895FC018485958508958EEB92E00895A7
:1027500081ED92E008950F931F93CF93DF93EC01E7
:102760008C010A5F1F4FC8010E942C0DE8A1F9A13E
:10277000C8011995DF91CF911F910F910895FC0128
:1027800082A193A1089583E293E0089585E393E005
:1027900008958F929F92AF92BF92CF92DF92EF9265
:1027A000FF920F931F93CF93DF93EC018B018A81EC
:1027B000DB018C938B8111968C936C817D81DB0185
:1027C000FD0101900020E9F73197EA1BFB0B9F0107
:1027D00040E050E0D80112962D933D934D935C93C9
:1027E000159798012A5F3F4FC901AF010E94F23847
:1027F000F8012281338166E0E62EF12CE20EF31E11
:10280000E00EF11E6E817F81DB01FD010190002051
:10281000E9F73197EA1BFB0B5F01CC24DD24D701DC
:10282000AD92BD92CD92DC9213975AE0C52ED12C79
:10283000C20ED31E98012C0D3D1DC901AF010E948F
:10284000F238F701208131812C0D3D1D6801C20E47
:10285000D31E68857985DB01FD0101900020E9F731
:102860003197EA1BFB0B4F01AA24BB24D6018D92A2
:102870009D92AD92BC92139744E0E42EF12CE20EAF
:10288000F31E98012E0D3F1DC901AF010E94F238C1
:10289000F601208131812E0D3F1D5A854B859C8587
:1028A0008D85F801E20FF31F508341839283838368
:1028B0002C5F3F4FC901DF91CF911F910F91FF9086
:1028C000EF90DF90CF90BF90AF909F908F90089542
:1028D000CF93DF93FC01EB01828188836381748154
:1028E000DB01FD0101900020E9F73197EA1BFB0BAA
:1028F000CF01A0E0B0E089839A83AB83BC839E01C3
:102900002B5F3F4FC901AF010E94F23829813A8104
:102910002B5F3F4FC901DF91CF9108956F927F9256
:102920008F929F92AF92BF92CF92DF92FF920F93BE
:102930001F93CF93DF938C01EB01DC0112968C91F6
:102940001297888319821A821B826B0140E024E06F
:1029500030E021C0842F90E0880F991F880F991FC5
:10296000F801A781B085A80FB91F6C9111965C91F1
:10297000119712969C91129713968C91D6016C9395
:1029800011965C93119712969C93129713968C93C1
:102990002C5F3F4F4F5FE4E0F0E0CE0EDF1ED8012A
:1029A00012968C9112974817A8F2FE01E20FF31FBE
:1029B00019968C9180832F5F3F4FDE01A20FB31FCA
:1029C0001C922F5F3F4FDE01A20FB31F1C922F5F9F
:1029D0003F4FDE01A20FB31F1C922F5F3F4F6F01CD
:1029E00040E021C0842F90E0880F991F880F991F25
:1029F000F801A685B785A80FB91F6C9111965C9157
:102A0000119712969C91129713968C91D6016C9304
:102A100011965C93119712969C93129713968C9330
:102A20002C5F3F4F4F5FE4E0F0E0CE0EDF1ED80199
:102A300019968C9119974817A8F2FE01E20FF31F1F
:102A400050968C91509780832F5F3F4FFE01E20F8D
:102A5000F31F10822F5F3F4FFE01E20FF31F108222
:102A60002F5F3F4FFE01E20FF31F10822F5F3F4F9A
:102A7000FF2433C05E01A20EB31E8F2D90E0880F9D
:102A8000991FD8015396ED91FC915497E80FF91FC7
:102A900060817181DB01FD0101900020E9F7319730
:102AA000EA1BFB0B3F0188249924D5016D927D928E
:102AB0008D929C921397A4E0CA2ED12CC20ED31EE5
:102AC0009E012C0D3D1DC901AF010E94F238F50198
:102AD000208131812C0D3D1DF394D80150968C91AD
:102AE0005097F81638F2C901DF91CF911F910F91DD
:102AF000FF90DF90CF90BF90AF909F908F907F908E
:102B00006F900895CF93DF93FC01EB01828188835E
:102B10008381898384818A8385818B8386818C8369
:102B200087818D8380858E8381858F838285888749
:102B30008385898784858A8785858B876685778560
:102B4000DB01FD0101900020E9F73197EA1BFB0B47
:102B5000CF01A0E0B0E08C879D87AE87BF879E0144
:102B6000205F3F4FC901AF010E94F2382C853D859F
:102B7000205F3F4FC901DF91CF9108950F931F93BD
:102B8000CF93DF93EC018B0102960E9482159C018A
:102B90005A894B899C898D89F801E20FF31F508374
:102BA0004183928383832C5F3F4F5E894F89988D49
:102BB000898DF801E20FF31F508341839283838351
:102BC0002C5F3F4F5A8D4B8D9C8D8D8DF801E20F00
:102BD000F31F50834183928383832C5F3F4F5E8D2D
:102BE0004F8D98A189A1F801E20FF31F5083418313
:102BF000928383832C5F3F4F5AA14BA19CA18DA14F
:102C0000F801E20FF31F50834183928383832C5F8B
:102C10003F4F5EA14FA198A589A5F801E20FF31FD0
:102C200050834183928383832C5F3F4F5AA54BA5EA
:102C30009CA58DA5F801E20FF31F50834183928379
:102C400083832C5F3F4F5EA54FA598A989A9F80102
:102C5000E20FF31F50834183928383832C5F3F4FA6
:102C6000C901DF91CF911F910F9108950F931F9389
:102C7000CF93DF93EC018B0102960E9482159C0199
:102C80005A894B899C898D89F801E20FF31F508383
:102C90004183928383832C5F3F4F5E894F89988D58
:102CA000898DF801E20FF31F508341839283838360
:102CB0002C5F3F4FC901DF91CF911F910F91089574
:102CC0000F931F93CF93DF93EC018B0102960E9429
:102CD00082159C015A894B899C898D89F801E20FE4
:102CE000F31F50834183928383832C5F3F4F5E8920
:102CF0004F89988D898DF801E20FF31F508341832E
:102D0000928383832C5F3F4F5A8D4B8D9C8D8D8D8D
:102D1000F801E20FF31F50834183928383832C5F7A
:102D20003F4F5E8D4F8D98A189A1F801E20FF31FEF
:102D300050834183928383832C5F3F4F5AA14BA1E1
:102D40009CA18DA1F801E20FF31F50834183928370
:102D500083832C5F3F4F5EA14FA198A589A5F80101
:102D6000E20FF31F50834183928383832C5F3F4F95
:102D70005AA54BA59CA58DA5F801E20FF31F508322
:102D80004183928383832C5F3F4F5EA54FA598A913
:102D900089A9F801E20FF31F508341839283838353
:102DA0002C5F3F4F5AA94BA99CA98DA9F801E20FAE
:102DB000F31F50834183928383832C5F3F4F5EA92F
:102DC0004FA998AD89ADF801E20FF31F50834183FD
:102DD000928383832C5F3F4FC901DF91CF911F9175
:102DE0000F9108950F931F93CF93DF93EC018B0105
:102DF00002960E9482159C015A894B899C898D8973
:102E0000F801E20FF31F50834183928383832C5F89
:102E10003F4F5E894F89988D898DF801E20FF31F2E
:102E200050834183928383832C5F3F4FC901DF919D
:102E3000CF911F910F9108950F931F93CF93DF931D
:102E4000EC018B016A817B81DB01FD010190002097
:102E5000E9F73197EA1BFB0B9F0140E050E0D801F6
:102E60002D933D934D935D93CD01AF010E94F238B8
:102E7000F801208131812C5F3F4FE20FF31F8C81DD
:102E800080838D8181838E8182838F8183832C5F78
:102E90003F4FF801E20FF31F888580838985818386
:102EA0008A8582838B8583832C5F3F4FC901DF91A5
:102EB000CF911F910F9108956F927F928F929F9261
:102EC000AF92BF92CF92DF92EF92FF920F931F9338
:102ED000CF93DF93EC015B01DB010C918A818017BA
:102EE00060F4602F70E0660F771F660F771F8F8189
:102EF00098850E9416388F8398870A83F50160E0D1
:102F000034E0C32ED12C8E010D5F1F4F45C081814F
:102F100090E0A0E0B0E0BA2FA92F982F8827228157
:102F200030E040E050E0A90133272227822B932B89
:102F3000A42BB52B208130E040E050E0822B932B76
:102F4000A42BB52B238130E040E050E0522F4427E2
:102F500033272227822B932BA42BB52B8B839C8387
:102F6000AD83BE8384E090E0C80ED91E862F90E02A
:102F7000880F991F880F991F2F813885280F391FB7
:102F8000D8016D907D908D909C90D9016D927D922D
:102F90008D929C9213976F5F34968A81681708F41C
:102FA000B6CF85010C0D1D1DF8018080898588151F
:102FB00060F4682D70E0660F771F660F771F8E85AF
:102FC0009F850E9416388E879F8784E090E0C80E08
:102FD000D91E8986F80160E08E01065F1F4F45C04B
:102FE000208130E040E050E0818190E0A0E0B0E05E
:102FF000BA2FA92F982F8827822B932BA42BB52B80
:10300000228130E040E050E0A90133272227282B1D
:10301000392B4A2B5B2B838190E0A0E0B0E0B82FE6
:10302000AA2799278827822B932BA42BB52B8A8735
:103030009B87AC87BD87A4E0B0E0CA0EDB1E862F5D
:1030400090E0880F991F880F991F2E853F85280FC4
:10305000391FD8016D907D908D909C90D9016D9213
:103060007D928D929C9213976F5F34968985681735
:1030700008F4B6CFF501EC0DFD1D0081888980179D
:1030800050F4602F70E0660F771F8B899C890E9437
:1030900016388B8B9C8BF6013496088B7724A1E134
:1030A0008A2E912C8C0E9D1E41C0D501AE0FBF1FE4
:1030B000CD90DD90ED90FC90DF0114963396EA0DF3
:1030C000FB1D8D019D01442737FD4095542F2C0D8C
:1030D0003D1D4E1D5F1D04C0818181930F5F1F4FF9
:1030E000B80180E090E06217730784079507A0F3AA
:1030F000CA0EDB1EC5018C0D9D1D0197FC011082BF
:103100001197AA0DBB1DBA8BA98BF601872D90E0F4
:10311000880F991F2B893C89280F391FD4018D9165
:103120009C91D90111969C938E93739488897816FB
:1031300008F4BBCFCF01DF91CF911F910F91FF908A
:10314000EF90DF90CF90BF90AF909F908F907F9047
:103150006F900895AF92BF92CF92DF92EF92FF925D
:103160000F931F93DF93CF930F920F92CDB7DEB7DC
:103170005C018B01DB01EC90FC0182818E1578F4FF
:103180006CE0FE2DF69FB0011124D5011F968D91A4
:103190009C9150970E941638F5018787908BD50136
:1031A0001296EC92129720E094E0C92ED12C83E085
:1031B000E82EF12CEA0CFB1C3CE01AC0C701298365
:1031C0003A830E94C311C80ED91E29813A81239FD8
:1031D000C0011124D5011F96ED91FC915097E80F85
:1031E000F91FD7018CE00D9001928150E1F72F5F1C
:1031F000F5018281B8016C0D7D1D2817F8F2DB0105
:103200008C9190E0A0E0B0E0218932894389548913
:10321000822B932BA42BB52B818B928BA38BB48BFE
:10322000FB01218130E040E050E0542F432F322F4A
:103230002227282B392B4A2B5B2BD50151962D9316
:103240003D934D935C935497828190E0A0E0B0E071
:10325000DC0199278827822B932BA42BB52BF50112
:10326000818B928BA38BB48BFB01238130E040E0F8
:1032700050E0522F442733272227282B392B4A2B63
:103280005B2BD50151962D933D934D935C935497B1
:1032900096012C5F3F4FC9010F900F90CF91DF91A6
:1032A0001F910F91FF90EF90DF90CF90BF90AF9064
:1032B0000895DF92EF92FF920F931F93CF93DF93C6
:1032C000EC018B0102960E94AA187C01F801E80F1C
:1032D000F91FD0808F898D1540F4898D9A8D6D2DC1
:1032E00070E00E941638898F9A8F97012C5F3F4FAC
:1032F000DF8A020F131F40E0CE01489610C0D801AC
:103300006D918D01588D562B588F2F5F3F4FE98D52
:10331000FA8DE40FF11DDC015C9150834F5F5F89F2
:10332000451768F3C901DF91CF911F910F91FF906D
:10333000EF90DF9008950F931F93CF93DF93EC01ED
:103340008C010A5F1F4FC8010E945919E9A1FAA117
:10335000C8011995DF91CF911F910F9108950F9397
:103360001F93CF93DF938C01C0E0D0E0D801579634
:103370008C915797C817B0F4C230D10599F0CE019F
:10338000880F991F8C0F9D1F5996ED91FC915A97AC
:10339000EC0FFD1F6081885F984F70E00E94C4337E
:1033A0002196E4CFDF91CF911F910F910895CF9394
:1033B000DF93FC01AB0186819781EC01A881B98183
:1033C00064817581ED91FC911995DF91CF910895FC
:1033D000FC014281538164817581808191810E94C9
:1033E000322D089582E590E10E949B310895CF939C
:1033F000DF93C9EBD6E0CE0160E24FE00E94D1013D
:10340000CE0163E240E20E94D101DF91CF910895A5
:103410000F931F93CF93DF9389EB96E00E94F70100
:103420006091B9067091BA068091BB069091BC0676
:103430000E94CC39EB0170936C0660936B0660912F
:10344000BD067091BE068091BF069091C0060E9495
:10345000CC398B0170936E0660936D066091C10646
:103460007091C2068091C3069091C4060E94CC3927
:103470009B017093700660936F0680917706909120
:103480007806C81BD90B4091390550913A05C49F65
:10349000C001C59F900DD49F900D11249093840678
:1034A000809383068091790690917A06081B190B08
:1034B00040913B0550913C05049FC001059F900D34
:1034C000149F900D11249093860680938506809119
:1034D0007B0690917C06281B390B40913D0550914D
:1034E0003E05249FC001259F900D349F900D11240F
:1034F0009093880680938706DF91CF911F910F915B
:103500000895CF93DF93C5ECD6E0CE0160E247E2A9
:103510000E94AB02CE0163E240E30E94AB02DF9166
:10352000CF9108950F931F93CF93DF9385EC96E08F
:103530000E9453036091C5067091C6068091C7062C
:103540009091C8060E94CC39EB017093720660938B
:1035500071066091C9067091CA068091CB06909160
:10356000CC060E94CC398B0170937406609373066D
:103570006091CD067091CE068091CF069091D006D5
:103580000E94CC399B0170937606609375068091FA
:103590007D0690917E06C81BD90B40913F05509146
:1035A0004005C49FC001C59F900DD49F900D11246C
:1035B00090938A068093890680917F069091800679
:1035C000081B190B4091410550914205049FC00111
:1035D000059F900D149F900D112490938C0680935D
:1035E0008B068091810690918206281B390B4091B1
:1035F000430550914405249FC001259F900D349FA1
:10360000900D112490938E0680938D06DF91CF91BB
:103610001F910F910895CF93DF93C5ECD6E0CE01B3
:1036200063E042E00E940204CE0162E040E00E94BA
:10363000D102DF91CF9108950F931F93CF93DF9322
:1036400084EE9FE040E052EC61E070E00E94322D99
:103650008DE061E00E94AF300E94F2198DE060E0E1
:103660000E94D33066E970E080E090E00E94752F00
:103670000E94811A0E940B1B0E94F71964E170E0FE
:1036800080E090E00E94752F00E210E00E94081A8E
:103690000E94921AABE6B6E0C7E7D6E0FE012D9194
:1036A0003D9180819181820F931F8193919386E058
:1036B000A737B807A1F764E170E080E090E00E94CE
:1036C000752F0150104011F720E230E08881998178
:1036D000B9010E94493B6993799386E0C338D807C2
:1036E000A9F7409143055091440520E03FEF429FE8
:1036F000C001439F900D529F900D1124209181068F
:1037000030918206820F931F9093820680938106E8
:103710008DE061E00E94D3300E94412F60936706E4
:10372000709368068093690690936A061092B806B3
:103730001092B706DF91CF911F910F910895CF930B
:10374000DF93EC010E946004CE0105960E94653370
:10375000CE0108960E946533DF91CF9108950F93B3
:103760001F93CF93DF93EC018130910509F069C17C
:1037700085EC96E00E94750283E097E00E949F1B13
:103780008FE697E063E370E041E150E025E330E04D
:1037900004E310E00E94200887E797E066EA7FE0F4
:1037A00020E036E940E050E00E94AB0489E797E072
:1037B0006AE240E00E94F2088AE595E090937F0774
:1037C00080937E0787E89FE090938107809380072E
:1037D00080E091EEA0E0B0E08093820790938307B1
:1037E000A0938407B09385071092000C88E895E0B9
:1037F00090930F0C80930E0CE0EBF5E0F093240C0B
:10380000E093230C83EB94E09093280C8093270C97
:1038100083E29CE090932A0C8093290C1092300C48
:1038200010922F0C8CEB95E09093320C8093310C1E
:1038300088EC95E09093340C8093330C1092390C03
:1038400010923A0C10923B0C10923C0C10923D0CD2
:1038500010923E0C10923F0C1092400C2BEB34E077
:103860003093640C2093630C21E33CE03093660CAE
:103870002093650C10926C0C10926B0C24ED35E0CB
:1038800030936E0C20936D0C9093700C80936F0CA2
:103890001092750C1092760C1092770C1092780C96
:1038A0001092790C10927A0C10927B0C10927C0C76
:1038B00024EC34E03093880C2093870C2DE63CE018
:1038C00030938A0C2093890C1092900C10928F0CDC
:1038D00020EE35E03093920C2093910C9093940C51
:1038E0008093930C1092990C10929A0C10929B0C4E
:1038F00010929C0C10929D0C10929E0C10929F0C9A
:103900001092A00C22ED34E03093CC0C2093CB0C21
:1039100021E93CE03093CE0C2093CD0C1092D40CD6
:103920001092D30C6CEE75E07093D60C6093D50CAE
:1039300048EF55E05093D80C4093D70C24E036E084
:103940003093DB0C2093DA0CAAEDB4E0B093F10CC9
:10395000A093F00CA5EDBCE0B093F30CA093F20C97
:103960001092F90C1092F80CA0E1B6E0B0930C0D97
:10397000A0930B0DACE1B6E0B093120DA093110D26
:103980009093140D8093130D1092190D10921A0D2F
:1039900010921B0D10921C0D10921D0D10921E0DF9
:1039A00010921F0D1092200D80E493E190932C0D46
:1039B00080932B0DD0932E0DC0932D0D86EE94E0A9
:1039C0009093100D80930F0D88E296E09093300D48
:1039D00080932F0DF093360DE093350D86E793E13C
:1039E00090933A0D8093390DD0933C0DC0933B0DCD
:1039F0008CEE94E09093340D8093330D84E396E045
:103A000090933E0D80933D0D7093440D6093430D54
:103A10005093460D4093450D3093490D2093480D2A
:103A20008FEA99E190935F0D80935E0DD093610DC5
:103A3000C093600D83EF94E09093420D8093410D0D
:103A400006C0009721F487E797E00E94B404DF9155
:103A5000CF911F910F9108952091030D3091040D86
:103A60004091050D5091060D211531054105510577
:103A700041F487E797E060E821E030E040E050E083
:103A800003C087E797E060E80E9433062091070DA6
:103A90003091080D4091090D50910A0D2115310505
:103AA0004105510541F487E797E060E821E030E007
:103AB00040E050E003C087E797E060E80E945D06C1
:103AC00087E797E00E94B504DC01ED91FC91028448
:103AD000F385E02D199508958F929F92AF92BF9232
:103AE000CF92DF92EF92FF920F931F93CF93DF93CA
:103AF000CFE6D7E0CE016FE770E00E94E608CE0186
:103B00006FE770E00E94E608CE016FE770E00E9468
:103B1000E608CE016FE770E00E94E60860914A0770
:103B200070914B0780914C0790914D0720E030EC4D
:103B30004FE754E40E94B33A0E94CC396B017C01F8
:103B400060914E0770914F078091500790915107F7
:103B500020E030EC4FE754E40E94B33A0E94CC39A5
:103B60004B015C016091520770915307809154079B
:103B70009091550720E030EC4FE754E40E94B33AAF
:103B80000E94CC398B019C01CE01B601A4019801A1
:103B90000E94B70860913E0770913F0780914007EF
:103BA0009091410720E030EC4FE754E40E94B33A93
:103BB0000E94CC396B017C016091420770914307F0
:103BC000809144079091450720E030EC4FE754E4A2
:103BD0000E94B33A0E94CC394B015C0160914607C8
:103BE00070914707809148079091490720E030EC99
:103BF0004FE754E40E94B33A0E94CC398B019C01F8
:103C0000CE01B601A40198010E94B7086091560741
:103C100070915707809158079091590720E030EC38
:103C20004FE754E40E94B33A0E94CC396B017C0107
:103C300060915A0770915B0780915C0790915D07D6
:103C400020E030EC4FE754E40E94B33A0E94CC39B4
:103C50004B015C0160915E0770915F078091600786
:103C60009091610720E030EC4FE754E40E94B33AB2
:103C70000E94CC398B019C01CE01B601A4019801B0
:103C80000E94B70860916207709163078091640792
:103C90009091650720E030EC4FE754E40E94B33A7E
:103CA0000E94CC396B017C016091660770916707B7
:103CB000809168079091690720E030EC4FE754E469
:103CC0000E94B33A0E94CC394B015C0160916A07B3
:103CD00070916B0780916C0790916D0720E030EC3C
:103CE0004FE754E40E94B33A0E94CC398B019C0107
:103CF000CE01B601A40198010E94B708DF91CF91CF
:103D00001F910F91FF90EF90DF90CF90BF90AF90F9
:103D10009F908F900895CF92DF92EF92FF920F9332
:103D20001F93DF93CF93CDB7DEB760970FB6F894AC
:103D3000DEBF0FBECDBF6C010E94412F28EE33E0E5
:103D400040E050E00E945C3B7B018C01F6018485E1
:103D50009585A685B785820F931FA41FB51F8983FC
:103D60009A83AB83BC83C801B70120E432E44FE0FF
:103D700050E00E94163BF60120893189428953891F
:103D8000620F731F841F951F6D837E838F839887B7
:103D90007E010894E11CF11CC701BE016B5F7F4FDF
:103DA0000E943901DE011996F70188E001900D9219
:103DB0008150E1F729853A854B855C856D857E8547
:103DC0008F85988960960FB6F894DEBF0FBECDBF81
:103DD000CF91DF911F910F91FF90EF90DF90CF90E7
:103DE0000895EF92FF920F931F93CF93DF938091EB
:103DF000FA0C9091FB0CA091FC0CB091FD0C01967B
:103E0000A11DB11D8093FA0C9093FB0CA093FC0CA8
:103E1000B093FD0C80916E078093250C87E29CE0A7
:103E200063E27CE00E94D7190BE415E010937E0C4E
:103E300000937D0CC5E7DCE08EE797E00E948B1EC7
:103E40002093750C39834A835B836C837D838E83D7
:103E50009F838091FA0C9091FB0CA091FC0CB09187
:103E6000FD0C8093710C9093720CA093730CB09323
:103E7000740C83E097E00E94750460937F0C70934C
:103E8000800C8093810C9093820C83E097E00E94D9
:103E900090046093830C7093840C8093850C9093B2
:103EA000860C87E89CE0BE01685070400E94D719DC
:103EB0001093A20C0093A10CC9E9DCE08EE797E017
:103EC0000E948B1E2093990C39834A835B836C83F9
:103ED0007D838E839F838091FA0C9091FB0CA0913F
:103EE000FC0CB091FD0C8093950C9093960CA093D4
:103EF000970CB093980C8091AB069091AC06A09172
:103F0000AD06B091AE068093A30C9093A40CA09341
:103F1000A50CB093A60C8091AF069091B006A0912D
:103F2000B106B091B2068093A70C9093A80CA09311
:103F3000A90CB093AA0C8091B3069091B406A091FD
:103F4000B506B091B6068093AB0C9093AC0CA093E1
:103F5000AD0CB093AE0C80919F069091A006A091FD
:103F6000A106B091A2068093AF0C9093B00CA093E1
:103F7000B10CB093B20C8091A3069091A406A091CD
:103F8000A506B091A6068093B30C9093B40CA093B1
:103F9000B50CB093B60C8091A7069091A806A0919D
:103FA000A906B091AA068093B70C9093B80CA09381
:103FB000B90CB093BA0C60919306709194068091FD
:103FC00095069091960623EC35EF4CE151E40E9462
:103FD000B33A2CE639E049E75BE30E94B33A6093D9
:103FE000BB0C7093BC0C8093BD0C9093BE0C609185
:103FF0009706709198068091990690919A0623EC05
:1040000035EF4CE151E40E94B33A2CE639E049E740
:104010005BE30E94B33A6093BF0C7093C00C809333
:10402000C10C9093C20C60919B0670919C0680918C
:104030009D0690919E0623EC35EF4CE151E40E94E1
:10404000B33A2CE639E049E75BE30E94B33A609368
:10405000C30C7093C40C8093C50C9093C60C8091D4
:104060008F0690919006A0919106B0919206809350
:10407000C70C9093C80CA093C90CB093CA0C8BECDE
:104080009CE0BE01685070400E94D71980916E0775
:10409000882309F4AEC0C091EE0CD091EF0C88E0FB
:1040A00097E00E9447348883C091EE0CD091EF0CCA
:1040B0008BE097E00E944734898380EF9CE065EDB8
:1040C0007CE00E94D7191093420C0093410CC9E385
:1040D000DCE08EE797E00E948B1E2093390C398339
:1040E0004A835B836C837D838E839F838091FA0CEC
:1040F0009091FB0CA091FC0CB091FD0C8093350CC1
:104100009093360CA093370CB093380CE0901A07BC
:10411000F0901B0700911C0710911D07609122076A
:104120007091230780912407909125070E94FF3901
:10413000A80197010E94B33A6093430C7093440C1A
:104140008093450C9093460C80911E0790911F0719
:10415000A0912007B091210780934B0C90934C0CB9
:10416000A0934D0CB0934E0CE0925B0CF0925C0C63
:1041700000935D0C10935E0CE0903207F0903307D3
:10418000009134071091350760913A0770913B0711
:1041900080913C0790913D070E94FF39A80197014B
:1041A0000E94B33A6093470C7093480C8093490C7B
:1041B00090934A0C8091360790913707A091380769
:1041C000B091390780934F0C9093500CA093510CF1
:1041D000B093520CE0925F0CF092600C0093610C73
:1041E0001093620C83E69CE0BE01685070400E9410
:1041F000D719DF91CF911F910F91FF90EF90089504
:10420000DB01FC01EC5EFB4F20E030E0419151917D
:1042100041155105A9F4F901E65FFD4FEE0FFF1FAF
:10422000E80FF91FB183A08323583F4F15963C93A5
:104230002E93149717969C938E93169781E008956A
:104240002F5F3F4F2931310509F780E00895FC01C8
:10425000EA5BFB4F20E030E041915191411551055F
:1042600081F4F901ED5DFD4FEE0FFF1FE80FF91F1F
:10427000718360832C593F4FFB013383228381E09C
:1042800008952F5F3F4F2931310531F780E00895C0
:10429000FC01EA5BFB4F20E030E041915191411578
:1042A000510581F4F901ED5DFD4FEE0FFF1FE80FA1
:1042B000F91F718360832C593F4FFB0133832283A5
:1042C00081E008952F5F3F4F2931310531F780E0BC
:1042D0000895FC01EA5BFB4F20E030E041915191F1
:1042E0004115510581F4F901ED5DFD4FEE0FFF1F02
:1042F000E80FF91F718360832C593F4FFB01338313
:10430000228381E008952F5F3F4F2931310531F736
:1043100080E008950F931F93DF93CF93CDB7DEB75F
:104320002A970FB6F894DEBF0FBECDBF8C0180E791
:1043300095E09A8389831B821C821D821E821F82C4
:10434000188619861A86D801ED91FC910190F081AA
:10435000E02DC8016AE070E0AE014F5F5F4F199534
:104360000E94412FF80160877187828793872A9680
:104370000FB6F894DEBF0FBECDBFCF91DF911F9176
:104380000F9108954F925F926F927F928F929F92BA
:10439000AF92BF92CF92DF92EF92FF920F931F9353
:1043A000DF93CF93CDB7DEB72E970FB6F894DEBF6D
:1043B0000FBECDBF8C01FC01EE57FB4F81E0808327
:1043C00084E695E09A83898354E1E52E54E0F52E46
:1043D000E00EF11E46E4642E44E0742E600E711E61
:1043E000812C32E0932EA12CB12C6E010894C11CBB
:1043F000D11CD701ED91FC9111973097A9F18481DF
:1044000095819C838B83808191819E838D83828122
:104410009381DC01ED91FC910480F581E02D1995EB
:1044200098878F83D701ED91FC9182819381DC0184
:10443000ED91FC910680F781E02D19959A87898787
:104440008B869C86AD86BE86F80180819181F701BE
:10445000A081B18118966D917C911997DC01ED9145
:10446000FC91C801A6011995E2E0F0E0EE0EFF1EF6
:10447000E614F70409F0BDCF26E4E22E24E0F22E84
:10448000E00EF11E98E7492E94E0592E400E511E81
:10449000812C82E0982EA12CB12C6E010894C11CB5
:1044A000D11CF701A081B1811097D1F112968D91A5
:1044B0009C9113979C838B8314968D919C91159757
:1044C0009E838D83ED91FC9111970480F581E02D01
:1044D000CD01199598878F83D7018D919C91DC012F
:1044E000ED91FC910680F781E02D19959A878987D7
:1044F0008B869C86AD86BE86D801ED91FC9160804E
:104500007180F70180819181DC01ED91FC91028045
:10451000F381E02D1995BC01C801A601F30119959D
:10452000E2E0F0E0EE0EFF1EE414F50409F0B9CF6E
:104530002E960FB6F894DEBF0FBECDBFCF91DF91A0
:104540001F910F91FF90EF90DF90CF90BF90AF90B1
:104550009F908F907F906F905F904F900895CF9233
:10456000DF92EF92FF920F931F93CF93DF93EC01B3
:104570006B010E94412FF601E080F18002811381DE
:104580000894E108F1080109110928EE33E040E040
:1045900050E00E945C3BE21AF30A040B150BEC8618
:1045A000FD860E871F87F601E480F580068117815E
:1045B00020E03AEC4AE95BE3E20EF31E041F151F0C
:1045C00020E432E44FE050E00E94163BE61AF70A7E
:1045D000080B190BE88AF98A0A8B1B8BBE01605FF6
:1045E0007F4FCE010C960E943901DF91CF911F9130
:1045F0000F91FF90EF90DF90CF900895AF92BF9210
:10460000CF92DF92EF92FF920F931F93DF93CF939E
:10461000CDB7DEB72A970FB6F894DEBF0FBECDBF79
:104620005C016B0180E795E09A8389831B821C8281
:104630001D821E821F82188619861A860E94412FAB
:104640007B018C01F50180859185A285B385E81AEF
:10465000F90A0A0B1B0BCE010196B6010E940A0A49
:10466000C801B70128EE33E040E050E00E945C3B17
:104670007B018C018B819C81AD81BE81820F931F58
:10468000A41FB51F8B839C83AD83BE83C801B70174
:1046900020E432E44FE050E00E94163B9B01AC0165
:1046A0008F819885A985BA85820F931FA41FB51F96
:1046B0008F839887A987BA87C501BE016D5F7F4F39
:1046C0000E94AF220E94412FF501E957FB4F608302
:1046D0007183828393832A960FB6F894DEBF0FBE50
:1046E000CDBFCF91DF911F910F91FF90EF90DF90A1
:1046F000CF90BF90AF9008952F923F924F925F92CC
:104700006F927F928F929F92AF92BF92CF92DF92E1
:10471000EF92FF920F931F93DF93CF93CDB7DEB746
:104720002C970FB6F894DEBF0FBECDBF9C878B874A
:104730000E94412F6B017C01EB85FC85E957FB4F03
:1047400080819181A281B381A7019601281B390B39
:104750004A0B5B0BDA01C901893F3AE2930730E06B
:10476000A30730E0B30728F0EB85FC85EE57FB4F3D
:104770001082EB85FC85E858FB4F80819181009782
:1047800081F0AB85BC85A557BB4F8D919D910D9058
:10479000BC91A02D8C159D05AE05BF0510F41182AE
:1047A000108290E8692E94E0792E4B855C85640E2A
:1047B000751E8A0108581B4F8CE7882E84E0982EBE
:1047C000840E951EB4E14B2E512C440E551E4057BD
:1047D0005B4F5A8349838B859C8581579B4F9C8374
:1047E0008B83AAE7AA2EA4E0BA2EAB85BC85AA0EBD
:1047F000BB1EFEE72F2EF4E03F2E2A0E3B1EA557D0
:10480000BB4FBE83AD83A70196012C5E3F4F4F4F38
:104810005F4F2F83388749875A87C8010B851C85CE
:104820009C878B87D80112968D919C911397DC0100
:10483000ED91FC910680F781E02D19959C0197FD83
:10484000FCC0F30180819181820F931F918380834B
:10485000AB85BC854D915C91119746305105B9F4FB
:10486000F10180819181F801E80FF91F248B0196F5
:10487000D10111969C938E93F501808191810197CE
:1048800091838083009771F6E7E0F0E04AC041151C
:104890005105A9F42F3F310529F6E1E0F0E0AB85A1
:1048A000BC85ED93FC932F81388549855A85AD8170
:1048B000BE812D933D934D935C931397B3CF4130BD
:1048C000510581F42F3F310539F422E030E0EB85CA
:1048D000FC8531832083A6CFAB85BC8511961C92C5
:1048E0001E92A0CF4230510571F4F4013183208330
:1048F000E3E0F0E0AB85BC85ED93FC93D30111962A
:104900003C932E938FCF4330510589F4322F2227C9
:10491000F40180819181280F391F31832083E4E0E5
:10492000F0E0AB85BC851196FC93EE937BCF4430D1
:10493000510551F4D50111963C932E93F10111824A
:104940001082E5E0F0E0EDCF45305105D1F4322F93
:104950002227D5018D919C911197280F391F11960F
:104960003C932E9346E050E0EB85FC8551834083D9
:104970002115310509F056CF87E090E091838083BF
:1049800051CF4730510509F04DCFAB85BC8511960D
:104990001C921E9260E071E00E94493B8F3F91059E
:1049A00009F040CFD401ED91FC9111973097E1F4DB
:1049B0001C870B87C8010E948A218B859C850E94D9
:1049C000C221EB85FC85ED57FB4FC082D182E2828C
:1049D000F382EB85FC85E957FB4FC082D182E282EE
:1049E000F3822FEF3FEF54C0EA30F10529F4C801FC
:1049F000B2010E94FE2216CFE630F10551F4898102
:104A00009A81B2010E945C1721E0EB81FC81208336
:104A100009CFE154FE4FEE0FFF1FE00FF11F808121
:104A20009181009709F4FECEDC01ED91FC9101909B
:104A3000F081E02DB2011995F5CE1C870B87F801A6
:104A4000EE57FB4F8081882309F10D571B4FF8016A
:104A500080819181A281B381A7019601281B390B26
:104A60004A0B5B0BDA01C901853C39E0930730E062
:104A7000A30730E0B30750F08B859C850E948A2104
:104A8000D801CD92DD92ED92FC92139720E030E0B8
:104A9000C9012C960FB6F894DEBF0FBECDBFCF91E3
:104AA000DF911F910F91FF90EF90DF90CF90BF901B
:104AB000AF909F908F907F906F905F904F903F90BE
:104AC0002F9008952F923F924F925F926F927F9214
:104AD0008F929F92AF92BF92CF92DF92EF92FF920E
:104AE0000F931F93DF93CF930F920F92CDB7DEB743
:104AF0000E94A62F0E941C1B80E990EDA3E0B0E06D
:104B00008093820790938307A0938407B0938507CF
:104B100080E897E00E94E8191092F70B1092F60BCC
:104B20001092F90B1092F80B1092FD0B1092FC0BE7
:104B30001092FB0B1092FA0B8EE797E067E27CE095
:104B40000E9400218EE797E063E67CE00E9400214E
:104B50008EE797E067E87CE00E9400218EE797E00F
:104B60006BEC7CE00E94002182E090E00E94E33642
:104B70008093EE0C9093EF0C82E08093EC0C8EE728
:104B800097E060EF7CE00E9400218EE797E06FE203
:104B90007DE00E9427218EE797E06BE07DE00E9498
:104BA00048218EE797E06DE37DE00E946921E12CCA
:104BB000F12C71E0072F112DE0920E07F0920F07F4
:104BC000009310071093110720E030E840E050E018
:104BD000209312073093130740931407509315073F
:104BE00080E090E4A0E0B0E0809316079093170770
:104BF000A0931807B09319070F2EF9ED6F2EF2E569
:104C00007F2EF0E08F2EF9E39F2EF02D60921A0791
:104C100070921B0780921C0790921D07E092260756
:104C2000F0922707009328071093290720932A075B
:104C300030932B0740932C0750932D0780932E071A
:104C400090932F07A0933007B093310760923207FB
:104C500070923307809234079092350703E017E093
:104C6000C80160E070E04AE02BE00E94300410923E
:104C70006E071092030D1092040D1092050D109204
:104C8000060D1092070D1092080D1092090D10924A
:104C90000A0D2AE939E949E95EE320934A0730938E
:104CA0004B0740934C0750934D0780E090E0DC01A8
:104CB00080934E0790934F07A0935007B0935107EE
:104CC0008093520790935307A0935407B0935507CE
:104CD000209356073093570740935807509359072E
:104CE00080935A0790935B07A0935C07B0935D078E
:104CF00080935E0790935F07A0936007B09361076E
:104D0000F80123AF34AF45AF56AF8093420790937D
:104D10004307A0934407B0934507809346079093B9
:104D20004707A0934807B093490720936207309341
:104D300063074093640750936507809366079093D9
:104D40006707A0936807B093690780936A079093F9
:104D50006B07A0936C07B0936D070E946C1D1092B7
:104D6000FF061092000710920107109202078DE0D3
:104D700061E00E94AF3087E797E060E840E050E0F4
:104D800020E030E00E94090687E797E060E840E015
:104D90000E941D0587E797E060E840E00E94F50467
:104DA00000D00F92209116073091170740911807F5
:104DB00050911907E0900E07F0900F07009110072F
:104DC00010911107A0901207B0901307C09014071C
:104DD000D090150766E8662E64E2762E812C912C21
:104DE000ADB7BEB711966D927D928D929C9214973D
:104DF00087E797E060E80E94450520912E073091F3
:104E00002F074091300750913107E0902607F0902E
:104E100027070091280710912907A0902A07B09032
:104E20002B07C0902C07D0902D07EDB7FEB76182FD
:104E300072828382948287E797E060E80E94A705E8
:104E40000F900F900F900F900F2EF0E02F2EF0E0AC
:104E50003F2EF0E84F2EFFE35F2EF02D0F2EF0E0F7
:104E60006F2EF0E07F2EF0E08F2EF0E09F2EF02DE1
:104E70000E94412F6093FB067093FC068093FD0611
:104E80009093FE0680916E07882309F46CC089E731
:104E900097E00E94E409882309F082C089E797E03F
:104EA0000E94A20987E797E060E840E00E941D05A4
:104EB00087E797E060E840E00E94F50400D00F9299
:104EC0002091160730911707409118075091190744
:104ED000E0900E07F0900F07009110071091110756
:104EE000A0901207B0901307C0901407D090150738
:104EF00086E894E2A0E0B0E0EDB7FEB7818392834C
:104F0000A383B48387E797E060E80E94450520917A
:104F10002E0730912F074091300750913107E090D4
:104F20002607F09027070091280710912907A090E5
:104F30002A07B0902B07C0902C07D0902D0786E849
:104F400094E2A0E0B0E0EDB7FEB781839283A38343
:104F5000B48387E797E060E80E94A7050F900F9061
:104F60000F900F901DC089E797E00E94C30987E763
:104F700097E060E840E050E020E030E00E94090661
:104F80001092030D1092040D1092050D1092060D53
:104F90001092070D1092080D1092090D10920A0D33
:104FA0002091F7063091F8064091F9065091FA06E3
:104FB0008091FB069091FC06A091FD06B091FE0643
:104FC00082179307A407B50708F470C087E797E036
:104FD00060E8AE014F5F5F4F9E012E5F3F4F0E9422
:104FE000A50760931E0770931F0780932007909377
:104FF000210787E797E060E8AE014F5F5F4F9E01B2
:105000002E5F3F4F0E949A076093360770933707D1
:10501000809338079093390787E797E060E8AE01FF
:105020004F5F5F4F9E012E5F3F4F0E948F0760933F
:10503000220770932307809324079093250787E71F
:1050400097E060E8AE014F5F5F4F9E012E5F3F4FDC
:105050000E94840760933A0770933B0780933C0754
:1050600090933D0780916E07882319F00E942C1DB4
:1050700009C087E797E060E840E050E020E030E0DA
:105080000E9409068091F7069091F806A091F90612
:10509000B091FA068C599F4FAF4FBF4F8093F706E0
:1050A0009093F806A093F906B093FA062091FE0CAF
:1050B0003091FF0C4091000D5091010D8091FB0645
:1050C0009091FC06A091FD06B091FE068217930711
:1050D000A407B507D0F00E94F11E8DE06091000C8E
:1050E0000E94D3308091FE0C9091FF0CA091000D96
:1050F000B091010D8896A11DB11D8093FE0C909377
:10510000FF0CA093000DB093010D2091FF0630918C
:10511000000740910107509102078091FB06909192
:10512000FC06A091FD06B091FE0682179307A40726
:10513000B50708F411C1E090630DF090640D009183
:10514000650D1091660DC801B7012AE939E949E9F1
:105150005EE30E94AF3A87FD03C01092620D0CC05F
:10516000C801B70120E030E0A9010E94603918169B
:105170001CF0F1E0F093620D8091620D882329F01C
:105180002AE037ED43E25CE304C02AE037ED43E276
:105190005CEBC801B7010E94FC38A72FF82FE92F5C
:1051A000262F372F482F592F2093630D3093640DEE
:1051B0004093650D5093660D20916E07222309F0F0
:1051C00056C0262F20934A0730934B0740934C0735
:1051D00050934D0760924E0770924F078092500790
:1051E0009092510760925207709253078092540731
:1051F00090925507209356073093570740935807CE
:105200005093590760925A0770925B0780925C072F
:1052100090925D0760925E0770925F0780926007D0
:105220009092610720933E0730933F0740934007D9
:10523000509341076092420770924307809244075F
:105240009092450760924607709247078092480700
:1052500090924907862F9A2FAF2FBE2F8093620717
:1052600090936307A0936407B093650750C02092A2
:105270004A0730924B0740924C0750924D0760927C
:105280004E0770924F0780925007909251072092DC
:10529000520730925307409254075092550720927C
:1052A000560730925707409258075092590760921C
:1052B0005A0770925B0780925C0790925D0720927C
:1052C0005E0730925F07409260075092610720921C
:1052D0003E0730923F07409240075092410720928C
:1052E000420730924307409244075092450720926C
:1052F000460730924707409248075092490720924C
:10530000620730926307409264075092650760928B
:1053100066077092670780926807909269076092AB
:105320006A0770926B0780926C0790926D070E94DB
:105330006C1D8091FF0690910007A0910107B0912C
:1053400002070A96A11DB11D8093FF0690930007E6
:10535000A0930107B09302078091000C882359F4B1
:1053600010926E0787E797E060E840E050E020E0A9
:1053700030E00E9409068EE797E00E947C2385EECC
:105380009BE2009709F474CD0E94E52B71CDDF9369
:10539000CF9300D00F920F92CDB7DEB72CE735E058
:1053A0003A8329836B835D834C83DC01ED91FC910F
:1053B0000190F081E02D67E070E0AE014F5F5F4F3C
:1053C00019950F900F900F900F900F90CF91DF9144
:1053D0000895AB0163E00E94C7290895CF92DF9240
:1053E000EF92FF920F931F93CF93DF93EC01E62E82
:1053F000CA01FE01EE57FB4F2081222309F463C04E
:10540000DA01ED91FC919E01265E3D4F0190F08105
:10541000E02DB9011995FE01EC5EFD4F2FEF2083C1
:10542000FE01EB5EFD4F2083FE01EA5EFD4FE08250
:10543000DE01A95EBD4F1C92DE01A85EBD4F8C93BC
:10544000DE01A75EBD4F1C9242E050E020E030E05C
:10545000BC016B5F7F4F05C0A1912A0F311D4F5FCB
:105460005F4F64177507C4F7FE01E80FF91FE65E8A
:10547000FD4F209520838C01095F1F4FB2E0013062
:105480001B07E4F4E4E1CE2EE2E0DE2ECC0EDD1EBE
:10549000EE24FF240FC08A819B81F60161916F0188
:1054A000DC01ED91FC910190F081E02D19950894BB
:1054B000E11CF11CE016F10674F307C0CE016AEF9F
:1054C00074E00E94E92900E010E0C801DF91CF916B
:1054D0001F910F91FF90EF90DF90CF90089581E0A2
:1054E00090E00E94AF1B089580E090E00E94AF1B07
:1054F0000895FC0184859585FC01E05CFF4F2081C7
:1055000031818E5B9F4FFC0180819181281B390B7B
:105510002F733070C9010895FC0184859585FC01C5
:10552000E05CFF4F40815181FC01EE5BFF4F208129
:1055300031814217530741F00190F081E02DE80FCF
:10554000F91F208130E002C02FEF3FEFC90108951D
:10555000FC0184859585FC01E05CFF4F4081518111
:10556000FC01EE5BFF4F208131814217530771F040
:10557000A081B181A80FB91F2C91808191810196E2
:105580008F7390709183808330E002C02FEF3FEFE4
:10559000C9010895DC011E968D919C911F97FC0115
:1055A000E05CFF4F8E5B9F4F40815181DC012D916C
:1055B0003C91119742175307B9F708951F93FC01C7
:1055C000162F26853785D901A05CBF4F8D919C9100
:1055D000019660E470E00E94493BD901AE5BBF4F89
:1055E0004D915C91119784179507D1F3D901A05C77
:1055F000BF4F0D90BC91A02DA20FB31F1C93A68589
:10560000B785A05CBF4F11969C938E93A689B789EE
:105610002C9181E090E0058C02C0880F991F0A94BC
:10562000E2F7282B2C9381E090E01F910895FB0175
:10563000E05CFF4F208131812F5F3F4F2F7330702F
:10564000DB01AE5BBF4F4D915C911197241735077D
:1056500039F0A081B181A60FB71F8C9331832083CD
:10566000089508951F920F920FB60F920BB60F92E6
:1056700011242F933F934F935F936F937F938F9357
:105680009F93AF93BF93EF93FF938091C60067E61C
:105690007DE00E94172BFF91EF91BF91AF919F91F9
:1056A0008F917F916F915F914F913F912F910F90CB
:1056B0000BBE0F900FBE0F901F90189508951F926C
:1056C0000F920FB60F920BB60F9211242F933F93A8
:1056D0004F935F936F937F938F939F93AF93BF93FA
:1056E000EF93FF938091CE006FEE7DE00E94172B29
:1056F000FF91EF91BF91AF919F918F917F916F91AA
:105700005F914F913F912F910F900BBE0F900FBE65
:105710000F901F90189508951F920F920FB60F9239
:105720000BB60F9211242F933F934F935F936F9378
:105730007F938F939F93AF93BF93EF93FF9380914A
:10574000D60067E77EE00E94172BFF91EF91BF9193
:10575000AF919F918F917F916F915F914F913F9109
:105760002F910F900BBE0F900FBE0F901F901895AA
:1057700008951F920F920FB60F920BB60F9211243D
:105780002F933F934F935F936F937F938F939F9349
:10579000AF93BF93EF93FF93809136016FEF7EE05D
:1057A0000E94172BFF91EF91BF91AF919F918F9125
:1057B0007F916F915F914F913F912F910F900BBE11
:1057C0000F900FBE0F901F90189587E89FE00E94E2
:1057D000792A009711F00E94312B86EA9FE00E94FF
:1057E000792A009711F00E945E2B85EC9FE00E94C1
:1057F000792A009711F00E948B2B84EE9FE00E9483
:10580000792A009711F00E94B82B08951F920F92E9
:105810000FB60F920BB60F9211242F933F935F9305
:105820006F937F938F939F93AF93BF93EF93FF9368
:105830002091EB0D3091EC0D8091ED0D9091EE0DDE
:105840002817390731F48091C1008F7D8093C10002
:1058500016C0E091ED0DF091EE0DE555F24F20816F
:105860008091ED0D9091EE0D019660E470E00E9444
:10587000493B9093EE0D8093ED0D2093C600FF9170
:10588000EF91BF91AF919F918F917F916F915F91B8
:105890003F912F910F900BBE0F900FBE0F901F9056
:1058A00018951F920F920FB60F920BB60F921124FC
:1058B0002F933F935F936F937F938F939F93AF93B8
:1058C000BF93EF93FF932091730E3091740E8091EC
:1058D000750E9091760E2817390731F48091C90022
:1058E0008F7D8093C90016C0E091750EF091760E01
:1058F000ED5CF14F20818091750E9091760E0196AE
:1059000060E470E00E94493B9093760E8093750EA0
:105910002093CE00FF91EF91BF91AF919F918F9116
:105920007F916F915F913F912F910F900BBE0F90E0
:105930000FBE0F901F9018951F920F920FB60F92E7
:105940000BB60F9211242F933F935F936F937F9326
:105950008F939F93AF93BF93EF93FF932091FB0E91
:105960003091FC0E8091FD0E9091FE0E28173907A4
:1059700031F48091D1008F7D8093D10016C0E091E9
:10598000FD0EF091FE0EE554F14F20818091FD0E49
:105990009091FE0E019660E470E00E94493B909366
:1059A000FE0E8093FD0E2093D600FF91EF91BF91E4
:1059B000AF919F918F917F916F915F913F912F91C7
:1059C0000F900BBE0F900FBE0F901F9018951F9257
:1059D0000F920FB60F920BB60F9211242F933F9395
:1059E0005F936F937F938F939F93AF93BF93EF9347
:1059F000FF932091830F3091840F8091850F9091B8
:105A0000860F2817390731F4809131018F7D8093FB
:105A1000310116C0E091850FF091860FED5BF04FDC
:105A200020818091850F9091860F019660E470E04F
:105A30000E94493B9093860F8093850F20933601F7
:105A4000FF91EF91BF91AF919F918F917F916F9156
:105A50005F913F912F910F900BBE0F900FBE0F9053
:105A60001F901895DF92EF92FF920F931F93CF93A1
:105A7000DF93EC017A018B01DD24D394403081EE79
:105A8000580780E0680780E0780749F4DD24EC8956
:105A9000FD89108260E874E88EE190E00FC0EC8927
:105AA000FD8981E090E00E8C02C0880F991F0A9456
:105AB000E2F7808360E079E08DE390E0A801970150
:105AC0000E945C3B215030404040504056954795E5
:105AD0003795279580E12030380710F0DD20B1F6AA
