:100000000C9404010C94C21E0C94F31E0C94241F37
:100010000C94551F0C94861F0C94B71F0C94E81F6A
:100020000C9419200C9430010C9430010C94300184
:100030000C9430010C9430010C9430010C94FE08A7
:100040000C9430010C9451260C9430010C94300126
:100050000C9430010C9430010C9430010C949320DA
:100060000C9430010C94B5190C9430010C943001AF
:100070000C9430010C9430010C9430010C9430013C
:100080000C9424260C9430010C9430010C94300113
:100090000C94E1190C9430010C9430010C94300153
:1000A0000C9430010C9430010C94F7250C94300121
:1000B0000C9430010C9430010C9430010C94CA253E
:1000C0000C9430010C9430010C9430010C940D1AF6
:1000D0000C9430010C9430010C94391A0C943001BA
:1000E0000C94300100002100240027002A002D007C
:1000F0003000330001010000040107010A01000083
:100100002200250028002B002E00310034000201BF
:100110000000050108010B0100002000230026005B
:1001200029002C002F00320000010000030106010D
:10013000090105050505070508080808020202026D
:100140000A0A080804040404010101010101010173
:100150000303030303030303040707070C0C0C0C3E
:100160000C0C0C0C02020202060606060606060627
:100170000B0B0B0B0B0B0B0B0102102020080810B4
:100180002040102040800201020108040201010207
:1001900004081020408080402010080402018004E0
:1001A000020180402010080402010804020101023B
:1001B0000408102040800102040810204080000044
:1001C000090A02080B0C0D070603040100000000D9
:1001D000000000000000000000000000000000001F
:1001E00000000000000000000000100F0E000000E2
:1001F00000000000000000000000000000000000FF
:10020000000000007010CB1B11241FBECFEFD1E205
:10021000DEBFCDBF00E00CBF13E0A0E0B2E0E8E934
:10022000FEE400E00BBF02C007900D92AE37B107AD
:10023000D9F717E0AEE7B3E001C01D92A039B107CE
:10024000E1F712E0C8E0D2E004C02297FE010E946C
:100250004627C430D107C9F70E944C110C944A2795
:100260000C940000EF92FF920F931F937B018C017F
:1002700020E030E040E05FE40E940E0588238CF02F
:10028000C801B70120E030E040E05FE40E94AA022C
:100290000E94FC059B01AC0120503040404050487A
:1002A00006C0C801B7010E94FC059B01AC01B90161
:1002B000CA011F910F91FF90EF900895A0E0B0E068
:1002C000E4E6F1E00C940D27DC012B01FA019C918E
:1002D000923008F439C1EB018881823008F433C1CF
:1002E000943069F4843009F02FC111969C911197D4
:1002F0008981981709F428C1A0E5B2E025C18430AE
:1003000009F421C18230A9F4923009F01DC19A018B
:10031000AD0188E0EA010990AE01E90109929E0170
:100320008150C1F7E201898111969C9189238183D3
:1003300008C1923009F407C112962D903C90139792
:10034000EB018A819B811496AD90BD90CD90DC909D
:100350001797EC80FD800E811F819101281B390BBE
:10036000B90137FF04C066277727621B730B603221
:1003700071050CF061C0121613066CF537014801C7
:10038000062E04C096948794779467940A94D2F7C3
:1003900021E030E040E050E004C0220F331F441F52
:1003A000551F6A95D2F721503040404050402E21D1
:1003B0003F2140235123211531054105510521F0ED
:1003C00021E030E040E050E079018A01E628F7289A
:1003D000082919293CC0232BD1F1260E371E3501DF
:1003E0004601062E04C096948794779467940A94E5
:1003F000D2F721E030E040E050E004C0220F331F8C
:10040000441F551F6A95D2F721503040404050405C
:100410002A213B214C215D21211531054105510542
:1004200021F021E030E040E050E059016A01A628C7
:10043000B728C828D9280BC0821593052CF01C01B9
:10044000AA24BB24650103C0EE24FF248701119672
:100450009C91D20111968C91981709F445C099236B
:1004600039F0A80197012A193B094C095D0906C01A
:10047000A60195012E193F09400B510B57FD08C0ED
:1004800011823382228224833583468357831DC0A1
:1004900081E081833382228288279927DC01821BB5
:1004A000930BA40BB50B84839583A683B7830DC0F0
:1004B000220F331F441F551F2483358346835783E0
:1004C0008281938101979383828324813581468140
:1004D0005781DA01C9010197A109B1098F5F9F4FC7
:1004E000AF4FBF4328F30BC0918333822282EA0CC3
:1004F000FB1C0C1D1D1DE482F5820683178383E01F
:100500008083248135814681578157FF1AC0C901F4
:10051000AA2797FDA095BA2F81709070A070B07037
:100520005695479537952795822B932BA42BB52B62
:1005300084839583A683B783828193810196938375
:100540008283DF0101C0D201CD01CDB7DEB7E2E188
:100550000C942927A0E2B0E0E0EBF2E00C9419271C
:1005600069837A838B839C832D833E834F83588753
:10057000E9E0EE2EF12CEC0EFD1ECE010196B70146
:100580000E94EE078E010F5E1F4FCE010596B80147
:100590000E94EE078A8991E089278A8BC701B801FA
:1005A000AE01475E5F4F0E945E010E941807A09651
:1005B000E6E00C943527A0E2B0E0E1EEF2E00C9426
:1005C000192769837A838B839C832D833E834F8392
:1005D0005887F9E0EF2EF12CEC0EFD1ECE010196AE
:1005E000B7010E94EE078E010F5E1F4FCE010596E8
:1005F000B8010E94EE07C701B801AE01475E5F4F28
:100600000E945E010E941807A096E6E00C94352730
:10061000A0E2B0E0EEE0F3E00C940D2769837A836A
:100620008B839C832D833E834F835887CE01019615
:10063000BE01675F7F4F0E94EE07CE010596BE01A7
:100640006F5E7F4F0E94EE079985923088F089890E
:100650008230C8F0943019F4823051F404C08430F0
:1006600029F4923081F480E592E0C6C0923049F4DA
:1006700020E09A858A89981321E02A87CE0109967D
:10068000BBC0823049F420E09A858A89981321E022
:100690002A8BCE014196B0C02D843E844F84588869
:1006A0006D887E888F88988CEE24FF248701AA2489
:1006B000BB24650140E050E060E070E0E0E0F0E085
:1006C000C10181709070892BE9F0E60CF71C081DC0
:1006D000191D9A01AB012A0D3B1D4C1D5D1D80E0CB
:1006E00090E0A0E0B0E0E614F7040805190520F456
:1006F00081E090E0A0E0B0E0BA01A901480F591FE5
:100700006A1F7B1FAA0CBB1CCC1CDD1C97FE08C0FB
:1007100081E090E0A0E0B0E0A82AB92ACA2ADB2A4A
:100720003196E032F10549F0660C771C881C991C63
:100730005694479437942794C3CFFA85EA892B8936
:100740003C898B859C85280F391F2E5F3F4F17C032
:10075000CA0181709070892B61F016950795F79406
:10076000E79480E090E0A0E0B0E8E82AF92A0A2BBC
:100770001B2B76956795579547952F5F3F4F77FDD4
:10078000E7CF0CC0440F551F661F771F17FD416050
:10079000EE0CFF1C001F111F21503040403090E034
:1007A000590790E0690790E4790760F32B8F3C8F3D
:1007B000DB01CA018F779070A070B0708034910512
:1007C000A105B10561F447FD0AC0E114F10401057A
:1007D000110529F0405C5F4F6F4F7F4F40781A8EB4
:1007E000FE1711F081E08A8F4D8F5E8F6F8F78A397
:1007F00083E0898FCE0149960E941807A096E2E116
:100800000C942927A8E1B0E0E8E0F4E00C94152767
:1008100069837A838B839C832D833E834F835887A0
:10082000B9E0EB2EF12CEC0EFD1ECE010196B701C6
:100830000E94EE078E010F5E1F4FCE010596B80194
:100840000E94EE072985223008F47EC039893230B3
:1008500010F4B8017CC08A859A8989278A87243058
:1008600011F0223031F4231709F06EC060E572E018
:100870006EC0343039F41D861E861F86188A1C8689
:100880001B8604C0323021F484E08987B7015FC041
:100890002B853C858B899C89281B390B3C872B87B2
:1008A000ED84FE840F851889AD88BE88CF88D88CEA
:1008B000EA14FB040C051D0540F4EE0CFF1C001FA0
:1008C000111F215030403C872B8720E030E040E072
:1008D00050E080E090E0A0E0B0E460E070E0EA1476
:1008E000FB040C051D0540F0282B392B4A2B5B2BF4
:1008F000EA18FB080C091D09B695A79597958795E9
:10090000EE0CFF1C001F111F6F5F7F4F6F317105D1
:1009100031F7DA01C9018F779070A070B070803420
:100920009105A105B10561F427FD0AC0E114F104A8
:100930000105110529F0205C3F4F4F4F5F4F207894
:100940002D873E874F87588BBE01675F7F4FCB0156
:100950000E9418076896EAE00C943127A8E1B0E0FD
:10096000E4EBF4E00C94192769837A838B839C83EE
:100970002D833E834F83588789E0E82EF12CEC0EBF
:10098000FD1ECE010196B7010E94EE078E010F5E9B
:100990001F4FCE010596B8010E94EE07898582306F
:1009A00040F08989823028F0C701B8010E946608AA
:1009B00001C081E06896E6E00C943527A8E1B0E03C
:1009C000E4EEF4E00C94192769837A838B839C838B
:1009D0002D833E834F83588789E0E82EF12CEC0E5F
:1009E000FD1ECE010196B7010E94EE078E010F5E3B
:1009F0001F4FCE010596B8010E94EE07898582300F
:100A000040F08989823028F0C701B8010E94660849
:100A100001C08FEF6896E6E00C943527A8E1B0E0BE
:100A2000E4E1F5E00C94192769837A838B839C8336
:100A30002D833E834F83588789E0E82EF12CEC0EFE
:100A4000FD1ECE010196B7010E94EE078E010F5EDA
:100A50001F4FCE010596B8010E94EE0789858230AE
:100A600040F08989823028F0C701B8010E946608E9
:100A700001C08FEF6896E6E00C943527A8E1B0E05E
:100A8000E4E4F5E00C94192769837A838B839C83D3
:100A90002D833E834F83588789E0E82EF12CEC0E9E
:100AA000FD1ECE010196B7010E94EE078E010F5E7A
:100AB0001F4FCE010596B8010E94EE07898582304E
:100AC00040F08989823028F0C701B8010E94660889
:100AD00001C081E06896E6E00C943527A8E1B0E01B
:100AE000E4E7F5E00C94192769837A838B839C8370
:100AF0002D833E834F83588789E0E82EF12CEC0E3E
:100B0000FD1ECE010196B7010E94EE078E010F5E19
:100B10001F4FCE010596B8010E94EE0789858230ED
:100B200040F08989823028F0C701B8010E94660828
:100B300001C081E06896E6E00C943527A8E0B0E0BB
:100B4000E4EAF5E00C9416279B01AC0183E089836D
:100B5000DA01C9018827B7FD83959927AA27BB2702
:100B6000B82E211531054105510519F482E089831C
:100B70003AC08823A9F0203080E0380780E0480799
:100B800080E8580729F460E070E080E09FEC30C016
:100B9000EE24FF248701E21AF30A040B150B02C0AE
:100BA00079018A018EE1C82ED12CDC82CB82ED82C4
:100BB000FE820F831887C801B7010E94C9060197FA
:100BC0001816190684F4082E04C0EE0CFF1C001F32
:100BD000111F0A94D2F7ED82FE820F831887C81A7C
:100BE000D90ADC82CB82BA82CE0101960E94180714
:100BF0002896E9E00C943227ACE0B0E0E2E0F6E0C1
:100C00000C941D2769837A838B839C83CE01019684
:100C1000BE016B5F7F4F0E94EE078D81823061F1D4
:100C2000823050F1843021F48E81882351F12EC01E
:100C30002F81388537FD20C06E812F3131051CF0A2
:100C40006623F9F023C08EE190E0821B930B298587
:100C50003A854B855C8504C0569547953795279511
:100C60008A95D2F76623B1F050954095309521953D
:100C70003F4F4F4F5F4F0EC020E030E040E050E06C
:100C800009C02FEF3FEF4FEF5FE704C020E030E0F7
:100C900040E050E8B901CA012C96E2E00C943927F3
:100CA000A8E0B0E0E6E5F6E00C9415277B018C01A6
:100CB000611571058105910519F482E0898360C091
:100CC00083E089838EE1C82ED12CDC82CB82ED8239
:100CD000FE820F831887C801B7010E94C906FC0174
:100CE0003197F7FF3BC0222733272E1B3F0B5701BD
:100CF0006801022E04C0D694C794B794A7940A94AE
:100D0000D2F740E050E060E070E081E090E0A0E0E9
:100D1000B0E004C0880F991FAA1FBB1F2A95D2F705
:100D20000197A109B1098E219F21A023B12300972A
:100D3000A105B10521F041E050E060E070E04A29F2
:100D40005B296C297D294D835E836F8378878EE1D3
:100D500090E08E1B9F0B9C838B8312C0309781F099
:100D60000E2E04C0EE0CFF1C001F111F0A94D2F7B8
:100D7000ED82FE820F831887CE1ADF0ADC82CB82D7
:100D80001A82CE0101960E9418072896EAE00C9478
:100D90003127EF92FF920F931F937B018C0180E02C
:100DA000E81680E0F80681E0080780E0180788F47C
:100DB0008FEFE816F1040105110531F028F088E005
:100DC00090E0A0E0B0E017C080E090E0A0E0B0E0EC
:100DD00012C080E0E81680E0F80680E0080781E0B5
:100DE000180728F088E190E0A0E0B0E004C080E1BE
:100DF00090E0A0E0B0E020E230E040E050E0281BCE
:100E0000390B4A0B5B0B04C016950795F794E794D2
:100E10008A95D2F7F701E85AFD4F8081281B3109E6
:100E200041095109C9011F910F91FF90EF90089559
:100E3000DF92EF92FF920F931F93FC01E480F58005
:100E400006811781D1808081823058F480E090E063
:100E5000A0E1B0E0E82AF92A0A2B1B2BEFEFF0E023
:100E6000A6C0843009F49EC0823019F4E0E0F0E0BE
:100E70009BC0E114F1040105110519F4E0E0F0E074
:100E800096C0628173819FEF623879070CF05BC076
:100E900022E83FEF261B370B2A3131052CF020E0EA
:100EA00030E040E050E02AC0B801A701022E04C0A3
:100EB00076956795579547950A94D2F781E090E02B
:100EC000A0E0B0E004C0880F991FAA1FBB1F2A959D
:100ED000D2F70197A109B1098E219F21A023B12347
:100EE0000097A105B10521F081E090E0A0E0B0E01D
:100EF0009A01AB01282B392B4A2B5B2BDA01C90154
:100F00008F779070A070B07080349105A105B10505
:100F100039F427FF09C0205C3F4F4F4F5F4F04C09B
:100F2000215C3F4F4F4F5F4FE0E0F0E02030A0E00A
:100F30003A07A0E04A07A0E45A0710F0E1E0F0E029
:100F400079018A0127C06038710564F5FB01E15819
:100F5000FF4FD801C7018F779070A070B0708034B8
:100F60009105A105B10539F4E7FE0DC080E490E0DC
:100F7000A0E0B0E004C08FE390E0A0E0B0E0E80EB5
:100F8000F91E0A1F1B1F17FF05C016950795F7943A
:100F9000E794319687E016950795F794E7948A953C
:100FA000D1F705C0EFEFF0E0EE24FF2487016E2FAC
:100FB000679566276795902F9F77D794DD24D79400
:100FC0008E2F8695492F462B582F5D29B701CA01D0
:100FD0001F910F91FF90EF90DF900895FC01DB01CE
:100FE000408151812281622F6F7770E0221F22277A
:100FF000221F9381892F880F822B282F30E0991F81
:101000009927991F11969C93119721153105A9F5E0
:10101000411551056105710511F482E037C082E880
:101020009FEF13969C938E9312979A01AB0167E002
:10103000220F331F441F551F6A95D1F783E08C930D
:101040000DC0220F331F441F551F12968D919C9186
:101050001397019713969C938E931297203080E0FC
:10106000380780E0480780E4580758F314962D931A
:101070003D934D935C93179708952F3F310579F475
:10108000411551056105710519F484E08C930895AB
:1010900064FF03C081E08C9312C01C9210C02F57D4
:1010A000304013963C932E93129783E08C9387E005
:1010B000440F551F661F771F8A95D1F770641496E9
:1010C0004D935D936D937C93179708951F93DC0167
:1010D000FB019C91923008F447C08081823008F473
:1010E00043C0943051F411961C91843099F581815C
:1010F000682F70E0611B71093FC0843021F092308D
:1011000031F48230B9F18181882389F12DC01196A3
:101110001C9111978230F1F081811817D9F4129641
:101120002D913C911397828193818217930794F0BC
:1011300028173907BCF014968D919D910D90BC91A4
:10114000A02D2481358146815781281739074A0708
:101150005B0718F4112341F00AC082179307A40714
:10116000B50740F4112319F061E070E005C06FEF9E
:101170007FEF02C060E070E0CB011F910895809185
:10118000840390918503A0918603B0918703019613
:10119000A11DB11D8093840390938503A0938603C2
:1011A000B093870320918403309185034091860397
:1011B0005091870380917E0390917F03A0918003DB
:1011C000B0918103281739074A075B07B0F0809177
:1011D0008803882391F481E080938803109284032C
:1011E000109285031092860310928703E091820388
:1011F000F091830319951092880308951F920F921E
:101200000FB60F920BB60F9211242F933F934F936B
:101210005F936F937F938F939F93AF93BF93EF935E
:10122000FF930E94BF08FF91EF91BF91AF919F91F3
:101230008F917F916F915F914F913F912F910F907F
:101240000BBE0F900FBE0F901F901895FC0171837D
:1012500060830895FC010190F081E02D4483558363
:10126000668377830895FC010190F081E02D20854D
:10127000318542855385B901CA0108956F927F92E5
:101280008F929F92AF92BF92CF92DF92EF92FF9296
:101290000F931F93CF93DF93FC013A014B01C08161
:1012A000D181688179818A819B812C813D814E81A8
:1012B0005F810E94AA026C8B7D8B8E8B9F8BA40119
:1012C00093010E9408032C853D854E855F850E9411
:1012D000DB025B016C016C877D878E879F87ECA0AA
:1012E000FDA00EA11FA1A80197010E94DE041816FF
:1012F00064F017FB109517F91095C601B501A80108
:1013000097010E943E05882324F4EC86FD860E8713
:101310001F87AC88BD88CE88DF88C601B501288DBF
:10132000398D4A8D5B8D0E9408037B018C016C8D89
:101330007D8D8E8D9F8D2C853D854E855F850E9490
:1013400008039B01AC01C801B7010E94DB027B01CD
:101350008C01C601B501288939894A895B890E94B7
:10136000AA0228A139A14AA15BA10E940803A401F5
:1013700093010E9402049B01AC01C801B7010E94C5
:10138000DB02688779878A879B87A88AB98ACA8A95
:10139000DB8ADF91CF911F910F91FF90EF90DF904B
:1013A000CF90BF90AF909F908F907F906F90089557
:1013B000FC018081882331F08181928164810E94C7
:1013C0001E0D03C084810E94A121BC0180E090E039
:1013D0000E94500624E739EB48E05EE30E940803D0
:1013E0000895FC018081882331F08181928163819D
:1013F0000E941E0D03C083810E94A121BC0180E0D8
:1014000090E00E94500620E030E04DE95DE30E944C
:1014100008030895CF93DF93EC016115710511F472
:10142000188204C081E088837A8369834423B9F0F9
:101430002223A9F04B832C838881882381F4842F75
:1014400060E00E94D5218C8160E00E94D5218B81D3
:1014500060E00E94FB218C8160E00E94FB21DF9113
:10146000CF910895362F242F60E070E0432F0E9423
:101470000A0A0895DF93CF9300D00F920F92CDB751
:10148000DEB7CE01019660E040E00E94320A0F9084
:101490000F900F900F900F90CF91DF910895EF92E2
:1014A000FF920F931F93FC0143832483E186F2860E
:1014B0000387148781E08283718360831F910F917A
:1014C000FF90EF9008950F931F93CF93DF93EC015C
:1014D0008A81882361F0888199816B810E941E0D29
:1014E0008C01888199816C810E941E0D07C08B81BF
:1014F0000E94A1218C018C810E94A121081B190B43
:10150000B801882777FD8095982F0E949E05298530
:101510003A854B855C850E9408032D813E814F8171
:1015200058850E94AA02DF91CF911F910F910895D3
:10153000CF92DF92EF92FF920F931F936B0179018D
:101540008A010E94630AF601608371838283938318
:10155000A80197010E9408039B01AC01F601648178
:101560007581868197810E94DB02F6016483758311
:10157000868397831F910F91FF90EF90DF90CF901C
:101580000895AF92BF92CF92DF92EF92FF920F93A6
:101590001F93CF93DF93EC017B01442309F056C0E6
:1015A00080E090E0A0E0B0E08D839E83AF83B887B9
:1015B000CC24DD243AC08A81882361F08881998116
:1015C0006B810E941E0D8C01888199816C810E9423
:1015D0001E0D07C08B810E94A1218C018C810E946D
:1015E000A121081B190BB801882777FD8095982F3A
:1015F0000E949E0529853A854B855C850E940803DB
:101600009B01AC016D817E818F8198850E94DB02F8
:101610006D837E838F83988761E070E080E090E047
:101620000E940F210894C11CD11CCE14DF0418F2B3
:10163000B70180E090E00E9450069B01AC016D81F3
:101640007E818F8198850E9402044FC080E090E0E7
:101650000E9450065B016C010894E108F108B70193
:1016600080E090E00E945006A60195010E940204CD
:101670009B01AC016D817E818F8198850E9408035A
:101680006D837E838F8398878A81882361F0888128
:1016900099816B810E941E0D8C01888199816C81DA
:1016A0000E941E0D07C08B810E94A1218C018C819C
:1016B0000E94A121081B190BB801882777FD80958E
:1016C000982F0E949E0529853A854B855C850E944E
:1016D0000803A60195010E9402049B01AC016D81E3
:1016E0007E818F8198850E94DB026D837E838F834C
:1016F0009887DF91CF911F910F91FF90EF90DF902E
:10170000CF90BF90AF900895FC01A081B181129657
:101710002D913C9113976AEAF90119950895EF927A
:10172000FF920F931F938C01F62EE42EDC01ED91B6
:10173000FC9111970280F381E02D15966C9119951B
:10174000D801ED91FC910280F381E02DC8016F2D4D
:101750001995D801ED91FC910280F381E02DC8012B
:101760006E2D1995D801ED91FC91119715968C91DC
:10177000F80EFE0CBFE7FB220280F381E02DC801CA
:101780006F2D19951F910F91FF90EF90089547FDD0
:101790004FE70E948F0B0895FC01262F332727FD6A
:1017A00030953187208767FD03C060E0422F05C078
:1017B00044275527421B530B61E00E94C70B089535
:1017C000FC01262F332727FD30953783268367FDBD
:1017D00003C064E0422F05C044275527421B530B2A
:1017E00065E00E94C70B0895EF92FF920F931F933D
:1017F0008C01F62EE42E0E94840BC8016F2D0E94EE
:10180000E00BC8016E2D0E94CC0B1F910F91FF9031
:10181000EF9008950F93DC01222319F4EFEFFFEF0F
:1018200002C0E1E0F0E0002319F42FEF3FEF02C027
:1018300021E030E0862F992787FD9095E89FB00141
:10184000E99F700DF89F700D1124842F992787FD53
:101850009095289FA001299F500D389F500D11246D
:10186000CD010E94F40B0F9108950F93FB0120818D
:1018700031814FEF2138340714F461E806C0B90113
:101880002038310514F06FE770E0228133814FEF8B
:101890002138340714F441E806C0A9012038310585
:1018A00014F04FE750E0248105810E940A0C0F914B
:1018B00008950F931F93CF93DF93DC0112968C91C1
:1018C0001297882309F051C01FB7F8941B96ED9129
:1018D000FC911C9790811A968C911A978095892378
:1018E000808387E790E020E001972FEF8F3F9207FA
:1018F000D9F731E040E050E070E0C2E7D0E000E02E
:10190000832F90E0862397231B96ED91FC911C97E3
:101910001A962C911A97892B21F08081822B808333
:1019200004C08081209528232083CE01202F019799
:101930002FEF8F3F9207D9F7330F4F5F5F4F48303C
:101940005105F1F61B96ED91FC911C9780811A963A
:101950009C91892B80831FBF82E790E020E0019754
:101960002FEF8F3F9207D9F70BC01396ED91FC91A3
:101970001497A081B1812D913C91CF01F901199566
:10198000DF91CF911F910F9108950F931F938C01B9
:10199000CA012DE533E0F80131832083548343836A
:1019A000658321E0228340E05BE460E070E00E9418
:1019B000651AC8010E94840B1F910F910895AF9280
:1019C000BF92CF92DF92EF92FF920F931F93DF931C
:1019D000CF930F92CDB7DEB78C01962F603108F010
:1019E0009FE0F80185819817D9F07801AA24BB24DB
:1019F000C92EDD24B6010A2C02C0759567950A949C
:101A0000E2F76170F70181917F0199830E94FB21C8
:101A10000894A11CB11C9981F4E0AF16B10451F7F0
:101A2000F80195830F90CF91DF911F910F91FF9057
:101A3000EF90DF90CF90BF90AF9008950F931F93DA
:101A40008C010E94DF0CF80184810E94A1211F916A
:101A50000F910895EF920F931F93CF93DF93EC01B3
:101A6000688349832A830B83EC8200E010E0FE0147
:101A7000E00FF11F808161E00E94D5210F5F1F4FB1
:101A800004301105A1F78C8160E00E94D5218C8182
:101A900060E00E94FB21CE0160E00E94DF0CDF913C
:101AA000CF911F910F91EF9008950F931F93CF93B4
:101AB000DF93EC01062F617089890E94FB21069556
:101AC000602F61708A890E94FB210695602F6170EA
:101AD0008B890E94FB2110E0159507950170639694
:101AE00089816397602F0E94FB21088599859F3F1C
:101AF00019F08A858111092F802F61E00E94FB2156
:101B0000802F60E00E94FB21DF91CF911F910F9108
:101B10000895FC0187818F3F41F484819581892B51
:101B200021F484E59BE00E9435210895EF92FF9215
:101B30000F931F93CF93DF93EC01062FE42EF884CD
:101B400099859F3F19F08A858111F92E8F818F3FEA
:101B500061F4EC81FD81309719F08A85199547C0B1
:101B600080E491E00E94352142C0898960E00E94B2
:101B7000D5218A8960E00E94D5218B8960E00E948E
:101B8000D5218C8960E00E94D5218F8161E00E947F
:101B9000FB218E8160E00E94FB218F2D61E00E947D
:101BA000FB218C890E948C22182F8F2D60E00E94CF
:101BB000FB218F2D61E00E94FB218F2D60E00E94B0
:101BC000FB21113051F3898961E00E94D5218A8976
:101BD00061E00E94D5218B8961E00E94D5218C892A
:101BE00061E00E94D5218F8160E00E94FB218E81FF
:101BF0006E2D0E94FB21602F607189890E94FB215C
:101C0000602F60728A890E94FB21602F60748B892B
:101C10000E94FB21602F60788C890E94FB218F2D10
:101C200061E00E94FB218F2D60E00E94FB21602F6C
:101C3000617089890E94FB21602F62708A890E94ED
:101C4000FB21602F64708B890E94FB2108708C89B6
:101C5000602F0E94FB218F2D61E00E94FB218F2DC0
:101C600060E00E94FB21DF91CF911F910F91FF90C7
:101C7000EF9008950F931F93CF93DF93EC01062FFE
:101C800089858F3F29F4CE0140E00E94960D0EC059
:101C90001A851A86CE0140E00E94960D82E08A875E
:101CA000CE01602F40E00E94960D1A87DF91CF9100
:101CB0001F910F91089540E00E94960D0895FF92A4
:101CC0000F931F93CF93DF93EC01042F8E8984171A
:101CD00010F4082F01500D876C871E86202F30E0EE
:101CE000FE01E20FF31FF7881B85160F8F2D8F73F0
:101CF000180F18320CF0185217FD185D8A8590E005
:101D0000227030708217930769F06B8D647F686072
:101D1000CE010E945B0E02700A876B8D6860CE0157
:101D20000E945B0E80E4F8221F291068CE01612F0B
:101D30000E945B0EDF91CF911F910F91FF9008954C
:101D40000F931F938C01FC01638D6460638F647F2C
:101D500068600E943A0EF801638D6860C8010E94B5
:101D60005B0E1F910F910895CF93DF93EC0189854E
:101D70008F3FA1F082E08A87CE0161E00E945B0E76
:101D80001A86CE0161E00E945B0ECE010E94890D91
:101D9000CE0160E040E00E945F0E07C0CE0161E02E
:101DA0000E945B0ECE010E94890D1B86DF91CF91B0
:101DB0000895FF920F931F93CF93DF93EC01F02EC2
:101DC000423010F008E001C000E0222319F0413059
:101DD00009F4046010E08CE49DE10E9435211F5F4E
:101DE0001231C9F78E8160E00E94FB218F2D60E0E7
:101DF0000E94FB218E8160E00E94FB21CE0163E006
:101E00000E94550D88E893E10E943521CE0163E0E0
:101E10000E94550D86E990E00E943521CE0163E0D5
:101E20000E94550D86E990E00E943521CE0162E0C6
:101E30000E94550D86E990E00E9435210062CE0196
:101E4000602F0E945B0E84E08B8FCE010E94A00E5B
:101E5000CE010E94B40E82E08C8FCE0166E00E941B
:101E60005B0EDF91CF911F910F91FF900895EF923C
:101E7000FF920F931F93CF93DF93EC01162FF42E55
:101E8000E22E6D8B6B834E8B4A838F89860F898FF1
:101E9000888D860F8A8FCE0108850E94D90E09850C
:101EA0000F3F59F0198E80E48A8F82E08A87CE0135
:101EB000612F4F2D2E2D0E94D90EDF91CF911F91B2
:101EC0000F91FF90EF9008956F927F928F92AF9253
:101ED000CF92EF920F931F93DF93CF93CDB7DEB7DF
:101EE0003C01142F8E2DF30166839FEF978315829B
:101EF000148220870187128613861486158616861B
:101F00001786E18AC28AA38A848A61E00E94D52169
:101F10008C2D61E00E94D5218A2D61E00E94D5219F
:101F2000882D61E00E94D521F301178A80E4808F1B
:101F300084E1818F84E5828F868161E00E94D521D2
:101F40001F3F41F0812F61E00E94D521812F60E089
:101F50000E94FB21F301808561E00E94D5210F3FA3
:101F600021F0802F61E00E94D521C30164E141E0AE
:101F700020E00E94370F8E859F85F301958384832F
:101F80001783CF91DF911F910F91EF90CF90AF907A
:101F90008F907F906F9008958F92AF92CF92EF9233
:101FA0000F93FC01302F5E2D7C2D8A2C85E693E06B
:101FB000918380830F920F92ADB7BEB712961C9299
:101FC0001E921197CF010FEFE32EC52EA72E0E9470
:101FD000640F0F900F900F91EF90CF90AF908F9074
:101FE00008951F93CF93DF93EC01162F8B858823E1
:101FF00019F48E85882329F0CE016C854D850E94C9
:102000005F0E1D3039F01A3029F0CE01612F41E00A
:102010000E94960D1E868F852C85882371F42F5F74
:102020002C871D3041F0332727FD30958D8990E0B6
:102030002817390784F01C8609C021502C871A30D4
:1020400011F027FF08C08D8981508C878D858F5FA7
:102050008D8781E08E872D85332727FD30958E89EA
:1020600090E0281739070CF01D86DF91CF911F9162
:102070000895CF92DF92EF92FF920F931F938C01FE
:102080006A017B01FC0160817181828193812481DD
:10209000358146815781621B730B840B950B0E941F
:1020A0009E05F801258936894789508D0E940803CD
:1020B000A70196010E940204F801618B728B838B49
:1020C000948B80819181A281B38184839583A6833F
:1020D000B7831F910F91FF90EF90DF90CF900895FD
:1020E0006F927F928F929F92AF92CF92EF92FF92D8
:1020F0000F931F93F5E98F2EF3E09F2EC4010E94EA
:102100003A0AC40105960E943A0AC40142960E9406
:102110001823C40145960E941823E7E36E2EE4E0DD
:102120007E2EC3016AE14BE12CE10DE1EE240E9419
:102130002A0D8DE394E06FE140E221E202E273E2D6
:10214000E72E54E2C52E35E2A32E0E94CC0FB40137
:10215000685E7F4F8AE594E00E9426098CE594E052
:1021600065ED73E00E9426098EE594E0B3014EE030
:102170002FE00F2EF8E5EF2EF0EAFF2EFBE00F2FF9
:10218000FDE31F2FF02D0E944F0A8BE694E060E8DC
:102190004FEC56E00E94C50C88E794E0B40146E994
:1021A00056E00E944D141F910F91FF90EF90CF9039
:1021B000AF909F908F907F906F900895EF92FF92D5
:1021C0000F931F930DE314E0C80160E042E00E940A
:1021D0005F0E40910E0450910F04609110047091B5
:1021E0001104C80121E030E00E94431EC80160E0F4
:1021F00072E00E94D21C4091270450912804609103
:10220000290470912A04C80121E030E00E94431E95
:10221000C80168E072E00E94D21CC80160E043E09F
:102220000E945F0EA5E9EA2EA3E0FA2EC7010E94E4
:10223000F109AB01BC01C80120E030E00E94431E5F
:10224000C80162E172E00E94D21C85E090E0E80ED5
:10225000F91EC7010E94F109AB01BC01C80120E0D1
:1022600030E00E94431EC80167E172E00E94D21C68
:10227000C7010E94D809AB01BC01C80121E030E0D0
:102280000E94431EC8016AE172E00E94D21C1F91A5
:102290000F91FF90EF9008958F929F92AF92BF920F
:1022A000CF92DF92EF92FF920F931F93DF93CF9322
:1022B00000D00F92CDB7DEB70E943F2186E996E0AD
:1022C00040E052EC61E070E00E94651A85E993E01D
:1022D00060E070E04DE02CE00E940A0A8AE993E099
:1022E00060E070E04FE02EE00E940A0A87EA93E087
:1022F0006AE570E00E94ED2387EA93E066E170E012
:102300000E9401258AEA93E06AE570E00E94ED23CD
:102310008AEA93E067E170E00E9401250DE314E092
:10232000C80164E144E020E00E94370FC8010E9428
:10233000B40E10933604009335040F2EFAE9AF2E35
:10234000F9E9BF2EF9E1CF2EFFE3DF2EF02DA092A9
:10235000C503B092C603C092C703D092C8030F2E24
:10236000FDECEF2EFCECFF2EFCEC0F2FFDE31F2FFE
:10237000F02DE092C903F092CA030093CB031093AF
:10238000CC0320E030E040E050E02093CD033093D8
:10239000CE034093CF035093D00380E090E0AEEFA4
:1023A000B2E48093D1039093D203A093D303B0936C
:1023B000D403A092ED03B092EE03C092EF03D0924B
:1023C000F003E092F103F092F2030093F303109311
:1023D000F4032093F5033093F6034093F7035093EF
:1023E000F8038093F9039093FA03A093FB03B0934F
:1023F000FC038FE692E1A3E8BBE380931204909381
:102400001304A0931404B093150480932B049093A9
:102410002C04A0932D04B0932E0410923304109238
:10242000340483E0898388E18A8382E08B8389E1B5
:102430008C837E010894E11CF11C05E0C02ED12C98
:10244000CC0EDD1EF70111917F01812F60E00E940B
:10245000D521812F60E00E94FB21EC14FD0491F74F
:1024600080E069E074E143E050E00E94461E81E0B4
:1024700066EC73E143E050E00E94461E85E061E0B7
:102480000E94D52185E061E00E94FB218EE594E069
:1024900068EE73E040E00E94C10A11E0812E912CA9
:1024A00088E794E00E9481160E94DB2060938D03F0
:1024B00070938E0380938F039093900320919103E8
:1024C00030919203409193035091940362177307E4
:1024D0008407950788F180917804882399F080918A
:1024E00090008F77809390006CB170E0B3E07695A8
:1024F0006795BA95E1F768257925617085E00E94B6
:10250000FB2106C0809190008F7780939000739894
:1025100080918D0390918E03A0918F03B0919003D1
:102520008C509E4FAF4FBF4F809391039093920377
:10253000A0939303B09394032091890330918A036D
:1025400040918B0350918C0360918D0370918E03A9
:1025500080918F039091900362177307840795070A
:1025600008F49ECF6C597F4F8F4F9F4F621B730BA8
:10257000840B950B0E9450062FE632E143E85AE3A4
:102580000E9408039B01AC01D62EC32E5A018EE592
:1025900094E06FE973E00E94980AE0909F03F09046
:1025A000A0030091A1031091A203C801B70120E08C
:1025B00030E040E050E00E94DE0418165CF4C801F0
:1025C000B7012FE632E143E85AE30E946E05181680
:1025D0005CF431C0C801B7012FE632E143E85AEBA1
:1025E0000E940E0588233CF160910E0470910F0447
:1025F000809110049091110420E030E040E050E020
:102600000E94AE048823B9F46091270470912804D5
:102610008091290490912A0420E030E040E050E0CD
:102620000E94AE04882339F48EE594E068EE73E0EE
:1026300041E00E94C10A8DEF93E02D2D3C2DA901B0
:10264000B5010E94391086E194E02D2D3C2DA901A1
:10265000B5010E94391040910E0450910F04609111
:102660001004709111048AE594E00E942A094091B7
:102670002704509128046091290470912A048CE564
:1026800094E00E942A098AE594E02D2D3C2DA901B1
:10269000B5010E943E098CE594E02D2D3C2DA90149
:1026A000B5010E943E0960912F0470913004882783
:1026B00077FD8095982F0E949E057B018C018AE50D
:1026C00094E00E9433099B01AC01C801B7010E944C
:1026D000DB020E94FC057093300460932F0460912C
:1026E000310470913204882777FD8095982F0E94DD
:1026F0009E057B018C018CE594E00E9433099B01CF
:10270000AC0180912F04909130048038910514F031
:102710008FE790E0FFEF81389F0714F481E89FEF87
:102720009093300480932F04C801B7010E94DB020C
:102730000E94FC056038710514F06FE770E08FEFC0
:102740006138780714F461E87FEF70933204609386
:1027500031048BE694E06FE274E00E94350C0E9435
:10276000DE1080918D0390918E03A0918F03B09124
:1027700090038C599F4FAF4FBF4F80938903909325
:102780008A03A0938B03B0938C038ACE80B1869585
:10279000869580958170809326042091160430914F
:1027A000170440911804509119048091260488233D
:1027B00029F48FEF9FEFAFEFBFEF04C081E090E00F
:1027C000A0E0B0E0820F931FA41FB51F80931604F2
:1027D00090931704A0931804B093190480911E04D9
:1027E00090911F04A0912004B091210480932204B1
:1027F00090932304A0932404B09325040E94E9201D
:1028000060931E0470931F0480932004909321040E
:10281000089580B186958695869580958170809380
:102820000D042091FD033091FE034091FF03509170
:10283000000480910D04882329F48FEF9FEFAFEF00
:10284000BFEF04C081E090E0A0E0B0E0820F931FF2
:10285000A41FB51F8093FD039093FE03A093FF0375
:10286000B09300048091050490910604A0910704A0
:10287000B09108048093090490930A04A0930B0478
:10288000B0930C040E94E920609305047093060441
:1028900080930704909308040895FC017283618378
:1028A00054834383108281E08583168217821086C9
:1028B00011860895AF92BF92CF92DF92EF92FF926E
:1028C0000F931F93CF93DF93EC017A018B010E944A
:1028D000DB205B016C01AE0CBF1CC01ED11E0E9430
:1028E000DB206A157B058C059D0520F5EB81FC81BD
:1028F000A081B18116962D913C911797CF01F901D6
:102900001995892BB9F4EBCFEB81FC81A081B181C2
:1029100018962D913C911997CF01F9011995DF91E6
:10292000CF911F910F91FF90EF90DF90CF90BF90CC
:10293000AF900895EB81FC81A081B18116962D9115
:102940003C911797CF01F9011995892BE9F680E0A1
:10295000E6CF6F927F928F929F92AF92BF92CF926B
:10296000DF92EF92FF920F931F93DF93CF93CDB738
:10297000DEB74C01C62E5A01D22E6DB67EB6022F9E
:1029800010E083E0E82EF12CE00EF11EC801049661
:102990002DB73EB7281B390B0FB6F8943EBF0FBEBC
:1029A0002DBF6DB77EB76F5F7F4F8CE3ADB7BEB7FE
:1029B00011968C93FB01C1829B01A0E0B0E007C09F
:1029C000F501EA0FFB1F8081F901818311962F5FCA
:1029D0003F4FAD15A8F32C2D30E040E050E0F5015D
:1029E00090E006C08191280F311D411D511D9F5F50
:1029F0009D15C0F3FB01E00FF11F822F8F778283BB
:102A0000E60EF71E8EE3D7018C93D4011396ED9159
:102A1000FC911497A081B1810C5F1F4F14962D91EA
:102A20003C911597CF01A801F90119950FB6F894BB
:102A30007EBE0FBE6DBECF91DF911F910F91FF90B3
:102A4000EF90DF90CF90BF90AF909F908F907F904E
:102A50006F900895DF93CF930F92CDB7DEB7498380
:102A6000AE014F5F5F4F21E00E94A9140F90CF91FC
:102A7000DF9108959F92AF92BF92CF92DF92EF9233
:102A8000FF920F931F93DF93CF9300D00F92CDB798
:102A9000DEB75C01962E6A01CA010E94F10920E0AE
:102AA00030E048EC52E40E9408030E94FC057B01E0
:102AB0008C01C6010E94D80920E030E048EC52E4C5
:102AC0000E9408030E94FC052F2D332727FD3A950D
:102AD0002983EA82272F332727FD3A952B836C839E
:102AE000C501692DAE014F5F5F4F24E00E94A9141C
:102AF0000F900F900F900F90CF91DF911F910F913A
:102B0000FF90EF90DF90CF90BF90AF909F9008958F
:102B10009F92AF92BF92CF92DF92EF92FF920F936C
:102B20001F93DF93CF9300D00F92CDB7DEB75C0138
:102B3000962E6A01FA01608171818281938120E081
:102B400030E04AE754E40E9408030E94FC057B0140
:102B50008C01F601648175818681978120E030E0E7
:102B60004AE754E40E9408030E94FC052F2D3327F6
:102B700027FD3A952983EA82272F332727FD3A95A7
:102B80002B836C83C501692DAE014F5F5F4F24E03D
:102B90000E94A9140F900F900F900F90CF91DF918A
:102BA0001F910F91FF90EF90DF90CF90BF90AF906B
:102BB0009F900895CF92DF92EF92FF920F931F9311
:102BC000DF93CF93CDB7DEB727970FB6F894DEBF6C
:102BD0000FBECDBF7C01C62E8A01D22EFA016189BB
:102BE00072898389948920E030E048EC52E40E94A5
:102BF00008030E94FC05F801208131814281538144
:102C0000E72FFF27E7FDFA95E9836A83852FBB2726
:102C100087FDB0959B2FAB2F8B83CA01BB2797FDF8
:102C2000B095AB2F8C83BB2757FDBA95A52F942F5A
:102C3000832F8D832E83DF82C7016C2DAE014F5F02
:102C40005F4F27E00E94A91427960FB6F894DEBFC5
:102C50000FBECDBFCF91DF911F910F91FF90EF90ED
:102C6000DF90CF9008950F931F938C01FC01418159
:102C70005281FA01E656FF4F61E048595F4F2081CB
:102C80000E94DA15F80141815281FA01E456FF4FA2
:102C9000C80162E04F575F4F20810E94DA15F801AA
:102CA00041815281465F5F4FC80163E00E948815F1
:102CB000F80141815281C80164E00E943A15F8018F
:102CC000418152814B5F5F4FC80165E00E943A1518
:102CD000F8018181928142960E949823482FC80171
:102CE00066E00E942A15F8018181928145960E9432
:102CF0009823482FC80167E00E942A151F910F9161
:102D000008952F923F924F925F926F927F928F928F
:102D10009F92AF92BF92CF92DF92EF92FF920F936A
:102D20001F93DF93CF93CDB7DEB7E5970FB6F89437
:102D3000DEBF0FBECDBF6C01DC0115968C911597DF
:102D4000882309F49FC21A96ED90FD900D911C9175
:102D50001D970E94DB20E61AF70A080B190BB9E24F
:102D6000EB16F1040105110508F48CC2C6010E949E
:102D7000331688C20E94DB20F60166837783808742
:102D80009187A381B481ED91FC9111970084F18525
:102D9000E02DCD011995182F843009F49FC085309E
:102DA00048F4823029F1833008F06BC0813009F09B
:102DB00061C20DC0863009F490C1863008F43FC16D
:102DC000873009F4ADC1823609F054C2E2C1C601B0
:102DD0004AEF50E060E070E00E945A14D601159668
:102DE0001C921597882309F459C215961C9356C254
:102DF0008E010F5F1F4FC6014AEF50E060E070E0A8
:102E00000E945A14F80181938F0188A999A9E817A3
:102E1000F90789F7D60111960D911C911297B98186
:102E2000BFA31EA26A8170E0EEA1FFA16E2B7F2BD3
:102E3000882777FD8095982F0E949E052DEC3CEC0D
:102E40004CEC5DE30E940803D80158966D937D9386
:102E50008D939C935B97005C1F4FBB81B9A718A60D
:102E60006C8170E0E8A5F9A56E2B7F2B882777FD94
:102E70008095982F0E949E052DEC3CEC4CEC5DE378
:102E8000D5C0C60144E650E060E070E00E945A14EC
:102E90008983C60144E650E060E070E00E945A1465
:102EA0008A838981853B08F084EB89831A81153BED
:102EB00008F014EB1A83F6018181928169814296B0
:102EC00070E00E94ED23D60111968D919C9112978E
:102ED0004596612F70E00E94ED23E0C18E010F5FE7
:102EE0001F4FC6014AEF50E060E070E00E945A14A4
:102EF000F80181938F018AA99BA9E817F90789F73F
:102F0000D60111960D911C911297B981BBA71AA6F3
:102F10006A8170E0EAA5FBA56E2B7F2B882777FDE1
:102F20008095982F0E949E052AE037ED43E25CE3EE
:102F30000E940803D801D0966D937D938D939C9346
:102F4000D397BB81BDA71CA66C8170E0ECA5FDA545
:102F50006E2B7F2B882777FD8095982F0E949E05EA
:102F60002AE037ED43E25CE30E940803D801D496DF
:102F70006D937D938D939C93D7975D8044246E8150
:102F800070E064297529882777FD8095982F0E9425
:102F90009E052AE037ED43E25CE30E940803F80156
:102FA00060AF71AF82AF93AF085A1F4F7F80662426
:102FB000688570E066297729882777FD8095982FA6
:102FC0000E949E052AE037ED43E25CE30E9408037D
:102FD000D8016D937D938D939D938D019984882461
:102FE0006A8570E068297929882777FD8095982F70
:102FF0000E949E052AE037ED43E25CE30E9408034D
:10300000F80161937193819391938F01BB84AA24FA
:103010006C8570E06A297B29882777FD8095982F39
:103020000E949E052AE037ED43E25CE30E9408031C
:10303000D8016D937D938D939C9313972FC18E012F
:103040000F5F1F4FC6014AEF50E060E070E00E9442
:103050005A14F80181938F0188A999A9E817F907F3
:1030600089F7D60111960D911C91129703581F4FA5
:10307000B981BFA71EA66A8170E0EEA5FFA56E2BE1
:103080007F2B882777FD8095982F0E949E0527E14A
:1030900037EB41ED58E30E940803D8016D937D930F
:1030A0008D939C931397075E1F4F3B8022246C8166
:1030B00070E062297329882777FD8095982F0E94F8
:1030C0009E0527E137EB41ED58E30E940803F80124
:1030D0006083718382839383E1C0C6014AEF50E02D
:1030E00060E070E00E945A148983C6014AEF50E004
:1030F00060E070E00E945A148A83D6011196ED9127
:10310000FC911297E656FF4F2981332727FD309512
:1031100021933193992787FD909591838083BEC039
:10312000C6014AEF50E060E070E00E945A14E82EB9
:103130008E010F5E1F4FC6014AEF50E060E070E065
:103140000E945A14F80181938F018CA99DA9E81758
:10315000F90789F7E9821DA2D6011196ED91FC913C
:103160001297E056FF4F808191814E2D453008F037
:1031700044E060E00E945F0ED6011196ED91FC9153
:103180001297E056FF4F80819181BE016F5E7F4FA5
:1031900076C0F6018381948160E272E00E94D21CC5
:1031A000D60113960D911C91149711968D919C91B7
:1031B00012970E94F109AB01BC01C8012AE030E07E
:1031C0000E94431EF6018381948167E272E00E94AF
:1031D000D21CD60113960D911C91149711968D91C6
:1031E0009C9112970E94D809AB01BC01C8012AE04A
:1031F00030E00E94431EF6018381948160E372E017
:103200000E94D21CD60113968D919C91149768E36D
:1032100072E00E94D21CF6010381148181819281A7
:1032200005960E94F109AB01BC01C8012AE030E01B
:103230000E94431ED60113968D919C91149767E2CC
:1032400072E00E94D21CF601038114818181928177
:1032500005960E94D809AB01BC01C8012AE030E004
:103260000E94431ED60113968D919C91149760E3A2
:1032700072E005C0F601838194816FE372E00E94E1
:10328000D21C0CC0CE010D969BAB8AABDE0115960D
:10329000B9ABA8ABFE01B596FDABECABD60113966E
:1032A000ED91FC911497A081B18116962D913C91DE
:1032B0001797CF01F9011995892B09F05BCD0E9471
:1032C000DB20E0E0D60116962D913D914D915C9169
:1032D0001997621B730B840B950B695E73408040DA
:1032E000904008F4E1E0D601EC93E5960FB6F8942F
:1032F000DEBF0FBECDBFCF91DF911F910F91FF9029
:10330000EF90DF90CF90BF90AF909F908F907F9085
:103310006F905F904F903F902F9008950F931F9361
:10332000CF93DF93482FFB018B0100581F4FD8012B
:10333000CD91DC91CE01019660E870E00E94BD263F
:103340009C01EE57FF4F80819181E258F040281791
:10335000390731F0CE0FDF1F4883F8013183208316
:10336000DF91CF911F910F9108951F920F920FB689
:103370000F920BB60F9211242F933F934F935F93AD
:103380006F937F938F939F93AF93BF93EF93FF932D
:103390008091C60066E874E00E948E19FF91EF915B
:1033A000BF91AF919F918F917F916F915F914F915D
:1033B0003F912F910F900BBE0F900FBE0F901F905B
:1033C00018951F920F920FB60F920BB60F92112401
:1033D0002F933F934F935F936F937F938F939F931D
:1033E000AF93BF93EF93FF938091CE006AE075E0B7
:1033F0000E948E19FF91EF91BF91AF919F918F9194
:103400007F916F915F914F913F912F910F900BBEE4
:103410000F900FBE0F901F9018951F920F920FB62E
:103420000F920BB60F9211242F933F934F935F93FC
:103430006F937F938F939F93AF93BF93EF93FF937C
:103440008091D6006EE875E00E948E19FF91EF9191
:10345000BF91AF919F918F917F916F915F914F91AC
:103460003F912F910F900BBE0F900FBE0F901F90AA
:1034700018951F920F920FB60F920BB60F92112450
:103480002F933F934F935F936F937F938F939F936C
:10349000AF93BF93EF93FF938091360162E176E0A3
:1034A0000E948E19FF91EF91BF91AF919F918F91E3
:1034B0007F916F915F914F913F912F910F900BBE34
:1034C0000F900FBE0F901F9018955F926F927F9292
:1034D0008F929F92AF92BF92CF92DF92EF92FF9224
:1034E0000F931F93CF93DF93EC015A016B0181E49B
:1034F000A81682E4B8068FE0C80680E0D80608F077
:1035000077C060E874E88EE190E0A60195010E9422
:10351000D02639014A010894610871088108910890
:103520009694879477946794A40193012F5F3F4FFB
:103530004F4F5F4F74E0220F331F441F551F7A9582
:10354000D1F760E074E284EF90E00E94D026CA01D7
:10355000B9012FEF30E040E050E00E947E26A60146
:1035600095010E94D0268FEF90E0821B930B1816D6
:1035700019061CF4522E509402C0522E539460E04F
:1035800079E08DE390E0A60195010E94D0262150BC
:1035900030404040504056954795379527952F5FCE
:1035A0003F4F4F4F5F4F93E0220F331F441F551F74
:1035B0009A95D1F760E074E284EF90E00E94D02603
:1035C000CA01B9012FEF30E040E050E00E947E26B2
:1035D000A60195010E94D0268FEF90E0821B930BED
:1035E0001816190614F4209501C02F5F2515F0F464
:1035F000E885F98581E090E00A8802C0880F991F6C
:103600000A94E2F7808360E079E08DE390E0A60120
:1036100095010E94D02621503040404050405695A0
:10362000479537952795822F232F05C0E885F98583
:103630001082862D272DEC81FD812083EE81FF8174
:103640008083EA85FB85208141E050E0CA010E8439
:1036500002C0880F991F0A94E2F7282B2083EA857D
:10366000FB852081CA010F8402C0880F991F0A942C
:10367000E2F7282B2083EA85FB858081088802C039
:10368000440F551F0A94E2F7842B8083DF91CF917A
:103690001F910F91FF90EF90DF90CF90BF90AF9070
:1036A0009F908F907F906F905F900895DC011296AD
:1036B000ED91FC911397E058FF4F819191918058C3
:1036C0009F4F20813181821B930B60E870E00E9444
:1036D000BD260895DC011296ED91FC911397EE57EB
:1036E000FF4F2081318192918291E058F040821702
:1036F000930719F42FEF3FEF05C0E20FF31F80810E
:10370000282F30E0C9010895CF93DF93DC01129692
:10371000ED91FC911397EF01CE57DF4F488159810E
:10372000E058FF4F80819181E058F0408417950761
:1037300019F42FEF3FEF0CC0E40FF51F2081CA01F1
:10374000019660E870E00E94BD269983888330E08E
:10375000C901DF91CF910895DC011296ED91FC91A2
:103760001397EE57FF4F8081918192938293089532
:10377000FC01A085B18521898C9190E0022E02C0C8
:10378000959587950A94E2F780FFF6CF0484F58536
:10379000E02D608308952FE633E030939706209361
:1037A000960686E894E0909399068093980685ECB7
:1037B00090E090939B0680939A0684EC90E090931F
:1037C0009D0680939C0680EC90E090939F068093EA
:1037D0009E0681EC90E09093A1068093A00686EC73
:1037E00090E09093A3068093A206E4E0E093A40601
:1037F00073E07093A50667E06093A60655E05093CA
:10380000A70641E04093A8063093AA062093A90694
:103810008AE095E09093AC068093AB068DEC90E047
:103820009093AE068093AD068CEC90E09093B0063A
:103830008093AF0688EC90E09093B2068093B10637
:1038400089EC90E09093B4068093B3068EEC90E000
:103850009093B6068093B506E093B7067093B806CA
:103860006093B9065093BA064093BB063093BD06E9
:103870002093BC068EE895E09093BF068093BE0629
:1038800085ED90E09093C1068093C00684ED90E0B2
:103890009093C3068093C20680ED90E09093C50696
:1038A0008093C40681ED90E09093C7068093C6068E
:1038B00086ED90E09093C9068093C806E093CA060F
:1038C0007093CB066093CC065093CD064093CE0602
:1038D0003093D0062093CF0682E196E09093D206F3
:1038E0008093D10685E391E09093D4068093D3062C
:1038F00084E391E09093D6068093D50680E391E02F
:103900009093D8068093D70681E391E09093DA06EE
:103910008093D90686E391E09093DC068093DB06E2
:10392000E093DD067093DE066093DF065093E006B9
:103930004093E10608950F931F93CF93DF938C017B
:10394000EB0109C02196D801ED91FC910190F08125
:10395000E02DC801199568816623A1F7DF91CF9109
:103960001F910F910895EF92FF920F931F93CF93A2
:10397000DF938C017B01EA010CC0D7016D917D01C1
:10398000D801ED91FC910190F081E02DC8011995CD
:103990002197209791F7DF91CF911F910F91FF9081
:1039A000EF900895DC01ED91FC910280F381E02D10
:1039B000199508952F923F924F925F926F927F9246
:1039C0008F929F92AF92BF92CF92DF92EF92FF922F
:1039D0000F931F93DF93CF93CDB7DEB7A0970FB6AA
:1039E000F894DEBF0FBECDBF1C016A017B014115FB
:1039F00051056105710549F440E350E060E070E075
:103A000020E030E00E94811D54C088249924540194
:103A1000422E55246624772401E010E00C0F1D1F70
:103A2000080D191DC701B601A30192010E94D026FD
:103A3000F80160830894811C911CA11CB11CC70172
:103A4000B601A30192010E94D026C901DA016C01DE
:103A50007D01C114D104E104F104F1F681E0E82E06
:103A6000F12CEC0EFD1EE80CF91C3E010894611CC3
:103A7000711CD501C4010197A109B1096C01C818D5
:103A8000D90814C0F601EE0DFF1D40814A3010F434
:103A9000405D01C0495C50E060E070E0C10120E0A1
:103AA00030E00E94811D0894E108F1086E147F0443
:103AB00049F7A0960FB6F894DEBF0FBECDBFCF91E9
:103AC000DF911F910F91FF90EF90DF90CF90BF900B
:103AD000AF909F908F907F906F905F904F903F90AE
:103AE0002F900895DC012115310541F4ED91FC91F1
:103AF0000190F081E02D642F199508950E94DA1C41
:103B00000895EF92FF920F931F93CF93DF93EC01F1
:103B10007A018B012115310541F4E881F981019089
:103B2000F081E02D642F19951BC02A303105B1F4C6
:103B300077FF10C04DE250E060E070E020E030E040
:103B40000E94811D10950095F094E094E11CF11CF9
:103B5000011D111DCE01B801A7012AE00E94DA1C47
:103B6000DF91CF911F910F91FF90EF9008959F9259
:103B7000AF92BF92CF92DF92EF92FF920F931F937B
:103B8000CF93DF93EC017A018B01922ECB01BA0126
:103B900020E030E040E050E00E943E0588236CF4D5
:103BA000CE014DE250E060E070E020E030E00E94A5
:103BB000811D17FB109517F9109520E030E040E0CB
:103BC0005FE3AA240BC0CA01B90120E030E040E263
:103BD00051E40E9402049B01AC01A394A91498F340
:103BE000C801B7010E94DB025B016C010E94320137
:103BF0007B018C01CE01B801A7012AE030E00E94D0
:103C0000721D992029F0CE016EE472E00E94D21C50
:103C1000C801B7010E9450069B01AC01C601B50165
:103C20000E94AA0222C020E030E040E251E40E945B
:103C300008037B018C010E94FC055B016C01CC2414
:103C4000B7FCC094DC2CCE01B601A5012AE030E01F
:103C50000E94811DC601B5010E949E059B01AC0119
:103C6000C801B7010E94AA029A949920E1F6DF9157
:103C7000CF911F910F91FF90EF90DF90CF90BF9069
:103C8000AF909F9008950E94B71D0895883008F066
:103C900078C0E82FF0E0EE0FFF1FEE51F94F71836F
:103CA00060838330D9F0843030F4813009F444C02B
:103CB000823060F439C0853051F18530D8F08630DB
:103CC00009F446C0873009F05CC04FC0809169009C
:103CD0008C7F842B80936900E89A08958091690015
:103CE000440F551F440F551F837F842B8093690019
:103CF000E99A08958091690074E0440F551F7A9500
:103D0000E1F78F7C842B80936900EA9A0895809173
:103D1000690066E0440F551F6A95E1F78F73842BA5
:103D200080936900EB9A089580916A008C7F842BC0
:103D300080936A00EC9A089580916A00440F551FA1
:103D4000440F551F837F842B80936A00ED9A08955A
:103D500080916A0024E0440F551F2A95E1F78F7C7B
:103D6000842B80936A00EE9A089580916A0096E011
:103D7000440F551F9A95E1F78F73842B80936A0047
:103D8000EF9A08951F920F920FB60F920BB60F92F3
:103D900011242F933F934F935F936F937F938F9350
:103DA0009F93AF93BF93EF93FF938091E60690911B
:103DB000E706892B29F0E091E606F091E7061995D0
:103DC000FF91EF91BF91AF919F918F917F916F91F3
:103DD0005F914F913F912F910F900BBE0F900FBEAF
:103DE0000F901F9018951F920F920FB60F920BB65F
:103DF0000F9211242F933F934F935F936F937F9371
:103E00008F939F93AF93BF93EF93FF938091E806B7
:103E10009091E906892B29F0E091E806F091E906F6
:103E20001995FF91EF91BF91AF919F918F917F91E4
:103E30006F915F914F913F912F910F900BBE0F901B
:103E40000FBE0F901F9018951F920F920FB60F92F2
:103E50000BB60F9211242F933F934F935F936F9361
:103E60007F938F939F93AF93BF93EF93FF93809133
:103E7000EA069091EB06892B29F0E091EA06F09191
:103E8000EB061995FF91EF91BF91AF919F918F91A3
:103E90007F916F915F914F913F912F910F900BBE4A
:103EA0000F900FBE0F901F9018951F920F920FB694
:103EB0000F920BB60F9211242F933F934F935F9362
:103EC0006F937F938F939F93AF93BF93EF93FF93E2
:103ED0008091EC069091ED06892B29F0E091EC069B
:103EE000F091ED061995FF91EF91BF91AF919F91E0
:103EF0008F917F916F915F914F913F912F910F9093
:103F00000BBE0F900FBE0F901F9018951F920F922F
:103F10000FB60F920BB60F9211242F933F934F932E
:103F20005F936F937F938F939F93AF93BF93EF9321
:103F3000FF938091E2069091E306892B29F0E091AE
:103F4000E206F091E3061995FF91EF91BF91AF91D1
:103F50009F918F917F916F915F914F913F912F91A1
:103F60000F900BBE0F900FBE0F901F9018951F92D1
:103F70000F920FB60F920BB60F9211242F933F930F
:103F80004F935F936F937F938F939F93AF93BF9361
:103F9000EF93FF938091E4069091E506892B29F039
:103FA000E091E406F091E5061995FF91EF91BF913C
:103FB000AF919F918F917F916F915F914F913F91C1
:103FC0002F910F900BBE0F900FBE0F901F90189562
:103FD0001F920F920FB60F920BB60F9211242F93D0
:103FE0003F934F935F936F937F938F939F93AF9381
:103FF000BF93EF93FF938091EE069091EF06892B8C
:1040000029F0E091EE06F091EF061995FF91EF91FE
:10401000BF91AF919F918F917F916F915F914F91E0
:104020003F912F910F900BBE0F900FBE0F901F90DE
:1040300018951F920F920FB60F920BB60F92112484
:104040002F933F934F935F936F937F938F939F93A0
:10405000AF93BF93EF93FF938091F0069091F10699
:10406000892B29F0E091F006F091F1061995FF9166
:10407000EF91BF91AF919F918F917F916F915F91E0
:104080004F913F912F910F900BBE0F900FBE0F904D
:104090001F9018952F923F924F925F926F927F924E
:1040A0008F929F92AF92BF92CF92DF92EF92FF9248
:1040B0000F931F93DF93CF93CDB7DEB73B014C0136
:1040C00019012A016E897F89888D998D6A197B096A
:1040D0008C099D09621A730A840A950AA401930146
:1040E0000E947E26E218F30804091509A801970129
:1040F0000E94F2262A0D3B1D4C1D5D1DB901CA010F
:10410000CF91DF911F910F91FF90EF90DF90CF90B3
:10411000BF90AF909F908F907F906F905F904F90E7
:104120003F902F9008951F920F920FB60F92112477
:104130002F933F938F939F93AF93BF938091F606F6
:104140009091F706A091F806B091F9063091FA0621
:104150000196A11DB11D232F2D5F2D3720F02D5766
:104160000196A11DB11D2093FA068093F606909347
:10417000F706A093F806B093F9068091F2069091A5
:10418000F306A091F406B091F5060196A11DB11DAC
:104190008093F2069093F306A093F406B093F5068D
:1041A000BF91AF919F918F913F912F910F900FBE33
:1041B0000F901F9018958FB7F8942091F6063091C4
:1041C000F7064091F8065091F9068FBFB901CA0170
:1041D00008959FB7F8942091F2063091F30640912C
:1041E000F4065091F50686B5A89B06C08F3F21F0D6
:1041F0002F5F3F4F4F4F5F4F9FBF542F432F322FA3
:104200002227280F311D411D511D82E0220F331F2F
:10421000441F551F8A95D1F7B901CA010895EF923D
:10422000FF920F931F93CF93DF937B018C010E942A
:10423000E920EB010EC00E94E9206C1B7D0B685E3B
:104240007340C8F30894E108F10801091109C85145
:10425000DC4FE114F1040105110569F7DF91CF91FD
:104260001F910F91FF90EF900895019739F0880FFB
:10427000991F880F991F02970197F1F70895789475
:1042800084B5826084BD84B5816084BD85B582605B
:1042900085BD85B5816085BDEEE6F0E080818160F9
:1042A0008083E1E8F0E010828081826080838081F9
:1042B00081608083E0E8F0E0808181608083E1EBD1
:1042C000F0E0808184608083E0EBF0E080818160B9
:1042D0008083E1E9F0E08081826080838081816079
:1042E0008083E1EAF0E08081826080838081816068
:1042F0008083E1E2F1E0808182608083808181605F
:104300008083E0E9F0E0808181608083E0EAF0E092
:10431000808181608083E0E2F1E080818160808340
:10432000EAE7F0E08081846080838081826080831E
:104330008081816080838081806880831092C10049
:104340000895382F863308F0365320917B00832F51
:1043500086958695869590E08170907043E0880FF1
:10436000991F4A95E1F7277F282B20937B00377010
:10437000809158038295880F880F807C832B8093CF
:104380007C0080917A00806480937A0080917A002A
:1043900086FDFCCF2091780040917900942F80E039
:1043A00030E0282B392BC9010895482F50E0CA016D
:1043B00088589E4FFC0124914E5C5E4FFA01849117
:1043C0008823C1F0E82FF0E0EE0FFF1FEC51FF4F04
:1043D000A591B491662341F49FB7F8948C912095F0
:1043E00082238C939FBF08959FB7F8948C91822B62
:1043F0008C939FBF0895482F50E0CA0182549E4F6E
:10440000FC012491CA0188589E4FFC0134914E5CF6
:104410005E4FFA019491992309F47DC0222309F497
:1044200062C0233021F4809180008F7705C0243052
:1044300031F4809180008F7D8093800054C02130C2
:1044400019F484B58F7704C0223021F484B58F7DB0
:1044500084BD49C0263021F48091B0008F7705C01B
:10446000273031F48091B0008F7D8093B0003BC045
:10447000283021F4809190008F7705C0293031F4E5
:10448000809190008F7D809390002DC02A3021F480
:1044900080919000877FF7CF2B3021F48091A0008E
:1044A0008F770BC02C3021F48091A0008F7D05C048
:1044B0002D3031F48091A000877F8093A00013C03D
:1044C0002E3021F4809120018F770BC02F3021F402
:1044D000809120018F7D05C0203129F48091200139
:1044E000877F80932001E92FF0E0EE0FFF1FE2505D
:1044F000FF4FA591B491662341F49FB7F8948C9136
:10450000309583238C939FBF08959FB7F8948C9127
:10451000832B8C939FBF0895682F70E0CB0182544A
:104520009E4FFC012491CB0188589E4FFC01449181
:104530006E5C7E4FFB019491992319F420E030E0EA
:1045400075C0222309F462C0233021F480918000D9
:104550008F7705C0243031F4809180008F7D809367
:10456000800054C0213019F484B58F7704C0223004
:1045700021F484B58F7D84BD49C0263021F480911B
:10458000B0008F7705C0273031F48091B0008F7D67
:104590008093B0003BC0283021F4809190008F7749
:1045A00005C0293031F4809190008F7D8093900078
:1045B0002DC02A3021F480919000877FF7CF2B30D7
:1045C00021F48091A0008F770BC02C3021F48091D2
:1045D000A0008F7D05C02D3031F48091A000877F31
:1045E0008093A00013C02E3021F4809120018F779A
:1045F0000BC02F3021F4809120018F7D05C0203128
:1046000029F480912001877F80932001892F90E0F9
:10461000880F991F885E9E4FFC01A591B4918C91E3
:1046200020E030E0842311F021E030E0C90108955A
:10463000FC018091FB06803390F480838F5F809330
:10464000FB06815090E0FC01EE0FFF1FE80FF91F01
:10465000E450F94F88EB9BE09283818308958FEFBC
:1046600080830895FC012081203308F041C08181BE
:10467000992787FD909548E850E0481B590B440F57
:10468000551F440F551F6417750784F082819927C1
:1046900087FD909548E552E0481B590B440F551F84
:1046A000440F551F641775070CF4AB01425050407E
:1046B000CA01AA2797FDA095BA2F44E0880F991F39
:1046C000AA1FBB1F4A95D1F733E0B695A7959795DA
:1046D00087953A95D1F74FB7F89430E0F901EE0F8E
:1046E000FF1FE20FF31FE450F94F928381834FBF06
:1046F0000895FC0180818F3F19F420E030E016C05E
:1047000090E0FC01EE0FFF1FE80FF91FE450F94F96
:104710002181328183E0220F331F8A95E1F7B4E0D3
:1047200036952795BA95E1F72E5F3F4FC901089559
:10473000AF92BF92CF92DF92EF92FF920F931F93AF
:104740008C010E94792300D00F920196AA2797FD31
:10475000A095BA2FF8016181772767FD709528E849
:1047600030E0261B370B220F331F220F331F442745
:1047700037FD4095542F6281772767FD7095E8E5F6
:10478000EE2EE2E0FE2EE61AF70AEE0CFF1CEE0C0F
:10479000FF1C0027F7FC0095102F64EBA62EB12C10
:1047A000C12CD12CEDB7FEB7A182B282C382D482D4
:1047B000BC01CD01AA24BB2465010E944A200F90B0
:1047C0000F900F900F90CB011F910F91FF90EF90E2
:1047D000DF90CF90BF90AF900895AF92BF92CF92ED
:1047E000DF92EF92FF920F931F93CF93DF93EC0131
:1047F0009B0182E0603278070CF048C077FF03C06D
:1048000020E030E005C0653B710514F024EB30E09A
:1048100000D00F92B901882777FD8095982F2981C4
:10482000332727FD3095B8E8AB2EB12CA21AB30A76
:10483000AA0CBB1CAA0CBB1CCC24B7FCC094DC2C5F
:10484000EA81FF27E7FDF09528E532E02E1B3F0BBC
:10485000220F331F220F331F442737FD4095542F5B
:10486000EDB7FEB7218332834383548320E030E0E9
:1048700040E050E0E4EBEE2EF12C012D112D0E94D2
:104880004A209B010F900F900F900F90CE01B9011D
:104890000E943223DF91CF911F910F91FF90EF90F3
:1048A000DF90CF90BF90AF900895CF92DF92EF92BC
:1048B000FF921F93CF93DF93EC01162F7A016901CA
:1048C0008881803308F090C0862F61E00E94D52156
:1048D000888190E0FC01EE0FFF1FE80FF91FE45004
:1048E000F94F1F738081807C812B808380E292E06E
:1048F0008E199F0964E070E00E94BD26698380E6FE
:1049000099E08C199D0964E070E00E94BD266A83DD
:10491000A8818A2F6CE00E949D26682F90E0AC0150
:10492000440F551F480F591F440F551F440F551F63
:1049300020E030E0C901840F951FFC01EE0FFF1F3E
:10494000E80FF91FE450F94F808186FD41C02F5FC9
:104950003F4F2C30310571F750C01092800082E03B
:10496000809381001092850010928400B19A80910A
:104970006F00826080936F002BC0623061F41092F0
:10498000900060939100109295001092940068BB83
:10499000609371001DC0633069F41092A00082E042
:1049A0008093A1001092A5001092A40089BB80936F
:1049B00072000EC0662361F41092200182E08093A1
:1049C000210110922501109224018ABB809373006B
:1049D0008A2F90E0FC01EE0FFF1FE80FF91FE45053
:1049E000F94F8081806480838881DF91CF911F910E
:1049F000FF90EF90DF90CF900895613009F0BDCF28
:104A0000ACCF40E252E020E639E00E945524089500
:104A1000EF92FF920F931F93CF93DF938B017A0155
:104A2000C82FD0E0DE01A457B84F8C9187FF04C097
:104A3000FB011182108237C0AE01440F551F4C0F8D
:104A40005D1F440F551F440F551F2C91332727FD21
:104A50003095240F351F8091FB0690E02817390709
:104A600014F58C91992787FD9095840F951FFC0173
:104A7000EE0FFF1FE80FF91FE450F94F808186FF0A
:104A800012C08C91992787FD9095840F951FFC018A
:104A9000EE0FFF1FE80FF91FE450F94F80818F736D
:104AA00060E00E94FB21DE01A457B84F8C918F5F1C
:104AB0008C93AE01440F551F4C0F5D1F440F551FC3
:104AC000440F551F2C91332727FD3095240F351F98
:104AD0008091FB0690E0281739070CF04DC08C91AF
:104AE0008C300CF049C0F801208131818C919927DC
:104AF00087FD9095840F951FFC01EE0FFF1FE80FB7
:104B0000F91FE450F94F81819281280F391FF70175
:104B1000318320838C91992787FD9095840F951F71
:104B2000FC01EE0FFF1FE80FF91FE450F94F8081E1
:104B300086FF29C08C91992787FD9095840F951F3A
:104B4000FC01EE0FFF1FE80FF91FE450F94F8081C1
:104B50008F7361E00E94FB2116C080E49CE904C0D1
:104B6000F801808191810496F70191838083C45775
:104B7000D84F8FEF888307C0F801808191818454DA
:104B80009C4958F3EDCFDF91CF911F910F91FF908A
:104B9000EF9008951F920F920FB60F920BB60F92DF
:104BA00011242F933F934F935F936F937F938F9332
:104BB0009F93AF93BF93EF93FF9380E064E271E024
:104BC00048E251E00E940825FF91EF91BF91AF911B
:104BD0009F918F917F916F915F914F913F912F9115
:104BE0000F900BBE0F900FBE0F901F9018951F9245
:104BF0000F920FB60F920BB60F9211242F933F9383
:104C00004F935F936F937F938F939F93AF93BF93D4
:104C1000EF93FF9383E064EA70E048EA50E00E947B
:104C20000825FF91EF91BF91AF919F918F917F9157
:104C30006F915F914F913F912F910F900BBE0F900D
:104C40000FBE0F901F9018951F920F920FB60F92E4
:104C50000BB60F9211242F933F934F935F936F9353
:104C60007F938F939F93AF93BF93EF93FF9382E0D4
:104C700064E970E048E950E00E940825FF91EF9157
:104C8000BF91AF919F918F917F916F915F914F9164
:104C90003F912F910F900BBE0F900FBE0F901F9062
:104CA00018951F920F920FB60F920BB60F92112408
:104CB0002F933F934F935F936F937F938F939F9324
:104CC000AF93BF93EF93FF9381E064E870E048E80F
:104CD00050E00E940825FF91EF91BF91AF919F9105
:104CE0008F917F916F915F914F913F912F910F9095
:104CF0000BBE0F900FBE0F901F901895629FD001B2
:104D0000739FF001829FE00DF11D649FE00DF11D86
:104D1000929FF00D839FF00D749FF00D659FF00D35
:104D20009927729FB00DE11DF91F639FB00DE11D22
:104D3000F91FBD01CF0111240895991B79E004C02A
:104D4000991F961708F0961B881F7A95C9F78095CA
:104D50000895AA1BBB1B51E107C0AA1FBB1FA617C2
:104D6000B70710F0A61BB70B881F991F5A95A9F714
:104D700080959095BC01CD01089597FB092E0726DB
:104D80000AD077FD04D0E5DF06D000201AF4709534
:104D900061957F4F0895F6F7909581959F4F0895FF
:104DA000A1E21A2EAA1BBB1BFD010DC0AA1FBB1F2F
:104DB000EE1FFF1FA217B307E407F50720F0A21BA1
:104DC000B30BE40BF50B661F771F881F991F1A940E
:104DD00069F760957095809590959B01AC01BD0138
:104DE000CF01089597FB092E05260ED057FD04D05C
:104DF000D7DF0AD0001C38F45095409530952195A6
:104E00003F4F4F4F5F4F0895F6F7909580957095FF
:104E100061957F4F8F4F9F4F08952F923F924F92F2
:104E20005F926F927F928F929F92AF92BF92CF923A
:104E3000DF92EF92FF920F931F93CF93DF93CDB743
:104E4000DEB7CA1BDB0B0FB6F894DEBF0FBECDBFBB
:104E500019942A88398848885F846E847D848C847C
:104E60009B84AA84B984C884DF80EE80FD800C8195
:104E70001B81AA81B981CE0FD11D0FB6F894DEBF78
:104E80000FBECDBFED010895EE0FFF1F0590F49109
:084E9000E02D1994F894FFCF06
:104E9800636D2F73207C2000636D2F7320202020EA
:104EA800200056207C200056200041202020200091
:104EB800424154303A200020766F6C74732C2000E5
:104EC80020616D70730D0A00424154313A20004947
:104ED8006E76616C6964206F70636F6465002E0084
:104EE80000000000000000000001020203030303A9
:104EF8000404040404040404050505050505050562
:104F08000505050505050505060606060606060641
:104F18000606060606060606060606060606060629
:104F28000606060606060606070707070707070711
:104F380007070707070707070707070707070707F9
:104F480007070707070707070707070707070707E9
:104F580007070707070707070707070707070707D9
:104F680007070707070707070808080808080808C1
:104F780008080808080808080808080808080808A9
:104F88000808080808080808080808080808080899
:104F98000808080808080808080808080808080889
:104FA8000808080808080808080808080808080879
:104FB8000808080808080808080808080808080869
:104FC8000808080808080808080808080808080859
:104FD8000808080808080808080808080808080849
:104FE80008080808080808080100000000350C59DE
:104FF8000C00000000F10F9B1CB31C00000000B85F
:0E5008001B9B1CB31C561B841BAC1B6A1B009D
:00000001FF
