:100000000C9404010C94EC170C941D180C944E18CD
:100010000C947F180C94B0180C94E1180C941219DD
:100020000C9443190C9435010C9435010C94350152
:100030000C9435010C9435010C9435010C94CA08CC
:100040000C9435010C94E51E0C9435010C9435018B
:100050000C9435010C9435010C9435010C94BD19A8
:100060000C9435010C9453140C9435010C94350107
:100070000C9435010C9435010C9435010C94350128
:100080000C94B81E0C9435010C9435010C94350178
:100090000C947F140C9435010C9435010C943501AB
:1000A0000C9435010C9435010C948B1E0C94350185
:1000B0000C9435010C9435010C9435010C945E1EA2
:1000C0000C9435010C9435010C9435010C94AB144F
:1000D0000C9435010C9435010C94D7140C94350113
:1000E0000C94350100002100240027002A002D0077
:1000F0003000330001010000040107010A01000083
:100100002200250028002B002E00310034000201BF
:100110000000050108010B0100002000230026005B
:1001200029002C002F00320000010000030106010D
:10013000090105050505070508080808020202026D
:100140000A0A080804040404010101010101010173
:100150000303030303030303040707070C0C0C0C3E
:100160000C0C0C0C02020202060606060606060627
:100170000B0B0B0B0B0B0B0B0102102020080810B4
:100180002040102040800201020108040201010207
:1001900004081020408080402010080402018004E0
:1001A000020180402010080402010804020101023B
:1001B0000408102040800102040810204080000044
:1001C000090A02080B0C0D070603040100000000D9
:1001D000000000000000000000000000000000001F
:1001E00000000000000000000000100F0E000000E2
:1001F00000000000000000000000000000000000FF
:10020000000000009F0F691611241FBECFEFD1E23E
:10021000DEBFCDBF00E00CBF13E0A0E0B2E0ECEB2E
:10022000FFE300E00BBF02C007900D92A432B107BC
:10023000D9F717E0A4E2B3E001C01D92A136B107DF
:10024000E1F712E0C8E0D2E000E006C02297010921
:10025000FE010BBF0E94D81FC430D10780E0080701
:10026000A9F70E948E0D0C94DC1F0C940000A0E0F6
:10027000B0E0EDE3F1E00C94A51FFC01EA01808100
:10028000823008F438C1DB019C91923008F430C10F
:10029000843059F4943009F02EC1918111968C91DB
:1002A0001197981709F021C126C1943009F420C193
:1002B0009230B1F4823009F01EC1CA01AF0128E0CA
:1002C000DA010D90AD01DC010D92CD012150C1F795
:1002D000DB0111968C9111979181892389830AC141
:1002E000823009F405C1C280D380DB0112966D9083
:1002F0007C90139724813581468157811496ED9027
:10030000FD900D911C911797C601861997095C0104
:1003100097FF04C0AA24BB24A81AB90AB0E2AB16FE
:10032000B1040CF061C0181619066CF537014801CC
:100330000A2C04C096948794779467940A94D2F711
:1003400081E090E0A0E0B0E00A2C04C0880F991F83
:10035000AA1FBB1F0A94D2F70197A109B1098E21E8
:100360009F21A023B123EE24FF248701E39400976B
:10037000A105B10519F4EE24FF248701E628F7282A
:10038000082919293CC00097D1F1CA0CDB1C39019E
:100390004A010A2C04C096948794779467940A942F
:1003A000D2F781E090E0A0E0B0E00A2C04C0880F12
:1003B000991FAA1FBB1F0A94D2F70197A109B1097F
:1003C00082239323A423B52321E030E040E050E0D2
:1003D0000097A105B10519F420E030E0A901262914
:1003E0003729482959290BC06C147D0424F4EE24C4
:1003F000FF24870104C0630120E030E0A90181816E
:10040000FB019181891709F445C0882349F0D8017F
:10041000C701821B930BA40BB50B9C01AD0104C05B
:100420002E193F09400B510B57FD04C01982DB8286
:10043000CA820BC081E08983DB82CA8250954095D5
:10044000309521953F4F4F4F5F4F2C833D834E8317
:100450005F830DC0880F991FAA1FBB1F8C839D83CC
:10046000AE83BF838A819B8101979B838A838C8122
:100470009D81AE81BF819C01AD0121503040404043
:1004800050402F3FEFEF3E07EFEF4E07EFE35E07E1
:1004900008F30BC08983DB82CA822E0D3F1D401FEB
:1004A000511F2C833D834E835F8383E088832C819F
:1004B0003D814E815F8157FF1DC0DA01C901817006
:1004C0009070A070B0705695479537952795822B00
:1004D000932BA42BB52B8C839D83AE83BF838A8102
:1004E0009B8101969B838A8305C0E0E0F2E003C014
:1004F000FB0101C0FE01CF01CDB7DEB7EEE00C94E9
:10050000C11FA0E2B0E0E7E8F2E00C94AD1F698300
:100510007A838B839C832D833E834F83588789E026
:10052000E82EF12CEC0EFD1ECE010196B7010E94C3
:10053000C9078E010F5E1F4FCE010596B8010E94BC
:10054000C907C701B801AE01475E5F4F0E9437017E
:100550000E94FB06A096E6E00C94C91FA0E2B0E062
:10056000E4EBF2E00C94AD1F69837A838B839C8368
:100570002D833E834F8358878E01075F1F4FCE0127
:100580000196B8010E94C90791E1E92EF12CEC0E09
:10059000FD1ECE010596B7010E94C9078A8991E028
:1005A00089278A8BC801B701AE01475E5F4F0E9461
:1005B00037010E94FB06A096E6E00C94C91FA0E25A
:1005C000B0E0E5EEF2E00C94A11F69837A838B839F
:1005D0009C832D833E834F835887CE010196BE01B5
:1005E000675F7F4F0E94C907CE010596BE016F5E0F
:1005F0007F4F0E94C9079985923078F089898230AF
:10060000C0F0943019F4823041F4CBC0843019F436
:10061000923079F4C6C0923051F481E02A859A89EB
:10062000291709F480E08A87CE010996BCC0823080
:1006300051F481E02A859A89291709F480E08A8B90
:10064000CE014196B0C06D847E848F849888ED88F9
:10065000FE880F89188DE0E2F0E080E090E0DC0198
:10066000AA24BB24650120E030E0A901B301617038
:10067000707061157105D1F02E0D3F1D401F511F87
:1006800015012601280E391E4A1E5B1E81E090E0EE
:10069000A0E0B0E02E153F054007510718F080E0BC
:1006A00090E0DC01820D931DA41DB51DAA0CBB1C9E
:1006B000CC1CDD1C17FF09C061E0262E312C412C1B
:1006C000512CA228B328C428D528319749F0EE0C24
:1006D000FF1C001F111F9694879477946794C6CFD0
:1006E0006B897C89EB85FC856E0F7F1F6E5F7F4F6A
:1006F0007C8F6B8F61E0EA857A89E71709F460E007
:100700006A8F6B8D7C8D10C0FC01E170F0703097AA
:1007100029F056954795379527955068B695A79532
:10072000979587956F5F7F4FB7FDEECF0CC0880F11
:10073000991FAA1FBB1F57FD8160220F331F441F43
:10074000551F615070408030E0E09E07E0E0AE074A
:10075000E0E4BE0760F36B8F7C8F6FE7E62EF12C31
:10076000012D112DE822F9220A231B2360E4E6164D
:10077000F1040105110561F487FD0AC02115310559
:100780004105510529F0805C9F4FAF4FBF4F8078E6
:100790008D8F9E8FAF8FB8A383E0898FCE0149964E
:1007A00002C080E092E00E94FB06A096E2E10C9479
:1007B000BD1FA8E1B0E0EFEDF3E00C94A91F698341
:1007C0007A838B839C832D833E834F8358878E014E
:1007D000075F1F4FCE010196B8010E94C90781E152
:1007E000E82EF12CEC0EFD1ECE010596B7010E94FD
:1007F000C9079985923008F483C08989823008F44A
:100800007BC02A853A8923272A87943011F09230B9
:1008100021F4981709F06CC071C0843039F41D863A
:100820001E861F86188A1C861B866AC0823019F4B1
:1008300084E0898765C08B859C852B893C89821BD8
:10084000930B9C878B872D853E854F855889ED8836
:10085000FE880F89188D2E153F054007510738F483
:10086000220F331F441F551F01979C878B876FE111
:1008700070E0A12CB12CC12CA0E4DA2E80E090E035
:10088000DC012E153F054007510740F08A299B29BE
:10089000AC29BD292E193F09400B510BD694C794A2
:1008A000B794A794220F331F441F551F6150704007
:1008B00041F76FE7E62EF12C012D112DE822F922E8
:1008C0000A231B2360E4E616F1040105110561F417
:1008D00087FD0AC0211531054105510529F0805CCD
:1008E0009F4FAF4FBF4F80788D879E87AF87B88B64
:1008F0008E01075F1F4F04C0870102C000E012E0B5
:10090000C8010E94FB066896EAE00C94C51FA8E1A6
:10091000B0E0EDE8F4E00C94AD1F69837A838B833B
:100920009C832D833E834F8358878E01075F1F4F23
:10093000CE010196B8010E94C90781E1E82EF12C91
:10094000EC0EFD1ECE010596B7010E94C9078985F0
:10095000823040F08989823028F0C801B7010E94B6
:10096000320801C081E06896E6E00C94C91FA8E156
:10097000B0E0EDEBF4E00C94AD1F69837A838B83D8
:100980009C832D833E834F8358878E01075F1F4FC3
:10099000CE010196B8010E94C90781E1E82EF12C31
:1009A000EC0EFD1ECE010596B7010E94C907898590
:1009B000823040F08989823028F0C801B7010E9456
:1009C000320801C08FEF6896E6E00C94C91FA8E1D9
:1009D000B0E0EDEEF4E00C94AD1F69837A838B8375
:1009E0009C832D833E834F8358878E01075F1F4F63
:1009F000CE010196B8010E94C90781E1E82EF12CD1
:100A0000EC0EFD1ECE010596B7010E94C90789852F
:100A1000823040F08989823028F0C801B7010E94F5
:100A2000320801C08FEF6896E6E00C94C91FA8E178
:100A3000B0E0EDE1F5E00C94AD1F69837A838B8320
:100A40009C832D833E834F8358878E01075F1F4F02
:100A5000CE010196B8010E94C90781E1E82EF12C70
:100A6000EC0EFD1ECE010596B7010E94C9078985CF
:100A7000823040F08989823028F0C801B7010E9495
:100A8000320801C081E06896E6E00C94C91FA8E135
:100A9000B0E0EDE4F5E00C94AD1F69837A838B83BD
:100AA0009C832D833E834F8358878E01075F1F4FA2
:100AB000CE010196B8010E94C90781E1E82EF12C10
:100AC000EC0EFD1ECE010596B7010E94C90789856F
:100AD000823040F08989823028F0C801B7010E9435
:100AE000320801C081E06896E6E00C94C91FA8E0D6
:100AF000B0E0EDE7F5E00C94AD1F7B018C0183E0E5
:100B00008983D801C7018827B7FD83959927AA272C
:100B1000BB27282F8A83E114F1040105110519F47C
:100B200082E0898337C08EE190E09C838B8322230F
:100B300089F080E0E81680E0F80680E0080780E8A9
:100B4000180769F110950095F094E094E11CF11CF0
:100B5000011D111DED82FE820F831887C801B701A8
:100B60000E94A1069C01215030401216130694F4F5
:100B7000022E04C0EE0CFF1C001F111F0A94D2F7B6
:100B8000ED82FE820F8318878EE190E0821B930B2B
:100B90009C838B83CE0101960E94FB0604C060E01B
:100BA00070E080E09FEC2896E6E00C94C91FACE072
:100BB000B0E0EDEDF5E00C94B11F69837A838B838F
:100BC0009C83CE010196BE016B5F7F4F0E94C907D7
:100BD0008D81823081F1823070F1843021F48E81F8
:100BE000882369F10AC02F81388537FD24C06E81C2
:100BF0002F3131053CF0662311F120E030E040E078
:100C000050E821C08EE190E0821B930B29853A8544
:100C10004B855C8504C056954795379527958A95F1
:100C2000D2F7662381F050954095309521953F4F3E
:100C30004F4F5F4F08C020E030E0A90104C02FEF04
:100C40003FEF4FEF5FE7B901CA012C96E2E00C9449
:100C5000CD1FA8E0B0E0EFE2F6E00C94AB1F7B0103
:100C60008C011A82611571058105910519F482E0E4
:100C700089835FC083E089838EE1C82ED12CDC821A
:100C8000CB82ED82FE820F831887C801B7010E94D4
:100C9000A106FC013197F7FF3AC0AA27BB27AE1B7C
:100CA000BF0B21E030E040E050E00A2E04C0220FEC
:100CB000331F441F551F0A94D2F721503040404043
:100CC00050402E213F214023512361E070E080E01D
:100CD00090E0211531054105510519F460E070E0FF
:100CE000CB0104C016950795F794E794AA95D2F71F
:100CF000E62AF72A082B192BED82FE820F8318872C
:100D00008EE190E08E1B9F0B9C838B8312C03097EB
:100D100081F00E2E04C0EE0CFF1C001F111F0A9460
:100D2000D2F7ED82FE820F831887CE1ADF0ADC82AB
:100D3000CB82CE0101960E94FB062896E8E00C9437
:100D4000C71FAF92BF92CF92DF92EF92FF920F93A5
:100D50001F937B018C0180E0E81680E0F80681E0BB
:100D6000080780E0180758F4EFEFEE16F1040105CC
:100D7000110509F090F480E090E0DC0117C0F0E08C
:100D8000EF16F0E0FF06F0E00F07F1E01F0750F468
:100D900080E190E0A0E0B0E009C088E090E0A0E051
:100DA000B0E004C088E190E0A0E0B0E020E230E0F4
:100DB00040E050E0281B390B4A0B5B0B57016801E0
:100DC00004C0D694C794B794A7948A95D2F7D60155
:100DD000C501885F9D4FFC018081281B31094109B5
:100DE0005109C9011F910F91FF90EF90DF90CF90B3
:100DF000BF90AF900895EF92FF920F931F93CF9300
:100E0000DF93FC0124813581468157816181808196
:100E1000823020F44061EFEFF0E0A3C0843009F4A9
:100E20009BC0823009F492C021153105410551055E
:100E300009F48FC00280F381E02D8FEFE238F807CC
:100E40000CF05AC0C2E8DFEFCE1BDF0BCA31D10570
:100E50006CF579018A010C2E04C016950795F7945C
:100E6000E7940A94D2F781E090E0A0E0B0E00C2E85
:100E700004C0880F991FAA1FBB1F0A94D2F70197BD
:100E8000A109B10982239323A423B52321E030E0F3
:100E900040E050E00097A105B10519F420E030E0F2
:100EA000A9012E293F29402B512B03C020E030E01F
:100EB000A901DA01C9018F779070A070B0708034F9
:100EC0009105A105B10539F427FF09C0205C3F4F0A
:100ED0004F4F5F4F04C0215C3F4F4F4F5F4FE1E0EA
:100EE000F0E0203080E0380780E0480780E45807D1
:100EF00028F5E0E0F0E022C0E038F1056CF5E158BB
:100F0000FF4FDA01C9018F779070A070B070803404
:100F10009105A105B10539F427FF09C0205C3F4FB9
:100F20004F4F5F4F04C0215C3F4F4F4F5F4F57FF04
:100F300005C05695479537952795319687E0569584
:100F40004795379527958A95D1F70BC0E0E0F0E0FB
:100F500005C0E0E0F0E005C0EFEFF0E020E030E0B9
:100F6000A9018E2F879588278795942F9F7767955E
:100F700066276795E695E22EA92FA82BFE2FF62B64
:100F8000622F732F8A2F9F2FCDB7DEB7E6E00C9428
:100F9000C91FDC01FB012C9111963C91119712960F
:100FA0008C911297482F4F7750E0982F991F9927CF
:100FB000991F13966C911397862F880F892B90E0B9
:100FC000661F6627661F6183009739F52115310575
:100FD0004105510511F482E029C082E89FEF938317
:100FE000828367E0220F331F441F551F6A95D1F794
:100FF00083E0808309C0220F331F441F551F828165
:101000009381019793838283203080E0380780E0CA
:10101000480780E4580778F320C08F3F910579F4A2
:10102000211531054105510519F484E080830895A7
:1010300044FF03C081E0808310C010820EC08F5730
:1010400090409383828383E0808387E0220F331F65
:10105000441F551F8A95D1F75064248335834683F6
:1010600057830895FC01DB019081923008F449C058
:101070008C91823008F445C0943051F46181843001
:10108000B1F511962C91119730E0261B310941C022
:10109000843021F0923041F48230B1F111968C917C
:1010A00011978823A1F12DC06181823001F1119641
:1010B0008C9111976817D9F42281338112968D9102
:1010C0009C9113978217930794F028173907BCF067
:1010D000248135814681578114968D919D910D9083
:1010E000BC91A02D82179307A407B50718F46623B7
:1010F00041F00DC0281739074A075B0728F466231B
:1011000031F021E030E005C020E030E002C02FEFF8
:101110003FEFC901089580912A0390912B03A0917C
:101120002C03B0912D030196A11DB11D80932A03BC
:1011300090932B03A0932C03B0932D0320912A03AB
:1011400030912B0340912C0350912D038091240367
:1011500090912503A0912603B09127032817390702
:101160004A075B07B0F080912E03882391F481E059
:1011700080932E0310922A0310922B0310922C03BB
:1011800010922D03E0912803F091290319951092F4
:101190002E0308951F920F920FB60F920BB60F9267
:1011A00011242F933F934F935F936F937F938F936C
:1011B0009F93AF93BF93EF93FF930E948B08FF9190
:1011C000EF91BF91AF919F918F917F916F915F91BF
:1011D0004F913F912F910F900BBE0F900FBE0F902C
:1011E0001F901895FC01718360830895FC010190A4
:1011F000F081E02D44835583668377830895FC0155
:101200000190F081E02D2085318542855385B9011B
:10121000CA0108956F927F928F929F92AF92BF9270
:10122000CF92DF92EF92FF920F931F93CF93DF93B2
:10123000FC013A014B01C081D181688179818A81A9
:101240009B812C813D814E815F810E94AE026C8B1F
:101250007D8B8E8B9F8BA40193010E94DF022C85D6
:101260003D854E855F850E9481025B016C016C8724
:101270007D878E879F87ECA0FDA00EA11FA1A801EE
:1012800097010E94B704181664F017FB109517F920
:101290001095C601B501A80197010E941705882382
:1012A00024F4EC86FD860E871F87AC88BD88CE8827
:1012B000DF88C601B501288D398D4A8D5B8D0E946E
:1012C000DF027B018C016C8D7D8D8E8D9F8D2C8539
:1012D0003D854E855F850E94DF029B01AC01C80100
:1012E000B7010E9481027B018C01C601B5012889EA
:1012F00039894A895B890E94AE0228A139A14AA195
:101300005BA10E94DF02A40193010E94D9039B010B
:10131000AC01C801B7010E948102688779878A877A
:101320009B87A88AB98ACA8ADB8ADF91CF911F91ED
:101330000F91FF90EF90DF90CF90BF90AF909F9074
:101340008F907F906F900895FC018081882331F009
:101350008181928164810E94FB0C03C084810E9480
:10136000C11ABC0180E090E00E94290624E739EB15
:1013700048E05EE30E94DF020895FC01808188233B
:1013800031F08181928163810E94FB0C03C08381D3
:101390000E94C11ABC0180E090E00E94290620E072
:1013A00030E04DE95DE30E94DF020895CF93DF93C3
:1013B000EC016115710511F4188204C081E0888385
:1013C0007A8369834423B9F02223A9F04B832C83C9
:1013D0008881882381F4842F60E00E94F51A8C8133
:1013E00060E00E94F51A8B8160E00E941B1B8C81DB
:1013F00060E00E941B1BDF91CF910895362F242FB0
:1014000060E070E0432F0E94D6090895DF93CF93E8
:1014100000D00F920F92CDB7DEB7CE01019660E0FB
:1014200040E00E94FE090F900F900F900F900F90D8
:10143000CF91DF9108950F931F93CF93DF93EC012A
:101440008A81882361F0888199816B810E94FB0CDD
:101450008C01888199816C810E94FB0C07C08B8173
:101460000E94C11A8C018C810E94C11A081B190BA1
:10147000B801882777FD8095982F0E9477052985E8
:101480003A854B855C850E94DF022D813E814F812C
:1014900058850E94AE02DF91CF911F910F91089560
:1014A000CF92DF92EF92FF920F931F936B0179011E
:1014B0008A010E941B0AF6016083718382839383F1
:1014C000A80197010E94DF029B01AC01F601648133
:1014D0007581868197810E948102F60164837583FC
:1014E000868397831F910F91FF90EF90DF90CF90AD
:1014F0000895AF92BF92CF92DF92EF92FF920F9337
:101500001F93CF93DF93EC017B01442309F056C076
:1015100080E090E0A0E0B0E08D839E83AF83B88749
:10152000CC24DD243AC08A81882361F088819981A6
:101530006B810E94FB0C8C01888199816C810E94D7
:10154000FB0C07C08B810E94C11A8C018C810E9408
:10155000C11A081B190BB801882777FD8095982FB1
:101560000E94770529853A854B855C850E94DF02BC
:101570009B01AC016D817E818F8198850E948102E3
:101580006D837E838F83988761E070E080E090E0D8
:101590000E94391A0894C11CD11CCE14DF0418F221
:1015A000B70180E090E00E9429069B01AC016D81AB
:1015B0007E818F8198850E94D9034FC080E090E0A2
:1015C0000E9429065B016C010894E108F108B7014B
:1015D00080E090E00E942906A60195010E94D903AF
:1015E0009B01AC016D817E818F8198850E94DF0215
:1015F0006D837E838F8398878A81882361F08881B9
:1016000099816B810E94FB0C8C01888199816C818E
:101610000E94FB0C07C08B810E94C11A8C018C8137
:101620000E94C11A081B190BB801882777FD809505
:10163000982F0E94770529853A854B855C850E9405
:10164000DF02A60195010E94D9039B01AC016D81C7
:101650007E818F8198850E9481026D837E838F8336
:101660009887DF91CF911F910F91FF90EF90DF90BE
:10167000CF90BF90AF900895EF92FF920F931F937A
:101680007C01862FF70163834483018712872387B8
:101690003487128260E00E94F51AF701848160E0CD
:1016A0000E94F51AF701838160E00E941B1BF7017D
:1016B000848160E00E941B1B1F910F91FF90EF90AF
:1016C0000895FC01A081B18112962D913C91139750
:1016D0006AEAF90119950895EF92FF920F931F930B
:1016E0008C01F62EE42EDC01ED91FC911197028025
:1016F000F381E02D15966C911995D801ED91FC912F
:101700000280F381E02DC8016F2D1995D801ED916C
:10171000FC910280F381E02DC8016E2D1995D8014E
:10172000ED91FC91119715968C91F80EFE0CBFE788
:10173000FB220280F381E02DC8016F2D19951F91C6
:101740000F91FF90EF90089547FD4FE70E946C0BBB
:101750000895FC01262F332727FD309531872087F8
:1017600067FD03C060E0422F05C044275527421B98
:10177000530B61E00E94A40B0895FC01262F332730
:1017800027FD30953783268367FD03C064E0422F31
:1017900005C044275527421B530B65E00E94A40B4C
:1017A0000895EF92FF920F931F938C01F62EE42E73
:1017B0000E94610BC8016F2D0E94BD0BC8016E2DE8
:1017C0000E94A90B1F910F91FF90EF9008950F9326
:1017D000DC01222319F4EFEFFFEF02C0E1E0F0E0BB
:1017E000002319F42FEF3FEF02C021E030E0862FF5
:1017F000992787FD9095E89FB001E99F700DF89FAC
:10180000700D1124842F992787FD9095289FA001A2
:10181000299F500D389F500D1124CD010E94D10BEE
:101820000F9108950F93FB01208131814FEF2138F3
:10183000340714F461E806C0B9012038310514F00A
:101840006FE770E0228133814FEF2138340714F4C1
:1018500041E806C0A9012038310514F04FE750E0F7
:10186000248105810E94E70B0F9108950F931F9328
:10187000CF93DF93DC0112968C911297882309F0A5
:1018800051C01FB7F8941B96ED91FC911C97908165
:101890001A968C911A9780958923808387E790E028
:1018A00020E001972FEF8F3F9207D9F731E040E01A
:1018B00050E070E0C2E7D0E000E0832F90E08623A4
:1018C00097231B96ED91FC911C971A962C911A97D1
:1018D000892B21F08081822B808304C08081209518
:1018E00028232083CE01202F01972FEF8F3F9207CF
:1018F000D9F7330F4F5F5F4F48305105F1F61B9614
:10190000ED91FC911C9780811A969C91892B808384
:101910001FBF82E790E020E001972FEF8F3F9207F3
:10192000D9F70BC01396ED91FC911497A081B1816A
:101930002D913C91CF01F9011995DF91CF911F9124
:101940000F9108950F931F938C01CA012DE033E08E
:10195000F8013183208354834383658321E022830C
:1019600040E05BE460E070E00E940315C8010E9463
:10197000610B1F910F910895AF92BF92CF92DF92AA
:10198000EF92FF920F931F93DF93CF930F92CDB7F8
:10199000DEB78C01962F603108F09FE0F801858159
:1019A0009817D9F07801AA24BB24C92EDD24B601EA
:1019B0000A2C02C0759567950A94E2F76170F701E9
:1019C00081917F0199830E941B1B0894A11CB11C6B
:1019D0009981F4E0AF16B10451F7F80195830F90A7
:1019E000CF91DF911F910F91FF90EF90DF90CF90FB
:1019F000BF90AF9008950F931F938C010E94BC0C71
:101A0000F80184810E94C11A1F910F910895CF930C
:101A1000DF93EC01288139814A815B8188898823A1
:101A200029F081E090E0A0E0B0E004C08FEF9FEFEC
:101A3000AFEFBFEF820F931FA41FB51F8883998359
:101A4000AA83BB8388859985AA85BB858C879D875A
:101A5000AE87BF870E94131A688779878A879B871A
:101A6000DF91CF91089589B190E08170907080935B
:101A7000C30383EB93E00E94070D089581E04A9928
:101A800080E08093AA038AE993E00E94070D0895FD
:101A9000EF92FF920F931F93CF93DF93EC017A01A4
:101AA0008B01688179818A819B812C813D814E8166
:101AB0005F81621B730B840B950B0E9477052D8948
:101AC0003E894F89588D0E94DF02A80197010E942C
:101AD000D9039B01AC01298B3A8B4B8B5C8B8881A2
:101AE0009981AA81BB818C839D83AE83BF83DF9163
:101AF000CF911F910F91FF90EF900895CF93DF93B7
:101B0000EC010E94060ACE010D960E94AC1BCE018C
:101B100040960E94AC1BDF91CF910895AF92BF9287
:101B2000CF92DF92EF92FF920F931F93DF93CF93A9
:101B300000D00F92CDB7DEB70E945F1A87E696E01D
:101B400040E052EC61E070E00E94031587E393E00F
:101B500060E070E04AE02BE00E94D60984E493E064
:101B60006AE570E00E94811C84E493E066E170E025
:101B70000E94951D87E493E06AE570E00E94811C55
:101B800087E493E067E170E00E94951D0F2EFAE96B
:101B9000EF2EF9E9FF2EF9E10F2FFFE31F2FF02DB4
:101BA000E0926203F0926303009364031093650371
:101BB0002DEC3CEC4CEC5DE3209366033093670323
:101BC000409368035093690380E090E0DC018093C8
:101BD0006A0390936B03A0936C03B0936D030F2E75
:101BE000F0E0AF2EF0E0BF2EFEEFCF2EF2E4DF2EBE
:101BF000F02DA0926E03B0926F03C0927003D0924A
:101C00007103E0928A03F0928B0300938C0310938C
:101C10008D0320938E0330938F0340939003509352
:101C200091038093920390939303A0939403B093B2
:101C30009503A0929603B0929703C0929803D09216
:101C400099038FE692E1A3E8BBE38093AF039093FF
:101C5000B003A093B103B093B2038093C8039093F1
:101C6000C903A093CA03B093CB031092D003109280
:101C7000D10384E1898385E18A8382E18B8383E1D7
:101C80008C838E010F5F1F4F85E0E82EF12CEC0E48
:101C9000FD1EF801A1908F018A2D60E00E94F51AC7
:101CA0008A2D60E00E941B1B0E151F0591F785E031
:101CB0006EE37DE043E050E00E94701783E063E351
:101CC0007DE043E050E00E94701786ED93E068EEFF
:101CD00073E040E00E94790A0E94051A6093330382
:101CE00070933403809335039093360380EF93E031
:101CF0000E948A1320912F033091300340913103C9
:101D00005091320360913303709134038091350315
:101D1000909136036217730784079507E8F26C59B0
:101D20007F4F8F4F9F4F621B730B840B950B0E944D
:101D300029062FE632E143E85AE30E94DF027B01E5
:101D40008C0186ED93E06CE373E02E2D3F2D402F48
:101D5000512F0E94500AA0903C03B0903D03C090C8
:101D60003E03D0903F03C601B50120E030E0A90159
:101D70000E94B70418165CF4C601B5012FE632E1E3
:101D800043E85AE30E94470518165CF42FC0C601C9
:101D9000B5012FE632E143E85AEB0E94E70487FDE4
:101DA00025C06091AB037091AC038091AD0390911D
:101DB000AE0320E030E0A9010E9487048823B1F43B
:101DC0006091C4037091C5038091C6039091C703CD
:101DD00020E030E0A9010E948704882339F486EDD1
:101DE00093E068EE73E041E00E94790A8AE993E0AB
:101DF0004E2D5F2D602F712F0E94480D83EB93E0D5
:101E00004E2D5F2D602F712F0E94480D4091AB0326
:101E10005091AC036091AD037091AE0382ED93E0FD
:101E20000E94F6084091C4035091C5036091C60317
:101E30007091C70384ED93E00E94F60882ED93E071
:101E40004E2D5F2D602F712F0E940A0984ED93E0C3
:101E50004E2D5F2D602F712F0E940A096091CC03D7
:101E60007091CD03882777FD8095982F0E94770584
:101E70007B018C0182ED93E00E94FF089B01AC0185
:101E8000C801B7010E9481020E94D7057093CD035B
:101E90006093CC036091CE037091CF03882777FDC8
:101EA0008095982F0E9477057B018C0184ED93E04B
:101EB0000E94FF089B01AC018091CC039091CD035F
:101EC0008038910514F08FE790E0FFEF81389F078D
:101ED00014F481E89FEF9093CD038093CC03C80165
:101EE000B7010E9481020E94D7056038710514F085
:101EF0006FE770E08FEF6138780714F461E87FEFE7
:101F00007093CF036093CE0383EE93E06CEC73E0A9
:101F10000E94120C8091330390913403A0913503F9
:101F2000B09136038C599F4FAF4FBF4F80932F0313
:101F300090933003A0933103B0933203CDCE0F932F
:101F40001F93CF93DF93C7E3D3E0CE010E947E0DB2
:101F5000BE016D5E7F4F82ED93E00E94F208BE01EC
:101F6000655C7F4F84ED93E00E94F20886ED93E07C
:101F700069E048E008E510EA2BE03DE30E943C0BF5
:101F800083EE93E060E840EA56E00E94A20C80EF06
:101F900093E0BE0147E656E00E948711DF91CF91A2
:101FA0001F910F910895FC01DB0180818C93818149
:101FB00011968C931197328120E0838190E0822BDF
:101FC000932B13969C938E931297348120E08581F6
:101FD00090E0822B932B15969C938E9314973681C9
:101FE00020E0878190E0822B932B17969C938E9311
:101FF0001697308520E0818590E0822B932B1996EF
:102000009C938E931897328520E0838590E0822BF5
:10201000932B1B969C938E931A97348520E085858D
:1020200090E0822B932B1D969C938E931C97268574
:1020300030E040E050E0522F4427332722276785C5
:1020400070E080E090E0CB0177276627262B372BC6
:10205000482B592B618970E080E090E0262B372BCC
:10206000482B592B708960E080E090E0262B372BBD
:10207000482B592B1E962D933D934D935C9351976E
:10208000228930E040E050E0522F442733272227B6
:10209000638970E080E090E0CB0177276627262BEC
:1020A000372B482B592B658970E080E090E0262B78
:1020B000372B482B592B748960E080E090E0262B69
:1020C000372B482B592B52962D933D934D935C9370
:1020D0005597368920E0878990E0822B932B57967D
:1020E0009C938E935697308D20E0818D90E0822BCB
:1020F000932B59969C938E935897828D5A968C93D6
:102100005A97838D5B968C935B97348D20E0858DF9
:1021100090E0822B932B5D969C938E935C97368DEB
:1021200020E0878D90E0822B932B5F969C938E937B
:102130005E9730A120E081A190E0822B932B9196B5
:102140009C938E93909732A120E083A190E0822B04
:10215000932B93969C938E93929734A120E085A124
:1021600090E0822B932B95969C938E93949736A117
:1021700020E087A190E0822B932B97969C938E93DF
:10218000969730A520E081A590E0822B932B99961D
:102190009C938E93989732A520E083A590E0822BA4
:1021A000932B9B969C938E939A970895FC01DB0149
:1021B00080818C93818111968C93119783811296E3
:1021C0008C931297828113968C9313978581149622
:1021D0008C931497848115968C9315978781169606
:1021E0008C931697868117968C93179781851896EE
:1021F0008C931897808519968C93199783851A96D6
:102200008C931A9782851B968C931B9785851C96B9
:102210008C931C9784851D968C931D9781891E969F
:102220008C931E9780891F968C931F978785509655
:102230008C935097868551968C93519785895296A9
:102240008C935297848953968C9353978389549691
:102250008C935497828955968C9355978789569677
:102260008C935697868957968C935797818D58965D
:102270008C935897808D59968C935997828D5A9646
:102280008C935A97838D5B968C935B97858D5C9628
:102290008C935C97848D5D968C935D97878D5E960D
:1022A0008C935E97868D5F968C935F9781A19096B5
:1022B0008C93909780A191968C93919783A19296FD
:1022C0008C93929782A193968C93939785A19496E1
:1022D0008C93949784A195968C93959787A19696C5
:1022E0008C93969786A197968C93979781A59896AD
:1022F0008C93989780A599968C93999783A59A9695
:102300008C939A9782A59B968C939B970895FC013A
:102310007283618350AB47A71082DC01A25ABF4F82
:1023200081E08C93E15AFF4F108211821282138256
:102330000895EF92FF920F931F93DF93CF93CDB742
:10234000DEB7AC970FB6F894DEBF0FBECDBF7C01F1
:10235000CB018E010F5F1F4FB8010E94D610F8010C
:10236000CE018D963DE320812C3311F02E3309F4FC
:1023700030833196E817F907B1F7D7019F968D9111
:102380009C91D097DC01ED91FC910190F081E02DC2
:102390006CE31995F701A7A5B0A9ED91FC911197F0
:1023A0000480F581E02DCD01BE016F5F7F4F4CE2CF
:1023B00050E01995D7019F968D919C91D097DC01A3
:1023C000ED91FC910190F081E02D6EE31995AC96B2
:1023D0000FB6F894DEBF0FBECDBFCF91DF911F9136
:1023E0000F91FF90EF900895EF92FF920F931F933C
:1023F000CF93DF93EB018A016881CA010D9670E0EB
:102400000E94811C6981C801409670E00E94811C75
:1024100058E7E52EF12CE00EF11E6E897F898827A2
:1024200077FD8095982F0E94770527E137EB41EDE6
:1024300058E30E94DF02F7016083718382839383F4
:1024400041E9E42EF12CE00EF11E688D798D88278C
:1024500077FD8095982F0E94770527E137EB41EDB6
:1024600058E30E94DF02F7016083718382839383C4
:102470006C8D7D8D882777FD8095982F0E9477053C
:102480002AE037ED43E25CE30E94DF02F80163A734
:1024900074A785A796A76E8D7F8D882777FD809579
:1024A000982F0E9477052AE037ED43E25CE30E9413
:1024B000DF02F80167A770AB81AB92AB68A179A18D
:1024C000882777FD8095982F0E9477052AE037EDC1
:1024D00043E25CE30E94DF02F80163AB74AB85ABBF
:1024E00096AB6AA17BA1882777FD8095982F0E94E3
:1024F00077052DEC3CEC4CEC5DE30E94DF02F8012B
:10250000638B748B858B968B33E5E32EF12CE00E79
:10251000F11E6CA17DA1882777FD8095982F0E94E0
:1025200077052AE037ED43E25CE30E94DF02F70122
:10253000608371838283938327E5E22EF12CE00E82
:10254000F11E6EA17FA1882777FD8095982F0E94AC
:1025500077052AE037ED43E25CE30E94DF02F701F2
:1025600060837183828393839BE5E92EF12CE00ED7
:10257000F11E68A579A5882777FD8095982F0E9480
:1025800077052AE037ED43E25CE30E94DF02F701C2
:1025900060837183828393836AA57BA5882777FDF7
:1025A0008095982F0E9477052DEC3CEC4CEC5DE378
:1025B0000E94DF02F80163AF74AF85AF96AFDF9181
:1025C000CF911F910F91FF90EF9008950F931F935C
:1025D000CF93DF938C01CB01E9014C3251F4B90167
:1025E0000E94D30FF80141815281C801BE010E94AF
:1025F000F411DF91CF911F910F9108950F931F93C5
:10260000CF93DF938B01EA01CB010D960E942C1C26
:102610008883C80140960E942C1C8983C8010E94AF
:10262000BD0920E030E048EC52E40E94DF020E9445
:10263000D7057B836A83C8010E94A40920E030E0AB
:1026400048EC52E40E94DF020E94D7057D836C8330
:10265000F801658176818781908520E030E04AE746
:1026600054E40E94DF020E94D7057F836E83F80145
:10267000618572858385948520E030E04AE754E4E3
:102680000E94DF020E94D70579876887F801EC581D
:10269000FF4F608171818281938120E030E048ECBE
:1026A00052E40E94DF020E94D7057B876A87F80107
:1026B000E357FF4F608171818281938120E030E098
:1026C00048EC52E40E94DF020E94D7057D876C87A8
:1026D000F801ED59FF4F80819181A281B3818E87EE
:1026E0009F87A88BB98B80819181A281B3818A8BCE
:1026F0009B8BAC8BBD8BF801EB56FF4F80818A8F93
:10270000F801E956FF4F80818B8FDF91CF911F91A8
:102710000F910895AF92BF92CF92DF92EF92FF9206
:102720000F931F93CF93DF93EC01FC01E25AFF4F0D
:102730008081882309F451C0FE01ED59FF4FE080EC
:10274000F180028113810E94051AE61AF70A080B2C
:10275000190B39E2E316F10401051105F0F18E01C0
:102760000D5F1F4F69817A81CE01A8010E94FE1280
:10277000CE01B8010E94991130C00E94051AD701FC
:102780006D937D938D939C9313978FA598A9DC01EE
:10279000ED91FC910084F185E02D19958C3319F4AD
:1027A000F80110822CC08E3321F0D8019C919D320B
:1027B00050F0CE01B601F801408195010E94E61269
:1027C000D8011C921CC09C3221F0FE01E90FF11DC2
:1027D00081AB9F5FF801908312C0EFE5EE2EF12CE4
:1027E000EC0EFD1E71E3C72ED12CCC0EDD1E8E012A
:1027F000035A1F4F63E0A62EB12CAC0EBD1E8FA551
:1028000098A9DC01ED91FC910680F781E02D1995E6
:10281000009709F0B2CF0E94051AF701208131819B
:1028200042815381621B730B840B950B21E0693E3F
:10283000F3E07F07F0E08F07F0E09F0708F020E06B
:102840002883DF91CF911F910F91FF90EF90DF9040
:10285000CF90BF90AF9008950F931F93CF93DF93C6
:10286000482FFB018B0100581F4FD801CD91DC91FF
:10287000CE01019660E870E00E94511F9C01EE5766
:10288000FF4F80819181E258F0402817390731F0DD
:10289000CE0FDF1F4883F80131832083DF91CF9172
:1028A0001F910F9108951F920F920FB60F920BB6C2
:1028B0000F9211242F933F934F935F936F937F93C6
:1028C0008F939F93AF93BF93EF93FF938091C60035
:1028D00067E574E00E942C14FF91EF91BF91AF91D6
:1028E0009F918F917F916F915F914F913F912F9128
:1028F0000F900BBE0F900FBE0F901F9018951F9258
:102900000F920FB60F920BB60F9211242F933F9395
:102910004F935F936F937F938F939F93AF93BF93E7
:10292000EF93FF938091CE006BED74E00E942C1426
:10293000FF91EF91BF91AF919F918F917F916F9197
:102940005F914F913F912F910F900BBE0F900FBE53
:102950000F901F9018951F920F920FB60F920BB603
:102960000F9211242F933F934F935F936F937F9315
:102970008F939F93AF93BF93EF93FF938091D60074
:102980006FE575E00E942C14FF91EF91BF91AF911C
:102990009F918F917F916F915F914F913F912F9177
:1029A0000F900BBE0F900FBE0F901F9018951F92A7
:1029B0000F920FB60F920BB60F9211242F933F93E5
:1029C0004F935F936F937F938F939F93AF93BF9337
:1029D000EF93FF938091360163EE75E00E942C1413
:1029E000FF91EF91BF91AF919F918F917F916F91E7
:1029F0005F914F913F912F910F900BBE0F900FBEA3
:102A00000F901F9018955F926F927F928F929F9276
:102A1000AF92BF92CF92DF92EF92FF920F931F93EC
:102A2000CF93DF93EC015A016B0181E4A81682E495
:102A3000B8068FE0C80680E0D80608F077C060E8E6
:102A400074E88EE190E0A60195010E94641F3901AF
:102A50004A01089461087108810891089694879446
:102A600077946794A40193012F5F3F4F4F4F5F4FBF
:102A700074E0220F331F441F551F7A95D1F760E091
:102A800074E284EF90E00E94641FCA01B9012FEF45
:102A900030E040E050E00E94121FA60195010E9424
:102AA000641F8FEF90E0821B930B181619061CF41D
:102AB000522E509402C0522E539460E079E08DE380
:102AC00090E0A60195010E94641F215030404040D3
:102AD000504056954795379527952F5F3F4F4F4F5D
:102AE0005F4F93E0220F331F441F551F9A95D1F774
:102AF00060E074E284EF90E00E94641FCA01B901B3
:102B00002FEF30E040E050E00E94121FA601950137
:102B10000E94641F8FEF90E0821B930B181619061A
:102B200014F4209501C02F5F2515F0F4E885F98590
:102B300081E090E00A8802C0880F991F0A94E2F7AA
:102B4000808360E079E08DE390E0A60195010E942A
:102B5000641F21503040404050405695479537956E
:102B60002795822F232F05C0E885F9851082862DB1
:102B7000272DEC81FD812083EE81FF818083EA8512
:102B8000FB85208141E050E0CA010E8402C0880F1D
:102B9000991F0A94E2F7282B2083EA85FB85208180
:102BA000CA010F8402C0880F991F0A94E2F7282BEC
:102BB0002083EA85FB858081088802C0440F551F69
:102BC0000A94E2F7842B8083DF91CF911F910F91BC
:102BD000FF90EF90DF90CF90BF90AF909F908F903D
:102BE0007F906F905F900895DC011296ED91FC91BB
:102BF0001397E058FF4F8191919180589F4F20810A
:102C00003181821B930B60E870E00E94511F089590
:102C1000DC011296ED91FC911397EE57FF4F208146
:102C2000318192918291E058F0408217930719F414
:102C30002FEF3FEF05C0E20FF31F8081282F30E018
:102C4000C9010895CF93DF93DC011296ED91FC91B9
:102C50001397EF01CE57DF4F48815981E058FF4F5E
:102C600080819181E058F0408417950719F42FEF87
:102C70003FEF0CC0E40FF51F2081CA01019660E808
:102C800070E00E94511F9983888330E0C901DF9171
:102C9000CF910895DC011296ED91FC911397EE57B8
:102CA000FF4F80819181929382930895FC01A085CA
:102CB000B18521898C9190E0022E02C0959587956F
:102CC0000A94E2F780FFF6CF0484F585E02D608357
:102CD000089525E133E0309368062093670687E581
:102CE00094E090936A068093690685EC90E0909357
:102CF0006C0680936B0684EC90E090936E06809354
:102D00006D0680EC90E09093700680936F0681ECE6
:102D100090E0909372068093710686EC90E0909319
:102D2000740680937306E4E0E093750673E0709395
:102D3000760667E06093770655E05093780641E0A9
:102D40004093790630937B0620937A068BED94E0CE
:102D500090937D0680937C068DEC90E090937F06A7
:102D600080937E068CEC90E09093810680938006A1
:102D700088EC90E0909383068093820689EC90E043
:102D800090938506809384068EEC90E0909387065E
:102D900080938606E09388067093890660938A067E
:102DA00050938B0640938C0630938E0620938D06AD
:102DB0008FE595E09093900680938F0685ED90E0E7
:102DC000909392068093910684ED90E09093940600
:102DD0008093930680ED90E09093960680939506FD
:102DE00081ED90E0909398068093970686ED90E0B1
:102DF00090939A0680939906E0939B0670939C06A5
:102E000060939D0650939E0640939F063093A106C3
:102E10002093A00683EE95E09093A3068093A206EC
:102E200085E391E09093A5068093A40684E391E066
:102E30009093A7068093A60680E391E09093A9065D
:102E40008093A80681E391E09093AB068093AA0655
:102E500086E391E09093AD068093AC06E093AE06D6
:102E60007093AF066093B0065093B1064093B206DC
:102E700008950F931F93CF93DF938C01EB0109C04B
:102E80002196D801ED91FC910190F081E02DC801CF
:102E9000199568816623A1F7DF91CF911F910F915A
:102EA0000895EF92FF920F931F93CF93DF938C01BE
:102EB0007B01EA010CC0D7016D917D01D801ED9134
:102EC000FC910190F081E02DC80119952197209780
:102ED00091F7DF91CF911F910F91FF90EF9008959F
:102EE000883008F078C0E82FF0E0EE0FFF1FED54B7
:102EF000F94F718360838330D9F0843030F48130AE
:102F000009F444C0823060F439C0853051F1853015
:102F1000D8F0863009F446C0873009F05CC04FC055
:102F2000809169008C7F842B80936900E89A0895D2
:102F300080916900440F551F440F551F837F842BD8
:102F400080936900E99A08958091690074E0440FC4
:102F5000551F7A95E1F78F7C842B80936900EA9A5C
:102F600008958091690066E0440F551F6A95E1F766
:102F70008F73842B80936900EB9A089580916A0087
:102F80008C7F842B80936A00EC9A089580916A006C
:102F9000440F551F440F551F837F842B80936A0075
:102FA000ED9A089580916A0024E0440F551F2A95F8
:102FB000E1F78F7C842B80936A00EE9A08958091CC
:102FC0006A0096E0440F551F9A95E1F78F73842BA2
:102FD00080936A00EF9A08951F920F920FB60F9296
:102FE0000BB60F9211242F933F934F935F936F93E0
:102FF0007F938F939F93AF93BF93EF93FF938091B2
:10300000B7069091B806892B29F0E091B706F091A8
:10301000B8061995FF91EF91BF91AF919F918F9154
:103020007F916F915F914F913F912F910F900BBEC8
:103030000F900FBE0F901F9018951F920F920FB612
:103040000F920BB60F9211242F933F934F935F93E0
:103050006F937F938F939F93AF93BF93EF93FF9360
:103060008091B9069091BA06892B29F0E091B906B2
:10307000F091BA061995FF91EF91BF91AF919F9191
:103080008F917F916F915F914F913F912F910F9011
:103090000BBE0F900FBE0F901F9018951F920F92AE
:1030A0000FB60F920BB60F9211242F933F934F93AD
:1030B0005F936F937F938F939F93AF93BF93EF93A0
:1030C000FF938091BB069091BC06892B29F0E0917B
:1030D000BB06F091BC061995FF91EF91BF91AF919E
:1030E0009F918F917F916F915F914F913F912F9120
:1030F0000F900BBE0F900FBE0F901F9018951F9250
:103100000F920FB60F920BB60F9211242F933F938D
:103110004F935F936F937F938F939F93AF93BF93DF
:10312000EF93FF938091BD069091BE06892B29F005
:10313000E091BD06F091BE061995FF91EF91BF9108
:10314000AF919F918F917F916F915F914F913F913F
:103150002F910F900BBE0F900FBE0F901F901895E0
:103160001F920F920FB60F920BB60F9211242F934E
:103170003F934F935F936F937F938F939F93AF93FF
:10318000BF93EF93FF938091B3069091B406892B80
:1031900029F0E091B306F091B4061995FF91EF91F3
:1031A000BF91AF919F918F917F916F915F914F915F
:1031B0003F912F910F900BBE0F900FBE0F901F905D
:1031C00018951F920F920FB60F920BB60F92112403
:1031D0002F933F934F935F936F937F938F939F931F
:1031E000AF93BF93EF93FF938091B5069091B6068E
:1031F000892B29F0E091B506F091B6061995FF915B
:10320000EF91BF91AF919F918F917F916F915F915E
:103210004F913F912F910F900BBE0F900FBE0F90CB
:103220001F9018951F920F920FB60F920BB60F9228
:1032300011242F933F934F935F936F937F938F93BB
:103240009F93AF93BF93EF93FF938091BF069091AD
:10325000C006892B29F0E091BF06F091C0061995B0
:10326000FF91EF91BF91AF919F918F917F916F915E
:103270005F914F913F912F910F900BBE0F900FBE1A
:103280000F901F9018951F920F920FB60F920BB6CA
:103290000F9211242F933F934F935F936F937F93DC
:1032A0008F939F93AF93BF93EF93FF938091C1064A
:1032B0009091C206892B29F0E091C106F091C206D7
:1032C0001995FF91EF91BF91AF919F918F917F9150
:1032D0006F915F914F913F912F910F900BBE0F9087
:1032E0000FBE0F901F9018952F923F924F925F92B2
:1032F0006F927F928F929F92AF92BF92CF92DF9206
:10330000EF92FF920F931F93DF93CF93CDB7DEB76A
:103310003B014C0119012A016E897F89888D998DA5
:103320006A197B098C099D09621A730A840A950A35
:10333000A40193010E94121FE218F3080409150961
:10334000A80197010E94861F2A0D3B1D4C1D5D1D83
:10335000B901CA01CF91DF911F910F91FF90EF90BA
:10336000DF90CF90BF90AF909F908F907F906F90A5
:103370005F904F903F902F9008951F920F920FB63D
:103380000F9211242F933F938F939F93AF93BF93EB
:103390008091C7069091C806A091C906B091CA064F
:1033A0003091CB060196A11DB11D232F2D5F2D3726
:1033B00020F02D570196A11DB11D2093CB068093BF
:1033C000C7069093C806A093C906B093CA06809119
:1033D000C3069091C406A091C506B091C606019699
:1033E000A11DB11D8093C3069093C406A093C5068A
:1033F000B093C606BF91AF919F918F913F912F914E
:103400000F900FBE0F901F9018958FB7F8942091D2
:10341000C7063091C8064091C9065091CA068FBFB1
:10342000B901CA0108959FB7F8942091C30630915D
:10343000C4064091C5065091C60686B5A89B06C035
:103440008F3F21F02F5F3F4F4F4F5F4F9FBF542F54
:10345000432F322F2227280F311D411D511D82E09D
:10346000220F331F441F551F8A95D1F7B901CA0196
:103470000895EF92FF920F931F93CF93DF937B01F9
:103480008C010E94131AEB010EC00E94131A6C1BD0
:103490007D0B685E7340C8F30894E108F1080109E8
:1034A0001109C851DC4FE114F1040105110569F758
:1034B000DF91CF911F910F91FF90EF900895789435
:1034C00084B5826084BD84B5816084BD85B5826029
:1034D00085BD85B5816085BDEEE6F0E080818160C7
:1034E0008083E1E8F0E010828081826080838081C7
:1034F00081608083E0E8F0E0808181608083E1EB9F
:10350000F0E0808184608083E0EBF0E08081816086
:103510008083E1E9F0E08081826080838081816046
:103520008083E1EAF0E08081826080838081816035
:103530008083E1E2F1E0808182608083808181602C
:103540008083E0E9F0E0808181608083E0EAF0E060
:10355000808181608083E0E2F1E08081816080830E
:10356000EAE7F0E0808184608083808182608083EC
:103570008081816080838081806880831092C10017
:103580000895382F863308F0365320917B00832F1F
:1035900086958695869590E08170907043E0880FBF
:1035A000991F4A95E1F7277F282B20937B003770DE
:1035B000809108038295880F880F807C832B8093ED
:1035C0007C0080917A00806480937A0080917A00F8
:1035D00086FDFCCF2091780040917900942F80E007
:1035E00030E0282B392BC9010895482F50E0CA013B
:1035F00088589E4FFC0124914E5C5E4FFA018491E5
:103600008823C1F0E82FF0E0EE0FFF1FEC51FF4FD1
:10361000A591B491662341F49FB7F8948C912095BD
:1036200082238C939FBF08959FB7F8948C91822B2F
:103630008C939FBF0895482F50E0CA0182549E4F3B
:10364000FC012491CA0188589E4FFC0134914E5CC4
:103650005E4FFA019491992309F47DC0222309F465
:1036600062C0233021F4809180008F7705C0243020
:1036700031F4809180008F7D8093800054C0213090
:1036800019F484B58F7704C0223021F484B58F7D7E
:1036900084BD49C0263021F48091B0008F7705C0E9
:1036A000273031F48091B0008F7D8093B0003BC013
:1036B000283021F4809190008F7705C0293031F4B3
:1036C000809190008F7D809390002DC02A3021F44E
:1036D00080919000877FF7CF2B3021F48091A0005C
:1036E0008F770BC02C3021F48091A0008F7D05C016
:1036F0002D3031F48091A000877F8093A00013C00B
:103700002E3021F4809120018F770BC02F3021F4CF
:10371000809120018F7D05C0203129F48091200106
:10372000877F80932001E92FF0E0EE0FFF1FE2502A
:10373000FF4FA591B491662341F49FB7F8948C9103
:10374000309583238C939FBF08959FB7F8948C91F5
:10375000832B8C939FBF0895FC018091CC0680330E
:1037600090F480838F5F8093CC06815090E0FC01C1
:10377000EE0FFF1FE80FF91FE353F94F88EB9BE0B3
:103780009283818308958FEF80830895FC012081C7
:10379000203308F041C08181992787FD909548E842
:1037A00050E0481B590B440F551F440F551F641719
:1037B000750784F08281992787FD909548E552E04E
:1037C000481B590B440F551F440F551F64177507AD
:1037D0000CF4AB0142505040CA01AA2797FDA095B6
:1037E000BA2F44E0880F991FAA1FBB1F4A95D1F733
:1037F00033E0B695A795979587953A95D1F74FB74A
:10380000F89430E0F901EE0FFF1FE20FF31FE353CE
:10381000F94F928381834FBF0895FC0180818F3FD0
:1038200019F420E030E016C090E0FC01EE0FFF1F1D
:10383000E80FF91FE353F94F2181328183E0220F12
:10384000331F8A95E1F7B4E036952795BA95E1F7ED
:103850002E5F3F4FC9010895AF92BF92CF92DF9282
:10386000EF92FF920F931F938C010E940D1C00D0CA
:103870000F920196AA2797FDA095BA2FF8016181B2
:10388000772767FD709528E830E0261B370B220F5D
:10389000331F220F331F442737FD4095542F628179
:1038A000772767FD7095E8E5EE2EE2E0FE2EE61A3A
:1038B000F70AEE0CFF1CEE0CFF1C0027F7FC00952E
:1038C000102F64EBA62EB12CC12CD12CEDB7FEB776
:1038D000A182B282C382D482BC01CD01AA24BB24BE
:1038E00065010E9474190F900F900F900F90CB01FB
:1038F0001F910F91FF90EF90DF90CF90BF90AF900E
:103900000895AF92BF92CF92DF92EF92FF920F9302
:103910001F93CF93DF93EC019B0182E06032780725
:103920000CF048C077FF03C020E030E005C0653BE5
:10393000710514F024EB30E000D00F92B901882714
:1039400077FD8095982F2981332727FD3095B8E89A
:10395000AB2EB12CA21AB30AAA0CBB1CAA0CBB1C1E
:10396000CC24B7FCC094DC2CEA81FF27E7FDF0955E
:1039700028E532E02E1B3F0B220F331F220F331F8F
:10398000442737FD4095542FEDB7FEB7218332838E
:103990004383548320E030E040E050E0E4EBEE2E3F
:1039A000F12C012D112D0E9474199B010F900F9085
:1039B0000F900F90CE01B9010E94C61BDF91CF91ED
:1039C0001F910F91FF90EF90DF90CF90BF90AF903D
:1039D0000895CF92DF92EF92FF921F93CF93DF93E0
:1039E000EC01162F7A0169018881803308F090C0BC
:1039F000862F61E00E94F51A888190E0FC01EE0FAD
:103A0000FF1FE80FF91FE353F94F1F738081807C7C
:103A1000812B808380E292E08E199F0964E070E040
:103A20000E94511F698380E699E08C199D0964E02A
:103A300070E00E94511F6A83A8818A2F6CE00E9467
:103A4000311F682F90E0AC01440F551F480F591FDC
:103A5000440F551F440F551F20E030E0C901840F6B
:103A6000951FFC01EE0FFF1FE80FF91FE353F94FFD
:103A7000808186FD41C02F5F3F4F2C30310571F7AB
:103A800050C01092800082E08093810010928500E7
:103A900010928400B19A80916F00826080936F00D1
:103AA0002BC0623061F410929000609391001092EC
:103AB00095001092940068BB609371001DC0633044
:103AC00069F41092A00082E08093A1001092A500FA
:103AD0001092A40089BB809372000EC0662361F42B
:103AE0001092200182E08093210110922501109212
:103AF00024018ABB809373008A2F90E0FC01EE0FB3
:103B0000FF1FE80FF91FE353F94F80818064808322
:103B10008881DF91CF911F91FF90EF90DF90CF9040
:103B20000895613009F0BDCFACCF40E252E020E60D
:103B300039E00E94E91C0895EF92FF920F931F93C2
:103B4000CF93DF938B017A01C82FD0E0DE01A35A17
:103B5000B84F8C9187FF04C0FB011182108237C0DF
:103B6000AE01440F551F4C0F5D1F440F551F440FEE
:103B7000551F2C91332727FD3095240F351F809139
:103B8000CC0690E02817390714F58C91992787FD0A
:103B90009095840F951FFC01EE0FFF1FE80FF91F92
:103BA000E353F94F808186FF12C08C91992787FDDE
:103BB0009095840F951FFC01EE0FFF1FE80FF91F72
:103BC000E353F94F80818F7360E00E941B1BDE017D
:103BD000A35AB84F8C918F5F8C93AE01440F551F41
:103BE0004C0F5D1F440F551F440F551F2C91332759
:103BF00027FD3095240F351F8091CC0690E02817C3
:103C000039070CF04DC08C918C300CF049C0F80194
:103C1000208131818C91992787FD9095840F951F84
:103C2000FC01EE0FFF1FE80FF91FE353F94F8181ED
:103C30009281280F391FF701318320838C919927B6
:103C400087FD9095840F951FFC01EE0FFF1FE80F75
:103C5000F91FE353F94F808186FF29C08C91992782
:103C600087FD9095840F951FFC01EE0FFF1FE80F55
:103C7000F91FE353F94F80818F7361E00E941B1B92
:103C800016C080E49CE904C0F8018081918104960B
:103C9000F70191838083C35AD84F8FEF888307C081
:103CA000F8018081918184549C4958F3EDCFDF91D4
:103CB000CF911F910F91FF90EF9008951F920F9257
:103CC0000FB60F920BB60F9211242F933F934F9381
:103CD0005F936F937F938F939F93AF93BF93EF9374
:103CE000FF9380E064E271E048E251E00E949C1D95
:103CF000FF91EF91BF91AF919F918F917F916F91C4
:103D00005F914F913F912F910F900BBE0F900FBE7F
:103D10000F901F9018951F920F920FB60F920BB62F
:103D20000F9211242F933F934F935F936F937F9341
:103D30008F939F93AF93BF93EF93FF9383E064EAD6
:103D400070E048EA50E00E949C1DFF91EF91BF9106
:103D5000AF919F918F917F916F915F914F913F9123
:103D60002F910F900BBE0F900FBE0F901F901895C4
:103D70001F920F920FB60F920BB60F9211242F9332
:103D80003F934F935F936F937F938F939F93AF93E3
:103D9000BF93EF93FF9382E064E970E048E950E05D
:103DA0000E949C1DFF91EF91BF91AF919F918F91C8
:103DB0007F916F915F914F913F912F910F900BBE2B
:103DC0000F900FBE0F901F9018951F920F920FB675
:103DD0000F920BB60F9211242F933F934F935F9343
:103DE0006F937F938F939F93AF93BF93EF93FF93C3
:103DF00081E064E870E048E850E00E949C1DFF917B
:103E0000EF91BF91AF919F918F917F916F915F9152
:103E10004F913F912F910F900BBE0F900FBE0F90BF
:103E20001F901895629FD001739FF001829FE00D53
:103E3000F11D649FE00DF11D929FF00D839FF00D29
:103E4000749FF00D659FF00D9927729FB00DE11DD5
:103E5000F91F639FB00DE11DF91FBD01CF011124B2
:103E60000895991B79E004C0991F961708F0961BD6
:103E7000881F7A95C9F780950895AA1BBB1B51E14D
:103E800007C0AA1FBB1FA617B70710F0A61BB70BCA
:103E9000881F991F5A95A9F780959095BC01CD016F
:103EA000089597FB092E07260AD077FD04D0E5DF99
:103EB00006D000201AF4709561957F4F0895F6F7AB
:103EC000909581959F4F0895A1E21A2EAA1BBB1BC6
:103ED000FD010DC0AA1FBB1FEE1FFF1FA217B307D6
:103EE000E407F50720F0A21BB30BE40BF50B661FEC
:103EF000771F881F991F1A9469F7609570958095B0
:103F000090959B01AC01BD01CF01089597FB092E4F
:103F100005260ED057FD04D0D7DF0AD0001C38F498
:103F200050954095309521953F4F4F4F5F4F0895E5
:103F3000F6F790958095709561957F4F8F4F9F4FC5
:103F400008952F923F924F925F926F927F928F923D
:103F50009F92AF92BF92CF92DF92EF92FF920F9318
:103F60001F93CF93DF93CDB7DEB7CA1BDB0B0FB622
:103F7000F894DEBF0FBECDBF19942A8839884888CF
:103F80005F846E847D848C849B84AA84B984C88475
:103F9000DF80EE80FD800C811B81AA81B981CE0F6C
:103FA000D11D0FB6F894DEBF0FBECDBFED01089551
:0C3FB0000790F691E02D1994F894FFCFD3
:103FBC0000000000000000000001020203030303E4
:103FCC00040404040404040405050505050505059D
:103FDC00050505050505050506060606060606067D
:103FEC000606060606060606060606060606060665
:103FFC00060606060606060607070707070707074D
:10400C000707070707070707070707070707070734
:10401C000707070707070707070707070707070724
:10402C000707070707070707070707070707070714
:10403C0007070707070707070808080808080808FC
:10404C0008080808080808080808080808080808E4
:10405C0008080808080808080808080808080808D4
:10406C0008080808080808080808080808080808C4
:10407C0008080808080808080808080808080808B4
:10408C0008080808080808080808080808080808A4
:10409C000808080808080808080808080808080894
:1040AC000808080808080808080808080808080884
:1040BC0008080808080808080100000000120C365F
:1040CC000C00000000561639175117F41522164A29
:0440DC0016081600AC
:00000001FF
