:100000000C944A010C947B010C947B010C947B01B1
:100010000C947B010C947B010C947B010C947B0170
:100020000C947B010C947B010C947B010C947B0160
:100030000C947B010C947B010C947B010C94ED01DE
:100040000C947B010C945C3A0C947B010C947B0126
:100050000C947B010C947B010C947B010C9429374C
:100060000C947B010C9441340C947B010C947B0127
:100070000C947B010C947B010C947B010C947B0110
:100080000C94893A0C947B010C947B010C947B01B9
:100090000C946D340C947B010C947B010C943A3DD0
:1000A0000C947B010C947B010C94B63A0C947B016C
:1000B0000C947B010C947B010C947B010C94E33A2F
:1000C0000C947B010C947B010C947B010C9499346F
:1000D0000C947B010C947B010C94C5340C947B0133
:1000E0000C947B01036EDB363D9A9999993DABAA3E
:1000F000AA2A3E000000803F084AD73B3BCE016E53
:1001000084BCBFFDC12F3D6C74319ABD56833DDA6E
:100110003D00C77F11BED9E4BB4C3E916BAAAABE7D
:10012000000000803F072C7AA5BA6CC590DA3B939B
:1001300065FC8BBC53F810FD3C5692834DBD879DEA
:100140003AB63DCBC9BF5BBE73DA0FC93F05A84CB9
:10015000CDB2D44EB93836A9020C50B99186880870
:100160003CA6AAAA2ABE000000803F00002100246D
:100170000027002A002D0030003300010100000498
:100180000107010A0100002200250028002B002E93
:10019000003100340002010000050108010B0100DC
:1001A0000020002300260029002C002F0032000030
:1001B0000100000301060109010505050507050801
:1001C000080808020202020A0A08080404040401DA
:1001D00001010101010101030303030303030304FC
:1001E0000707070C0C0C0C0C0C0C0C02020202068C
:1001F000060606060606060B0B0B0B0B0B0B0B017C
:100200000210202008081020401020408002010227
:1002100001080402010102040810204080804020EF
:10022000100804020180040201804020100804022A
:1002300001080402010102040810204080010204A8
:1002400008102040800000090A02080B0C0D070668
:100250000304010000000000000000000000000096
:10026000000000000000000000000000000000008E
:1002700000100F0E00000000000000000000000051
:100280000000000000000000000000009C33D83592
:100290009439A13311241FBECFEFD1E2DEBFCDBF11
:1002A00000E00CBF16E0A0E0B2E0EAE9F9E800E007
:1002B0000BBF02C007900D92AC39B107D9F711E11D
:1002C000ACE9B6E001C01D92A93EB107E1F712E02A
:1002D000C2E9D2E000E006C022970109FE010BBF8F
:1002E0000E94B744CC38D10780E00807A9F70E94E4
:1002F000092F0C94A0400C940000CF92DF92EF9253
:10030000FF920F931F93CF93DF93EC016B01FB01DF
:10031000608171818281938120E03AEC4AE95BE35C
:100320000E947A447B018C0188819981AA81BB81DA
:10033000820F931FA41FB51F88839983AA83BB8351
:10034000F601E082F18202831383DF91CF911F9146
:100350000F91FF90EF90DF90CF9008958091A206CB
:100360009091A306A091A406B091A5060196A11DA7
:10037000B11D8093A2069093A306A093A406B09308
:10038000A5062091A2063091A3064091A4065091A3
:10039000A50680919C0690919D06A0919E06B09125
:1003A0009F06281739074A075B07B0F08091A60619
:1003B000882391F481E08093A6061092A206109201
:1003C000A3061092A4061092A506E091A006F09153
:1003D000A10619951092A60608951F920F920FB6C6
:1003E0000F920BB60F9211242F933F934F935F936D
:1003F0006F937F938F939F93AF93BF93EF93FF93ED
:100400000E94AE01FF91EF91BF91AF919F918F91AB
:100410007F916F915F914F913F912F910F900BBE04
:100420000F900FBE0F901F901895EF92FF921F93A1
:10043000DF93CF930F92CDB7DEB7162F83EEE82E62
:1004400080E1F82EC70169E670E049830E944339D4
:10045000C701612F0E945639C7014981642F0E944C
:100460005639C7010E9446390F90CF91DF911F91F5
:10047000FF90EF900895CF92DF92EF92FF920F934B
:100480001F93CF93DF93EC0183EE90E169E670E078
:100490000E94433983EE90E168EA70E00E947A3965
:1004A00083EE90E10E94463983EE90E169E670E0C8
:1004B00046E050E00E94363983EE90E10E947D399B
:1004C0008630D0F383EE90E10E948339D82E83EEFC
:1004D00090E10E948339C82E83EE90E10E94833917
:1004E000F82E83EE90E10E948339E82E83EE90E1AE
:1004F0000E948339182F83EE90E10E948339082FE0
:100500003C2D20E06D2D70E0622B732B882777FD4A
:100510008095982F0E942C42688379838A839B83DD
:100520009E2D80E06F2D70E0682B792B882777FD5A
:100530008095982F0E942C426C837D838E839F83AD
:10054000902F80E0612F70E0682B792B882777FD52
:100550008095982F0E942C42688779878A879B878D
:10056000DF91CF911F910F91FF90EF90DF90CF908F
:100570000895FC0180E090E0A7E0B4E4808F918FC3
:10058000A28FB38F80E090E0AAEFB3E4848F958FC1
:10059000A68FB78F80E090E0A4E3B3E480A391A39B
:1005A000A2A3B3A320E030E042E054EC24A335A39F
:1005B00046A357A320E030E84EE054EC20A731A733
:1005C00042A753A720E030E840E454EC24A735A725
:1005D00046A757A783E080AB88E181AB0895EF92EF
:1005E000FF921F93DF93CF930F92CDB7DEB7FC013D
:1005F000162F83EEE82E80E1F82EC70161A949830A
:100600000E943939C701612F0E945639C7014981BB
:10061000642F0E945639C7010E9446390F90CF912E
:10062000DF911F91FF90EF900895EF92FF921F933B
:10063000DF93CF930F92CDB7DEB7162F93EEE92E4F
:1006400090E1F92EC7016EE170E049830E944339C1
:10065000C701612F0E945639C7014981642F0E944A
:100660005639C7010E9446390F90CF91DF911F91F3
:10067000FF90EF9008951F93CF93DF93FC01EB0160
:1006800077FF30C08FEF6D3F7807C9F08FEF6E3F77
:1006900078072CF48FEF6C3F780721F514C08FEFAB
:1006A0006E3F780741F08FEF6F3F7807D9F480A94C
:1006B000882369F412C080A9882361F411C080A93D
:1006C000882359F404C080A9882351F403C0C7E0EB
:1006D000D0E008C0C8E0D0E005C0C5E0D0E002C06E
:1006E000C6E0D0E083EE90E16EE170E00E94433915
:1006F00083EE90E1BE010E947A3983EE90E10E9480
:10070000463983EE90E16EE170E041E050E00E94F6
:10071000363983EE90E10E948339182F83EE90E101
:100720000E944639812FDF91CF911F910895CF927A
:10073000DF92EF92FF920F931F93CF93DF93EC0121
:1007400083EE90E169A90E94393983EE90E168EA6D
:1007500070E00E947A3983EE90E10E94463983EE80
:1007600090E169A946E00E94293983EE90E10E9458
:100770007D398630D0F383EE90E10E948339D82E04
:1007800083EE90E10E948339C82E83EE90E10E94AF
:100790008339F82E83EE90E10E948339E82E83EEB0
:1007A00090E10E948339182F83EE90E10E948339F3
:1007B000082F3C2D20E06D2D70E0622B732B44E060
:1007C000759567954A95E1F7882777FD8095982F6D
:1007D0000E942C42688379838A839B839E2D80E0CC
:1007E0006F2D70E0682B792B34E0759567953A95FD
:1007F000E1F7882777FD8095982F0E942C426C8323
:100800007D838E839F83902F80E0612F70E0682B23
:10081000792B24E0759567952A95E1F7882777FD70
:100820008095982F0E942C42688779878A879B87BA
:10083000DF91CF911F910F91FF90EF90DF90CF90BC
:100840000895CF92DF92EF92FF920F931F93CF9371
:10085000DF93EC0183EE90E16EE170E00E9443399A
:1008600083EE90E163E070E00E947A3983EE90E1DC
:100870000E94463983EE90E16EE170E046E050E080
:100880000E94363983EE90E10E947D398630D0F3A4
:1008900083EE90E10E948339C82E83EE90E10E949E
:1008A0008339D82E88A98823A9F483EE90E10E9489
:1008B0008339E82E83EE90E10E948339F82E83EE8F
:1008C00090E10E948339082F83EE90E10E948339E2
:1008D000182F14C083EE90E10E948339082F83EE15
:1008E00090E10E948339182F83EE90E10E948339B2
:1008F000E82E83EE90E10E948339F82E3C2D20E013
:100900006D2D70E0622B732B882777FD8095982FD3
:100910000E942C426C877D878E879F879E2D80E06A
:100920006F2D70E0682B792B882777FD8095982FA5
:100930000E942C42688B798B8A8B9B8B902F80E056
:10094000612F70E0682B792B882777FD8095982F91
:100950000E942C426C8B7D8B8E8B9F8BDF91CF9175
:100960001F910F91FF90EF90DF90CF90089583EE4D
:1009700090E168E170E00E94433983EE90E160E22B
:1009800070E00E947A3983EE90E10E94463983EE4E
:1009900090E168E170E041E050E00E94363983EE7A
:1009A00090E10E947D39882331F083EE90E10E942E
:1009B000833980E0089581E00895CF93DF93EC01BF
:1009C00068AB623018F0623071F40AC0442331F031
:1009D000413031F00E94B704813011F088E101C04C
:1009E00089E189AB15C00E94B704813029F489E1FF
:1009F00089AB82E088AB0CC088E189ABCE016FE0A7
:100A000070E00E943B0391E08C3309F090E098ABDA
:100A1000DF91CF910895CF93DF93EC01842F61157F
:100A2000710511F4188204C091E098837A83698378
:100A30008823B1F02223A1F08B832C839881992302
:100A400079F460E00E946B388C8160E00E946B3822
:100A50008B8160E00E948F388C8160E00E948F382B
:100A6000DF91CF910895362F242F60E070E0432F5F
:100A70000E940B050895DF93CF9300D00F920F9241
:100A8000CDB7DEB7CE01019660E040E00E943305AD
:100A90000F900F900F900F900F90CF91DF910895CE
:100AA000FC018081882339F08181928163810E94D9
:100AB000AC08BC0105C083810E943838682F792FAB
:100AC00080E090E00E942A4220E030E04DE95DE3C2
:100AD0000E9471430895FC018081882339F081814F
:100AE000928164810E94AC08BC0105C084810E948F
:100AF0003838682F792F80E090E00E942A4224E75E
:100B000039EB48E05EE30E9471430895FC01CB019C
:100B1000BA01A901918380830E94F1340895089558
:100B2000CF92DF92EF92FF920F931F93DF93CF93B9
:100B30000F92CDB7DEB7ED84FE84CF84FE017096B0
:100B4000DD2420E010C08F010E5F1F4F6081260F53
:100B5000DC01ED91FC910190F081E02D2983199544
:100B6000D394F8012981D7018D919C911197DC14C0
:100B700050F3DC01ED91FC91622F6F770190F081D1
:100B8000E02D19950F90CF91DF911F910F91FF905C
:100B9000EF90DF90CF9008952DB73EB729503040A9
:100BA0000FB6F8943EBF0FBE2DBFEDB7FEB731961E
:100BB000ADB7BEB712969C938E93119783E0828354
:100BC0006383148282E090E0968385834783108656
:100BD0000E9490052DB73EB7275F3F4F0FB6F894A0
:100BE0003EBF0FBE2DBF08952DB73EB729503040F0
:100BF0000FB6F8943EBF0FBE2DBFEDB7FEB73196CE
:100C0000ADB7BEB712969C938E93119783E0828303
:100C1000638314828AE190E09683858347831086FC
:100C20000E9490052DB73EB7275F3F4F0FB6F8944F
:100C30003EBF0FBE2DBF08957F928F929F92AF92BD
:100C4000BF92CF92DF92EF92FF920F931F93DF93A9
:100C5000CF93CDB7DEB779898A887B889C88ADB77A
:100C6000BEB797970FB6F894BEBF0FBEADBFEDB736
:100C7000FEB7319612969C938E93119782E18283F0
:100C8000638314828CE190E096838583578310867A
:100C90004187128633871486258716861787108A20
:100CA000018B128AF38A148AE58A168AD78A108EF3
:100CB000C18E128EB38E148EA58E168E978E10A2B4
:100CC00071A212A283A214A275A316A20E9490057B
:100CD000EDB7FEB7B7960FB6F894FEBF0FBEEDBFE7
:100CE000CF91DF911F910F91FF90EF90DF90CF9008
:100CF000BF90AF909F908F907F9008957F928F923A
:100D00009F92AF92BF92CF92DF92EF92FF920F939A
:100D10001F93DF93CF93CDB7DEB779898A887B881D
:100D20009C88ADB7BEB797970FB6F894BEBF0FBEFD
:100D3000ADBFEDB7FEB7319612969C938E93119787
:100D400082E18283638314828DE190E096838583C0
:100D50005783108641871286338714862587168627
:100D60001787108A018B128AF38A148AE58A168AF9
:100D7000D78A108EC18E128EB38E148EA58E168ECB
:100D8000978E10A271A212A283A214A275A316A21A
:100D90000E949005EDB7FEB7B7960FB6F894FEBF68
:100DA0000FBEEDBFCF91DF911F910F91FF90EF909C
:100DB000DF90CF90BF90AF909F908F907F900895DD
:100DC000ADB7BEB71F970FB6F894BEBF0FBEADBF8D
:100DD000EDB7FEB7319612969C938E93119786E0ED
:100DE00082836383148282E290E0968385835783B3
:100DF00010864187128633871486258716860E94BF
:100E00009005EDB7FEB73F960FB6F894FEBF0FBE44
:100E1000EDBF0895ADB7BEB71F970FB6F894BEBF2C
:100E20000FBEADBFEDB7FEB7319612969C938E9371
:100E3000119786E082836383148283E290E0968335
:100E400085835783108641871286338714862587CA
:100E500016860E949005EDB7FEB73F960FB6F89440
:100E6000FEBF0FBEEDBF0895ADB7BEB71F970FB65B
:100E7000F894BEBF0FBEADBFEDB7FEB73196129668
:100E80009C938E93119786E082836383148284E21D
:100E900090E0968385835783108641871286338737
:100EA0001486258716860E949005EDB7FEB73F96FB
:100EB0000FB6F894FEBF0FBEEDBF0895EF92FF92FC
:100EC0000F931F93CF93DF93EC010E9471377B0147
:100ED0008C0115C088819981DC01ED91FC9106801F
:100EE000F781E02D1995009751F088819981DC01F7
:100EF000ED91FC910084F185E02D19950CC00E94C4
:100F000071376E197F09800B910B6B30710581056C
:100F1000910500F380E0DF91CF911F910F91FF9039
:100F2000EF9008953F924F925F926F927F928F92CF
:100F30009F92AF92BF92CF92DF92EF92FF920F9368
:100F40001F93CF93DF93EC01362E642E29016801A5
:100F500088819981DC01ED91FC910190F081E02D77
:100F6000199588819981DC01ED91FC910190F081C6
:100F7000E02D662D1995CE0144EF51E060E070E060
:100F80000E945E07B82EE82EFF2400E010E01E2D20
:100F90000027FF24EE24CE0144EF51E060E070E032
:100FA0000E945E07982ECE0144EF51E060E070E0B1
:100FB0000E945E07882ECE0144EF51E060E070E0B1
:100FC0000E945E07782E892D90E0A0E0B0E0DC0161
:100FD00099278827E82AF92A0A2B1B2B872D90E0CE
:100FE000A0E0B0E0E82AF92A0A2B1B2B882D90E01C
:100FF000A0E0B0E0BA2FA92F982F8827E82AF92A75
:101000000A2B1B2BCE0144EF51E060E070E00E9400
:101010005E07A82E4114510411F0F2018083CE0125
:1010200044EF51E060E070E00E945E07C114D1041B
:1010300091F0630C6B0C690C680C670C6A0C7724DC
:10104000FFE76F22772490E021E06816790609F027
:1010500020E0D6012C93B701C801DF91CF911F91F9
:101060000F91FF90EF90DF90CF90BF90AF909F9047
:101070008F907F906F905F904F903F9008950F9367
:101080001F93FA0189014FE19F010E9492071F916E
:101090000F9108950F931F93FA0189014EE19F016B
:1010A0000E9492071F910F9108950F931F93FA01C9
:1010B000890141E19F010E9492071F910F910895BC
:1010C0000F931F93FA01890140E19F010E9492074B
:1010D0001F910F910895AF92BF92CF92DF92EF923E
:1010E000FF920F931F93DF93CF930F92CDB7DEB78D
:1010F0008C01962F603108F09FE0F80185819817E8
:10110000E9F07801AA24BB24C92EDD2496010A2C1B
:1011100002C0359527950A94E2F721703070F701E7
:1011200081917F01622F99830E948F380894A11CBE
:10113000B11C9981F4E0AF16B10441F7F801958331
:101140000F90CF91DF911F910F91FF90EF90DF9063
:10115000CF90BF90AF900895CF93DF93EC010E94A2
:101160006B088C810E943838DF91CF9108958EBD35
:101170000DB407FEFDCF8EB50895CF93DF93EC013C
:101180008A8161E00E946B388C8161E00E946B383B
:101190008A8160E00E948F388C8161E00E948F38E4
:1011A000DF91CF9108950F931F93FC0171836083AA
:1011B0005383428335832483178306830E94BD08AB
:1011C0000E944B3C81E00E946A3C84E00E94733C98
:1011D0001F910F910895CF93DF93EC018A8161E015
:1011E0000E948F3881E090E00E94CC378A8160E0D5
:1011F0000E948F38DF91CF910895AF92BF92CF9226
:10120000DF92EF92FF920F931F93CF93DF93EC0146
:10121000882777FD8095982F63707070807090702C
:10122000FAE0660F771F881F991FFA95D1F75801CA
:1012300075010027F7FC0095102FEFEFAE2EE3E0CD
:10124000BE2EC12CD12CEA20FB200C211D21E62A28
:10125000F72A082B192B9AE0EE0CFF1C001F111F18
:101260009A95D1F7662757FD6095762F5370607079
:101270007070E42AF52A062B172B8AE0EE0CFF1C6F
:10128000001F111F8A95D1F7442737FD4095542F31
:10129000337040705070E22AF32A042B152B8C8196
:1012A00060E00E948F38812F0E94B708802F0E9433
:1012B000B7088F2D0E94B7088E2D0E94B708CE0167
:1012C0000E94EB08DF91CF911F910F91FF90EF905B
:1012D000DF90CF90BF90AF9008950F931F93E62FAC
:1012E000F72F64E0E030F60714F0EFEFF3E0642F3F
:1012F000752F44E06030740714F06FEF73E0022F35
:10130000132F24E00030120714F00FEF13E0AF01A9
:10131000F7FF02C040E050E09B0177FF02C020E0F1
:1013200030E017FF02C000E010E060E070E00E94D3
:10133000FD081F910F9108950F931F938B0161E09A
:1013400070E0A80198010E94FD081F910F91089577
:10135000FC01862F4383962F9651983058F1262F03
:101360002A50243050F12852243038F12C5E283095
:1013700038F1245F243038F1663229F1643030F1DD
:10138000653021F12452283020F1215F233020F1F3
:10139000643011F12F5D243010F1603101F16131C1
:1013A000F1F028502230F0F020532830F0F428E0FB
:1013B00031E01DC022E230E01AC025E230E017C063
:1013C00028E230E014C02BE230E011C02EE230E021
:1013D0000EC021E330E00BC024E330E008C022E07F
:1013E00031E005C025E031E002C02BE031E031837F
:1013F0002083282F2750233018F4982F935053C060
:10140000282F2A50243018F4982F96504CC098302A
:1014100008F449C0982F9E51983010F495E205C009
:10142000982F9752933018F499E2981B3CC0982F4C
:101430009A52983010F491E3F8CF982F9253943049
:1014400010F495E3F2CF982F9653983060F19850AE
:10145000983048F18823E1F08F30D1F08131C1F02C
:101460008531B1F08130B1F08E30A1F0803191F052
:10147000843181F0833181F0975C923078F0823151
:1014800069F0823069F09E5F923060F495E00BC0A5
:1014900090E009C091E007C092E005C093E003C06E
:1014A00094E001C097E0928361E00E946B38089558
:1014B000FC018381A081B1813281882369F02C9164
:1014C00081E090E002C0880F991F3A95E2F780957D
:1014D00082238C93148208952C9181E090E002C0C5
:1014E000880F991F3A95E2F7282B2C9381E084838B
:1014F0000895FC018381A081B1813281882369F044
:101500002C9181E090E002C0880F991F3A95E2F794
:10151000282B2C9381E0848308952C9181E090E026
:1015200002C0880F991F3A95E2F7809582238C9329
:1015300014820895FC0184810895FC01DB018281FD
:101540008C93838111968C931197848112968C933E
:101550001297858113968C931397868114968C939A
:101560001497878115968C931597808516968C9382
:101570001697818517968C93179788E090E00895C9
:10158000EF92FF920F931F93FC01DB012C9130E04F
:1015900040E050E06281738184819581262B372B56
:1015A000482B592B228333834483558311966C91A6
:1015B000119770E080E090E0982F872F762F6627B4
:1015C000622B732B842B952B628373838483958387
:1015D00012962C91129730E040E050E0A901332799
:1015E0002227262B372B482B592B228333834483E6
:1015F000558313966C91139770E080E090E0962FDE
:10160000882777276627622B732B842B952B628381
:1016100073838483958314962C91149730E040E073
:1016200050E06681778180859185262B372B482B6A
:10163000592B26833783408751871596EC90159751
:10164000FF2400E010E0102F0F2DFE2CEE24E22AE4
:10165000F32A042B152BE682F78200871187169652
:101660002C91169730E040E050E0A9013327222763
:101670002E293F29402B512B2683378340875187C2
:1016800017968C9190E0A0E0B0E0B82FAA27992798
:101690008827822B932BA42BB52B86839783A08737
:1016A000B18788E090E01F910F91FF90EF9008952F
:1016B00080E092E008958EE092E00895AF92BF92AC
:1016C000CF92DF92EF92FF920F931F93CF93DF930E
:1016D0005C01FB01808190E0D50112962D913C9137
:1016E0001397822B932B13969C938E931297318191
:1016F00020E0822B932B13969C938E9312978281DA
:101700009381A481B5818B010B5F1F4FE80166E0D7
:1017100070E026E0C22ED12CE12CF12CC80ED91E8F
:10172000EA1EFB1E04C0298129936F5F7F4F9B0136
:1017300040E050E02C153D054E055F05A0F3AC01DF
:101740004A5F5F4F4E0F5F1F9A0121503040E90101
:101750001882E5011D830C83EA01C880D980EA80E4
:10176000FB80BC01665F7F4FEC012996CE0FDF1F27
:101770008B01CB01AA2797FDA095BA2F8C0D9D1D3B
:10178000AE1DBF1D04C0298129930F5F1F4F980113
:1017900040E050E0281739074A075B07A0F3EB0148
:1017A000CC0DDD1D9F012C0F3D1FC9010197DC01F0
:1017B0001C92615070406E0F7F1FD50117967C936D
:1017C0006E931697D901CD90DD90ED90FC90BE01FF
:1017D0006C5F7F4F2396CE0FDF1F8B01CB01AA27B3
:1017E00097FDA095BA2F8C0D9D1DAE1DBF1D04C089
:1017F000298129930F5F1F4F980140E050E028177F
:1018000039074A075B07A0F3C60ED71EDF01AC0DF0
:10181000BD1DED0121971882615070406E0F7F1F32
:10182000E5017987688711962C91119730E040E0A7
:1018300050E0542F432F322F222712966C9112978B
:1018400070E080E090E0CB0177276627262B372BCE
:10185000482B592B6C9170E080E090E0262B372BC1
:10186000482B592B13968C9190E0A0E0B0E0B82F54
:10187000AA2799278827282B392B4A2B5B2BF50180
:10188000228733874487558784E090E0C80ED91EAD
:10189000C601DF91CF911F910F91FF90EF90DF90E4
:1018A000CF90BF90AF9008958FE292E0089588E4C2
:1018B00092E00895AF92BF92CF92DF92EF92FF92A3
:1018C0000F931F93CF93DF93FC01DB0182819C91E7
:1018D000892B82831196ED90FD900D911C911497A8
:1018E0006C5F7F4FEB0185E090E035E0A32EB12CDB
:1018F000C12CD12CAE0CBF1CC01ED11E03C029812F
:10190000299301969C0140E050E02A153B054C05C7
:101910005D05A8F397012B5F3F4FA20FB31F1197EF
:101920001C9274836383C901DF91CF911F910F9142
:10193000FF90EF90DF90CF90BF90AF90089589E631
:1019400092E008958CE792E008958EED95E0089579
:101950008DE992E00895FC01DB0182818C93838103
:1019600011968C93119782E090E00895FC01DB01C1
:101970008C91828311968C911197838382E090E001
:1019800008958EEB92E0089581ED92E00895AF9274
:10199000BF92CF92DF92EF92FF920F931F93CF935C
:1019A000DF93FC01DB012C9130E040E050E06281EC
:1019B000738184819581262B372B482B592B2283C9
:1019C00033834483558311966C91119770E080E0C6
:1019D00090E0982F872F762F6627622B732B842B0E
:1019E000952B628373838483958312962C9112972F
:1019F00030E040E050E0A90133272227262B372B87
:101A0000482B592B228333834483558313966C913F
:101A1000139770E080E090E0962F8827772766275D
:101A2000622B732B842B952B628373838483958322
:101A300014962C91149730E040E050E06681778155
:101A400080859185262B372B482B592B268337836E
:101A50004087518715966C91159770E080E090E073
:101A6000982F872F762F6627622B732B842B952B2D
:101A7000668377838087918716962C91169730E03E
:101A800040E050E0A90133272227262B372B482B93
:101A9000592B268337834087518717966C91179768
:101AA00070E080E090E0962F882777276627622BEA
:101AB000732B842B952B6683778380879187189669
:101AC0002C91189730E040E050E062857385848562
:101AD0009585262B372B482B592B22873387448714
:101AE000558719966C91199770E080E090E0982FD7
:101AF000872F762F6627622B732B842B952B62877B
:101B00007387848795871A962C911A9730E040E066
:101B100050E0A90133272227262B372B482B592B9E
:101B200022873387448755871B966C911B9770E0FB
:101B300080E090E0962F882777276627622B732B0B
:101B4000842B952B62877387848795871C96ED90ED
:101B5000FD900D911C911F97BD01615F7F4FEB01BF
:101B600080E190E040E1A42EB12CC12CD12CAE0C30
:101B7000BF1CC01ED11E03C02981299301969C0160
:101B800040E050E02A153B054C055D05A8F39701A0
:101B9000205F3F4FA20FB31F11971C927787668774
:101BA000C901DF91CF911F910F91FF90EF90DF90CE
:101BB000CF90BF90AF90089582EF92E0089582E0B9
:101BC00093E00895EF92FF920F931F93CF93DF93CB
:101BD0008C01EB0102960E94C70C7C01DE01A80F6C
:101BE000B91F11966C91119770E080E090E0982FEA
:101BF000872F762F66272C9130E040E050E0622B53
:101C0000732B842B952B12962C91129730E040E089
:101C100050E0A90133272227262B372B482B592B9D
:101C200013968C9190E0A0E0B0E0B82FAA279927F6
:101C30008827822B932BA42BB52BF801828B938BB7
:101C4000A48BB58BF7013496CE0FDF1F698170E04E
:101C500080E090E0982F872F762F6627288130E04C
:101C600040E050E0622B732B842B952B2A8130E0CF
:101C700040E050E0A90133272227262B372B482BA1
:101C8000592B8B8190E0A0E0B0E0B82FAA279927CC
:101C90008827822B932BA42BB52BE8018E8B9F8B4F
:101CA000A88FB98F3496CF01DF91CF911F910F91FB
:101CB000FF90EF90089583E293E0089585E393E029
:101CC0000895EF92FF920F931F93CF93DF938C01B0
:101CD000EB0102960E94C70C7C01DE01A80FB91F20
:101CE00011966C91119770E080E090E0982F872F0B
:101CF000762F66272C9130E040E050E0622B732B6A
:101D0000842B952B12962C91129730E040E050E0F6
:101D1000A90133272227262B372B482B592B139623
:101D20008C9190E0A0E0B0E0B82FAA2799278827EF
:101D3000822B932BA42BB52BF801828B938BA48B36
:101D4000B58BF7013496CE0FDF1F698170E080E01C
:101D500090E0982F872F762F6627288130E040E08B
:101D600050E0622B732B842B952B2A8130E040E0CE
:101D700050E0A90133272227262B372B482B592B3C
:101D80008B8190E0A0E0B0E0B82FAA2799278827A0
:101D9000822B932BA42BB52BE8018E8B9F8BA88FC6
:101DA000B98F3496CF01DF91CF911F910F91FF90A2
:101DB000EF90089586E593E0089589E693E008950D
:101DC000CF92DF92EF92FF920F931F93CF93DF9307
:101DD0006C01EB0102960E94C70CDC01FE01E80FCA
:101DE000F91F618170E080E090E0982F872F762FB7
:101DF0006627208130E040E050E0622B732B842B7B
:101E0000952B228130E040E050E0A90133272227C2
:101E1000262B372B482B592B638170E080E090E014
:101E2000962F882777276627622B732B842B952B79
:101E3000F601628B738B848B958B1496FE01EA0FEF
:101E4000FB1F618170E080E090E0982F872F762F54
:101E50006627208130E040E050E0622B732B842B1A
:101E6000952B228130E040E050E0A9013327222762
:101E7000262B372B482B592B638170E080E090E0B4
:101E8000962F882777276627622B732B842B952B19
:101E9000F601668B778B808F918FBD016C5F7F4FD2
:101EA000FE01E60FF71F218130E040E050E0542FA3
:101EB000432F322F2227828190E0A0E0B0E0DC01A6
:101EC00099278827282B392B4A2B5B2BE080FF246E
:101ED00000E010E02E293F29402B512B838190E018
:101EE000A0E0B0E0B82FAA2799278827282B392B04
:101EF0004A2B5B2BF601228F338F448F558F6C5FFB
:101F00007F4FFE01E60FF71F218130E040E050E0F7
:101F1000542F432F322F2227828190E0A0E0B0E09F
:101F2000DC0199278827282B392B4A2B5B2B8081B2
:101F300090E0A0E0B0E0282B392B4A2B5B2B83816B
:101F400090E0A0E0B0E0B82FAA2799278827282B97
:101F5000392B4A2B5B2BF601268F378F40A351A3D9
:101F60006C5F7F4FFE01E60FF71F218130E040E0FC
:101F700050E0542F432F322F2227828190E0A0E09F
:101F8000B0E0DC0199278827282B392B4A2B5B2BC3
:101F9000808190E0A0E0B0E0282B392B4A2B5B2B0E
:101FA000838190E0A0E0B0E0B82FAA279927882786
:101FB000282B392B4A2B5B2BF60122A333A344A3F6
:101FC00055A36C5F7F4FFE01E60FF71F218130E0C4
:101FD00040E050E0542F432F322F2227828190E09F
:101FE000A0E0B0E0DC0199278827282B392B4A2B69
:101FF0005B2B808190E0A0E0B0E0282B392B4A2BAE
:102000005B2B838190E0A0E0B0E0B82FAA2799274E
:102010008827282B392B4A2B5B2BF60126A337A3C5
:1020200040A751A7DB011496FE01EA0FFB1F618157
:1020300070E080E090E0982F872F762F6627208130
:1020400030E040E050E0622B732B842B952B2281F3
:1020500030E040E050E0A90133272227262B372B20
:10206000482B592B638170E080E090E0962F882701
:1020700077276627622B732B842B952BF60162A79B
:1020800073A784A795A71496CA0FDB1F698170E018
:1020900080E090E0982F872F762F6627288130E008
:1020A00040E050E0622B732B842B952B2A8130E08B
:1020B00040E050E0A90133272227262B372B482B5D
:1020C000592B6B8170E080E090E0962F882777276E
:1020D0006627622B732B842B952B66A777A780AB83
:1020E00091AB1496CD01DF91CF911F910F91FF908D
:1020F000EF90DF90CF9008958AE893E008958DE9FE
:1021000093E008950F931F93CF93DF938C01EB011E
:1021100002960E94C70CDC01FE01E80FF91F6181E5
:1021200070E080E090E0982F872F762F662720813F
:1021300030E040E050E0622B732B842B952B228102
:1021400030E040E050E0A90133272227262B372B2F
:10215000482B592B638170E080E090E0962F882710
:1021600077276627622B732B842B952BF801628BC4
:10217000738B848B958B1496FE01EA0FFB1F618194
:1021800070E080E090E0982F872F762F66272081DF
:1021900030E040E050E0622B732B842B952B2281A2
:1021A00030E040E050E0A90133272227262B372BCF
:1021B000482B592B638170E080E090E0962F8827B0
:1021C00077276627622B732B842B952BF801668B60
:1021D000778B808F918F1496FE01EA0FFB1F618130
:1021E00070E080E090E0982F872F762F662720817F
:1021F00030E040E050E0622B732B842B952B228142
:1022000030E040E050E0A90133272227262B372B6E
:10221000482B592B638170E080E090E0962F88274F
:1022200077276627622B732B842B952BF801628FFF
:10223000738F848F958F1496FE01EA0FFB1F6181C7
:1022400070E080E090E0982F872F762F662720811E
:1022500030E040E050E0622B732B842B952B2281E1
:1022600030E040E050E0A90133272227262B372B0E
:10227000482B592B638170E080E090E0962F8827EF
:1022800077276627622B732B842B952BF801668F9B
:10229000778F80A391A31496FE01EA0FFB1F618143
:1022A00070E080E090E0982F872F762F66272081BE
:1022B00030E040E050E0622B732B842B952B228181
:1022C00030E040E050E0A90133272227262B372BAE
:1022D000482B592B638170E080E090E0962F88278F
:1022E00077276627622B732B842B952BF80162A32B
:1022F00073A384A395A3BD016C5F7F4FFE01E60F1E
:10230000F71F218130E040E050E0542F432F322F5F
:102310002227808190E0A0E0B0E0282B392B4A2BC7
:102320005B2B828190E0A0E0B0E0DC019927882758
:10233000822B932BA42BB52B238130E040E050E07F
:10234000522F442733272227282B392B4A2B5B2B4C
:10235000F80126A337A340A751A7DB011496FE017D
:10236000EA0FFB1F618170E080E090E0982F872FDB
:10237000762F6627208130E040E050E0622B732BFF
:10238000842B952B228130E040E050E0A9013327D7
:102390002227262B372B482B592B638170E080E0B6
:1023A00090E0962F882777276627622B732B842B44
:1023B000952BF80162A773A784A795A71496FE0131
:1023C000EA0FFB1F618170E080E090E0982F872F7B
:1023D000762F6627208130E040E050E0622B732B9F
:1023E000842B952B228130E040E050E0A901332777
:1023F0002227262B372B482B592B638170E080E056
:1024000090E0962F882777276627622B732B842BE3
:10241000952BF80166A777A780AB91AB1496FE01C8
:10242000EA0FFB1F618170E080E090E0982F872F1A
:10243000762F6627208130E040E050E0622B732B3E
:10244000842B952B228130E040E050E0A901332716
:102450002227262B372B482B592B638170E080E0F5
:1024600090E0962F882777276627622B732B842B83
:10247000952BF80162AB73AB84AB95AB1496CA0F86
:10248000DB1F698170E080E090E0982F872F762F26
:102490006627288130E040E050E0622B732B842BCC
:1024A000952B2A8130E040E050E0A9013327222714
:1024B000262B372B482B592B6B8170E080E090E066
:1024C000962F882777276627622B732B842B952BD3
:1024D00066AB77AB80AF91AF1496CD01DF91CF9112
:1024E0001F910F9108958EEB93E0089586ED93E090
:1024F00008958F929F92AF92BF92CF92DF92EF9208
:10250000FF920F931F93CF93DF93FC014B01DB01ED
:10251000ED90FD900D911C916D5F7F4FDB0184E08C
:1025200090E024E0A22EB12CC12CD12CAE0CBF1C0B
:10253000C01ED11E05C011962C9111972D930196A6
:102540009C0140E050E02A153B054C055D0598F3E1
:1025500087010C5F1F4FE401C00FD11FDE011197EF
:102560001C9273836283888190E0A0E0B0E02481B4
:10257000358146815781822B932BA42BB52B8483E5
:102580009583A683B783298130E040E050E0542F43
:10259000432F322F2227282B392B4A2B5B2B2483C6
:1025A0003583468357838A8190E0A0E0B0E0DC0168
:1025B00099278827822B932BA42BB52B8483958373
:1025C000A683B7832B8130E040E050E0522F4427B0
:1025D00033272227282B392B4A2B5B2B2483358347
:1025E00046835783B8016C5F7F4FE401C60FD71F46
:1025F000888190E0A0E0B0E0208531854285538558
:10260000822B932BA42BB52B80879187A287B3872E
:10261000298130E040E050E0542F432F322F222711
:10262000282B392B4A2B5B2B2087318742875387F6
:102630008A8190E0A0E0B0E0DC0199278827822B16
:10264000932BA42BB52B80879187A287B3872B81EF
:1026500030E040E050E0522F442733272227282B38
:10266000392B4A2B5B2B20873187428753876C5F3E
:102670007F4FCB01DF91CF911F910F91FF90EF9092
:10268000DF90CF90BF90AF909F908F90089587EF8D
:1026900093E0089584E194E00895CF92DF92EF9261
:1026A000FF920F931F93DF93CF930F920F92CDB7AB
:1026B000DEB76C018B01DC0112968C911297FB0145
:1026C000808311821282138220E034E0E32EF12C09
:1026D0003CE018C0239FA0011124F6018785908952
:1026E000840F951FFC0140815181FA014081518185
:1026F000BD0129833A83FA011995E80EF91E298153
:102700002F5F3A81D60112968C91D801AE0DBF1D74
:10271000281700F3F60181898C93828911968C9396
:102720001197838912968C931297848913968C93B0
:10273000139797012C5F3F4FC9010F900F90CF91D6
:10274000DF911F910F91FF90EF90DF90CF90089550
:1027500085E394E008958FE494E008950F931F9328
:10276000CF93DF938C01EB0102960E944D13FE0183
:10277000E80FF91FD80157962C91579720839C0199
:102780002F5F3F4FFE01E20FF31F10822F5F3F4F7D
:10279000FE01E20FF31F10822F5F3F4FFE01E20F99
:1027A000F31F10822F5F3F4FFC013496EC0FFD1F8B
:1027B00080E00AC0E801A98DBA8DA80FB11D9C91D7
:1027C00091932F5F3F4F8F5FD80157969C915797FA
:1027D000891780F3C901DF91CF911F910F9108955F
:1027E00080E794E0089589E894E00895FC018281EF
:1027F0008093300883818093C80D0895FC01EE57C3
:10280000FB4F80810895FC0183A194A1089580E786
:1028100094E0089589E894E008950F931F93CF936F
:10282000DF93EC018C010A5F1F4FC8010E94B60CB8
:10283000EA85FB85C8011995DF91CF911F910F9112
:102840000895FC018485958508958EEB92E00895A6
:1028500081ED92E008950F931F93CF93DF93EC01E6
:102860008C010A5F1F4FC8010E94E20DE8A1F9A187
:10287000C8011995DF91CF911F910F910895FC0127
:1028800082A193A1089583E293E0089585E393E004
:1028900008958F929F92AF92BF92CF92DF92EF9264
:1028A000FF920F931F93CF93DF93EC018B018A81EB
:1028B000DB018C938B8111968C936C817D81DB0184
:1028C000FD0101900020E9F73197EA1BFB0B9F0106
:1028D00040E050E0D80112962D933D934D935C93C8
:1028E000159798012A5F3F4FC901AF010E94A3408D
:1028F000F8012281338166E0E62EF12CE20EF31E10
:10290000E00EF11E6E817F81DB01FD010190002050
:10291000E9F73197EA1BFB0B5F01CC24DD24D701DB
:10292000AD92BD92CD92DC9213975AE0C52ED12C78
:10293000C20ED31E98012C0D3D1DC901AF010E948E
:10294000A340F701208131812C0D3D1D6801C20E8D
:10295000D31E68857985DB01FD0101900020E9F730
:102960003197EA1BFB0B4F01AA24BB24D6018D92A1
:102970009D92AD92BC92139744E0E42EF12CE20EAE
:10298000F31E98012E0D3F1DC901AF010E94A34007
:10299000F601208131812E0D3F1D5A854B859C8586
:1029A0008D85F801E20FF31F508341839283838367
:1029B0002C5F3F4FC901DF91CF911F910F91FF9085
:1029C000EF90DF90CF90BF90AF909F908F90089541
:1029D000CF93DF93FC01EB01828188836381748153
:1029E000DB01FD0101900020E9F73197EA1BFB0BA9
:1029F000CF01A0E0B0E089839A83AB83BC839E01C2
:102A00002B5F3F4FC901AF010E94A34029813A814A
:102A10002B5F3F4FC901DF91CF9108956F927F9255
:102A20008F929F92AF92BF92CF92DF92FF920F93BD
:102A30001F93CF93DF938C01EB01DC0112968C91F5
:102A40001297888319821A821B826B0140E024E06E
:102A500030E021C0842F90E0880F991F880F991FC4
:102A6000F801A781B085A80FB91F6C9111965C91F0
:102A7000119712969C91129713968C91D6016C9394
:102A800011965C93119712969C93129713968C93C0
:102A90002C5F3F4F4F5FE4E0F0E0CE0EDF1ED80129
:102AA00012968C9112974817A8F2FE01E20FF31FBD
:102AB00019968C9180832F5F3F4FDE01A20FB31FC9
:102AC0001C922F5F3F4FDE01A20FB31F1C922F5F9E
:102AD0003F4FDE01A20FB31F1C922F5F3F4F6F01CC
:102AE00040E021C0842F90E0880F991F880F991F24
:102AF000F801A685B785A80FB91F6C9111965C9156
:102B0000119712969C91129713968C91D6016C9303
:102B100011965C93119712969C93129713968C932F
:102B20002C5F3F4F4F5FE4E0F0E0CE0EDF1ED80198
:102B300019968C9119974817A8F2FE01E20FF31F1E
:102B400050968C91509780832F5F3F4FFE01E20F8C
:102B5000F31F10822F5F3F4FFE01E20FF31F108221
:102B60002F5F3F4FFE01E20FF31F10822F5F3F4F99
:102B7000FF2433C05E01A20EB31E8F2D90E0880F9C
:102B8000991FD8015396ED91FC915497E80FF91FC6
:102B900060817181DB01FD0101900020E9F731972F
:102BA000EA1BFB0B3F0188249924D5016D927D928D
:102BB0008D929C921397A4E0CA2ED12CC20ED31EE4
:102BC0009E012C0D3D1DC901AF010E94A340F501DE
:102BD000208131812C0D3D1DF394D80150968C91AC
:102BE0005097F81638F2C901DF91CF911F910F91DC
:102BF000FF90DF90CF90BF90AF909F908F907F908D
:102C00006F900895CF93DF93FC01EB01828188835D
:102C10008381898384818A8385818B8386818C8368
:102C200087818D8380858E8381858F838285888748
:102C30008385898784858A8785858B87668577855F
:102C4000DB01FD0101900020E9F73197EA1BFB0B46
:102C5000CF01A0E0B0E08C879D87AE87BF879E0143
:102C6000205F3F4FC901AF010E94A3402C853D85E5
:102C7000205F3F4FC901DF91CF9108950F931F93BC
:102C8000CF93DF93EC018B0102960E9402169C0108
:102C90005A894B899C898D89F801E20FF31F508373
:102CA0004183928383832C5F3F4F5E894F89988D48
:102CB000898DF801E20FF31F508341839283838350
:102CC0002C5F3F4F5A8D4B8D9C8D8D8DF801E20FFF
:102CD000F31F50834183928383832C5F3F4F5E8D2C
:102CE0004F8D98A189A1F801E20FF31F5083418312
:102CF000928383832C5F3F4F5AA14BA19CA18DA14E
:102D0000F801E20FF31F50834183928383832C5F8A
:102D10003F4F5EA14FA198A589A5F801E20FF31FCF
:102D200050834183928383832C5F3F4F5AA54BA5E9
:102D30009CA58DA5F801E20FF31F50834183928378
:102D400083832C5F3F4F5EA54FA598A989A9F80101
:102D5000E20FF31F50834183928383832C5F3F4FA5
:102D6000C901DF91CF911F910F9108950F931F9388
:102D7000CF93DF93EC018B0102960E9402169C0117
:102D80005A894B899C898D89F801E20FF31F508382
:102D90004183928383832C5F3F4F5E894F89988D57
:102DA000898DF801E20FF31F50834183928383835F
:102DB0002C5F3F4FC901DF91CF911F910F91089573
:102DC0000F931F93CF93DF93EC018B0102960E9428
:102DD00002169C015A894B899C898D89F801E20F62
:102DE000F31F50834183928383832C5F3F4F5E891F
:102DF0004F89988D898DF801E20FF31F508341832D
:102E0000928383832C5F3F4F5A8D4B8D9C8D8D8D8C
:102E1000F801E20FF31F50834183928383832C5F79
:102E20003F4F5E8D4F8D98A189A1F801E20FF31FEE
:102E300050834183928383832C5F3F4F5AA14BA1E0
:102E40009CA18DA1F801E20FF31F5083418392836F
:102E500083832C5F3F4F5EA14FA198A589A5F80100
:102E6000E20FF31F50834183928383832C5F3F4F94
:102E70005AA54BA59CA58DA5F801E20FF31F508321
:102E80004183928383832C5F3F4F5EA54FA598A912
:102E900089A9F801E20FF31F508341839283838352
:102EA0002C5F3F4F5AA94BA99CA98DA9F801E20FAD
:102EB000F31F50834183928383832C5F3F4F5EA92E
:102EC0004FA998AD89ADF801E20FF31F50834183FC
:102ED000928383832C5F3F4FC901DF91CF911F9174
:102EE0000F9108950F931F93CF93DF93EC018B0104
:102EF00002960E9402169C015A894B899C898D89F1
:102F0000F801E20FF31F50834183928383832C5F88
:102F10003F4F5E894F89988D898DF801E20FF31F2D
:102F200050834183928383832C5F3F4FC901DF919C
:102F3000CF911F910F9108950F931F93CF93DF931C
:102F4000EC018B016A817B81DB01FD010190002096
:102F5000E9F73197EA1BFB0B9F0140E050E0D801F5
:102F60002D933D934D935D93CD01AF010E94A340FE
:102F7000F801208131812C5F3F4FE20FF31F8C81DC
:102F800080838D8181838E8182838F8183832C5F77
:102F90003F4FF801E20FF31F888580838985818385
:102FA0008A8582838B8583832C5F3F4FC901DF91A4
:102FB000CF911F910F9108956F927F928F929F9260
:102FC000AF92BF92CF92DF92EF92FF920F931F9337
:102FD000CF93DF93EC015B01DB010C918A818017B9
:102FE00060F4602F70E0660F771F660F771F8F8188
:102FF00098850E94C73F8F8398870A83F50160E018
:1030000034E0C32ED12C8E010D5F1F4F45C081814E
:1030100090E0A0E0B0E0BA2FA92F982F8827228156
:1030200030E040E050E0A90133272227822B932B88
:10303000A42BB52B208130E040E050E0822B932B75
:10304000A42BB52B238130E040E050E0522F4427E1
:1030500033272227822B932BA42BB52B8B839C8386
:10306000AD83BE8384E090E0C80ED91E862F90E029
:10307000880F991F880F991F2F813885280F391FB6
:10308000D8016D907D908D909C90D9016D927D922C
:103090008D929C9213976F5F34968A81681708F41B
:1030A000B6CF85010C0D1D1DF8018080898588151E
:1030B00060F4682D70E0660F771F660F771F8E85AE
:1030C0009F850E94C73F8E879F8784E090E0C80E4F
:1030D000D91E8986F80160E08E01065F1F4F45C04A
:1030E000208130E040E050E0818190E0A0E0B0E05D
:1030F000BA2FA92F982F8827822B932BA42BB52B7F
:10310000228130E040E050E0A90133272227282B1C
:10311000392B4A2B5B2B838190E0A0E0B0E0B82FE5
:10312000AA2799278827822B932BA42BB52B8A8734
:103130009B87AC87BD87A4E0B0E0CA0EDB1E862F5C
:1031400090E0880F991F880F991F2E853F85280FC3
:10315000391FD8016D907D908D909C90D9016D9212
:103160007D928D929C9213976F5F34968985681734
:1031700008F4B6CFF501EC0DFD1D0081888980179C
:1031800050F4602F70E0660F771F8B899C890E9436
:10319000C73F8B8B9C8BF6013496088B7724A1E17B
:1031A0008A2E912C8C0E9D1E41C0D501AE0FBF1FE3
:1031B000CD90DD90ED90FC90DF0114963396EA0DF2
:1031C000FB1D8D019D01442737FD4095542F2C0D8B
:1031D0003D1D4E1D5F1D04C0818181930F5F1F4FF8
:1031E000B80180E090E06217730784079507A0F3A9
:1031F000CA0EDB1EC5018C0D9D1D0197FC011082BE
:103200001197AA0DBB1DBA8BA98BF601872D90E0F3
:10321000880F991F2B893C89280F391FD4018D9164
:103220009C91D90111969C938E93739488897816FA
:1032300008F4BBCFCF01DF91CF911F910F91FF9089
:10324000EF90DF90CF90BF90AF909F908F907F9046
:103250006F900895AF92BF92CF92DF92EF92FF925C
:103260000F931F93DF93CF930F920F92CDB7DEB7DB
:103270005C018B01DB01EC90FC0182818E1578F4FE
:103280006CE0FE2DF69FB0011124D5011F968D91A3
:103290009C9150970E94C73FF5018787908BD5017D
:1032A0001296EC92129720E094E0C92ED12C83E084
:1032B000E82EF12CEA0CFB1C3CE01AC0C701298364
:1032C0003A830E947912C80ED91E29813A81239F20
:1032D000C0011124D5011F96ED91FC915097E80F84
:1032E000F91FD7018CE00D9001928150E1F72F5F1B
:1032F000F5018281B8016C0D7D1D2817F8F2DB0104
:103300008C9190E0A0E0B0E0218932894389548912
:10331000822B932BA42BB52B818B928BA38BB48BFD
:10332000FB01218130E040E050E0542F432F322F49
:103330002227282B392B4A2B5B2BD50151962D9315
:103340003D934D935C935497828190E0A0E0B0E070
:10335000DC0199278827822B932BA42BB52BF50111
:10336000818B928BA38BB48BFB01238130E040E0F7
:1033700050E0522F442733272227282B392B4A2B62
:103380005B2BD50151962D933D934D935C935497B0
:1033900096012C5F3F4FC9010F900F90CF91DF91A5
:1033A0001F910F91FF90EF90DF90CF90BF90AF9063
:1033B0000895DF92EF92FF920F931F93CF93DF93C5
:1033C000EC018B0102960E942A197C01F801E80F9A
:1033D000F91FD0808F898D1540F4898D9A8D6D2DC0
:1033E00070E00E94C73F898F9A8F97012C5F3F4FF3
:1033F000DF8A020F131F40E0CE01489610C0D801AB
:103400006D918D01588D562B588F2F5F3F4FE98D51
:10341000FA8DE40FF11DDC015C9150834F5F5F89F1
:10342000451768F3C901DF91CF911F910F91FF906C
:10343000EF90DF9008950F931F93CF93DF93EC01EC
:103440008C010A5F1F4FC8010E94D919E9A1FAA196
:10345000C8011995DF91CF911F910F9108950F9396
:103460001F93CF93DF938C01C0E0D0E0D801579633
:103470008C915797C817B0F4C230D10599F0CE019E
:10348000880F991F8C0F9D1F5996ED91FC915A97AB
:10349000EC0FFD1F60818653984F70E00E946F3BD8
:1034A0002196E4CFDF91CF911F910F910895AF92B4
:1034B000BF92CF92DF92EF92FF920F931F93CF9321
:1034C000DF93EC016A897B898C899D892091DC07D7
:1034D0003091DD074091DE075091DF070E94914156
:1034E0000E94F9415B016C016E897F89888D998DFD
:1034F0002091F4073091F5074091F6075091F707B6
:103500000E9491410E94F9417B018C01A114B104F8
:10351000C104D10441F48DE398E060E821E030E09B
:1035200040E050E005C08DE398E060E8A601950119
:103530000E940A07E114F1040105110541F48DE32D
:1035400098E060E821E030E040E050E005C08DE325
:1035500098E060E8A80197010E943407DF91CF91BD
:103560001F910F91FF90EF90DF90CF90BF90AF90A1
:103570000895CF93DF93FC01AB0186819781EC0125
:10358000A881B98164817581ED91FC911995DF91D4
:10359000CF910895FC0142815381648175818081BE
:1035A00091810E94F13408952F923F924F925F9241
:1035B0006F927F928F929F92AF92BF92CF92DF9243
:1035C000EF92FF920F931F93DF93CF93CDB7DEB7A8
:1035D00064970FB6F894DEBF0FBECDBFE090310701
:1035E000F09032070091330710913407C801B701FA
:1035F0000E948E4169837A838B839C83C801B701C3
:103600000E94D4436D837E838F839887E090350733
:10361000F09036070091370710913807C801B701BD
:103620000E948E416D877E878F87988BC801B70176
:103630000E94D44369877A878B879C87E0904505F1
:10364000F090460581EB91E0E89EB001E99E700D97
:10365000F89E700D11248091D3069091D406680FC6
:10366000791F882777FD8095982F0E942C4220E0B3
:1036700030E049EA53E40E9491415B016C01B701DB
:10368000882777FD8095982F0E942C4220E030E01B
:1036900040E05FE30E9471439B01AC01C601B501AC
:1036A0000E94AC40562E472E382E292EA2019101A1
:1036B000852F942FA32FB22F8093D9069093DA06EB
:1036C000A093DB06B093DC06E0904705F090480538
:1036D00086E991E0E89EB001E99E700DF89E700DBC
:1036E00011248091D5069091D606680F791F8827FE
:1036F00077FD8095982F0E942C4220E030E84FED16
:1037000053E40E9491415B016C01B701882777FD6A
:103710008095982F0E942C4220E030E040E05FE34B
:103720000E9471439B01AC01C601B5010E94AC40EF
:10373000D62EC72EB82EA92EA6019501852F942F1F
:10374000A32FB22F8093DD069093DE06A093DF06B1
:10375000B093E006E0904905F0904A0585EC90E0D2
:10376000E89EB001E99E700DF89E700D11248091C5
:10377000D7069091D806680F791F882777FD809526
:10378000982F0E942C4220E030E048EC53E40E9445
:1037900091413B014C01B701882777FD8095982F17
:1037A0000E942C4220E030E040E05FE30E94714341
:1037B0009B01AC01C401B3010E94AC408B017C01B0
:1037C000862F912FAE2DBF2D8093E1069093E206B8
:1037D000A093E306B093E406A6019501652F742F2C
:1037E000832F922F29813A814B815C810E94714302
:1037F0003B014C01602F712F8E2D9F2D2D813E811D
:103800004F8158850E9471439B01AC01C401B301F3
:103810000E94AC409B01AC015058298B3A8B4B8BDA
:103820005C8BA2019101652F742F832F922F2D8520
:103830003E854F8558890E9471433B014C01A6018A
:103840009501652F742F832F922F2D813E814F81FB
:1038500058850E94714329853A854B855C850E9475
:1038600071439B01AC01C401B3010E94AD405B01F7
:103870006C01602F712F8E2D9F2D29813A814B81F4
:103880005C810E94714329853A854B855C850E9445
:1038900071439B01AC01C601B5010E94AD409B0183
:1038A000AC0169897A898B899C890E943741609330
:1038B000E5067093E6068093E7069093E806649623
:1038C0000FB6F894DEBF0FBECDBFCF91DF911F9131
:1038D0000F91FF90EF90DF90CF90BF90AF909F90AF
:1038E0008F907F906F905F904F903F902F900895B2
:1038F00060916705709168058091690590916A05EE
:103900000E94114190586093350770933607809359
:1039100037079093380760916B0570916C05809123
:103920006D0590916E0520916F0530917005409165
:103930007105509172050E94374160933107709371
:103940003207809333079093340760915B05709141
:103950005C0580915D0590915E0520914F05309149
:10396000500540915105509152050E943741609396
:10397000390770933A0780933B0790933C0708956B
:1039800083EE90E10E941E390895CF93DF93CBE739
:10399000D7E0CE0160E24FE00E941502CE0163E263
:1039A00040E20E941502DF91CF9108950F931F937B
:1039B000CF93DF938BE797E00E943B0260917B07F8
:1039C00070917C0780917D0790917E070E94F9415C
:1039D000EB017093B0066093AF0660917F07709122
:1039E000800780918107909182070E94F9418B01A5
:1039F0007093B2066093B10660918307709184075B
:103A000080918507909186070E94F9419B017093F0
:103A1000B4066093B3068091BB069091BC06C81BA8
:103A2000D90B4091390550913A05C49FC001C59FFB
:103A3000900DD49F900D11249093C8068093C706D3
:103A40008091BD069091BE06081B190B40913B0565
:103A500050913C05049FC001059F900D149F900D4F
:103A600011249093CA068093C9068091BF06909155
:103A7000C006281B390B40913D0550913E05249FFF
:103A8000C001259F900D349F900D11249093CC067A
:103A90008093CB06DF91CF911F910F910895CF9323
:103AA000DF93C7E8D7E0CE0160E247E20E94EF0271
:103AB000CE0163E240E30E94EF02DF91CF910895CF
:103AC0000F931F93CF93DF9387E897E00E949703AC
:103AD00060918707709188078091890790918A0784
:103AE0000E94F941EB017093B6066093B5066091B0
:103AF0008B0770918C0780918D0790918E070E94A3
:103B0000F9418B017093B8066093B70660918F07F7
:103B10007091900780919107909192070E94F941CE
:103B20009B017093BA066093B9068091C10690918B
:103B3000C206C81BD90B40913F0550914005C49F58
:103B4000C001C59F900DD49F900D11249093CE0677
:103B50008093CD068091C3069091C406081B190B73
:103B60004091410550914205049FC001059F900D71
:103B7000149F900D11249093D0068093CF068091CE
:103B8000C5069091C606281B390B409143055091FC
:103B90004405249FC001259F900D349F900D112452
:103BA0009093D2068093D106DF91CF911F910F9110
:103BB0000895CF93DF93C7E8D7E0CE0163E042E0FA
:103BC0000E94DD04CE0162E040E00E941503DF9117
:103BD000CF9108950F931F93CF93DF9381E890E1E6
:103BE00040E052EC61E070E00E94F1348DE061E071
:103BF0000E946B380E94C01C8DE060E00E948F38EC
:103C000066E970E080E090E00E94A5370E944F1DB9
:103C10000E94D91D0E94C51C64E170E080E090E024
:103C20000E94A53700E210E00E94D61C0E94601D91
:103C3000AFEAB6E0CBEBD6E0FE012D913D9180815D
:103C40009181820F931F8193919386E0AB3BB807DC
:103C5000A1F764E170E080E090E00E94A537015098
:103C6000104011F720E230E088819981B9010E946B
:103C700067446993799386E0C73CD807A9F74091D8
:103C800043055091440520E03FEF429FC001439F10
:103C9000900D529F900D11242091C5063091C606BB
:103CA000820F931F9093C6068093C5068DE061E056
:103CB0000E948F380E9471376093A7067093A80600
:103CC0008093A9069093AA06109256071092550762
:103CD000DF91CF911F910F91089587E897E00E949F
:103CE00021046091450570914605882777FD8095F0
:103CF000982F0E942C422091930730919407409175
:103D00009507509196070E9471430E94F941709364
:103D1000D4066093D30660914705709148058827C3
:103D200077FD8095982F0E942C4220919707309123
:103D300098074091990750919A070E9471430E94F9
:103D4000F9417093D6066093D5066091490570914C
:103D50004A05882777FD8095982F0E942C42209154
:103D60009B0730919C0740919D0750919E070E94B0
:103D700071430E94F9417093D8066093D706089565
:103D8000AF92BF92CF92DF92EF92FF920F931F9369
:103D9000CF93DF93C82ED92EA62EB72EC3E0D0E046
:103DA00010E000E0FF24EE24F60161917191819111
:103DB00091916F01F50121913191419151915F01F3
:103DC0000E9471439B01AC01D801F7016B2F702F4A
:103DD0008F2F9E2D0E94AD40162F072FF82EE92E13
:103DE000219711F7A8019701652F742F832F922F28
:103DF000DF91CF911F910F91FF90EF90DF90CF90C7
:103E0000BF90AF900895AF92BF92CF92DF92EF92A2
:103E1000FF920F931F93CF93DF937C01EB018A01F5
:103E20006C817D818E819F81FA012085318542855B
:103E300053850E9471435B016C01688579858A8591
:103E40009B85F80124813581468157810E94714309
:103E50009B01AC01C601B5010E94AC40F701608333
:103E6000718382839383688579858A859B85F80130
:103E700020813181428153810E9471435B016C0139
:103E8000688179818A819B81F8012085318542850D
:103E900053850E9471439B01AC01C601B5010E948C
:103EA000AC40F70164837583868397836881798149
:103EB0008A819B81F80124813581468157810E9446
:103EC00071435B016C016C817D818E819F81F80162
:103ED00020813181428153810E9471439B01AC0159
:103EE000C601B5010E94AC40F701608771878287E7
:103EF0009387DF91CF911F910F91FF90EF90DF900B
:103F0000CF90BF90AF900895CF92DF92EF92FF9243
:103F10000F931F93CF93DF936C01EB0179018A011B
:103F2000688179818A819B810E947143F601608357
:103F30007183828393836C817D818E819F81A801AF
:103F400097010E947143F60164837583868397838A
:103F5000688579858A859B85A80197010E947143B0
:103F6000F6016087718782879387DF91CF911F91D8
:103F70000F91FF90EF90DF90CF900895CF92DF9256
:103F8000EF92FF920F931F93CF93DF93062F172F7C
:103F9000E42EF52EC82ED92EC0E0D0E0F8016191B4
:103FA0007191819191918F01F7012191319141910D
:103FB00051917F010E94AD40F6016193719381930D
:103FC00091936F012196C330D10541F7DF91CF91D5
:103FD0001F910F91FF90EF90DF90CF9008956F9217
:103FE0007F928F929F92AF92BF92CF92DF92EF9289
:103FF000FF920F931F932091E9063091EA064091BA
:10400000EB065091EC06E090ED06F090EE06009184
:10401000EF061091F006A090F106B090F206C09065
:10402000F306D090F406CA01B9010E9471433B0126
:104030004C01C801B701A80197010E9471439B017F
:10404000AC01C401B3010E94AD407B018C01C601EB
:10405000B501A60195010E9471439B01AC01C80105
:10406000B7010E94AD400E94DE4320E030E040E80E
:104070005BE30E9471439B01AC0160E070E080E86B
:104080009FE30E94AC40F62E072F182FE92E20E068
:1040900030E0A9010E9466431816D4F46F2D702FEA
:1040A000812F9E2D2F2D302F412F5E2D0E94AD4050
:1040B0009B01AC0160E070E080E89FE30E94AC40AF
:1040C00020E030E0A9010E948A4187FF19C075C035
:1040D0006F2D702F812F9E2D2F2D302F412F5E2D74
:1040E0000E94AD4020E030E040E85FE30E94AD4038
:1040F00020E030E0A9010E948A4187FF1DC05DC019
:104100006F2D702F812F9E2D2F2D302F412F5E2D43
:104110000E94AD409B01AC0160E070E080E89FE34D
:104120000E94AC4020E030E040E85FE30E9466433C
:1041300018160CF447C019C06F2D702F812F9E2DBB
:104140002F2D302F412F5E2D0E94AD4020E030E01A
:1041500040E85FE30E94AD4020E030E040E85FE3EC
:104160000E946643181674F113C06F2D702F812FB3
:104170009E2D2F2D302F412F5E2D0E94AD409B0193
:10418000AC0160E070E080E89FE30E94AC4010C0AA
:104190006F2D702F812F9E2D2F2D302F412F5E2DB3
:1041A0000E94AD4020E030E040E85FE30E94AD4077
:1041B000F62E072F182FE92E0AC0FF2400E010E08A
:1041C000EE2405C0FF2400E010E83FE3E32E8DE37A
:1041D00097E069EE76E047E655E00E94031F6F2DF9
:1041E000702F812F9E2D2AE037ED43EA5CE30E9479
:1041F00071439B01AC018DE097E06DE377E00E9495
:10420000841F6F2D702F812F9E2D2CEA35EC47EAED
:1042100057E30E9471439B01AC0180E29EE06DE395
:1042200077E00E94841F89E197E0BC0140E25EE0F4
:104230000E94BE1FE090E506F090E6060091E706BA
:104240001091E806C801B7010E948E415B016C0124
:10425000C801B7010E94D44320914F053091500509
:1042600040915105509152050E9471437B018C0190
:10427000C601B50120915B0530915C0540915D055B
:1042800050915E050E9471439B01AC01C801B701CA
:104290000E94AC409B01AC0189E497E067E675E0C1
:1042A0000E94841F8CE29EE069E477E02AE939E904
:1042B00049E95FE30E94841F8DE097E0BC014CE276
:1042C0005EE00E94BE1F80E29EE069E477E02CEA97
:1042D00035EC47EA57E30E94841F89E197E0BC016F
:1042E00040E25EE00E94BE1F1F910F91FF90EF9091
:1042F000DF90CF90BF90AF909F908F907F906F9006
:1043000008956F927F928F929F92AF92BF92CF92B9
:10431000DF92EF92FF920F931F93DF93CF93CDB76E
:10432000DEB7A4970FB6F894DEBF0FBECDBF7FE413
:10433000C72E75E0D72E6CE0662E712C6C0C7D1CA0
:10434000C601B3010E94C01E905820E030E040E05A
:104350005FE30E9471435B01982E892E8E010F5FEF
:104360001F4FC801B301F4012A2D3B2D4F2F5E2FA3
:104370000E94841F5DE0E52EF12CEC0EFD1EC701AE
:10438000B601F4012A2D3B2D4F2F5E2F0E94841F72
:10439000C801B801A6010E94BE1FC701B701A30151
:1043A0000E94BE1F49E1A42EB12CAC0EBD1EC5015A
:1043B000B801A7010E94031FC801B8010E94C01ED6
:1043C0009B01AC0160E070E080E490E40E94AC40AE
:1043D00020E030E040E05FE30E9471439B01AC01CC
:1043E000C601B8010E94841FC701B7010E94C01E08
:1043F0009B01AC0160E070E080E490E40E94AC407E
:1044000020E030E040E05FE30E9471439B01AC019B
:10441000C301B7010E94841FC501B5010E94C01EDF
:104420009B01AC0160E070E080E490E40E94AC404D
:1044300020E030E040E05FE30E9471439B01AC016B
:1044400087E695E0B5010E94841FA4960FB6F89404
:10445000DEBF0FBECDBFCF91DF911F910F91FF90B7
:10446000EF90DF90CF90BF90AF909F908F907F9014
:104470006F9008952F923F924F925F926F927F922A
:104480008F929F92AF92BF92CF92DF92EF92FF9264
:104490000F931F93DF93CF93CDB7DEB72E970FB651
:1044A000F894DEBF0FBECDBF6D877E87C42ED52E9C
:1044B000E82EF92EF4E22F2E312C2C0C3D1C50C08E
:1044C000F80121913191419151918F01F701608162
:1044D0007181828193810E9471434B015C016983E8
:1044E0007A838B839C83F7016481758186819781B0
:1044F000F80120853185428553850E9471439B01D7
:10450000AC016D837E838F839887C501B4010E94BF
:10451000AD404B015C01F701608571858285938513
:10452000F80124893589468957890E9471439B0186
:10453000AC01C501B4010E94AD40F30161937193D8
:10454000819391933F010415150509F0B9CF8CE0D3
:1045500090E0C80ED91EE80EF91EC214D30459F01B
:104560009D858E85092F182FECE04E2E512C400E84
:10457000511E3601A5CF2E960FB6F894DEBF0FBEA2
:10458000CDBFCF91DF911F910F91FF90EF90DF9002
:10459000CF90BF90AF909F908F907F906F905F90E3
:1045A0004F903F902F9008952F923F924F925F929D
:1045B0006F927F928F929F92AF92BF92CF92DF9233
:1045C000EF92FF920F931F93DF93CF9300D00F9240
:1045D000CDB7DEB76091C7067091C806882777FD12
:1045E0008095982F0E942C4229E732E240EA5AE354
:1045F0000E9471436093F5067093F6068093F70668
:104600009093F8066091C9067091CA06882777FDD5
:104610008095982F0E942C4229E732E240EA5AE323
:104620000E9471436093F9067093FA068093FB062B
:104630009093FC066091CB067091CC06882777FD9D
:104640008095982F0E942C4229E732E240EA5AE3F3
:104650000E9471436093FD067093FE068093FF06EF
:10466000909300076091CD067091CE06882777FD64
:104670008095982F0E942C426093E9067093EA0679
:104680008093EB069093EC066091CF067091D00674
:10469000882777FD8095982F0E942C426093ED0625
:1046A0007093EE068093EF069093F0066091D1062A
:1046B0007091D206882777FD8095982F0E942C4212
:1046C0006093F1067093F2068093F3069093F406DC
:1046D00085E297E065EF76E049E157E00E94BE1F72
:1046E00081E097E065E277E04DE057E00E94BE1F71
:1046F0000F2EF0E02F2EF0E03F2EF0E04F2EF0E0F6
:104700005F2EF02D2092730530927405409275054E
:1047100050927605E0904B05F0904C0500914D05C8
:1047200010914E0557016801D7FAD094D7F8D0946C
:104730006090090770900A0780900B0790900C0713
:10474000C601B501A40193010E94714360937705EE
:10475000709378058093790590937A058091050789
:1047600090910607A0910707B091080789839A8363
:10477000AB83BC83C801B70129813A814B815C813D
:104780000E94714360937B0570937C0580937D0547
:1047900090937E05C801B701A40193010E94714363
:1047A00060937F05709380058093810590938205C7
:1047B00020928305309284054092850550928605AB
:1047C00060900107709002078090030790900407A3
:1047D000C601B501A40193010E947143609387054E
:1047E000709388058093890590938A05C601B50169
:1047F00029813A814B815C810E94714360938B05D2
:1048000070938C0580938D0590938E05C801B70138
:10481000A40193010E94714360938F0570939005EA
:104820008093910590939205209293053092940580
:1048300040929505509296058FE495E063E775E008
:1048400047E557E00E943A22AFE4EA2EA5E0FA2EAF
:1048500007E517E0D7016D917D918D919C91F8014D
:1048600020813181428153810E94AD40D7016D93F7
:104870007D938D939C93139714966D917D918D915B
:104880009C911797F80124813581468157810E94B8
:10489000AD40D70114966D937D938D939C9317979C
:1048A00018966D917D918D919C911B97F8012085B3
:1048B0003185428553850E94AD40D70118966D938E
:1048C0007D938D939C931B97ECE0F0E0EE0EFF1E22
:1048D000045F1F4FF3E7EF16F5E0FF0609F0BACFCC
:1048E0000F900F900F900F90CF91DF911F910F912C
:1048F000FF90EF90DF90CF90BF90AF909F908F9000
:104900007F906F905F904F903F902F900895EF921F
:10491000FF920F931F930E9471372091A706309149
:10492000A8064091A9065091AA06621B730B840B3E
:10493000950B643171058105910508F46BC0809178
:104940005507909156070196909356078093550707
:104950002093AB063093AC064093AD065093AE0661
:104960000E9471379B01AC012093A7063093A806E3
:104970004093A9065093AA068091AB069091AC068D
:10498000A091AD06B091AE0682179307A407B507B4
:10499000CCF479018A01E81AF90A0A0B1B0BC80149
:1049A000B7010E942C4220E030E04AE754E40E9424
:1049B000914160934B0570934C0580934D05909306
:1049C0004E050BC080E090E0DC0180934B05909396
:1049D0004C05A0934D05B0934E050E94D61C0E9435
:1049E000601D80915507909156078630910540F0E3
:1049F00010925607109255070E946D1E0E94D41AFD
:104A00000E94D4220E9481210E94EF1F0E94781CE4
:104A100081E001C080E01F910F91FF90EF90089519
:104A2000CF93DF93EC010E943B05CE0105960E94D7
:104A3000103BCE0108960E94103BDF91CF91089564
:104A40000F931F93CF93DF93EC018130910509F011
:104A500069C187E897E00E94B90285EC97E00E945F
:104A6000102581E398E063E370E041E150E025E345
:104A700030E004E310E00E94D3088DE398E06BE59A
:104A800070E120E036E940E050E00E9486058FE3C7
:104A900098E06AE240E00E94A80988EA95E09093D5
:104AA00045088093440888E490E1909347088093F8
:104AB000460880E091EEA0E0B0E080934808909333
:104AC0004908A0934A08B0934B081092C60C86ED93
:104AD00095E09093D50C8093D40CEEEFF5E0F09335
:104AE000EA0CE093E90C83EB94E09093EE0C809356
:104AF000ED0C89EE9CE09093F00C8093EF0C1092FB
:104B0000F60C1092F50C8AE096E09093F80C8093E6
:104B1000F70C86E196E09093FA0C8093F90C1092D2
:104B2000FF0C1092000D1092010D1092020D1092C8
:104B3000030D1092040D1092050D1092060D2BEB33
:104B400034E030932A0D2093290D27EF3CE0309379
:104B50002C0D20932B0D1092320D1092310D22E26C
:104B600036E03093340D2093330D9093360D8093BF
:104B7000350D10923B0D10923C0D10923D0D109290
:104B80003E0D10923F0D1092400D1092410D10926B
:104B9000420D24EC34E030934E0D20934D0D23E371
:104BA0003DE03093500D20934F0D1092560D109212
:104BB000550D2EE236E03093580D2093570D90930B
:104BC0005A0D8093590D10925F0D1092600D109246
:104BD000610D1092620D1092630D1092640D10928F
:104BE000650D1092660D22ED34E03093920D209306
:104BF000910D27E53DE03093940D2093930D109295
:104C00009A0D1092990D6AE376E070939C0D609373
:104C10009B0D46E456E050939E0D40939D0D22E57A
:104C200036E03093A10D2093A00DAAEDB4E0B0932F
:104C3000B70DA093B60DABE9BDE0B093B90DA0934D
:104C4000B80D1092BF0D1092BE0DAEE5B6E0B09358
:104C5000CA0DA093C90DAAE6B6E0B093D00DA093FB
:104C6000CF0D9093D20D8093D10D1092D70D10924D
:104C7000D80D1092D90D1092DA0D1092DB0D109212
:104C8000DC0D1092DD0D1092DE0D87E59AE1909318
:104C9000EA0D8093E90DD093EC0DC093EB0D86EEF9
:104CA00094E09093CE0D8093CD0D86E796E090939F
:104CB000EE0D8093ED0DF093F40DE093F30D86EF80
:104CC00093E19093F80D8093F70DD093FA0DC09374
:104CD000F90D8CEE94E09093F20D8093F10D82E843
:104CE00096E09093FC0D8093FB0D7093020E609301
:104CF000010E5093040E4093030E3093070E209341
:104D0000060E8FE29AE190931D0E80931C0ED093B5
:104D10001F0EC0931E0E83EF94E09093000E8093BD
:104D2000FF0D06C0009721F48DE398E00E948F05E7
:104D3000DF91CF911F910F9108952F923F924F9243
:104D40005F926F927F928F929F92AF92BF92CF921B
:104D5000DF92EF92FF920F931F9360910008709182
:104D600001088091020890910308E0900408F090F7
:104D700005080091060810910708A0900808B09057
:104D80000908C0900A08D0900B082091300822230F
:104D900041F120E030EC4FE754E40E9471430E945F
:104DA000F9411B012C01C801B70120E030EC4FE7AD
:104DB00054E40E9471430E94F9413B014C01C60139
:104DC000B50120E030EC4FE754E40E9471430E94AB
:104DD000F9418B019C0181E398E0B101A3019801A5
:104DE00019C060912408709125088091260890913F
:104DF000270820E030E048E453E40E9471430E9419
:104E0000F9419B01AC0181E398E0B90140E050E039
:104E100020E030E00E946D0960910C0870910D084F
:104E200080910E0890910F08E0901008F090110802
:104E30000091120810911308A0901408B090150862
:104E4000C0901608D090170820913008222341F115
:104E500020E030EC4FE754E40E9471430E94F94196
:104E60001B012C01C801B70120E030EC4FE754E4EE
:104E70000E9471430E94F9413B014C01C601B501FA
:104E800020E030EC4FE754E40E9471430E94F94166
:104E90008B019C0181E398E0B101A301980119C045
:104EA0006091240870912508809126089091270828
:104EB00020E030E048E453E40E9471430E94F9414D
:104EC0009B01AC0181E398E0B90140E050E020E0B3
:104ED00030E00E946D09609124087091250880914E
:104EE000260890912708E0902808F0902908009162
:104EF0002A0810912B08A0902C08B0902D08C09083
:104F00002E08D0902F0820913008222341F120E074
:104F100030EC4FE754E40E9471430E94F9411B01B9
:104F20002C01C801B70120E030EC4FE754E40E94A7
:104F300071430E94F9413B014C01C601B50120E0DB
:104F400030EC4FE754E40E9471430E94F9418B0119
:104F50009C0181E398E0B101A301980111C020E018
:104F600030E048E453E40E9471430E94F9419B0100
:104F7000AC0181E398E0B90140E050E020E030E08E
:104F80000E946D09609118087091190880911A08A3
:104F900090911B08E0901C08F0901D0800911E08DD
:104FA00010911F08A0902008B0902108C0902208FE
:104FB000D090230820913008222341F120E030ECEA
:104FC0004FE754E40E9471430E94F9411B012C01F8
:104FD000C801B70120E030EC4FE754E40E94714370
:104FE0000E94F9413B014C01C601B50120E030ECC3
:104FF0004FE754E40E9471430E94F9418B019C01E8
:1050000081E398E0B101A301980119C060912408DF
:1050100070912508809126089091270820E030E0C3
:1050200048E453E40E9471430E94F9419B01AC01A2
:1050300081E398E0B90140E050E020E030E00E94D8
:105040006D091F910F91FF90EF90DF90CF90BF906F
:10505000AF909F908F907F906F905F904F903F9018
:105060002F900895CF92DF92EF92FF920F931F93AC
:10507000DF93CF93CDB7DEB760970FB6F894DEBF5E
:105080000FBECDBF6C010E94713728EE33E040E0C7
:1050900050E00E947A447B018C01F601848595855D
:1050A000A685B785820F931FA41FB51F89839A8396
:1050B000AB83BC83C801B70120E432E44FE050E089
:1050C0000E943444F6012089318942895389620F54
:1050D000731F841F951F6D837E838F8398877E0146
:1050E0000894E11CF11CC701BE016B5F7F4F0E9459
:1050F0007D01DE011996F70188E001900D92815043
:10510000E1F729853A854B855C856D857E858F85A0
:10511000988960960FB6F894DEBF0FBECDBFCF91D1
:10512000DF911F910F91FF90EF90DF90CF90089546
:10513000EF92FF920F931F93CF93DF938091C00D57
:105140009091C10DA091C20DB091C30D0196A11D0A
:10515000B11D8093C00D9093C10DA093C20DB0936B
:10516000C30D809130088093EB0C8DEE9CE069EECE
:105170007CE00E94B91A07E915E01093440D0093F2
:10518000430DCBE3DDE084E498E00E9432282093D5
:105190003B0D39834A835B836C837D838E839F833E
:1051A0008091C00D9091C10DA091C20DB091C30D21
:1051B0008093370D9093380DA093390DB0933A0D2D
:1051C00085EC97E00E9450056093450D7093460D65
:1051D0008093470D9093480D85EC97E00E946B05F6
:1051E0006093490D70934A0D80934B0D90934C0D35
:1051F0008DE49DE0BE01685070400E94B91A109382
:10520000680D0093670DCFE5DDE084E498E00E942F
:10521000322820935F0D39834A835B836C837D83BF
:105220008E839F838091C00D9091C10DA091C20D7E
:10523000B091C30D80935B0D90935C0DA0935D0DB9
:10524000B0935E0D8091310790913207A0913307A2
:10525000B09134078093690D90936A0DA0936B0D04
:10526000B0936C0D8091350790913607A091370768
:10527000B091380780936D0D90936E0DA0936F0DD4
:10528000B093700D8091390790913A07A0913B0738
:10529000B0913C078093710D9093720DA093730DA4
:1052A000B093740D8091F5069091F606A091F706E3
:1052B000B091F8068093750D9093760DA093770DBD
:1052C000B093780D8091F9069091FA06A091FB06B3
:1052D000B091FC068093790D90937A0DA0937B0D8D
:1052E000B0937C0D8091FD069091FE06A091FF0683
:1052F000B091000780937D0D90937E0DA0937F0D5C
:10530000B093800D6091E9067091EA068091EB06FA
:105310009091EC0623EC35EF4CE151E40E9471438F
:105320002CE639E049E75BE30E9471436093810D0D
:105330007093820D8093830D9093840D6091ED06A0
:105340007091EE068091EF069091F00623EC35EF18
:105350004CE151E40E9471432CE639E049E75BE3FC
:105360000E9471436093850D7093860D8093870D25
:105370009093880D6091F1067091F2068091F3068A
:105380009091F40623EC35EF4CE151E40E94714317
:105390002CE639E049E75BE30E9471436093890D95
:1053A00070938A0D80938B0D90938C0D8091E50600
:1053B0009091E606A091E706B091E80680938D0DE6
:1053C00090938E0DA0938F0DB093900D81E99DE089
:1053D000BE01685070400E94B91A8091300888233D
:1053E00009F4AEC0C091B40DD091B50D8AEC97E030
:1053F0000E94F23B8883C091B40DD091B50D8DEC25
:1054000097E00E94F23B898386EB9DE06BE97DE0AB
:105410000E94B91A1093080D0093070DCFEFDCE03E
:1054200084E498E00E9432282093FF0C39834A8359
:105430005B836C837D838E839F838091C00D90916D
:10544000C10DA091C20DB091C30D8093FB0C909340
:10545000FC0CA093FD0CB093FE0CE090DC07F090E8
:10546000DD070091DE071091DF076091E40770917E
:10547000E5078091E6079091E7070E942C42A8017A
:1054800097010E9471436093090D70930A0D8093F8
:105490000B0D90930C0D8091E0079091E107A09186
:1054A000E207B091E3078093110D9093120DA09342
:1054B000130DB093140DE092210DF092220D009384
:1054C000230D1093240DE090F407F090F507009160
:1054D000F6071091F7076091FC077091FD07809126
:1054E000FE079091FF070E942C42A80197010E949D
:1054F000714360930D0D70930E0D80930F0D90937B
:10550000100D8091F8079091F907A091FA07B091DA
:10551000FB078093150D9093160DA093170DB09374
:10552000180DE092250DF092260D0093270D109393
:10553000280D89E29DE0BE01685070400E94B91AB2
:10554000DF91CF911F910F91FF90EF900895DB01B4
:10555000FC01EC5EFB4F20E030E0419151914115A0
:105560005105A9F4F901E65FFD4FEE0FFF1FE80FAB
:10557000F91FB183A08323583F4F15963C932E9378
:10558000149717969C938E93169781E008952F5F3A
:105590003F4F2931310509F780E00895FC01EA5BAE
:1055A000FB4F20E030E0419151914115510581F4CC
:1055B000F901ED5DFD4FEE0FFF1FE80FF91F71833D
:1055C00060832C593F4FFB013383228381E0089590
:1055D0002F5F3F4F2931310531F780E00895FC01FD
:1055E000EA5BFB4F20E030E04191519141155105BC
:1055F00081F4F901ED5DFD4FEE0FFF1FE80FF91F7C
:10560000718360832C593F4FFB013383228381E0F8
:1056100008952F5F3F4F2931310531F780E008951C
:10562000FC01EA5BFB4F20E030E0419151914115D4
:10563000510581F4F901ED5DFD4FEE0FFF1FE80FFD
:10564000F91F718360832C593F4FFB013383228301
:1056500081E008952F5F3F4F2931310531F780E018
:1056600008950F931F93DF93CF93CDB7DEB72A979B
:105670000FB6F894DEBF0FBECDBF8C018EEB95E068
:105680009A8389831B821C821D821E821F82188638
:1056900019861A86D801ED91FC910190F081E02DD8
:1056A000C8016AE070E0AE014F5F5F4F19950E943C
:1056B0007137F80160877187828793872A960FB6C2
:1056C000F894DEBF0FBECDBFCF91DF911F910F9138
:1056D00008954F925F926F927F928F929F92AF92B6
:1056E000BF92CF92DF92EF92FF920F931F93DF93BF
:1056F000CF93CDB7DEB72E970FB6F894DEBF0FBEAF
:10570000CDBF8C01FC01EE57FB4F81E0808382EB23
:1057100095E09A83898354E1E52E54E0F52EE00E5E
:10572000F11E46E4642E44E0742E600E711E812C3E
:1057300032E0932EA12CB12C6E010894C11CD11C17
:10574000D701ED91FC9111973097A9F18481958152
:105750009C838B83808191819E838D8382819381C1
:10576000DC01ED91FC910480F581E02D199598877D
:105770008F83D701ED91FC9182819381DC01ED91C2
:10578000FC910680F781E02D19959A8789878B8691
:105790009C86AD86BE86F80180819181F701A0814B
:1057A000B18118966D917C911997DC01ED91FC9176
:1057B000C801A6011995E2E0F0E0EE0EFF1EE61426
:1057C000F70409F0BDCF26E4E22E24E0F22EE00E2D
:1057D000F11E98E7492E94E0592E400E511E812C5F
:1057E00082E0982EA12CB12C6E010894C11CD11C12
:1057F000F701A081B1811097D1F112968D919C9102
:1058000013979C838B8314968D919C9115979E83FF
:105810008D83ED91FC9111970480F581E02DCD01F0
:10582000199598878F83D7018D919C91DC01ED911B
:10583000FC910680F781E02D19959A8789878B86E0
:105840009C86AD86BE86D801ED91FC91608071800A
:10585000F70180819181DC01ED91FC910280F3815F
:10586000E02D1995BC01C801A601F3011995E2E0EC
:10587000F0E0EE0EFF1EE414F50409F0B9CF2E9609
:105880000FB6F894DEBF0FBECDBFCF91DF911F9151
:105890000F91FF90EF90DF90CF90BF90AF909F90CF
:1058A0008F907F906F905F904F900895CF92DF928E
:1058B000EF92FF920F931F93CF93DF93EC016B0155
:1058C0000E947137F601E080F18002811381089413
:1058D000E108F1080109110928EE33E040E050E049
:1058E0000E947A44E21AF30A040B150BEC86FD863B
:1058F0000E871F87F601E480F5800681178120E07E
:105900003AEC4AE95BE3E20EF31E041F151F20E4A4
:1059100032E44FE050E00E943444E61AF70A080BE4
:10592000190BE88AF98A0A8B1B8BBE01605F7F4FD7
:10593000CE010C960E947D01DF91CF911F910F91B6
:10594000FF90EF90DF90CF900895AF92BF92CF92EB
:10595000DF92EF92FF920F931F93DF93CF93CDB718
:10596000DEB72A970FB6F894DEBF0FBECDBF5C013D
:105970006B018EEB95E09A8389831B821C821D82CA
:105980001E821F82188619861A860E9471377B0133
:105990008C01F50180859185A285B385E81AF90A05
:1059A0000A0B1B0BCE010196B6010E94C00AC8016A
:1059B000B70128EE33E040E050E00E947A447B01DA
:1059C0008C018B819C81AD81BE81820F931FA41FAE
:1059D000B51F8B839C83AD83BE83C801B70120E4D0
:1059E00032E44FE050E00E9434449B01AC018F81CF
:1059F0009885A985BA85820F931FA41FB51F8F8331
:105A00009887A987BA87C501BE016D5F7F4F0E9445
:105A1000562C0E947137F501E957FB4F6083718363
:105A2000828393832A960FB6F894DEBF0FBECDBF54
:105A3000CF91DF911F910F91FF90EF90DF90CF906A
:105A4000BF90AF9008952F923F924F925F926F92C6
:105A50007F928F929F92AF92BF92CF92DF92EF92FE
:105A6000FF920F931F93DF93CF93CDB7DEB72C97A1
:105A70000FB6F894DEBF0FBECDBF9C878B870E9408
:105A800071376B017C01EB85FC85E957FB4F808109
:105A90009181A281B381A7019601281B390B4A0B82
:105AA0005B0BDA01C901893F3AE2930730E0A307B3
:105AB00030E0B30728F0EB85FC85EE57FB4F1082F2
:105AC000EB85FC85E858FB4F80819181009781F040
:105AD000AB85BC85A557BB4F8D919D910D90BC9119
