:100000000C944A010C947B010C947B010C947B01B1
:100010000C947B010C947B010C947B010C947B0170
:100020000C947B010C947B010C947B010C947B0160
:100030000C947B010C947B010C947B010C94ED01DE
:100040000C947B010C947A370C947B010C947B010B
:100050000C947B010C947B010C947B010C94513427
:100060000C947B010C9468300C947B010C947B0104
:100070000C947B010C947B010C947B010C947B0110
:100080000C94A7370C947B010C947B010C947B019E
:100090000C9494300C947B010C947B010C94243AC6
:1000A0000C947B010C947B010C94D4370C947B0151
:1000B0000C947B010C947B010C947B010C94013813
:1000C0000C947B010C947B010C947B010C94C0304C
:1000D0000C947B010C947B010C94EC300C947B0110
:1000E0000C947B01036EDB363D9A9999993DABAA3E
:1000F000AA2A3E000000803F084AD73B3BCE016E53
:1001000084BCBFFDC12F3D6C74319ABD56833DDA6E
:100110003D00C77F11BED9E4BB4C3E916BAAAABE7D
:10012000000000803F072C7AA5BA6CC590DA3B939B
:1001300065FC8BBC53F810FD3C5692834DBD879DEA
:100140003AB63DCBC9BF5BBE73DA0FC93F05A84CB9
:10015000CDB2D44EB93836A9020C50B99186880870
:100160003CA6AAAA2ABE000000803F00002100246D
:100170000027002A002D0030003300010100000498
:100180000107010A0100002200250028002B002E93
:10019000003100340002010000050108010B0100DC
:1001A0000020002300260029002C002F0032000030
:1001B0000100000301060109010505050507050801
:1001C000080808020202020A0A08080404040401DA
:1001D00001010101010101030303030303030304FC
:1001E0000707070C0C0C0C0C0C0C0C02020202068C
:1001F000060606060606060B0B0B0B0B0B0B0B017C
:100200000210202008081020401020408002010227
:1002100001080402010102040810204080804020EF
:10022000100804020180040201804020100804022A
:1002300001080402010102040810204080010204A8
:1002400008102040800000090A02080B0C0D070668
:100250000304010000000000000000000000000096
:10026000000000000000000000000000000000008E
:1002700000100F0E00000000000000000000000051
:10028000000000000000000000000000C32FFF314C
:10029000B236C82F11241FBECFEFD1E2DEBFCDBFD3
:1002A00000E00CBF16E0A0E0B2E0EEE6F3E800E00C
:1002B0000BBF02C007900D92A83AB107D9F711E120
:1002C000A8EAB6E001C01D92A53BB107E1F712E034
:1002D000C2E9D2E000E006C022970109FE010BBF8F
:1002E0000E94A141CC38D10780E00807A9F70E94FD
:1002F0009A2C0C948A3D0C940000CF92DF92EF92DE
:10030000FF920F931F93CF93DF93EC016B01FB01DF
:10031000608171818281938120E03AEC4AE95BE35C
:100320000E9464417B018C0188819981AA81BB81F3
:10033000820F931FA41FB51F88839983AA83BB8351
:10034000F601E082F18202831383DF91CF911F9146
:100350000F91FF90EF90DF90CF9008958091AE06BF
:100360009091AF06A091B006B091B1060196A11D83
:10037000B11D8093AE069093AF06A093B006B093E4
:10038000B1062091AE063091AF064091B006509173
:10039000B1068091A8069091A906A091AA06B091F5
:1003A000AB06281739074A075B07B0F08091B20601
:1003B000882391F481E08093B2061092AE061092E9
:1003C000AF061092B0061092B106E091AC06F09123
:1003D000AD0619951092B20608951F920F920FB6AE
:1003E0000F920BB60F9211242F933F934F935F936D
:1003F0006F937F938F939F93AF93BF93EF93FF93ED
:100400000E94AE01FF91EF91BF91AF919F918F91AB
:100410007F916F915F914F913F912F910F900BBE04
:100420000F900FBE0F901F901895EF92FF921F93A1
:10043000DF93CF930F92CDB7DEB7162F8FEAE82E5A
:1004400080E1F82EC70169E670E049830E946136B9
:10045000C701612F0E947436C7014981642F0E9431
:100460007436C7010E9464360F90CF91DF911F91BF
:10047000FF90EF900895CF92DF92EF92FF920F934B
:100480001F93CF93DF93EC018FEA90E169E670E070
:100490000E9461368FEA90E168EA70E00E94983627
:1004A0008FEA90E10E9464368FEA90E169E670E09D
:1004B00046E050E00E9454368FEA90E10E949B365D
:1004C0008630D0F38FEA90E10E94A136D82E8FEAD1
:1004D00090E10E94A136C82E8FEA90E10E94A136D9
:1004E000F82E8FEA90E10E94A136E82E8FEA90E183
:1004F0000E94A136182F8FEA90E10E94A136082FA2
:100500003C2D20E06D2D70E0622B732B882777FD4A
:100510008095982F0E94163F688379838A839B83F6
:100520009E2D80E06F2D70E0682B792B882777FD5A
:100530008095982F0E94163F6C837D838E839F83C6
:10054000902F80E0612F70E0682B792B882777FD52
:100550008095982F0E94163F688779878A879B87A6
:10056000DF91CF911F910F91FF90EF90DF90CF908F
:100570000895FC0180E090E0A7E0B4E4808F918FC3
:10058000A28FB38F80E090E0AAEFB3E4848F958FC1
:10059000A68FB78F80E090E0A4E3B3E480A391A39B
:1005A000A2A3B3A320E030E042E054EC24A335A39F
:1005B00046A357A320E030E84EE054EC20A731A733
:1005C00042A753A720E030E840E454EC24A735A725
:1005D00046A757A783E080AB88E181AB0895EF92EF
:1005E000FF921F93DF93CF930F92CDB7DEB7FC013D
:1005F000162F8FEAE82E80E1F82EC70161A9498302
:100600000E945736C701612F0E947436C701498185
:10061000642F0E947436C7010E9464360F90CF91F8
:10062000DF911F91FF90EF900895EF92FF921F933B
:10063000DF93CF930F92CDB7DEB7162F9FEAE92E47
:1006400090E1F92EC7016EE170E049830E946136A6
:10065000C701612F0E947436C7014981642F0E942F
:100660007436C7010E9464360F90CF91DF911F91BD
:10067000FF90EF9008951F93CF93DF93FC01EB0160
:1006800077FF30C08FEF6D3F7807C9F08FEF6E3F77
:1006900078072CF48FEF6C3F780721F514C08FEFAB
:1006A0006E3F780741F08FEF6F3F7807D9F480A94C
:1006B000882369F412C080A9882361F411C080A93D
:1006C000882359F404C080A9882351F403C0C7E0EB
:1006D000D0E008C0C8E0D0E005C0C5E0D0E002C06E
:1006E000C6E0D0E08FEA90E16EE170E00E946136F2
:1006F0008FEA90E1BE010E9498368FEA90E10E9455
:1007000064368FEA90E16EE170E041E050E00E94D3
:1007100054368FEA90E10E94A136182F8FEA90E1BB
:100720000E946436812FDF91CF911F910895CF925F
:10073000DF92EF92FF920F931F93CF93DF93EC0121
:100740008FEA90E169A90E9457368FEA90E168EA42
:1007500070E00E9498368FEA90E10E9464368FEA3A
:1007600090E169A946E00E9447368FEA90E10E9435
:100770009B368630D0F38FEA90E10E94A136D82EC6
:100780008FEA90E10E94A136C82E8FEA90E10E9484
:10079000A136F82E8FEA90E10E94A136E82E8FEA6A
:1007A00090E10E94A136182F8FEA90E10E94A136B5
:1007B000082F3C2D20E06D2D70E0622B732B44E060
:1007C000759567954A95E1F7882777FD8095982F6D
:1007D0000E94163F688379838A839B839E2D80E0E5
:1007E0006F2D70E0682B792B34E0759567953A95FD
:1007F000E1F7882777FD8095982F0E94163F6C833C
:100800007D838E839F83902F80E0612F70E0682B23
:10081000792B24E0759567952A95E1F7882777FD70
:100820008095982F0E94163F688779878A879B87D3
:10083000DF91CF911F910F91FF90EF90DF90CF90BC
:100840000895CF92DF92EF92FF920F931F93CF9371
:10085000DF93EC018FEA90E16EE170E00E94613677
:100860008FEA90E163E070E00E9498368FEA90E1B1
:100870000E9464368FEA90E16EE170E046E050E05D
:100880000E9454368FEA90E10E949B368630D0F366
:100890008FEA90E10E94A136C82E8FEA90E10E9473
:1008A000A136D82E88A98823A9F48FEA90E10E9466
:1008B000A136E82E8FEA90E10E94A136F82E8FEA49
:1008C00090E10E94A136082F8FEA90E10E94A136A4
:1008D000182F14C08FEA90E10E94A136082F8FEAEA
:1008E00090E10E94A136182F8FEA90E10E94A13674
:1008F000E82E8FEA90E10E94A136F82E3C2D20E0F0
:100900006D2D70E0622B732B882777FD8095982FD3
:100910000E94163F6C877D878E879F879E2D80E083
:100920006F2D70E0682B792B882777FD8095982FA5
:100930000E94163F688B798B8A8B9B8B902F80E06F
:10094000612F70E0682B792B882777FD8095982F91
:100950000E94163F6C8B7D8B8E8B9F8BDF91CF918E
:100960001F910F91FF90EF90DF90CF9008958FEA45
:1009700090E168E170E00E9461368FEA90E160E208
:1009800070E00E9498368FEA90E10E9464368FEA08
:1009900090E168E170E041E050E00E9454368FEA57
:1009A00090E10E949B36882331F08FEA90E10E940B
:1009B000A13680E0089581E00895CF93DF93EC01A4
:1009C00068AB623018F0623071F40AC0442331F031
:1009D000413031F00E94B704813011F088E101C04C
:1009E00089E189AB15C00E94B704813029F489E1FF
:1009F00089AB82E088AB0CC088E189ABCE016FE0A7
:100A000070E00E943B0391E08C3309F090E098ABDA
:100A1000DF91CF910895CF93DF93EC01842F61157F
:100A2000710511F4188204C091E098837A83698378
:100A30008823B1F02223A1F08B832C839881992302
:100A400079F460E00E9489358C8160E00E948935EC
:100A50008B8160E00E94AD358C8160E00E94AD35F5
:100A6000DF91CF910895362F242F60E070E0432F5F
:100A70000E940B050895DF93CF9300D00F920F9241
:100A8000CDB7DEB7CE01019660E040E00E943305AD
:100A90000F900F900F900F900F90CF91DF910895CE
:100AA000FC018081882339F08181928163810E94D9
:100AB000AC08BC0105C083810E945635682F792F90
:100AC00080E090E00E94143F20E030E04DE95DE3DB
:100AD0000E945B400895FC018081882339F0818168
:100AE000928164810E94AC08BC0105C084810E948F
:100AF0005635682F792F80E090E00E94143F24E75C
:100B000039EB48E05EE30E945B400895FC01CB01B5
:100B1000BA01A901918380830E9418310895089534
:100B2000CF92DF92EF92FF920F931F93DF93CF93B9
:100B30000F92CDB7DEB7ED84FE84CF84FE017096B0
:100B4000DD2420E010C08F010E5F1F4F6081260F53
:100B5000DC01ED91FC910190F081E02D2983199544
:100B6000D394F8012981D7018D919C911197DC14C0
:100B700050F3DC01ED91FC91622F6F770190F081D1
:100B8000E02D19950F90CF91DF911F910F91FF905C
:100B9000EF90DF90CF9008952DB73EB729503040A9
:100BA0000FB6F8943EBF0FBE2DBFEDB7FEB731961E
:100BB000ADB7BEB712969C938E93119783E0828354
:100BC0006383148282E090E0968385834783108656
:100BD0000E9490052DB73EB7275F3F4F0FB6F894A0
:100BE0003EBF0FBE2DBF08952DB73EB729503040F0
:100BF0000FB6F8943EBF0FBE2DBFEDB7FEB73196CE
:100C0000ADB7BEB712969C938E93119783E0828303
:100C1000638314828AE190E09683858347831086FC
:100C20000E9490052DB73EB7275F3F4F0FB6F8944F
:100C30003EBF0FBE2DBF08957F928F929F92AF92BD
:100C4000BF92CF92DF92EF92FF920F931F93DF93A9
:100C5000CF93CDB7DEB779898A887B889C88ADB77A
:100C6000BEB797970FB6F894BEBF0FBEADBFEDB736
:100C7000FEB7319612969C938E93119782E18283F0
:100C8000638314828CE190E096838583578310867A
:100C90004187128633871486258716861787108A20
:100CA000018B128AF38A148AE58A168AD78A108EF3
:100CB000C18E128EB38E148EA58E168E978E10A2B4
:100CC00071A212A283A214A275A316A20E9490057B
:100CD000EDB7FEB7B7960FB6F894FEBF0FBEEDBFE7
:100CE000CF91DF911F910F91FF90EF90DF90CF9008
:100CF000BF90AF909F908F907F9008957F928F923A
:100D00009F92AF92BF92CF92DF92EF92FF920F939A
:100D10001F93DF93CF93CDB7DEB779898A887B881D
:100D20009C88ADB7BEB797970FB6F894BEBF0FBEFD
:100D3000ADBFEDB7FEB7319612969C938E93119787
:100D400082E18283638314828DE190E096838583C0
:100D50005783108641871286338714862587168627
:100D60001787108A018B128AF38A148AE58A168AF9
:100D7000D78A108EC18E128EB38E148EA58E168ECB
:100D8000978E10A271A212A283A214A275A316A21A
:100D90000E949005EDB7FEB7B7960FB6F894FEBF68
:100DA0000FBEEDBFCF91DF911F910F91FF90EF909C
:100DB000DF90CF90BF90AF909F908F907F900895DD
:100DC000ADB7BEB71F970FB6F894BEBF0FBEADBF8D
:100DD000EDB7FEB7319612969C938E93119786E0ED
:100DE00082836383148282E290E0968385835783B3
:100DF00010864187128633871486258716860E94BF
:100E00009005EDB7FEB73F960FB6F894FEBF0FBE44
:100E1000EDBF0895ADB7BEB71F970FB6F894BEBF2C
:100E20000FBEADBFEDB7FEB7319612969C938E9371
:100E3000119786E082836383148283E290E0968335
:100E400085835783108641871286338714862587CA
:100E500016860E949005EDB7FEB73F960FB6F89440
:100E6000FEBF0FBEEDBF0895ADB7BEB71F970FB65B
:100E7000F894BEBF0FBEADBFEDB7FEB73196129668
:100E80009C938E93119786E082836383148284E21D
:100E900090E0968385835783108641871286338737
:100EA0001486258716860E949005EDB7FEB73F96FB
:100EB0000FB6F894FEBF0FBEEDBF0895EF92FF92FC
:100EC0000F931F93CF93DF93EC010E9499347B0122
:100ED0008C0115C088819981DC01ED91FC9106801F
:100EE000F781E02D1995009751F088819981DC01F7
:100EF000ED91FC910084F185E02D19950CC00E94C4
:100F000099346E197F09800B910B6B307105810547
:100F1000910500F380E0DF91CF911F910F91FF9039
:100F2000EF9008953F924F925F926F927F928F92CF
:100F30009F92AF92BF92CF92DF92EF92FF920F9368
:100F40001F93CF93DF93EC01362E642E29016801A5
:100F500088819981DC01ED91FC910190F081E02D77
:100F6000199588819981DC01ED91FC910190F081C6
:100F7000E02D662D1995CE0144EF51E060E070E060
:100F80000E945E07B82EE82EFF2400E010E01E2D20
:100F90000027FF24EE24CE0144EF51E060E070E032
:100FA0000E945E07982ECE0144EF51E060E070E0B1
:100FB0000E945E07882ECE0144EF51E060E070E0B1
:100FC0000E945E07782E892D90E0A0E0B0E0DC0161
:100FD00099278827E82AF92A0A2B1B2B872D90E0CE
:100FE000A0E0B0E0E82AF92A0A2B1B2B882D90E01C
:100FF000A0E0B0E0BA2FA92F982F8827E82AF92A75
:101000000A2B1B2BCE0144EF51E060E070E00E9400
:101010005E07A82E4114510411F0F2018083CE0125
:1010200044EF51E060E070E00E945E07C114D1041B
:1010300091F0630C6B0C690C680C670C6A0C7724DC
:10104000FFE76F22772490E021E06816790609F027
:1010500020E0D6012C93B701C801DF91CF911F91F9
:101060000F91FF90EF90DF90CF90BF90AF909F9047
:101070008F907F906F905F904F903F9008950F9367
:101080001F93FA0189014FE19F010E9492071F916E
:101090000F9108950F931F93FA0189014EE19F016B
:1010A0000E9492071F910F9108950F931F93FA01C9
:1010B000890141E19F010E9492071F910F910895BC
:1010C0000F931F93FA01890140E19F010E9492074B
:1010D0001F910F910895AF92BF92CF92DF92EF923E
:1010E000FF920F931F93DF93CF930F92CDB7DEB78D
:1010F0008C01962F603108F09FE0F80185819817E8
:10110000E9F07801AA24BB24C92EDD2496010A2C1B
:1011100002C0359527950A94E2F721703070F701E7
:1011200081917F01622F99830E94AD350894A11CA3
:10113000B11C9981F4E0AF16B10441F7F801958331
:101140000F90CF91DF911F910F91FF90EF90DF9063
:10115000CF90BF90AF900895CF93DF93EC010E94A2
:101160006B088C810E945635DF91CF910895FC0168
:10117000862F4383962F9651983058F1262F2A5068
:10118000243050F12852243038F12C5E283038F1C8
:10119000245F243038F1663229F1643030F1653053
:1011A00021F12452283020F1215F233020F16430D6
:1011B00011F12F5D243010F1603101F16131F1F056
:1011C00028502230F0F020532830F0F428E031E0AD
:1011D0001DC022E230E01AC025E230E017C028E24C
:1011E00030E014C02BE230E011C02EE230E00EC03F
:1011F00021E330E00BC024E330E008C022E031E01E
:1012000005C025E031E002C02BE031E031832083CE
:10121000282F2750233018F4982F935053C0282F8D
:101220002A50243018F4982F96504CC0983008F467
:1012300049C0982F9E51983010F495E205C0982F20
:101240009752933018F499E2981B3CC0982F9A5209
:10125000983010F491E3F8CF982F9253943010F413
:1012600095E3F2CF982F9653983060F198509830CC
:1012700048F18823E1F08F30D1F08131C1F0853120
:10128000B1F08130B1F08E30A1F0803191F0843135
:1012900081F0833181F0975C923078F0823169F08F
:1012A000823069F09E5F923060F495E00BC090E070
:1012B00009C091E007C092E005C093E003C094E04C
:1012C00001C097E0928361E00E9489350895FC0196
:1012D0008381A081B1813281882369F02C9181E0E2
:1012E00090E002C0880F991F3A95E2F7809582231B
:1012F0008C93148208952C9181E090E002C0880FB5
:10130000991F3A95E2F7282B2C9381E08483089566
:10131000FC018381A081B1813281882369F02C9105
:1013200081E090E002C0880F991F3A95E2F7282BE0
:101330002C9381E0848308952C9181E090E002C099
:10134000880F991F3A95E2F7809582238C93148237
:101350000895FC0184810895FC01DB0182818C9356
:10136000838111968C931197848112968C93129796
:10137000858113968C931397868114968C9314977A
:10138000878115968C931597808516968C93169762
:10139000818517968C93179788E090E00895EF92D7
:1013A000FF920F931F93FC01DB012C9130E040E092
:1013B00050E06281738184819581262B372B482BE5
:1013C000592B228333834483558311966C91119753
:1013D00070E080E090E0982F872F762F6627622BB1
:1013E000732B842B952B628373838483958312964E
:1013F0002C91129730E040E050E0A90133272227DA
:10140000262B372B482B592B228333834483558338
:1014100013966C91139770E080E090E0962F8827E8
:1014200077276627622B732B842B952B628373831C
:101430008483958314962C91149730E040E050E01B
:101440006681778180859185262B372B482B592BF8
:1014500026833783408751871596EC901597FF2494
:1014600000E010E0102F0F2DFE2CEE24E22AF32ACC
:10147000042B152BE682F7820087118716962C9194
:10148000169730E040E050E0A901332722272E29AB
:101490003F29402B512B268337834087518717964E
:1014A0008C9190E0A0E0B0E0B82FAA279927882778
:1014B000822B932BA42BB52B86839783A087B18790
:1014C00088E090E01F910F91FF90EF90089580E0E9
:1014D00092E008958EE092E00895AF92BF92CF928D
:1014E000DF92EF92FF920F931F93CF93DF935C01F4
:1014F000FB01808190E0D50112962D913C911397CC
:10150000822B932B13969C938E931297318120E01C
:10151000822B932B13969C938E93129782819381A7
:10152000A481B5818B010B5F1F4FE80166E070E07D
:1015300026E0C22ED12CE12CF12CC80ED91EEA1EB9
:10154000FB1E04C0298129936F5F7F4F9B0140E000
:1015500050E02C153D054E055F05A0F3AC014A5F38
:101560005F4F4E0F5F1F9A0121503040E9011882F2
:10157000E5011D830C83EA01C880D980EA80FB80E5
:10158000BC01665F7F4FEC012996CE0FDF1F8B01F8
:10159000CB01AA2797FDA095BA2F8C0D9D1DAE1DDE
:1015A000BF1D04C0298129930F5F1F4F980140E0A0
:1015B00050E0281739074A075B07A0F3EB01CC0D71
:1015C000DD1D9F012C0F3D1FC9010197DC011C92FD
:1015D000615070406E0F7F1FD50117967C936E93FC
:1015E0001697D901CD90DD90ED90FC90BE016C5F17
:1015F0007F4F2396CE0FDF1F8B01CB01AA2797FDCC
:10160000A095BA2F8C0D9D1DAE1DBF1D04C0298154
:1016100029930F5F1F4F980140E050E028173907CA
:101620004A075B07A0F3C60ED71EDF01AC0DBD1D38
:10163000ED0121971882615070406E0F7F1FE50108
:101640007987688711962C91119730E040E050E03F
:10165000542F432F322F222712966C91129770E04D
:1016600080E090E0CB0177276627262B372B482B8D
:10167000592B6C9170E080E090E0262B372B482BA3
:10168000592B13968C9190E0A0E0B0E0B82FAA27D8
:1016900099278827282B392B4A2B5B2BF50122878A
:1016A00033874487558784E090E0C80ED91EC60171
:1016B000DF91CF911F910F91FF90EF90DF90CF902E
:1016C000BF90AF9008958FE292E0089588E492E091
:1016D0000895AF92BF92CF92DF92EF92FF920F9355
:1016E0001F93CF93DF93FC01DB0182819C91892BB7
:1016F00082831196ED90FD900D911C9114976C5F73
:101700007F4FEB0185E090E035E0A32EB12CC12C9A
:10171000D12CAE0CBF1CC01ED11E03C02981299341
:1017200001969C0140E050E02A153B054C055D0503
:10173000A8F397012B5F3F4FA20FB31F11971C9285
:1017400074836383C901DF91CF911F910F91FF9043
:10175000EF90DF90CF90BF90AF90089589E692E030
:1017600008958CE792E008958AEE95E008958DE95A
:1017700092E00895FC01DB0182818C9383811196B4
:101780008C93119782E090E00895FC01DB018C912D
:10179000828311968C911197838382E090E0089563
:1017A0008EEB92E008958CEC92E00895AF92BF9298
:1017B000CF92DF92EF92FF920F931F93CF93DF931D
:1017C000FC01DB012C9130E040E050E0628173814C
:1017D00084819581262B372B482B592B22833383E9
:1017E0004483558311966C91119770E080E090E0EE
:1017F000982F872F762F6627622B732B842B952BA0
:10180000628373838483958312962C91129730E0C0
:1018100040E050E0A90133272227262B372B482B05
:10182000592B228333834483558313966C911397EA
:1018300070E080E090E0962F882777276627622B5C
:10184000732B842B952B62837383848395831496E7
:101850002C91149730E040E050E0668177818085DC
:101860009185262B372B482B592B2683378340878E
:10187000518715966C91159770E080E090E0982F55
:10188000872F762F6627622B732B842B952B6683ED
:1018900077838087918716962C91169730E040E0E9
:1018A00050E0A90133272227262B372B482B592B11
:1018B000268337834087518717966C91179770E07E
:1018C00080E090E0962F882777276627622B732B7E
:1018D000842B952B668377838087918718962C912C
:1018E000189730E040E050E06285738584859585E7
:1018F000262B372B482B592B228733874487558734
:1019000019966C91199770E080E090E0982F872FDE
:10191000762F6627622B732B842B952B6287738718
:10192000848795871A962C911A9730E040E050E012
:10193000A90133272227262B372B482B592B228707
:101940003387448755871B966C911B9770E080E026
:1019500090E0962F882777276627622B732B842B9E
:10196000952B62877387848795871C96ED90FD90F1
:101970000D911C911F97BD01615F7F4FEB0180E1CD
:1019800090E040E1A42EB12CC12CD12CAE0CBF1C98
:10199000C01ED11E03C02981299301969C0140E0FD
:1019A00050E02A153B054C055D05A8F39701205F23
:1019B0003F4FA20FB31F11971C9277876687C9010B
:1019C000DF91CF911F910F91FF90EF90DF90CF901B
:1019D000BF90AF9008958DEE92E008958DEF92E064
:1019E0000895EF92FF920F931F93CF93DF938C0193
:1019F000EB0102960E94D60B7C01DE01A80FB91FF5
:101A000011966C91119770E080E090E0982F872FED
:101A1000762F66272C9130E040E050E0622B732B4C
:101A2000842B952B12962C91129730E040E050E0D9
:101A3000A90133272227262B372B482B592B139606
:101A40008C9190E0A0E0B0E0B82FAA2799278827D2
:101A5000822B932BA42BB52BF801828B938BA48B19
:101A6000B58BF7013496CE0FDF1F698170E080E0FF
:101A700090E0982F872F762F6627288130E040E06E
:101A800050E0622B732B842B952B2A8130E040E0B1
:101A900050E0A90133272227262B372B482B592B1F
:101AA0008B8190E0A0E0B0E0B82FAA279927882783
:101AB000822B932BA42BB52BE8018E8B9F8BA88FA9
:101AC000B98F3496CF01DF91CF911F910F91FF9085
:101AD000EF9008958EE193E008958BE293E00895EE
:101AE000EF92FF920F931F93CF93DF938C01EB0143
:101AF00002960E94D60B7C01DE01A80FB91F119639
:101B00006C91119770E080E090E0982F872F762FEE
:101B100066272C9130E040E050E0622B732B842B41
:101B2000952B12962C91129730E040E050E0A901DD
:101B300033272227262B372B482B592B13968C9192
:101B400090E0A0E0B0E0B82FAA2799278827822B41
:101B5000932BA42BB52BF801828B938BA48BB58B85
:101B6000F7013496CE0FDF1F698170E080E090E0CE
:101B7000982F872F762F6627288130E040E050E0AD
:101B8000622B732B842B952B2A8130E040E050E0B0
:101B9000A90133272227262B372B482B592B8B8142
:101BA00090E0A0E0B0E0B82FAA2799278827822BE1
:101BB000932BA42BB52BE8018E8B9F8BA88FB98F0D
:101BC0003496CF01DF91CF911F910F91FF90EF904D
:101BD00008958CE493E008958AE593E00895CF9208
:101BE000DF92EF92FF920F931F93CF93DF936C01DD
:101BF000EB0102960E94D60BDC01FE01E80FF91FF3
:101C0000618170E080E090E0982F872F762F662723
:101C1000208130E040E050E0622B732B842B952B29
:101C2000228130E040E050E0A90133272227262B13
:101C3000372B482B592B638170E080E090E0962F82
:101C4000882777276627622B732B842B952BF60129
:101C5000628B738B848B958B1496FE01EA0FFB1FAE
:101C6000618170E080E090E0982F872F762F6627C3
:101C7000208130E040E050E0622B732B842B952BC9
:101C8000228130E040E050E0A90133272227262BB3
:101C9000372B482B592B638170E080E090E0962F22
:101CA000882777276627622B732B842B952BF601C9
:101CB000668B778B808F918FBD016C5F7F4FFE01AC
:101CC000E60FF71F218130E040E050E0542F432F12
:101CD000322F2227828190E0A0E0B0E0DC0199273A
:101CE0008827282B392B4A2B5B2BE080FF2400E030
:101CF00010E02E293F29402B512B838190E0A0E05A
:101D0000B0E0B82FAA2799278827282B392B4A2BF0
:101D10005B2BF601228F338F448F558F6C5F7F4F83
:101D2000FE01E60FF71F218130E040E050E0542F24
:101D3000432F322F2227828190E0A0E0B0E0DC0127
:101D400099278827282B392B4A2B5B2B808190E001
:101D5000A0E0B0E0282B392B4A2B5B2B838190E04D
:101D6000A0E0B0E0B82FAA2799278827282B392B85
:101D70004A2B5B2BF601268F378F40A351A36C5F54
:101D80007F4FFE01E60FF71F218130E040E050E079
:101D9000542F432F322F2227828190E0A0E0B0E021
:101DA000DC0199278827282B392B4A2B5B2B808134
:101DB00090E0A0E0B0E0282B392B4A2B5B2B8381ED
:101DC00090E0A0E0B0E0B82FAA2799278827282B19
:101DD000392B4A2B5B2BF60122A333A344A355A333
:101DE0006C5F7F4FFE01E60FF71F218130E040E07E
:101DF00050E0542F432F322F2227828190E0A0E021
:101E0000B0E0DC0199278827282B392B4A2B5B2B44
:101E1000808190E0A0E0B0E0282B392B4A2B5B2B8F
:101E2000838190E0A0E0B0E0B82FAA279927882707
:101E3000282B392B4A2B5B2BF60126A337A340A76F
:101E400051A7DB011496FE01EA0FFB1F618170E0D0
:101E500080E090E0982F872F762F6627208130E052
:101E600040E050E0622B732B842B952B228130E0D5
:101E700040E050E0A90133272227262B372B482B9F
:101E8000592B638170E080E090E0962F88277727B8
:101E90006627622B732B842B952BF60162A773A701
:101EA00084A795A71496CA0FDB1F698170E080E0B4
:101EB00090E0982F872F762F6627288130E040E02A
:101EC00050E0622B732B842B952B2A8130E040E06D
:101ED00050E0A90133272227262B372B482B592BDB
:101EE0006B8170E080E090E0962F88277727662747
:101EF000622B732B842B952B66A777A780AB91ABB6
:101F00001496CD01DF91CF911F910F91FF90EF902B
:101F1000DF90CF9008958BE793E0089589E893E0F0
:101F200008950F931F93CF93DF938C01EB010296DB
:101F30000E94D60BDC01FE01E80FF91F618170E001
:101F400080E090E0982F872F762F6627208130E061
:101F500040E050E0622B732B842B952B228130E0E4
:101F600040E050E0A90133272227262B372B482BAE
:101F7000592B638170E080E090E0962F88277727C7
:101F80006627622B732B842B952BF801628B738B46
:101F9000848B958B1496FE01EA0FFB1F618170E024
:101FA00080E090E0982F872F762F6627208130E001
:101FB00040E050E0622B732B842B952B228130E084
:101FC00040E050E0A90133272227262B372B482B4E
:101FD000592B638170E080E090E0962F8827772767
:101FE0006627622B732B842B952BF801668B778BDE
:101FF000808F918F1496FE01EA0FFB1F618170E0C4
:1020000080E090E0982F872F762F6627208130E0A0
:1020100040E050E0622B732B842B952B228130E023
:1020200040E050E0A90133272227262B372B482BED
:10203000592B638170E080E090E0962F8827772706
:102040006627622B732B842B952BF801628F738F7D
:10205000848F958F1496FE01EA0FFB1F618170E05B
:1020600080E090E0982F872F762F6627208130E040
:1020700040E050E0622B732B842B952B228130E0C3
:1020800040E050E0A90133272227262B372B482B8D
:10209000592B638170E080E090E0962F88277727A6
:1020A0006627622B732B842B952BF801668F778F15
:1020B00080A391A31496FE01EA0FFB1F618170E0DB
:1020C00080E090E0982F872F762F6627208130E0E0
:1020D00040E050E0622B732B842B952B228130E063
:1020E00040E050E0A90133272227262B372B482B2D
:1020F000592B638170E080E090E0962F8827772746
:102100006627622B732B842B952BF80162A373A394
:1021100084A395A3BD016C5F7F4FFE01E60FF71FFF
:10212000218130E040E050E0542F432F322F22270E
:10213000808190E0A0E0B0E0282B392B4A2B5B2B6C
:10214000828190E0A0E0B0E0DC0199278827822B13
:10215000932BA42BB52B238130E040E050E0522F8D
:10216000442733272227282B392B4A2B5B2BF801B6
:1021700026A337A340A751A7DB011496FE01EA0F5F
:10218000FB1F618170E080E090E0982F872F762F11
:102190006627208130E040E050E0622B732B842BD7
:1021A000952B228130E040E050E0A901332722271F
:1021B000262B372B482B592B638170E080E090E071
:1021C000962F882777276627622B732B842B952BD6
:1021D000F80162A773A784A795A71496FE01EA0FDA
:1021E000FB1F618170E080E090E0982F872F762FB1
:1021F0006627208130E040E050E0622B732B842B77
:10220000952B228130E040E050E0A90133272227BE
:10221000262B372B482B592B638170E080E090E010
:10222000962F882777276627622B732B842B952B75
:10223000F80166A777A780AB91AB1496FE01EA0F71
:10224000FB1F618170E080E090E0982F872F762F50
:102250006627208130E040E050E0622B732B842B16
:10226000952B228130E040E050E0A901332722275E
:10227000262B372B482B592B638170E080E090E0B0
:10228000962F882777276627622B732B842B952B15
:10229000F80162AB73AB84AB95AB1496CA0FDB1F2E
:1022A000698170E080E090E0982F872F762F662775
:1022B000288130E040E050E0622B732B842B952B7B
:1022C0002A8130E040E050E0A90133272227262B65
:1022D000372B482B592B6B8170E080E090E0962FD4
:1022E000882777276627622B732B842B952B66AB69
:1022F00077AB80AF91AF1496CD01DF91CF911F9155
:102300000F9108958AEA93E008958DEB93E0089584
:102310008F929F92AF92BF92CF92DF92EF92FF92F5
:102320000F931F93CF93DF93FC014B01DB01ED90E3
:10233000FD900D911C916D5F7F4FDB0184E090E07B
:1023400024E0A22EB12CC12CD12CAE0CBF1CC01E7F
:10235000D11E05C011962C9111972D9301969C01C9
:1023600040E050E02A153B054C055D0598F38701D8
:102370000C5F1F4FE401C00FD11FDE0111971C92AB
:1023800073836283888190E0A0E0B0E0248135818E
:1023900046815781822B932BA42BB52B8483958365
:1023A000A683B783298130E040E050E0542F432FCB
:1023B000322F2227282B392B4A2B5B2B2483358362
:1023C000468357838A8190E0A0E0B0E0DC01992742
:1023D0008827822B932BA42BB52B84839583A683EC
:1023E000B7832B8130E040E050E0522F4427332761
:1023F0002227282B392B4A2B5B2B248335834683BA
:102400005783B8016C5F7F4FE401C60FD71F8881E7
:1024100090E0A0E0B0E02085318542855385822B95
:10242000932BA42BB52B80879187A287B387298113
:1024300030E040E050E0542F432F322F2227282B4A
:10244000392B4A2B5B2B20873187428753878A8120
:1024500090E0A0E0B0E0DC0199278827822B932B45
:10246000A42BB52B80879187A287B3872B8130E07F
:1024700040E050E0522F442733272227282B392BC6
:102480004A2B5B2B20873187428753876C5F7F4FB6
:10249000CB01DF91CF911F910F91FF90EF90DF90D3
:1024A000CF90BF90AF909F908F9008958EED93E066
:1024B00008958BEF93E00895CF92DF92EF92FF9211
:1024C0000F931F93DF93CF930F920F92CDB7DEB789
:1024D0006C018B01DC0112968C911297FB018083B9
:1024E00011821282138220E034E0E32EF12C3CE0D2
:1024F00018C0239FA0011124F60187859089840FBD
:10250000951FFC0140815181FA0140815181BD013B
:1025100029833A83FA011995E80EF91E29812F5F64
:102520003A81D60112968C91D801AE0DBF1D2817A5
:1025300000F3F60181898C93828911968C9311970F
:10254000838912968C931297848913968C93139790
:1025500097012C5F3F4FC9010F900F90CF91DF91F2
:102560001F910F91FF90EF90DF90CF9008958CE135
:1025700094E0089586E394E008950F931F93CF931A
:10258000DF938C01EB0102960E945C12FE01E80FC2
:10259000F91FD80157962C91579720839C012F5FE4
:1025A0003F4FFE01E20FF31F10822F5F3F4FFE01EE
:1025B000E20FF31F10822F5F3F4FFE01E20FF31F68
:1025C00010822F5F3F4FFC013496EC0FFD1F80E01F
:1025D0000AC0E801A98DBA8DA80FB11D9C919193F5
:1025E0002F5F3F4F8F5FD80157969C915797891760
:1025F00080F3C901DF91CF911F910F91089587E575
:1026000094E0089580E794E00895FC01828180932E
:10261000080883818093940D0895FC01EE57FB4FC9
:1026200080810895FC0183A194A1089587E594E039
:10263000089580E794E008950F931F93CF93DF935D
:10264000EC018C010A5F1F4FC8010E94C50BEA858F
:10265000FB85C8011995DF91CF911F910F910895C6
:10266000FC018485958508958EEB92E008958CECAD
:1026700092E008950F931F93CF93DF93EC018C01A9
:102680000A5F1F4FC8010E94F10CE8A1F9A1C8011F
:102690001995DF91CF911F910F910895FC0182A1AF
:1026A00093A108958EE193E008958BE293E008955D
:1026B0008F929F92AF92BF92CF92DF92EF92FF9252
:1026C0000F931F93CF93DF93EC018B018A81DB0182
:1026D0008C938B8111968C936C817D81DB01FD0144
:1026E00001900020E9F73197EA1BFB0B9F0140E0C6
:1026F00050E0D80112962D933D934D935C9315971E
:1027000098012A5F3F4FC901AF010E948D3DF8013A
:102710002281338166E0E62EF12CE20EF31EE00EFC
:10272000F11E6E817F81DB01FD0101900020E9F740
:102730003197EA1BFB0B5F01CC24DD24D701AD925E
:10274000BD92CD92DC9213975AE0C52ED12CC20EC9
:10275000D31E98012C0D3D1DC901AF010E948D3D76
:10276000F701208131812C0D3D1D6801C20ED31E61
:1027700068857985DB01FD0101900020E9F731973B
:10278000EA1BFB0B4F01AA24BB24D6018D929D921C
:10279000AD92BC92139744E0E42EF12CE20EF31EAE
:1027A00098012E0D3F1DC901AF010E948D3DF6011C
:1027B000208131812E0D3F1D5A854B859C858D854D
:1027C000F801E20FF31F50834183928383832C5FD0
:1027D0003F4FC901DF91CF911F910F91FF90EF9073
:1027E000DF90CF90BF90AF909F908F900895CF9340
:1027F000DF93FC01EB018281888363817481DB01BB
:10280000FD0101900020E9F73197EA1BFB0BCF0196
:10281000A0E0B0E089839A83AB83BC839E012B5FE9
:102820003F4FC901AF010E948D3D29813A812B5F45
:102830003F4FC901DF91CF9108956F927F928F92A0
:102840009F92AF92BF92CF92DF92FF920F931F930E
:10285000CF93DF938C01EB01DC0112968C911297E0
:10286000888319821A821B826B0140E024E030E0E9
:1028700021C0842F90E0880F991F880F991FF801BD
:10288000A781B085A80FB91F6C9111965C91119723
:1028900012969C91129713968C91D6016C93119677
:1028A0005C93119712969C93129713968C932C5FBE
:1028B0003F4F4F5FE4E0F0E0CE0EDF1ED8011296EE
:1028C0008C9112974817A8F2FE01E20FF31F199698
:1028D0008C9180832F5F3F4FDE01A20FB31F1C92AC
:1028E0002F5F3F4FDE01A20FB31F1C922F5F3F4FA0
:1028F000DE01A20FB31F1C922F5F3F4F6F0140E01C
:1029000021C0842F90E0880F991F880F991FF8012C
:10291000A685B785A80FB91F6C9111965C91119788
:1029200012969C91129713968C91D6016C931196E6
:102930005C93119712969C93129713968C932C5F2D
:102940003F4F4F5FE4E0F0E0CE0EDF1ED801199656
:102950008C9119974817A8F2FE01E20FF31F5096C9
:102960008C91509780832F5F3F4FFE01E20FF31F42
:1029700010822F5F3F4FFE01E20FF31F10822F5F87
:102980003F4FFE01E20FF31F10822F5F3F4FFF24E6
:1029900033C05E01A20EB31E8F2D90E0880F991FE9
:1029A000D8015396ED91FC915497E80FF91F60817F
:1029B0007181DB01FD0101900020E9F73197EA1BED
:1029C000FB0B3F0188249924D5016D927D928D9255
:1029D0009C921397A4E0CA2ED12CC20ED31E9E0146
:1029E0002C0D3D1DC901AF010E948D3DF5012081D7
:1029F00031812C0D3D1DF394D80150968C91509748
:102A0000F81638F2C901DF91CF911F910F91FF9015
:102A1000DF90CF90BF90AF909F908F907F906F90FE
:102A20000895CF93DF93FC01EB018281888383813A
:102A3000898384818A8385818B8386818C83878146
:102A40008D8380858E8381858F838285888783852A
:102A5000898784858A8785858B8766857785DB016D
:102A6000FD0101900020E9F73197EA1BFB0BCF0134
:102A7000A0E0B0E08C879D87AE87BF879E01205F76
:102A80003F4FC901AF010E948D3D2C853D85205FE0
:102A90003F4FC901DF91CF9108950F931F93CF93BB
:102AA000DF93EC018B0102960E9411159C015A895B
:102AB0004B899C898D89F801E20FF31F5083418374
:102AC000928383832C5F3F4F5E894F89988D898DD8
:102AD000F801E20FF31F50834183928383832C5FBD
:102AE0003F4F5A8D4B8D9C8D8D8DF801E20FF31F5A
:102AF00050834183928383832C5F3F4F5E8D4F8D44
:102B000098A189A1F801E20FF31F508341839283BA
:102B100083832C5F3F4F5AA14BA19CA18DA1F8014B
:102B2000E20FF31F50834183928383832C5F3F4FD7
:102B30005EA14FA198A589A5F801E20FF31F50836C
:102B40004183928383832C5F3F4F5AA54BA59CA55D
:102B50008DA5F801E20FF31F508341839283838395
:102B60002C5F3F4F5EA54FA598A989A9F801E20FF8
:102B7000F31F50834183928383832C5F3F4FC901AE
:102B8000DF91CF911F910F9108950F931F93CF93D2
:102B9000DF93EC018B0102960E9411159C015A896A
:102BA0004B899C898D89F801E20FF31F5083418383
:102BB000928383832C5F3F4F5E894F89988D898DE7
:102BC000F801E20FF31F50834183928383832C5FCC
:102BD0003F4FC901DF91CF911F910F9108950F933E
:102BE0001F93CF93DF93EC018B0102960E94111586
:102BF0009C015A894B899C898D89F801E20FF31F4A
:102C000050834183928383832C5F3F4F5E894F893A
:102C1000988D898DF801E20FF31F508341839283D1
:102C200083832C5F3F4F5A8D4B8D9C8D8D8DF8018A
:102C3000E20FF31F50834183928383832C5F3F4FC6
:102C40005E8D4F8D98A189A1F801E20FF31F50838B
:102C50004183928383832C5F3F4F5AA14BA19CA158
:102C60008DA1F801E20FF31F508341839283838388
:102C70002C5F3F4F5EA14FA198A589A5F801E20FF7
:102C8000F31F50834183928383832C5F3F4F5AA568
:102C90004BA59CA58DA5F801E20FF31F508341833E
:102CA000928383832C5F3F4F5EA54FA598A989A986
:102CB000F801E20FF31F50834183928383832C5FDB
:102CC0003F4F5AA94BA99CA98DA9F801E20FF31F08
:102CD00050834183928383832C5F3F4F5EA94FA92A
:102CE00098AD89ADF801E20FF31F508341839283C1
:102CF00083832C5F3F4FC901DF91CF911F910F91CB
:102D000008950F931F93CF93DF93EC018B010296ED
:102D10000E9411159C015A894B899C898D89F80163
:102D2000E20FF31F50834183928383832C5F3F4FD5
:102D30005E894F89988D898DF801E20FF31F5083CA
:102D40004183928383832C5F3F4FC901DF91CF91F1
:102D50001F910F9108950F931F93CF93DF93EC0171
:102D60008B016A817B81DB01FD0101900020E9F785
:102D70003197EA1BFB0B9F0140E050E0D8012D93F7
:102D80003D934D935D93CD01AF010E948D3DF801C0
:102D9000208131812C5F3F4FE20FF31F8C818083B4
:102DA0008D8181838E8182838F8183832C5F3F4FCE
:102DB000F801E20FF31F88858083898581838A85E6
:102DC00082838B8583832C5F3F4FC901DF91CF9135
:102DD0001F910F9108956F927F928F929F92AF9261
:102DE000BF92CF92DF92EF92FF920F931F93CF93F8
:102DF000DF93EC015B01DB010C918A81801760F4A9
:102E0000602F70E0660F771F660F771F8F819885A0
:102E10000E94B13C8F8398870A83F50160E034E01B
:102E2000C32ED12C8E010D5F1F4F45C0818190E0D4
:102E3000A0E0B0E0BA2FA92F982F8827228130E098
:102E400040E050E0A90133272227822B932BA42BAB
:102E5000B52B208130E040E050E0822B932BA42B57
:102E6000B52B238130E040E050E0522F4427332738
:102E70002227822B932BA42BB52B8B839C83AD8392
:102E8000BE8384E090E0C80ED91E862F90E0880FA4
:102E9000991F880F991F2F813885280F391FD80156
:102EA0006D907D908D909C90D9016D927D928D92C8
:102EB0009C9213976F5F34968A81681708F4B6CF97
:102EC00085010C0D1D1DF80180808985881560F431
:102ED000682D70E0660F771F660F771F8E859F85C0
:102EE0000E94B13C8E879F8784E090E0C80ED91E77
:102EF0008986F80160E08E01065F1F4F45C0208182
:102F000030E040E050E0818190E0A0E0B0E0BA2FF6
:102F1000A92F982F8827822B932BA42BB52B2281A6
:102F200030E040E050E0A90133272227282B392B3D
:102F30004A2B5B2B838190E0A0E0B0E0B82FAA275A
:102F400099278827822B932BA42BB52B8A879B87C5
:102F5000AC87BD87A4E0B0E0CA0EDB1E862F90E0F0
:102F6000880F991F880F991F2E853F85280F391FBD
:102F7000D8016D907D908D909C90D9016D927D923D
:102F80008D929C9213976F5F34968985681708F429
:102F9000B6CFF501EC0DFD1D00818889801750F436
:102FA000602F70E0660F771F8B899C890E94B13C6F
:102FB0008B8B9C8BF6013496088B7724A1E18A2EAB
:102FC000912C8C0E9D1E41C0D501AE0FBF1FCD9020
:102FD000DD90ED90FC90DF0114963396EA0DFB1D19
:102FE0008D019D01442737FD4095542F2C0D3D1D2B
:102FF0004E1D5F1D04C0818181930F5F1F4FB8017B
:1030000080E090E06217730784079507A0F3CA0E6B
:10301000DB1EC5018C0D9D1D0197FC0110821197CF
:10302000AA0DBB1DBA8BA98BF601872D90E0880FE6
:10303000991F2B893C89280F391FD4018D919C91B0
:10304000D90111969C938E9373948889781608F40D
:10305000BBCFCF01DF91CF911F910F91FF90EF90E8
:10306000DF90CF90BF90AF909F908F907F906F90A8
:103070000895AF92BF92CF92DF92EF92FF920F939B
:103080001F93DF93CF930F920F92CDB7DEB75C0102
:103090008B01DB01EC90FC0182818E1578F46CE0F1
:1030A000FE2DF69FB0011124D5011F968D919C91A4
:1030B00050970E94B13CF5018787908BD5011296FD
:1030C000EC92129720E094E0C92ED12C83E0E82EF8
:1030D000F12CEA0CFB1C3CE01AC0C70129833A839F
:1030E0000E948811C80ED91E29813A81239FC001F0
:1030F0001124D5011F96ED91FC915097E80FF91F0F
:10310000D7018CE00D9001928150E1F72F5FF5011E
:103110008281B8016C0D7D1D2817F8F2DB018C91BE
:1031200090E0A0E0B0E02189328943895489822B64
:10313000932BA42BB52B818B928BA38BB48BFB0190
:10314000218130E040E050E0542F432F322F2227DE
:10315000282B392B4A2B5B2BD50151962D933D9370
:103160004D935C935497828190E0A0E0B0E0DC0145
:1031700099278827822B932BA42BB52BF501818BC4
:10318000928BA38BB48BFB01238130E040E050E0B5
:10319000522F442733272227282B392B4A2B5B2BEE
:1031A000D50151962D933D934D935C935497960181
:1031B0002C5F3F4FC9010F900F90CF91DF911F916E
:1031C0000F91FF90EF90DF90CF90BF90AF90089558
:1031D000DF92EF92FF920F931F93CF93DF93EC0157
:1031E0008B0102960E9439187C01F801E80FF91F43
:1031F000D0808F898D1540F4898D9A8D6D2D70E06A
:103200000E94B13C898F9A8F97012C5F3F4FDF8AD4
:10321000020F131F40E0CE01489610C0D8016D91F7
:103220008D01588D562B588F2F5F3F4FE98DFA8DAA
:10323000E40FF11DDC015C9150834F5F5F894517FE
:1032400068F3C901DF91CF911F910F91FF90EF902B
:10325000DF9008950F931F93CF93DF93EC018C01C0
:103260000A5F1F4FC8010E94E818E9A1FAA1C8012E
:103270001995DF91CF911F910F9108950F931F938F
:10328000CF93DF938C01C0E0D0E0D80157968C91AA
:103290005797C817B0F4C230D10599F0CE01880F06
:1032A000991F8C0F9D1F5996ED91FC915A97EC0F29
:1032B000FD1F60818E52984F70E00E948D382196DC
:1032C000E4CFDF91CF911F910F910895AF92BF92FC
:1032D000CF92DF92EF92FF920F931F93CF93DF93E2
:1032E000EC016A897B898C899D892091E407309162
:1032F000E5074091E6075091E7070E947B3E0E9458
:10330000E33ED62EC72EB82EA92E6E897F89888DD2
:10331000998D2091FC073091FD074091FE07509157
:10332000FF070E947B3E0E94E33E162F072FF82ED8
:10333000E92ECDE4D0E1CE014D2D5C2D6B2D7A2D03
:103340002AE030E00E949233CE0161E974E00E94ED
:103350000733CE01412F502F6F2D7E2D2AE030E014
:103360000E94EA33C9E0D8E0CE0160E82D2D3C2D63
:103370004B2D5A2D0E940A07CE0160E8212F302FD5
:103380004F2D5E2D0E943407DF91CF911F910F9139
:10339000FF90EF90DF90CF90BF90AF900895CF93C4
:1033A000DF93FC01AB0186819781EC01A881B98193
:1033B00064817581ED91FC911995DF91CF9108950C
:1033C000FC014281538164817581808191810E94D9
:1033D000183108952F923F924F925F926F927F9291
:1033E0008F929F92AF92BF92CF92DF92EF92FF9215
:1033F0000F931F93DF93CF93CDB7DEB764970FB6CC
:10340000F894DEBF0FBECDBFE0903D07F0903E07C1
:1034100000913F0710914007C801B7010E94783E14
:1034200069837A838B839C83C801B7010E94BE4065
:103430006D837E838F839887E0904107F0904207E9
:103440000091430710914407C801B7010E94783EDC
:103450006D877E878F87988BC801B7010E94BE4019
:1034600069877A878B879C87E0904E05F0904F059F
:103470008CE193E0E89EB001E99E700DF89E700D1E
:1034800011248091DF069091E006680F791F88274C
:1034900077FD8095982F0E94163F20E030E448E7A2
:1034A00054E40E947B3E5B016C01B701882777FDE5
:1034B0008095982F0E94163F20E030E040E05FE3C7
:1034C0000E945B409B01AC01C601B5010E94963D84
:1034D000562E472E382E292EA2019101852F942F8A
:1034E000A32FB22F8093E5069093E606A093E706FC
:1034F000B093E806E0905005F090510589EC91E01A
:10350000E89EB001E99E700DF89E700D1124809127
:10351000E1069091E206680F791F882777FD809574
:10352000982F0E94163F20E030E048E754E40E94C4
:103530007B3E5B016C01B701882777FD8095982F52
:103540000E94163F20E030E040E05FE30E945B40D5
:103550009B01AC01C601B5010E94963DD62EC72E37
:10356000B82EA92EA6019501852F942FA32FB22F37
:103570008093E9069093EA06A093EB06B093EC06DD
:10358000E0905205F090530588EA91E0E89EB00182
:10359000E99E700DF89E700D11248091E3069091C4
:1035A000E406680F791F882777FD8095982F0E9481
:1035B000163F20E030E44DE454E40E947B3E3B01A2
:1035C0004C01B701882777FD8095982F0E94163F00
:1035D00020E030E040E05FE30E945B409B01AC01F3
:1035E000C401B3010E94963D8B017C01862F912F6F
:1035F000AE2DBF2D8093ED069093EE06A093EF06BF
:10360000B093F006A6019501652F742F832F922F9A
:1036100029813A814B815C810E945B403B014C01D6
:10362000602F712F8E2D9F2D2D813E814F815885CA
:103630000E945B409B01AC01C401B3010E94963D16
:103640009B01AC015058298B3A8B4B8B5C8BA201B0
:103650009101652F742F832F922F2D853E854F85E5
:1036600058890E945B403B014C01A6019501652FE2
:10367000742F832F922F2D813E814F8158850E9478
:103680005B4029853A854B855C850E945B409B01A8
:10369000AC01C401B3010E94973D5B016C01602F36
:1036A000712F8E2D9F2D29813A814B815C810E9443
:1036B0005B4029853A854B855C850E945B409B0178
:1036C000AC01C601B5010E94973D9B01AC0169891F
:1036D0007A898B899C890E94213E6093F1067093C0
:1036E000F2068093F3069093F40664960FB6F8946E
:1036F000DEBF0FBECDBFCF91DF911F910F91FF9025
:10370000EF90DF90CF90BF90AF909F908F907F9081
:103710006F905F904F903F902F900895609170054B
:103720007091710580917205909173050E94FB3D27
:10373000905860934107709342078093430790939A
:10374000440760917405709175058091760590919C
:103750007705209178053091790540917A0550914F
:103760007B050E94213E60933D0770933E07809346
:103770003F079093400760916405709165058091C3
:103780006605909167052091580530915905409143
:103790005A0550915B050E94213E60934507709346
:1037A0004607809347079093480708958FEA90E172
:1037B0000E943C360895CF93DF93C7E8D7E0CE014F
:1037C00060E24FE00E941502CE0163E240E20E94F7
:1037D0001502DF91CF9108950F931F93CF93DF933D
:1037E00087E897E00E943B02609187077091880705
:1037F0008091890790918A070E94E33EEB017093C4
:10380000BC066093BB0660918B0770918C0780911A
:103810008D0790918E070E94E33E8B017093BE0648
:103820006093BD0660918F0770919007809191071A
:10383000909192070E94E33E9B017093C0066093B3
:10384000BF068091C7069091C806C81BD90B40914E
:10385000420550914305C49FC001C59F900DD49F60
:10386000900D11249093D4068093D3068091C906BD
:103870009091CA06081B190B4091440550914505CB
:10388000049FC001059F900D149F900D11249093EB
:10389000D6068093D5068091CB069091CC06281B46
:1038A000390B4091460550914705249FC001259F43
:1038B000900D349F900D11249093D8068093D706D5
:1038C000DF91CF911F910F910895CF93DF93C3E9BB
:1038D000D7E0CE0160E247E20E94EF02CE0163E250
:1038E00040E30E94EF02DF91CF9108950F931F9361
:1038F000CF93DF9383E997E00E949703609193074A
:103900007091940780919507909196070E94E33EED
:10391000EB017093C2066093C106609197077091A6
:1039200098078091990790919A070E94E33E8B0136
:103930007093C4066093C30660919B0770919C07C7
:1039400080919D0790919E070E94E33E9B0170939A
:10395000C6066093C5068091CD069091CE06C81B21
:10396000D90B4091480550914905C49FC001C59F9E
:10397000900DD49F900D11249093DA068093D90670
:103980008091CF069091D006081B190B40914A05F3
:1039900050914B05049FC001059F900D149F900D01
:1039A00011249093DC068093DB068091D1069091E0
:1039B000D206281B390B40914C0550914D05249F90
:1039C000C001259F900D349F900D11249093DE0629
:1039D0008093DD06DF91CF911F910F910895CF93D2
:1039E000DF93C3E9D7E0CE0163E042E00E94DD044B
:1039F000CE0162E040E00E941503DF91CF9108956F
:103A00000F931F93CF93DF938DE490E140E052EC4E
:103A100061E070E00E9418318DE061E00E9489351C
:103A20000E94D61B8DE490E164E974E00E94DF33CC
:103A30008DE060E00E94AD356CED75E080E090E0D7
:103A40000E94CD340E94651C0E94EF1C0E94DB1B6B
:103A500064E170E080E090E00E94CD3400E210E08C
:103A60000E94EC1B0E94761CABEBB6E0C7ECD6E0E4
:103A7000FE012D913D9180819181820F931F819351
:103A8000919386E0A73CB807A1F764E170E080E07D
:103A900090E00E94CD340150104011F7E7ECF6E0C1
:103AA00020E230E080819181B9010E94514161930F
:103AB000719386E0E33DF807A9F740914C055091DA
:103AC0004D0520E03FEF429FC001439F900D529F64
:103AD000900D11242091D1063091D206820F931FB0
:103AE0009093D2068093D106699179918DE490E10B
:103AF0004AE050E00E94F53386E0C33DD807A1F7C5
:103B000060ED77E080E090E00E94CD348DE061E0F0
:103B10000E94AD350E9499346093B3067093B40649
:103B20008093B5069093B60664E170E080E090E083
:103B30000E94CD341092620710926107DF91CF91FD
:103B40001F910F91089583E997E00E9421046091ED
:103B50004E0570914F05882777FD8095982F0E941C
:103B6000163F20919F073091A0074091A1075091E7
:103B7000A2070E945B400E94E33E7093E0066093C0
:103B8000DF066091500570915105882777FD80957B
:103B9000982F0E94163F2091A3073091A4074091CF
:103BA000A5075091A6070E945B400E94E33E7093D8
:103BB000E2066093E10660915205709153058827F3
:103BC00077FD8095982F0E94163F2091A70730918E
:103BD000A8074091A9075091AA070E945B400E9444
:103BE000E33E7093E4066093E3060895AF92BF92BC
:103BF000CF92DF92EF92FF920F931F93CF93DF93B9
:103C0000C82ED92EA62EB72EC3E0D0E010E000E0DB
:103C1000FF24EE24F60161917191819191916F01E0
:103C2000F50121913191419151915F010E945B40D9
:103C30009B01AC01D801F7016B2F702F8F2F9E2DA8
:103C40000E94973D162F072FF82EE92E219711F786
:103C5000A8019701652F742F832F922FDF91CF91A9
:103C60001F910F91FF90EF90DF90CF90BF90AF909A
:103C70000895AF92BF92CF92DF92EF92FF920F938F
:103C80001F93CF93DF937C01EB018A016C817D81CF
:103C90008E819F81FA0120853185428553850E945E
:103CA0005B405B016C01688579858A859B85F8019D
:103CB00024813581468157810E945B409B01AC0184
:103CC000C601B5010E94963DF7016083718382832E
:103CD0009383688579858A859B85F8012081318168
:103CE000428153810E945B405B016C016881798154
:103CF0008A819B81F80120853185428553850E9408
:103D00005B409B01AC01C601B5010E94963DF701E5
:103D10006483758386839783688179818A819B8197
:103D2000F80124813581468157810E945B405B0107
:103D30006C016C817D818E819F81F80120813181B0
:103D4000428153810E945B409B01AC01C601B501D9
:103D50000E94963DF7016087718782879387DF9184
:103D6000CF911F910F91FF90EF90DF90CF90BF9078
:103D7000AF900895CF92DF92EF92FF920F931F932F
:103D8000CF93DF936C01EB0179018A01688179811E
:103D90008A819B810E945B40F601608371838283EC
:103DA00093836C817D818E819F81A80197010E9400
:103DB0005B40F60164837583868397836885798584
:103DC0008A859B85A80197010E945B40F601608768
:103DD000718782879387DF91CF911F910F91FF9019
:103DE000EF90DF90CF900895CF92DF92EF92FF9205
:103DF0000F931F93CF93DF93062F172FE42EF52EEB
:103E0000C82ED92EC0E0D0E0F80161917191819166
:103E100091918F01F70121913191419151917F0150
:103E20000E94973DF60161937193819391936F0185
:103E30002196C330D10541F7DF91CF911F910F91AA
:103E4000FF90EF90DF90CF9008956F927F928F92C6
:103E50009F92AF92BF92CF92DF92EF92FF920F9319
:103E60001F932091F5063091F6064091F706509188
:103E7000F806E090F906F090FA060091FB06109122
:103E8000FC06A090FD06B090FE06C090FF06D09004
:103E90000007CA01B9010E945B403B014C01C80107
:103EA000B701A80197010E945B409B01AC01C401CE
:103EB000B3010E94973D7B018C01C601B501A601AB
:103EC00095010E945B409B01AC01C801B7010E94B3
:103ED000973D0E94C84020E030E040E85BE30E944C
:103EE0005B409B01AC0160E070E080E89FE30E94D2
:103EF000963DF62E072F182FE92E20E030E0A9017D
:103F00000E9450401816D4F46F2D702F812F9E2DD3
:103F10002F2D302F412F5E2D0E94973D9B01AC012C
:103F200060E070E080E89FE30E94963D20E030E092
:103F3000A9010E94743E87FF19C075C06F2D702FB4
:103F4000812F9E2D2F2D302F412F5E2D0E94973DCA
:103F500020E030E040E85FE30E94973D20E030E061
:103F6000A9010E94743E87FF1DC05DC06F2D702F98
:103F7000812F9E2D2F2D302F412F5E2D0E94973D9A
:103F80009B01AC0160E070E080E89FE30E94963DF9
:103F900020E030E040E85FE30E94504018160CF447
:103FA00047C019C06F2D702F812F9E2D2F2D302FC0
:103FB000412F5E2D0E94973D20E030E040E85FE316
:103FC0000E94973D20E030E040E85FE30E945040CF
:103FD000181674F113C06F2D702F812F9E2D2F2D69
:103FE000302F412F5E2D0E94973D9B01AC0160E078
:103FF00070E080E89FE30E94963D10C06F2D702F07
:10400000812F9E2D2F2D302F412F5E2D0E94973D09
:1040100020E030E040E85FE30E94973DF62E072F56
:10402000182FE92E0AC0FF2400E010E0EE2405C09E
:10403000FF2400E010E83FE3E32E89E497E065EF1A
:1040400076E040E755E00E94391E6F2D702F812FDA
:104050009E2D2AE037ED43EA5CE30E945B409B0122
:10406000AC0189E197E069E477E00E94BA1E6F2D08
:10407000702F812F9E2D2CEA35EC47EA57E30E94E2
:104080005B409B01AC018CEE9DE069E477E00E940F
:10409000BA1E85E297E0BC014CEE5DE00E94F41E82
:1040A000E090F106F090F2060091F3061091F4060C
:1040B000C801B7010E94783E5B016C01C801B701DD
:1040C0000E94BE40209158053091590540915A05F3
:1040D00050915B050E945B407B018C01C601B501DC
:1040E0002091640530916505409166055091670502
:1040F0000E945B409B01AC01C801B7010E94963D44
:104100009B01AC0185E597E060E775E00E94BA1E6F
:1041100088EF9DE065E577E02AE939E949E95FE361
:104120000E94BA1E89E197E0BC0148EF5DE00E9461
:10413000F41E8CEE9DE065E577E02CEA35EC47EA6D
:1041400057E30E94BA1E85E297E0BC014CEE5DE0A9
:104150000E94F41E1F910F91FF90EF90DF90CF907F
:10416000BF90AF909F908F907F906F9008956F92C7
:104170007F928F929F92AF92BF92CF92DF92EF92F7
:10418000FF920F931F93DF93CF93CDB7DEB7A49722
:104190000FB6F894DEBF0FBECDBF78E5C72E75E031
:1041A000D72E6CE0662E712C6C0C7D1CC601B30101
:1041B0000E94F61D905820E030E040E05FE30E944E
:1041C0005B405B01982E892E8E010F5F1F4FC80147
:1041D000B301F4012A2D3B2D4F2F5E2F0E94BA1EF2
:1041E0005DE0E52EF12CEC0EFD1EC701B601F401D9
:1041F0002A2D3B2D4F2F5E2F0E94BA1EC801B801F9
:10420000A6010E94F41EC701B701A3010E94F41E7B
:1042100049E1A42EB12CAC0EBD1EC501B801A70109
:104220000E94391EC801B8010E94F61D9B01AC0115
:1042300060E070E080E490E40E94963D20E030E091
:1042400040E05FE30E945B409B01AC01C601B80106
:104250000E94BA1EC701B7010E94F61D9B01AC0166
:1042600060E070E080E490E40E94963D20E030E061
:1042700040E05FE30E945B409B01AC01C301B701DA
:104280000E94BA1EC501B5010E94F61D9B01AC013A
:1042900060E070E080E490E40E94963D20E030E031
:1042A00040E05FE30E945B409B01AC0180E795E04A
:1042B000B5010E94BA1EA4960FB6F894DEBF0FBED9
:1042C000CDBFCF91DF911F910F91FF90EF90DF90C5
:1042D000CF90BF90AF909F908F907F906F900895F8
:1042E0002F923F924F925F926F927F928F929F9206
:1042F000AF92BF92CF92DF92EF92FF920F931F93F4
:10430000DF93CF93CDB7DEB72E970FB6F894DEBF0D
:104310000FBECDBF6D877E87C42ED52EE82EF92E19
:10432000F4E22F2E312C2C0C3D1C50C0F8012191B1
:104330003191419151918F01F701608171818281A9
:1043400093810E945B404B015C0169837A838B837C
:104350009C83F7016481758186819781F8012085AE
:104360003185428553850E945B409B01AC016D8382
:104370007E838F839887C501B4010E94973D4B01CE
:104380005C01F7016085718582859385F801248938
:104390003589468957890E945B409B01AC01C50164
:1043A000B4010E94973DF3016193719381939193BE
:1043B0003F010415150509F0B9CF8CE090E0C80E57
:1043C000D91EE80EF91EC214D30459F09D858E85BE
:1043D000092F182FECE04E2E512C400E511E3601A5
:1043E000A5CF2E960FB6F894DEBF0FBECDBFCF91EE
:1043F000DF911F910F91FF90EF90DF90CF90BF90D2
:10440000AF909F908F907F906F905F904F903F9074
:104410002F9008952F923F924F925F926F927F92CA
:104420008F929F92AF92BF92CF92DF92EF92FF92C4
:104430000F931F93DF93CF9300D00F92CDB7DEB7CA
:104440006091D3067091D406882777FD8095982FC8
:104450000E94163F29E732E240EA5AE30E945B409D
:1044600060930107709302078093030790930407FA
:104470006091D5067091D606882777FD8095982F94
:104480000E94163F29E732E240EA5AE30E945B406D
:1044900060930507709306078093070790930807BA
:1044A0006091D7067091D806882777FD8095982F60
:1044B0000E94163F29E732E240EA5AE30E945B403D
:1044C0006093090770930A0780930B0790930C077A
:1044D0006091D9067091DA06882777FD8095982F2C
:1044E0000E94163F6093F5067093F6068093F706D8
:1044F0009093F8066091DB067091DC06882777FDC3
:104500008095982F0E94163F6093F9067093FA06E3
:104510008093FB069093FC066091DD067091DE06A9
:10452000882777FD8095982F0E94163F6093FD069F
:104530007093FE068093FF069093000781E397E057
:1045400061E077E045E257E00E94F41E8DE097E0DD
:1045500061E377E049E157E00E94F41E0F2EF0E09E
:104560002F2EF0E03F2EF0E04F2EF0E05F2EF02DEA
:1045700020927C0530927D0540927E0550927F0509
:10458000E0905405F090550500915605109157059F
:1045900057016801D7FAD094D7F8D09460901507E6
:1045A000709016078090170790901807C601B50104
:1045B000A40193010E945B40609380057093810584
:1045C0008093820590938305809111079091120743
:1045D000A0911307B091140789839A83AB83BC839E
:1045E000C801B70129813A814B815C810E945B40FF
:1045F0006093840570938505809386059093870565
:10460000C801B701A40193010E945B406093880533
:104610007093890580938A0590938B0520928C0571
:1046200030928D0540928E0550928F0560900D0757
:1046300070900E0780900F0790901007C601B5018B
:10464000A40193010E945B406093900570939105D3
:104650008093920590939305C601B50129813A8113
:104660004B815C810E945B4060939405709395053B
:104670008093960590939705C801B701A401930113
:104680000E945B40609398057093990580939A050A
:1046900090939B0520929C0530929D0540929E052B
:1046A00050929F0588E595E06CE775E043E657E09A
:1046B0000E947021A8E5EA2EA5E0FA2E03E617E095
:1046C000D7016D917D918D919C91F801208131816F
:1046D000428153810E94973DD7016D937D938D93C5
:1046E0009C93139714966D917D918D919C91179742
:1046F000F80124813581468157810E94973DD70179
:1047000014966D937D938D939C93179718966D9146
:104710007D918D919C911B97F80120853185428573
:1047200053850E94973DD70118966D937D938D9385
:104730009C931B97ECE0F0E0EE0EFF1E045F1F4F12
:10474000FCE7EF16F5E0FF0609F0BACF0F900F90E7
:104750000F900F90CF91DF911F910F91FF90EF90ED
:10476000DF90CF90BF90AF909F908F907F906F9091
:104770005F904F903F902F900895EF92FF920F938C
:104780001F930E9499342091B3063091B406409152
:10479000B5065091B606621B730B840B950B643102
:1047A00071058105910508F46BC0809161079091B6
:1047B0006207019690936207809361072093B70682
:1047C0003093B8064093B9065093BA060E949934C4
:1047D0009B01AC012093B3063093B4064093B50619
:1047E0005093B6068091B7069091B806A091B9068D
:1047F000B091BA0682179307A407B507CCF47901E4
:104800008A01E81AF90A0A0B1B0BC801B7010E94BA
:10481000163F20E030E04AE754E40E947B3E60937C
:1048200054057093550580935605909357050BC01A
:1048300080E090E0DC018093540590935505A093AF
:104840005605B09357050E94EC1B0E94761C809180
:104850006107909162078630910540F010926207DF
:10486000109261070E94A31D0E94EA190E940A2269
:104870000E94B7200E94251F0E948E1B81E001C06C
:1048800080E01F910F91FF90EF900895CF93DF93F9
:10489000EC010E943B05CE0105960E942E38CE0108
:1048A00008960E942E38DF91CF910895CF93DF9321
:1048B000EC018130910509F05DC183E997E00E9428
:1048C000B9028DEC97E00E94462489E098E067E207
:1048D00070E120E036E940E050E00E9486058BE080
:1048E00098E06AE240E00E94B70884EB95E090937C
:1048F00011088093100884E190E19093130880934D
:10490000120880E091EEA0E0B0E08093140890934C
:104910001508A0931608B09317081092920C82EE17
:1049200095E09093A10C8093A00CEAE0F6E0F09360
:10493000B60CE093B50C8CEB94E09093BA0C80939A
:10494000B90C85EB9CE09093BC0C8093BB0C10924F
:10495000C20C1092C10C86E196E09093C40C809337
:10496000C30C82E296E09093C60C8093C50C109223
:10497000CB0C1092CC0C1092CD0C1092CE0C10924D
:10498000CF0C1092D00C1092D10C1092D20C24ECBF
:1049900034E03093F60C2093F50C23EC3CE030939C
:1049A000F80C2093F70C1092FE0C1092FD0C2EE2E6
:1049B00036E03093000D2093FF0C9093020D80930E
:1049C000010D1092070D1092080D1092090D109212
:1049D0000A0D10920B0D10920C0D10920D0D1092ED
:1049E0000E0D2DEC34E030931A0D2093190D2FEF9E
:1049F0003CE030931C0D20931B0D1092220D109261
:104A0000210D2AE336E03093240D2093230D90935B
:104A1000260D8093250D10922B0D10922C0D1092C7
:104A20002D0D10922E0D10922F0D1092300D109210
:104A3000310D1092320D2BED34E030935E0D20934A
:104A40005D0D23E23DE03093600D20935F0D1092E9
:104A5000660D1092650D66E476E07093680D6093C4
:104A6000670D42E556E050936A0D4093690D2EE5BF
:104A700036E030936D0D20936C0DA3EEB4E0B0934F
:104A8000830DA093820DA7E6BDE0B093850DA093A2
:104A9000840D10928B0D10928A0DAAE6B6E0B093A9
:104AA000960DA093950DA6E7B6E0B0939C0DA0934C
:104AB0009B0D90939E0D80939D0D1092A30D1092CF
:104AC000A40D1092A50D1092A60D1092A70D109294
:104AD000A80D1092A90D1092AA0D86E699E1909367
:104AE000B60D8093B50DD093B80DC093B70D8FEE72
:104AF00094E090939A0D8093990D82E896E09093BC
:104B0000BA0D8093B90DF093C00DE093BF0D85E011
:104B100093E19093C40D8093C30DD093C60DC093C1
:104B2000C50D85EF94E09093BE0D8093BD0D8EE88A
:104B300096E09093C80D8093C70D7093CE0D60934F
:104B4000CD0D5093D00D4093CF0D3093D30D2093C6
:104B5000D20D8EE399E19093E90D8093E80DD09307
:104B6000EB0DC093EA0D8CEF94E09093CC0D809305
:104B7000CB0D06C0009721F489E098E00E948F05D4
:104B8000DF91CF910895CF92DF92EF92FF920F9332
:104B90001F93DF93CF93CDB7DEB760970FB6F8942E
:104BA000DEBF0FBECDBF6C010E94993428EE33E00A
:104BB00040E050E00E9464417B018C01F601848555
:104BC0009585A685B785820F931FA41FB51F89837E
:104BD0009A83AB83BC83C801B70120E432E44FE081
:104BE00050E00E941E41F601208931894289538993
:104BF000620F731F841F951F6D837E838F83988739
:104C00007E010894E11CF11CC701BE016B5F7F4F60
:104C10000E947D01DE011996F70188E001900D9256
:104C20008150E1F729853A854B855C856D857E85C8
:104C30008F85988960960FB6F894DEBF0FBECDBF02
:104C4000CF91DF911F910F91FF90EF90DF90CF9068
:104C50000895EF92FF920F931F93CF93DF9380916C
:104C60008C0D90918D0DA0918E0DB0918F0D0196B0
:104C7000A11DB11D80938C0D90938D0DA0938E0D71
:104C8000B0938F0D809108088093B70C89EB9CE05E
:104C900065EB7CE00E94CF1900EA15E01093100D3F
:104CA00000930F0DC7E0DDE080E198E00E94C3258E
:104CB0002093070D39834A835B836C837D838E83C6
:104CC0009F8380918C0D90918D0DA0918E0DB09150
:104CD0008F0D8093030D9093040DA093050DB09359
:104CE000060D8DEC97E00E9450056093110D7093B6
:104CF000120D8093130D9093140D8DEC97E00E948C
:104D00006B056093150D7093160D8093170D90939E
:104D1000180D89E19DE0BE01685070400E94CF19D6
:104D20001093340D0093330DCBE2DDE080E198E089
:104D30000E94C32520932B0D39834A835B836C83A8
:104D40007D838E839F8380918C0D90918D0DA0919A
:104D50008E0DB0918F0D8093270D9093280DA09309
:104D6000290DB0932A0D80913D0790913E07A091A7
:104D70003F07B09140078093350D9093360DA09377
:104D8000370DB093380D8091410790914207A09163
:104D90004307B09144078093390D90933A0DA09347
:104DA0003B0DB0933C0D8091450790914607A09133
:104DB0004707B091480780933D0D90933E0DA09317
:104DC0003F0DB093400D8091010790910207A09193
:104DD0000307B09104078093410D9093420DA09377
:104DE000430DB093440D8091050790910607A09163
:104DF0000707B09108078093450D9093460DA09347
:104E0000470DB093480D8091090790910A07A09132
:104E10000B07B0910C078093490D90934A0DA09316
:104E20004B0DB0934C0D6091F5067091F606809194
:104E3000F7069091F80623EC35EF4CE151E40E941F
:104E40005B4020E030E040E85BE30E945B40609321
:104E50004D0D70934E0D80934F0D9093500D6091BA
:104E6000F9067091FA068091FB069091FC0623ECFE
:104E700035EF4CE151E40E945B4020E030E040E837
:104E80005BE30E945B406093510D7093520D8093E1
:104E9000530D9093540D6091FD067091FE06809124
:104EA000FF069091000723EC35EF4CE151E40E949E
:104EB0005B4020E030E040E85BE30E945B406093B1
:104EC000550D7093560D8093570D9093580D80910A
:104ED000F1069091F206A091F306B091F40680934A
:104EE000590D90935A0DA0935B0DB0935C0D8DE519
:104EF0009DE0BE01685070400E94CF198091080863
:104F0000882309F4AEC0C091800DD091810D82ED4F
:104F100097E00E9410398883C091800DD091810D57
:104F200085ED97E00E941039898382E89DE067E66D
:104F30007DE00E94CF191093D40C0093D30CCBECDE
:104F4000DCE080E198E00E94C3252093CB0C3983FC
:104F50004A835B836C837D838E839F8380918C0DDA
:104F600090918D0DA0918E0DB0918F0D8093C70CF7
:104F70009093C80CA093C90CB093CA0CE090E407BE
:104F8000F090E5070091E6071091E7076091EC07C4
:104F90007091ED078091EE079091EF070E94163F08
:104FA000A80197010E945B406093D50C7093D60CCA
:104FB0008093D70C9093D80C8091E8079091E907E3
:104FC000A091EA07B091EB078093DD0C9093DE0C83
:104FD000A093DF0CB093E00CE092ED0CF092EE0C9D
:104FE0000093EF0C1093F00CE090FC07F090FD079D
:104FF0000091FE071091FF07609104087091050869
:1050000080910608909107080E94163FA801970119
:105010000E945B406093D90C7093DA0C8093DB0C98
:105020009093DC0C8091000890910108A0910208F7
:10503000B09103088093E10C9093E20CA093E30CF1
:10504000B093E40CE092F10CF092F20C0093F30CAC
:105050001093F40C85EF9CE0BE01685070400E94F4
:10506000CF19DF91CF911F910F91FF90EF9008958D
:10507000DB01FC01EC5EFB4F20E030E041915191FF
:1050800041155105A9F4F901E65FFD4FEE0FFF1F31
:10509000E80FF91FB183A08323583F4F15963C9327
:1050A0002E93149717969C938E93169781E00895EC
:1050B0002F5F3F4F2931310509F780E00895FC014A
:1050C000EA5BFB4F20E030E04191519141155105E1
:1050D00081F4F901ED5DFD4FEE0FFF1FE80FF91FA1
:1050E000718360832C593F4FFB013383228381E01E
:1050F00008952F5F3F4F2931310531F780E0089542
:10510000FC01EA5BFB4F20E030E0419151914115F9
:10511000510581F4F901ED5DFD4FEE0FFF1FE80F22
:10512000F91F718360832C593F4FFB013383228326
:1051300081E008952F5F3F4F2931310531F780E03D
:105140000895FC01EA5BFB4F20E030E04191519172
:105150004115510581F4F901ED5DFD4FEE0FFF1F83
:10516000E80FF91F718360832C593F4FFB01338394
:10517000228381E008952F5F3F4F2931310531F7B8
:1051800080E008950F931F93DF93CF93CDB7DEB7E1
:105190002A970FB6F894DEBF0FBECDBF8C018AEC04
:1051A00095E09A8389831B821C821D821E821F8246
:1051B000188619861A86D801ED91FC910190F0812C
:1051C000E02DC8016AE070E0AE014F5F5F4F1995B6
:1051D0000E949934F80160877187828793872A96A5
:1051E0000FB6F894DEBF0FBECDBFCF91DF911F91F8
:1051F0000F9108954F925F926F927F928F929F923C
:10520000AF92BF92CF92DF92EF92FF920F931F93D4
:10521000DF93CF93CDB7DEB72E970FB6F894DEBFEE
:105220000FBECDBF8C01FC01EE57FB4F81E08083A8
:105230008EEB95E09A83898354E1E52E54E0F52EB8
:10524000E00EF11E46E4642E44E0742E600E711EE2
:10525000812C32E0932EA12CB12C6E010894C11C3C
:10526000D11CD701ED91FC9111973097A9F1848160
:1052700095819C838B83808191819E838D838281A4
:105280009381DC01ED91FC910480F581E02D19956D
:1052900098878F83D701ED91FC9182819381DC0106
:1052A000ED91FC910680F781E02D19959A87898709
:1052B0008B869C86AD86BE86F80180819181F70140
:1052C000A081B18118966D917C911997DC01ED91C7
:1052D000FC91C801A6011995E2E0F0E0EE0EFF1E78
:1052E000E614F70409F0BDCF26E4E22E24E0F22E06
:1052F000E00EF11E98E7492E94E0592E400E511E03
:10530000812C82E0982EA12CB12C6E010894C11C36
:10531000D11CF701A081B1811097D1F112968D9126
:105320009C9113979C838B8314968D919C911597D8
:105330009E838D83ED91FC9111970480F581E02D82
:10534000CD01199598878F83D7018D919C91DC01B0
:10535000ED91FC910680F781E02D19959A87898758
:105360008B869C86AD86BE86D801ED91FC916080CF
:105370007180F70180819181DC01ED91FC910280C7
:10538000F381E02D1995BC01C801A601F30119951F
:10539000E2E0F0E0EE0EFF1EE414F50409F0B9CFF0
:1053A0002E960FB6F894DEBF0FBECDBFCF91DF9122
:1053B0001F910F91FF90EF90DF90CF90BF90AF9033
:1053C0009F908F907F906F905F904F900895CF92B5
:1053D000DF92EF92FF920F931F93CF93DF93EC0135
:1053E0006B010E949934F601E080F1800281138103
:1053F0000894E108F1080109110928EE33E040E0C2
:1054000050E00E946441E21AF30A040B150BEC868B
:10541000FD860E871F87F601E480F58006811781DF
:1054200020E03AEC4AE95BE3E20EF31E041F151F8D
:1054300020E432E44FE050E00E941E41E61AF70AF1
:10544000080B190BE88AF98A0A8B1B8BBE01605F77
:105450007F4FCE010C960E947D01DF91CF911F916D
:105460000F91FF90EF90DF90CF900895AF92BF9291
:10547000CF92DF92EF92FF920F931F93DF93CF9320
:10548000CDB7DEB72A970FB6F894DEBF0FBECDBFFB
:105490005C016B018AEC95E09A8389831B821C82F4
:1054A0001D821E821F82188619861A860E949934D0
:1054B0007B018C01F50180859185A285B385E81A71
:1054C000F90A0A0B1B0BCE010196B6010E94CF0907
:1054D000C801B70128EE33E040E050E00E9464418B
:1054E0007B018C018B819C81AD81BE81820F931FDA
:1054F000A41FB51F8B839C83AD83BE83C801B701F6
:1055000020E432E44FE050E00E941E419B01AC01D8
:105510008F819885A985BA85820F931FA41FB51F17
:105520008F839887A987BA87C501BE016D5F7F4FBA
:105530000E94E7290E949934F501E957FB4F6083E7
:105540007183828393832A960FB6F894DEBF0FBED1
:10555000CDBFCF91DF911F910F91FF90EF90DF9022
:10556000CF90BF90AF9008952F923F924F925F924D
:105570006F927F928F929F92AF92BF92CF92DF9263
:10558000EF92FF920F931F93DF93CF93CDB7DEB7C8
:105590002C970FB6F894DEBF0FBECDBF9C878B87CC
:1055A0000E9499346B017C01EB85FC85E957FB4F28
:1055B00080819181A281B381A7019601281B390BBB
:1055C0004A0B5B0BDA01C901893F3AE2930730E0ED
:1055D000A30730E0B30728F0EB85FC85EE57FB4FBF
:1055E0001082EB85FC85E858FB4F80819181009704
:1055F00081F0AB85BC85A557BB4F8D919D910D90DA
:10560000BC91A02D8C159D05AE05BF0510F411822F
:10561000108290E8692E94E0792E4B855C85640EAB
:10562000751E8A0108581B4F8CE7882E84E0982E3F
:10563000840E951EB4E14B2E512C440E551E40573E
:105640005B4F5A8349838B859C8581579B4F9C83F5
:105650008B83AAE7AA2EA4E0BA2EAB85BC85AA0E3E
:10566000BB1EFEE72F2EF4E03F2E2A0E3B1EA55751
:10567000BB4FBE83AD83A70196012C5E3F4F4F4FBA
:105680005F4F2F83388749875A87C8010B851C8550
:105690009C878B87D80112968D919C911397DC0182
:1056A000ED91FC910084F185E02D19959C0197FD09
:1056B000FCC0F30180819181820F931F91838083CD
:1056C000AB85BC854D915C91119746305105B9F47D
:1056D000F10180819181F801E80FF91F248B019677
:1056E000D10111969C938E93F50180819181019750
:1056F00091838083009771F6E7E0F0E04AC041159E
:105700005105A9F42F3F310529F6E1E0F0E0AB8522
:10571000BC85ED93FC932F81388549855A85AD81F1
:10572000BE812D933D934D935C931397B3CF41303E
:10573000510581F42F3F310539F422E030E0EB854B
:10574000FC8531832083A6CFAB85BC8511961C9246
:105750001E92A0CF4230510571F4F40131832083B1
:10576000E3E0F0E0AB85BC85ED93FC93D3011196AB
:105770003C932E938FCF4330510589F4322F22274B
:10578000F40180819181280F391F31832083E4E067
:10579000F0E0AB85BC851196FC93EE937BCF443053
:1057A000510551F4D50111963C932E93F1011182CC
:1057B0001082E5E0F0E0EDCF45305105D1F4322F15
:1057C0002227D5018D919C911197280F391F119691
:1057D0003C932E9346E050E0EB85FC85518340835B
:1057E0002115310509F056CF87E090E09183808341
:1057F00051CF4730510509F04DCFAB85BC8511968F
:105800001C921E9260E071E00E9451418F3F910511
:1058100009F040CFD401ED91FC9111973097E1F45C
:105820001C870B87C8010E94C2288B859C850E941B
:10583000FA28EB85FC85ED57FB4FC082D182E282CE
:10584000F382EB85FC85E957FB4FC082D182E2826F
:10585000F3822FEF3FEF54C0EA30F10529F4C8017D
:10586000B2010E94362A16CFE630F10551F4898143
:105870009A81B2010E94EB1621E0EB81FC8120832A
:1058800009CFE154FE4FEE0FFF1FE00FF11F8081A3
:105890009181009709F4FECEDC01ED91FC9101901D
:1058A000F081E02DB2011995F5CE1C870B87F80128
:1058B000EE57FB4F8081882309F10D571B4FF801EC
:1058C00080819181A281B381A7019601281B390BA8
:1058D0004A0B5B0BDA01C901853C39E0930730E0E4
:1058E000A30730E0B30750F08B859C850E94C22847
:1058F000D801CD92DD92ED92FC92139720E030E03A
:10590000C9012C960FB6F894DEBF0FBECDBFCF9164
:10591000DF911F910F91FF90EF90DF90CF90BF909C
:10592000AF909F908F907F906F905F904F903F903F
:105930002F9008952F923F924F925F926F927F9295
:105940008F929F92AF92BF92CF92DF92EF92FF928F
:105950000F931F93DF93CF930F920F92CDB7DEB7C4
:105960000E94F4340E94001D80E990EDA3E0B0E0B5
:105970008093140890931508A0931608B093170805
:1059800082E198E00E94E0191092890C1092880C34
:1059900010928B0C10928A0C10928F0C10928E0C1D
:1059A00010928D0C10928C0C80E198E069EB7CE0F9
:1059B0000E94382880E198E065EF7CE00E9438285A
:1059C00080E198E069E17DE00E94382880E198E07C
:1059D0006DE57DE00E94382882E090E00E947E3BE9
:1059E0008093800D9093810D82E080937E0D80E105
:1059F00098E062E87DE00E94382880E198E069EB59
:105A00007DE00E945F2880E198E065E97DE00E94EA
:105A1000802880E198E067EC7DE00E94A128E12CDD
:105A2000F12C71E0072F112DE092D807F092D907E1
:105A30000093DA071093DB0720E030E840E050E005
:105A40002093DC073093DD074093DE075093DF0798
:105A500080E090E4A0E0B0E08093E0079093E1075D
:105A6000A093E207B093E3070F2EF3E2AF2EF9E421
:105A7000BF2EF7EFCF2EF8E3DF2EF02DA092E40734
:105A8000B092E507C092E607D092E707E092F007F0
:105A9000F092F1070093F2071093F3072093F407B5
:105AA0003093F5074093F6075093F7078093F80774
:105AB0009093F907A093FA07B093FB07A092FC0715
:105AC000B092FD07C092FE07D092FF070DEC17E0E1
:105AD000C80160E070E04AE02BE00E940B05F8018D
