:100000000C9404010C94D01F0C9401200C94322009
:100010000C9463200C9494200C94C5200C94F6202E
:100020000C9427210C9430010C9430010C94300175
:100030000C9430010C9430010C9430010C94FE08A7
:100040000C9430010C945F270C9430010C94300117
:100050000C9430010C9430010C9430010C94A121CB
:100060000C9430010C94A11A0C9430010C943001C2
:100070000C9430010C9430010C9430010C9430013C
:100080000C9432270C9430010C9430010C94300104
:100090000C94CD1A0C9430010C9430010C94300166
:1000A0000C9430010C9430010C9405270C94300111
:1000B0000C9430010C9430010C9430010C94D8262F
:1000C0000C9430010C9430010C9430010C94F91A0A
:1000D0000C9430010C9430010C94251B0C943001CD
:1000E0000C94300100002100240027002A002D007C
:1000F0003000330001010000040107010A01000083
:100100002200250028002B002E00310034000201BF
:100110000000050108010B0100002000230026005B
:1001200029002C002F00320000010000030106010D
:10013000090105050505070508080808020202026D
:100140000A0A080804040404010101010101010173
:100150000303030303030303040707070C0C0C0C3E
:100160000C0C0C0C02020202060606060606060627
:100170000B0B0B0B0B0B0B0B0102102020080810B4
:100180002040102040800201020108040201010207
:1001900004081020408080402010080402018004E0
:1001A000020180402010080402010804020101023B
:1001B0000408102040800102040810204080000044
:1001C000090A02080B0C0D070603040100000000D9
:1001D000000000000000000000000000000000001F
:1001E00000000000000000000000100F0E000000E2
:1001F00000000000000000000000000000000000FF
:10020000000000003016B71C11241FBECFEFD1E252
:10021000DEBFCDBF00E00CBF13E0A0E0B2E0E6E936
:10022000F6E500E00BBF02C007900D92A43EB107B7
:10023000D9F718E0A4EEB3E001C01D92AB33B107CB
:10024000E1F712E0C8E0D2E004C02297FE010E946C
:100250005428C430D107C9F70E9479170C94492B50
:100260000C940000EF92FF920F931F937B018C017F
:1002700020E030E040E05FE40E940E0588238CF02F
:10028000C801B70120E030E040E05FE40E94AA022C
:100290000E94FC059B01AC0120503040404050487A
:1002A00006C0C801B7010E94FC059B01AC01B90161
:1002B000CA011F910F91FF90EF900895A0E0B0E068
:1002C000E4E6F1E00C941B28DC012B01FA019C917F
:1002D000923008F439C1EB018881823008F433C1CF
:1002E000943069F4843009F02FC111969C911197D4
:1002F0008981981709F428C1A6EBB2E025C18430A2
:1003000009F421C18230A9F4923009F01DC19A018B
:10031000AD0188E0EA010990AE01E90109929E0170
:100320008150C1F7E201898111969C9189238183D3
:1003300008C1923009F407C112962D903C90139792
:10034000EB018A819B811496AD90BD90CD90DC909D
:100350001797EC80FD800E811F819101281B390BBE
:10036000B90137FF04C066277727621B730B603221
:1003700071050CF061C0121613066CF537014801C7
:10038000062E04C096948794779467940A94D2F7C3
:1003900021E030E040E050E004C0220F331F441F52
:1003A000551F6A95D2F721503040404050402E21D1
:1003B0003F2140235123211531054105510521F0ED
:1003C00021E030E040E050E079018A01E628F7289A
:1003D000082919293CC0232BD1F1260E371E3501DF
:1003E0004601062E04C096948794779467940A94E5
:1003F000D2F721E030E040E050E004C0220F331F8C
:10040000441F551F6A95D2F721503040404050405C
:100410002A213B214C215D21211531054105510542
:1004200021F021E030E040E050E059016A01A628C7
:10043000B728C828D9280BC0821593052CF01C01B9
:10044000AA24BB24650103C0EE24FF248701119672
:100450009C91D20111968C91981709F445C099236B
:1004600039F0A80197012A193B094C095D0906C01A
:10047000A60195012E193F09400B510B57FD08C0ED
:1004800011823382228224833583468357831DC0A1
:1004900081E081833382228288279927DC01821BB5
:1004A000930BA40BB50B84839583A683B7830DC0F0
:1004B000220F331F441F551F2483358346835783E0
:1004C0008281938101979383828324813581468140
:1004D0005781DA01C9010197A109B1098F5F9F4FC7
:1004E000AF4FBF4328F30BC0918333822282EA0CC3
:1004F000FB1C0C1D1D1DE482F5820683178383E01F
:100500008083248135814681578157FF1AC0C901F4
:10051000AA2797FDA095BA2F81709070A070B07037
:100520005695479537952795822B932BA42BB52B62
:1005300084839583A683B783828193810196938375
:100540008283DF0101C0D201CD01CDB7DEB7E2E188
:100550000C943728A0E2B0E0E0EBF2E00C942728FE
:1005600069837A838B839C832D833E834F83588753
:10057000E9E0EE2EF12CEC0EFD1ECE010196B70146
:100580000E94EE078E010F5E1F4FCE010596B80147
:100590000E94EE078A8991E089278A8BC701B801FA
:1005A000AE01475E5F4F0E945E010E941807A09651
:1005B000E6E00C944328A0E2B0E0E1EEF2E00C9417
:1005C000272869837A838B839C832D833E834F8383
:1005D0005887F9E0EF2EF12CEC0EFD1ECE010196AE
:1005E000B7010E94EE078E010F5E1F4FCE010596E8
:1005F000B8010E94EE07C701B801AE01475E5F4F28
:100600000E945E010E941807A096E6E00C94432821
:10061000A0E2B0E0EEE0F3E00C941B2869837A835B
:100620008B839C832D833E834F835887CE01019615
:10063000BE01675F7F4F0E94EE07CE010596BE01A7
:100640006F5E7F4F0E94EE079985923088F089890E
:100650008230C8F0943019F4823051F404C08430F0
:1006600029F4923081F486EB92E0C6C0923049F4CE
:1006700020E09A858A89981321E02A87CE0109967D
:10068000BBC0823049F420E09A858A89981321E022
:100690002A8BCE014196B0C02D843E844F84588869
:1006A0006D887E888F88988CEE24FF248701AA2489
:1006B000BB24650140E050E060E070E0E0E0F0E085
:1006C000C10181709070892BE9F0E60CF71C081DC0
:1006D000191D9A01AB012A0D3B1D4C1D5D1D80E0CB
:1006E00090E0A0E0B0E0E614F7040805190520F456
:1006F00081E090E0A0E0B0E0BA01A901480F591FE5
:100700006A1F7B1FAA0CBB1CCC1CDD1C97FE08C0FB
:1007100081E090E0A0E0B0E0A82AB92ACA2ADB2A4A
:100720003196E032F10549F0660C771C881C991C63
:100730005694479437942794C3CFFA85EA892B8936
:100740003C898B859C85280F391F2E5F3F4F17C032
:10075000CA0181709070892B61F016950795F79406
:10076000E79480E090E0A0E0B0E8E82AF92A0A2BBC
:100770001B2B76956795579547952F5F3F4F77FDD4
:10078000E7CF0CC0440F551F661F771F17FD416050
:10079000EE0CFF1C001F111F21503040403090E034
:1007A000590790E0690790E4790760F32B8F3C8F3D
:1007B000DB01CA018F779070A070B0708034910512
:1007C000A105B10561F447FD0AC0E114F10401057A
:1007D000110529F0405C5F4F6F4F7F4F40781A8EB4
:1007E000FE1711F081E08A8F4D8F5E8F6F8F78A397
:1007F00083E0898FCE0149960E941807A096E2E116
:100800000C943728A8E1B0E0E8E0F4E00C94232849
:1008100069837A838B839C832D833E834F835887A0
:10082000B9E0EB2EF12CEC0EFD1ECE010196B701C6
:100830000E94EE078E010F5E1F4FCE010596B80194
:100840000E94EE072985223008F47EC039893230B3
:1008500010F4B8017CC08A859A8989278A87243058
:1008600011F0223031F4231709F06EC066EB72E00C
:100870006EC0343039F41D861E861F86188A1C8689
:100880001B8604C0323021F484E08987B7015FC041
:100890002B853C858B899C89281B390B3C872B87B2
:1008A000ED84FE840F851889AD88BE88CF88D88CEA
:1008B000EA14FB040C051D0540F4EE0CFF1C001FA0
:1008C000111F215030403C872B8720E030E040E072
:1008D00050E080E090E0A0E0B0E460E070E0EA1476
:1008E000FB040C051D0540F0282B392B4A2B5B2BF4
:1008F000EA18FB080C091D09B695A79597958795E9
:10090000EE0CFF1C001F111F6F5F7F4F6F317105D1
:1009100031F7DA01C9018F779070A070B070803420
:100920009105A105B10561F427FD0AC0E114F104A8
:100930000105110529F0205C3F4F4F4F5F4F207894
:100940002D873E874F87588BBE01675F7F4FCB0156
:100950000E9418076896EAE00C943F28A8E1B0E0EE
:10096000E4EBF4E00C94272869837A838B839C83DF
:100970002D833E834F83588789E0E82EF12CEC0EBF
:10098000FD1ECE010196B7010E94EE078E010F5E9B
:100990001F4FCE010596B8010E94EE07898582306F
:1009A00040F08989823028F0C701B8010E946608AA
:1009B00001C081E06896E6E00C944328A8E1B0E02D
:1009C000E4EEF4E00C94272869837A838B839C837C
:1009D0002D833E834F83588789E0E82EF12CEC0E5F
:1009E000FD1ECE010196B7010E94EE078E010F5E3B
:1009F0001F4FCE010596B8010E94EE07898582300F
:100A000040F08989823028F0C701B8010E94660849
:100A100001C08FEF6896E6E00C944328A8E1B0E0AF
:100A2000E4E1F5E00C94272869837A838B839C8327
:100A30002D833E834F83588789E0E82EF12CEC0EFE
:100A4000FD1ECE010196B7010E94EE078E010F5EDA
:100A50001F4FCE010596B8010E94EE0789858230AE
:100A600040F08989823028F0C701B8010E946608E9
:100A700001C08FEF6896E6E00C944328A8E1B0E04F
:100A8000E4E4F5E00C94272869837A838B839C83C4
:100A90002D833E834F83588789E0E82EF12CEC0E9E
:100AA000FD1ECE010196B7010E94EE078E010F5E7A
:100AB0001F4FCE010596B8010E94EE07898582304E
:100AC00040F08989823028F0C701B8010E94660889
:100AD00001C081E06896E6E00C944328A8E1B0E00C
:100AE000E4E7F5E00C94272869837A838B839C8361
:100AF0002D833E834F83588789E0E82EF12CEC0E3E
:100B0000FD1ECE010196B7010E94EE078E010F5E19
:100B10001F4FCE010596B8010E94EE0789858230ED
:100B200040F08989823028F0C701B8010E94660828
:100B300001C081E06896E6E00C944328A8E0B0E0AC
:100B4000E4EAF5E00C9424289B01AC0183E089835E
:100B5000DA01C9018827B7FD83959927AA27BB2702
:100B6000B82E211531054105510519F482E089831C
:100B70003AC08823A9F0203080E0380780E0480799
:100B800080E8580729F460E070E080E09FEC30C016
:100B9000EE24FF248701E21AF30A040B150B02C0AE
:100BA00079018A018EE1C82ED12CDC82CB82ED82C4
:100BB000FE820F831887C801B7010E94C9060197FA
:100BC0001816190684F4082E04C0EE0CFF1C001F32
:100BD000111F0A94D2F7ED82FE820F831887C81A7C
:100BE000D90ADC82CB82BA82CE0101960E94180714
:100BF0002896E9E00C944028ACE0B0E0E2E0F6E0B2
:100C00000C942B2869837A838B839C83CE01019675
:100C1000BE016B5F7F4F0E94EE078D81823061F1D4
:100C2000823050F1843021F48E81882351F12EC01E
:100C30002F81388537FD20C06E812F3131051CF0A2
:100C40006623F9F023C08EE190E0821B930B298587
:100C50003A854B855C8504C0569547953795279511
:100C60008A95D2F76623B1F050954095309521953D
:100C70003F4F4F4F5F4F0EC020E030E040E050E06C
:100C800009C02FEF3FEF4FEF5FE704C020E030E0F7
:100C900040E050E8B901CA012C96E2E00C944728E4
:100CA000A8E0B0E0E6E5F6E00C9423287B018C0197
:100CB000611571058105910519F482E0898360C091
:100CC00083E089838EE1C82ED12CDC82CB82ED8239
:100CD000FE820F831887C801B7010E94C906FC0174
:100CE0003197F7FF3BC0222733272E1B3F0B5701BD
:100CF0006801022E04C0D694C794B794A7940A94AE
:100D0000D2F740E050E060E070E081E090E0A0E0E9
:100D1000B0E004C0880F991FAA1FBB1F2A95D2F705
:100D20000197A109B1098E219F21A023B12300972A
:100D3000A105B10521F041E050E060E070E04A29F2
:100D40005B296C297D294D835E836F8378878EE1D3
:100D500090E08E1B9F0B9C838B8312C0309781F099
:100D60000E2E04C0EE0CFF1C001F111F0A94D2F7B8
:100D7000ED82FE820F831887CE1ADF0ADC82CB82D7
:100D80001A82CE0101960E9418072896EAE00C9478
:100D90003F28EF92FF920F931F937B018C0180E01D
:100DA000E81680E0F80681E0080780E0180788F47C
:100DB0008FEFE816F1040105110531F028F088E005
:100DC00090E0A0E0B0E017C080E090E0A0E0B0E0EC
:100DD00012C080E0E81680E0F80680E0080781E0B5
:100DE000180728F088E190E0A0E0B0E004C080E1BE
:100DF00090E0A0E0B0E020E230E040E050E0281BCE
:100E0000390B4A0B5B0B04C016950795F794E794D2
:100E10008A95D2F7F701E254FD4F8081281B3109F2
:100E200041095109C9011F910F91FF90EF90089559
:100E3000DF92EF92FF920F931F93FC01E480F58005
:100E400006811781D1808081823058F480E090E063
:100E5000A0E1B0E0E82AF92A0A2B1B2BEFEFF0E023
:100E6000A6C0843009F49EC0823019F4E0E0F0E0BE
:100E70009BC0E114F1040105110519F4E0E0F0E074
:100E800096C0628173819FEF623879070CF05BC076
:100E900022E83FEF261B370B2A3131052CF020E0EA
:100EA00030E040E050E02AC0B801A701022E04C0A3
:100EB00076956795579547950A94D2F781E090E02B
:100EC000A0E0B0E004C0880F991FAA1FBB1F2A959D
:100ED000D2F70197A109B1098E219F21A023B12347
:100EE0000097A105B10521F081E090E0A0E0B0E01D
:100EF0009A01AB01282B392B4A2B5B2BDA01C90154
:100F00008F779070A070B07080349105A105B10505
:100F100039F427FF09C0205C3F4F4F4F5F4F04C09B
:100F2000215C3F4F4F4F5F4FE0E0F0E02030A0E00A
:100F30003A07A0E04A07A0E45A0710F0E1E0F0E029
:100F400079018A0127C06038710564F5FB01E15819
:100F5000FF4FD801C7018F779070A070B0708034B8
:100F60009105A105B10539F4E7FE0DC080E490E0DC
:100F7000A0E0B0E004C08FE390E0A0E0B0E0E80EB5
:100F8000F91E0A1F1B1F17FF05C016950795F7943A
:100F9000E794319687E016950795F794E7948A953C
:100FA000D1F705C0EFEFF0E0EE24FF2487016E2FAC
:100FB000679566276795902F9F77D794DD24D79400
:100FC0008E2F8695492F462B582F5D29B701CA01D0
:100FD0001F910F91FF90EF90DF900895FC01DB01CE
:100FE000408151812281622F6F7770E0221F22277A
:100FF000221F9381892F880F822B282F30E0991F81
:101000009927991F11969C93119721153105A9F5E0
:10101000411551056105710511F482E037C082E880
:101020009FEF13969C938E9312979A01AB0167E002
:10103000220F331F441F551F6A95D1F783E08C930D
:101040000DC0220F331F441F551F12968D919C9186
:101050001397019713969C938E931297203080E0FC
:10106000380780E0480780E4580758F314962D931A
:101070003D934D935C93179708952F3F310579F475
:10108000411551056105710519F484E08C930895AB
:1010900064FF03C081E08C9312C01C9210C02F57D4
:1010A000304013963C932E93129783E08C9387E005
:1010B000440F551F661F771F8A95D1F770641496E9
:1010C0004D935D936D937C93179708951F93DC0167
:1010D000FB019C91923008F447C08081823008F473
:1010E00043C0943051F411961C91843099F581815C
:1010F000682F70E0611B71093FC0843021F092308D
:1011000031F48230B9F18181882389F12DC01196A3
:101110001C9111978230F1F081811817D9F4129641
:101120002D913C911397828193818217930794F0BC
:1011300028173907BCF014968D919D910D90BC91A4
:10114000A02D2481358146815781281739074A0708
:101150005B0718F4112341F00AC082179307A40714
:10116000B50740F4112319F061E070E005C06FEF9E
:101170007FEF02C060E070E0CB011F910895809185
:10118000EA039091EB03A091EC03B091ED0301967B
:10119000A11DB11D8093EA039093EB03A093EC0390
:1011A000B093ED032091EA033091EB034091EC03FF
:1011B0005091ED038091E4039091E503A091E60343
:1011C000B091E703281739074A075B07B0F0809111
:1011D000EE03882391F481E08093EE031092EA03FA
:1011E0001092EB031092EC031092ED03E091E803F0
:1011F000F091E90319951092EE0308951F920F9252
:101200000FB60F920BB60F9211242F933F934F936B
:101210005F936F937F938F939F93AF93BF93EF935E
:10122000FF930E94BF08FF91EF91BF91AF919F91F3
:101230008F917F916F915F914F913F912F910F907F
:101240000BBE0F900FBE0F901F901895FC0171837D
:1012500060830895FC010190F081E02D4483558363
:10126000668377830895FC010190F081E02D20854D
:10127000318542855385B901CA0108952F923F9265
:101280004F925F926F927F928F929F92AF92BF9296
:10129000CF92DF92EF92FF920F931F93CF93DF9342
:1012A000FC011A012B01C081D181688179818A8179
:1012B0009B812C813D814E815F810E94AA026C8BB3
:1012C0007D8B8E8B9F8BA20191010E9408032C8540
:1012D0003D854E855F850E94DB027B018C016C871A
:1012E0007D878E879F876CA07DA08EA09FA06401C4
:1012F0005301D7FAD094D7F8D094A60195010E9453
:101300003E0588231CF4350146010AC0C801B70117
:10131000A40193010E94DE04181614F0370148015D
:101320006C867D868E869F86AC88BD88CE88DF8859
:10133000C601B501288D398D4A8D5B8D0E94080349
:101340007B018C01C401B3012C8D3D8D4E8D5F8DD1
:101350000E9408039B01AC01C801B7010E94DB0297
:101360007B018C01C601B501288939894A895B89CD
:101370000E94AA0228A139A14AA15BA10E940803E8
:10138000A20191010E9402049B01AC01C801B701B6
:101390000E94DB02688779878A879B87A88AB98A37
:1013A000CA8ADB8ADF91CF911F910F91FF90EF9056
:1013B000DF90CF90BF90AF909F908F907F906F9075
:1013C0005F904F903F902F900895FC01808188237B
:1013D00031F08181928164810E942B0D03C0848150
:1013E0000E94AF22BC0180E090E00E94500624E7FA
:1013F00039EB48E05EE30E9408030895FC01808118
:10140000882331F08181928163810E942B0D03C07A
:1014100083810E94AF22BC0180E090E00E945006D0
:1014200020E030E04DE95DE30E9408030895CF938A
:10143000DF93EC016115710511F4188204C081E09D
:1014400088837A8369834423B9F02223A9F04B83EC
:101450002C838881882381F4842F60E00E94E3221A
:101460008C8160E00E94E3228B8160E00E9409236E
:101470008C8160E00E940923DF91CF910895362F7F
:10148000242F60E070E0432F0E94170A0895DF9335
:10149000CF9300D00F920F92CDB7DEB7CE01019659
:1014A00060E040E00E943F0A0F900F900F900F9075
:1014B0000F90CF91DF910895EF92FF920F931F93BA
:1014C000FC0143832483E186F2860387148781E04D
:1014D0008283718360831F910F91FF90EF90089535
:1014E0000F931F93CF93DF93EC018A81882361F0E0
:1014F000888199816B810E942B0D8C018881998153
:101500006C810E942B0D07C08B810E94AF228C0141
:101510008C810E94AF22081B190BB801882777FD28
:101520008095982F0E949E0529853A854B855C857C
:101530000E9408032D813E814F8158850E94AA0296
:10154000DF91CF911F910F910895CF92DF92EF928B
:10155000FF920F931F936B0179018A010E94700A19
:10156000F6016083718382839383A80197010E94AF
:1015700008039B01AC01F601648175818681978126
:101580000E94DB02F60164837583868397831F9133
:101590000F91FF90EF90DF90CF900895AF92BF92A0
:1015A000CF92DF92EF92FF920F931F93CF93DF932F
:1015B000EC017B01442309F056C080E090E0A0E0FC
:1015C000B0E08D839E83AF83B887CC24DD243AC0FE
:1015D0008A81882361F0888199816B810E942B0D1B
:1015E0008C01888199816C810E942B0D07C08B81B1
:1015F0000E94AF228C018C810E94AF22081B190B24
:10160000B801882777FD8095982F0E949E0529852F
:101610003A854B855C850E9408039B01AC016D8176
:101620007E818F8198850E94DB026D837E838F830C
:10163000988761E070E080E090E00E941D220894AD
:10164000C11CD11CCE14DF0418F2B70180E090E079
:101650000E9450069B01AC016D817E818F8198852F
:101660000E9402044FC080E090E00E9450065B019F
:101670006C010894E108F108B70180E090E00E9455
:101680005006A60195010E9402049B01AC016D81E8
:101690007E818F8198850E9408036D837E838F836E
:1016A00098878A81882361F0888199816B810E9463
:1016B0002B0D8C01888199816C810E942B0D07C0B4
:1016C0008B810E94AF228C018C810E94AF22081B6B
:1016D000190BB801882777FD8095982F0E949E05E9
:1016E00029853A854B855C850E940803A6019501F2
:1016F0000E9402049B01AC016D817E818F819885DF
:101700000E94DB026D837E838F839887DF91CF9168
:101710001F910F91FF90EF90DF90CF90BF90AF900F
:101720000895FC01A081B18112962D913C911397EF
:101730006AEAF90119950895EF92FF920F931F93AA
:101740008C01F62EE42EDC01ED91FC9111970280C4
:10175000F381E02D15966C911995D801ED91FC91CE
:101760000280F381E02DC8016F2D1995D801ED910C
:10177000FC910280F381E02DC8016E2D1995D801EE
:10178000ED91FC91119715968C91F80EFE0CBFE728
:10179000FB220280F381E02DC8016F2D19951F9166
:1017A0000F91FF90EF90089547FD4FE70E949C0B2B
:1017B0000895FC01262F332727FD30953187208798
:1017C00067FD03C060E0422F05C044275527421B38
:1017D000530B61E00E94D40B0895FC01262F3327A0
:1017E00027FD30953783268367FD03C064E0422FD1
:1017F00005C044275527421B530B65E00E94D40BBC
:101800000895EF92FF920F931F938C01F62EE42E12
:101810000E94910BC8016F2D0E94ED0BC8016E2D27
:101820000E94D90B1F910F91FF90EF9008950F9395
:10183000DC01222319F4EFEFFFEF02C0E1E0F0E05A
:10184000002319F42FEF3FEF02C021E030E0862F94
:10185000992787FD9095E89FB001E99F700DF89F4B
:10186000700D1124842F992787FD9095289FA00142
:10187000299F500D389F500D1124CD010E94010C5D
:101880000F9108950F93FB01208131814FEF213893
:10189000340714F461E806C0B9012038310514F0AA
:1018A0006FE770E0228133814FEF2138340714F461
:1018B00041E806C0A9012038310514F04FE750E097
:1018C000248105810E94170C0F9108950F931F9397
:1018D000CF93DF93DC0112968C911297882309F045
:1018E00051C01FB7F8941B96ED91FC911C97908105
:1018F0001A968C911A9780958923808387E790E0C8
:1019000020E001972FEF8F3F9207D9F731E040E0B9
:1019100050E070E0C2E7D0E000E0832F90E0862343
:1019200097231B96ED91FC911C971A962C911A9770
:10193000892B21F08081822B808304C080812095B7
:1019400028232083CE01202F01972FEF8F3F92076E
:10195000D9F7330F4F5F5F4F48305105F1F61B96B3
:10196000ED91FC911C9780811A969C91892B808324
:101970001FBF82E790E020E001972FEF8F3F920793
:10198000D9F70BC01396ED91FC911497A081B1810A
:101990002D913C91CF01F9011995DF91CF911F91C4
:1019A0000F9108950F931F938C01CA0123EC33E02C
:1019B000F8013183208354834383658321E02283AC
:1019C00040E05BE460E070E00E94511BC8010E94AF
:1019D000910B1F910F910895AF92BF92CF92DF921A
:1019E000EF92FF920F931F93DF93CF930F92CDB798
:1019F000DEB78C01962F603108F09FE0F8018581F9
:101A00009817D9F07801AA24BB24C92EDD24B60189
:101A10000A2C02C0759567950A94E2F76170F70188
:101A200081917F0199830E9409230894A11CB11C14
:101A30009981F4E0AF16B10451F7F80195830F9046
:101A4000CF91DF911F910F91FF90EF90DF90CF909A
:101A5000BF90AF9008950F931F938C010E94EC0CE0
:101A6000F80184810E94AF221F910F910895EF9297
:101A70000F931F93CF93DF93EC01688349832A83ED
:101A80000B83EC8200E010E0FE01E00FF11F80818B
:101A900061E00E94E3220F5F1F4F04301105A1F7A0
:101AA0008C8160E00E94E3228C8160E00E94092327
:101AB000CE0160E00E94EC0CDF91CF911F910F915D
:101AC000EF9008950F931F93CF93DF93EC01062FB0
:101AD000617089890E9409230695602F61708A8947
:101AE0000E9409230695602F61708B890E9409234B
:101AF00010E0159507950170639689816397602FB3
:101B00000E940923088599859F3F19F08A858111D4
:101B1000092F802F61E00E940923802F60E00E943E
:101B20000923DF91CF911F910F910895FC018781C7
:101B30008F3F41F484819581892B21F484E59BE0DA
:101B40000E9443220895EF92FF920F931F93CF9329
:101B5000DF93EC01062FE42EF88499859F3F19F05E
:101B60008A858111F92E8F818F3F61F4EC81FD818F
:101B7000309719F08A85199547C080E491E00E945A
:101B8000432242C0898960E00E94E3228A8960E0A2
:101B90000E94E3228B8960E00E94E3228C8960E04E
:101BA0000E94E3228F8161E00E9409238E8160E020
:101BB0000E9409238F2D61E00E9409238C890E94D5
:101BC0009A23182F8F2D60E00E9409238F2D61E04A
:101BD0000E9409238F2D60E00E940923113051F3E8
:101BE000898961E00E94E3228A8961E00E94E32200
:101BF0008B8961E00E94E3228C8961E00E94E322EC
:101C00008F8160E00E9409238E816E2D0E9409233E
:101C1000602F607189890E940923602F60728A8910
:101C20000E940923602F60748B890E940923602F12
:101C300060788C890E9409238F2D61E00E9409231E
:101C40008F2D60E00E940923602F617089890E94B6
:101C50000923602F62708A890E940923602F6470B3
:101C60008B890E94092308708C89602F0E940923A8
:101C70008F2D61E00E9409238F2D60E00E940923CF
:101C8000DF91CF911F910F91FF90EF9008950F93E7
:101C90001F93CF93DF93EC01062F89858F3F29F4A3
:101CA000CE0140E00E94A30D0EC01A851A86CE0117
:101CB00040E00E94A30D82E08A87CE01602F40E0C1
:101CC0000E94A30D1A87DF91CF911F910F91089564
:101CD00040E00E94A30D0895FF920F931F93CF93AE
:101CE000DF93EC01042F8E89841710F4082F015024
:101CF0000D876C871E86202F30E0FE01E20FF31F58
:101D0000F7881B85160F8F2D8F73180F18320CF064
:101D1000185217FD185D8A8590E022703070821786
:101D2000930769F06B8D647F6860CE010E94680E36
:101D300002700A876B8D6860CE010E94680E80E495
:101D4000F8221F291068CE01612F0E94680EDF91D2
:101D5000CF911F910F91FF9008950F931F938C01C6
:101D6000FC01638D6460638F647F68600E94470E2E
:101D7000F801638D6860C8010E94680E1F910F9181
:101D80000895CF93DF93EC0189858F3FA1F082E026
:101D90008A87CE0161E00E94680E1A86CE0161E05A
:101DA0000E94680ECE010E94960DCE0160E040E0D8
:101DB0000E946C0E07C0CE0161E00E94680ECE0149
:101DC0000E94960D1B86DF91CF910895FF920F938D
:101DD0001F93CF93DF93EC01F02E423010F008E018
:101DE00001C000E0222319F0413009F4046010E042
:101DF0008CE49DE10E9443221F5F1231C9F78E815E
:101E000060E00E9409238F2D60E00E9409238E81EB
:101E100060E00E940923CE0163E00E94620D88E821
:101E200093E10E944322CE0163E00E94620D86E9A5
:101E300090E00E944322CE0163E00E94620D86E999
:101E400090E00E944322CE0162E00E94620D86E98A
:101E500090E00E9443220062CE01602F0E94680E33
:101E600084E08B8FCE010E94AD0ECE010E94C10E88
:101E700082E08C8FCE0166E00E94680EDF91CF91E8
:101E80001F910F91FF900895EF92FF920F931F9370
:101E9000CF93DF93EC01162FF42EE22E6D8B6B8324
:101EA0004E8B4A838F89860F898F888D860F8A8F04
:101EB000CE0108850E94E60E09850F3F59F0198E64
:101EC00080E48A8F82E08A87CE01612F4F2D2E2DEC
:101ED0000E94E60EDF91CF911F910F91FF90EF903E
:101EE00008956F927F928F92AF92CF92EF920F935D
:101EF0001F93DF93CF93CDB7DEB73C01142F8E2D08
:101F0000F30166839FEF97831582148220870187F0
:101F1000128613861486158616861786E18AC28A6B
:101F2000A38A848A61E00E94E3228C2D61E00E94F2
:101F3000E3228A2D61E00E94E322882D61E00E9465
:101F4000E322F301178A80E4808F84E1818F84E5A6
:101F5000828F868161E00E94E3221F3F41F0812F42
:101F600061E00E94E322812F60E00E940923F301D7
:101F7000808561E00E94E3220F3F21F0802F61E025
:101F80000E94E322C30164E141E020E00E94440F8B
:101F90008E859F85F301958384831783CF91DF918D
:101FA0001F910F91EF90CF90AF908F907F906F9097
:101FB00008958F92AF92CF92EF920F93FC01302F42
:101FC0005E2D7C2D8A2C8BEC93E0918380830F9285
:101FD0000F92ADB7BEB712961C921E921197CF0109
:101FE0000FEFE32EC52EA72E0E94710F0F900F90BA
:101FF0000F91EF90CF90AF908F9008951F93CF9354
:10200000DF93EC01162F8B85882319F48E858823A6
:1020100029F0CE016C854D850E946C0E1D3039F083
:102020001A3029F0CE01612F41E00E94A30D1E86D7
:102030008F852C85882371F42F5F2C871D3041F00C
:10204000332727FD30958D8990E02817390784F0D4
:102050001C8609C021502C871A3011F027FF08C0B8
:102060008D8981508C878D858F5F8D8781E08E87EC
:102070002D85332727FD30958E8990E02817390765
:102080000CF01D86DF91CF911F910895FC017283A2
:10209000618313AA108281E08383148215821682E1
:1020A00017820895AF92BF92CF92DF92EF92FF9284
:1020B0000F931F937A018B010E94E9215B016C0150
:1020C000AE0CBF1CC01ED11E0E94E9216A157B0503
:1020D0008C059D05A0F481E497E00E94421C892BA9
:1020E00071F4F2CF81E497E00E94701C1F910F9170
:1020F000FF90EF90DF90CF90BF90AF90089581E474
:1021000097E00E94421C892B69F780E0EFCFEF92A5
:10211000FF920F931F93CF93DF93EC018CE38C8B93
:102120008EE38AAB09811A8107581F4FF80160813D
:1021300071818281938120E030E048EC52E40E947A
:10214000080320E030E040E050E00E94DE04181672
:1021500054F4F801608171818281938120E030E044
:1021600048EC52E409C0F801608171818281938159
:1021700020E030E048EC52EC0E9408030E9432015B
:102180007F8B6E8B09811A810E561F4FF80160817B
:1021900071818281938120E030E048EC52E40E941A
:1021A000080320E030E040E050E00E94DE04181612
:1021B00054F4F801608171818281938120E030E0E4
:1021C00048EC52E409C0F8016081718182819381F9
:1021D00020E030E048EC52EC0E9408030E943201FB
:1021E000798F688FE981FA81E656FF4F80818A8F67
:1021F000329680818B8FF49780819181A281B38107
:10220000181619061A061B062CF42081318142810A
:1022100053810BC080819181A281B3812227332712
:10222000A901281B390B4A0B5B0B2C8F3D8F4E8F5E
:102230005F8FE981FA81EF57FF4F80819181A28101
:10224000B381181619061A061B062CF42081318159
:10225000428153810BC080819181A281B381222769
:102260003327A901281B390B4A0B5B0B28A339A381
:102270004AA35BA3E981FA81E284F384048515858E
:10228000C801B70120E030E040E050E00E94DE04E9
:1022900018163CF4C801B70120E030E04AE754E4E6
:1022A00006C0C801B70120E030E04AE754EC0E94C4
:1022B00008030E9432017DA36CA3E981FA81E684C0
:1022C000F78400891189C801B70120E030E040E0BF
:1022D00050E00E94DE0418163CF4C801B70120E06B
:1022E00030E04AE754E406C0C801B70120E030E01E
:1022F0004AE754EC0E9408030E9432017FA36EA3B8
:1023000089819A810E94FE0920E030E048EC52E485
:102310000E9408030E94FC0579A768A789819A8119
:102320000E94E50920E030E048EC52E40E940803F6
:102330000E94FC057BA76AA789819A8105960E9465
:10234000FE0920E030E048EC52E40E9408030E94BD
:10235000FC057DA76CA789819A8105960E94E509F5
:1023600020E030E048EC52E40E9408030E94FC05A3
:102370007FA76EA789819A8142960E94A62488AB86
:1023800089819A8145960E94A62489AB1D8AE9819C
:10239000FA81E758FF4F608171818281938100E06B
:1023A00020E030E040E050E00E940E0588230CF071
:1023B00001E00D8BE980FA8022E930E0E20EF31EA5
:1023C000F70160817181828193812EE63FEFE20EF9
:1023D000F31E20E030E040E050E00E940E05182F90
:1023E0001095111F1127111F110F102B1D8BF701B5
:1023F000628573858485958520E030E040E050E07B
:102400000E940E05082F0095001F0027001F000FD7
:10241000000F012B0D8BF7016685778580899189E7
:1024200020E030E040E050E00E940E058095881FDB
:102430008827881F880F880F880F802B8D8B28E6B0
:1024400030E0E20EF31EF701208131814281538199
:102450002095309540955095222757FD2395332799
:10246000442755272295207F282B2D8B89E190E04A
:10247000E80EF91EF70180819181A281B3818095D8
:102480009095A095B0958827B7FD83959927AA27A1
:10249000BB278295880F807E822B8D8B2C892CAB5D
:1024A0008DAB8F898EAB8E898FAB898D88AF888DF0
:1024B00089AF8A8D8AAF8B8D8BAF8C8D9D8DAE8DC4
:1024C000BF8D2B2F3327442755272CAF9D01442741
:1024D00055272DAF892F9A2FAB2FBB278EAF8C8D11
:1024E0008FAF28A139A14AA15BA1852F9927AA27DF
:1024F000BB27C05CDF4F88832196CA01AA27BB2770
:102500008993232F342F452F55272883C254D04039
:1025100088A1CD5BDF4F8883C354D0408DA1CC5BB5
:10252000DF4F8883C454D0408CA1CB5BDF4F8883BE
:10253000C554D0408FA1CA5BDF4F8883C654D040BA
:102540008EA1C95BDF4F8883C754D04088A599A569
:10255000892F990F990BC85BDF4F8883C854D040EF
:1025600088A5C75BDF4F8883C954D0408AA59BA547
:10257000892F990F990BC65BDF4F8883CA54D040CF
:102580008AA5C55BDF4F8883CB54D0408CA59DA521
:10259000892F990F990BC45BDF4F8883CC54D040AF
:1025A0008EA5C35BDF4F8883CD54D04089A9C25B21
:1025B000DF4F8883CE54D04088A9C15BDF4F88832A
:1025C000CF54D0408AA9C05BDF4F88836C9781E4E9
:1025D00097E0BE014FE150E00E949F1DDF91CF9137
:1025E0001F910F91FF90EF900895BF92CF92DF92CD
:1025F000EF92FF920F931F93DF93CF93CDB7DEB788
:10260000A5970FB6F894DEBF0FBECDBF7C018C013D
:10261000045F1F4FC80160E072E00E9458280097D5
:1026200091F0C7014AEF50E060E070E00E94521064
:10263000D70113961C921397882309F459C281E09D
:1026400013968C9355C2C80163E072E00E9458282B
:10265000009709F444C08E010F5F1F4FA5E0CA2EFA
:10266000D12CCC0EDD1EC7014AEF50E060E070E0D7
:102670000E945210F80181938F01EC15FD0599F726
:10268000D70111960D911C911297798160E02A81F2
:1026900030E0622B732B882777FD8095982F0E945E
:1026A0009E052DEC3CEC4CEC5DE30E940803F80128
:1026B000608F718F828F938F005C1F4F7B8160E0F2
:1026C0002C8130E0622B732B882777FD8095982F23
:1026D0000E949E052DEC3CEC4CEC5DE329C1C80149
:1026E00068E072E00E945828009749F1C70144E66B
:1026F00050E060E070E00E945210182FC70144E6DD
:1027000050E060E070E00E945210082FF7018181D4
:1027100092814296153B08F014EB612F70E00E9405
:10272000FB24D70111968D919C9112974596602FAD
:10273000053B08F064EB70E00E94FB24D9C1C8019E
:102740006DE072E00E945828009709F4A4C08E0141
:102750000B5F1F4FF1E1CF2ED12CCC0EDD1EC70138
:102760004AEF50E060E070E00E945210F80181935F
:102770008F01EC15FD0599F7D70111960D911C916C
:1027800012977D8160E02E8130E0622B732B8827C9
:1027900077FD8095982F0E949E052AE037ED43E251
:1027A0005CE30E940803F80160AB71AB82AB93ABB2
:1027B0007F8160E0288530E0622B732B882777FDCE
:1027C0008095982F0E949E052AE037ED43E25CE356
:1027D0000E940803D801D4966D937D938D939C93AA
:1027E000D797798560E02A8530E0622B732B8827A4
:1027F00077FD8095982F0E949E052AE037ED43E2F1
:102800005CE30E940803F80160AF71AF82AF93AF41
:10281000085A1F4F7B8560E02C8530E0622B732BBC
:10282000882777FD8095982F0E949E052AE037ED36
:1028300043E25CE30E940803D8016D937D938D937E
:102840009D938D017D8560E02E8530E0622B732B9A
:10285000882777FD8095982F0E949E052AE037ED06
:1028600043E25CE30E940803F80161937193819352
:1028700091938F017F8560E0288930E0622B732B74
:10288000882777FD8095982F0E949E052AE037EDD6
:1028900043E25CE34DC0C80162E172E00E94582847
:1028A000009709F44EC08E010F5F1F4FE5E0CE2E5A
:1028B000D12CCC0EDD1EC7014AEF50E060E070E085
:1028C0000E945210F80181938F01EC15FD0599F7D4
:1028D000D70111960D911C91129703581F4F7981C2
:1028E00060E02A8130E0622B732B882777FD80958A
:1028F000982F0E949E0527E137EB41ED58E30E9497
:102900000803F8016083718382839383075E1F4FFE
:102910007B8160E02C8130E0622B732B882777FD70
:102920008095982F0E949E0527E137EB41ED58E3F3
:102930000E940803D8016D937D938D939C93139708
:10294000D7C0C80168E172E00E945828009709F1D9
:10295000C7014AEF50E060E070E00E945210082F7B
:10296000C7014AEF50E060E070E00E945210D701CA
:102970001196ED91FC911297E656FF4F112707FD36
:10298000109501931193992787FD909591838083EA
:10299000AFC0C8016DE172E00E9458280097D9F1DC
:1029A000C7014AEF50E060E070E00E945210B82E7C
:1029B0008E010F5E1F4F75E2C72ED12CCC0EDD1E8F
:1029C000C7014AEF50E060E070E00E945210F80149
:1029D00081938F01EC15FD0599F71DA2D701119682
:1029E000ED91FC911297E056FF4F808191814B2D24
:1029F000453008F044E060E00E946C0ED70111966B
:102A0000ED91FC911297E056FF4F80819181BE01BC
:102A10006F5E7F4F64C0C80162E272E00E94582876
:102A2000009709F45FC081E497E067E272E00E94DA
:102A3000BE1DF701818192810E94FE09AB01BC019C
:102A400081E497E02AE030E00E94511F81E497E0A2
:102A50006EE272E00E94BE1DD70111968D919C918D
:102A600012970E94E509AB01BC0181E497E02AE0DE
:102A700030E00E94511F81E497E067E372E00E941A
:102A8000BE1D81E497E06FE372E00E94BE1DF70176
:102A90008181928105960E94FE09AB01BC0181E40F
:102AA00097E02AE030E00E94511F81E497E06EE257
:102AB00072E00E94BE1DD70111968D919C911297D4
:102AC00005960E94E509AB01BC0181E497E02AE08C
:102AD00030E00E94511F81E497E067E372E00E94BA
:102AE000BE1D06C081E497E066E472E00E94BA1E53
:102AF000F70113AA80E090E294878F5F31968830C7
:102B0000D9F7A5960FB6F894DEBF0FBECDBFCF9113
:102B1000DF911F910F91FF90EF90DF90CF90BF90CA
:102B20000895EF92FF920F931F93CF93DF93EC01E1
:102B30008B818823F1F1E884F9840A851B850E9442
:102B4000E921E61AF70A080B190B29E2E216F1044B
:102B50000105110570F1CE010E9487102AC00E9464
:102B6000E9216C837D838E839F8381E497E00E94BB
:102B7000701C8A3349F41BAAFE0180E014878F5F22
:102B800031968830D9F716C0813219F09BA9973059
:102B900048F08BA9FE01E80FF11D1486CE010E94BA
:102BA000F51208C0FE01E90FF11D84879F5F9BAB02
:102BB00001C010E281E497E00E94421C892B79F663
:102BC0000E94E921E0E02C813D814E815F81621B02
:102BD000730B840B950B695E73408040904008F442
:102BE000E1E0E883DF91CF911F910F91FF90EF908B
:102BF0000895CF92DF92EF92FF920F931F938C0173
:102C00006A017B01FC016081718182819381248151
:102C1000358146815781621B730B840B950B0E9493
:102C20009E05F801258936894789508D0E94080341
:102C3000A70196010E940204F801618B728B838BBD
:102C4000948B80819181A281B38184839583A683B3
:102C5000B7831F910F91FF90EF90DF90CF90089571
:102C60006F927F928F929F92AF92CF92EF92FF924C
:102C70000F931F93FBEF8F2EF3E09F2EC4010E9452
:102C8000470AC40105960E94470AC40142960E9461
:102C90002624C40145960E942624EDE96E2EE4E028
:102CA0007E2EC3016AE14BE12CE10DE1EE240E948E
:102CB000370D83EA94E06EE14FE120E201E272E237
:102CC000E72E53E2C52E34E2A32E0E94D90FB401A1
:102CD000685E7F4F80EC94E00E94260982EC94E0CD
:102CE0006BE374E00E94260984EC94E0B3014EE0AB
:102CF0002FE00F2EF8E5EF2EF0EAFF2EFBE00F2F6E
:102D0000FDE31F2FF02D0E945C0A81ED94E060E846
:102D10004AE757E00E94D20C8EED94E0B4010E9485
:102D200046101F910F91FF90EF90CF90AF909F9022
:102D30008F907F906F9008952F923F924F925F9265
:102D40006F927F928F929F92AF92BF92CF92DF92BB
:102D5000EF92FF920F931F93DF93CF93CDB7DEB720
:102D6000AA970FB6F894DEBF0FBECDBFE0907404F3
:102D7000F09075040091760410917704A0908D0472
:102D8000B0908E04C0908F04D09090048DE094E0B9
:102D90000E94A6244C0180E194E00E94A6242DB755
:102DA0003EB7205130400FB6F8943EBF0FBE2DBF46
:102DB000EDB7FEB7319621E030E02C0F3D1FADB7E7
:102DC000BEB712963C932E93119726E532E03383DB
:102DD0002283E482F58206831783A086B186C286A9
:102DE000D38695868486978786870E947228A6E177
:102DF0002A2E312C2C0E3D1E8DB79EB740960FB655
:102E0000F8949EBF0FBE8DBF0BEF13E0C8010E9468
:102E1000FE092B013C01C8010E94E5094B015C0140
:102E20000B5F1F4FC8010E94FE096B017C01C801A6
:102E30000E94E509ADB7BEB754970FB6F894BEBF70
:102E40000FBEADBFEDB7FEB7319612963C922E92F3
:102E5000119728E832E033832283448255826682C8
:102E6000778280869186A286B386C486D586E686DA
:102E7000F786608B718B828B938B0E9472281D8AE0
:102E80001AA62DB73EB72C5E3F4F0FB6F8943EBF43
:102E90000FBE2DBF03EA14E0C80160E040E00E94CD
:102EA0006C0EC801BE016F5F7F4F0E94BE1DC8013E
:102EB00060E041E00E946C0EC801B1010E94BE1D9D
:102EC000AA960FB6F894DEBF0FBECDBFCF91DF91AB
:102ED0001F910F91FF90EF90DF90CF90BF90AF9038
:102EE0009F908F907F906F905F904F903F902F902A
:102EF00008958F929F92AF92BF92CF92DF92EF92FE
:102F0000FF920F931F93DF93CF9300D00F92CDB713
:102F1000DEB70E944D2281E497E040E052EC61E090
:102F200070E00E94511B8BEF93E060E070E04FE097
:102F30002EE00E94170A80E094E060E070E04DE02F
:102F40002CE00E94170A8DE094E06AE570E00E9490
:102F5000FB248DE094E068E170E00E940F2680E1A0
:102F600094E06AE570E00E94FB2480E194E069E16E
:102F700070E00E940F2603EA14E0C80164E144E017
:102F800020E00E94440FC8010E94C10E10939C04CF
:102F900000939B040F2EFAE9AF2EF9E9BF2EF9E951
:102FA000CF2EFEE3DF2EF02DA0922B04B0922C0446
:102FB000C0922D04D0922E040F2EFDECEF2EFCECCF
:102FC000FF2EFCE40F2FFDE31F2FF02DE0922F04C6
:102FD000F0923004009331041093320420E030E08A
:102FE00040E050E0209333043093340440933504A0
:102FF0005093360480E090E0AEEFB2E48093370463
:1030000090933804A0933904B0933A04A0925304E7
:10301000B0925404C0925504D0925604E0925704E2
:10302000F09258040093590410935A0420935B04BF
:1030300030935C0440935D0450935E0480935F047E
:1030400090936004A0936104B09362048FE692E1D0
:10305000A3E8BBE38093780490937904A0937A0467
:10306000B0937B048093910490939204A093930473
:10307000B093940481E08093990410929A0483E0C1
:10308000898388E08A8382E08B8387E08C837E015A
:103090000894E11CF11C05E0C02ED12CCC0EDD1EE5
:1030A000F70111917F01812F60E00E94E322812FBF
:1030B00060E00E940923EC14FD0491F780E061E3D5
:1030C0007AE143E050E00E94541F81E067EE79E12D
:1030D00043E050E00E94541F87E161E00E94E32238
:1030E00087E161E00E94092384EC94E068EE73E0DC
:1030F00040E00E94CE0A11E0812E912C8EED94E0EA
:103100000E9491150E94E9216093F3037093F403E8
:103110008093F5039093F6032091F7033091F80321
:103120004091F9035091FA036217730784079507DA
:1031300020F18091DE04882359F060B170E076952B
:10314000679568257925617087E10E94092301C090
:1031500011988091F3039091F403A091F503B0913D
:10316000F6038C509E4FAF4FBF4F8093F703909361
:10317000F803A093F903B093FA032091EF03309181
:10318000F0034091F1035091F2036091F3037091C9
:10319000F4038091F5039091F60362177307840797
:1031A000950708F4ABCF6C597F4F8F4F9F4F621B31
:1031B000730B840B950B0E9450062FE632E143E817
:1031C0005AE30E9408039B01AC01D62EC32E5A017C
:1031D00084EC94E065E074E00E94A50AE0900504A8
:1031E000F09006040091070410910804C801B7018B
:1031F00020E030E040E050E00E94DE0418165CF46D
:10320000C801B7012FE632E143E85AE30E946E0598
:10321000181694F10AC0C801B7012FE632E143E85D
:103220005AEB0E940E0588233CF1609113047091C3
:103230001404809115049091160420E030E040E0E1
:1032400050E00E94AE048823B9F460913B04709171
:103250003C0480913D0490913E0420E030E040E049
:1032600050E00E94AE04882339F484EC94E068EEC8
:1032700073E041E00E94CE0A83E694E02D2D3C2DC0
:10328000A901B5010E94F9158CE794E02D2D3C2D84
:10329000A901B5010E94F91540917404509175047B
:1032A000609176047091770480EC94E00E942A0982
:1032B00040918D0450918E0460918F047091900420
:1032C00082EC94E00E942A0980EC94E02D2D3C2DA4
:1032D000A901B5010E943E0982EC94E02D2D3C2D00
:1032E000A901B5010E943E09609195047091960470
:1032F000882777FD8095982F0E949E057B018C0181
:1033000080EC94E00E9433099B01AC01C801B70135
:103310000E94DB020E94FC05709396046093950462
:103320006091970470919804882777FD8095982F75
:103330000E949E057B018C0182EC94E00E9433097F
:103340009B01AC0180919504909196048038910581
:1033500014F08FE790E0FFEF81389F0714F481E8C5
:103360009FEF9093960480939504C801B7010E9443
:10337000DB020E94FC056038710514F06FE770E015
:103380008FEF6138780714F461E87FEF7093980449
:103390006093970481ED94E065E974E00E94420C2B
:1033A0000E949C168091F3039091F403A091F50381
:1033B000B091F6038C599F4FAF4FBF4F8093EF03EF
:1033C0009093F003A093F103B093F20397CE809112
:1033D000A000877F8093A000809100018295869550
:1033E00087708095817080938C0420917C0430914B
:1033F0007D0440917E0450917F0480918C04882349
:1034000029F48FEF9FEFAFEFBFEF04C081E090E0B2
:10341000A0E0B0E0820F931FA41FB51F80937C042F
:1034200090937D04A0937E04B0937F0480918404E4
:1034300090918504A0918604B091870480938804BC
:1034400090938904A0938A04B0938B040E94F7217F
:10345000609384047093850480938604909387041A
:1034600008958091A0008F7D8093A000809100013D
:1034700082958F708095817080937304209163048E
:103480003091640440916504509166048091730406
:10349000882329F48FEF9FEFAFEFBFEF04C081E0E7
:1034A00090E0A0E0B0E0820F931FA41FB51F8093AF
:1034B000630490936404A0936504B09366048091C0
:1034C0006B0490916C04A0916D04B0916E04809394
:1034D0006F0490937004A0937104B09372040E94DF
:1034E000F72160936B0470936C0480936D04909348
:1034F0006E0408950F931F93CF93DF93482FFB0122
:103500008B0100581F4FD801CD91DC91CE0101965F
:1035100060E870E00E94CB279C01EE57FF4F80814E
:103520009181E258F0402817390731F0CE0FDF1FA4
:103530004883F80131832083DF91CF911F910F9150
:1035400008951F920F920FB60F920BB60F9211248F
:103550002F933F934F935F936F937F938F939F939B
:10356000AF93BF93EF93FF938091C60061E375E043
:103570000E947A1AFF91EF91BF91AF919F918F9125
:103580007F916F915F914F913F912F910F900BBE63
:103590000F900FBE0F901F9018951F920F920FB6AD
:1035A0000F920BB60F9211242F933F934F935F937B
:1035B0006F937F938F939F93AF93BF93EF93FF93FB
:1035C0008091CE0065EB75E00E947A1AFF91EF9131
:1035D000BF91AF919F918F917F916F915F914F912B
:1035E0003F912F910F900BBE0F900FBE0F901F9029
:1035F00018951F920F920FB60F920BB60F921124CF
:103600002F933F934F935F936F937F938F939F93EA
:10361000AF93BF93EF93FF938091D60069E376E079
:103620000E947A1AFF91EF91BF91AF919F918F9174
:103630007F916F915F914F913F912F910F900BBEB2
:103640000F900FBE0F901F9018951F920F920FB6FC
:103650000F920BB60F9211242F933F934F935F93CA
:103660006F937F938F939F93AF93BF93EF93FF934A
:10367000809136016DEB76E00E947A1AFF91EF910E
:10368000BF91AF919F918F917F916F915F914F917A
:103690003F912F910F900BBE0F900FBE0F901F9078
:1036A00018955F926F927F928F929F92AF92BF9286
:1036B000CF92DF92EF92FF920F931F93CF93DF93FE
:1036C000EC015A016B0181E4A81682E4B8068FE090
:1036D000C80680E0D80608F077C060E874E88EE19C
:1036E00090E0A60195010E94DE2739014A01089465
:1036F000610871088108910896948794779467947B
:10370000A40193012F5F3F4F4F4F5F4F74E0220F93
:10371000331F441F551F7A95D1F760E074E284EFA0
:1037200090E00E94DE27CA01B9012FEF30E040E0AF
:1037300050E00E948C27A60195010E94DE278FEFA2
:1037400090E0821B930B181619061CF4522E50940D
:1037500002C0522E539460E079E08DE390E0A60120
:1037600095010E94DE272150304040405040569540
:103770004795379527952F5F3F4F4F4F5F4F93E00A
:10378000220F331F441F551F9A95D1F760E074E252
:1037900084EF90E00E94DE27CA01B9012FEF30E0EC
:1037A00040E050E00E948C27A60195010E94DE2790
:1037B0008FEF90E0821B930B1816190614F42095D6
:1037C00001C02F5F2515F0F4E885F98581E090E0D0
:1037D0000A8802C0880F991F0A94E2F7808360E08C
:1037E00079E08DE390E0A60195010E94DE2721504B
:1037F0003040404050405695479537952795822F49
:10380000232F05C0E885F9851082862D272DEC81B0
:10381000FD812083EE81FF818083EA85FB85208105
:1038200041E050E0CA010E8402C0880F991F0A943B
:10383000E2F7282B2083EA85FB852081CA010F84CB
:1038400002C0880F991F0A94E2F7282B2083EA858B
:10385000FB858081088802C0440F551F0A94E2F757
:10386000842B8083DF91CF911F910F91FF90EF9078
:10387000DF90CF90BF90AF909F908F907F906F9090
:103880005F900895DC011296ED91FC911397E0583A
:10389000FF4F8191919180589F4F20813181821BF0
:1038A000930B60E870E00E94CB270895DC0112962C
:1038B000ED91FC911397EE57FF4F2081318192914A
:1038C0008291E058F0408217930719F42FEF3FEFF1
:1038D00005C0E20FF31F8081282F30E0C901089551
:1038E000CF93DF93DC011296ED91FC911397EF01DA
:1038F000CE57DF4F48815981E058FF4F8081918139
:10390000E058F0408417950719F42FEF3FEF0CC0F3
:10391000E40FF51F2081CA01019660E870E00E9463
:10392000CB279983888330E0C901DF91CF91089537
:10393000DC011296ED91FC911397EE57FF4F8081B9
:103940009181929382930895FC01A085B18521898C
:103950008C9190E0022E02C0959587950A94E2F72B
:1039600080FFF6CF0484F585E02D6083089525ED72
:1039700033E0309342072093410781E395E0909331
:1039800044078093430785EC90E09093460780932B
:10399000450784EC90E0909348078093470780ECBC
:1039A00090E090934A078093490781EC90E09093D0
:1039B0004C0780934B0786EC90E090934E078093E2
:1039C0004D07E4E0E0934F0773E07093500767E022
:1039D0006093510755E05093520741E040935307DD
:1039E000309355072093540785EB95E09093570744
:1039F000809356078DEC90E0909359078093580779
:103A00008CEC90E090935B0780935A0788EC90E0F1
:103A100090935D0780935C0789EC90E090935F073B
:103A200080935E078EEC90E090936107809360072F
:103A3000E093620770936307609364075093650790
:103A400040936607309368072093670789E396E001
:103A500090936A078093690785ED90E090936C07D7
:103A600080936B0784ED90E090936E0780936D07D1
:103A700080ED90E09093700780936F0781ED90E068
:103A8000909372078093710786ED90E0909374078E
:103A900080937307E09375077093760760937707B9
:103AA000509378074093790730937B0720937A07E8
:103AB0008DEB96E090937D0780937C0785E391E002
:103AC00090937F0780937E0784E391E09093810732
:103AD0008093800780E391E090938307809382072F
:103AE00081E391E0909385078093840786E391E0DA
:103AF0009093870780938607E093880770938907E0
:103B000060938A0750938B0740938C0708950F9317
:103B10001F93CF93DF938C01EB0109C02196D8014D
:103B2000ED91FC910190F081E02DC801199568811B
:103B30006623A1F7DF91CF911F910F910895EF9226
:103B4000FF920F931F93CF93DF938C017B01EA01C8
:103B50000CC0D7016D917D01D801ED91FC910190D0
:103B6000F081E02DC80119952197209791F7DF91F9
:103B7000CF911F910F91FF90EF900895DC01ED918F
:103B8000FC910280F381E02D199508952F923F92C8
:103B90004F925F926F927F928F929F92AF92BF925D
:103BA000CF92DF92EF92FF920F931F93DF93CF9309
:103BB000CDB7DEB7A0970FB6F894DEBF0FBECDBF6E
:103BC0001C016A017B01411551056105710549F42C
:103BD00040E350E060E070E020E030E00E946D1EC5
:103BE00054C0882499245401422E552466247724F5
:103BF00001E010E00C0F1D1F080D191DC701B601D3
:103C0000A30192010E94DE27F80160830894811CC1
:103C1000911CA11CB11CC701B601A30192010E9415
:103C2000DE27C901DA016C017D01C114D104E10470
:103C3000F104F1F681E0E82EF12CEC0EFD1EE80C0B
:103C4000F91C3E010894611C711CD501C401019747
:103C5000A109B1096C01C818D90814C0F601EE0D0C
:103C6000FF1D40814A3010F4405D01C0495C50E0C6
:103C700060E070E0C10120E030E00E946D1E089419
:103C8000E108F1086E147F0449F7A0960FB6F89486
:103C9000DEBF0FBECDBFCF91DF911F910F91FF907F
:103CA000EF90DF90CF90BF90AF909F908F907F90DC
:103CB0006F905F904F903F902F900895DC012115F9
:103CC000310541F4ED91FC910190F081E02D642FDC
:103CD000199508950E94C61D0895EF92FF920F93C3
:103CE0001F93CF93DF93EC017A018B0121153105EE
:103CF00041F4E881F9810190F081E02D642F19955C
:103D00001BC02A303105B1F477FF10C04DE250E0FE
:103D100060E070E020E030E00E946D1E109500959C
:103D2000F094E094E11CF11C011D111DCE01B801BD
:103D3000A7012AE00E94C61DDF91CF911F910F912C
:103D4000FF90EF9008950F931F938C014DE050E08A
:103D500060E070E020E030E00E946D1EC8014AE0A3
:103D600050E060E070E020E030E00E946D1E1F91A6
:103D70000F9108950F931F938C010E94BE1DC801DF
:103D80000E94A31E1F910F9108959F92AF92BF9220
:103D9000CF92DF92EF92FF920F931F93CF93DF9317
:103DA000EC017A018B01922ECB01BA0120E030E0C8
:103DB00040E050E00E943E0588236CF4CE014DE2C5
:103DC00050E060E070E020E030E00E946D1E17FBE4
:103DD000109517F9109520E030E040E05FE3AA2449
:103DE0000BC0CA01B90120E030E040E251E40E947A
:103DF00002049B01AC01A394A91498F3C801B70174
:103E00000E94DB025B016C010E9432017B018C018C
:103E1000CE01B801A7012AE030E00E945E1E992081
:103E200029F0CE0164EB72E00E94BE1DC801B7010B
:103E30000E9450069B01AC01C601B5010E94AA0276
:103E400022C020E030E040E251E40E9408037B0100
:103E50008C010E94FC055B016C01CC24B7FCC09472
:103E6000DC2CCE01B601A5012AE030E00E946D1ED7
:103E7000C601B5010E949E059B01AC01C801B701B6
:103E80000E94AA029A949920E1F6DF91CF911F91A6
:103E90000F91FF90EF90DF90CF90BF90AF909F90E9
:103EA00008950E94C51E0895883008F078C0E82F54
:103EB000F0E0EE0FFF1FE357F84F7183608383300C
:103EC000D9F0843030F4813009F444C0823060F499
:103ED00039C0853051F18530D8F0863009F446C0BC
:103EE000873009F05CC04FC0809169008C7F842BC3
:103EF00080936900E89A089580916900440F551FE6
:103F0000440F551F837F842B80936900E99A08959D
:103F10008091690074E0440F551F7A95E1F78F7C1A
:103F2000842B80936900EA9A08958091690066E085
:103F3000440F551F6A95E1F78F73842B80936900B6
:103F4000EB9A089580916A008C7F842B80936A009D
:103F5000EC9A089580916A00440F551F440F551F35
:103F6000837F842B80936A00ED9A089580916A0084
:103F700024E0440F551F2A95E1F78F7C842B809312
:103F80006A00EE9A089580916A0096E0440F551FEA
:103F90009A95E1F78F73842B80936A00EF9A0895C6
:103FA0001F920F920FB60F920BB60F9211242F9300
:103FB0003F934F935F936F937F938F939F93AF93B1
:103FC000BF93EF93FF938091910790919207892B74
:103FD00029F0E0919107F09192071995FF91EF91E7
:103FE000BF91AF919F918F917F916F915F914F9111
:103FF0003F912F910F900BBE0F900FBE0F901F900F
:1040000018951F920F920FB60F920BB60F921124B4
:104010002F933F934F935F936F937F938F939F93D0
:10402000AF93BF93EF93FF93809193079091940781
:10403000892B29F0E0919307F09194071995FF914E
:10404000EF91BF91AF919F918F917F916F915F9110
:104050004F913F912F910F900BBE0F900FBE0F907D
:104060001F9018951F920F920FB60F920BB60F92DA
:1040700011242F933F934F935F936F937F938F936D
:104080009F93AF93BF93EF93FF9380919507909188
:104090009607892B29F0E0919507F09196071995DD
:1040A000FF91EF91BF91AF919F918F917F916F9110
:1040B0005F914F913F912F910F900BBE0F900FBECC
:1040C0000F901F9018951F920F920FB60F920BB67C
:1040D0000F9211242F933F934F935F936F937F938E
:1040E0008F939F93AF93BF93EF93FF938091970725
:1040F00090919807892B29F0E0919707F091980704
:104100001995FF91EF91BF91AF919F918F917F9101
:104110006F915F914F913F912F910F900BBE0F9038
:104120000FBE0F901F9018951F920F920FB60F920F
:104130000BB60F9211242F933F934F935F936F937E
:104140007F938F939F93AF93BF93EF93FF93809150
:104150008D0790918E07892B29F0E0918D07F091C2
:104160008E071995FF91EF91BF91AF919F918F911C
:104170007F916F915F914F913F912F910F900BBE67
:104180000F900FBE0F901F9018951F920F920FB6B1
:104190000F920BB60F9211242F933F934F935F937F
:1041A0006F937F938F939F93AF93BF93EF93FF93FF
:1041B00080918F0790919007892B29F0E0918F07CC
:1041C000F09190071995FF91EF91BF91AF919F9159
:1041D0008F917F916F915F914F913F912F910F90B0
:1041E0000BBE0F900FBE0F901F9018951F920F924D
:1041F0000FB60F920BB60F9211242F933F934F934C
:104200005F936F937F938F939F93AF93BF93EF933E
:10421000FF938091990790919A07892B29F0E0915B
:104220009907F0919A071995FF91EF91BF91AF917E
:104230009F918F917F916F915F914F913F912F91BE
:104240000F900BBE0F900FBE0F901F9018951F92EE
:104250000F920FB60F920BB60F9211242F933F932C
:104260004F935F936F937F938F939F93AF93BF937E
:10427000EF93FF9380919B0790919C07892B29F0E6
:10428000E0919B07F0919C071995FF91EF91BF91E9
:10429000AF919F918F917F916F915F914F913F91DE
:1042A0002F910F900BBE0F900FBE0F901F9018957F
:1042B0002F923F924F925F926F927F928F929F9236
:1042C000AF92BF92CF92DF92EF92FF920F931F9324
:1042D000DF93CF93CDB7DEB73B014C0119012A0123
:1042E0006E897F89888D998D6A197B098C099D0952
:1042F000621A730A840A950AA40193010E948C270A
:10430000E218F30804091509A80197010E94002882
:104310002A0D3B1D4C1D5D1DB901CA01CF91DF91D6
:104320001F910F91FF90EF90DF90CF90BF90AF90D3
:104330009F908F907F906F905F904F903F902F90C5
:1043400008951F920F920FB60F9211242F933F934F
:104350008F939F93AF93BF938091A1079091A207F2
:10436000A091A307B091A4073091A5070196A11DC4
:10437000B11D232F2D5F2D3720F02D570196A11D44
:10438000B11D2093A5078093A1079093A207A09346
:10439000A307B093A40780919D0790919E07A091D9
:1043A0009F07B091A0070196A11DB11D80939D07A5
:1043B00090939E07A0939F07B093A007BF91AF91E2
:1043C0009F918F913F912F910F900FBE0F901F9053
:1043D00018958FB7F8942091A1073091A2074091CA
:1043E000A3075091A4078FBFB901CA0108959FB7D1
:1043F000F89420919D0730919E0740919F0750911E
:10440000A00786B5A89B06C08F3F21F02F5F3F4FC6
:104410004F4F5F4F9FBF542F432F322F2227280F1C
:10442000311D411D511D82E0220F331F441F551FB6
:104430008A95D1F7B901CA010895EF92FF920F93BF
:104440001F93CF93DF937B018C010E94F721EB0137
:104450000EC00E94F7216C1B7D0B685E7340C8F391
:104460000894E108F10801091109C851DC4FE11471
:10447000F1040105110569F7DF91CF911F910F91AB
:10448000FF90EF900895019739F0880F991F880FDA
:10449000991F02970197F1F70895789484B5826087
:1044A00084BD84B5816084BD85B5826085BD85B5D8
:1044B000816085BDEEE6F0E0808181608083E1E887
:1044C000F0E01082808182608083808181608083BF
:1044D000E0E8F0E0808181608083E1EBF0E08081C2
:1044E00084608083E0EBF0E0808181608083E1E99B
:1044F000F0E0808182608083808181608083E1EA56
:10450000F0E0808182608083808181608083E1E24D
:10451000F1E0808182608083808181608083E0E936
:10452000F0E0808181608083E0EAF0E0808181605A
:104530008083E0E2F1E0808181608083EAE7F0E05F
:1045400080818460808380818260808380818160BB
:1045500080838081806880831092C1000895382F05
:10456000863308F0365320917B00832F86958695FD
:10457000869590E08170907043E0880F991F4A956E
:10458000E1F7277F282B20937B0037708091BE03B3
:104590008295880F880F807C832B80937C0080918C
:1045A0007A00806480937A0080917A0086FDFCCF47
:1045B0002091780040917900942F80E030E0282B02
:1045C000392BC9010895482F50E0CA0188589E4FE1
:1045D000FC0124914E5C5E4FFA0184918823C1F066
:1045E000E82FF0E0EE0FFF1FEC51FF4FA591B491C3
:1045F000662341F49FB7F8948C91209582238C9385
:104600009FBF08959FB7F8948C91822B8C939FBF86
:104610000895482F50E0CA0182549E4FFC01249116
:10462000CA0188589E4FFC0134914E5C5E4FFA01DE
:104630009491992309F47DC0222309F462C02330A8
:1046400021F4809180008F7705C0243031F480916F
:1046500080008F7D8093800054C0213019F484B590
:104660008F7704C0223021F484B58F7D84BD49C08A
:10467000263021F48091B0008F7705C0273031F4C7
:104680008091B0008F7D8093B0003BC0283021F432
:10469000809190008F7705C0293031F4809190008F
:1046A0008F7D809390002DC02A3021F4809190005E
:1046B000877FF7CF2B3021F48091A0008F770BC03C
:1046C0002C3021F48091A0008F7D05C02D3031F475
:1046D0008091A000877F8093A00013C02E3021F42A
:1046E000809120018F770BC02F3021F48091200121
:1046F0008F7D05C0203129F480912001877F809330
:104700002001E92FF0E0EE0FFF1FE250FF4FA591CF
:10471000B491662341F49FB7F8948C91309583232C
:104720008C939FBF08959FB7F8948C91832B8C93A3
:104730009FBF0895682F70E0CB0182549E4FFC010B
:104740002491CB0188589E4FFC0144916E5C7E4FB2
:10475000FB019491992319F420E030E075C02223E5
:1047600009F462C0233021F4809180008F7705C066
:10477000243031F4809180008F7D8093800054C07C
:10478000213019F484B58F7704C0223021F484B528
:104790008F7D84BD49C0263021F48091B0008F7791
:1047A00005C0273031F48091B0008F7D8093B00038
:1047B0003BC0283021F4809190008F7705C02930CC
:1047C00031F4809190008F7D809390002DC02A302D
:1047D00021F480919000877FF7CF2B3021F48091D6
:1047E000A0008F770BC02C3021F48091A0008F7D2A
:1047F00005C02D3031F48091A000877F8093A00008
:1048000013C02E3021F4809120018F770BC02F3000
:1048100021F4809120018F7D05C0203129F4809101
:104820002001877F80932001892F90E0880F991FB6
:10483000885E9E4FFC01A591B4918C9120E030E000
:10484000842311F021E030E0C9010895FC0180913A
:10485000A607803390F480838F5F8093A6078150F2
:1048600090E0FC01EE0FFF1FE80FF91FE955F84F2C
:1048700088EB9BE09283818308958FEF8083089576
:10488000FC012081203308F041C08181992787FDF8
:10489000909548E850E0481B590B440F551F440FB2
:1048A000551F6417750784F08281992787FD9095BD
:1048B00048E552E0481B590B440F551F440F551F44
:1048C000641775070CF4AB0142505040CA01AA2787
:1048D00097FDA095BA2F44E0880F991FAA1FBB1F10
:1048E0004A95D1F733E0B695A795979587953A9570
:1048F000D1F74FB7F89430E0F901EE0FFF1FE20F48
:10490000F31FE955F84F928381834FBF0895FC014F
:1049100080818F3F19F420E030E016C090E0FC0168
:10492000EE0FFF1FE80FF91FE955F84F2181328183
:1049300083E0220F331F8A95E1F7B4E0369527957F
:10494000BA95E1F72E5F3F4FC9010895AF92BF922C
:10495000CF92DF92EF92FF920F931F938C010E94F0
:10496000872400D00F920196AA2797FDA095BA2F11
:10497000F8016181772767FD709528E830E0261BF4
:10498000370B220F331F220F331F442737FD40956B
:10499000542F6281772767FD7095E8E5EE2EE2E0FF
:1049A000FE2EE61AF70AEE0CFF1CEE0CFF1C002789
:1049B000F7FC0095102F64EBA62EB12CC12CD12C46
:1049C000EDB7FEB7A182B282C382D482BC01CD0111
:1049D000AA24BB2465010E9458210F900F900F90CC
:1049E0000F90CB011F910F91FF90EF90DF90CF9030
:1049F000BF90AF900895AF92BF92CF92DF92EF92A7
:104A0000FF920F931F93CF93DF93EC019B0182E002
:104A1000603278070CF048C077FF03C020E030E038
:104A200005C0653B710514F024EB30E000D00F9217
:104A3000B901882777FD8095982F2981332727FD95
:104A40003095B8E8AB2EB12CA21AB30AAA0CBB1C45
:104A5000AA0CBB1CCC24B7FCC094DC2CEA81FF2739
:104A6000E7FDF09528E532E02E1B3F0B220F331FA8
:104A7000220F331F442737FD4095542FEDB7FEB763
:104A8000218332834383548320E030E040E050E0D0
:104A9000E4EBEE2EF12C012D112D0E9458219B01EB
:104AA0000F900F900F900F90CE01B9010E944024FB
:104AB000DF91CF911F910F91FF90EF90DF90CF90FA
:104AC000BF90AF900895CF92DF92EF92FF921F9325
:104AD000CF93DF93EC01162F7A016901888180332F
:104AE00008F090C0862F61E00E94E322888190E068
:104AF000FC01EE0FFF1FE80FF91FE955F84F1F7378
:104B00008081807C812B808380E292E08E199F09D6
:104B100064E070E00E94CB27698380E699E08C19FD
:104B20009D0964E070E00E94CB276A83A8818A2FE8
:104B30006CE00E94AB27682F90E0AC01440F551F3A
:104B4000480F591F440F551F440F551F20E030E0F8
:104B5000C901840F951FFC01EE0FFF1FE80FF91F1D
:104B6000E955F84F808186FD41C02F5F3F4F2C30C3
:104B7000310571F750C01092800082E0809381006F
:104B80001092850010928400B19A80916F0082602B
:104B900080936F002BC0623061F41092900060939C
:104BA0009100109295001092940068BB6093710080
:104BB0001DC0633069F41092A00082E08093A100D0
:104BC0001092A5001092A40089BB809372000EC0C1
:104BD000662361F41092200182E0809321011092FB
:104BE0002501109224018ABB809373008A2F90E0E4
:104BF000FC01EE0FFF1FE80FF91FE955F84F808108
:104C0000806480838881DF91CF911F91FF90EF9026
:104C1000DF90CF900895613009F0BDCFACCF40E276
:104C200052E020E639E00E9463250895EF92FF925A
:104C30000F931F93CF93DF938B017A01C82FD0E09E
:104C4000DE01A95CB74F8C9187FF04C0FB01118284
:104C5000108237C0AE01440F551F4C0F5D1F440F2B
:104C6000551F440F551F2C91332727FD3095240FD6
:104C7000351F8091A60790E02817390714F58C910D
:104C8000992787FD9095840F951FFC01EE0FFF1F5C
:104C9000E80FF91FE955F84F808186FF12C08C910B
:104CA000992787FD9095840F951FFC01EE0FFF1F3C
:104CB000E80FF91FE955F84F80818F7360E00E947B
:104CC0000923DE01A95CB74F8C918F5F8C93AE01F5
:104CD000440F551F4C0F5D1F440F551F440F551FA8
:104CE0002C91332727FD3095240F351F8091A6077F
:104CF00090E0281739070CF04DC08C918C300CF0E7
:104D000049C0F801208131818C91992787FD9095C8
:104D1000840F951FFC01EE0FFF1FE80FF91FE955E7
:104D2000F84F81819281280F391FF7013183208349
:104D30008C91992787FD9095840F951FFC01EE0FAC
:104D4000FF1FE80FF91FE955F84F808186FF29C042
:104D50008C91992787FD9095840F951FFC01EE0F8C
:104D6000FF1FE80FF91FE955F84F80818F7361E04D
:104D70000E94092316C080E49CE904C0F8018081E8
:104D800091810496F70191838083C95CD74F8FEF9F
:104D9000888307C0F8018081918184549C4958F32D
:104DA000EDCFDF91CF911F910F91FF90EF9008957C
:104DB0001F920F920FB60F920BB60F9211242F93E2
:104DC0003F934F935F936F937F938F939F93AF9393
:104DD000BF93EF93FF9380E064E271E048E251E01B
:104DE0000E941626FF91EF91BF91AF919F918F91F5
:104DF0007F916F915F914F913F912F910F900BBEDB
:104E00000F900FBE0F901F9018951F920F920FB624
:104E10000F920BB60F9211242F933F934F935F93F2
:104E20006F937F938F939F93AF93BF93EF93FF9372
:104E300083E064EA70E048EA50E00E941626FF91A1
:104E4000EF91BF91AF919F918F917F916F915F9102
:104E50004F913F912F910F900BBE0F900FBE0F906F
:104E60001F9018951F920F920FB60F920BB60F92CC
:104E700011242F933F934F935F936F937F938F935F
:104E80009F93AF93BF93EF93FF9382E064E970E049
:104E900048E950E00E941626FF91EF91BF91AF9133
:104EA0009F918F917F916F915F914F913F912F9142
:104EB0000F900BBE0F900FBE0F901F9018951F9272
:104EC0000F920FB60F920BB60F9211242F933F93B0
:104ED0004F935F936F937F938F939F93AF93BF9302
:104EE000EF93FF9381E064E870E048E850E00E94AF
:104EF0001626FF91EF91BF91AF919F918F917F9176
:104F00006F915F914F913F912F910F900BBE0F903A
:104F10000FBE0F901F901895629FD001739FF001F4
:104F2000829FE00DF11D649FE00DF11D929FF00D39
:104F3000839FF00D749FF00D659FF00D9927729F70
:104F4000B00DE11DF91F639FB00DE11DF91FBD01FB
:104F5000CF0111240895991B79E004C0991F961779
:104F600008F0961B881F7A95C9F780950895AA1BAB
:104F7000BB1B51E107C0AA1FBB1FA617B70710F044
:104F8000A61BB70B881F991F5A95A9F78095909576
:104F9000BC01CD01089597FB092E07260AD077FDA5
:104FA00004D0E5DF06D000201AF4709561957F4F9C
:104FB0000895F6F7909581959F4F0895A1E21A2ED6
:104FC000AA1BBB1BFD010DC0AA1FBB1FEE1FFF1FAD
:104FD000A217B307E407F50720F0A21BB30BE40BFD
:104FE000F50B661F771F881F991F1A9469F7609544
:104FF0007095809590959B01AC01BD01CF010895FE
:1050000097FB092E05260ED057FD04D0D7DF0AD016
:10501000001C38F450954095309521953F4F4F4FE7
:105020005F4F0895F6F790958095709561957F4F45
:105030008F4F9F4F08952F923F924F925F926F92A2
:105040007F928F929F92AF92BF92CF92DF92EF9218
:10505000FF920F931F93CF93DF93CDB7DEB7CA1B99
:10506000DB0B0FB6F894DEBF0FBECDBF19942A88B4
:10507000398848885F846E847D848C849B84AA846C
:10508000B984C884DF80EE80FD800C811B81AA81F9
:10509000B981CE0FD11D0FB6F894DEBF0FBECDBFC4
:1050A000ED010895EE0FFF1F0590F491E02D199486
:1050B000FB0151915523A9F0BF01DC014D9145172A
:1050C0004111E1F759F4CD010190002049F04D91D3
:1050D00040154111C9F3FB014111EFCF81E090E090
:1050E000019708950F931F93DF93CF93CDB7DEB74A
:1050F0002E970FB6F894DEBF0FBECDBF0E891F8965
:1051000086E08C831A8309838FEF9FE79E838D83CC
:105110009E01265E3F4FCE010196688D798DA901D3
:105120000E94A3282F813885020F131FF8011082D7
:105130002E960FB6F894DEBF0FBECDBFCF91DF9194
:105140001F910F9108952F923F924F925F926F920D
:105150007F928F929F92AF92BF92CF92DF92EF9207
:10516000FF920F931F93DF93CF93CDB7DEB72B97AB
:105170000FB6F894DEBF0FBECDBF3C012B015A0124
:10518000FC0117821682838181FD03C06FEF7FEFE0
:10519000C6C19AE0892E1E010894211C311CF3011E
:1051A0002381F20123FD859123FF81912F01882323
:1051B00009F4B2C1853239F423FD859123FF819131
:1051C0002F01853229F490E0B3010E94BF2AE7CF76
:1051D000982FFF24EE249924FFE1FF15D0F09B3295
:1051E00069F09C3228F4903259F0933291F40EC059
:1051F0009D3249F0903369F441E024C052E0F52A31
:1052000084E0F82A28C098E0F92A25C0E0E1FE2AC7
:1052100022C0F7FC29C0892F80538A3070F4F6FE33
:1052200005C0989C902C1124980E15C0E89CE02C89
:105230001124E80EF0E2FF2A0EC09E3229F4F6FC9B
:105240006BC140E4F42A07C09C3619F450E8F52AF3
:1052500002C0983649F4F20123FD959123FF919104
:105260002F01992309F0B8CF892F8554833018F086
:105270008052833038F444E050E0A40EB51E5FE362
:1052800059830FC0933631F0933779F0933509F095
:1052900056C020C0F5018081898342E050E0A40E11
:1052A000B51E610101E010E012C0F501C080D1809F
:1052B000F6FC03C06FEF7FEF02C0692D70E042E0A3
:1052C00050E0A40EB51EC6010E94B42A8C015FE70F
:1052D000F52214C0F501C080D180F6FC03C06FEF49
:1052E0007FEF02C0692D70E042E050E0A40EB51ED1
:1052F000C6010E94A92A8C0150E8F52AF3FE07C0D6
:105300001AC080E290E0B3010E94BF2AEA948E2D79
:1053100090E008171907A8F30EC0F601F7FC859175
:10532000F7FE81916F0190E0B3010E94BF2AE11066
:10533000EA94015010400115110579F7EAC094363E
:1053400011F0993669F5F7FE08C0F5012081318129
:105350004281538184E090E00AC0F501808191810F
:105360009C01442737FD4095542F82E090E0A80E21
:10537000B91E9FE6F92257FF09C050954095309518
:1053800021953F4F4F4F5F4FE0E8FE2ACA01B90118
:10539000A1012AE030E00E94EB2AD82ED21840C0AA
:1053A000953729F41F2D1F7E2AE030E01DC01F2DE8
:1053B000197F9F3661F0903720F4983509F0ACC022
:1053C0000FC0903739F0983709F0A6C004C028E024
:1053D00030E00AC0106114FD146020E130E004C028
:1053E00014FD166020E132E017FF08C0F50160816E
:1053F00071818281938144E050E008C0F501808191
:105400009181BC0180E090E042E050E0A40EB51E26
:10541000A1010E94EB2AD82ED2188FE7F82EF12294
:10542000F6FE0BC05EEFF522D91438F4F4FE07C087
:10543000F2FC05C08FEEF82202C01D2D01C0192D0F
:10544000F4FE0DC0FE01ED0DF11D8081803319F4D5
:1054500099EEF92208C01F5FF2FE05C003C08F2D30
:10546000867809F01F5F0F2DF3FC14C0F0FE0FC00B
:105470001E1510F09D2C0BC09D2C9E0C911A1E2DFC
:1054800006C080E290E0B3010E94BF2A1F5F1E1594
:10549000C0F304C01E1510F4E11A01C0EE2404FF8D
:1054A0000FC080E390E0B3010E94BF2A02FF1DC03D
:1054B00001FD03C088E790E00EC088E590E00BC0D6
:1054C000802F867891F001FF02C08BE201C080E25C
:1054D000F7FC8DE290E0B3010E94BF2A06C080E392
:1054E00090E0B3010E94BF2A9A94D914C0F3DA94D1
:1054F000F101ED0DF11D808190E0B3010E94BF2A02
:10550000DD20A9F706C080E290E0B3010E94BF2A27
:10551000EA94EE20C1F743CEF30166817781CB0197
:105520002B960FB6F894DEBF0FBECDBFCF91DF91A3
:105530001F910F91FF90EF90DF90CF90BF90AF90B1
:105540009F908F907F906F905F904F903F902F90A3
:105550000895FC010590615070400110D8F78095C6
:1055600090958E0F9F1F0895FC016150704001902F
:105570000110D8F7809590958E0F9F1F08950F9377
:105580001F93CF93DF938C01EB018B8181FF1BC0B5
:1055900082FF0DC02E813F818C819D8128173907A4
:1055A00064F4E881F9810193F983E88306C0E88512
:1055B000F985802F1995892B31F48E819F81019671
:1055C0009F838E8302C00FEF1FEFC801DF91CF9141
:1055D0001F910F910895FA01AA27283051F1203127
:1055E00081F1E8946F936E7F6E5F7F4F8F4F9F4F77
:1055F000AF4FB1E03ED0B4E03CD0670F781F891FB9
:105600009A1FA11D680F791F8A1F911DA11D6A0F86
:10561000711D811D911DA11D20D009F468943F9139
:105620002AE0269F11243019305D3193DEF6CF0138
:105630000895462F4770405D4193B3E00FD0C9F7FE
:10564000F6CF462F4F70405D4A3318F0495D31FD6B
:105650004052419302D0A9F7EACFB4E0A6959795BE
:10566000879577956795BA95C9F700976105710594
:1056700008959B01AC010A2E0694579547953795DE
:105680002795BA95C9F7620F731F841F951FA01D38
:065690000895F894FFCF1D
:105696007373007344525600735345520073504956
:1056A600440073434F4E5600734D4F5400734C499C
:1056B6004E006742415400424154303A2000207661
:1056C6006F6C74732C200020616D70730D0A00429C
:1056D6004154313A2000494E56414C494420434FEB
:1056E6004D4D414E44004C3A20252E303266206303
:1056F6006D2F7320523A20252E30326620636D2F8F
:105706007320503A20256920543A2025692020200C
:105716002020202020202000424154303A20252EEF
:10572600303266562C20252E3032664120424154B6
:10573600313A20252E303266562C20252E30326600
:10574600412020002E0000000000000000000001A3
:105756000202030303030404040404040404050509
:1057660005050505050505050505050505050606E1
:1057760006060606060606060606060606060606C3
:1057860006060606060606060606060606060707B1
:105796000707070707070707070707070707070793
:1057A6000707070707070707070707070707070783
:1057B6000707070707070707070707070707070773
:1057C6000707070707070707070707070707080861
:1057D6000808080808080808080808080808080843
:1057E6000808080808080808080808080808080833
:1057F6000808080808080808080808080808080823
:105806000808080808080808080808080808080812
:105816000808080808080808080808080808080802
:1058260008080808080808080808080808080808F2
:1058360008080808080808080808080808080808E2
:1058460008080808080808080808080808080100E1
:10585600000000420C660C00000000FE0F871D9F32
:105866001D00000000A41C871D9F1D421C701C9873
:045876001C561C00A0
:00000001FF
