:100000000C9463000C946E180C949B180C94690F5C
:100010000C948D0F0C94B10F0C948B000C948B00EE
:100020000C948B000C94C00D0C948B000C944D1C04
:100030000C948B000C948B000C948B000C948B0014
:100040000C9411190C948B000C9471140C948B006B
:100050000C948B000C948B000C948B000C948B00F4
:100060000C948B000C948B000000000024002700EF
:100070002A0000000000250028002B0000000000DE
:1000800023002600290004040404040404040202DA
:100090000202020203030303030301020408102007
:1000A0004080010204081020010204081020000012
:1000B0000007000201000003040600000000000029
:1000C0000000D710141611241FBECFEFD8E0DEBFFA
:1000D000CDBF12E0A0E0B1E0E4EEFBE302C005908A
:1000E0000D92A43AB107D9F714E0A4EAB2E001C036
:1000F0001D92A135B107E1F710E0C6ECD0E004C0D5
:100100002297FE010E94D21DC23CD107C9F70E946E
:10011000ED110C94F01D0C940000EF92FF920F93E0
:100120001F937B018C0120E030E040E05FE40E94FF
:10013000690488238CF0C801B70120E030E040E07A
:100140005FE40E9405020E9457059B01AC0120500C
:1001500030404040504806C0C801B7010E945705D2
:100160009B01AC01B901CA011F910F91FF90EF9063
:100170000895A0E0B0E0EFEBF0E00C94991DDC01F5
:100180002B01FA019C91923008F439C1EB0188816E
:10019000823008F433C1943069F4843009F02FC1FF
:1001A00011969C9111978981981709F428C1A0E7AD
:1001B000B1E025C1843009F421C18230A9F4923024
:1001C00009F01DC19A01AD0188E0EA010990AE0174
:1001D000E90109929E018150C1F7E20189811196DE
:1001E0009C918923818308C1923009F407C112963A
:1001F0002D903C901397EB018A819B811496AD90D2
:10020000BD90CD90DC901797EC80FD800E811F8112
:100210009101281B390BB90137FF04C066277727E6
:10022000621B730B603271050CF061C0121613066D
:100230006CF537014801062E04C096948794779494
:1002400067940A94D2F721E030E040E050E004C027
:10025000220F331F441F551F6A95D2F7215030409B
:10026000404050402E213F2140235123211531058C
:100270004105510521F021E030E040E050E07901F6
:100280008A01E628F728082919293CC0232BD1F137
:10029000260E371E35014601062E04C0969487941B
:1002A000779467940A94D2F721E030E040E050E080
:1002B00004C0220F331F441F551F6A95D2F72150E7
:1002C0003040404050402A213B214C215D212115E6
:1002D00031054105510521F021E030E040E050E0DA
:1002E00059016A01A628B728C828D9280BC0821549
:1002F00093052CF01C01AA24BB24650103C0EE2445
:10030000FF24870111969C91D20111968C91981728
:1003100009F445C0992339F0A80197012A193B092E
:100320004C095D0906C0A60195012E193F09400B35
:10033000510B57FD08C011823382228224833583FA
:10034000468357831DC081E08183338222828827C0
:100350009927DC01821B930BA40BB50B8483958337
:10036000A683B7830DC0220F331F441F551F24835C
:100370003583468357838281938101979383828358
:100380002481358146815781DA01C9010197A1098C
:10039000B1098F5F9F4FAF4FBF4328F30BC09183CD
:1003A00033822282EA0CFB1C0C1D1D1DE482F582A7
:1003B0000683178383E080832481358146815781BA
:1003C00057FF1AC0C901AA2797FDA095BA2F8170BF
:1003D0009070A070B0705695479537952795822BF1
:1003E000932BA42BB52B84839583A683B78382811B
:1003F0009381019693838283DF0101C0D201CD01F5
:10040000CDB7DEB7E2E10C94B51DA0E2B0E0EBE0C1
:10041000F2E00C94A51D69837A838B839C832D83E2
:100420003E834F835887E9E0EE2EF12CEC0EFD1E43
:10043000CE010196B7010E9449078E010F5E1F4F42
:10044000CE010596B8010E9449078A8991E0892763
:100450008A8BC701B801AE01475E5F4F0E94B900A9
:100460000E947306A096E6E00C94C11DA0E2B0E0E5
:10047000ECE3F2E00C94A51D69837A838B839C8363
:100480002D833E834F835887F9E0EF2EF12CEC0E3D
:10049000FD1ECE010196B7010E9449078E010F5E35
:1004A0001F4FCE010596B8010E944907C701B80148
:1004B000AE01475E5F4F0E94B9000E947306A0968E
:1004C000E6E00C94C11DA0E2B0E0E9E6F2E00C9495
:1004D000991D69837A838B839C832D833E834F830D
:1004E0005887CE010196BE01675F7F4F0E94490782
:1004F000CE010596BE016F5E7F4F0E944907998528
:10050000923088F089898230C8F0943019F48230B2
:1005100051F404C0843029F4923081F480E791E0F2
:10052000C6C0923049F420E09A858A89981321E068
:100530002A87CE010996BBC0823049F420E09A8513
:100540008A89981321E02A8BCE014196B0C02D8470
:100550003E844F8458886D887E888F88988CEE24DE
:10056000FF248701AA24BB24650140E050E060E03D
:1005700070E0E0E0F0E0C10181709070892BE9F05B
:10058000E60CF71C081D191D9A01AB012A0D3B1D35
:100590004C1D5D1D80E090E0A0E0B0E0E614F704A3
:1005A0000805190520F481E090E0A0E0B0E0BA0170
:1005B000A901480F591F6A1F7B1FAA0CBB1CCC1C2A
:1005C000DD1C97FE08C081E090E0A0E0B0E0A82A22
:1005D000B92ACA2ADB2A3196E032F10549F0660CC5
:1005E000771C881C991C5694479437942794C3CF42
:1005F000FA85EA892B893C898B859C85280F391FD0
:100600002E5F3F4F17C0CA0181709070892B61F037
:1006100016950795F794E79480E090E0A0E0B0E8A5
:10062000E82AF92A0A2B1B2B76956795579547954B
:100630002F5F3F4F77FDE7CF0CC0440F551F661F5C
:10064000771F17FD4160EE0CFF1C001F111F21508A
:100650003040403090E0590790E0690790E4790716
:1006600060F32B8F3C8FDB01CA018F779070A070F5
:10067000B07080349105A105B10561F447FD0AC051
:10068000E114F1040105110529F0405C5F4F6F4F43
:100690007F4F40781A8EFE1711F081E08A8F4D8FC0
:1006A0005E8F6F8F78A383E0898FCE0149960E9479
:1006B0007306A096E2E10C94B51DA8E1B0E0E3E674
:1006C000F3E00C94A11D69837A838B839C832D8333
:1006D0003E834F835887B9E0EB2EF12CEC0EFD1EC4
:1006E000CE010196B7010E9449078E010F5E1F4F90
:1006F000CE010596B8010E9449072985223008F4E9
:100700007EC03989323010F4B8017CC08A859A895C
:1007100089278A87243011F0223031F4231709F019
:100720006EC060E771E06EC0343039F41D861E86FD
:100730001F86188A1C861B8604C0323021F484E090
:100740008987B7015FC02B853C858B899C89281BD5
:10075000390B3C872B87ED84FE840F851889AD8883
:10076000BE88CF88D88CEA14FB040C051D0540F424
:10077000EE0CFF1C001F111F215030403C872B87BF
:1007800020E030E040E050E080E090E0A0E0B0E425
:1007900060E070E0EA14FB040C051D0540F0282B16
:1007A000392B4A2B5B2BEA18FB080C091D09B6955F
:1007B000A79597958795EE0CFF1C001F111F6F5F83
:1007C0007F4F6F31710531F7DA01C9018F77907072
:1007D000A070B07080349105A105B10561F427FDCA
:1007E0000AC0E114F1040105110529F0205C3F4F16
:1007F0004F4F5F4F20782D873E874F87588BBE0124
:10080000675F7F4FCB010E9473066896EAE00C9405
:10081000BD1DA8E1B0E0EFE0F4E00C94A51D6983F4
:100820007A838B839C832D833E834F83588789E013
:10083000E82EF12CEC0EFD1ECE010196B7010E94B0
:1008400049078E010F5E1F4FCE010596B8010E9429
:1008500049078985823040F08989823028F0C701B4
:10086000B8010E94C10701C081E06896E6E00C94DF
:10087000C11DA8E1B0E0EFE3F4E00C94A51D69838D
:100880007A838B839C832D833E834F83588789E0B3
:10089000E82EF12CEC0EFD1ECE010196B7010E9450
:1008A00049078E010F5E1F4FCE010596B8010E94C9
:1008B00049078985823040F08989823028F0C70154
:1008C000B8010E94C10701C08FEF6896E6E00C9462
:1008D000C11DA8E1B0E0EFE6F4E00C94A51D69832A
:1008E0007A838B839C832D833E834F83588789E053
:1008F000E82EF12CEC0EFD1ECE010196B7010E94F0
:1009000049078E010F5E1F4FCE010596B8010E9468
:1009100049078985823040F08989823028F0C701F3
:10092000B8010E94C10701C08FEF6896E6E00C9401
:10093000C11DA8E1B0E0EFE9F4E00C94A51D6983C6
:100940007A838B839C832D833E834F83588789E0F2
:10095000E82EF12CEC0EFD1ECE010196B7010E948F
:1009600049078E010F5E1F4FCE010596B8010E9408
:1009700049078985823040F08989823028F0C70193
:10098000B8010E94C10701C081E06896E6E00C94BE
:10099000C11DA8E1B0E0EFECF4E00C94A51D698363
:1009A0007A838B839C832D833E834F83588789E092
:1009B000E82EF12CEC0EFD1ECE010196B7010E942F
:1009C00049078E010F5E1F4FCE010596B8010E94A8
:1009D00049078985823040F08989823028F0C70133
:1009E000B8010E94C10701C081E06896E6E00C945E
:1009F000C11DA8E0B0E0EFEFF4E00C94A21D9B0154
:100A0000AC0183E08983DA01C9018827B7FD8395AA
:100A10009927AA27BB27B82E211531054105510575
:100A200019F482E089833AC08823A9F0203080E05D
:100A3000380780E0480780E8580729F460E070E054
:100A400080E09FEC30C0EE24FF248701E21AF30A15
:100A5000040B150B02C079018A018EE1C82ED12C3E
:100A6000DC82CB82ED82FE820F831887C801B7013A
:100A70000E94240601971816190684F4082E04C053
:100A8000EE0CFF1C001F111F0A94D2F7ED82FE82AC
:100A90000F831887C81AD90ADC82CB82BA82CE01AA
:100AA00001960E9473062896E9E00C94BE1DACE006
:100AB000B0E0EDE5F5E00C94A91D69837A838B83A2
:100AC0009C83CE010196BE016B5F7F4F0E94490758
:100AD0008D81823061F1823050F1843021F48E8139
:100AE000882351F12EC02F81388537FD20C06E81BB
:100AF0002F3131051CF06623F9F023C08EE190E020
:100B0000821B930B29853A854B855C8504C05695DD
:100B10004795379527958A95D2F76623B1F050957A
:100B20004095309521953F4F4F4F5F4F0EC020E0CD
:100B300030E040E050E009C02FEF3FEF4FEF5FE7BC
:100B400004C020E030E040E050E8B901CA012C9632
:100B5000E2E00C94C51DA8E0B0E0E1EBF5E00C94F8
:100B6000A11D7B018C01611571058105910519F4A9
:100B700082E0898360C083E089838EE1C82ED12C16
:100B8000DC82CB82ED82FE820F831887C801B70119
:100B90000E942406FC013197F7FF3BC02227332730
:100BA0002E1B3F0B57016801022E04C0D694C79438
:100BB000B794A7940A94D2F740E050E060E070E068
:100BC00081E090E0A0E0B0E004C0880F991FAA1F68
:100BD000BB1F2A95D2F70197A109B1098E219F2148
:100BE000A023B1230097A105B10521F041E050E019
:100BF00060E070E04A295B296C297D294D835E8382
:100C00006F8378878EE190E08E1B9F0B9C838B8394
:100C100012C0309781F00E2E04C0EE0CFF1C001F96
:100C2000111F0A94D2F7ED82FE820F831887CE1A25
:100C3000DF0ADC82CB821A82CE0101960E94730603
:100C40002896EAE00C94BD1DEF92FF920F931F933C
:100C50007B018C0180E0E81680E0F80681E008075F
:100C600080E0180788F48FEFE816F10401051105FC
:100C700031F028F088E090E0A0E0B0E017C080E01C
:100C800090E0A0E0B0E012C080E0E81680E0F80656
:100C900080E0080781E0180728F088E190E0A0E0F4
:100CA000B0E004C080E190E0A0E0B0E020E230E0FD
:100CB00040E050E0281B390B4A0B5B0B04C0169533
:100CC0000795F794E7948A95D2F7F701E858FE4F15
:100CD0008081281B310941095109C9011F910F91D8
:100CE000FF90EF900895DF92EF92FF920F931F9382
:100CF000FC01E480F58006811781D18080818230FB
:100D000058F480E090E0A0E1B0E0E82AF92A0A2B4C
:100D10001B2BEFEFF0E0A6C0843009F49EC08230B8
:100D200019F4E0E0F0E09BC0E114F10401051105C5
:100D300019F4E0E0F0E096C0628173819FEF6238C1
:100D400079070CF05BC022E83FEF261B370B2A31F6
:100D500031052CF020E030E040E050E02AC0B8013E
:100D6000A701022E04C076956795579547950A947A
:100D7000D2F781E090E0A0E0B0E004C0880F991FB6
:100D8000AA1FBB1F2A95D2F70197A109B1098E218D
:100D90009F21A023B1230097A105B10521F081E097
:100DA00090E0A0E0B0E09A01AB01282B392B4A2B50
:100DB0005B2BDA01C9018F779070A070B07080341E
:100DC0009105A105B10539F427FF09C0205C3F4F0B
:100DD0004F4F5F4F04C0215C3F4F4F4F5F4FE0E0EC
:100DE000F0E02030A0E03A07A0E04A07A0E45A076C
:100DF00010F0E1E0F0E079018A0127C06038710568
:100E000064F5FB01E158FF4FD801C7018F7790705F
:100E1000A070B07080349105A105B10539F4E7FEEA
:100E20000DC080E490E0A0E0B0E004C08FE390E06B
:100E3000A0E0B0E0E80EF91E0A1F1B1F17FF05C057
:100E400016950795F794E794319687E016950795E0
:100E5000F794E7948A95D1F705C0EFEFF0E0EE2420
:100E6000FF2487016E2F679566276795902F9F77E0
:100E7000D794DD24D7948E2F8695492F462B582F53
:100E80005D29B701CA011F910F91FF90EF90DF908C
:100E90000895FC01DB01408151812281622F6F772F
:100EA00070E0221F2227221F9381892F880F822B17
:100EB000282F30E0991F9927991F11969C9311971D
:100EC00021153105A9F5411551056105710511F48B
:100ED00082E037C082E89FEF13969C938E9312971F
:100EE0009A01AB0167E0220F331F441F551F6A951B
:100EF000D1F783E08C930DC0220F331F441F551F81
:100F000012968D919C911397019713969C938E93B3
:100F10001297203080E0380780E0480780E45807C7
:100F200058F314962D933D934D935C931797089522
:100F30002F3F310579F4411551056105710519F40B
:100F400084E08C93089564FF03C081E08C9312C009
:100F50001C9210C02F57304013963C932E9312973B
:100F600083E08C9387E0440F551F661F771F8A9597
:100F7000D1F7706414964D935D936D937C9317979E
:100F800008951F93DC01FB019C91923008F447C047
:100F90008081823008F443C0943051F411961C9142
:100FA000843099F58181682F70E0611B71093FC021
:100FB000843021F0923031F48230B9F1818188237C
:100FC00089F12DC011961C9111978230F1F0818129
:100FD0001817D9F412962D913C9113978281938121
:100FE0008217930794F028173907BCF014968D9157
:100FF0009D910D90BC91A02D248135814681578112
:10100000281739074A075B0718F4112341F00AC073
:1010100082179307A407B50740F4112319F061E084
:1010200070E005C06FEF7FEF02C060E070E0CB01C1
:101030001F910895AF92BF92CF92DF92EF92FF92ED
:101040000F931F93DF93CF930F92CDB7DEB78C0131
:10105000962F603108F09FE0F80185819817D9F04C
:101060007801AA24BB24C92EDD24B6010A2C02C0B3
:10107000759567950A94E2F76170F70181917F0198
:1010800099830E94351A0894A11CB11C9981F4E03F
:10109000AF16B10451F7F80195830F90CF91DF910E
:1010A0001F910F91FF90EF90DF90CF90BF90AF9086
:1010B00008950F931F938C010E941A08F8018481F0
:1010C0000E94ED191F910F910895EF920F931F93B6
:1010D000CF93DF93EC01688349832A830B83EC82EF
:1010E00000E010E0FE01E00FF11F808161E00E944E
:1010F0000F1A0F5F1F4F04301105A1F78C8160E0BC
:101100000E940F1A8C8160E00E94351ACE0160E0C7
:101110000E941A08DF91CF911F910F91EF900895CF
:101120008F929F92AF92BF92CF92DF92EF92FF92F7
:101130000F931F93DF93CF93CDB7DEB7FC0173837B
:101140006283558344833783268311870087B7865C
:10115000A686F58AE48AD78AC68A938682868F8590
:101160009889958784878B899C89918B808B8989C5
:101170009A89938B828B14A281E081831082108ED6
:10118000118E128E138ECF91DF911F910F91FF90D0
:10119000EF90DF90CF90BF90AF909F908F90089589
:1011A000AF92BF92CF92DF92EF92FF920F931F9375
:1011B0007A018B010E9456195B016C01AE0CBF1CB9
:1011C000C01ED11E0E9456196A157B058C059D050F
:1011D000A0F48BE094E00E949F15892B71F4F2CF6C
:1011E0008BE094E00E94CD151F910F91FF90EF903E
:1011F000DF90CF90BF90AF9008958BE094E00E9475
:101200009F15892B69F780E0EFCF2F923F924F9285
:101210005F926F927F928F929F92AF92BF92CF9286
:10122000DF92EF92FF920F931F93DF93CF9300D043
:1012300000D0CDB7DEB73C010BE014E0C80160E0A0
:1012400071E00E948516D3011696ED91FC911797D7
:10125000608171818281938120E030E040E251E43D
:101260000E9463020E9457057A836983D30118960E
:10127000ED91FC911997608171818281938120E0C9
:1012800030E040E251E40E9463020E9457051B01D6
:10129000F301868597850E94E60F20E030E048EC58
:1012A00052E40E9463020E9457057C836B83D30142
:1012B0001E968D919C911F970E94D50F20E030E0E3
:1012C00048EC52E40E9463020E9457056B017C01C6
:1012D000D3011296ED91FC91139760817181828107
:1012E000938120E030E040E251E40E9463020E94DA
:1012F00057054B015C01D3011496ED91FC911597B4
:10130000608171818281938120E030E040E251E48C
:101310000E9463020E9457052B013C01E981FA817A
:101320006F2F772767FD7A95C80140E050E00E9453
:101330003417C801698140E050E00E943417632DE2
:10134000772767FD7A95C80140E050E00E94341786
:10135000C801622D40E050E00E9434178B819C81CF
:10136000692F772767FD7A95C80140E050E00E9419
:101370003417C8016B8140E050E00E9434176D2D96
:10138000772767FD7A95C80140E050E00E94341746
:10139000C8016C2D40E050E00E943417692D77277A
:1013A00067FD7A95C80140E050E00E943417C801FB
:1013B000682D40E050E00E943417652D772767FDC7
:1013C0007A95C80140E050E00E943417C801642DAE
:1013D00040E050E00E943417C80162E071E00E94D2
:1013E00085160F900F900F900F90CF91DF911F9166
:1013F0000F91FF90EF90DF90CF90BF90AF909F90B4
:101400008F907F906F905F904F903F902F900895B6
:101410008F929F92AF92BF92CF92DF92EF92FF9204
:101420000F931F93DF93CF9300D000D0CDB7DEB7DB
:101430004C018C01045E1F4FC80164E071E00E9402
:10144000D61D009709F44FC08E010F5F1F4F95E026
:10145000E92EF12CEC0EFD1EC4014AEF50E060E0D5
:1014600070E00E94D008D8018D938D01AE15BF05A4
:1014700099F7F40102811381798160E02A8130E0DB
:10148000622B732B882777FD8095982F0E94F90493
:101490002DEC3CEC4CEC5DE30E946302D8016D93B3
:1014A0007D938D939C931397F401048115817B8127
:1014B00060E02C8130E0622B732B882777FD8095CC
:1014C000982F0E94F9042DEC3CEC4CEC5DE30E945B
:1014D0006302D8016D937D938D939C93139781E064
:1014E000F40181832BC2C80169E071E00E94D61D1E
:1014F000009721F0C4010E94050920C2C8016EE0D6
:1015000071E00E94D61D009709F49DC08BE094E025
:1015100060E071E00E948516D4015496ED91FC9133
:1015200055972081318142815381252F552727FDF1
:101530005095352F452F8BE094E0622F40E050E02E
:101540000E943417D4015496ED91FC915597208157
:101550003181428153819A01552737FD5095452F9E
:101560008BE094E0622F40E050E00E943417D401F9
:101570005496ED91FC9155972081318142815381A0
:10158000232F342F452F552747FD5A958BE094E0A4
:10159000622F40E050E00E943417D4015496ED9140
:1015A000FC9155978BE094E0608140E050E00E9410
:1015B0003417D4015696ED91FC91579720813181D3
:1015C00042815381252F552727FD5095352F452FD3
:1015D0008BE094E0622F40E050E00E943417D40189
:1015E0005696ED91FC91579720813181428153812C
:1015F0009A01552737FD5095452F8BE094E0622FD7
:1016000040E050E00E943417D4015696ED91FC91D1
:1016100057972081318142815381232F342F452FC9
:10162000552747FD5A958BE094E0622F40E050E04B
:101630000E943417D4015696ED91FC9157978BE098
:1016400094E0608152C0C80163E171E00E94D61D40
:10165000009709F453C0D4011696ED91FC911797A9
:10166000608171818281938120E030E040E251E429
:101670000E9463020E9457057B018C01D4011896D9
:10168000ED91FC911997608171818281938120E0B5
:1016900030E040E251E40E9463020E9457055B0182
:1016A0006C018BE094E060E071E00E9485166F2D84
:1016B000772767FD7A958BE094E040E050E00E9448
:1016C00034178BE094E06E2D40E050E00E94341718
:1016D0006B2D772767FD7A958BE094E040E050E032
:1016E0000E9434178BE094E06A2D40E050E00E94A5
:1016F00034178BE094E062E071E017C1C80168E143
:1017000071E00E94D61D009709F1D4011A96ED915F
:10171000FC911B97608171818281938120E030E090
:1017200048EC52E40E9463020E9457057B018C0141
:10173000D4011C96ED91FC911D976081718182818D
:10174000938120E030E048EC52E4A5CFC8016DE180
:1017500071E00E94D61D009719F1F40186859785E6
:101760000E94E60F20E030E048EC52E40E94630261
:101770000E9457057B018C018BE094E060E071E0F2
:101780000E9485166F2D772767FD7A958BE094E090
:1017900040E050E00E9434178BE094E06E2DA5CF1E
:1017A000C80162E271E00E94D61D009729F1D401C0
:1017B00052968D919C9153970E940A1B182FF40109
:1017C000808991890E940A1B082F8BE094E060E0D9
:1017D00071E00E9485168BE094E0612F70E040E09C
:1017E00050E00E947C178BE094E0602F70E040E0B6
:1017F00050E00E947C177DCFC80167E271E00E9433
:10180000D61D009739F1C40144E650E060E070E075
:101810000E94D008182FC40144E650E060E070E058
:101820000E94D008082FD40152968D919C91539715
:10183000153B08F014EB612F70E00E945F1BF40170
:1018400080899189602F053B08F064EB70E00E946D
:101850005F1B74C0C8016CE271E00E94D61D009746
:1018600031F0D4011296ED91FC91139726C0C80176
:1018700061E371E00E94D61D009731F0D401149607
:10188000ED91FC91159719C0C80166E371E00E94C3
:10189000D61D009731F0D4011696ED91FC91179763
:1018A0000CC0C8016BE371E00E94D61D009781F067
:1018B000D4011896ED91FC91199740815181628174
:1018C00073818BE094E02AE030E00E94401836C03B
:1018D000C80160E471E00E94D61D009749F1F4014F
:1018E000868597850E94E60FAB01BC018BE094E0F2
:1018F0002AE030E00E943D188BE094E065E471E05E
:101900000E948516D4011E968D919C911F970E946E
:10191000D50FAB01BC018BE094E02AE030E00E94DF
:101920003D188BE094E06EE471E00E94851606C0DD
:101930008BE094E066E571E00E94A617F40114A222
:1019400080E090E2948F8F5F31968830D9F70F90C6
:101950000F900F900F90CF91DF911F910F91FF90FB
:10196000EF90DF90CF90BF90AF909F908F900895B1
:101970001F93CF93DF93EC0110E229C00E94561908
:10198000688F798F8A8F9B8F8BE094E00E94CD15B2
:101990008A3349F41CA2FE0180E0148F8F5F3196D8
:1019A0008830D9F714C0813219F09CA1973048F0E3
:1019B0008CA1FE01E80FF11D148ECE010E94080AD1
:1019C00006C0FE01E90FF11D848F9F5F9CA38BE091
:1019D00094E00E949F15892B89F60E945619E0E039
:1019E000288D398D4A8D5B8D621B730B840B950B93
:1019F000695E73408040904008F4E1E0E883DF9145
:101A0000CF911F910895CF92DF92EF92FF920F93A3
:101A10001F936B017C01809170008E7F809370001A
:101A20008091B0008C7F8093B0008091B100877F5F
:101A30008093B1008091B6008F7D8093B600809135
:101A400070008D7F809370008091B10084608093DE
:101A5000B1008091B1008C7F8093B100CA01B901BF
:101A600020E034E244E75BE40E94630220E030E0DF
:101A700040E85CE30E9463020E94570520E031E0E9
:101A8000261B370B3093B0022093AF02C114D10450
:101A9000E104F10469F481E090E0A0E0B0E080931B
:101AA000A4029093A502A093A602B093A70208C037
:101AB000C092A402D092A502E092A602F092A702E0
:101AC0001093A9020093A8021F910F91FF90EF902D
:101AD000DF90CF9008951092AA021092AB0210925C
:101AE000AC021092AD021092AE028091AF029091C2
:101AF000B0028093B200E0E7F0E0808181608083F3
:101B000008958091AA029091AB02A091AC02B0918D
:101B1000AD020196A11DB11D8093AA029093AB0264
:101B2000A093AC02B093AD022091AA023091AB0217
:101B30004091AC025091AD028091A4029091A50217
:101B4000A091A602B091A702281739074A075B07A0
:101B5000B0F08091AE02882391F481E08093AE02D0
:101B60001092AA021092AB021092AC021092AD0237
:101B7000E091A802F091A90209951092AE02089591
:101B80001F920F920FB60F9211242F933F934F93F2
:101B90005F936F937F938F939F93AF93BF93EF93D5
:101BA000FF938091AF029091B0028093B2000E94A7
:101BB000810DFF91EF91BF91AF919F918F917F9197
:101BC0006F915F914F913F912F910F900FBE0F90AA
:101BD0001F901895EF92FF920F931F93FC01438380
:101BE0002483E186F2860387148781E082837183F0
:101BF00060831F910F91FF90EF9008950F931F93B3
:101C0000CF93DF93EC018A81882361F088819981E9
:101C10006B810E9459088C01888199816C810E9496
:101C2000590807C08B810E94ED198C018C810E949C
:101C3000ED19081B190BB801882777FD8095982F9F
:101C40000E94F90429853A854B855C850E946302D0
:101C50002D813E814F8158850E940502DF91CF91F1
:101C60001F910F910895AF92BF92CF92DF92EF92A2
:101C7000FF920F931F93CF93DF93EC017B014423DB
:101C800009F056C080E090E0A0E0B0E08D839E8334
:101C9000AF83B887CC24DD243AC08A81882361F0E1
:101CA000888199816B810E9459088C018881998172
:101CB0006C810E94590807C08B810E94ED198C012C
:101CC0008C810E94ED19081B190BB801882777FD3C
:101CD0008095982F0E94F90429853A854B855C856B
:101CE0000E9463029B01AC016D817E818F8198858A
:101CF0000E9436026D837E838F83988761E070E057
:101D000080E090E00E948C190894C11CD11CCE1474
:101D1000DF0418F2B70180E090E00E94AB059B0160
:101D2000AC016D817E818F8198850E945D034FC0DB
:101D300080E090E00E94AB055B016C010894E10833
:101D4000F108B70180E090E00E94AB05A601950183
:101D50000E945D039B01AC016D817E818F8198851E
:101D60000E9463026D837E838F8398878A81882394
:101D700061F0888199816B810E9459088C0188816A
:101D800099816C810E94590807C08B810E94ED19CE
:101D90008C018C810E94ED19081B190BB801882752
:101DA00077FD8095982F0E94F90429853A854B8507
:101DB0005C850E946302A60195010E945D039B0160
:101DC000AC016D817E818F8198850E9436026D8382
:101DD0007E838F839887DF91CF911F910F91FF9022
:101DE000EF90DF90CF90BF90AF9008950F931F9327
:101DF000CF93DF93FC018189A481B5819381082F62
:101E0000027081FF05C08C91892309F454C004C07D
:101E10008C91892309F04FC08185928520E001973C
:101E20002FEF8F3F9207D9F7C385D485A481B58161
:101E3000738160E031E040E050E010E0CE01212FFE
:101E400001972FEF8F3F9207D9F78C91872311F0DD
:101E5000632B03C0832F80956823330F4F5F5F4F41
:101E60004830510559F78585968520E001972FEF79
:101E70008F3F9207D9F7011160958091F30220916D
:101E8000F40290E001968F73907030E08217930710
:101E900079F0E091F302F0E0ED54FD4F6083809122
:101EA000F30290E001968F7390708093F30203C069
:101EB00081898160818BDF91CF911F910F9108956E
:101EC0008091B1029091B202009711F00E94F60E3B
:101ED00008951F920F920FB60F9211242F933F93E4
:101EE0004F935F936F937F938F939F93AF93BF9322
:101EF000EF93FF930E94600FFF91EF91BF91AF911D
:101F00009F918F917F916F915F914F913F912F9111
:101F10000F900FBE0F901F9018951F920F920FB643
:101F20000F9211242F933F934F935F936F937F935F
:101F30008F939F93AF93BF93EF93FF930E94600F94
:101F4000FF91EF91BF91AF919F918F917F916F9191
:101F50005F914F913F912F910F900FBE0F901F9067
:101F600018951F920F920FB60F9211242F933F9343
:101F70004F935F936F937F938F939F93AF93BF9391
:101F8000EF93FF930E94600FFF91EF91BF91AF918C
:101F90009F918F917F916F915F914F913F912F9181
:101FA0000F900FBE0F901F901895FC0181810E9429
:101FB000ED19A0E0B0E0BC01CD010E94AB0524E723
:101FC00039EB48E05EE30E9463020895FC018081E2
:101FD0000E94ED19A0E0B0E0BC01CD010E94AB056C
:101FE00020E030E04DE95DE30E94630208950F9325
:101FF0001F938C01862FF8016083418360E00E946B
:102000000F1AF801818160E00E940F1AF8018081A7
:1020100060E00E94351AF801818160E00E94351A63
:102020001F910F910895609125037091260380916F
:1020300027039091280320912D0330912E03409186
:102040002F0350913003621B730B840B950B0E947E
:10205000F9042CE037E64AEF5EE30E9463026093E6
:102060000503709306038093070390930803609120
:10207000290370912A0380912B0390912C032091C6
:102080003103309132034091330350913403621B8A
:10209000730B840B950B0E94F9042CE037E64AEF92
:1020A0005EE30E9463026093090370930A038093C6
:1020B0000B0390930C038091250390912603A0912C
:1020C0002703B091280380932D0390932E03A093B0
:1020D0002F03B09330038091290390912A03A0919C
:1020E0002B03B0912C038093310390933203A09380
:1020F0003303B0933403089589B190E024E09695BA
:1021000087952A95E1F78170809335032091250307
:102110003091260340912703509128038091350385
:10212000882329F481E090E0A0E0B0E004C08FEFC4
:102130009FEFAFEFBFEF820F931FA41FB51F8093D8
:10214000250390932603A0932703B09328030895B3
:1021500084B58F7D84BD89B190E035E096958795F3
:102160003A95E1F7817080933603209129033091ED
:102170002A0340912B0350912C038091360388232E
:1021800029F481E090E0A0E0B0E004C08FEF9FEF81
:10219000AFEFBFEF820F931FA41FB51F80932903DA
:1021A00090932A03A0932B03B0932C0308958F924E
:1021B0009F92AF92BF92CF92DF92EF92FF920F93D6
:1021C0001F9309E3C02E03E0D02EC6016AE04BE066
:1021D0002CE00DE0EE240E9465081FE3A12E13E021
:1021E000B12EC50161E042E00E94F70F81E493E067
:1021F000B60140E021E00F2EF8E5EF2EF0EAFF2EC9
:10220000FBE00F2FFDE31F2FF02D0E94EA0DB6E536
:10221000EB2EB3E0FB2EC7010E94891A09E513E0FB
:10222000C8010E94891A8CE593E00E94891A8FE503
:1022300093E00E94891A00D000D000D0EDB7FEB71D
:1022400031968EE493E0ADB7BEB712969C938E9311
:102250001197F382E2821583048382E693E06DEFA7
:1022600072E041E053E025E033E009E013E0A5E24D
:10227000EA2EA3E0FA2EF9E2CF2EF3E0DF2EE2E51C
:102280008E2EE3E09E2E0E9490088DB79EB7069694
:102290000FB6F8949EBF0FBE8DBF1F910F91FF9098
:1022A000EF90DF90CF90BF90AF909F908F90089568
:1022B000AF92BF92CF92DF92EF92FF920F931F9354
:1022C000CF93DF93EB012CEF883192072CF428E1B8
:1022D0003CEF4FEF5FEF0BC0E3E0893E9E0714F049
:1022E00088EE93E09C01442737FD4095542F00D0A1
:1022F00000D080ED97E0A0E0B0E0EDB7FEB78183BD
:102300009283A383B483CA01B90128E13CEF4FEF64
:102310005FEFB8EEEB2EB3E0FB2E012D112DA8EEF2
:10232000AA2EA3E0BA2EC12CD12C0E94C8189B0162
:10233000AC010F900F900F900F908CE593E0B901D6
:102340000E94A31AFCEFC831DF072CF428E13CEF10
:102350004FEF5FEF0CC0CE0123E0C93ED20714F06F
:1023600088EE93E09C01442737FD4095542F00D020
:1023700000D080ED97E0A0E0B0E0EDB7FEB781833C
:102380009283A383B483CA01B90128E13CEF4FEFE4
:102390005FEFF8EEEF2EF3E0FF2E012D112DE8EEAA
:1023A000AE2EE3E0BE2EC12CD12C0E94C8189B019A
:1023B000AC010F900F900F900F908FE593E0B90153
:1023C0000E94A31ADF91CF911F910F91FF90EF9080
:1023D000DF90CF90BF90AF9008952F923F924F9291
:1023E0005F926F927F928F929F92AF92BF92CF92A5
:1023F000DF92EF92FF920F931F93DF93CF93CDB7AE
:10240000DEB728970FB6F894DEBF0FBECDBF0E948F
:10241000B2198BE094E040E855E260E070E00E9481
:10242000AE1486E593E06AE570E00E945F1B89E5E3
:1024300093E06AE570E00E945F1B86E593E068E048
:1024400070E00E94461C89E593E069E070E00E941C
:10245000461C61E070E080E090E02FE632E143E06E
:102460005CE303E110E10E94030D0E946B0D83E029
:10247000898385E08A8382E08B8384E08C837E017C
:102480000894E11CF11C15E0C12ED12CCC0EDD1EF0
:10249000D7011D917D01812F60E00E940F1A812FCD
:1024A00060E00E94351AEC14FD0491F780E06CE7BF
:1024B00070E143E050E00E944B1881E068EA70E16F
:1024C00043E050E00E944B188BE094E066E671E038
:1024D0000E94851682E693E00E94B80C0E9456196D
:1024E0006093F9027093FA028093FB029093FC02CE
:1024F0002091F5023091F6024091F7025091F802D6
:10250000621773078407950728F381E493E00E941C
:10251000FE0D7B018C0160935203709353038093F3
:1025200054039093550320E030E048EC52E40E94BD
:1025300063022FE632E143E85AE30E9463029B0103
:10254000AC0160914E0370914F03809150039091C4
:1025500051030E94360260934E0370934F038093A1
:10256000500390935103C801B70120E030E040E0F0
:1025700050E00E94390418165CF4C801B7012FE638
:1025800032E143E85AE30E94C904181694F10AC0E4
:10259000C801B7012FE632E143E85AEB0E94690413
:1025A00088233CF16091FD027091FE028091FF0250
:1025B0009091000320E030E040E050E00E940904E8
:1025C0008823B9F4609101037091020380910303A1
:1025D0009091040320E030E040E050E00E940904C4
:1025E000882339F481E493E068EE73E041E00E94CF
:1025F000330E6091FD027091FE028091FF02909176
:102600000003209105033091060340910703509188
:1026100008030E9405021B012C01609101037091C7
:1026200002038091030390910403209109033091E8
:102630000A0340910B0350910C030E9405023B01D9
:102640004C016091F9027091FA028091FB02909125
:10265000FC026C597F4F8F4F9F4F2091F5023091B4
:10266000F6024091F7025091F802621B730B840B43
:10267000950B0E94AB057B018C01C201B101A80141
:1026800097010E9463022FE632E143E85AE30E9479
:10269000630220910D0330910E0340910F0350917E
:1026A00010030E9436025B016C0160930D0370936E
:1026B0000E0380930F0390931003C401B301A8018C
:1026C00097010E9463022FE632E143E85AE30E9439
:1026D0006302209111033091120340911303509132
:1026E00014030E9436026D837E838F8398876093E4
:1026F0001103709312038093130390931403C20188
:10270000B101209178023091790240917A02509182
:102710007B020E9463027B018C01C601B5012091FE
:102720007C0230917D0240917E0250917F020E9496
:1027300063029B01AC01C801B7010E9436027B0114
:102740008C01C201B1012091150330911603409113
:102750001703509118030E9405022DEC3CEC4CEC41
:102760005DE30E945D0320918002309181024091DF
:102770008202509183020E9463029B01AC01C80156
:10278000B7010E9436025B016C0160931D037093D8
:102790001E0380931F0390932003C401B301209173
:1027A00084023091850240918602509187020E94F6
:1027B00063027B018C016D817E818F8198852091E0
:1027C00088023091890240918A0250918B020E94C6
:1027D00063029B01AC01C801B7010E9436027B0174
:1027E0008C01C401B3012091190330911A03409167
:1027F0001B0350911C030E9405022DEC3CEC4CEC99
:102800005DE30E945D0320918C0230918D02409126
:102810008E0250918F020E9463029B01AC01C8019D
:10282000B7010E9436027B018C01609321037093F3
:102830002203809323039093240320921503309264
:102840001603409217035092180360921903709276
:102850001A0380921B0390921C0360913703772721
:1028600067FD7095872F972F0E94F904A6019501A7
:102870000E9436020E945705D62E6093370360915E
:102880003803772767FD7095872F972F0E94F904EB
:10289000A80197010E9436020E9457059B01AC01D6
:1028A00060933803332727FD30958D2D992787FDB9
:1028B0009095B9010E9458118091F9029091FA0205
:1028C000A091FB02B091FC028C599F4FAF4FBF4FBC
:1028D0008093F5029093F602A093F702B093F8026A
:1028E000F9CD1F920F920FB60F9211242F933F93A1
:1028F0004F935F936F937F938F939F93AF93BF9308
:10290000EF93FF934091C600E0910704F091080413
:10291000CF01019660E870E00E94491D9C01809102
:10292000090490910A042817390739F0E957FC4F38
:1029300040833093080420930704FF91EF91BF91E7
:10294000AF919F918F917F916F915F914F913F9147
:102950002F910F900FBE0F901F9018955F926F925E
:102960007F928F929F92AF92BF92CF92DF92EF921F
:10297000FF920F931F93CF93DF93EC015A016B01EA
:1029800081EDA81682E1B80683E1C80680E0D8068A
:1029900008F077C060EA75E286E290E0A601950152
:1029A0000E945C1D39014A01089461087108810880
:1029B00091089694879477946794A40193012F5F6C
:1029C0003F4F4F4F5F4F74E0220F331F441F551F7F
:1029D0007A95D1F760E07DE281E391E00E945C1D91
:1029E000CA01B9012FEF30E040E050E00E940A1D1B
:1029F000A60195010E945C1D8FEF90E0821B930B56
:102A0000181619061CF4522E509402C0522E5394DC
:102A100060E47BE48CE490E0A60195010E945C1DDB
:102A20002150304040405040569547953795279566
:102A30002F5F3F4F4F4F5F4F93E0220F331F441FD5
:102A4000551F9A95D1F760E07DE281E391E00E9405
:102A50005C1DCA01B9012FEF30E040E050E00E9458
:102A60000A1DA60195010E945C1D8FEF90E0821B5C
:102A7000930B1816190614F4209501C02F5F251525
:102A8000F0F4E885F98581E090E00A8802C0880FBB
:102A9000991F0A94E2F7808360E47BE48CE490E081
:102AA000A60195010E945C1D2150304040405040DD
:102AB0005695479537952795822F232F05C0E88592
:102AC000F9851082862D272DEC81FD812083EE81F2
:102AD000FF818083EA85FB85208141E050E0CA01C7
:102AE0000E8402C0880F991F0A94E2F7282B2083D6
:102AF000EA85FB852081CA010F8402C0880F991FD7
:102B00000A94E2F7282B2083EA85FB8580810888D8
:102B100002C0440F551F0A94E2F7842B8083DF9193
:102B2000CF911F910F91FF90EF90DF90CF90BF90CA
:102B3000AF909F908F907F906F905F900895DC0191
:102B40001296ED91FC911397E058FF4F819191916E
:102B500080589F4F20813181821B930B60E870E089
:102B60000E94491D0895DC011296ED91FC91139786
:102B7000EE57FF4F2081318192918291E058F040D1
:102B80008217930719F42FEF3FEF05C0E20FF31FF1
:102B90008081282F30E0C9010895CF93DF93DC01B5
:102BA0001296ED91FC911397EF01CE57DF4F4881BC
:102BB0005981E058FF4F80819181E058F04084179F
:102BC000950719F42FEF3FEF0CC0E40FF51F20819C
:102BD000CA01019660E870E00E94491D99838883CC
:102BE00030E0C901DF91CF910895DC011296ED919B
:102BF000FC911397EE57FF4F8081918192938293BE
:102C00000895FC01A085B18521898C9190E0022E68
:102C100002C0959587950A94E2F780FFF6CF048469
:102C2000F585E02D6083089585E992E090930C048A
:102C300080930B0487E893E090930E0480930D0437
:102C400085EC90E09093100480930F0484EC90E066
:102C5000909312048093110480EC90E090931404FC
:102C60008093130481EC90E09093160480931504F4
:102C700086EC90E0909318048093170484E080938E
:102C8000190483E080931A0487E080931B0485E095
:102C900080931C0481E080931D0408950F931F937B
:102CA000CF93DF938C01EB0109C02196D801ED9100
:102CB000FC910190F081E02DC8010995688166239F
:102CC000A1F7DF91CF911F910F910895EF92FF929D
:102CD0000F931F93CF93DF938C017B01EA010CC00C
:102CE000D7016D917D01D801ED91FC910190F081AA
:102CF000E02DC80109952197209791F7DF91CF9199
:102D00001F910F91FF90EF900895DC01ED91FC91E0
:102D10000280F381E02D099508952F923F924F9202
:102D20005F926F927F928F929F92AF92BF92CF925B
:102D3000DF92EF92FF920F931F93DF93CF93CDB764
:102D4000DEB7A0970FB6F894DEBF0FBECDBF1C0153
:102D50006A017B01411551056105710549F440E3A4
:102D600050E060E070E020E030E00E94461754C080
:102D7000882499245401422E55246624772401E0A6
:102D800010E00C0F1D1F080D191DC701B601A3018E
:102D900092010E945C1DF80160830894811C911CC3
:102DA000A11CB11CC701B601A30192010E945C1DC8
:102DB000C901DA016C017D01C114D104E104F104FF
:102DC000F1F681E0E82EF12CEC0EFD1EE80CF91C6A
:102DD0003E010894611C711CD501C4010197A10931
:102DE000B1096C01C818D90814C0F601EE0DFF1D19
:102DF00040814A3010F4405D01C0495C50E060E021
:102E000070E0C10120E030E00E9446170894E1081C
:102E1000F1086E147F0449F7A0960FB6F894DEBF50
:102E20000FBECDBFCF91DF911F910F91FF90EF901B
:102E3000DF90CF90BF90AF909F908F907F906F90DA
:102E40005F904F903F902F900895DC012115310540
:102E500041F4ED91FC910190F081E02D642F0995F2
:102E600008950E948D160895EF92FF920F931F937D
:102E70009A01E62EFF2400E010E0B801A7010E94AD
:102E800025171F910F91FF90EF900895EF92FF92F9
:102E90000F931F93CF93DF93EC017A018B012115E0
:102EA000310541F4E881F9810190F081E02D642F32
:102EB00009951BC02A303105B1F477FF10C04DE2EF
:102EC00050E060E070E020E030E00E94461710958E
:102ED0000095F094E094E11CF11C011D111DCE0140
:102EE000B801A7012AE00E948D16DF91CF911F91B2
:102EF0000F91FF90EF900895EF92FF920F931F9321
:102F00007B019A010027F7FC0095102FB801A7015B
:102F10000E9446171F910F91FF90EF9008950F9315
:102F20001F938C014DE050E060E070E020E030E065
:102F30000E944617C8014AE050E060E070E020E0DF
:102F400030E00E9446171F910F9108950F931F9331
:102F50008C010E948516C8010E948F171F910F9146
:102F600008959F92AF92BF92CF92DF92EF92FF921D
:102F70000F931F93CF93DF93EC017A018B01922E75
:102F8000CB01BA0120E030E040E050E00E9499041B
:102F900088236CF4CE014DE250E060E070E020E068
:102FA00030E00E94461717FB109517F9109520E0A6
:102FB00030E040E05FE3AA240BC0CA01B90120E081
:102FC00030E040E251E40E945D039B01AC01A39418
:102FD000A91498F3C801B7010E9436025B016C0185
:102FE0000E948D007B018C01CE01B801A7012AE06F
:102FF00030E00E942517992029F0CE016EE671E09D
:103000000E948516C801B7010E94AB059B01AC0167
:10301000C601B5010E94050222C020E030E040E276
:1030200051E40E9463027B018C010E9457055B0101
:103030006C01CC24B7FCC094DC2CCE01B601A501F8
:103040002AE030E00E944617C601B5010E94F9044B
:103050009B01AC01C801B7010E9405029A94992016
:10306000E1F6DF91CF911F910F91FF90EF90DF90EC
:10307000CF90BF90AF909F9008950E94B117089590
:103080000F931F938C010E94B117C8010E948F17E4
:103090001F910F910895823000F5E82FF0E0EE0FB8
:1030A000FF1FE25EFB4F71836083882319F081303C
:1030B000A1F408C0809169008C7F842B8093690003
:1030C000E89A089580916900440F551F440F551FD9
:1030D000837F842B80936900E99A08951F920F9251
:1030E0000FB60F9211242F933F934F935F936F93DB
:1030F0007F938F939F93AF93BF93EF93FF938091B1
:103100001E0490911F04892B29F0E0911E04F09178
:103110001F040995FF91EF91BF91AF919F918F91FE
:103120007F916F915F914F913F912F910F900FBEC3
:103130000F901F9018951F920F920FB60F921124A7
:103140002F933F934F935F936F937F938F939F93AF
:10315000AF93BF93EF93FF9380912004909121044C
:10316000892B29F0E0912004F09121040995FF9129
:10317000EF91BF91AF919F918F917F916F915F91EF
:103180004F913F912F910F900FBE0F901F90189568
:103190002F923F924F925F926F927F928F929F9267
:1031A000AF92BF92CF92DF92EF92FF920F931F9355
:1031B000DF93CF93CDB7DEB73B014C0119012A0154
:1031C0006D897E898F89988D6A197B098C099D0983
:1031D000621A730A840A950AA40193010E940A1DC7
:1031E000E218F30804091509A80197010E947E1D41
:1031F0002A0D3B1D4C1D5D1DB901CA01CF91DF9108
:103200001F910F91FF90EF90DF90CF90BF90AF9004
:103210009F908F907F906F905F904F903F902F90F6
:1032200008951F920F920FB60F9211242F933F9380
:103230008F939F93AF93BF9380912604909127041F
:10324000A0912804B091290430912A04232F2A59EF
:103250002D3720F02D570196A11DB11D20932A0472
:103260008093260490932704A0932804B093290404
:103270008091220490912304A0912404B09125040C
:103280000196A11DB11D8093220490932304A09365
:103290002404B0932504BF91AF919F918F913F91EA
:1032A0002F910F900FBE0F901F9018958FB7F89425
:1032B000209126043091270440912804509129043C
:1032C0008FBFB901CA0108953FB7F89480912204D5
:1032D00090912304A0912404B091250426B5A89BC5
:1032E00005C02F3F19F00196A11DB11D3FBFBA2F98
:1032F000A92F982F8827820F911DA11DB11D9C0118
:10330000AD01220F331F441F551F280F391F4A1FBD
:103310005B1FB901CA010895EF92FF920F931F93AB
:10332000CF93DF937B018C010E946419EB010EC0E7
:103330000E9464196C1B7D0B685E7340C8F308948F
:10334000E108F10801091109C851DC4FE114F10449
:103350000105110569F7DF91CF911F910F91FF9042
:10336000EF900895789484B5826084BD84B58160BF
:1033700084BD85B5826085BD85B5816085BDEEE67D
:10338000F0E0808181608083E1E8F0E0108280815C
:1033900082608083808181608083E0E8F0E08081CA
:1033A00081608083E1EBF0E0808184608083E0EBEA
:1033B000F0E0808181608083EAE7F0E080818460D2
:1033C000808380818260808380818160808380812E
:1033D000806880831092C1000895982F8E3008F085
:1033E0009E509770809190028295880F880F807C04
:1033F000892B80937C0080917A00806480937A008E
:1034000080917A0086FDFCCF209178004091790070
:10341000942F80E030E0282B392BC9010895482FE4
:1034200050E0CA0186569F4FFC0124914A575F4FD6
:10343000FA0184918823C1F0E82FF0E0EE0FFF1F1E
:10344000E859FF4FA591B491662341F49FB7F894D2
:103450008C91209582238C939FBF08959FB7F894F9
:103460008C91822B8C939FBF0895482F50E0CA0106
:1034700082559F4FFC012491CA0186569F4FFC0143
:1034800034914A575F4FFA019491992309F440C04F
:10349000222331F1233021F4809180008F7705C001
:1034A000243031F4809180008F7D8093800018C09B
:1034B000213019F484B58F7704C0223021F484B50B
:1034C0008F7D84BD0DC0263021F48091B0008F77B0
:1034D00005C0273029F48091B0008F7D8093B00023
:1034E000E92FF0E0EE0FFF1FEE58FF4FA591B491CA
:1034F000662341F49FB7F8948C91309583238C9385
:103500009FBF08959FB7F8948C91832B8C939FBF96
:103510000895FC0180912B048C3090F480838F5FA0
:1035200080932B04815090E0FC01EE0FFF1FE80F09
:10353000F91FE45DFB4F86EA9EE092838183089544
:103540008FEF808308951F93FC0110811C3008F0D9
:1035500041C08181992787FD909528E830E0281B9C
:10356000390B220F331F220F331F6217730784F0AA
:103570008281992787FD909528E532E0281B390B39
:10358000220F331F220F331F621773070CF49B01A6
:1035900022503040B901882777FD8095982F24E18B
:1035A00030E040E050E00E940A1DB3E09695879518
:1035B00077956795BA95D1F74FB7F894212F30E0FA
:1035C000F901EE0FFF1FE20FF31FE45DFB4F728363
:1035D00061834FBF1F910895FC0180818F3F19F4D3
:1035E00060E070E015C090E0FC01EE0FFF1FE80FF7
:1035F000F91FE45DFB4F8181928123E0880F991FC1
:103600002A95E1F764E170E00E94351D6E5F7F4FFF
:10361000CB010895AF92BF92CF92DF92EF92FF92CB
:103620000F931F938C010E94EC1A00D000D00196DA
:10363000AA2797FDA095BA2FF8016181772767FD2A
:10364000709528E830E0261B370B220F331F220F1E
:10365000331F442737FD4095542F6281772767FD3C
:103660007095E8E5EE2EE2E0FE2EE61AF70AEE0C83
:10367000FF1CEE0CFF1C0027F7FC0095102F64EBDD
:10368000A62EB12CC12CD12CEDB7FEB7A182B282EF
:10369000C382D482BC01CD01AA24BB2465010E944F
:1036A000C8180F900F900F900F90CB011F910F91A2
:1036B000FF90EF90DF90CF90BF90AF900895AF92C2
:1036C000BF92CF92DF92EF92FF920F931F93CF930F
:1036D000DF93EC019B0182E0603278070CF048C078
:1036E00077FF03C020E030E005C0653B710514F0B2
:1036F00024EB30E000D000D0B901882777FD809519
:10370000982F2981332727FD3095B8E8AB2EB12CAF
:10371000A21AB30AAA0CBB1CAA0CBB1CCC24B7FC73
:10372000C094DC2CEA81FF27E7FDF09528E532E024
:103730002E1B3F0B220F331F220F331F442737FD51
:103740004095542FEDB7FEB72183328343835483D2
:1037500020E030E040E050E0E4EBEE2EF12C012DD3
:10376000112D0E94C8189B010F900F900F900F9081
:10377000CE01B9010E94A31ADF91CF911F910F9141
:10378000FF90EF90DF90CF90BF90AF900895CF92D1
:10379000DF92EF92FF921F93CF93DF93EC01162FEE
:1037A0007A01690188818C3008F064C0862F61E05D
:1037B0000E940F1A888190E0FC01EE0FFF1FE80FB6
:1037C000F91FE45DFB4F1F738081807C812B808318
:1037D00080E292E08E199F0964E070E00E94491D2A
:1037E000698380E699E08C199D0964E070E00E948D
:1037F000491D6A83A8818A2F6CE00E94291D682FC9
:1038000090E0AC01440F551F480F591F440F551F3E
:10381000440F551F20E030E0C901840F951FFC01C3
:10382000EE0FFF1FE80FF91FE45DFB4F808186FD5F
:1038300015C02F5F3F4F2C30310571F724C0109217
:10384000800082E0809381001092850010928400B5
:10385000B19A80916F00826080936F008A2F90E010
:10386000FC01EE0FFF1FE80FF91FE45DFB4F8081A5
:10387000806480838881DF91CF911F91FF90EF90CA
:10388000DF90CF9008956623D1F2E8CF40E252E076
:1038900020E639E00E94C71B08951F920F920FB6D1
:1038A0000F9211242F933F934F935F936F937F93C6
:1038B0008F939F93AF93BF93EF93FF9380915004A7
:1038C00087FF05C010928500109284002BC02091C4
:1038D0005004332727FD309580912B0490E0281762
:1038E000390704F580915004992787FD9095FC01D4
:1038F000EE0FFF1FE80FF91FE45DFB4F808186FF8D
:1039000011C080915004992787FD9095FC01EE0F1E
:10391000FF1FE80FF91FE45DFB4F80818F7360E0AC
:103920000E94351A809150048F5F8093500420913B
:103930005004332727FD309580912B0490E0281701
:1039400039070CF04EC0809150048C300CF049C007
:10395000209184003091850080915004992787FD43
:103960009095FC01EE0FFF1FE80FF91FE45DFB4F80
:1039700081819281280F391F30938900209388001C
:1039800080915004992787FD9095FC01EE0FFF1F51
:10399000E80FF91FE45DFB4F808186FF2AC080910C
:1039A0005004992787FD9095FC01EE0FFF1FE80F4B
:1039B000F91FE45DFB4F80818F7361E00E94351A2F
:1039C00018C080E593EC05C080918400909185003B
:1039D000049690938900809388008FEF8093500421
:1039E00008C080918400909185008455934C48F3E1
:1039F000EBCFFF91EF91BF91AF919F918F917F910D
:103A00006F915F914F913F912F910F900FBE0F904B
:103A10001F901895629FD001739FF001829FE00D67
:103A2000F11D649FE00DF11D929FF00D839FF00D3D
:103A3000749FF00D659FF00D9927729FB00DE11DE9
:103A4000F91F639FB00DE11DF91FBD01CF011124C6
:103A50000895991B79E004C0991F961708F0961BEA
:103A6000881F7A95C9F780950895AA1BBB1B51E161
:103A700007C0AA1FBB1FA617B70710F0A61BB70BDE
:103A8000881F991F5A95A9F780959095BC01CD0183
:103A9000089597FB092E07260AD077FD04D0E5DFAD
:103AA00006D000201AF4709561957F4F0895F6F7BF
:103AB000909581959F4F0895A1E21A2EAA1BBB1BDA
:103AC000FD010DC0AA1FBB1FEE1FFF1FA217B307EA
:103AD000E407F50720F0A21BB30BE40BF50B661F00
:103AE000771F881F991F1A9469F7609570958095C4
:103AF00090959B01AC01BD01CF01089597FB092E64
:103B000005260ED057FD04D0D7DF0AD0001C38F4AC
:103B100050954095309521953F4F4F4F5F4F0895F9
:103B2000F6F790958095709561957F4F8F4F9F4FD9
:103B300008952F923F924F925F926F927F928F9251
:103B40009F92AF92BF92CF92DF92EF92FF920F932C
:103B50001F93CF93DF93CDB7DEB7CA1BDB0B0FB636
:103B6000F894DEBF0FBECDBF09942A8839884888F3
:103B70005F846E847D848C849B84AA84B984C88489
:103B8000DF80EE80FD800C811B81AA81B981CE0F80
:103B9000D11D0FB6F894DEBF0FBECDBFED01089565
:103BA000EE0FFF1F0590F491E02D0994FB01519158
:103BB0005523A9F0BF01DC014D9145174111E1F7F3
:103BC00059F4CD010190002049F04D91401541116B
:103BD000C9F3FB014111EFCF81E090E00197089517
:043BE000F894FFCF87
:103BE4003C003E0073445256006753454E00674301
:103BF4004E540067454E430067475952006742548C
:103C0400590067534552007353455200674C535053
:103C1400006752535000674C4D530067524D530098
:103C2400674241540020766F6C74732C200020612D
:103C34006D70730D0A00494E56414C494420434F60
:103C44004D4D414E440048454C4C4F0D0A002E004A
:103C5400000000000000000000010202030303034F
:103C64000404040404040404050505050505050508
:103C740005050505050505050606060606060606E8
:103C840006060606060606060606060606060606D0
:103C940006060606060606060707070707070707B8
:103CA40007070707070707070707070707070707A0
:103CB4000707070707070707070707070707070790
:103CC4000707070707070707070707070707070780
:103CD4000707070707070707080808080808080868
:103CE4000808080808080808080808080808080850
:103CF4000808080808080808080808080808080840
:103D0400080808080808080808080808080808082F
:103D1400080808080808080808080808080808081F
:103D2400080808080808080808080808080808080F
:103D340008080808080808080808080808080808FF
:103D440008080808080808080808080808080808EF
:103D540008080808080808080000803FCDCCCC3DBE
:103D6400000000000000803FCDCCCC3D00000000EE
:103D7400010000000001164E1666169F15CD15F5BC
:043D840015B315005E
:00000001FF
